{
  "_format": "hh-sol-artifact-1",
  "contractName": "DelegationAwareAToken",
  "sourceName": "contracts/Aave_Contracts/protocol/tokenization/DelegationAwareAToken.sol",
  "abi": [
    {
      "inputs": [
        {
          "internalType": "contract IPool",
          "name": "pool",
          "type": "address"
        }
      ],
      "stateMutability": "nonpayable",
      "type": "constructor"
    },
    {
      "anonymous": false,
      "inputs": [
        {
          "indexed": true,
          "internalType": "address",
          "name": "owner",
          "type": "address"
        },
        {
          "indexed": true,
          "internalType": "address",
          "name": "spender",
          "type": "address"
        },
        {
          "indexed": false,
          "internalType": "uint256",
          "name": "value",
          "type": "uint256"
        }
      ],
      "name": "Approval",
      "type": "event"
    },
    {
      "anonymous": false,
      "inputs": [
        {
          "indexed": true,
          "internalType": "address",
          "name": "from",
          "type": "address"
        },
        {
          "indexed": true,
          "internalType": "address",
          "name": "to",
          "type": "address"
        },
        {
          "indexed": false,
          "internalType": "uint256",
          "name": "value",
          "type": "uint256"
        },
        {
          "indexed": false,
          "internalType": "uint256",
          "name": "index",
          "type": "uint256"
        }
      ],
      "name": "BalanceTransfer",
      "type": "event"
    },
    {
      "anonymous": false,
      "inputs": [
        {
          "indexed": true,
          "internalType": "address",
          "name": "from",
          "type": "address"
        },
        {
          "indexed": true,
          "internalType": "address",
          "name": "target",
          "type": "address"
        },
        {
          "indexed": false,
          "internalType": "uint256",
          "name": "value",
          "type": "uint256"
        },
        {
          "indexed": false,
          "internalType": "uint256",
          "name": "balanceIncrease",
          "type": "uint256"
        },
        {
          "indexed": false,
          "internalType": "uint256",
          "name": "index",
          "type": "uint256"
        }
      ],
      "name": "Burn",
      "type": "event"
    },
    {
      "anonymous": false,
      "inputs": [
        {
          "indexed": true,
          "internalType": "address",
          "name": "delegatee",
          "type": "address"
        }
      ],
      "name": "DelegateUnderlyingTo",
      "type": "event"
    },
    {
      "anonymous": false,
      "inputs": [
        {
          "indexed": true,
          "internalType": "address",
          "name": "underlyingAsset",
          "type": "address"
        },
        {
          "indexed": true,
          "internalType": "address",
          "name": "pool",
          "type": "address"
        },
        {
          "indexed": false,
          "internalType": "address",
          "name": "treasury",
          "type": "address"
        },
        {
          "indexed": false,
          "internalType": "address",
          "name": "incentivesController",
          "type": "address"
        },
        {
          "indexed": false,
          "internalType": "uint8",
          "name": "aTokenDecimals",
          "type": "uint8"
        },
        {
          "indexed": false,
          "internalType": "string",
          "name": "aTokenName",
          "type": "string"
        },
        {
          "indexed": false,
          "internalType": "string",
          "name": "aTokenSymbol",
          "type": "string"
        },
        {
          "indexed": false,
          "internalType": "bytes",
          "name": "params",
          "type": "bytes"
        }
      ],
      "name": "Initialized",
      "type": "event"
    },
    {
      "anonymous": false,
      "inputs": [
        {
          "indexed": true,
          "internalType": "address",
          "name": "caller",
          "type": "address"
        },
        {
          "indexed": true,
          "internalType": "address",
          "name": "onBehalfOf",
          "type": "address"
        },
        {
          "indexed": false,
          "internalType": "uint256",
          "name": "value",
          "type": "uint256"
        },
        {
          "indexed": false,
          "internalType": "uint256",
          "name": "balanceIncrease",
          "type": "uint256"
        },
        {
          "indexed": false,
          "internalType": "uint256",
          "name": "index",
          "type": "uint256"
        }
      ],
      "name": "Mint",
      "type": "event"
    },
    {
      "anonymous": false,
      "inputs": [
        {
          "indexed": true,
          "internalType": "address",
          "name": "from",
          "type": "address"
        },
        {
          "indexed": true,
          "internalType": "address",
          "name": "to",
          "type": "address"
        },
        {
          "indexed": false,
          "internalType": "uint256",
          "name": "value",
          "type": "uint256"
        }
      ],
      "name": "Transfer",
      "type": "event"
    },
    {
      "inputs": [],
      "name": "ATOKEN_REVISION",
      "outputs": [
        {
          "internalType": "uint256",
          "name": "",
          "type": "uint256"
        }
      ],
      "stateMutability": "view",
      "type": "function"
    },
    {
      "inputs": [],
      "name": "DOMAIN_SEPARATOR",
      "outputs": [
        {
          "internalType": "bytes32",
          "name": "",
          "type": "bytes32"
        }
      ],
      "stateMutability": "view",
      "type": "function"
    },
    {
      "inputs": [],
      "name": "EIP712_REVISION",
      "outputs": [
        {
          "internalType": "bytes",
          "name": "",
          "type": "bytes"
        }
      ],
      "stateMutability": "view",
      "type": "function"
    },
    {
      "inputs": [],
      "name": "PERMIT_TYPEHASH",
      "outputs": [
        {
          "internalType": "bytes32",
          "name": "",
          "type": "bytes32"
        }
      ],
      "stateMutability": "view",
      "type": "function"
    },
    {
      "inputs": [],
      "name": "POOL",
      "outputs": [
        {
          "internalType": "contract IPool",
          "name": "",
          "type": "address"
        }
      ],
      "stateMutability": "view",
      "type": "function"
    },
    {
      "inputs": [],
      "name": "RESERVE_TREASURY_ADDRESS",
      "outputs": [
        {
          "internalType": "address",
          "name": "",
          "type": "address"
        }
      ],
      "stateMutability": "view",
      "type": "function"
    },
    {
      "inputs": [],
      "name": "UNDERLYING_ASSET_ADDRESS",
      "outputs": [
        {
          "internalType": "address",
          "name": "",
          "type": "address"
        }
      ],
      "stateMutability": "view",
      "type": "function"
    },
    {
      "inputs": [
        {
          "internalType": "address",
          "name": "owner",
          "type": "address"
        },
        {
          "internalType": "address",
          "name": "spender",
          "type": "address"
        }
      ],
      "name": "allowance",
      "outputs": [
        {
          "internalType": "uint256",
          "name": "",
          "type": "uint256"
        }
      ],
      "stateMutability": "view",
      "type": "function"
    },
    {
      "inputs": [
        {
          "internalType": "address",
          "name": "spender",
          "type": "address"
        },
        {
          "internalType": "uint256",
          "name": "amount",
          "type": "uint256"
        }
      ],
      "name": "approve",
      "outputs": [
        {
          "internalType": "bool",
          "name": "",
          "type": "bool"
        }
      ],
      "stateMutability": "nonpayable",
      "type": "function"
    },
    {
      "inputs": [
        {
          "internalType": "address",
          "name": "user",
          "type": "address"
        }
      ],
      "name": "balanceOf",
      "outputs": [
        {
          "internalType": "uint256",
          "name": "",
          "type": "uint256"
        }
      ],
      "stateMutability": "view",
      "type": "function"
    },
    {
      "inputs": [
        {
          "internalType": "address",
          "name": "from",
          "type": "address"
        },
        {
          "internalType": "address",
          "name": "receiverOfUnderlying",
          "type": "address"
        },
        {
          "internalType": "uint256",
          "name": "amount",
          "type": "uint256"
        },
        {
          "internalType": "uint256",
          "name": "index",
          "type": "uint256"
        }
      ],
      "name": "burn",
      "outputs": [],
      "stateMutability": "nonpayable",
      "type": "function"
    },
    {
      "inputs": [],
      "name": "decimals",
      "outputs": [
        {
          "internalType": "uint8",
          "name": "",
          "type": "uint8"
        }
      ],
      "stateMutability": "view",
      "type": "function"
    },
    {
      "inputs": [
        {
          "internalType": "address",
          "name": "spender",
          "type": "address"
        },
        {
          "internalType": "uint256",
          "name": "subtractedValue",
          "type": "uint256"
        }
      ],
      "name": "decreaseAllowance",
      "outputs": [
        {
          "internalType": "bool",
          "name": "",
          "type": "bool"
        }
      ],
      "stateMutability": "nonpayable",
      "type": "function"
    },
    {
      "inputs": [
        {
          "internalType": "address",
          "name": "delegatee",
          "type": "address"
        }
      ],
      "name": "delegateUnderlyingTo",
      "outputs": [],
      "stateMutability": "nonpayable",
      "type": "function"
    },
    {
      "inputs": [],
      "name": "getIncentivesController",
      "outputs": [
        {
          "internalType": "contract IAaveIncentivesController",
          "name": "",
          "type": "address"
        }
      ],
      "stateMutability": "view",
      "type": "function"
    },
    {
      "inputs": [
        {
          "internalType": "address",
          "name": "user",
          "type": "address"
        }
      ],
      "name": "getPreviousIndex",
      "outputs": [
        {
          "internalType": "uint256",
          "name": "",
          "type": "uint256"
        }
      ],
      "stateMutability": "view",
      "type": "function"
    },
    {
      "inputs": [
        {
          "internalType": "address",
          "name": "user",
          "type": "address"
        }
      ],
      "name": "getScaledUserBalanceAndSupply",
      "outputs": [
        {
          "internalType": "uint256",
          "name": "",
          "type": "uint256"
        },
        {
          "internalType": "uint256",
          "name": "",
          "type": "uint256"
        }
      ],
      "stateMutability": "view",
      "type": "function"
    },
    {
      "inputs": [
        {
          "internalType": "address",
          "name": "user",
          "type": "address"
        },
        {
          "internalType": "uint256",
          "name": "amount",
          "type": "uint256"
        }
      ],
      "name": "handleRepayment",
      "outputs": [],
      "stateMutability": "nonpayable",
      "type": "function"
    },
    {
      "inputs": [
        {
          "internalType": "address",
          "name": "spender",
          "type": "address"
        },
        {
          "internalType": "uint256",
          "name": "addedValue",
          "type": "uint256"
        }
      ],
      "name": "increaseAllowance",
      "outputs": [
        {
          "internalType": "bool",
          "name": "",
          "type": "bool"
        }
      ],
      "stateMutability": "nonpayable",
      "type": "function"
    },
    {
      "inputs": [
        {
          "internalType": "contract IPool",
          "name": "initializingPool",
          "type": "address"
        },
        {
          "internalType": "address",
          "name": "treasury",
          "type": "address"
        },
        {
          "internalType": "address",
          "name": "underlyingAsset",
          "type": "address"
        },
        {
          "internalType": "contract IAaveIncentivesController",
          "name": "incentivesController",
          "type": "address"
        },
        {
          "internalType": "uint8",
          "name": "aTokenDecimals",
          "type": "uint8"
        },
        {
          "internalType": "string",
          "name": "aTokenName",
          "type": "string"
        },
        {
          "internalType": "string",
          "name": "aTokenSymbol",
          "type": "string"
        },
        {
          "internalType": "bytes",
          "name": "params",
          "type": "bytes"
        }
      ],
      "name": "initialize",
      "outputs": [],
      "stateMutability": "nonpayable",
      "type": "function"
    },
    {
      "inputs": [
        {
          "internalType": "address",
          "name": "caller",
          "type": "address"
        },
        {
          "internalType": "address",
          "name": "onBehalfOf",
          "type": "address"
        },
        {
          "internalType": "uint256",
          "name": "amount",
          "type": "uint256"
        },
        {
          "internalType": "uint256",
          "name": "index",
          "type": "uint256"
        }
      ],
      "name": "mint",
      "outputs": [
        {
          "internalType": "bool",
          "name": "",
          "type": "bool"
        }
      ],
      "stateMutability": "nonpayable",
      "type": "function"
    },
    {
      "inputs": [
        {
          "internalType": "uint256",
          "name": "amount",
          "type": "uint256"
        },
        {
          "internalType": "uint256",
          "name": "index",
          "type": "uint256"
        }
      ],
      "name": "mintToTreasury",
      "outputs": [],
      "stateMutability": "nonpayable",
      "type": "function"
    },
    {
      "inputs": [],
      "name": "name",
      "outputs": [
        {
          "internalType": "string",
          "name": "",
          "type": "string"
        }
      ],
      "stateMutability": "view",
      "type": "function"
    },
    {
      "inputs": [
        {
          "internalType": "address",
          "name": "owner",
          "type": "address"
        }
      ],
      "name": "nonces",
      "outputs": [
        {
          "internalType": "uint256",
          "name": "",
          "type": "uint256"
        }
      ],
      "stateMutability": "view",
      "type": "function"
    },
    {
      "inputs": [
        {
          "internalType": "address",
          "name": "owner",
          "type": "address"
        },
        {
          "internalType": "address",
          "name": "spender",
          "type": "address"
        },
        {
          "internalType": "uint256",
          "name": "value",
          "type": "uint256"
        },
        {
          "internalType": "uint256",
          "name": "deadline",
          "type": "uint256"
        },
        {
          "internalType": "uint8",
          "name": "v",
          "type": "uint8"
        },
        {
          "internalType": "bytes32",
          "name": "r",
          "type": "bytes32"
        },
        {
          "internalType": "bytes32",
          "name": "s",
          "type": "bytes32"
        }
      ],
      "name": "permit",
      "outputs": [],
      "stateMutability": "nonpayable",
      "type": "function"
    },
    {
      "inputs": [
        {
          "internalType": "address",
          "name": "token",
          "type": "address"
        },
        {
          "internalType": "address",
          "name": "to",
          "type": "address"
        },
        {
          "internalType": "uint256",
          "name": "amount",
          "type": "uint256"
        }
      ],
      "name": "rescueTokens",
      "outputs": [],
      "stateMutability": "nonpayable",
      "type": "function"
    },
    {
      "inputs": [
        {
          "internalType": "address",
          "name": "user",
          "type": "address"
        }
      ],
      "name": "scaledBalanceOf",
      "outputs": [
        {
          "internalType": "uint256",
          "name": "",
          "type": "uint256"
        }
      ],
      "stateMutability": "view",
      "type": "function"
    },
    {
      "inputs": [],
      "name": "scaledTotalSupply",
      "outputs": [
        {
          "internalType": "uint256",
          "name": "",
          "type": "uint256"
        }
      ],
      "stateMutability": "view",
      "type": "function"
    },
    {
      "inputs": [
        {
          "internalType": "contract IAaveIncentivesController",
          "name": "controller",
          "type": "address"
        }
      ],
      "name": "setIncentivesController",
      "outputs": [],
      "stateMutability": "nonpayable",
      "type": "function"
    },
    {
      "inputs": [],
      "name": "symbol",
      "outputs": [
        {
          "internalType": "string",
          "name": "",
          "type": "string"
        }
      ],
      "stateMutability": "view",
      "type": "function"
    },
    {
      "inputs": [],
      "name": "totalSupply",
      "outputs": [
        {
          "internalType": "uint256",
          "name": "",
          "type": "uint256"
        }
      ],
      "stateMutability": "view",
      "type": "function"
    },
    {
      "inputs": [
        {
          "internalType": "address",
          "name": "recipient",
          "type": "address"
        },
        {
          "internalType": "uint256",
          "name": "amount",
          "type": "uint256"
        }
      ],
      "name": "transfer",
      "outputs": [
        {
          "internalType": "bool",
          "name": "",
          "type": "bool"
        }
      ],
      "stateMutability": "nonpayable",
      "type": "function"
    },
    {
      "inputs": [
        {
          "internalType": "address",
          "name": "sender",
          "type": "address"
        },
        {
          "internalType": "address",
          "name": "recipient",
          "type": "address"
        },
        {
          "internalType": "uint256",
          "name": "amount",
          "type": "uint256"
        }
      ],
      "name": "transferFrom",
      "outputs": [
        {
          "internalType": "bool",
          "name": "",
          "type": "bool"
        }
      ],
      "stateMutability": "nonpayable",
      "type": "function"
    },
    {
      "inputs": [
        {
          "internalType": "address",
          "name": "from",
          "type": "address"
        },
        {
          "internalType": "address",
          "name": "to",
          "type": "address"
        },
        {
          "internalType": "uint256",
          "name": "value",
          "type": "uint256"
        }
      ],
      "name": "transferOnLiquidation",
      "outputs": [],
      "stateMutability": "nonpayable",
      "type": "function"
    },
    {
      "inputs": [
        {
          "internalType": "address",
          "name": "target",
          "type": "address"
        },
        {
          "internalType": "uint256",
          "name": "amount",
          "type": "uint256"
        }
      ],
      "name": "transferUnderlyingTo",
      "outputs": [],
      "stateMutability": "nonpayable",
      "type": "function"
    }
  ],
  "bytecode": "0x60e0604052600080553480156200001557600080fd5b5060405162004f1738038062004f1783398181016040528101906200003b919062000323565b80806040518060400160405280600b81526020017f41544f4b454e5f494d504c0000000000000000000000000000000000000000008152506040518060400160405280600b81526020017f41544f4b454e5f494d504c000000000000000000000000000000000000000000815250600083838383838383838373ffffffffffffffffffffffffffffffffffffffff16630542975c6040518163ffffffff1660e01b8152600401602060405180830381865afa158015620000ff573d6000803e3d6000fd5b505050506040513d601f19601f820116820180604052508101906200012591906200039a565b73ffffffffffffffffffffffffffffffffffffffff1660808173ffffffffffffffffffffffffffffffffffffffff1681525050826037908051906020019062000170929190620001f5565b50816038908051906020019062000189929190620001f5565b5080603960006101000a81548160ff021916908360ff1602179055508373ffffffffffffffffffffffffffffffffffffffff1660a08173ffffffffffffffffffffffffffffffffffffffff16815250505050505050505050505050504660c08181525050505062000431565b8280546200020390620003fb565b90600052602060002090601f01602090048101928262000227576000855562000273565b82601f106200024257805160ff191683800117855562000273565b8280016001018555821562000273579182015b828111156200027257825182559160200191906001019062000255565b5b50905062000282919062000286565b5090565b5b80821115620002a157600081600090555060010162000287565b5090565b600080fd5b600073ffffffffffffffffffffffffffffffffffffffff82169050919050565b6000620002d782620002aa565b9050919050565b6000620002eb82620002ca565b9050919050565b620002fd81620002de565b81146200030957600080fd5b50565b6000815190506200031d81620002f2565b92915050565b6000602082840312156200033c576200033b620002a5565b5b60006200034c848285016200030c565b91505092915050565b60006200036282620002ca565b9050919050565b620003748162000355565b81146200038057600080fd5b50565b600081519050620003948162000369565b92915050565b600060208284031215620003b357620003b2620002a5565b5b6000620003c38482850162000383565b91505092915050565b7f4e487b7100000000000000000000000000000000000000000000000000000000600052602260045260246000fd5b600060028204905060018216806200041457607f821691505b602082108114156200042b576200042a620003cc565b5b50919050565b60805160a05160c051614a4d620004ca60003960006126810152600081816107ec0152818161097101528181610bac015281816110aa015281816111ce015281816112a80152818161132f0152818161140e015281816114710152818161171101528181611dbd015281816121e901528181612e480152612f4d015260008181610d5d015281816117f701526120210152614a4d6000f3fe608060405234801561001057600080fd5b50600436106102115760003560e01c80637816037611610125578063b1bf962d116100ad578063d7020d0a1161007c578063d7020d0a14610641578063dd62ed3e1461065d578063e07539861461068d578063e655dbd8146106bd578063f866c319146106d957610211565b8063b1bf962d146105bb578063b3f1c93d146105d9578063cea9d26f14610609578063d505accf1461062557610211565b806395d89b41116100f457806395d89b4114610501578063a457c2d71461051f578063a9059cbb1461054f578063ae1673351461057f578063b16a19de1461059d57610211565b8063781603761461047b5780637df5bd3b146104995780637ecebe00146104b557806388dd91a1146104e557610211565b80632f114618116101a8578063395093511161017757806339509351146103c35780634efecaa5146103f357806370a082311461040f5780637535d2461461043f57806375d264131461045d57610211565b80632f1146181461034d57806330adf81f14610369578063313ce567146103875780633644e515146103a557610211565b806318160ddd116101e457806318160ddd146102b3578063183fb413146102d15780631da24f3e146102ed57806323b872dd1461031d57610211565b806306fdde0314610216578063095ea7b3146102345780630afbcdc9146102645780630bd7ad3b14610295575b600080fd5b61021e6106f5565b60405161022b9190613a2a565b60405180910390f35b61024e60048036038101906102499190613aea565b610787565b60405161025b9190613b45565b60405180910390f35b61027e60048036038101906102799190613b60565b6107a5565b60405161028c929190613b9c565b60405180910390f35b61029d6107c2565b6040516102aa9190613bc5565b60405180910390f35b6102bb6107c7565b6040516102c89190613bc5565b60405180910390f35b6102eb60048036038101906102e69190613d50565b6108bc565b005b61030760048036038101906103029190613b60565b610c70565b6040516103149190613bc5565b60405180910390f35b61033760048036038101906103329190613e68565b610c82565b6040516103449190613b45565b60405180910390f35b61036760048036038101906103629190613b60565b610d59565b005b610371610fb2565b60405161037e9190613ed4565b60405180910390f35b61038f610fd6565b60405161039c9190613efe565b60405180910390f35b6103ad610fed565b6040516103ba9190613ed4565b60405180910390f35b6103dd60048036038101906103d89190613aea565b610ffc565b6040516103ea9190613b45565b60405180910390f35b61040d60048036038101906104089190613aea565b6110a8565b005b61042960048036038101906104249190613b60565b6111c7565b6040516104369190613bc5565b60405180910390f35b6104476112a6565b6040516104549190613f78565b60405180910390f35b6104656112ca565b6040516104729190613fb4565b60405180910390f35b6104836112f4565b6040516104909190614024565b60405180910390f35b6104b360048036038101906104ae9190614046565b61132d565b005b6104cf60048036038101906104ca9190613b60565b61145d565b6040516104dc9190613bc5565b60405180910390f35b6104ff60048036038101906104fa9190613aea565b61146f565b005b610509611541565b6040516105169190613a2a565b60405180910390f35b61053960048036038101906105349190613aea565b6115d3565b6040516105469190613b45565b60405180910390f35b61056960048036038101906105649190613aea565b61167f565b6040516105769190613b45565b60405180910390f35b6105876116aa565b6040516105949190614095565b60405180910390f35b6105a56116d4565b6040516105b29190614095565b60405180910390f35b6105c36116fe565b6040516105d09190613bc5565b60405180910390f35b6105f360048036038101906105ee91906140b0565b61170d565b6040516106009190613b45565b60405180910390f35b610623600480360381019061061e9190613e68565b6117f3565b005b61063f600480360381019061063a9190614143565b611a73565b005b61065b600480360381019061065691906140b0565b611dbb565b005b610677600480360381019061067291906141e5565b611f1c565b6040516106849190613bc5565b60405180910390f35b6106a760048036038101906106a29190613b60565b611fa3565b6040516106b49190613bc5565b60405180910390f35b6106d760048036038101906106d29190614225565b61201d565b005b6106f360048036038101906106ee9190613e68565b6121e7565b005b60606037805461070490614281565b80601f016020809104026020016040519081016040528092919081815260200182805461073090614281565b801561077d5780601f106107525761010080835404028352916020019161077d565b820191906000526020600020905b81548152906001019060200180831161076057829003601f168201915b5050505050905090565b600061079b61079461232c565b8484612334565b6001905092915050565b6000806107b18361241f565b6107b9612499565b91509150915091565b600181565b6000806107d2612499565b905060008114156107e75760009150506108b9565b6108b57f000000000000000000000000000000000000000000000000000000000000000073ffffffffffffffffffffffffffffffffffffffff1663d15e0053603d60009054906101000a900473ffffffffffffffffffffffffffffffffffffffff166040518263ffffffff1660e01b81526004016108659190614095565b602060405180830381865afa158015610882573d6000803e3d6000fd5b505050506040513d601f19601f820116820180604052508101906108a691906142c8565b826124a390919063ffffffff16565b9150505b90565b60006108c66124ee565b9050600160009054906101000a900460ff16806108e757506108e66124f7565b5b806108f3575060005481115b610932576040517f08c379a000000000000000000000000000000000000000000000000000000000815260040161092990614367565b60405180910390fd5b6000600160009054906101000a900460ff16159050801561096f5760018060006101000a81548160ff021916908315150217905550816000819055505b7f000000000000000000000000000000000000000000000000000000000000000073ffffffffffffffffffffffffffffffffffffffff168d73ffffffffffffffffffffffffffffffffffffffff16146040518060400160405280600281526020017f383700000000000000000000000000000000000000000000000000000000000081525090610a35576040517f08c379a0000000000000000000000000000000000000000000000000000000008152600401610a2c9190613a2a565b60405180910390fd5b50610a8388888080601f016020809104026020016040519081016040528093929190818152602001838380828437600081840152601f19601f82011690508083019250505050505050612508565b610ad086868080601f016020809104026020016040519081016040528093929190818152602001838380828437600081840152601f19601f82011690508083019250505050505050612522565b610ad98961253c565b8b603c60006101000a81548173ffffffffffffffffffffffffffffffffffffffff021916908373ffffffffffffffffffffffffffffffffffffffff1602179055508a603d60006101000a81548173ffffffffffffffffffffffffffffffffffffffff021916908373ffffffffffffffffffffffffffffffffffffffff16021790555089603960016101000a81548173ffffffffffffffffffffffffffffffffffffffff021916908373ffffffffffffffffffffffffffffffffffffffff160217905550610ba461255a565b603b819055507f000000000000000000000000000000000000000000000000000000000000000073ffffffffffffffffffffffffffffffffffffffff168b73ffffffffffffffffffffffffffffffffffffffff167fb19e051f8af41150ccccb3fc2c2d8d15f4a4cf434f32a559ba75fe73d6eea20b8e8d8d8d8d8d8d8d8d604051610c37999897969594939291906143f0565b60405180910390a38015610c61576000600160006101000a81548160ff0219169083151502179055505b50505050505050505050505050565b6000610c7b8261241f565b9050919050565b600080610c8e836125fa565b9050610d4285610c9c61232c565b836fffffffffffffffffffffffffffffffff16603560008a73ffffffffffffffffffffffffffffffffffffffff1673ffffffffffffffffffffffffffffffffffffffff1681526020019081526020016000206000610cf861232c565b73ffffffffffffffffffffffffffffffffffffffff1673ffffffffffffffffffffffffffffffffffffffff16815260200190815260200160002054610d3d919061449b565b612334565b610d4d858583612659565b60019150509392505050565b60007f000000000000000000000000000000000000000000000000000000000000000073ffffffffffffffffffffffffffffffffffffffff1663707cd7166040518163ffffffff1660e01b8152600401602060405180830381865afa158015610dc6573d6000803e3d6000fd5b505050506040513d601f19601f82011682018060405250810190610dea91906144e4565b90508073ffffffffffffffffffffffffffffffffffffffff16637be53ca1336040518263ffffffff1660e01b8152600401610e259190614095565b602060405180830381865afa158015610e42573d6000803e3d6000fd5b505050506040513d601f19601f82011682018060405250810190610e66919061453d565b6040518060400160405280600181526020017f310000000000000000000000000000000000000000000000000000000000000081525090610edd576040517f08c379a0000000000000000000000000000000000000000000000000000000008152600401610ed49190613a2a565b60405180910390fd5b50603d60009054906101000a900473ffffffffffffffffffffffffffffffffffffffff1673ffffffffffffffffffffffffffffffffffffffff16635c19a95c836040518263ffffffff1660e01b8152600401610f399190614095565b600060405180830381600087803b158015610f5357600080fd5b505af1158015610f67573d6000803e3d6000fd5b505050508173ffffffffffffffffffffffffffffffffffffffff167fc7a5523bfd09724fd56950e708e523ad6a61ab165b8e997a31d42357a77f0e0f60405160405180910390a25050565b7f6e71edae12b1b97f4d1f60370fef10105fa2faae0126114a169c64845d6126c981565b6000603960009054906101000a900460ff16905090565b6000610ff761267d565b905090565b600061109e61100961232c565b84846035600061101761232c565b73ffffffffffffffffffffffffffffffffffffffff1673ffffffffffffffffffffffffffffffffffffffff16815260200190815260200160002060008873ffffffffffffffffffffffffffffffffffffffff1673ffffffffffffffffffffffffffffffffffffffff16815260200190815260200160002054611099919061456a565b612334565b6001905092915050565b7f000000000000000000000000000000000000000000000000000000000000000073ffffffffffffffffffffffffffffffffffffffff166110e761232c565b73ffffffffffffffffffffffffffffffffffffffff16146040518060400160405280600281526020017f323300000000000000000000000000000000000000000000000000000000000081525090611175576040517f08c379a000000000000000000000000000000000000000000000000000000000815260040161116c9190613a2a565b60405180910390fd5b506111c38282603d60009054906101000a900473ffffffffffffffffffffffffffffffffffffffff1673ffffffffffffffffffffffffffffffffffffffff166126bf9092919063ffffffff16565b5050565b600061129f7f000000000000000000000000000000000000000000000000000000000000000073ffffffffffffffffffffffffffffffffffffffff1663d15e0053603d60009054906101000a900473ffffffffffffffffffffffffffffffffffffffff166040518263ffffffff1660e01b81526004016112479190614095565b602060405180830381865afa158015611264573d6000803e3d6000fd5b505050506040513d601f19601f8201168201806040525081019061128891906142c8565b6112918461241f565b6124a390919063ffffffff16565b9050919050565b7f000000000000000000000000000000000000000000000000000000000000000081565b6000603960019054906101000a900473ffffffffffffffffffffffffffffffffffffffff16905090565b6040518060400160405280600181526020017f310000000000000000000000000000000000000000000000000000000000000081525081565b7f000000000000000000000000000000000000000000000000000000000000000073ffffffffffffffffffffffffffffffffffffffff1661136c61232c565b73ffffffffffffffffffffffffffffffffffffffff16146040518060400160405280600281526020017f3233000000000000000000000000000000000000000000000000000000000000815250906113fa576040517f08c379a00000000000000000000000000000000000000000000000000000000081526004016113f19190613a2a565b60405180910390fd5b50600082141561140957611459565b6114577f0000000000000000000000000000000000000000000000000000000000000000603c60009054906101000a900473ffffffffffffffffffffffffffffffffffffffff16848461275b565b505b5050565b600061146882612a25565b9050919050565b7f000000000000000000000000000000000000000000000000000000000000000073ffffffffffffffffffffffffffffffffffffffff166114ae61232c565b73ffffffffffffffffffffffffffffffffffffffff16146040518060400160405280600281526020017f32330000000000000000000000000000000000000000000000000000000000008152509061153c576040517f08c379a00000000000000000000000000000000000000000000000000000000081526004016115339190613a2a565b60405180910390fd5b505050565b60606038805461155090614281565b80601f016020809104026020016040519081016040528092919081815260200182805461157c90614281565b80156115c95780601f1061159e576101008083540402835291602001916115c9565b820191906000526020600020905b8154815290600101906020018083116115ac57829003601f168201915b5050505050905090565b60006116756115e061232c565b8484603560006115ee61232c565b73ffffffffffffffffffffffffffffffffffffffff1673ffffffffffffffffffffffffffffffffffffffff16815260200190815260200160002060008873ffffffffffffffffffffffffffffffffffffffff1673ffffffffffffffffffffffffffffffffffffffff16815260200190815260200160002054611670919061449b565b612334565b6001905092915050565b60008061168b836125fa565b905061169f61169861232c565b8583612659565b600191505092915050565b6000603c60009054906101000a900473ffffffffffffffffffffffffffffffffffffffff16905090565b6000603d60009054906101000a900473ffffffffffffffffffffffffffffffffffffffff16905090565b6000611708612499565b905090565b60007f000000000000000000000000000000000000000000000000000000000000000073ffffffffffffffffffffffffffffffffffffffff1661174e61232c565b73ffffffffffffffffffffffffffffffffffffffff16146040518060400160405280600281526020017f3233000000000000000000000000000000000000000000000000000000000000815250906117dc576040517f08c379a00000000000000000000000000000000000000000000000000000000081526004016117d39190613a2a565b60405180910390fd5b506117e98585858561275b565b9050949350505050565b60007f000000000000000000000000000000000000000000000000000000000000000073ffffffffffffffffffffffffffffffffffffffff1663707cd7166040518163ffffffff1660e01b8152600401602060405180830381865afa158015611860573d6000803e3d6000fd5b505050506040513d601f19601f8201168201806040525081019061188491906144e4565b90508073ffffffffffffffffffffffffffffffffffffffff16637be53ca1336040518263ffffffff1660e01b81526004016118bf9190614095565b602060405180830381865afa1580156118dc573d6000803e3d6000fd5b505050506040513d601f19601f82011682018060405250810190611900919061453d565b6040518060400160405280600181526020017f310000000000000000000000000000000000000000000000000000000000000081525090611977576040517f08c379a000000000000000000000000000000000000000000000000000000000815260040161196e9190613a2a565b60405180910390fd5b50603d60009054906101000a900473ffffffffffffffffffffffffffffffffffffffff1673ffffffffffffffffffffffffffffffffffffffff168473ffffffffffffffffffffffffffffffffffffffff1614156040518060400160405280600281526020017f383500000000000000000000000000000000000000000000000000000000000081525090611a41576040517f08c379a0000000000000000000000000000000000000000000000000000000008152600401611a389190613a2a565b60405180910390fd5b50611a6d83838673ffffffffffffffffffffffffffffffffffffffff166126bf9092919063ffffffff16565b50505050565b600073ffffffffffffffffffffffffffffffffffffffff168773ffffffffffffffffffffffffffffffffffffffff1614156040518060400160405280600281526020017f373700000000000000000000000000000000000000000000000000000000000081525090611b1b576040517f08c379a0000000000000000000000000000000000000000000000000000000008152600401611b129190613a2a565b60405180910390fd5b50834211156040518060400160405280600281526020017f373800000000000000000000000000000000000000000000000000000000000081525090611b97576040517f08c379a0000000000000000000000000000000000000000000000000000000008152600401611b8e9190613a2a565b60405180910390fd5b506000603a60008973ffffffffffffffffffffffffffffffffffffffff1673ffffffffffffffffffffffffffffffffffffffff1681526020019081526020016000205490506000611be6610fed565b7f6e71edae12b1b97f4d1f60370fef10105fa2faae0126114a169c64845d6126c98a8a8a868b604051602001611c21969594939291906145c0565b60405160208183030381529060405280519060200120604051602001611c48929190614699565b60405160208183030381529060405280519060200120905060018186868660405160008152602001604052604051611c8394939291906146d0565b6020604051602081039080840390855afa158015611ca5573d6000803e3d6000fd5b5050506020604051035173ffffffffffffffffffffffffffffffffffffffff168973ffffffffffffffffffffffffffffffffffffffff16146040518060400160405280600281526020017f373900000000000000000000000000000000000000000000000000000000000081525090611d54576040517f08c379a0000000000000000000000000000000000000000000000000000000008152600401611d4b9190613a2a565b60405180910390fd5b50600182611d62919061456a565b603a60008b73ffffffffffffffffffffffffffffffffffffffff1673ffffffffffffffffffffffffffffffffffffffff16815260200190815260200160002081905550611db0898989612334565b505050505050505050565b7f000000000000000000000000000000000000000000000000000000000000000073ffffffffffffffffffffffffffffffffffffffff16611dfa61232c565b73ffffffffffffffffffffffffffffffffffffffff16146040518060400160405280600281526020017f323300000000000000000000000000000000000000000000000000000000000081525090611e88576040517f08c379a0000000000000000000000000000000000000000000000000000000008152600401611e7f9190613a2a565b60405180910390fd5b50611e9584848484612a6e565b3073ffffffffffffffffffffffffffffffffffffffff168373ffffffffffffffffffffffffffffffffffffffff1614611f1657611f158383603d60009054906101000a900473ffffffffffffffffffffffffffffffffffffffff1673ffffffffffffffffffffffffffffffffffffffff166126bf9092919063ffffffff16565b5b50505050565b6000603560008473ffffffffffffffffffffffffffffffffffffffff1673ffffffffffffffffffffffffffffffffffffffff16815260200190815260200160002060008373ffffffffffffffffffffffffffffffffffffffff1673ffffffffffffffffffffffffffffffffffffffff16815260200190815260200160002054905092915050565b6000603460008373ffffffffffffffffffffffffffffffffffffffff1673ffffffffffffffffffffffffffffffffffffffff16815260200190815260200160002060000160109054906101000a90046fffffffffffffffffffffffffffffffff166fffffffffffffffffffffffffffffffff169050919050565b60007f000000000000000000000000000000000000000000000000000000000000000073ffffffffffffffffffffffffffffffffffffffff1663707cd7166040518163ffffffff1660e01b8152600401602060405180830381865afa15801561208a573d6000803e3d6000fd5b505050506040513d601f19601f820116820180604052508101906120ae91906144e4565b90508073ffffffffffffffffffffffffffffffffffffffff16637be53ca1336040518263ffffffff1660e01b81526004016120e99190614095565b602060405180830381865afa158015612106573d6000803e3d6000fd5b505050506040513d601f19601f8201168201806040525081019061212a919061453d565b6040518060400160405280600181526020017f3100000000000000000000000000000000000000000000000000000000000000815250906121a1576040517f08c379a00000000000000000000000000000000000000000000000000000000081526004016121989190613a2a565b60405180910390fd5b5081603960016101000a81548173ffffffffffffffffffffffffffffffffffffffff021916908373ffffffffffffffffffffffffffffffffffffffff1602179055505050565b7f000000000000000000000000000000000000000000000000000000000000000073ffffffffffffffffffffffffffffffffffffffff1661222661232c565b73ffffffffffffffffffffffffffffffffffffffff16146040518060400160405280600281526020017f3233000000000000000000000000000000000000000000000000000000000000815250906122b4576040517f08c379a00000000000000000000000000000000000000000000000000000000081526004016122ab9190613a2a565b60405180910390fd5b506122c28383836000612e1d565b8173ffffffffffffffffffffffffffffffffffffffff168373ffffffffffffffffffffffffffffffffffffffff167fddf252ad1be2c89b69c2b068fc378daa952ba7f163c4a11628f55a4df523b3ef8360405161231f9190613bc5565b60405180910390a3505050565b600033905090565b80603560008573ffffffffffffffffffffffffffffffffffffffff1673ffffffffffffffffffffffffffffffffffffffff16815260200190815260200160002060008473ffffffffffffffffffffffffffffffffffffffff1673ffffffffffffffffffffffffffffffffffffffff168152602001908152602001600020819055508173ffffffffffffffffffffffffffffffffffffffff168373ffffffffffffffffffffffffffffffffffffffff167f8c5be1e5ebec7d5bd14f71427d1e84f3dd0314c0f7b2291e5b200ac8c7c3b925836040516124129190613bc5565b60405180910390a3505050565b6000603460008373ffffffffffffffffffffffffffffffffffffffff1673ffffffffffffffffffffffffffffffffffffffff16815260200190815260200160002060000160009054906101000a90046fffffffffffffffffffffffffffffffff166fffffffffffffffffffffffffffffffff169050919050565b6000603654905090565b6000816b019d971e4fe8401e7400000060001903048311158215176124c757600080fd5b6b033b2e3c9fd0803ce80000006b019d971e4fe8401e740000008385020104905092915050565b60006001905090565b600080303b90506000811491505090565b806037908051906020019061251e9291906138ee565b5050565b80603890805190602001906125389291906138ee565b5050565b80603960006101000a81548160ff021916908360ff16021790555050565b60007f8b73c3c69bb8fe3d512ecc4cf759cc79239f7b179b0ffacaa9a75d522b39400f612585613052565b805190602001206040518060400160405280600181526020017f31000000000000000000000000000000000000000000000000000000000000008152508051906020012046306040516020016125df959493929190614715565b60405160208183030381529060405280519060200120905090565b60006fffffffffffffffffffffffffffffffff8016821115612651576040517f08c379a0000000000000000000000000000000000000000000000000000000008152600401612648906147da565b60405180910390fd5b819050919050565b6126788383836fffffffffffffffffffffffffffffffff166001612e1d565b505050565b60007f00000000000000000000000000000000000000000000000000000000000000004614156126b157603b5490506126bc565b6126b961255a565b90505b90565b600063a9059cbb60e01b905060405181815273ffffffffffffffffffffffffffffffffffffffff841660048201528260248201526000806044836000895af161270c573d6000803e3d6000fd5b5061271684613061565b612755576040517f08c379a000000000000000000000000000000000000000000000000000000000815260040161274c90614846565b60405180910390fd5b50505050565b600080612771838561312e90919063ffffffff16565b905060008114156040518060400160405280600281526020017f3234000000000000000000000000000000000000000000000000000000000000815250906127ef576040517f08c379a00000000000000000000000000000000000000000000000000000000081526004016127e69190613a2a565b60405180910390fd5b5060006127fb8661241f565b90506000612882603460008973ffffffffffffffffffffffffffffffffffffffff1673ffffffffffffffffffffffffffffffffffffffff16815260200190815260200160002060000160109054906101000a90046fffffffffffffffffffffffffffffffff166fffffffffffffffffffffffffffffffff16836124a390919063ffffffff16565b61289586846124a390919063ffffffff16565b61289f919061449b565b90506128aa856125fa565b603460008973ffffffffffffffffffffffffffffffffffffffff1673ffffffffffffffffffffffffffffffffffffffff16815260200190815260200160002060000160106101000a8154816fffffffffffffffffffffffffffffffff02191690836fffffffffffffffffffffffffffffffff1602179055506129348761292f856125fa565b613175565b60008187612942919061456a565b90508773ffffffffffffffffffffffffffffffffffffffff16600073ffffffffffffffffffffffffffffffffffffffff167fddf252ad1be2c89b69c2b068fc378daa952ba7f163c4a11628f55a4df523b3ef836040516129a29190613bc5565b60405180910390a38773ffffffffffffffffffffffffffffffffffffffff168973ffffffffffffffffffffffffffffffffffffffff167f458f5fa412d0f69b08dd84872b0215675cc67bc1d5b6fd93300a1c3878b8619683858a604051612a0b93929190614866565b60405180910390a360008314945050505050949350505050565b6000603a60008373ffffffffffffffffffffffffffffffffffffffff1673ffffffffffffffffffffffffffffffffffffffff168152602001908152602001600020549050919050565b6000612a83828461312e90919063ffffffff16565b905060008114156040518060400160405280600281526020017f323500000000000000000000000000000000000000000000000000000000000081525090612b01576040517f08c379a0000000000000000000000000000000000000000000000000000000008152600401612af89190613a2a565b60405180910390fd5b506000612b0d8661241f565b90506000612b94603460008973ffffffffffffffffffffffffffffffffffffffff1673ffffffffffffffffffffffffffffffffffffffff16815260200190815260200160002060000160109054906101000a90046fffffffffffffffffffffffffffffffff166fffffffffffffffffffffffffffffffff16836124a390919063ffffffff16565b612ba785846124a390919063ffffffff16565b612bb1919061449b565b9050612bbc846125fa565b603460008973ffffffffffffffffffffffffffffffffffffffff1673ffffffffffffffffffffffffffffffffffffffff16815260200190815260200160002060000160106101000a8154816fffffffffffffffffffffffffffffffff02191690836fffffffffffffffffffffffffffffffff160217905550612c4687612c41856125fa565b613359565b84811115612d335760008582612c5c919061449b565b90508773ffffffffffffffffffffffffffffffffffffffff16600073ffffffffffffffffffffffffffffffffffffffff167fddf252ad1be2c89b69c2b068fc378daa952ba7f163c4a11628f55a4df523b3ef83604051612cbc9190613bc5565b60405180910390a38773ffffffffffffffffffffffffffffffffffffffff168873ffffffffffffffffffffffffffffffffffffffff167f458f5fa412d0f69b08dd84872b0215675cc67bc1d5b6fd93300a1c3878b86196838589604051612d2593929190614866565b60405180910390a350612e14565b60008186612d41919061449b565b9050600073ffffffffffffffffffffffffffffffffffffffff168873ffffffffffffffffffffffffffffffffffffffff167fddf252ad1be2c89b69c2b068fc378daa952ba7f163c4a11628f55a4df523b3ef83604051612da19190613bc5565b60405180910390a38673ffffffffffffffffffffffffffffffffffffffff168873ffffffffffffffffffffffffffffffffffffffff167f4cf25bc1d991c17529c25213d3cc0cda295eeaad5f13f361969b12ea48015f90838589604051612e0a93929190614866565b60405180910390a3505b50505050505050565b6000603d60009054906101000a900473ffffffffffffffffffffffffffffffffffffffff16905060007f000000000000000000000000000000000000000000000000000000000000000073ffffffffffffffffffffffffffffffffffffffff1663d15e0053836040518263ffffffff1660e01b8152600401612e9f9190614095565b602060405180830381865afa158015612ebc573d6000803e3d6000fd5b505050506040513d601f19601f82011682018060405250810190612ee091906142c8565b90506000612eff82612ef18961241f565b6124a390919063ffffffff16565b90506000612f1e83612f108961241f565b6124a390919063ffffffff16565b9050612f458888612f40612f3b878b61312e90919063ffffffff16565b6125fa565b61353d565b8415612fe1577f000000000000000000000000000000000000000000000000000000000000000073ffffffffffffffffffffffffffffffffffffffff1663d5ed3933858a8a8a87876040518763ffffffff1660e01b8152600401612fae9695949392919061489d565b600060405180830381600087803b158015612fc857600080fd5b505af1158015612fdc573d6000803e3d6000fd5b505050505b8673ffffffffffffffffffffffffffffffffffffffff168873ffffffffffffffffffffffffffffffffffffffff167f4beccb90f994c31aced7a23b5611020728a23d8ec5cddd1a3e9d97b96fda86668886604051613040929190613b9c565b60405180910390a35050505050505050565b606061305c6106f5565b905090565b600061309f565b7f08c379a0000000000000000000000000000000000000000000000000000000006000526020600452806024528160445260646000fd5b3d600081146130e0576020811461311b576130db7f475076323a206d616c666f726d6564207472616e7366657220726573756c7400601f613068565b613128565b823b613112576131117f475076323a206e6f74206120636f6e74726163740000000000000000000000006014613068565b5b60019150613128565b3d6000803e600051151591505b50919050565b60006b033b2e3c9fd0803ce8000000600283046000190304831115158215171561315757600080fd5b81600283046b033b2e3c9fd0803ce800000085020104905092915050565b60006036549050816fffffffffffffffffffffffffffffffff168161319a919061456a565b6036819055506000603460008573ffffffffffffffffffffffffffffffffffffffff1673ffffffffffffffffffffffffffffffffffffffff16815260200190815260200160002060000160009054906101000a90046fffffffffffffffffffffffffffffffff169050828161320f919061491a565b603460008673ffffffffffffffffffffffffffffffffffffffff1673ffffffffffffffffffffffffffffffffffffffff16815260200190815260200160002060000160006101000a8154816fffffffffffffffffffffffffffffffff02191690836fffffffffffffffffffffffffffffffff1602179055506000603960019054906101000a900473ffffffffffffffffffffffffffffffffffffffff169050600073ffffffffffffffffffffffffffffffffffffffff168173ffffffffffffffffffffffffffffffffffffffff1614613352578073ffffffffffffffffffffffffffffffffffffffff166331873e2e8685856040518463ffffffff1660e01b815260040161331f93929190614991565b600060405180830381600087803b15801561333957600080fd5b505af115801561334d573d6000803e3d6000fd5b505050505b5050505050565b60006036549050816fffffffffffffffffffffffffffffffff168161337e919061449b565b6036819055506000603460008573ffffffffffffffffffffffffffffffffffffffff1673ffffffffffffffffffffffffffffffffffffffff16815260200190815260200160002060000160009054906101000a90046fffffffffffffffffffffffffffffffff16905082816133f391906149c8565b603460008673ffffffffffffffffffffffffffffffffffffffff1673ffffffffffffffffffffffffffffffffffffffff16815260200190815260200160002060000160006101000a8154816fffffffffffffffffffffffffffffffff02191690836fffffffffffffffffffffffffffffffff1602179055506000603960019054906101000a900473ffffffffffffffffffffffffffffffffffffffff169050600073ffffffffffffffffffffffffffffffffffffffff168173ffffffffffffffffffffffffffffffffffffffff1614613536578073ffffffffffffffffffffffffffffffffffffffff166331873e2e8685856040518463ffffffff1660e01b815260040161350393929190614991565b600060405180830381600087803b15801561351d57600080fd5b505af1158015613531573d6000803e3d6000fd5b505050505b5050505050565b6000603460008573ffffffffffffffffffffffffffffffffffffffff1673ffffffffffffffffffffffffffffffffffffffff16815260200190815260200160002060000160009054906101000a90046fffffffffffffffffffffffffffffffff16905081816135ac91906149c8565b603460008673ffffffffffffffffffffffffffffffffffffffff1673ffffffffffffffffffffffffffffffffffffffff16815260200190815260200160002060000160006101000a8154816fffffffffffffffffffffffffffffffff02191690836fffffffffffffffffffffffffffffffff1602179055506000603460008573ffffffffffffffffffffffffffffffffffffffff1673ffffffffffffffffffffffffffffffffffffffff16815260200190815260200160002060000160009054906101000a90046fffffffffffffffffffffffffffffffff1690508281613693919061491a565b603460008673ffffffffffffffffffffffffffffffffffffffff1673ffffffffffffffffffffffffffffffffffffffff16815260200190815260200160002060000160006101000a8154816fffffffffffffffffffffffffffffffff02191690836fffffffffffffffffffffffffffffffff1602179055506000603960019054906101000a900473ffffffffffffffffffffffffffffffffffffffff169050600073ffffffffffffffffffffffffffffffffffffffff168173ffffffffffffffffffffffffffffffffffffffff161461388157600060365490508173ffffffffffffffffffffffffffffffffffffffff166331873e2e8883876040518463ffffffff1660e01b81526004016137aa93929190614991565b600060405180830381600087803b1580156137c457600080fd5b505af11580156137d8573d6000803e3d6000fd5b505050508573ffffffffffffffffffffffffffffffffffffffff168773ffffffffffffffffffffffffffffffffffffffff161461387f578173ffffffffffffffffffffffffffffffffffffffff166331873e2e8783866040518463ffffffff1660e01b815260040161384c93929190614991565b600060405180830381600087803b15801561386657600080fd5b505af115801561387a573d6000803e3d6000fd5b505050505b505b8473ffffffffffffffffffffffffffffffffffffffff168673ffffffffffffffffffffffffffffffffffffffff167fddf252ad1be2c89b69c2b068fc378daa952ba7f163c4a11628f55a4df523b3ef866040516138de91906149fc565b60405180910390a3505050505050565b8280546138fa90614281565b90600052602060002090601f01602090048101928261391c5760008555613963565b82601f1061393557805160ff1916838001178555613963565b82800160010185558215613963579182015b82811115613962578251825591602001919060010190613947565b5b5090506139709190613974565b5090565b5b8082111561398d576000816000905550600101613975565b5090565b600081519050919050565b600082825260208201905092915050565b60005b838110156139cb5780820151818401526020810190506139b0565b838111156139da576000848401525b50505050565b6000601f19601f8301169050919050565b60006139fc82613991565b613a06818561399c565b9350613a168185602086016139ad565b613a1f816139e0565b840191505092915050565b60006020820190508181036000830152613a4481846139f1565b905092915050565b600080fd5b600080fd5b600073ffffffffffffffffffffffffffffffffffffffff82169050919050565b6000613a8182613a56565b9050919050565b613a9181613a76565b8114613a9c57600080fd5b50565b600081359050613aae81613a88565b92915050565b6000819050919050565b613ac781613ab4565b8114613ad257600080fd5b50565b600081359050613ae481613abe565b92915050565b60008060408385031215613b0157613b00613a4c565b5b6000613b0f85828601613a9f565b9250506020613b2085828601613ad5565b9150509250929050565b60008115159050919050565b613b3f81613b2a565b82525050565b6000602082019050613b5a6000830184613b36565b92915050565b600060208284031215613b7657613b75613a4c565b5b6000613b8484828501613a9f565b91505092915050565b613b9681613ab4565b82525050565b6000604082019050613bb16000830185613b8d565b613bbe6020830184613b8d565b9392505050565b6000602082019050613bda6000830184613b8d565b92915050565b6000613beb82613a76565b9050919050565b613bfb81613be0565b8114613c0657600080fd5b50565b600081359050613c1881613bf2565b92915050565b6000613c2982613a76565b9050919050565b613c3981613c1e565b8114613c4457600080fd5b50565b600081359050613c5681613c30565b92915050565b600060ff82169050919050565b613c7281613c5c565b8114613c7d57600080fd5b50565b600081359050613c8f81613c69565b92915050565b600080fd5b600080fd5b600080fd5b60008083601f840112613cba57613cb9613c95565b5b8235905067ffffffffffffffff811115613cd757613cd6613c9a565b5b602083019150836001820283011115613cf357613cf2613c9f565b5b9250929050565b60008083601f840112613d1057613d0f613c95565b5b8235905067ffffffffffffffff811115613d2d57613d2c613c9a565b5b602083019150836001820283011115613d4957613d48613c9f565b5b9250929050565b60008060008060008060008060008060006101008c8e031215613d7657613d75613a4c565b5b6000613d848e828f01613c09565b9b50506020613d958e828f01613a9f565b9a50506040613da68e828f01613a9f565b9950506060613db78e828f01613c47565b9850506080613dc88e828f01613c80565b97505060a08c013567ffffffffffffffff811115613de957613de8613a51565b5b613df58e828f01613ca4565b965096505060c08c013567ffffffffffffffff811115613e1857613e17613a51565b5b613e248e828f01613ca4565b945094505060e08c013567ffffffffffffffff811115613e4757613e46613a51565b5b613e538e828f01613cfa565b92509250509295989b509295989b9093969950565b600080600060608486031215613e8157613e80613a4c565b5b6000613e8f86828701613a9f565b9350506020613ea086828701613a9f565b9250506040613eb186828701613ad5565b9150509250925092565b6000819050919050565b613ece81613ebb565b82525050565b6000602082019050613ee96000830184613ec5565b92915050565b613ef881613c5c565b82525050565b6000602082019050613f136000830184613eef565b92915050565b6000819050919050565b6000613f3e613f39613f3484613a56565b613f19565b613a56565b9050919050565b6000613f5082613f23565b9050919050565b6000613f6282613f45565b9050919050565b613f7281613f57565b82525050565b6000602082019050613f8d6000830184613f69565b92915050565b6000613f9e82613f45565b9050919050565b613fae81613f93565b82525050565b6000602082019050613fc96000830184613fa5565b92915050565b600081519050919050565b600082825260208201905092915050565b6000613ff682613fcf565b6140008185613fda565b93506140108185602086016139ad565b614019816139e0565b840191505092915050565b6000602082019050818103600083015261403e8184613feb565b905092915050565b6000806040838503121561405d5761405c613a4c565b5b600061406b85828601613ad5565b925050602061407c85828601613ad5565b9150509250929050565b61408f81613a76565b82525050565b60006020820190506140aa6000830184614086565b92915050565b600080600080608085870312156140ca576140c9613a4c565b5b60006140d887828801613a9f565b94505060206140e987828801613a9f565b93505060406140fa87828801613ad5565b925050606061410b87828801613ad5565b91505092959194509250565b61412081613ebb565b811461412b57600080fd5b50565b60008135905061413d81614117565b92915050565b600080600080600080600060e0888a03121561416257614161613a4c565b5b60006141708a828b01613a9f565b97505060206141818a828b01613a9f565b96505060406141928a828b01613ad5565b95505060606141a38a828b01613ad5565b94505060806141b48a828b01613c80565b93505060a06141c58a828b0161412e565b92505060c06141d68a828b0161412e565b91505092959891949750929550565b600080604083850312156141fc576141fb613a4c565b5b600061420a85828601613a9f565b925050602061421b85828601613a9f565b9150509250929050565b60006020828403121561423b5761423a613a4c565b5b600061424984828501613c47565b91505092915050565b7f4e487b7100000000000000000000000000000000000000000000000000000000600052602260045260246000fd5b6000600282049050600182168061429957607f821691505b602082108114156142ad576142ac614252565b5b50919050565b6000815190506142c281613abe565b92915050565b6000602082840312156142de576142dd613a4c565b5b60006142ec848285016142b3565b91505092915050565b7f436f6e747261637420696e7374616e63652068617320616c726561647920626560008201527f656e20696e697469616c697a6564000000000000000000000000000000000000602082015250565b6000614351602e8361399c565b915061435c826142f5565b604082019050919050565b6000602082019050818103600083015261438081614344565b9050919050565b82818337600083830152505050565b60006143a2838561399c565b93506143af838584614387565b6143b8836139e0565b840190509392505050565b60006143cf8385613fda565b93506143dc838584614387565b6143e5836139e0565b840190509392505050565b600060c082019050614405600083018c614086565b614412602083018b614086565b61441f604083018a613eef565b818103606083015261443281888a614396565b90508181036080830152614447818688614396565b905081810360a083015261445c8184866143c3565b90509a9950505050505050505050565b7f4e487b7100000000000000000000000000000000000000000000000000000000600052601160045260246000fd5b60006144a682613ab4565b91506144b183613ab4565b9250828210156144c4576144c361446c565b5b828203905092915050565b6000815190506144de81613a88565b92915050565b6000602082840312156144fa576144f9613a4c565b5b6000614508848285016144cf565b91505092915050565b61451a81613b2a565b811461452557600080fd5b50565b60008151905061453781614511565b92915050565b60006020828403121561455357614552613a4c565b5b600061456184828501614528565b91505092915050565b600061457582613ab4565b915061458083613ab4565b9250827fffffffffffffffffffffffffffffffffffffffffffffffffffffffffffffffff038211156145b5576145b461446c565b5b828201905092915050565b600060c0820190506145d56000830189613ec5565b6145e26020830188614086565b6145ef6040830187614086565b6145fc6060830186613b8d565b6146096080830185613b8d565b61461660a0830184613b8d565b979650505050505050565b600081905092915050565b7f1901000000000000000000000000000000000000000000000000000000000000600082015250565b6000614662600283614621565b915061466d8261462c565b600282019050919050565b6000819050919050565b61469361468e82613ebb565b614678565b82525050565b60006146a482614655565b91506146b08285614682565b6020820191506146c08284614682565b6020820191508190509392505050565b60006080820190506146e56000830187613ec5565b6146f26020830186613eef565b6146ff6040830185613ec5565b61470c6060830184613ec5565b95945050505050565b600060a08201905061472a6000830188613ec5565b6147376020830187613ec5565b6147446040830186613ec5565b6147516060830185613b8d565b61475e6080830184614086565b9695505050505050565b7f53616665436173743a2076616c756520646f65736e27742066697420696e203160008201527f3238206269747300000000000000000000000000000000000000000000000000602082015250565b60006147c460278361399c565b91506147cf82614768565b604082019050919050565b600060208201905081810360008301526147f3816147b7565b9050919050565b7f475076323a206661696c6564207472616e736665720000000000000000000000600082015250565b600061483060158361399c565b915061483b826147fa565b602082019050919050565b6000602082019050818103600083015261485f81614823565b9050919050565b600060608201905061487b6000830186613b8d565b6148886020830185613b8d565b6148956040830184613b8d565b949350505050565b600060c0820190506148b26000830189614086565b6148bf6020830188614086565b6148cc6040830187614086565b6148d96060830186613b8d565b6148e66080830185613b8d565b6148f360a0830184613b8d565b979650505050505050565b60006fffffffffffffffffffffffffffffffff82169050919050565b6000614925826148fe565b9150614930836148fe565b9250826fffffffffffffffffffffffffffffffff038211156149555761495461446c565b5b828201905092915050565b600061497b614976614971846148fe565b613f19565b613ab4565b9050919050565b61498b81614960565b82525050565b60006060820190506149a66000830186614086565b6149b36020830185613b8d565b6149c06040830184614982565b949350505050565b60006149d3826148fe565b91506149de836148fe565b9250828210156149f1576149f061446c565b5b828203905092915050565b6000602082019050614a116000830184614982565b9291505056fea26469706673582212200fa97e73b7d692987c5305179e45f6d713affb2f16f625a0d35083fcdd0ede2064736f6c634300080a0033",
  "linkReferences": {},
  "deployedLinkReferences": {}
}