{
  "_format": "hh-sol-artifact-1",
  "contractName": "MockReserveConfiguration",
  "sourceName": "contracts/Aave_Contracts/mocks/helpers/MockReserveConfiguration.sol",
  "abi": [
    {
      "inputs": [],
      "name": "configuration",
      "outputs": [
        {
          "internalType": "uint256",
          "name": "data",
          "type": "uint256"
        }
      ],
      "stateMutability": "view",
      "type": "function"
    },
    {
      "inputs": [],
      "name": "getBorrowCap",
      "outputs": [
        {
          "internalType": "uint256",
          "name": "",
          "type": "uint256"
        }
      ],
      "stateMutability": "view",
      "type": "function"
    },
    {
      "inputs": [],
      "name": "getBorrowingEnabled",
      "outputs": [
        {
          "internalType": "bool",
          "name": "",
          "type": "bool"
        }
      ],
      "stateMutability": "view",
      "type": "function"
    },
    {
      "inputs": [],
      "name": "getCaps",
      "outputs": [
        {
          "internalType": "uint256",
          "name": "",
          "type": "uint256"
        },
        {
          "internalType": "uint256",
          "name": "",
          "type": "uint256"
        }
      ],
      "stateMutability": "view",
      "type": "function"
    },
    {
      "inputs": [],
      "name": "getDecimals",
      "outputs": [
        {
          "internalType": "uint256",
          "name": "",
          "type": "uint256"
        }
      ],
      "stateMutability": "view",
      "type": "function"
    },
    {
      "inputs": [],
      "name": "getEModeCategory",
      "outputs": [
        {
          "internalType": "uint256",
          "name": "",
          "type": "uint256"
        }
      ],
      "stateMutability": "view",
      "type": "function"
    },
    {
      "inputs": [],
      "name": "getFlags",
      "outputs": [
        {
          "internalType": "bool",
          "name": "",
          "type": "bool"
        },
        {
          "internalType": "bool",
          "name": "",
          "type": "bool"
        },
        {
          "internalType": "bool",
          "name": "",
          "type": "bool"
        },
        {
          "internalType": "bool",
          "name": "",
          "type": "bool"
        },
        {
          "internalType": "bool",
          "name": "",
          "type": "bool"
        }
      ],
      "stateMutability": "view",
      "type": "function"
    },
    {
      "inputs": [],
      "name": "getFrozen",
      "outputs": [
        {
          "internalType": "bool",
          "name": "",
          "type": "bool"
        }
      ],
      "stateMutability": "view",
      "type": "function"
    },
    {
      "inputs": [],
      "name": "getLiquidationBonus",
      "outputs": [
        {
          "internalType": "uint256",
          "name": "",
          "type": "uint256"
        }
      ],
      "stateMutability": "view",
      "type": "function"
    },
    {
      "inputs": [],
      "name": "getLiquidationProtocolFee",
      "outputs": [
        {
          "internalType": "uint256",
          "name": "",
          "type": "uint256"
        }
      ],
      "stateMutability": "view",
      "type": "function"
    },
    {
      "inputs": [],
      "name": "getLiquidationThreshold",
      "outputs": [
        {
          "internalType": "uint256",
          "name": "",
          "type": "uint256"
        }
      ],
      "stateMutability": "view",
      "type": "function"
    },
    {
      "inputs": [],
      "name": "getLtv",
      "outputs": [
        {
          "internalType": "uint256",
          "name": "",
          "type": "uint256"
        }
      ],
      "stateMutability": "view",
      "type": "function"
    },
    {
      "inputs": [],
      "name": "getParams",
      "outputs": [
        {
          "internalType": "uint256",
          "name": "",
          "type": "uint256"
        },
        {
          "internalType": "uint256",
          "name": "",
          "type": "uint256"
        },
        {
          "internalType": "uint256",
          "name": "",
          "type": "uint256"
        },
        {
          "internalType": "uint256",
          "name": "",
          "type": "uint256"
        },
        {
          "internalType": "uint256",
          "name": "",
          "type": "uint256"
        },
        {
          "internalType": "uint256",
          "name": "",
          "type": "uint256"
        }
      ],
      "stateMutability": "view",
      "type": "function"
    },
    {
      "inputs": [],
      "name": "getReserveFactor",
      "outputs": [
        {
          "internalType": "uint256",
          "name": "",
          "type": "uint256"
        }
      ],
      "stateMutability": "view",
      "type": "function"
    },
    {
      "inputs": [],
      "name": "getStableRateBorrowingEnabled",
      "outputs": [
        {
          "internalType": "bool",
          "name": "",
          "type": "bool"
        }
      ],
      "stateMutability": "view",
      "type": "function"
    },
    {
      "inputs": [],
      "name": "getSupplyCap",
      "outputs": [
        {
          "internalType": "uint256",
          "name": "",
          "type": "uint256"
        }
      ],
      "stateMutability": "view",
      "type": "function"
    },
    {
      "inputs": [],
      "name": "getUnbackedMintCap",
      "outputs": [
        {
          "internalType": "uint256",
          "name": "",
          "type": "uint256"
        }
      ],
      "stateMutability": "view",
      "type": "function"
    },
    {
      "inputs": [
        {
          "internalType": "uint256",
          "name": "borrowCap",
          "type": "uint256"
        }
      ],
      "name": "setBorrowCap",
      "outputs": [],
      "stateMutability": "nonpayable",
      "type": "function"
    },
    {
      "inputs": [
        {
          "internalType": "bool",
          "name": "enabled",
          "type": "bool"
        }
      ],
      "name": "setBorrowingEnabled",
      "outputs": [],
      "stateMutability": "nonpayable",
      "type": "function"
    },
    {
      "inputs": [
        {
          "internalType": "uint256",
          "name": "decimals",
          "type": "uint256"
        }
      ],
      "name": "setDecimals",
      "outputs": [],
      "stateMutability": "nonpayable",
      "type": "function"
    },
    {
      "inputs": [
        {
          "internalType": "uint256",
          "name": "categoryId",
          "type": "uint256"
        }
      ],
      "name": "setEModeCategory",
      "outputs": [],
      "stateMutability": "nonpayable",
      "type": "function"
    },
    {
      "inputs": [
        {
          "internalType": "bool",
          "name": "frozen",
          "type": "bool"
        }
      ],
      "name": "setFrozen",
      "outputs": [],
      "stateMutability": "nonpayable",
      "type": "function"
    },
    {
      "inputs": [
        {
          "internalType": "uint256",
          "name": "bonus",
          "type": "uint256"
        }
      ],
      "name": "setLiquidationBonus",
      "outputs": [],
      "stateMutability": "nonpayable",
      "type": "function"
    },
    {
      "inputs": [
        {
          "internalType": "uint256",
          "name": "liquidationProtocolFee",
          "type": "uint256"
        }
      ],
      "name": "setLiquidationProtocolFee",
      "outputs": [],
      "stateMutability": "nonpayable",
      "type": "function"
    },
    {
      "inputs": [
        {
          "internalType": "uint256",
          "name": "threshold",
          "type": "uint256"
        }
      ],
      "name": "setLiquidationThreshold",
      "outputs": [],
      "stateMutability": "nonpayable",
      "type": "function"
    },
    {
      "inputs": [
        {
          "internalType": "uint256",
          "name": "ltv",
          "type": "uint256"
        }
      ],
      "name": "setLtv",
      "outputs": [],
      "stateMutability": "nonpayable",
      "type": "function"
    },
    {
      "inputs": [
        {
          "internalType": "uint256",
          "name": "reserveFactor",
          "type": "uint256"
        }
      ],
      "name": "setReserveFactor",
      "outputs": [],
      "stateMutability": "nonpayable",
      "type": "function"
    },
    {
      "inputs": [
        {
          "internalType": "bool",
          "name": "enabled",
          "type": "bool"
        }
      ],
      "name": "setStableRateBorrowingEnabled",
      "outputs": [],
      "stateMutability": "nonpayable",
      "type": "function"
    },
    {
      "inputs": [
        {
          "internalType": "uint256",
          "name": "supplyCap",
          "type": "uint256"
        }
      ],
      "name": "setSupplyCap",
      "outputs": [],
      "stateMutability": "nonpayable",
      "type": "function"
    },
    {
      "inputs": [
        {
          "internalType": "uint256",
          "name": "unbackedMintCap",
          "type": "uint256"
        }
      ],
      "name": "setUnbackedMintCap",
      "outputs": [],
      "stateMutability": "nonpayable",
      "type": "function"
    }
  ],
  "bytecode": "0x608060405234801561001057600080fd5b50611b3e806100206000396000f3fe608060405234801561001057600080fd5b50600436106101da5760003560e01c80638145bd2e11610104578063b6a3f59a116100a2578063ead8aa0211610071578063ead8aa02146104df578063f0141d84146104fd578063f1514a1a1461051b578063fa573d0714610537576101da565b8063b6a3f59a1461046b578063c37bdcec14610487578063d0b0c816146104a5578063e08a28a3146104c1576101da565b80639d706d31116100de5780639d706d31146103f6578063a37e52e314610415578063a620063514610431578063aede7b761461044d576101da565b80638145bd2e146103a05780638c8885c8146103be57806392dfb2fb146103da576101da565b80635f558e531161017c57806371cb13321161014b57806371cb13321461032c5780637495b3531461034857806379750bc4146103665780637e932d3214610384576101da565b80635f558e53146102b25780636c70bee9146102d05780636cc7149d146102ee578063717186d114610310576101da565b8063356f235c116101b8578063356f235c146102355780634ae9b8bc1461025357806359aa9e72146102715780635e615a6b1461028f576101da565b80631c446983146101df57806320361814146101fb57806328842d4f14610219575b600080fd5b6101f960048036038101906101f4919061188a565b610553565b005b610203610593565b60405161021091906118c6565b60405180910390f35b610233600480360381019061022e919061188a565b6105b9565b005b61023d6105f9565b60405161024a91906118c6565b60405180910390f35b61025b61061f565b60405161026891906118c6565b60405180910390f35b610279610645565b60405161028691906118c6565b60405180910390f35b61029761066b565b6040516102a9969594939291906118e1565b60405180910390f35b6102ba6106a7565b6040516102c791906118c6565b60405180910390f35b6102d86106cd565b6040516102e591906118c6565b60405180910390f35b6102f66106d9565b60405161030795949392919061195d565b60405180910390f35b61032a6004803603810190610325919061188a565b610711565b005b610346600480360381019061034191906119dc565b610751565b005b610350610791565b60405161035d9190611a09565b60405180910390f35b61036e6107b7565b60405161037b9190611a09565b60405180910390f35b61039e600480360381019061039991906119dc565b6107dd565b005b6103a861081d565b6040516103b591906118c6565b60405180910390f35b6103d860048036038101906103d3919061188a565b610843565b005b6103f460048036038101906103ef919061188a565b610883565b005b6103fe6108c3565b60405161040c929190611a24565b60405180910390f35b61042f600480360381019061042a919061188a565b6108ed565b005b61044b6004803603810190610446919061188a565b61092d565b005b61045561096d565b60405161046291906118c6565b60405180910390f35b6104856004803603810190610480919061188a565b610993565b005b61048f6109d3565b60405161049c91906118c6565b60405180910390f35b6104bf60048036038101906104ba919061188a565b6109f9565b005b6104c9610a39565b6040516104d69190611a09565b60405180910390f35b6104e7610a5f565b6040516104f491906118c6565b60405180910390f35b610505610a85565b60405161051291906118c6565b60405180910390f35b610535600480360381019061053091906119dc565b610aab565b005b610551600480360381019061054c919061188a565b610aeb565b005b60008060405180602001604052908160008201548152505090506105808282610b2b90919063ffffffff16565b8060008082015181600001559050505050565b60006105b46000604051806020016040529081600082015481525050610be3565b905090565b60008060405180602001604052908160008201548152505090506105e68282610c1890919063ffffffff16565b8060008082015181600001559050505050565b600061061a6000604051806020016040529081600082015481525050610cd0565b905090565b60006106406000604051806020016040529081600082015481525050610d05565b905090565b60006106666000604051806020016040529081600082015481525050610d3a565b905090565b6000806000806000806106936000604051806020016040529081600082015481525050610d6f565b955095509550955095509550909192939495565b60006106c86000604051806020016040529081600082015481525050610e83565b905090565b60008060000154905081565b60008060008060006107006000604051806020016040529081600082015481525050610eb8565b945094509450945094509091929394565b600080604051806020016040529081600082015481525050905061073e8282610fa490919063ffffffff16565b8060008082015181600001559050505050565b600080604051806020016040529081600082015481525050905061077e828261105f90919063ffffffff16565b8060008082015181600001559050505050565b60006107b260006040518060200160405290816000820154815250506110aa565b905090565b60006107d860006040518060200160405290816000820154815250506110de565b905090565b600080604051806020016040529081600082015481525050905061080a828261111290919063ffffffff16565b8060008082015181600001559050505050565b600061083e600060405180602001604052908160008201548152505061115d565b905090565b6000806040518060200160405290816000820154815250509050610870828261118e90919063ffffffff16565b8060008082015181600001559050505050565b60008060405180602001604052908160008201548152505090506108b0828261124590919063ffffffff16565b8060008082015181600001559050505050565b6000806108e56000604051806020016040529081600082015481525050611300565b915091509091565b600080604051806020016040529081600082015481525050905061091a828261136690919063ffffffff16565b8060008082015181600001559050505050565b600080604051806020016040529081600082015481525050905061095a828261141a90919063ffffffff16565b8060008082015181600001559050505050565b600061098e60006040518060200160405290816000820154815250506114d2565b905090565b60008060405180602001604052908160008201548152505090506109c0828261150790919063ffffffff16565b8060008082015181600001559050505050565b60006109f460006040518060200160405290816000820154815250506115c2565b905090565b6000806040518060200160405290816000820154815250509050610a2682826115f790919063ffffffff16565b8060008082015181600001559050505050565b6000610a5a60006040518060200160405290816000820154815250506116af565b905090565b6000610a8060006040518060200160405290816000820154815250506116e3565b905090565b6000610aa66000604051806020016040529081600082015481525050611718565b905090565b6000806040518060200160405290816000820154815250509050610ad8828261174d90919063ffffffff16565b8060008082015181600001559050505050565b6000806040518060200160405290816000820154815250509050610b18828261179890919063ffffffff16565b8060008082015181600001559050505050565b61ffff8111156040518060400160405280600281526020017f363700000000000000000000000000000000000000000000000000000000000081525090610ba8576040517f08c379a0000000000000000000000000000000000000000000000000000000008152600401610b9f9190611ae6565b60405180910390fd5b50604081901b7fffffffffffffffffffffffffffffffffffffffffffff0000ffffffffffffffff836000015116178260000181815250505050565b600060747fffffffffffffffffffffffffff000000000fffffffffffffffffffffffffffff19836000015116901c9050919050565b61ffff8111156040518060400160405280600281526020017f363500000000000000000000000000000000000000000000000000000000000081525090610c95576040517f08c379a0000000000000000000000000000000000000000000000000000000008152600401610c8c9190611ae6565b60405180910390fd5b50602081901b7fffffffffffffffffffffffffffffffffffffffffffffffffffff0000ffffffff836000015116178260000181815250505050565b600060a87fffffffffffffffffffff00ffffffffffffffffffffffffffffffffffffffffff19836000015116901c9050919050565b600060107fffffffffffffffffffffffffffffffffffffffffffffffffffffffff0000ffff19836000015116901c9050919050565b600060207fffffffffffffffffffffffffffffffffffffffffffffffffffff0000ffffffff19836000015116901c9050919050565b6000806000806000806000876000015190507fffffffffffffffffffffffffffffffffffffffffffffffffffffffffffff000019811660107fffffffffffffffffffffffffffffffffffffffffffffffffffffffff0000ffff198316901c60207fffffffffffffffffffffffffffffffffffffffffffffffffffff0000ffffffff198416901c60307fffffffffffffffffffffffffffffffffffffffffffffffffff00ffffffffffff198516901c60407fffffffffffffffffffffffffffffffffffffffffffff0000ffffffffffffffff198616901c60a87fffffffffffffffffffff00ffffffffffffffffffffffffffffffffffffffffff198716901c9650965096509650965096505091939550919395565b600060407fffffffffffffffffffffffffffffffffffffffffffff0000ffffffffffffffff19836000015116901c9050919050565b6000806000806000808660000151905060007ffffffffffffffffffffffffffffffffffffffffffffffffffeffffffffffffff198216141560007ffffffffffffffffffffffffffffffffffffffffffffffffffdffffffffffffff198316141560007ffffffffffffffffffffffffffffffffffffffffffffffffffbffffffffffffff198416141560007ffffffffffffffffffffffffffffffffffffffffffffffffff7ffffffffffffff198516141560007fffffffffffffffffffffffffffffffffffffffffffffffffefffffffffffffff1986161415955095509550955095505091939590929450565b640fffffffff8111156040518060400160405280600281526020017f363800000000000000000000000000000000000000000000000000000000000081525090611024576040517f08c379a000000000000000000000000000000000000000000000000000000000815260040161101b9190611ae6565b60405180910390fd5b50605081901b7ffffffffffffffffffffffffffffffffffff000000000ffffffffffffffffffff836000015116178260000181815250505050565b603b8161106d576000611070565b60015b60ff16901b7ffffffffffffffffffffffffffffffffffffffffffffffffff7ffffffffffffff836000015116178260000181815250505050565b6000807ffffffffffffffffffffffffffffffffffffffffffffffffffdffffffffffffff1983600001511614159050919050565b6000807ffffffffffffffffffffffffffffffffffffffffffffffffffbffffffffffffff1983600001511614159050919050565b603981611120576000611123565b60015b60ff16901b7ffffffffffffffffffffffffffffffffffffffffffffffffffdffffffffffffff836000015116178260000181815250505050565b60007fffffffffffffffffffffffffffffffffffffffffffffffffffffffffffff0000198260000151169050919050565b60ff8111156040518060400160405280600281526020017f36360000000000000000000000000000000000000000000000000000000000008152509061120a576040517f08c379a00000000000000000000000000000000000000000000000000000000081526004016112019190611ae6565b60405180910390fd5b50603081901b7fffffffffffffffffffffffffffffffffffffffffffffffffff00ffffffffffff836000015116178260000181815250505050565b640fffffffff8111156040518060400160405280600281526020017f3732000000000000000000000000000000000000000000000000000000000000815250906112c5576040517f08c379a00000000000000000000000000000000000000000000000000000000081526004016112bc9190611ae6565b60405180910390fd5b5060b081901b7ffffffffffff000000000ffffffffffffffffffffffffffffffffffffffffffff836000015116178260000181815250505050565b60008060008360000151905060507ffffffffffffffffffffffffffffffffffff000000000ffffffffffffffffffff198216901c60747fffffffffffffffffffffffffff000000000fffffffffffffffffffffffffffff198316901c9250925050915091565b61ffff8111156040518060400160405280600281526020017f3633000000000000000000000000000000000000000000000000000000000000815250906113e3576040517f08c379a00000000000000000000000000000000000000000000000000000000081526004016113da9190611ae6565b60405180910390fd5b50807fffffffffffffffffffffffffffffffffffffffffffffffffffffffffffff0000836000015116178260000181815250505050565b61ffff8111156040518060400160405280600281526020017f373000000000000000000000000000000000000000000000000000000000000081525090611497576040517f08c379a000000000000000000000000000000000000000000000000000000000815260040161148e9190611ae6565b60405180910390fd5b50609881901b7fffffffffffffffffffffff0000ffffffffffffffffffffffffffffffffffffff836000015116178260000181815250505050565b600060507ffffffffffffffffffffffffffffffffffff000000000ffffffffffffffffffff19836000015116901c9050919050565b640fffffffff8111156040518060400160405280600281526020017f363900000000000000000000000000000000000000000000000000000000000081525090611587576040517f08c379a000000000000000000000000000000000000000000000000000000000815260040161157e9190611ae6565b60405180910390fd5b50607481901b7fffffffffffffffffffffffffff000000000fffffffffffffffffffffffffffff836000015116178260000181815250505050565b600060987fffffffffffffffffffffff0000ffffffffffffffffffffffffffffffffffffff19836000015116901c9050919050565b61ffff8111156040518060400160405280600281526020017f363400000000000000000000000000000000000000000000000000000000000081525090611674576040517f08c379a000000000000000000000000000000000000000000000000000000000815260040161166b9190611ae6565b60405180910390fd5b50601081901b7fffffffffffffffffffffffffffffffffffffffffffffffffffffffff0000ffff836000015116178260000181815250505050565b6000807ffffffffffffffffffffffffffffffffffffffffffffffffff7ffffffffffffff1983600001511614159050919050565b600060b07ffffffffffff000000000ffffffffffffffffffffffffffffffffffffffffffff19836000015116901c9050919050565b600060307fffffffffffffffffffffffffffffffffffffffffffffffffff00ffffffffffff19836000015116901c9050919050565b603a8161175b57600061175e565b60015b60ff16901b7ffffffffffffffffffffffffffffffffffffffffffffffffffbffffffffffffff836000015116178260000181815250505050565b60ff8111156040518060400160405280600281526020017f373100000000000000000000000000000000000000000000000000000000000081525090611814576040517f08c379a000000000000000000000000000000000000000000000000000000000815260040161180b9190611ae6565b60405180910390fd5b5060a881901b7fffffffffffffffffffff00ffffffffffffffffffffffffffffffffffffffffff836000015116178260000181815250505050565b600080fd5b6000819050919050565b61186781611854565b811461187257600080fd5b50565b6000813590506118848161185e565b92915050565b6000602082840312156118a05761189f61184f565b5b60006118ae84828501611875565b91505092915050565b6118c081611854565b82525050565b60006020820190506118db60008301846118b7565b92915050565b600060c0820190506118f660008301896118b7565b61190360208301886118b7565b61191060408301876118b7565b61191d60608301866118b7565b61192a60808301856118b7565b61193760a08301846118b7565b979650505050505050565b60008115159050919050565b61195781611942565b82525050565b600060a082019050611972600083018861194e565b61197f602083018761194e565b61198c604083018661194e565b611999606083018561194e565b6119a6608083018461194e565b9695505050505050565b6119b981611942565b81146119c457600080fd5b50565b6000813590506119d6816119b0565b92915050565b6000602082840312156119f2576119f161184f565b5b6000611a00848285016119c7565b91505092915050565b6000602082019050611a1e600083018461194e565b92915050565b6000604082019050611a3960008301856118b7565b611a4660208301846118b7565b9392505050565b600081519050919050565b600082825260208201905092915050565b60005b83811015611a87578082015181840152602081019050611a6c565b83811115611a96576000848401525b50505050565b6000601f19601f8301169050919050565b6000611ab882611a4d565b611ac28185611a58565b9350611ad2818560208601611a69565b611adb81611a9c565b840191505092915050565b60006020820190508181036000830152611b008184611aad565b90509291505056fea2646970667358221220f2f2a028144c458e256f578d78052ad60093be926d5ccff41f2d65820c71122b64736f6c634300080a0033",
  "linkReferences": {},
  "deployedLinkReferences": {}
}