{
  "_format": "hh-sol-artifact-1",
  "contractName": "ValidationLogic",
  "sourceName": "contracts/Aave_Contracts/protocol/libraries/logic/ValidationLogic.sol",
  "abi": [
    {
      "inputs": [],
      "name": "HEALTH_FACTOR_LIQUIDATION_THRESHOLD",
      "outputs": [
        {
          "internalType": "uint256",
          "name": "",
          "type": "uint256"
        }
      ],
      "stateMutability": "view",
      "type": "function"
    },
    {
      "inputs": [],
      "name": "MINIMUM_HEALTH_FACTOR_LIQUIDATION_THRESHOLD",
      "outputs": [
        {
          "internalType": "uint256",
          "name": "",
          "type": "uint256"
        }
      ],
      "stateMutability": "view",
      "type": "function"
    },
    {
      "inputs": [],
      "name": "REBALANCE_UP_LIQUIDITY_RATE_THRESHOLD",
      "outputs": [
        {
          "internalType": "uint256",
          "name": "",
          "type": "uint256"
        }
      ],
      "stateMutability": "view",
      "type": "function"
    }
  ],
  "bytecode": "0x61011e610053600b82828239805160001a607314610046577f4e487b7100000000000000000000000000000000000000000000000000000000600052600060045260246000fd5b30600052607381538281f3fe730000000000000000000000000000000000000000301460806040526004361060475760003560e01c8063561cbec914604c578063abfcc86a146066578063c3525c28146080575b600080fd5b6052609a565b604051605d919060cf565b60405180910390f35b606c60a6565b6040516077919060cf565b60405180910390f35b608660ac565b6040516091919060cf565b60405180910390f35b670d2f13f7789f000081565b61232881565b670de0b6b3a764000081565b6000819050919050565b60c98160b8565b82525050565b600060208201905060e2600083018460c2565b9291505056fea2646970667358221220ca55926862235fb5823abfc273c640829a434be71b049a1d7b33a379c6000b9864736f6c634300080a0033",
  "linkReferences": {},
  "deployedLinkReferences": {}
}