{
  "_format": "hh-sol-artifact-1",
  "contractName": "InitializableImmutableAdminUpgradeabilityProxy",
  "sourceName": "contracts/Aave_Contracts/protocol/libraries/aave-upgradeability/InitializableImmutableAdminUpgradeabilityProxy.sol",
  "abi": [
    {
      "inputs": [
        {
          "internalType": "address",
          "name": "admin",
          "type": "address"
        }
      ],
      "stateMutability": "nonpayable",
      "type": "constructor"
    },
    {
      "anonymous": false,
      "inputs": [
        {
          "indexed": true,
          "internalType": "address",
          "name": "implementation",
          "type": "address"
        }
      ],
      "name": "Upgraded",
      "type": "event"
    },
    {
      "stateMutability": "payable",
      "type": "fallback"
    },
    {
      "inputs": [],
      "name": "admin",
      "outputs": [
        {
          "internalType": "address",
          "name": "",
          "type": "address"
        }
      ],
      "stateMutability": "nonpayable",
      "type": "function"
    },
    {
      "inputs": [],
      "name": "implementation",
      "outputs": [
        {
          "internalType": "address",
          "name": "",
          "type": "address"
        }
      ],
      "stateMutability": "nonpayable",
      "type": "function"
    },
    {
      "inputs": [
        {
          "internalType": "address",
          "name": "_logic",
          "type": "address"
        },
        {
          "internalType": "bytes",
          "name": "_data",
          "type": "bytes"
        }
      ],
      "name": "initialize",
      "outputs": [],
      "stateMutability": "payable",
      "type": "function"
    },
    {
      "inputs": [
        {
          "internalType": "address",
          "name": "newImplementation",
          "type": "address"
        }
      ],
      "name": "upgradeTo",
      "outputs": [],
      "stateMutability": "nonpayable",
      "type": "function"
    },
    {
      "inputs": [
        {
          "internalType": "address",
          "name": "newImplementation",
          "type": "address"
        },
        {
          "internalType": "bytes",
          "name": "data",
          "type": "bytes"
        }
      ],
      "name": "upgradeToAndCall",
      "outputs": [],
      "stateMutability": "payable",
      "type": "function"
    }
  ],
  "bytecode": "0x60a060405234801561001057600080fd5b50604051610df8380380610df8833981810160405281019061003291906100d1565b808073ffffffffffffffffffffffffffffffffffffffff1660808173ffffffffffffffffffffffffffffffffffffffff168152505050506100fe565b600080fd5b600073ffffffffffffffffffffffffffffffffffffffff82169050919050565b600061009e82610073565b9050919050565b6100ae81610093565b81146100b957600080fd5b50565b6000815190506100cb816100a5565b92915050565b6000602082840312156100e7576100e661006e565b5b60006100f5848285016100bc565b91505092915050565b608051610cbc61013c6000396000818161012c0152818161019a01528181610284015281816104280152818161047c01526105d70152610cbc6000f3fe60806040526004361061004e5760003560e01c80633659cfe6146100595780634f1ef286146100825780635c60da1b1461009e578063d1f57894146100c9578063f851a440146100e55761004f565b5b610057610110565b005b34801561006557600080fd5b50610080600480360381019061007b919061072d565b61012a565b005b61009c600480360381019061009791906107bf565b610198565b005b3480156100aa57600080fd5b506100b3610280565b6040516100c0919061082e565b60405180910390f35b6100e360048036038101906100de919061098a565b6102f1565b005b3480156100f157600080fd5b506100fa610424565b604051610107919061082e565b60405180910390f35b6101186104ae565b6101286101236104b8565b6104e9565b565b7f000000000000000000000000000000000000000000000000000000000000000073ffffffffffffffffffffffffffffffffffffffff163373ffffffffffffffffffffffffffffffffffffffff16141561018c576101878161050f565b610195565b610194610110565b5b50565b7f000000000000000000000000000000000000000000000000000000000000000073ffffffffffffffffffffffffffffffffffffffff163373ffffffffffffffffffffffffffffffffffffffff161415610272576101f58361050f565b60008373ffffffffffffffffffffffffffffffffffffffff16838360405161021e929190610a16565b600060405180830381855af49150503d8060008114610259576040519150601f19603f3d011682016040523d82523d6000602084013e61025e565b606091505b505090508061026c57600080fd5b5061027b565b61027a610110565b5b505050565b60007f000000000000000000000000000000000000000000000000000000000000000073ffffffffffffffffffffffffffffffffffffffff163373ffffffffffffffffffffffffffffffffffffffff1614156102e5576102de6104b8565b90506102ee565b6102ed610110565b5b90565b600073ffffffffffffffffffffffffffffffffffffffff166103116104b8565b73ffffffffffffffffffffffffffffffffffffffff161461033157600080fd5b60017f360894a13ba1a3210667c828492db98dca3e2076cc3735a920a3ca505d382bbd60001c6103619190610a68565b60001b7f360894a13ba1a3210667c828492db98dca3e2076cc3735a920a3ca505d382bbc60001b1461039657610395610a9c565b5b61039f8261055e565b6000815111156104205760008273ffffffffffffffffffffffffffffffffffffffff16826040516103d09190610b3a565b600060405180830381855af49150503d806000811461040b576040519150601f19603f3d011682016040523d82523d6000602084013e610410565b606091505b505090508061041e57600080fd5b505b5050565b60007f000000000000000000000000000000000000000000000000000000000000000073ffffffffffffffffffffffffffffffffffffffff163373ffffffffffffffffffffffffffffffffffffffff1614156104a2577f000000000000000000000000000000000000000000000000000000000000000090506104ab565b6104aa610110565b5b90565b6104b66105d5565b565b6000807f360894a13ba1a3210667c828492db98dca3e2076cc3735a920a3ca505d382bbc60001b9050805491505090565b3660008037600080366000845af43d6000803e806000811461050a573d6000f35b3d6000fd5b6105188161055e565b8073ffffffffffffffffffffffffffffffffffffffff167fbc7cd75a20ee27fd9adebab32041f755214dbc6bffa90cc0225b39da2e5c2d3b60405160405180910390a250565b6105678161066e565b6105a6576040517f08c379a000000000000000000000000000000000000000000000000000000000815260040161059d90610bd4565b60405180910390fd5b60007f360894a13ba1a3210667c828492db98dca3e2076cc3735a920a3ca505d382bbc60001b90508181555050565b7f000000000000000000000000000000000000000000000000000000000000000073ffffffffffffffffffffffffffffffffffffffff163373ffffffffffffffffffffffffffffffffffffffff161415610664576040517f08c379a000000000000000000000000000000000000000000000000000000000815260040161065b90610c66565b60405180910390fd5b61066c6106b9565b565b60008060007fc5d2460186f7233c927e7db2dcc703c0e500b653ca82273b7bfad8045d85a47060001b9050833f91508082141580156106b057506000801b8214155b92505050919050565b565b6000604051905090565b600080fd5b600080fd5b600073ffffffffffffffffffffffffffffffffffffffff82169050919050565b60006106fa826106cf565b9050919050565b61070a816106ef565b811461071557600080fd5b50565b60008135905061072781610701565b92915050565b600060208284031215610743576107426106c5565b5b600061075184828501610718565b91505092915050565b600080fd5b600080fd5b600080fd5b60008083601f84011261077f5761077e61075a565b5b8235905067ffffffffffffffff81111561079c5761079b61075f565b5b6020830191508360018202830111156107b8576107b7610764565b5b9250929050565b6000806000604084860312156107d8576107d76106c5565b5b60006107e686828701610718565b935050602084013567ffffffffffffffff811115610807576108066106ca565b5b61081386828701610769565b92509250509250925092565b610828816106ef565b82525050565b6000602082019050610843600083018461081f565b92915050565b600080fd5b6000601f19601f8301169050919050565b7f4e487b7100000000000000000000000000000000000000000000000000000000600052604160045260246000fd5b6108978261084e565b810181811067ffffffffffffffff821117156108b6576108b561085f565b5b80604052505050565b60006108c96106bb565b90506108d5828261088e565b919050565b600067ffffffffffffffff8211156108f5576108f461085f565b5b6108fe8261084e565b9050602081019050919050565b82818337600083830152505050565b600061092d610928846108da565b6108bf565b90508281526020810184848401111561094957610948610849565b5b61095484828561090b565b509392505050565b600082601f8301126109715761097061075a565b5b813561098184826020860161091a565b91505092915050565b600080604083850312156109a1576109a06106c5565b5b60006109af85828601610718565b925050602083013567ffffffffffffffff8111156109d0576109cf6106ca565b5b6109dc8582860161095c565b9150509250929050565b600081905092915050565b60006109fd83856109e6565b9350610a0a83858461090b565b82840190509392505050565b6000610a238284866109f1565b91508190509392505050565b6000819050919050565b7f4e487b7100000000000000000000000000000000000000000000000000000000600052601160045260246000fd5b6000610a7382610a2f565b9150610a7e83610a2f565b925082821015610a9157610a90610a39565b5b828203905092915050565b7f4e487b7100000000000000000000000000000000000000000000000000000000600052600160045260246000fd5b600081519050919050565b60005b83811015610af4578082015181840152602081019050610ad9565b83811115610b03576000848401525b50505050565b6000610b1482610acb565b610b1e81856109e6565b9350610b2e818560208601610ad6565b80840191505092915050565b6000610b468284610b09565b915081905092915050565b600082825260208201905092915050565b7f43616e6e6f742073657420612070726f787920696d706c656d656e746174696f60008201527f6e20746f2061206e6f6e2d636f6e747261637420616464726573730000000000602082015250565b6000610bbe603b83610b51565b9150610bc982610b62565b604082019050919050565b60006020820190508181036000830152610bed81610bb1565b9050919050565b7f43616e6e6f742063616c6c2066616c6c6261636b2066756e6374696f6e20667260008201527f6f6d207468652070726f78792061646d696e0000000000000000000000000000602082015250565b6000610c50603283610b51565b9150610c5b82610bf4565b604082019050919050565b60006020820190508181036000830152610c7f81610c43565b905091905056fea2646970667358221220a834372c5872c58eb475a5909f3d781ce3b9dbf37acd9a143d38be75abcff15c64736f6c634300080a0033",
  "linkReferences": {},
  "deployedLinkReferences": {}
}