{
  "_format": "hh-sol-artifact-1",
  "contractName": "MockInitializableImpleV2",
  "sourceName": "contracts/Aave_Contracts/mocks/upgradeability/MockInitializableImplementation.sol",
  "abi": [
    {
      "inputs": [],
      "name": "REVISION",
      "outputs": [
        {
          "internalType": "uint256",
          "name": "",
          "type": "uint256"
        }
      ],
      "stateMutability": "view",
      "type": "function"
    },
    {
      "inputs": [
        {
          "internalType": "uint256",
          "name": "val",
          "type": "uint256"
        },
        {
          "internalType": "string",
          "name": "txt",
          "type": "string"
        },
        {
          "internalType": "uint256[]",
          "name": "vals",
          "type": "uint256[]"
        }
      ],
      "name": "initialize",
      "outputs": [],
      "stateMutability": "nonpayable",
      "type": "function"
    },
    {
      "inputs": [
        {
          "internalType": "uint256",
          "name": "newValue",
          "type": "uint256"
        }
      ],
      "name": "setValue",
      "outputs": [],
      "stateMutability": "nonpayable",
      "type": "function"
    },
    {
      "inputs": [
        {
          "internalType": "uint256",
          "name": "newValue",
          "type": "uint256"
        }
      ],
      "name": "setValueViaProxy",
      "outputs": [],
      "stateMutability": "nonpayable",
      "type": "function"
    },
    {
      "inputs": [],
      "name": "text",
      "outputs": [
        {
          "internalType": "string",
          "name": "",
          "type": "string"
        }
      ],
      "stateMutability": "view",
      "type": "function"
    },
    {
      "inputs": [],
      "name": "value",
      "outputs": [
        {
          "internalType": "uint256",
          "name": "",
          "type": "uint256"
        }
      ],
      "stateMutability": "view",
      "type": "function"
    },
    {
      "inputs": [
        {
          "internalType": "uint256",
          "name": "",
          "type": "uint256"
        }
      ],
      "name": "values",
      "outputs": [
        {
          "internalType": "uint256",
          "name": "",
          "type": "uint256"
        }
      ],
      "stateMutability": "view",
      "type": "function"
    }
  ],
  "bytecode": "0x60806040526000805534801561001457600080fd5b50610959806100246000396000f3fe608060405234801561001057600080fd5b506004361061007d5760003560e01c80635dd216101161005b5780635dd21610146100da5780635e383d21146100f6578063d31f8b6b14610126578063dde43cba146101425761007d565b80631f1bd692146100825780633fa4f245146100a057806355241077146100be575b600080fd5b61008a610160565b60405161009791906104e5565b60405180910390f35b6100a86101ee565b6040516100b59190610520565b60405180910390f35b6100d860048036038101906100d3919061057b565b6101f4565b005b6100f460048036038101906100ef919061057b565b6101fe565b005b610110600480360381019061010b919061057b565b610208565b60405161011d9190610520565b60405180910390f35b610140600480360381019061013b91906107a5565b61022c565b005b61014a61033d565b6040516101579190610520565b60405180910390f35b6035805461016d9061085f565b80601f01602080910402602001604051908101604052809291908181526020018280546101999061085f565b80156101e65780601f106101bb576101008083540402835291602001916101e6565b820191906000526020600020905b8154815290600101906020018083116101c957829003601f168201915b505050505081565b60345481565b8060348190555050565b8060348190555050565b6036818154811061021857600080fd5b906000526020600020016000915090505481565b6000610236610342565b9050600160009054906101000a900460ff1680610257575061025661034b565b5b80610263575060005481115b6102a2576040517f08c379a000000000000000000000000000000000000000000000000000000000815260040161029990610903565b60405180910390fd5b6000600160009054906101000a900460ff1615905080156102df5760018060006101000a81548160ff021916908315150217905550816000819055505b8460348190555083603590805190602001906102fc92919061035c565b5082603690805190602001906103139291906103e2565b508015610336576000600160006101000a81548160ff0219169083151502179055505b5050505050565b600281565b60006002905090565b600080303b90506000811491505090565b8280546103689061085f565b90600052602060002090601f01602090048101928261038a57600085556103d1565b82601f106103a357805160ff19168380011785556103d1565b828001600101855582156103d1579182015b828111156103d05782518255916020019190600101906103b5565b5b5090506103de919061042f565b5090565b82805482825590600052602060002090810192821561041e579160200282015b8281111561041d578251825591602001919060010190610402565b5b50905061042b919061042f565b5090565b5b80821115610448576000816000905550600101610430565b5090565b600081519050919050565b600082825260208201905092915050565b60005b8381101561048657808201518184015260208101905061046b565b83811115610495576000848401525b50505050565b6000601f19601f8301169050919050565b60006104b78261044c565b6104c18185610457565b93506104d1818560208601610468565b6104da8161049b565b840191505092915050565b600060208201905081810360008301526104ff81846104ac565b905092915050565b6000819050919050565b61051a81610507565b82525050565b60006020820190506105356000830184610511565b92915050565b6000604051905090565b600080fd5b600080fd5b61055881610507565b811461056357600080fd5b50565b6000813590506105758161054f565b92915050565b60006020828403121561059157610590610545565b5b600061059f84828501610566565b91505092915050565b600080fd5b600080fd5b7f4e487b7100000000000000000000000000000000000000000000000000000000600052604160045260246000fd5b6105ea8261049b565b810181811067ffffffffffffffff82111715610609576106086105b2565b5b80604052505050565b600061061c61053b565b905061062882826105e1565b919050565b600067ffffffffffffffff821115610648576106476105b2565b5b6106518261049b565b9050602081019050919050565b82818337600083830152505050565b600061068061067b8461062d565b610612565b90508281526020810184848401111561069c5761069b6105ad565b5b6106a784828561065e565b509392505050565b600082601f8301126106c4576106c36105a8565b5b81356106d484826020860161066d565b91505092915050565b600067ffffffffffffffff8211156106f8576106f76105b2565b5b602082029050602081019050919050565b600080fd5b600061072161071c846106dd565b610612565b9050808382526020820190506020840283018581111561074457610743610709565b5b835b8181101561076d57806107598882610566565b845260208401935050602081019050610746565b5050509392505050565b600082601f83011261078c5761078b6105a8565b5b813561079c84826020860161070e565b91505092915050565b6000806000606084860312156107be576107bd610545565b5b60006107cc86828701610566565b935050602084013567ffffffffffffffff8111156107ed576107ec61054a565b5b6107f9868287016106af565b925050604084013567ffffffffffffffff81111561081a5761081961054a565b5b61082686828701610777565b9150509250925092565b7f4e487b7100000000000000000000000000000000000000000000000000000000600052602260045260246000fd5b6000600282049050600182168061087757607f821691505b6020821081141561088b5761088a610830565b5b50919050565b7f436f6e747261637420696e7374616e63652068617320616c726561647920626560008201527f656e20696e697469616c697a6564000000000000000000000000000000000000602082015250565b60006108ed602e83610457565b91506108f882610891565b604082019050919050565b6000602082019050818103600083015261091c816108e0565b905091905056fea264697066735822122091ca96890e99be309c10b7f2c44a8efe0b30d0df5d75896fcf25659a5ff04e3964736f6c634300080a0033",
  "linkReferences": {},
  "deployedLinkReferences": {}
}