{
  "_format": "hh-sol-artifact-1",
  "contractName": "MockReentrantInitializableImple",
  "sourceName": "contracts/Aave_Contracts/mocks/upgradeability/MockInitializableImplementation.sol",
  "abi": [
    {
      "inputs": [],
      "name": "REVISION",
      "outputs": [
        {
          "internalType": "uint256",
          "name": "",
          "type": "uint256"
        }
      ],
      "stateMutability": "view",
      "type": "function"
    },
    {
      "inputs": [
        {
          "internalType": "uint256",
          "name": "val",
          "type": "uint256"
        }
      ],
      "name": "initialize",
      "outputs": [],
      "stateMutability": "nonpayable",
      "type": "function"
    },
    {
      "inputs": [],
      "name": "value",
      "outputs": [
        {
          "internalType": "uint256",
          "name": "",
          "type": "uint256"
        }
      ],
      "stateMutability": "view",
      "type": "function"
    }
  ],
  "bytecode": "0x60806040526000805534801561001457600080fd5b506103b7806100246000396000f3fe608060405234801561001057600080fd5b50600436106100415760003560e01c80633fa4f24514610046578063dde43cba14610064578063fe4b84df14610082575b600080fd5b61004e61009e565b60405161005b91906101e0565b60405180910390f35b61006c6100a4565b60405161007991906101e0565b60405180910390f35b61009c6004803603810190610097919061022c565b6100a9565b005b60345481565b600281565b60006100b36101ad565b9050600160009054906101000a900460ff16806100d457506100d36101b6565b5b806100e0575060005481115b61011f576040517f08c379a0000000000000000000000000000000000000000000000000000000008152600401610116906102dc565b60405180910390fd5b6000600160009054906101000a900460ff16159050801561015c5760018060006101000a81548160ff021916908315150217905550816000819055505b8260348190555060026034541015610186576101856001603454610180919061032b565b6100a9565b5b80156101a8576000600160006101000a81548160ff0219169083151502179055505b505050565b60006002905090565b600080303b90506000811491505090565b6000819050919050565b6101da816101c7565b82525050565b60006020820190506101f560008301846101d1565b92915050565b600080fd5b610209816101c7565b811461021457600080fd5b50565b60008135905061022681610200565b92915050565b600060208284031215610242576102416101fb565b5b600061025084828501610217565b91505092915050565b600082825260208201905092915050565b7f436f6e747261637420696e7374616e63652068617320616c726561647920626560008201527f656e20696e697469616c697a6564000000000000000000000000000000000000602082015250565b60006102c6602e83610259565b91506102d18261026a565b604082019050919050565b600060208201905081810360008301526102f5816102b9565b9050919050565b7f4e487b7100000000000000000000000000000000000000000000000000000000600052601160045260246000fd5b6000610336826101c7565b9150610341836101c7565b9250827fffffffffffffffffffffffffffffffffffffffffffffffffffffffffffffffff03821115610376576103756102fc565b5b82820190509291505056fea2646970667358221220168aa5f7b65f51e4c4f221ec7c448ac6c4cfd325cb0f3ca5c03b27056869c89d64736f6c634300080a0033",
  "linkReferences": {},
  "deployedLinkReferences": {}
}