{
  "_format": "hh-sol-artifact-1",
  "contractName": "MockInitializableFromConstructorImple",
  "sourceName": "contracts/Aave_Contracts/mocks/upgradeability/MockInitializableImplementation.sol",
  "abi": [
    {
      "inputs": [
        {
          "internalType": "uint256",
          "name": "val",
          "type": "uint256"
        }
      ],
      "stateMutability": "nonpayable",
      "type": "constructor"
    },
    {
      "inputs": [],
      "name": "REVISION",
      "outputs": [
        {
          "internalType": "uint256",
          "name": "",
          "type": "uint256"
        }
      ],
      "stateMutability": "view",
      "type": "function"
    },
    {
      "inputs": [
        {
          "internalType": "uint256",
          "name": "val",
          "type": "uint256"
        }
      ],
      "name": "initialize",
      "outputs": [],
      "stateMutability": "nonpayable",
      "type": "function"
    },
    {
      "inputs": [],
      "name": "value",
      "outputs": [
        {
          "internalType": "uint256",
          "name": "",
          "type": "uint256"
        }
      ],
      "stateMutability": "view",
      "type": "function"
    }
  ],
  "bytecode": "0x60806040526000805534801561001457600080fd5b5060405161057b38038061057b8339818101604052810190610036919061018d565b6100458161004b60201b60201c565b5061025d565b600061005b61013860201b60201c565b9050600160009054906101000a900460ff1680610082575061008161014160201b60201c565b5b8061008e575060005481115b6100cd576040517f08c379a00000000000000000000000000000000000000000000000000000000081526004016100c49061023d565b60405180910390fd5b6000600160009054906101000a900460ff16159050801561010a5760018060006101000a81548160ff021916908315150217905550816000819055505b826034819055508015610133576000600160006101000a81548160ff0219169083151502179055505b505050565b60006002905090565b600080303b90506000811491505090565b600080fd5b6000819050919050565b61016a81610157565b811461017557600080fd5b50565b60008151905061018781610161565b92915050565b6000602082840312156101a3576101a2610152565b5b60006101b184828501610178565b91505092915050565b600082825260208201905092915050565b7f436f6e747261637420696e7374616e63652068617320616c726561647920626560008201527f656e20696e697469616c697a6564000000000000000000000000000000000000602082015250565b6000610227602e836101ba565b9150610232826101cb565b604082019050919050565b600060208201905081810360008301526102568161021a565b9050919050565b61030f8061026c6000396000f3fe608060405234801561001057600080fd5b50600436106100415760003560e01c80633fa4f24514610046578063dde43cba14610064578063fe4b84df14610082575b600080fd5b61004e61009e565b60405161005b91906101bd565b60405180910390f35b61006c6100a4565b60405161007991906101bd565b60405180910390f35b61009c60048036038101906100979190610209565b6100a9565b005b60345481565b600281565b60006100b361018a565b9050600160009054906101000a900460ff16806100d457506100d3610193565b5b806100e0575060005481115b61011f576040517f08c379a0000000000000000000000000000000000000000000000000000000008152600401610116906102b9565b60405180910390fd5b6000600160009054906101000a900460ff16159050801561015c5760018060006101000a81548160ff021916908315150217905550816000819055505b826034819055508015610185576000600160006101000a81548160ff0219169083151502179055505b505050565b60006002905090565b600080303b90506000811491505090565b6000819050919050565b6101b7816101a4565b82525050565b60006020820190506101d260008301846101ae565b92915050565b600080fd5b6101e6816101a4565b81146101f157600080fd5b50565b600081359050610203816101dd565b92915050565b60006020828403121561021f5761021e6101d8565b5b600061022d848285016101f4565b91505092915050565b600082825260208201905092915050565b7f436f6e747261637420696e7374616e63652068617320616c726561647920626560008201527f656e20696e697469616c697a6564000000000000000000000000000000000000602082015250565b60006102a3602e83610236565b91506102ae82610247565b604082019050919050565b600060208201905081810360008301526102d281610296565b905091905056fea26469706673582212205caa2a63c776ade1c975de95ce6c29cd242cfd20f120d3bb6606f6ca2b6da51f64736f6c634300080a0033",
  "linkReferences": {},
  "deployedLinkReferences": {}
}