{
  "_format": "hh-sol-artifact-1",
  "contractName": "MockIncentivesController",
  "sourceName": "contracts/Aave_Contracts/mocks/helpers/MockIncentivesController.sol",
  "abi": [
    {
      "anonymous": false,
      "inputs": [
        {
          "indexed": true,
          "internalType": "address",
          "name": "user",
          "type": "address"
        },
        {
          "indexed": true,
          "internalType": "address",
          "name": "claimer",
          "type": "address"
        }
      ],
      "name": "ClaimerSet",
      "type": "event"
    },
    {
      "anonymous": false,
      "inputs": [
        {
          "indexed": true,
          "internalType": "address",
          "name": "user",
          "type": "address"
        },
        {
          "indexed": false,
          "internalType": "uint256",
          "name": "amount",
          "type": "uint256"
        }
      ],
      "name": "RewardsAccrued",
      "type": "event"
    },
    {
      "anonymous": false,
      "inputs": [
        {
          "indexed": true,
          "internalType": "address",
          "name": "user",
          "type": "address"
        },
        {
          "indexed": true,
          "internalType": "address",
          "name": "to",
          "type": "address"
        },
        {
          "indexed": false,
          "internalType": "uint256",
          "name": "amount",
          "type": "uint256"
        }
      ],
      "name": "RewardsClaimed",
      "type": "event"
    },
    {
      "anonymous": false,
      "inputs": [
        {
          "indexed": true,
          "internalType": "address",
          "name": "user",
          "type": "address"
        },
        {
          "indexed": true,
          "internalType": "address",
          "name": "to",
          "type": "address"
        },
        {
          "indexed": true,
          "internalType": "address",
          "name": "claimer",
          "type": "address"
        },
        {
          "indexed": false,
          "internalType": "uint256",
          "name": "amount",
          "type": "uint256"
        }
      ],
      "name": "RewardsClaimed",
      "type": "event"
    },
    {
      "inputs": [],
      "name": "DISTRIBUTION_END",
      "outputs": [
        {
          "internalType": "uint256",
          "name": "",
          "type": "uint256"
        }
      ],
      "stateMutability": "pure",
      "type": "function"
    },
    {
      "inputs": [],
      "name": "PRECISION",
      "outputs": [
        {
          "internalType": "uint8",
          "name": "",
          "type": "uint8"
        }
      ],
      "stateMutability": "pure",
      "type": "function"
    },
    {
      "inputs": [],
      "name": "REWARD_TOKEN",
      "outputs": [
        {
          "internalType": "address",
          "name": "",
          "type": "address"
        }
      ],
      "stateMutability": "pure",
      "type": "function"
    },
    {
      "inputs": [
        {
          "internalType": "address",
          "name": "",
          "type": "address"
        }
      ],
      "name": "assets",
      "outputs": [
        {
          "internalType": "uint128",
          "name": "",
          "type": "uint128"
        },
        {
          "internalType": "uint128",
          "name": "",
          "type": "uint128"
        },
        {
          "internalType": "uint256",
          "name": "",
          "type": "uint256"
        }
      ],
      "stateMutability": "pure",
      "type": "function"
    },
    {
      "inputs": [
        {
          "internalType": "address[]",
          "name": "",
          "type": "address[]"
        },
        {
          "internalType": "uint256",
          "name": "",
          "type": "uint256"
        },
        {
          "internalType": "address",
          "name": "",
          "type": "address"
        }
      ],
      "name": "claimRewards",
      "outputs": [
        {
          "internalType": "uint256",
          "name": "",
          "type": "uint256"
        }
      ],
      "stateMutability": "pure",
      "type": "function"
    },
    {
      "inputs": [
        {
          "internalType": "address[]",
          "name": "",
          "type": "address[]"
        },
        {
          "internalType": "uint256",
          "name": "",
          "type": "uint256"
        },
        {
          "internalType": "address",
          "name": "",
          "type": "address"
        },
        {
          "internalType": "address",
          "name": "",
          "type": "address"
        }
      ],
      "name": "claimRewardsOnBehalf",
      "outputs": [
        {
          "internalType": "uint256",
          "name": "",
          "type": "uint256"
        }
      ],
      "stateMutability": "pure",
      "type": "function"
    },
    {
      "inputs": [
        {
          "internalType": "address[]",
          "name": "",
          "type": "address[]"
        },
        {
          "internalType": "uint256[]",
          "name": "",
          "type": "uint256[]"
        }
      ],
      "name": "configureAssets",
      "outputs": [],
      "stateMutability": "nonpayable",
      "type": "function"
    },
    {
      "inputs": [
        {
          "internalType": "address",
          "name": "",
          "type": "address"
        }
      ],
      "name": "getAssetData",
      "outputs": [
        {
          "internalType": "uint256",
          "name": "",
          "type": "uint256"
        },
        {
          "internalType": "uint256",
          "name": "",
          "type": "uint256"
        },
        {
          "internalType": "uint256",
          "name": "",
          "type": "uint256"
        }
      ],
      "stateMutability": "pure",
      "type": "function"
    },
    {
      "inputs": [
        {
          "internalType": "address",
          "name": "",
          "type": "address"
        }
      ],
      "name": "getClaimer",
      "outputs": [
        {
          "internalType": "address",
          "name": "",
          "type": "address"
        }
      ],
      "stateMutability": "pure",
      "type": "function"
    },
    {
      "inputs": [
        {
          "internalType": "address[]",
          "name": "",
          "type": "address[]"
        },
        {
          "internalType": "address",
          "name": "",
          "type": "address"
        }
      ],
      "name": "getRewardsBalance",
      "outputs": [
        {
          "internalType": "uint256",
          "name": "",
          "type": "uint256"
        }
      ],
      "stateMutability": "pure",
      "type": "function"
    },
    {
      "inputs": [
        {
          "internalType": "address",
          "name": "",
          "type": "address"
        },
        {
          "internalType": "address",
          "name": "",
          "type": "address"
        }
      ],
      "name": "getUserAssetData",
      "outputs": [
        {
          "internalType": "uint256",
          "name": "",
          "type": "uint256"
        }
      ],
      "stateMutability": "pure",
      "type": "function"
    },
    {
      "inputs": [
        {
          "internalType": "address",
          "name": "",
          "type": "address"
        }
      ],
      "name": "getUserUnclaimedRewards",
      "outputs": [
        {
          "internalType": "uint256",
          "name": "",
          "type": "uint256"
        }
      ],
      "stateMutability": "pure",
      "type": "function"
    },
    {
      "inputs": [
        {
          "internalType": "address",
          "name": "",
          "type": "address"
        },
        {
          "internalType": "uint256",
          "name": "",
          "type": "uint256"
        },
        {
          "internalType": "uint256",
          "name": "",
          "type": "uint256"
        }
      ],
      "name": "handleAction",
      "outputs": [],
      "stateMutability": "nonpayable",
      "type": "function"
    },
    {
      "inputs": [
        {
          "internalType": "address",
          "name": "",
          "type": "address"
        },
        {
          "internalType": "address",
          "name": "",
          "type": "address"
        }
      ],
      "name": "setClaimer",
      "outputs": [],
      "stateMutability": "nonpayable",
      "type": "function"
    }
  ],
  "bytecode": "0x608060405234801561001057600080fd5b506108f3806100206000396000f3fe608060405234801561001057600080fd5b50600436106100ea5760003560e01c806379f171b21161008c57806399248ea71161006657806399248ea714610297578063aaf5eb68146102b5578063f11b8188146102d3578063f5cf673b14610305576100ea565b806379f171b21461022d5780638b599f2614610249578063919cd40f14610279576100ea565b806331873e2e116100c857806331873e2e146101815780633373ee4c1461019d5780636d34b96e146101cd57806374d945ec146101fd576100ea565b80631652e7b7146100ef578063198fa81e146101215780633111e7b314610151575b600080fd5b6101096004803603810190610104919061040b565b610321565b60405161011893929190610451565b60405180910390f35b61013b6004803603810190610136919061040b565b610337565b6040516101489190610488565b60405180910390f35b61016b60048036038101906101669190610534565b61033e565b6040516101789190610488565b60405180910390f35b61019b600480360381019061019691906105a8565b610348565b005b6101b760048036038101906101b291906105fb565b61034d565b6040516101c49190610488565b60405180910390f35b6101e760048036038101906101e2919061063b565b610355565b6040516101f49190610488565b60405180910390f35b6102176004803603810190610212919061040b565b610360565b60405161022491906106d2565b60405180910390f35b61024760048036038101906102429190610743565b61036b565b005b610263600480360381019061025e91906107c4565b610371565b6040516102709190610488565b60405180910390f35b61028161037a565b60405161028e9190610488565b60405180910390f35b61029f61037f565b6040516102ac91906106d2565b60405180910390f35b6102bd610384565b6040516102ca9190610840565b60405180910390f35b6102ed60048036038101906102e8919061040b565b610389565b6040516102fc93929190610886565b60405180910390f35b61031f600480360381019061031a91906105fb565b61039f565b005b6000806000806000809250925092509193909250565b6000919050565b6000949350505050565b505050565b600092915050565b600095945050505050565b600060019050919050565b50505050565b60009392505050565b600090565b600090565b600090565b6000806000806000809250925092509193909250565b5050565b600080fd5b600080fd5b600073ffffffffffffffffffffffffffffffffffffffff82169050919050565b60006103d8826103ad565b9050919050565b6103e8816103cd565b81146103f357600080fd5b50565b600081359050610405816103df565b92915050565b600060208284031215610421576104206103a3565b5b600061042f848285016103f6565b91505092915050565b6000819050919050565b61044b81610438565b82525050565b60006060820190506104666000830186610442565b6104736020830185610442565b6104806040830184610442565b949350505050565b600060208201905061049d6000830184610442565b92915050565b600080fd5b600080fd5b600080fd5b60008083601f8401126104c8576104c76104a3565b5b8235905067ffffffffffffffff8111156104e5576104e46104a8565b5b602083019150836020820283011115610501576105006104ad565b5b9250929050565b61051181610438565b811461051c57600080fd5b50565b60008135905061052e81610508565b92915050565b6000806000806060858703121561054e5761054d6103a3565b5b600085013567ffffffffffffffff81111561056c5761056b6103a8565b5b610578878288016104b2565b9450945050602061058b8782880161051f565b925050604061059c878288016103f6565b91505092959194509250565b6000806000606084860312156105c1576105c06103a3565b5b60006105cf868287016103f6565b93505060206105e08682870161051f565b92505060406105f18682870161051f565b9150509250925092565b60008060408385031215610612576106116103a3565b5b6000610620858286016103f6565b9250506020610631858286016103f6565b9150509250929050565b600080600080600060808688031215610657576106566103a3565b5b600086013567ffffffffffffffff811115610675576106746103a8565b5b610681888289016104b2565b955095505060206106948882890161051f565b93505060406106a5888289016103f6565b92505060606106b6888289016103f6565b9150509295509295909350565b6106cc816103cd565b82525050565b60006020820190506106e760008301846106c3565b92915050565b60008083601f840112610703576107026104a3565b5b8235905067ffffffffffffffff8111156107205761071f6104a8565b5b60208301915083602082028301111561073c5761073b6104ad565b5b9250929050565b6000806000806040858703121561075d5761075c6103a3565b5b600085013567ffffffffffffffff81111561077b5761077a6103a8565b5b610787878288016104b2565b9450945050602085013567ffffffffffffffff8111156107aa576107a96103a8565b5b6107b6878288016106ed565b925092505092959194509250565b6000806000604084860312156107dd576107dc6103a3565b5b600084013567ffffffffffffffff8111156107fb576107fa6103a8565b5b610807868287016104b2565b9350935050602061081a868287016103f6565b9150509250925092565b600060ff82169050919050565b61083a81610824565b82525050565b60006020820190506108556000830184610831565b92915050565b60006fffffffffffffffffffffffffffffffff82169050919050565b6108808161085b565b82525050565b600060608201905061089b6000830186610877565b6108a86020830185610877565b6108b56040830184610442565b94935050505056fea264697066735822122003d05ee7fa915bacdd5bb2b1875ee1636bd163a7ca5ce23aa24b5c9186dd7f5a64736f6c634300080a0033",
  "linkReferences": {},
  "deployedLinkReferences": {}
}