{
  "_format": "hh-sol-artifact-1",
  "contractName": "PoolAddressesProvider",
  "sourceName": "contracts/Aave_Contracts/protocol/configuration/PoolAddressesProvider.sol",
  "abi": [
    {
      "inputs": [
        {
          "internalType": "string",
          "name": "marketId",
          "type": "string"
        },
        {
          "internalType": "address",
          "name": "owner",
          "type": "address"
        }
      ],
      "stateMutability": "nonpayable",
      "type": "constructor"
    },
    {
      "anonymous": false,
      "inputs": [
        {
          "indexed": true,
          "internalType": "address",
          "name": "oldAddress",
          "type": "address"
        },
        {
          "indexed": true,
          "internalType": "address",
          "name": "newAddress",
          "type": "address"
        }
      ],
      "name": "ACLAdminUpdated",
      "type": "event"
    },
    {
      "anonymous": false,
      "inputs": [
        {
          "indexed": true,
          "internalType": "address",
          "name": "oldAddress",
          "type": "address"
        },
        {
          "indexed": true,
          "internalType": "address",
          "name": "newAddress",
          "type": "address"
        }
      ],
      "name": "ACLManagerUpdated",
      "type": "event"
    },
    {
      "anonymous": false,
      "inputs": [
        {
          "indexed": true,
          "internalType": "bytes32",
          "name": "id",
          "type": "bytes32"
        },
        {
          "indexed": true,
          "internalType": "address",
          "name": "oldAddress",
          "type": "address"
        },
        {
          "indexed": true,
          "internalType": "address",
          "name": "newAddress",
          "type": "address"
        }
      ],
      "name": "AddressSet",
      "type": "event"
    },
    {
      "anonymous": false,
      "inputs": [
        {
          "indexed": true,
          "internalType": "bytes32",
          "name": "id",
          "type": "bytes32"
        },
        {
          "indexed": true,
          "internalType": "address",
          "name": "proxyAddress",
          "type": "address"
        },
        {
          "indexed": false,
          "internalType": "address",
          "name": "oldImplementationAddress",
          "type": "address"
        },
        {
          "indexed": true,
          "internalType": "address",
          "name": "newImplementationAddress",
          "type": "address"
        }
      ],
      "name": "AddressSetAsProxy",
      "type": "event"
    },
    {
      "anonymous": false,
      "inputs": [
        {
          "indexed": true,
          "internalType": "string",
          "name": "oldMarketId",
          "type": "string"
        },
        {
          "indexed": true,
          "internalType": "string",
          "name": "newMarketId",
          "type": "string"
        }
      ],
      "name": "MarketIdSet",
      "type": "event"
    },
    {
      "anonymous": false,
      "inputs": [
        {
          "indexed": true,
          "internalType": "address",
          "name": "previousOwner",
          "type": "address"
        },
        {
          "indexed": true,
          "internalType": "address",
          "name": "newOwner",
          "type": "address"
        }
      ],
      "name": "OwnershipTransferred",
      "type": "event"
    },
    {
      "anonymous": false,
      "inputs": [
        {
          "indexed": true,
          "internalType": "address",
          "name": "oldAddress",
          "type": "address"
        },
        {
          "indexed": true,
          "internalType": "address",
          "name": "newAddress",
          "type": "address"
        }
      ],
      "name": "PoolConfiguratorUpdated",
      "type": "event"
    },
    {
      "anonymous": false,
      "inputs": [
        {
          "indexed": true,
          "internalType": "address",
          "name": "oldAddress",
          "type": "address"
        },
        {
          "indexed": true,
          "internalType": "address",
          "name": "newAddress",
          "type": "address"
        }
      ],
      "name": "PoolDataProviderUpdated",
      "type": "event"
    },
    {
      "anonymous": false,
      "inputs": [
        {
          "indexed": true,
          "internalType": "address",
          "name": "oldAddress",
          "type": "address"
        },
        {
          "indexed": true,
          "internalType": "address",
          "name": "newAddress",
          "type": "address"
        }
      ],
      "name": "PoolUpdated",
      "type": "event"
    },
    {
      "anonymous": false,
      "inputs": [
        {
          "indexed": true,
          "internalType": "address",
          "name": "oldAddress",
          "type": "address"
        },
        {
          "indexed": true,
          "internalType": "address",
          "name": "newAddress",
          "type": "address"
        }
      ],
      "name": "PriceOracleSentinelUpdated",
      "type": "event"
    },
    {
      "anonymous": false,
      "inputs": [
        {
          "indexed": true,
          "internalType": "address",
          "name": "oldAddress",
          "type": "address"
        },
        {
          "indexed": true,
          "internalType": "address",
          "name": "newAddress",
          "type": "address"
        }
      ],
      "name": "PriceOracleUpdated",
      "type": "event"
    },
    {
      "anonymous": false,
      "inputs": [
        {
          "indexed": true,
          "internalType": "bytes32",
          "name": "id",
          "type": "bytes32"
        },
        {
          "indexed": true,
          "internalType": "address",
          "name": "proxyAddress",
          "type": "address"
        },
        {
          "indexed": true,
          "internalType": "address",
          "name": "implementationAddress",
          "type": "address"
        }
      ],
      "name": "ProxyCreated",
      "type": "event"
    },
    {
      "inputs": [],
      "name": "getACLAdmin",
      "outputs": [
        {
          "internalType": "address",
          "name": "",
          "type": "address"
        }
      ],
      "stateMutability": "view",
      "type": "function"
    },
    {
      "inputs": [],
      "name": "getACLManager",
      "outputs": [
        {
          "internalType": "address",
          "name": "",
          "type": "address"
        }
      ],
      "stateMutability": "view",
      "type": "function"
    },
    {
      "inputs": [
        {
          "internalType": "bytes32",
          "name": "id",
          "type": "bytes32"
        }
      ],
      "name": "getAddress",
      "outputs": [
        {
          "internalType": "address",
          "name": "",
          "type": "address"
        }
      ],
      "stateMutability": "view",
      "type": "function"
    },
    {
      "inputs": [],
      "name": "getMarketId",
      "outputs": [
        {
          "internalType": "string",
          "name": "",
          "type": "string"
        }
      ],
      "stateMutability": "view",
      "type": "function"
    },
    {
      "inputs": [],
      "name": "getPool",
      "outputs": [
        {
          "internalType": "address",
          "name": "",
          "type": "address"
        }
      ],
      "stateMutability": "view",
      "type": "function"
    },
    {
      "inputs": [],
      "name": "getPoolConfigurator",
      "outputs": [
        {
          "internalType": "address",
          "name": "",
          "type": "address"
        }
      ],
      "stateMutability": "view",
      "type": "function"
    },
    {
      "inputs": [],
      "name": "getPoolDataProvider",
      "outputs": [
        {
          "internalType": "address",
          "name": "",
          "type": "address"
        }
      ],
      "stateMutability": "view",
      "type": "function"
    },
    {
      "inputs": [],
      "name": "getPriceOracle",
      "outputs": [
        {
          "internalType": "address",
          "name": "",
          "type": "address"
        }
      ],
      "stateMutability": "view",
      "type": "function"
    },
    {
      "inputs": [],
      "name": "getPriceOracleSentinel",
      "outputs": [
        {
          "internalType": "address",
          "name": "",
          "type": "address"
        }
      ],
      "stateMutability": "view",
      "type": "function"
    },
    {
      "inputs": [],
      "name": "owner",
      "outputs": [
        {
          "internalType": "address",
          "name": "",
          "type": "address"
        }
      ],
      "stateMutability": "view",
      "type": "function"
    },
    {
      "inputs": [],
      "name": "renounceOwnership",
      "outputs": [],
      "stateMutability": "nonpayable",
      "type": "function"
    },
    {
      "inputs": [
        {
          "internalType": "address",
          "name": "newAclAdmin",
          "type": "address"
        }
      ],
      "name": "setACLAdmin",
      "outputs": [],
      "stateMutability": "nonpayable",
      "type": "function"
    },
    {
      "inputs": [
        {
          "internalType": "address",
          "name": "newAclManager",
          "type": "address"
        }
      ],
      "name": "setACLManager",
      "outputs": [],
      "stateMutability": "nonpayable",
      "type": "function"
    },
    {
      "inputs": [
        {
          "internalType": "bytes32",
          "name": "id",
          "type": "bytes32"
        },
        {
          "internalType": "address",
          "name": "newAddress",
          "type": "address"
        }
      ],
      "name": "setAddress",
      "outputs": [],
      "stateMutability": "nonpayable",
      "type": "function"
    },
    {
      "inputs": [
        {
          "internalType": "bytes32",
          "name": "id",
          "type": "bytes32"
        },
        {
          "internalType": "address",
          "name": "newImplementationAddress",
          "type": "address"
        }
      ],
      "name": "setAddressAsProxy",
      "outputs": [],
      "stateMutability": "nonpayable",
      "type": "function"
    },
    {
      "inputs": [
        {
          "internalType": "string",
          "name": "newMarketId",
          "type": "string"
        }
      ],
      "name": "setMarketId",
      "outputs": [],
      "stateMutability": "nonpayable",
      "type": "function"
    },
    {
      "inputs": [
        {
          "internalType": "address",
          "name": "newPoolConfiguratorImpl",
          "type": "address"
        }
      ],
      "name": "setPoolConfiguratorImpl",
      "outputs": [],
      "stateMutability": "nonpayable",
      "type": "function"
    },
    {
      "inputs": [
        {
          "internalType": "address",
          "name": "newDataProvider",
          "type": "address"
        }
      ],
      "name": "setPoolDataProvider",
      "outputs": [],
      "stateMutability": "nonpayable",
      "type": "function"
    },
    {
      "inputs": [
        {
          "internalType": "address",
          "name": "newPoolImpl",
          "type": "address"
        }
      ],
      "name": "setPoolImpl",
      "outputs": [],
      "stateMutability": "nonpayable",
      "type": "function"
    },
    {
      "inputs": [
        {
          "internalType": "address",
          "name": "newPriceOracle",
          "type": "address"
        }
      ],
      "name": "setPriceOracle",
      "outputs": [],
      "stateMutability": "nonpayable",
      "type": "function"
    },
    {
      "inputs": [
        {
          "internalType": "address",
          "name": "newPriceOracleSentinel",
          "type": "address"
        }
      ],
      "name": "setPriceOracleSentinel",
      "outputs": [],
      "stateMutability": "nonpayable",
      "type": "function"
    },
    {
      "inputs": [
        {
          "internalType": "address",
          "name": "newOwner",
          "type": "address"
        }
      ],
      "name": "transferOwnership",
      "outputs": [],
      "stateMutability": "nonpayable",
      "type": "function"
    }
  ],
  "bytecode": "0x60806040523480156200001157600080fd5b5060405162003c3438038062003c348339818101604052810190620000379190620006ab565b6000620000496200011160201b60201c565b9050806000806101000a81548173ffffffffffffffffffffffffffffffffffffffff021916908373ffffffffffffffffffffffffffffffffffffffff1602179055508073ffffffffffffffffffffffffffffffffffffffff16600073ffffffffffffffffffffffffffffffffffffffff167f8be0079c531659141344cd1fd0a4f28419497f9722a3daafe3b4186f6b6457e060405160405180910390a350620000f8826200011960201b60201c565b62000109816200022960201b60201c565b5050620008f7565b600033905090565b6000600180546200012a9062000740565b80601f0160208091040260200160405190810160405280929190818152602001828054620001589062000740565b8015620001a95780601f106200017d57610100808354040283529160200191620001a9565b820191906000526020600020905b8154815290600101906020018083116200018b57829003601f168201915b505050505090508160019080519060200190620001c8929190620003f9565b5081604051620001d99190620007c3565b604051809103902081604051620001f19190620007c3565b60405180910390207fe685c8cdecc6030c45030fd54778812cb84ed8e4467c38294403d68ba786082360405160405180910390a35050565b620002396200011160201b60201c565b73ffffffffffffffffffffffffffffffffffffffff1660008054906101000a900473ffffffffffffffffffffffffffffffffffffffff1673ffffffffffffffffffffffffffffffffffffffff1614620002c9576040517f08c379a0000000000000000000000000000000000000000000000000000000008152600401620002c0906200083d565b60405180910390fd5b600073ffffffffffffffffffffffffffffffffffffffff168173ffffffffffffffffffffffffffffffffffffffff1614156200033c576040517f08c379a00000000000000000000000000000000000000000000000000000000081526004016200033390620008d5565b60405180910390fd5b8073ffffffffffffffffffffffffffffffffffffffff1660008054906101000a900473ffffffffffffffffffffffffffffffffffffffff1673ffffffffffffffffffffffffffffffffffffffff167f8be0079c531659141344cd1fd0a4f28419497f9722a3daafe3b4186f6b6457e060405160405180910390a3806000806101000a81548173ffffffffffffffffffffffffffffffffffffffff021916908373ffffffffffffffffffffffffffffffffffffffff16021790555050565b828054620004079062000740565b90600052602060002090601f0160209004810192826200042b576000855562000477565b82601f106200044657805160ff191683800117855562000477565b8280016001018555821562000477579182015b828111156200047657825182559160200191906001019062000459565b5b5090506200048691906200048a565b5090565b5b80821115620004a55760008160009055506001016200048b565b5090565b6000604051905090565b600080fd5b600080fd5b600080fd5b600080fd5b6000601f19601f8301169050919050565b7f4e487b7100000000000000000000000000000000000000000000000000000000600052604160045260246000fd5b6200051282620004c7565b810181811067ffffffffffffffff82111715620005345762000533620004d8565b5b80604052505050565b600062000549620004a9565b905062000557828262000507565b919050565b600067ffffffffffffffff8211156200057a5762000579620004d8565b5b6200058582620004c7565b9050602081019050919050565b60005b83811015620005b257808201518184015260208101905062000595565b83811115620005c2576000848401525b50505050565b6000620005df620005d9846200055c565b6200053d565b905082815260208101848484011115620005fe57620005fd620004c2565b5b6200060b84828562000592565b509392505050565b600082601f8301126200062b576200062a620004bd565b5b81516200063d848260208601620005c8565b91505092915050565b600073ffffffffffffffffffffffffffffffffffffffff82169050919050565b6000620006738262000646565b9050919050565b620006858162000666565b81146200069157600080fd5b50565b600081519050620006a5816200067a565b92915050565b60008060408385031215620006c557620006c4620004b3565b5b600083015167ffffffffffffffff811115620006e657620006e5620004b8565b5b620006f48582860162000613565b9250506020620007078582860162000694565b9150509250929050565b7f4e487b7100000000000000000000000000000000000000000000000000000000600052602260045260246000fd5b600060028204905060018216806200075957607f821691505b6020821081141562000770576200076f62000711565b5b50919050565b600081519050919050565b600081905092915050565b6000620007998262000776565b620007a5818562000781565b9350620007b781856020860162000592565b80840191505092915050565b6000620007d182846200078c565b915081905092915050565b600082825260208201905092915050565b7f4f776e61626c653a2063616c6c6572206973206e6f7420746865206f776e6572600082015250565b600062000825602083620007dc565b91506200083282620007ed565b602082019050919050565b60006020820190508181036000830152620008588162000816565b9050919050565b7f4f776e61626c653a206e6577206f776e657220697320746865207a65726f206160008201527f6464726573730000000000000000000000000000000000000000000000000000602082015250565b6000620008bd602683620007dc565b9150620008ca826200085f565b604082019050919050565b60006020820190508181036000830152620008f081620008ae565b9050919050565b61332d80620009076000396000f3fe60806040523480156200001157600080fd5b5060043610620001605760003560e01c806376d84ffc11620000c9578063e4ca28b71162000087578063e4ca28b71462000375578063e860accb1462000395578063ed301ca914620003b7578063f2fde38b14620003d7578063f67b184714620003f7578063fca513a814620004175762000160565b806376d84ffc14620002d35780638da5cb5b14620002f3578063a15644061462000315578063ca446dd91462000335578063e44e9ed114620003555762000160565b80635dcc528c11620001235780635dcc528c14620002215780635eb88d3d1462000241578063631adfca1462000263578063707cd7161462000285578063715018a614620002a757806374944cec14620002b35762000160565b8063026b1d5f14620001655780630e67178c146200018757806321f8a72114620001a9578063530e784f14620001df578063568ef47014620001ff575b600080fd5b6200016f62000439565b6040516200017e919062001ea9565b60405180910390f35b620001916200046b565b604051620001a0919062001ea9565b60405180910390f35b620001c76004803603810190620001c1919062001f15565b6200049d565b604051620001d6919062001ea9565b60405180910390f35b620001fd6004803603810190620001f7919062001f78565b620004da565b005b620002096200069c565b6040516200021891906200204e565b60405180910390f35b6200023f600480360381019062000239919062002072565b62000736565b005b6200024b62000891565b6040516200025a919062001ea9565b60405180910390f35b6200026d620008c3565b6040516200027c919062001ea9565b60405180910390f35b6200028f620008f5565b6040516200029e919062001ea9565b60405180910390f35b620002b162000927565b005b620002d16004803603810190620002cb919062001f78565b62000a7f565b005b620002f16004803603810190620002eb919062001f78565b62000c41565b005b620002fd62000e03565b6040516200030c919062001ea9565b60405180910390f35b6200033360048036038101906200032d919062001f78565b62000e2c565b005b6200035360048036038101906200034d919062002072565b62000f7f565b005b6200037360048036038101906200036d919062001f78565b62001103565b005b6200039360048036038101906200038d919062001f78565b620012c5565b005b6200039f62001418565b604051620003ae919062001ea9565b60405180910390f35b620003d56004803603810190620003cf919062001f78565b6200144a565b005b620003f56004803603810190620003ef919062001f78565b6200160c565b005b6200041560048036038101906200040f91906200220a565b620017d6565b005b620004216200187e565b60405162000430919062001ea9565b60405180910390f35b6000620004667f504f4f4c000000000000000000000000000000000000000000000000000000006200049d565b905090565b6000620004987f41434c5f41444d494e00000000000000000000000000000000000000000000006200049d565b905090565b60006002600083815260200190815260200160002060009054906101000a900473ffffffffffffffffffffffffffffffffffffffff169050919050565b620004e4620018b0565b73ffffffffffffffffffffffffffffffffffffffff1660008054906101000a900473ffffffffffffffffffffffffffffffffffffffff1673ffffffffffffffffffffffffffffffffffffffff161462000574576040517f08c379a00000000000000000000000000000000000000000000000000000000081526004016200056b90620022ab565b60405180910390fd5b6000600260007f50524943455f4f5241434c450000000000000000000000000000000000000000815260200190815260200160002060009054906101000a900473ffffffffffffffffffffffffffffffffffffffff16905081600260007f50524943455f4f5241434c450000000000000000000000000000000000000000815260200190815260200160002060006101000a81548173ffffffffffffffffffffffffffffffffffffffff021916908373ffffffffffffffffffffffffffffffffffffffff1602179055508173ffffffffffffffffffffffffffffffffffffffff168173ffffffffffffffffffffffffffffffffffffffff167f56b5f80d8cac1479698aa7d01605fd6111e90b15fc4d2b377417f46034876cbd60405160405180910390a35050565b606060018054620006ad90620022fc565b80601f0160208091040260200160405190810160405280929190818152602001828054620006db90620022fc565b80156200072c5780601f1062000700576101008083540402835291602001916200072c565b820191906000526020600020905b8154815290600101906020018083116200070e57829003601f168201915b5050505050905090565b62000740620018b0565b73ffffffffffffffffffffffffffffffffffffffff1660008054906101000a900473ffffffffffffffffffffffffffffffffffffffff1673ffffffffffffffffffffffffffffffffffffffff1614620007d0576040517f08c379a0000000000000000000000000000000000000000000000000000000008152600401620007c790620022ab565b60405180910390fd5b60006002600084815260200190815260200160002060009054906101000a900473ffffffffffffffffffffffffffffffffffffffff16905060006200081584620018b8565b9050620008238484620019b5565b8273ffffffffffffffffffffffffffffffffffffffff168273ffffffffffffffffffffffffffffffffffffffff16857f3bbd45b5429b385e3fb37ad5cd1cd1435a3c8ec32196c7937597365a3fd3e99c8460405162000883919062001ea9565b60405180910390a450505050565b6000620008be7f50524943455f4f5241434c455f53454e54494e454c00000000000000000000006200049d565b905090565b6000620008f07f504f4f4c5f434f4e464947555241544f520000000000000000000000000000006200049d565b905090565b6000620009227f41434c5f4d414e414745520000000000000000000000000000000000000000006200049d565b905090565b62000931620018b0565b73ffffffffffffffffffffffffffffffffffffffff1660008054906101000a900473ffffffffffffffffffffffffffffffffffffffff1673ffffffffffffffffffffffffffffffffffffffff1614620009c1576040517f08c379a0000000000000000000000000000000000000000000000000000000008152600401620009b890620022ab565b60405180910390fd5b600073ffffffffffffffffffffffffffffffffffffffff1660008054906101000a900473ffffffffffffffffffffffffffffffffffffffff1673ffffffffffffffffffffffffffffffffffffffff167f8be0079c531659141344cd1fd0a4f28419497f9722a3daafe3b4186f6b6457e060405160405180910390a360008060006101000a81548173ffffffffffffffffffffffffffffffffffffffff021916908373ffffffffffffffffffffffffffffffffffffffff160217905550565b62000a89620018b0565b73ffffffffffffffffffffffffffffffffffffffff1660008054906101000a900473ffffffffffffffffffffffffffffffffffffffff1673ffffffffffffffffffffffffffffffffffffffff161462000b19576040517f08c379a000000000000000000000000000000000000000000000000000000000815260040162000b1090620022ab565b60405180910390fd5b6000600260007f50524943455f4f5241434c455f53454e54494e454c0000000000000000000000815260200190815260200160002060009054906101000a900473ffffffffffffffffffffffffffffffffffffffff16905081600260007f50524943455f4f5241434c455f53454e54494e454c0000000000000000000000815260200190815260200160002060006101000a81548173ffffffffffffffffffffffffffffffffffffffff021916908373ffffffffffffffffffffffffffffffffffffffff1602179055508173ffffffffffffffffffffffffffffffffffffffff168173ffffffffffffffffffffffffffffffffffffffff167f5326514eeca90494a14bedabcff812a0e683029ee85d1e23824d44fd14cd6ae760405160405180910390a35050565b62000c4b620018b0565b73ffffffffffffffffffffffffffffffffffffffff1660008054906101000a900473ffffffffffffffffffffffffffffffffffffffff1673ffffffffffffffffffffffffffffffffffffffff161462000cdb576040517f08c379a000000000000000000000000000000000000000000000000000000000815260040162000cd290620022ab565b60405180910390fd5b6000600260007f41434c5f41444d494e0000000000000000000000000000000000000000000000815260200190815260200160002060009054906101000a900473ffffffffffffffffffffffffffffffffffffffff16905081600260007f41434c5f41444d494e0000000000000000000000000000000000000000000000815260200190815260200160002060006101000a81548173ffffffffffffffffffffffffffffffffffffffff021916908373ffffffffffffffffffffffffffffffffffffffff1602179055508173ffffffffffffffffffffffffffffffffffffffff168173ffffffffffffffffffffffffffffffffffffffff167fe9cf53972264dc95304fd424458745019ddfca0e37ae8f703d74772c41ad115b60405160405180910390a35050565b60008060009054906101000a900473ffffffffffffffffffffffffffffffffffffffff16905090565b62000e36620018b0565b73ffffffffffffffffffffffffffffffffffffffff1660008054906101000a900473ffffffffffffffffffffffffffffffffffffffff1673ffffffffffffffffffffffffffffffffffffffff161462000ec6576040517f08c379a000000000000000000000000000000000000000000000000000000000815260040162000ebd90620022ab565b60405180910390fd5b600062000ef37f504f4f4c00000000000000000000000000000000000000000000000000000000620018b8565b905062000f217f504f4f4c0000000000000000000000000000000000000000000000000000000083620019b5565b8173ffffffffffffffffffffffffffffffffffffffff168173ffffffffffffffffffffffffffffffffffffffff167f90affc163f1a2dfedcd36aa02ed992eeeba8100a4014f0b4cdc20ea265a6662760405160405180910390a35050565b62000f89620018b0565b73ffffffffffffffffffffffffffffffffffffffff1660008054906101000a900473ffffffffffffffffffffffffffffffffffffffff1673ffffffffffffffffffffffffffffffffffffffff161462001019576040517f08c379a00000000000000000000000000000000000000000000000000000000081526004016200101090620022ab565b60405180910390fd5b60006002600084815260200190815260200160002060009054906101000a900473ffffffffffffffffffffffffffffffffffffffff169050816002600085815260200190815260200160002060006101000a81548173ffffffffffffffffffffffffffffffffffffffff021916908373ffffffffffffffffffffffffffffffffffffffff1602179055508173ffffffffffffffffffffffffffffffffffffffff168173ffffffffffffffffffffffffffffffffffffffff16847f9ef0e8c8e52743bb38b83b17d9429141d494b8041ca6d616a6c77cebae9cd8b760405160405180910390a4505050565b6200110d620018b0565b73ffffffffffffffffffffffffffffffffffffffff1660008054906101000a900473ffffffffffffffffffffffffffffffffffffffff1673ffffffffffffffffffffffffffffffffffffffff16146200119d576040517f08c379a00000000000000000000000000000000000000000000000000000000081526004016200119490620022ab565b60405180910390fd5b6000600260007f444154415f50524f564944455200000000000000000000000000000000000000815260200190815260200160002060009054906101000a900473ffffffffffffffffffffffffffffffffffffffff16905081600260007f444154415f50524f564944455200000000000000000000000000000000000000815260200190815260200160002060006101000a81548173ffffffffffffffffffffffffffffffffffffffff021916908373ffffffffffffffffffffffffffffffffffffffff1602179055508173ffffffffffffffffffffffffffffffffffffffff168173ffffffffffffffffffffffffffffffffffffffff167fc853974cfbf81487a14a23565917bee63f527853bcb5fa54f2ae1cdf8a38356d60405160405180910390a35050565b620012cf620018b0565b73ffffffffffffffffffffffffffffffffffffffff1660008054906101000a900473ffffffffffffffffffffffffffffffffffffffff1673ffffffffffffffffffffffffffffffffffffffff16146200135f576040517f08c379a00000000000000000000000000000000000000000000000000000000081526004016200135690620022ab565b60405180910390fd5b60006200138c7f504f4f4c5f434f4e464947555241544f52000000000000000000000000000000620018b8565b9050620013ba7f504f4f4c5f434f4e464947555241544f5200000000000000000000000000000083620019b5565b8173ffffffffffffffffffffffffffffffffffffffff168173ffffffffffffffffffffffffffffffffffffffff167f8932892569eba59c8382a089d9b732d1f49272878775235761a2a6b0309cd46560405160405180910390a35050565b6000620014457f444154415f50524f5649444552000000000000000000000000000000000000006200049d565b905090565b62001454620018b0565b73ffffffffffffffffffffffffffffffffffffffff1660008054906101000a900473ffffffffffffffffffffffffffffffffffffffff1673ffffffffffffffffffffffffffffffffffffffff1614620014e4576040517f08c379a0000000000000000000000000000000000000000000000000000000008152600401620014db90620022ab565b60405180910390fd5b6000600260007f41434c5f4d414e41474552000000000000000000000000000000000000000000815260200190815260200160002060009054906101000a900473ffffffffffffffffffffffffffffffffffffffff16905081600260007f41434c5f4d414e41474552000000000000000000000000000000000000000000815260200190815260200160002060006101000a81548173ffffffffffffffffffffffffffffffffffffffff021916908373ffffffffffffffffffffffffffffffffffffffff1602179055508173ffffffffffffffffffffffffffffffffffffffff168173ffffffffffffffffffffffffffffffffffffffff167fb30efa04327bb8a537d61cc1e5c48095345ad18ef7cc04e6bacf7dfb6caaf50760405160405180910390a35050565b62001616620018b0565b73ffffffffffffffffffffffffffffffffffffffff1660008054906101000a900473ffffffffffffffffffffffffffffffffffffffff1673ffffffffffffffffffffffffffffffffffffffff1614620016a6576040517f08c379a00000000000000000000000000000000000000000000000000000000081526004016200169d90620022ab565b60405180910390fd5b600073ffffffffffffffffffffffffffffffffffffffff168173ffffffffffffffffffffffffffffffffffffffff16141562001719576040517f08c379a00000000000000000000000000000000000000000000000000000000081526004016200171090620023a8565b60405180910390fd5b8073ffffffffffffffffffffffffffffffffffffffff1660008054906101000a900473ffffffffffffffffffffffffffffffffffffffff1673ffffffffffffffffffffffffffffffffffffffff167f8be0079c531659141344cd1fd0a4f28419497f9722a3daafe3b4186f6b6457e060405160405180910390a3806000806101000a81548173ffffffffffffffffffffffffffffffffffffffff021916908373ffffffffffffffffffffffffffffffffffffffff16021790555050565b620017e0620018b0565b73ffffffffffffffffffffffffffffffffffffffff1660008054906101000a900473ffffffffffffffffffffffffffffffffffffffff1673ffffffffffffffffffffffffffffffffffffffff161462001870576040517f08c379a00000000000000000000000000000000000000000000000000000000081526004016200186790620022ab565b60405180910390fd5b6200187b8162001c96565b50565b6000620018ab7f50524943455f4f5241434c4500000000000000000000000000000000000000006200049d565b905090565b600033905090565b6000806002600084815260200190815260200160002060009054906101000a900473ffffffffffffffffffffffffffffffffffffffff169050600073ffffffffffffffffffffffffffffffffffffffff168173ffffffffffffffffffffffffffffffffffffffff16141562001932576000915050620019b0565b60008190508073ffffffffffffffffffffffffffffffffffffffff16635c60da1b6040518163ffffffff1660e01b81526004016020604051808303816000875af115801562001985573d6000803e3d6000fd5b505050506040513d601f19601f82011682018060405250810190620019ab9190620023e1565b925050505b919050565b60006002600084815260200190815260200160002060009054906101000a900473ffffffffffffffffffffffffffffffffffffffff1690506000803060405160240162001a03919062001ea9565b6040516020818303038152906040527fc4d66de8000000000000000000000000000000000000000000000000000000007bffffffffffffffffffffffffffffffffffffffffffffffffffffffff19166020820180517bffffffffffffffffffffffffffffffffffffffffffffffffffffffff83818316178352505050509050600073ffffffffffffffffffffffffffffffffffffffff168373ffffffffffffffffffffffffffffffffffffffff16141562001c1a573060405162001ac79062001da6565b62001ad3919062001ea9565b604051809103906000f08015801562001af0573d6000803e3d6000fd5b509150819250826002600087815260200190815260200160002060006101000a81548173ffffffffffffffffffffffffffffffffffffffff021916908373ffffffffffffffffffffffffffffffffffffffff1602179055508173ffffffffffffffffffffffffffffffffffffffff1663d1f5789485836040518363ffffffff1660e01b815260040162001b8592919062002470565b600060405180830381600087803b15801562001ba057600080fd5b505af115801562001bb5573d6000803e3d6000fd5b505050508373ffffffffffffffffffffffffffffffffffffffff168373ffffffffffffffffffffffffffffffffffffffff16867f4a465a9bd819d9662563c1e11ae958f8109e437e7f4bf1c6ef0b9a7b3f35d47860405160405180910390a462001c8f565b8291508173ffffffffffffffffffffffffffffffffffffffff16634f1ef28685836040518363ffffffff1660e01b815260040162001c5a92919062002470565b600060405180830381600087803b15801562001c7557600080fd5b505af115801562001c8a573d6000803e3d6000fd5b505050505b5050505050565b60006001805462001ca790620022fc565b80601f016020809104026020016040519081016040528092919081815260200182805462001cd590620022fc565b801562001d265780601f1062001cfa5761010080835404028352916020019162001d26565b820191906000526020600020905b81548152906001019060200180831162001d0857829003601f168201915b50505050509050816001908051906020019062001d4592919062001db4565b508160405162001d569190620024e6565b60405180910390208160405162001d6e9190620024e6565b60405180910390207fe685c8cdecc6030c45030fd54778812cb84ed8e4467c38294403d68ba786082360405160405180910390a35050565b610df8806200250083390190565b82805462001dc290620022fc565b90600052602060002090601f01602090048101928262001de6576000855562001e32565b82601f1062001e0157805160ff191683800117855562001e32565b8280016001018555821562001e32579182015b8281111562001e3157825182559160200191906001019062001e14565b5b50905062001e41919062001e45565b5090565b5b8082111562001e6057600081600090555060010162001e46565b5090565b600073ffffffffffffffffffffffffffffffffffffffff82169050919050565b600062001e918262001e64565b9050919050565b62001ea38162001e84565b82525050565b600060208201905062001ec0600083018462001e98565b92915050565b6000604051905090565b600080fd5b600080fd5b6000819050919050565b62001eef8162001eda565b811462001efb57600080fd5b50565b60008135905062001f0f8162001ee4565b92915050565b60006020828403121562001f2e5762001f2d62001ed0565b5b600062001f3e8482850162001efe565b91505092915050565b62001f528162001e84565b811462001f5e57600080fd5b50565b60008135905062001f728162001f47565b92915050565b60006020828403121562001f915762001f9062001ed0565b5b600062001fa18482850162001f61565b91505092915050565b600081519050919050565b600082825260208201905092915050565b60005b8381101562001fe657808201518184015260208101905062001fc9565b8381111562001ff6576000848401525b50505050565b6000601f19601f8301169050919050565b60006200201a8262001faa565b62002026818562001fb5565b93506200203881856020860162001fc6565b620020438162001ffc565b840191505092915050565b600060208201905081810360008301526200206a81846200200d565b905092915050565b600080604083850312156200208c576200208b62001ed0565b5b60006200209c8582860162001efe565b9250506020620020af8582860162001f61565b9150509250929050565b600080fd5b600080fd5b7f4e487b7100000000000000000000000000000000000000000000000000000000600052604160045260246000fd5b620020fd8262001ffc565b810181811067ffffffffffffffff821117156200211f576200211e620020c3565b5b80604052505050565b60006200213462001ec6565b9050620021428282620020f2565b919050565b600067ffffffffffffffff821115620021655762002164620020c3565b5b620021708262001ffc565b9050602081019050919050565b82818337600083830152505050565b6000620021a36200219d8462002147565b62002128565b905082815260208101848484011115620021c257620021c1620020be565b5b620021cf8482856200217d565b509392505050565b600082601f830112620021ef57620021ee620020b9565b5b8135620022018482602086016200218c565b91505092915050565b60006020828403121562002223576200222262001ed0565b5b600082013567ffffffffffffffff81111562002244576200224362001ed5565b5b6200225284828501620021d7565b91505092915050565b7f4f776e61626c653a2063616c6c6572206973206e6f7420746865206f776e6572600082015250565b60006200229360208362001fb5565b9150620022a0826200225b565b602082019050919050565b60006020820190508181036000830152620022c68162002284565b9050919050565b7f4e487b7100000000000000000000000000000000000000000000000000000000600052602260045260246000fd5b600060028204905060018216806200231557607f821691505b602082108114156200232c576200232b620022cd565b5b50919050565b7f4f776e61626c653a206e6577206f776e657220697320746865207a65726f206160008201527f6464726573730000000000000000000000000000000000000000000000000000602082015250565b60006200239060268362001fb5565b91506200239d8262002332565b604082019050919050565b60006020820190508181036000830152620023c38162002381565b9050919050565b600081519050620023db8162001f47565b92915050565b600060208284031215620023fa57620023f962001ed0565b5b60006200240a84828501620023ca565b91505092915050565b600081519050919050565b600082825260208201905092915050565b60006200243c8262002413565b6200244881856200241e565b93506200245a81856020860162001fc6565b620024658162001ffc565b840191505092915050565b600060408201905062002487600083018562001e98565b81810360208301526200249b81846200242f565b90509392505050565b600081905092915050565b6000620024bc8262001faa565b620024c88185620024a4565b9350620024da81856020860162001fc6565b80840191505092915050565b6000620024f48284620024af565b91508190509291505056fe60a060405234801561001057600080fd5b50604051610df8380380610df8833981810160405281019061003291906100d1565b808073ffffffffffffffffffffffffffffffffffffffff1660808173ffffffffffffffffffffffffffffffffffffffff168152505050506100fe565b600080fd5b600073ffffffffffffffffffffffffffffffffffffffff82169050919050565b600061009e82610073565b9050919050565b6100ae81610093565b81146100b957600080fd5b50565b6000815190506100cb816100a5565b92915050565b6000602082840312156100e7576100e661006e565b5b60006100f5848285016100bc565b91505092915050565b608051610cbc61013c6000396000818161012c0152818161019a01528181610284015281816104280152818161047c01526105d70152610cbc6000f3fe60806040526004361061004e5760003560e01c80633659cfe6146100595780634f1ef286146100825780635c60da1b1461009e578063d1f57894146100c9578063f851a440146100e55761004f565b5b610057610110565b005b34801561006557600080fd5b50610080600480360381019061007b919061072d565b61012a565b005b61009c600480360381019061009791906107bf565b610198565b005b3480156100aa57600080fd5b506100b3610280565b6040516100c0919061082e565b60405180910390f35b6100e360048036038101906100de919061098a565b6102f1565b005b3480156100f157600080fd5b506100fa610424565b604051610107919061082e565b60405180910390f35b6101186104ae565b6101286101236104b8565b6104e9565b565b7f000000000000000000000000000000000000000000000000000000000000000073ffffffffffffffffffffffffffffffffffffffff163373ffffffffffffffffffffffffffffffffffffffff16141561018c576101878161050f565b610195565b610194610110565b5b50565b7f000000000000000000000000000000000000000000000000000000000000000073ffffffffffffffffffffffffffffffffffffffff163373ffffffffffffffffffffffffffffffffffffffff161415610272576101f58361050f565b60008373ffffffffffffffffffffffffffffffffffffffff16838360405161021e929190610a16565b600060405180830381855af49150503d8060008114610259576040519150601f19603f3d011682016040523d82523d6000602084013e61025e565b606091505b505090508061026c57600080fd5b5061027b565b61027a610110565b5b505050565b60007f000000000000000000000000000000000000000000000000000000000000000073ffffffffffffffffffffffffffffffffffffffff163373ffffffffffffffffffffffffffffffffffffffff1614156102e5576102de6104b8565b90506102ee565b6102ed610110565b5b90565b600073ffffffffffffffffffffffffffffffffffffffff166103116104b8565b73ffffffffffffffffffffffffffffffffffffffff161461033157600080fd5b60017f360894a13ba1a3210667c828492db98dca3e2076cc3735a920a3ca505d382bbd60001c6103619190610a68565b60001b7f360894a13ba1a3210667c828492db98dca3e2076cc3735a920a3ca505d382bbc60001b1461039657610395610a9c565b5b61039f8261055e565b6000815111156104205760008273ffffffffffffffffffffffffffffffffffffffff16826040516103d09190610b3a565b600060405180830381855af49150503d806000811461040b576040519150601f19603f3d011682016040523d82523d6000602084013e610410565b606091505b505090508061041e57600080fd5b505b5050565b60007f000000000000000000000000000000000000000000000000000000000000000073ffffffffffffffffffffffffffffffffffffffff163373ffffffffffffffffffffffffffffffffffffffff1614156104a2577f000000000000000000000000000000000000000000000000000000000000000090506104ab565b6104aa610110565b5b90565b6104b66105d5565b565b6000807f360894a13ba1a3210667c828492db98dca3e2076cc3735a920a3ca505d382bbc60001b9050805491505090565b3660008037600080366000845af43d6000803e806000811461050a573d6000f35b3d6000fd5b6105188161055e565b8073ffffffffffffffffffffffffffffffffffffffff167fbc7cd75a20ee27fd9adebab32041f755214dbc6bffa90cc0225b39da2e5c2d3b60405160405180910390a250565b6105678161066e565b6105a6576040517f08c379a000000000000000000000000000000000000000000000000000000000815260040161059d90610bd4565b60405180910390fd5b60007f360894a13ba1a3210667c828492db98dca3e2076cc3735a920a3ca505d382bbc60001b90508181555050565b7f000000000000000000000000000000000000000000000000000000000000000073ffffffffffffffffffffffffffffffffffffffff163373ffffffffffffffffffffffffffffffffffffffff161415610664576040517f08c379a000000000000000000000000000000000000000000000000000000000815260040161065b90610c66565b60405180910390fd5b61066c6106b9565b565b60008060007fc5d2460186f7233c927e7db2dcc703c0e500b653ca82273b7bfad8045d85a47060001b9050833f91508082141580156106b057506000801b8214155b92505050919050565b565b6000604051905090565b600080fd5b600080fd5b600073ffffffffffffffffffffffffffffffffffffffff82169050919050565b60006106fa826106cf565b9050919050565b61070a816106ef565b811461071557600080fd5b50565b60008135905061072781610701565b92915050565b600060208284031215610743576107426106c5565b5b600061075184828501610718565b91505092915050565b600080fd5b600080fd5b600080fd5b60008083601f84011261077f5761077e61075a565b5b8235905067ffffffffffffffff81111561079c5761079b61075f565b5b6020830191508360018202830111156107b8576107b7610764565b5b9250929050565b6000806000604084860312156107d8576107d76106c5565b5b60006107e686828701610718565b935050602084013567ffffffffffffffff811115610807576108066106ca565b5b61081386828701610769565b92509250509250925092565b610828816106ef565b82525050565b6000602082019050610843600083018461081f565b92915050565b600080fd5b6000601f19601f8301169050919050565b7f4e487b7100000000000000000000000000000000000000000000000000000000600052604160045260246000fd5b6108978261084e565b810181811067ffffffffffffffff821117156108b6576108b561085f565b5b80604052505050565b60006108c96106bb565b90506108d5828261088e565b919050565b600067ffffffffffffffff8211156108f5576108f461085f565b5b6108fe8261084e565b9050602081019050919050565b82818337600083830152505050565b600061092d610928846108da565b6108bf565b90508281526020810184848401111561094957610948610849565b5b61095484828561090b565b509392505050565b600082601f8301126109715761097061075a565b5b813561098184826020860161091a565b91505092915050565b600080604083850312156109a1576109a06106c5565b5b60006109af85828601610718565b925050602083013567ffffffffffffffff8111156109d0576109cf6106ca565b5b6109dc8582860161095c565b9150509250929050565b600081905092915050565b60006109fd83856109e6565b9350610a0a83858461090b565b82840190509392505050565b6000610a238284866109f1565b91508190509392505050565b6000819050919050565b7f4e487b7100000000000000000000000000000000000000000000000000000000600052601160045260246000fd5b6000610a7382610a2f565b9150610a7e83610a2f565b925082821015610a9157610a90610a39565b5b828203905092915050565b7f4e487b7100000000000000000000000000000000000000000000000000000000600052600160045260246000fd5b600081519050919050565b60005b83811015610af4578082015181840152602081019050610ad9565b83811115610b03576000848401525b50505050565b6000610b1482610acb565b610b1e81856109e6565b9350610b2e818560208601610ad6565b80840191505092915050565b6000610b468284610b09565b915081905092915050565b600082825260208201905092915050565b7f43616e6e6f742073657420612070726f787920696d706c656d656e746174696f60008201527f6e20746f2061206e6f6e2d636f6e747261637420616464726573730000000000602082015250565b6000610bbe603b83610b51565b9150610bc982610b62565b604082019050919050565b60006020820190508181036000830152610bed81610bb1565b9050919050565b7f43616e6e6f742063616c6c2066616c6c6261636b2066756e6374696f6e20667260008201527f6f6d207468652070726f78792061646d696e0000000000000000000000000000602082015250565b6000610c50603283610b51565b9150610c5b82610bf4565b604082019050919050565b60006020820190508181036000830152610c7f81610c43565b905091905056fea2646970667358221220a834372c5872c58eb475a5909f3d781ce3b9dbf37acd9a143d38be75abcff15c64736f6c634300080a0033a26469706673582212209e9fa39c2b1ccd2e8d7817779fb09cebcdc9b8ecc864745b474ea685f8fb300264736f6c634300080a0033",
  "linkReferences": {},
  "deployedLinkReferences": {}
}