{
  "_format": "hh-sol-artifact-1",
  "contractName": "AProxy",
  "sourceName": "contracts/AProxy.sol",
  "abi": [
    {
      "inputs": [
        {
          "internalType": "address",
          "name": "_trustedForwarder",
          "type": "address"
        }
      ],
      "stateMutability": "nonpayable",
      "type": "constructor"
    },
    {
      "anonymous": false,
      "inputs": [
        {
          "indexed": true,
          "internalType": "address",
          "name": "previousOwner",
          "type": "address"
        },
        {
          "indexed": true,
          "internalType": "address",
          "name": "newOwner",
          "type": "address"
        }
      ],
      "name": "OwnershipTransferred",
      "type": "event"
    },
    {
      "inputs": [],
      "name": "AAVE_LENDING_POOL_ADDRESS",
      "outputs": [
        {
          "internalType": "address",
          "name": "",
          "type": "address"
        }
      ],
      "stateMutability": "view",
      "type": "function"
    },
    {
      "inputs": [
        {
          "internalType": "address",
          "name": "asset",
          "type": "address"
        },
        {
          "internalType": "uint256",
          "name": "amount",
          "type": "uint256"
        },
        {
          "internalType": "uint16",
          "name": "referralCode",
          "type": "uint16"
        }
      ],
      "name": "depositToAave",
      "outputs": [],
      "stateMutability": "nonpayable",
      "type": "function"
    },
    {
      "inputs": [
        {
          "internalType": "address",
          "name": "forwarder",
          "type": "address"
        }
      ],
      "name": "isTrustedForwarder",
      "outputs": [
        {
          "internalType": "bool",
          "name": "",
          "type": "bool"
        }
      ],
      "stateMutability": "view",
      "type": "function"
    },
    {
      "inputs": [],
      "name": "lendingPool",
      "outputs": [
        {
          "internalType": "contract Pool",
          "name": "",
          "type": "address"
        }
      ],
      "stateMutability": "view",
      "type": "function"
    },
    {
      "inputs": [],
      "name": "owner",
      "outputs": [
        {
          "internalType": "address",
          "name": "",
          "type": "address"
        }
      ],
      "stateMutability": "view",
      "type": "function"
    },
    {
      "inputs": [],
      "name": "renounceOwnership",
      "outputs": [],
      "stateMutability": "nonpayable",
      "type": "function"
    },
    {
      "inputs": [
        {
          "internalType": "address",
          "name": "newOwner",
          "type": "address"
        }
      ],
      "name": "transferOwnership",
      "outputs": [],
      "stateMutability": "nonpayable",
      "type": "function"
    }
  ],
  "bytecode": "0x6080604052736c9fb0d5bd9429eb9cd96b85b81d872281771e6b600260006101000a81548173ffffffffffffffffffffffffffffffffffffffff021916908373ffffffffffffffffffffffffffffffffffffffff160217905550600260009054906101000a900473ffffffffffffffffffffffffffffffffffffffff16600360006101000a81548173ffffffffffffffffffffffffffffffffffffffff021916908373ffffffffffffffffffffffffffffffffffffffff160217905550348015620000c957600080fd5b506040516200125d3803806200125d8339818101604052810190620000ef91906200034f565b8062000110620001046200015960201b60201c565b6200017560201b60201c565b80600160006101000a81548173ffffffffffffffffffffffffffffffffffffffff021916908373ffffffffffffffffffffffffffffffffffffffff160217905550505062000381565b6000620001706200023960201b620006a11760201c565b905090565b60008060009054906101000a900473ffffffffffffffffffffffffffffffffffffffff169050816000806101000a81548173ffffffffffffffffffffffffffffffffffffffff021916908373ffffffffffffffffffffffffffffffffffffffff1602179055508173ffffffffffffffffffffffffffffffffffffffff168173ffffffffffffffffffffffffffffffffffffffff167f8be0079c531659141344cd1fd0a4f28419497f9722a3daafe3b4186f6b6457e060405160405180910390a35050565b60006200024c336200028360201b60201c565b156200026257601436033560601c90506200027f565b62000277620002dd60201b620006d31760201c565b905062000280565b5b90565b6000600160009054906101000a900473ffffffffffffffffffffffffffffffffffffffff1673ffffffffffffffffffffffffffffffffffffffff168273ffffffffffffffffffffffffffffffffffffffff16149050919050565b600033905090565b600080fd5b600073ffffffffffffffffffffffffffffffffffffffff82169050919050565b60006200031782620002ea565b9050919050565b62000329816200030a565b81146200033557600080fd5b50565b60008151905062000349816200031e565b92915050565b600060208284031215620003685762000367620002e5565b5b6000620003788482850162000338565b91505092915050565b610ecc80620003916000396000f3fe608060405234801561001057600080fd5b506004361061007d5760003560e01c8063878a01351161005b578063878a0135146100d85780638da5cb5b146100f6578063a59a997314610114578063f2fde38b146101325761007d565b80630b2ba8d514610082578063572b6c051461009e578063715018a6146100ce575b600080fd5b61009c60048036038101906100979190610890565b61014e565b005b6100b860048036038101906100b391906108e3565b610452565b6040516100c5919061092b565b60405180910390f35b6100d66104ac565b005b6100e0610534565b6040516100ed9190610955565b60405180910390f35b6100fe61055a565b60405161010b9190610955565b60405180910390f35b61011c610583565b60405161012991906109cf565b60405180910390f35b61014c600480360381019061014791906108e3565b6105a9565b005b6000600360009054906101000a900473ffffffffffffffffffffffffffffffffffffffff1673ffffffffffffffffffffffffffffffffffffffff1663d1946dbc6040518163ffffffff1660e01b8152600401600060405180830381865afa1580156101bd573d6000803e3d6000fd5b505050506040513d6000823e3d601f19601f820116820180604052508101906101e69190610b58565b90506000805b600183516101fa9190610bd0565b8161ffff161015610270578573ffffffffffffffffffffffffffffffffffffffff16838261ffff168151811061023357610232610c04565b5b602002602001015173ffffffffffffffffffffffffffffffffffffffff16141561025c57600191505b6001816102699190610c33565b90506101ec565b50600115158115151461028257600080fd5b60008590508073ffffffffffffffffffffffffffffffffffffffff166323b872dd6102ab6106db565b30886040518463ffffffff1660e01b81526004016102cb93929190610c7a565b6020604051808303816000875af11580156102ea573d6000803e3d6000fd5b505050506040513d601f19601f8201168201806040525081019061030e9190610cdd565b508073ffffffffffffffffffffffffffffffffffffffff1663095ea7b3600260009054906101000a900473ffffffffffffffffffffffffffffffffffffffff16876040518363ffffffff1660e01b815260040161036c929190610d0a565b6020604051808303816000875af115801561038b573d6000803e3d6000fd5b505050506040513d601f19601f820116820180604052508101906103af9190610cdd565b50600360009054906101000a900473ffffffffffffffffffffffffffffffffffffffff1673ffffffffffffffffffffffffffffffffffffffff1663617ba03787876103f86106db565b886040518563ffffffff1660e01b81526004016104189493929190610d42565b600060405180830381600087803b15801561043257600080fd5b505af1158015610446573d6000803e3d6000fd5b50505050505050505050565b6000600160009054906101000a900473ffffffffffffffffffffffffffffffffffffffff1673ffffffffffffffffffffffffffffffffffffffff168273ffffffffffffffffffffffffffffffffffffffff16149050919050565b6104b46106db565b73ffffffffffffffffffffffffffffffffffffffff166104d261055a565b73ffffffffffffffffffffffffffffffffffffffff1614610528576040517f08c379a000000000000000000000000000000000000000000000000000000000815260040161051f90610de4565b60405180910390fd5b61053260006106ea565b565b600260009054906101000a900473ffffffffffffffffffffffffffffffffffffffff1681565b60008060009054906101000a900473ffffffffffffffffffffffffffffffffffffffff16905090565b600360009054906101000a900473ffffffffffffffffffffffffffffffffffffffff1681565b6105b16106db565b73ffffffffffffffffffffffffffffffffffffffff166105cf61055a565b73ffffffffffffffffffffffffffffffffffffffff1614610625576040517f08c379a000000000000000000000000000000000000000000000000000000000815260040161061c90610de4565b60405180910390fd5b600073ffffffffffffffffffffffffffffffffffffffff168173ffffffffffffffffffffffffffffffffffffffff161415610695576040517f08c379a000000000000000000000000000000000000000000000000000000000815260040161068c90610e76565b60405180910390fd5b61069e816106ea565b50565b60006106ac33610452565b156106c057601436033560601c90506106cf565b6106c86106d3565b90506106d0565b5b90565b600033905090565b60006106e56106a1565b905090565b60008060009054906101000a900473ffffffffffffffffffffffffffffffffffffffff169050816000806101000a81548173ffffffffffffffffffffffffffffffffffffffff021916908373ffffffffffffffffffffffffffffffffffffffff1602179055508173ffffffffffffffffffffffffffffffffffffffff168173ffffffffffffffffffffffffffffffffffffffff167f8be0079c531659141344cd1fd0a4f28419497f9722a3daafe3b4186f6b6457e060405160405180910390a35050565b6000604051905090565b600080fd5b600080fd5b600073ffffffffffffffffffffffffffffffffffffffff82169050919050565b60006107ed826107c2565b9050919050565b6107fd816107e2565b811461080857600080fd5b50565b60008135905061081a816107f4565b92915050565b6000819050919050565b61083381610820565b811461083e57600080fd5b50565b6000813590506108508161082a565b92915050565b600061ffff82169050919050565b61086d81610856565b811461087857600080fd5b50565b60008135905061088a81610864565b92915050565b6000806000606084860312156108a9576108a86107b8565b5b60006108b78682870161080b565b93505060206108c886828701610841565b92505060406108d98682870161087b565b9150509250925092565b6000602082840312156108f9576108f86107b8565b5b60006109078482850161080b565b91505092915050565b60008115159050919050565b61092581610910565b82525050565b6000602082019050610940600083018461091c565b92915050565b61094f816107e2565b82525050565b600060208201905061096a6000830184610946565b92915050565b6000819050919050565b600061099561099061098b846107c2565b610970565b6107c2565b9050919050565b60006109a78261097a565b9050919050565b60006109b98261099c565b9050919050565b6109c9816109ae565b82525050565b60006020820190506109e460008301846109c0565b92915050565b600080fd5b6000601f19601f8301169050919050565b7f4e487b7100000000000000000000000000000000000000000000000000000000600052604160045260246000fd5b610a38826109ef565b810181811067ffffffffffffffff82111715610a5757610a56610a00565b5b80604052505050565b6000610a6a6107ae565b9050610a768282610a2f565b919050565b600067ffffffffffffffff821115610a9657610a95610a00565b5b602082029050602081019050919050565b600080fd5b600081519050610abb816107f4565b92915050565b6000610ad4610acf84610a7b565b610a60565b90508083825260208201905060208402830185811115610af757610af6610aa7565b5b835b81811015610b205780610b0c8882610aac565b845260208401935050602081019050610af9565b5050509392505050565b600082601f830112610b3f57610b3e6109ea565b5b8151610b4f848260208601610ac1565b91505092915050565b600060208284031215610b6e57610b6d6107b8565b5b600082015167ffffffffffffffff811115610b8c57610b8b6107bd565b5b610b9884828501610b2a565b91505092915050565b7f4e487b7100000000000000000000000000000000000000000000000000000000600052601160045260246000fd5b6000610bdb82610820565b9150610be683610820565b925082821015610bf957610bf8610ba1565b5b828203905092915050565b7f4e487b7100000000000000000000000000000000000000000000000000000000600052603260045260246000fd5b6000610c3e82610856565b9150610c4983610856565b92508261ffff03821115610c6057610c5f610ba1565b5b828201905092915050565b610c7481610820565b82525050565b6000606082019050610c8f6000830186610946565b610c9c6020830185610946565b610ca96040830184610c6b565b949350505050565b610cba81610910565b8114610cc557600080fd5b50565b600081519050610cd781610cb1565b92915050565b600060208284031215610cf357610cf26107b8565b5b6000610d0184828501610cc8565b91505092915050565b6000604082019050610d1f6000830185610946565b610d2c6020830184610c6b565b9392505050565b610d3c81610856565b82525050565b6000608082019050610d576000830187610946565b610d646020830186610c6b565b610d716040830185610946565b610d7e6060830184610d33565b95945050505050565b600082825260208201905092915050565b7f4f776e61626c653a2063616c6c6572206973206e6f7420746865206f776e6572600082015250565b6000610dce602083610d87565b9150610dd982610d98565b602082019050919050565b60006020820190508181036000830152610dfd81610dc1565b9050919050565b7f4f776e61626c653a206e6577206f776e657220697320746865207a65726f206160008201527f6464726573730000000000000000000000000000000000000000000000000000602082015250565b6000610e60602683610d87565b9150610e6b82610e04565b604082019050919050565b60006020820190508181036000830152610e8f81610e53565b905091905056fea26469706673582212200ac2b97d8ba604e86c36ccf76a40dd93a4c5b1e95624453e9784cdf452bb0d7b64736f6c634300080a0033",
  "linkReferences": {},
  "deployedLinkReferences": {}
}