{
  "_format": "hh-sol-artifact-1",
  "contractName": "AProxy",
  "sourceName": "contracts/AProxy.sol",
  "abi": [
    {
      "inputs": [
        {
          "internalType": "address",
          "name": "_trustedForwarder",
          "type": "address"
        }
      ],
      "stateMutability": "nonpayable",
      "type": "constructor"
    },
    {
      "anonymous": false,
      "inputs": [
        {
          "indexed": true,
          "internalType": "address",
          "name": "previousOwner",
          "type": "address"
        },
        {
          "indexed": true,
          "internalType": "address",
          "name": "newOwner",
          "type": "address"
        }
      ],
      "name": "OwnershipTransferred",
      "type": "event"
    },
    {
      "inputs": [],
      "name": "AAVE_LENDING_POOL_ADDRESS",
      "outputs": [
        {
          "internalType": "address",
          "name": "",
          "type": "address"
        }
      ],
      "stateMutability": "view",
      "type": "function"
    },
    {
      "inputs": [
        {
          "internalType": "address",
          "name": "asset",
          "type": "address"
        },
        {
          "internalType": "uint256",
          "name": "amount",
          "type": "uint256"
        },
        {
          "internalType": "uint16",
          "name": "referralCode",
          "type": "uint16"
        }
      ],
      "name": "depositToAave",
      "outputs": [],
      "stateMutability": "nonpayable",
      "type": "function"
    },
    {
      "inputs": [
        {
          "internalType": "address",
          "name": "forwarder",
          "type": "address"
        }
      ],
      "name": "isTrustedForwarder",
      "outputs": [
        {
          "internalType": "bool",
          "name": "",
          "type": "bool"
        }
      ],
      "stateMutability": "view",
      "type": "function"
    },
    {
      "inputs": [],
      "name": "lendingPool",
      "outputs": [
        {
          "internalType": "contract Pool",
          "name": "",
          "type": "address"
        }
      ],
      "stateMutability": "view",
      "type": "function"
    },
    {
      "inputs": [],
      "name": "owner",
      "outputs": [
        {
          "internalType": "address",
          "name": "",
          "type": "address"
        }
      ],
      "stateMutability": "view",
      "type": "function"
    },
    {
      "inputs": [],
      "name": "renounceOwnership",
      "outputs": [],
      "stateMutability": "nonpayable",
      "type": "function"
    },
    {
      "inputs": [
        {
          "internalType": "address",
          "name": "forwarder",
          "type": "address"
        }
      ],
      "name": "setTrustedForwarder",
      "outputs": [],
      "stateMutability": "nonpayable",
      "type": "function"
    },
    {
      "inputs": [
        {
          "internalType": "address",
          "name": "newOwner",
          "type": "address"
        }
      ],
      "name": "transferOwnership",
      "outputs": [],
      "stateMutability": "nonpayable",
      "type": "function"
    }
  ],
  "bytecode": "0x6080604052736c9fb0d5bd9429eb9cd96b85b81d872281771e6b600260006101000a81548173ffffffffffffffffffffffffffffffffffffffff021916908373ffffffffffffffffffffffffffffffffffffffff160217905550600260009054906101000a900473ffffffffffffffffffffffffffffffffffffffff16600360006101000a81548173ffffffffffffffffffffffffffffffffffffffff021916908373ffffffffffffffffffffffffffffffffffffffff160217905550348015620000c957600080fd5b5060405162001344380380620013448339818101604052810190620000ef91906200034f565b8062000110620001046200015960201b60201c565b6200017560201b60201c565b80600160006101000a81548173ffffffffffffffffffffffffffffffffffffffff021916908373ffffffffffffffffffffffffffffffffffffffff160217905550505062000381565b6000620001706200023960201b620007881760201c565b905090565b60008060009054906101000a900473ffffffffffffffffffffffffffffffffffffffff169050816000806101000a81548173ffffffffffffffffffffffffffffffffffffffff021916908373ffffffffffffffffffffffffffffffffffffffff1602179055508173ffffffffffffffffffffffffffffffffffffffff168173ffffffffffffffffffffffffffffffffffffffff167f8be0079c531659141344cd1fd0a4f28419497f9722a3daafe3b4186f6b6457e060405160405180910390a35050565b60006200024c336200028360201b60201c565b156200026257601436033560601c90506200027f565b62000277620002dd60201b620007ba1760201c565b905062000280565b5b90565b6000600160009054906101000a900473ffffffffffffffffffffffffffffffffffffffff1673ffffffffffffffffffffffffffffffffffffffff168273ffffffffffffffffffffffffffffffffffffffff16149050919050565b600033905090565b600080fd5b600073ffffffffffffffffffffffffffffffffffffffff82169050919050565b60006200031782620002ea565b9050919050565b62000329816200030a565b81146200033557600080fd5b50565b60008151905062000349816200031e565b92915050565b600060208284031215620003685762000367620002e5565b5b6000620003788482850162000338565b91505092915050565b610fb380620003916000396000f3fe608060405234801561001057600080fd5b50600436106100885760003560e01c80638da5cb5b1161005b5780638da5cb5b14610101578063a59a99731461011f578063da7422281461013d578063f2fde38b1461015957610088565b80630b2ba8d51461008d578063572b6c05146100a9578063715018a6146100d9578063878a0135146100e3575b600080fd5b6100a760048036038101906100a29190610977565b610175565b005b6100c360048036038101906100be91906109ca565b610479565b6040516100d09190610a12565b60405180910390f35b6100e16104d3565b005b6100eb61055b565b6040516100f89190610a3c565b60405180910390f35b610109610581565b6040516101169190610a3c565b60405180910390f35b6101276105aa565b6040516101349190610ab6565b60405180910390f35b610157600480360381019061015291906109ca565b6105d0565b005b610173600480360381019061016e91906109ca565b610690565b005b6000600360009054906101000a900473ffffffffffffffffffffffffffffffffffffffff1673ffffffffffffffffffffffffffffffffffffffff1663d1946dbc6040518163ffffffff1660e01b8152600401600060405180830381865afa1580156101e4573d6000803e3d6000fd5b505050506040513d6000823e3d601f19601f8201168201806040525081019061020d9190610c3f565b90506000805b600183516102219190610cb7565b8161ffff161015610297578573ffffffffffffffffffffffffffffffffffffffff16838261ffff168151811061025a57610259610ceb565b5b602002602001015173ffffffffffffffffffffffffffffffffffffffff16141561028357600191505b6001816102909190610d1a565b9050610213565b5060011515811515146102a957600080fd5b60008590508073ffffffffffffffffffffffffffffffffffffffff166323b872dd6102d26107c2565b30886040518463ffffffff1660e01b81526004016102f293929190610d61565b6020604051808303816000875af1158015610311573d6000803e3d6000fd5b505050506040513d601f19601f820116820180604052508101906103359190610dc4565b508073ffffffffffffffffffffffffffffffffffffffff1663095ea7b3600260009054906101000a900473ffffffffffffffffffffffffffffffffffffffff16876040518363ffffffff1660e01b8152600401610393929190610df1565b6020604051808303816000875af11580156103b2573d6000803e3d6000fd5b505050506040513d601f19601f820116820180604052508101906103d69190610dc4565b50600360009054906101000a900473ffffffffffffffffffffffffffffffffffffffff1673ffffffffffffffffffffffffffffffffffffffff1663617ba037878761041f6107c2565b886040518563ffffffff1660e01b815260040161043f9493929190610e29565b600060405180830381600087803b15801561045957600080fd5b505af115801561046d573d6000803e3d6000fd5b50505050505050505050565b6000600160009054906101000a900473ffffffffffffffffffffffffffffffffffffffff1673ffffffffffffffffffffffffffffffffffffffff168273ffffffffffffffffffffffffffffffffffffffff16149050919050565b6104db6107c2565b73ffffffffffffffffffffffffffffffffffffffff166104f9610581565b73ffffffffffffffffffffffffffffffffffffffff161461054f576040517f08c379a000000000000000000000000000000000000000000000000000000000815260040161054690610ecb565b60405180910390fd5b61055960006107d1565b565b600260009054906101000a900473ffffffffffffffffffffffffffffffffffffffff1681565b60008060009054906101000a900473ffffffffffffffffffffffffffffffffffffffff16905090565b600360009054906101000a900473ffffffffffffffffffffffffffffffffffffffff1681565b6105d86107c2565b73ffffffffffffffffffffffffffffffffffffffff166105f6610581565b73ffffffffffffffffffffffffffffffffffffffff161461064c576040517f08c379a000000000000000000000000000000000000000000000000000000000815260040161064390610ecb565b60405180910390fd5b80600160006101000a81548173ffffffffffffffffffffffffffffffffffffffff021916908373ffffffffffffffffffffffffffffffffffffffff16021790555050565b6106986107c2565b73ffffffffffffffffffffffffffffffffffffffff166106b6610581565b73ffffffffffffffffffffffffffffffffffffffff161461070c576040517f08c379a000000000000000000000000000000000000000000000000000000000815260040161070390610ecb565b60405180910390fd5b600073ffffffffffffffffffffffffffffffffffffffff168173ffffffffffffffffffffffffffffffffffffffff16141561077c576040517f08c379a000000000000000000000000000000000000000000000000000000000815260040161077390610f5d565b60405180910390fd5b610785816107d1565b50565b600061079333610479565b156107a757601436033560601c90506107b6565b6107af6107ba565b90506107b7565b5b90565b600033905090565b60006107cc610788565b905090565b60008060009054906101000a900473ffffffffffffffffffffffffffffffffffffffff169050816000806101000a81548173ffffffffffffffffffffffffffffffffffffffff021916908373ffffffffffffffffffffffffffffffffffffffff1602179055508173ffffffffffffffffffffffffffffffffffffffff168173ffffffffffffffffffffffffffffffffffffffff167f8be0079c531659141344cd1fd0a4f28419497f9722a3daafe3b4186f6b6457e060405160405180910390a35050565b6000604051905090565b600080fd5b600080fd5b600073ffffffffffffffffffffffffffffffffffffffff82169050919050565b60006108d4826108a9565b9050919050565b6108e4816108c9565b81146108ef57600080fd5b50565b600081359050610901816108db565b92915050565b6000819050919050565b61091a81610907565b811461092557600080fd5b50565b60008135905061093781610911565b92915050565b600061ffff82169050919050565b6109548161093d565b811461095f57600080fd5b50565b6000813590506109718161094b565b92915050565b6000806000606084860312156109905761098f61089f565b5b600061099e868287016108f2565b93505060206109af86828701610928565b92505060406109c086828701610962565b9150509250925092565b6000602082840312156109e0576109df61089f565b5b60006109ee848285016108f2565b91505092915050565b60008115159050919050565b610a0c816109f7565b82525050565b6000602082019050610a276000830184610a03565b92915050565b610a36816108c9565b82525050565b6000602082019050610a516000830184610a2d565b92915050565b6000819050919050565b6000610a7c610a77610a72846108a9565b610a57565b6108a9565b9050919050565b6000610a8e82610a61565b9050919050565b6000610aa082610a83565b9050919050565b610ab081610a95565b82525050565b6000602082019050610acb6000830184610aa7565b92915050565b600080fd5b6000601f19601f8301169050919050565b7f4e487b7100000000000000000000000000000000000000000000000000000000600052604160045260246000fd5b610b1f82610ad6565b810181811067ffffffffffffffff82111715610b3e57610b3d610ae7565b5b80604052505050565b6000610b51610895565b9050610b5d8282610b16565b919050565b600067ffffffffffffffff821115610b7d57610b7c610ae7565b5b602082029050602081019050919050565b600080fd5b600081519050610ba2816108db565b92915050565b6000610bbb610bb684610b62565b610b47565b90508083825260208201905060208402830185811115610bde57610bdd610b8e565b5b835b81811015610c075780610bf38882610b93565b845260208401935050602081019050610be0565b5050509392505050565b600082601f830112610c2657610c25610ad1565b5b8151610c36848260208601610ba8565b91505092915050565b600060208284031215610c5557610c5461089f565b5b600082015167ffffffffffffffff811115610c7357610c726108a4565b5b610c7f84828501610c11565b91505092915050565b7f4e487b7100000000000000000000000000000000000000000000000000000000600052601160045260246000fd5b6000610cc282610907565b9150610ccd83610907565b925082821015610ce057610cdf610c88565b5b828203905092915050565b7f4e487b7100000000000000000000000000000000000000000000000000000000600052603260045260246000fd5b6000610d258261093d565b9150610d308361093d565b92508261ffff03821115610d4757610d46610c88565b5b828201905092915050565b610d5b81610907565b82525050565b6000606082019050610d766000830186610a2d565b610d836020830185610a2d565b610d906040830184610d52565b949350505050565b610da1816109f7565b8114610dac57600080fd5b50565b600081519050610dbe81610d98565b92915050565b600060208284031215610dda57610dd961089f565b5b6000610de884828501610daf565b91505092915050565b6000604082019050610e066000830185610a2d565b610e136020830184610d52565b9392505050565b610e238161093d565b82525050565b6000608082019050610e3e6000830187610a2d565b610e4b6020830186610d52565b610e586040830185610a2d565b610e656060830184610e1a565b95945050505050565b600082825260208201905092915050565b7f4f776e61626c653a2063616c6c6572206973206e6f7420746865206f776e6572600082015250565b6000610eb5602083610e6e565b9150610ec082610e7f565b602082019050919050565b60006020820190508181036000830152610ee481610ea8565b9050919050565b7f4f776e61626c653a206e6577206f776e657220697320746865207a65726f206160008201527f6464726573730000000000000000000000000000000000000000000000000000602082015250565b6000610f47602683610e6e565b9150610f5282610eeb565b604082019050919050565b60006020820190508181036000830152610f7681610f3a565b905091905056fea2646970667358221220bd156aea47be50e5c69a20a9a443d25f0a84980ed5422b9cabaa686f100eea1964736f6c634300080a0033",
  "linkReferences": {},
  "deployedLinkReferences": {}
}