{
  "_format": "hh-sol-artifact-1",
  "contractName": "AProxy",
  "sourceName": "contracts/AProxy.sol",
  "abi": [
    {
      "inputs": [
        {
          "internalType": "address",
          "name": "_trustedForwarder",
          "type": "address"
        }
      ],
      "stateMutability": "nonpayable",
      "type": "constructor"
    },
    {
      "anonymous": false,
      "inputs": [
        {
          "indexed": true,
          "internalType": "address",
          "name": "previousOwner",
          "type": "address"
        },
        {
          "indexed": true,
          "internalType": "address",
          "name": "newOwner",
          "type": "address"
        }
      ],
      "name": "OwnershipTransferred",
      "type": "event"
    },
    {
      "inputs": [],
      "name": "AAVE_LENDING_POOL_ADDRESS",
      "outputs": [
        {
          "internalType": "address",
          "name": "",
          "type": "address"
        }
      ],
      "stateMutability": "view",
      "type": "function"
    },
    {
      "inputs": [
        {
          "internalType": "address",
          "name": "asset",
          "type": "address"
        },
        {
          "internalType": "uint256",
          "name": "amount",
          "type": "uint256"
        },
        {
          "internalType": "uint16",
          "name": "referralCode",
          "type": "uint16"
        }
      ],
      "name": "depositToAave",
      "outputs": [],
      "stateMutability": "nonpayable",
      "type": "function"
    },
    {
      "inputs": [
        {
          "internalType": "address",
          "name": "forwarder",
          "type": "address"
        }
      ],
      "name": "isTrustedForwarder",
      "outputs": [
        {
          "internalType": "bool",
          "name": "",
          "type": "bool"
        }
      ],
      "stateMutability": "view",
      "type": "function"
    },
    {
      "inputs": [],
      "name": "lendingPool",
      "outputs": [
        {
          "internalType": "contract Pool",
          "name": "",
          "type": "address"
        }
      ],
      "stateMutability": "view",
      "type": "function"
    },
    {
      "inputs": [],
      "name": "owner",
      "outputs": [
        {
          "internalType": "address",
          "name": "",
          "type": "address"
        }
      ],
      "stateMutability": "view",
      "type": "function"
    },
    {
      "inputs": [],
      "name": "renounceOwnership",
      "outputs": [],
      "stateMutability": "nonpayable",
      "type": "function"
    },
    {
      "inputs": [
        {
          "internalType": "address",
          "name": "newOwner",
          "type": "address"
        }
      ],
      "name": "transferOwnership",
      "outputs": [],
      "stateMutability": "nonpayable",
      "type": "function"
    }
  ],
  "bytecode": "0x6080604052733561c45840e2681495acca3c50ef4dae330c94f8600260006101000a81548173ffffffffffffffffffffffffffffffffffffffff021916908373ffffffffffffffffffffffffffffffffffffffff160217905550600260009054906101000a900473ffffffffffffffffffffffffffffffffffffffff16600360006101000a81548173ffffffffffffffffffffffffffffffffffffffff021916908373ffffffffffffffffffffffffffffffffffffffff160217905550348015620000c957600080fd5b5060405162001225380380620012258339818101604052810190620000ef91906200034f565b8062000110620001046200015960201b60201c565b6200017560201b60201c565b80600160006101000a81548173ffffffffffffffffffffffffffffffffffffffff021916908373ffffffffffffffffffffffffffffffffffffffff160217905550505062000381565b6000620001706200023960201b6200068c1760201c565b905090565b60008060009054906101000a900473ffffffffffffffffffffffffffffffffffffffff169050816000806101000a81548173ffffffffffffffffffffffffffffffffffffffff021916908373ffffffffffffffffffffffffffffffffffffffff1602179055508173ffffffffffffffffffffffffffffffffffffffff168173ffffffffffffffffffffffffffffffffffffffff167f8be0079c531659141344cd1fd0a4f28419497f9722a3daafe3b4186f6b6457e060405160405180910390a35050565b60006200024c336200028360201b60201c565b156200026257601436033560601c90506200027f565b62000277620002dd60201b620006be1760201c565b905062000280565b5b90565b6000600160009054906101000a900473ffffffffffffffffffffffffffffffffffffffff1673ffffffffffffffffffffffffffffffffffffffff168273ffffffffffffffffffffffffffffffffffffffff16149050919050565b600033905090565b600080fd5b600073ffffffffffffffffffffffffffffffffffffffff82169050919050565b60006200031782620002ea565b9050919050565b62000329816200030a565b81146200033557600080fd5b50565b60008151905062000349816200031e565b92915050565b600060208284031215620003685762000367620002e5565b5b6000620003788482850162000338565b91505092915050565b610e9480620003916000396000f3fe608060405234801561001057600080fd5b506004361061007d5760003560e01c8063878a01351161005b578063878a0135146100d85780638da5cb5b146100f6578063a59a997314610114578063f2fde38b146101325761007d565b80630b2ba8d514610082578063572b6c051461009e578063715018a6146100ce575b600080fd5b61009c6004803603810190610097919061087b565b61014e565b005b6100b860048036038101906100b391906108ce565b61043d565b6040516100c59190610916565b60405180910390f35b6100d6610497565b005b6100e061051f565b6040516100ed9190610940565b60405180910390f35b6100fe610545565b60405161010b9190610940565b60405180910390f35b61011c61056e565b60405161012991906109ba565b60405180910390f35b61014c600480360381019061014791906108ce565b610594565b005b6000600360009054906101000a900473ffffffffffffffffffffffffffffffffffffffff1673ffffffffffffffffffffffffffffffffffffffff1663d1946dbc6040518163ffffffff1660e01b8152600401600060405180830381865afa1580156101bd573d6000803e3d6000fd5b505050506040513d6000823e3d601f19601f820116820180604052508101906101e69190610b43565b90506000805b825181101561025b5782818151811061020857610207610b8c565b5b602002602001015173ffffffffffffffffffffffffffffffffffffffff168673ffffffffffffffffffffffffffffffffffffffff16141561024857600191505b808061025390610bea565b9150506101ec565b50600115158115151461026d57600080fd5b60008590508073ffffffffffffffffffffffffffffffffffffffff166323b872dd6102966106c6565b30886040518463ffffffff1660e01b81526004016102b693929190610c42565b6020604051808303816000875af11580156102d5573d6000803e3d6000fd5b505050506040513d601f19601f820116820180604052508101906102f99190610ca5565b508073ffffffffffffffffffffffffffffffffffffffff1663095ea7b3600260009054906101000a900473ffffffffffffffffffffffffffffffffffffffff16876040518363ffffffff1660e01b8152600401610357929190610cd2565b6020604051808303816000875af1158015610376573d6000803e3d6000fd5b505050506040513d601f19601f8201168201806040525081019061039a9190610ca5565b50600360009054906101000a900473ffffffffffffffffffffffffffffffffffffffff1673ffffffffffffffffffffffffffffffffffffffff1663617ba03787876103e36106c6565b886040518563ffffffff1660e01b81526004016104039493929190610d0a565b600060405180830381600087803b15801561041d57600080fd5b505af1158015610431573d6000803e3d6000fd5b50505050505050505050565b6000600160009054906101000a900473ffffffffffffffffffffffffffffffffffffffff1673ffffffffffffffffffffffffffffffffffffffff168273ffffffffffffffffffffffffffffffffffffffff16149050919050565b61049f6106c6565b73ffffffffffffffffffffffffffffffffffffffff166104bd610545565b73ffffffffffffffffffffffffffffffffffffffff1614610513576040517f08c379a000000000000000000000000000000000000000000000000000000000815260040161050a90610dac565b60405180910390fd5b61051d60006106d5565b565b600260009054906101000a900473ffffffffffffffffffffffffffffffffffffffff1681565b60008060009054906101000a900473ffffffffffffffffffffffffffffffffffffffff16905090565b600360009054906101000a900473ffffffffffffffffffffffffffffffffffffffff1681565b61059c6106c6565b73ffffffffffffffffffffffffffffffffffffffff166105ba610545565b73ffffffffffffffffffffffffffffffffffffffff1614610610576040517f08c379a000000000000000000000000000000000000000000000000000000000815260040161060790610dac565b60405180910390fd5b600073ffffffffffffffffffffffffffffffffffffffff168173ffffffffffffffffffffffffffffffffffffffff161415610680576040517f08c379a000000000000000000000000000000000000000000000000000000000815260040161067790610e3e565b60405180910390fd5b610689816106d5565b50565b60006106973361043d565b156106ab57601436033560601c90506106ba565b6106b36106be565b90506106bb565b5b90565b600033905090565b60006106d061068c565b905090565b60008060009054906101000a900473ffffffffffffffffffffffffffffffffffffffff169050816000806101000a81548173ffffffffffffffffffffffffffffffffffffffff021916908373ffffffffffffffffffffffffffffffffffffffff1602179055508173ffffffffffffffffffffffffffffffffffffffff168173ffffffffffffffffffffffffffffffffffffffff167f8be0079c531659141344cd1fd0a4f28419497f9722a3daafe3b4186f6b6457e060405160405180910390a35050565b6000604051905090565b600080fd5b600080fd5b600073ffffffffffffffffffffffffffffffffffffffff82169050919050565b60006107d8826107ad565b9050919050565b6107e8816107cd565b81146107f357600080fd5b50565b600081359050610805816107df565b92915050565b6000819050919050565b61081e8161080b565b811461082957600080fd5b50565b60008135905061083b81610815565b92915050565b600061ffff82169050919050565b61085881610841565b811461086357600080fd5b50565b6000813590506108758161084f565b92915050565b600080600060608486031215610894576108936107a3565b5b60006108a2868287016107f6565b93505060206108b38682870161082c565b92505060406108c486828701610866565b9150509250925092565b6000602082840312156108e4576108e36107a3565b5b60006108f2848285016107f6565b91505092915050565b60008115159050919050565b610910816108fb565b82525050565b600060208201905061092b6000830184610907565b92915050565b61093a816107cd565b82525050565b60006020820190506109556000830184610931565b92915050565b6000819050919050565b600061098061097b610976846107ad565b61095b565b6107ad565b9050919050565b600061099282610965565b9050919050565b60006109a482610987565b9050919050565b6109b481610999565b82525050565b60006020820190506109cf60008301846109ab565b92915050565b600080fd5b6000601f19601f8301169050919050565b7f4e487b7100000000000000000000000000000000000000000000000000000000600052604160045260246000fd5b610a23826109da565b810181811067ffffffffffffffff82111715610a4257610a416109eb565b5b80604052505050565b6000610a55610799565b9050610a618282610a1a565b919050565b600067ffffffffffffffff821115610a8157610a806109eb565b5b602082029050602081019050919050565b600080fd5b600081519050610aa6816107df565b92915050565b6000610abf610aba84610a66565b610a4b565b90508083825260208201905060208402830185811115610ae257610ae1610a92565b5b835b81811015610b0b5780610af78882610a97565b845260208401935050602081019050610ae4565b5050509392505050565b600082601f830112610b2a57610b296109d5565b5b8151610b3a848260208601610aac565b91505092915050565b600060208284031215610b5957610b586107a3565b5b600082015167ffffffffffffffff811115610b7757610b766107a8565b5b610b8384828501610b15565b91505092915050565b7f4e487b7100000000000000000000000000000000000000000000000000000000600052603260045260246000fd5b7f4e487b7100000000000000000000000000000000000000000000000000000000600052601160045260246000fd5b6000610bf58261080b565b91507fffffffffffffffffffffffffffffffffffffffffffffffffffffffffffffffff821415610c2857610c27610bbb565b5b600182019050919050565b610c3c8161080b565b82525050565b6000606082019050610c576000830186610931565b610c646020830185610931565b610c716040830184610c33565b949350505050565b610c82816108fb565b8114610c8d57600080fd5b50565b600081519050610c9f81610c79565b92915050565b600060208284031215610cbb57610cba6107a3565b5b6000610cc984828501610c90565b91505092915050565b6000604082019050610ce76000830185610931565b610cf46020830184610c33565b9392505050565b610d0481610841565b82525050565b6000608082019050610d1f6000830187610931565b610d2c6020830186610c33565b610d396040830185610931565b610d466060830184610cfb565b95945050505050565b600082825260208201905092915050565b7f4f776e61626c653a2063616c6c6572206973206e6f7420746865206f776e6572600082015250565b6000610d96602083610d4f565b9150610da182610d60565b602082019050919050565b60006020820190508181036000830152610dc581610d89565b9050919050565b7f4f776e61626c653a206e6577206f776e657220697320746865207a65726f206160008201527f6464726573730000000000000000000000000000000000000000000000000000602082015250565b6000610e28602683610d4f565b9150610e3382610dcc565b604082019050919050565b60006020820190508181036000830152610e5781610e1b565b905091905056fea26469706673582212208c4ca3db5c790f8372eca864c5973daabf73d15e2bd5593a122d4b88f79a361864736f6c634300080a0033",
  "linkReferences": {},
  "deployedLinkReferences": {}
}