{
  "_format": "hh-sol-artifact-1",
  "contractName": "AProxy",
  "sourceName": "contracts/AProxy.sol",
  "abi": [
    {
      "inputs": [
        {
          "internalType": "address",
          "name": "_trustedForwarder",
          "type": "address"
        }
      ],
      "stateMutability": "nonpayable",
      "type": "constructor"
    },
    {
      "inputs": [],
      "name": "AAVE_LENDING_POOL_ADDRESS",
      "outputs": [
        {
          "internalType": "address",
          "name": "",
          "type": "address"
        }
      ],
      "stateMutability": "view",
      "type": "function"
    },
    {
      "inputs": [
        {
          "internalType": "address",
          "name": "asset",
          "type": "address"
        },
        {
          "internalType": "uint256",
          "name": "amount",
          "type": "uint256"
        },
        {
          "internalType": "uint16",
          "name": "referralCode",
          "type": "uint16"
        }
      ],
      "name": "depositToAave",
      "outputs": [],
      "stateMutability": "nonpayable",
      "type": "function"
    },
    {
      "inputs": [
        {
          "internalType": "address",
          "name": "forwarder",
          "type": "address"
        }
      ],
      "name": "isTrustedForwarder",
      "outputs": [
        {
          "internalType": "bool",
          "name": "",
          "type": "bool"
        }
      ],
      "stateMutability": "view",
      "type": "function"
    },
    {
      "inputs": [],
      "name": "lendingPool",
      "outputs": [
        {
          "internalType": "contract Pool",
          "name": "",
          "type": "address"
        }
      ],
      "stateMutability": "view",
      "type": "function"
    }
  ],
  "bytecode": "0x60a060405273e039bdf1d874d27338e09b55cb09879dedca52d86000806101000a81548173ffffffffffffffffffffffffffffffffffffffff021916908373ffffffffffffffffffffffffffffffffffffffff16021790555060008054906101000a900473ffffffffffffffffffffffffffffffffffffffff16600160006101000a81548173ffffffffffffffffffffffffffffffffffffffff021916908373ffffffffffffffffffffffffffffffffffffffff1602179055503480156100c557600080fd5b506040516108ce3803806108ce83398181016040528101906100e79190610186565b808073ffffffffffffffffffffffffffffffffffffffff1660808173ffffffffffffffffffffffffffffffffffffffff168152505050506101b3565b600080fd5b600073ffffffffffffffffffffffffffffffffffffffff82169050919050565b600061015382610128565b9050919050565b61016381610148565b811461016e57600080fd5b50565b6000815190506101808161015a565b92915050565b60006020828403121561019c5761019b610123565b5b60006101aa84828501610171565b91505092915050565b6080516107006101ce60003960006102a901526107006000f3fe608060405234801561001057600080fd5b506004361061004c5760003560e01c80630b2ba8d514610051578063572b6c051461006d578063878a01351461009d578063a59a9973146100bb575b600080fd5b61006b60048036038101906100669190610454565b6100d9565b005b610087600480360381019061008291906104a7565b6102a5565b60405161009491906104ef565b60405180910390f35b6100a56102fd565b6040516100b29190610519565b60405180910390f35b6100c3610321565b6040516100d09190610593565b60405180910390f35b60008390508073ffffffffffffffffffffffffffffffffffffffff166323b872dd610102610347565b30866040518463ffffffff1660e01b8152600401610122939291906105bd565b6020604051808303816000875af1158015610141573d6000803e3d6000fd5b505050506040513d601f19601f820116820180604052508101906101659190610620565b508073ffffffffffffffffffffffffffffffffffffffff1663095ea7b360008054906101000a900473ffffffffffffffffffffffffffffffffffffffff16856040518363ffffffff1660e01b81526004016101c192919061064d565b6020604051808303816000875af11580156101e0573d6000803e3d6000fd5b505050506040513d601f19601f820116820180604052508101906102049190610620565b50600160009054906101000a900473ffffffffffffffffffffffffffffffffffffffff1673ffffffffffffffffffffffffffffffffffffffff1663617ba037858561024d610347565b866040518563ffffffff1660e01b815260040161026d9493929190610685565b600060405180830381600087803b15801561028757600080fd5b505af115801561029b573d6000803e3d6000fd5b5050505050505050565b60007f000000000000000000000000000000000000000000000000000000000000000073ffffffffffffffffffffffffffffffffffffffff168273ffffffffffffffffffffffffffffffffffffffff16149050919050565b60008054906101000a900473ffffffffffffffffffffffffffffffffffffffff1681565b600160009054906101000a900473ffffffffffffffffffffffffffffffffffffffff1681565b6000610352336102a5565b1561036657601436033560601c9050610375565b61036e610379565b9050610376565b5b90565b600033905090565b600080fd5b600073ffffffffffffffffffffffffffffffffffffffff82169050919050565b60006103b182610386565b9050919050565b6103c1816103a6565b81146103cc57600080fd5b50565b6000813590506103de816103b8565b92915050565b6000819050919050565b6103f7816103e4565b811461040257600080fd5b50565b600081359050610414816103ee565b92915050565b600061ffff82169050919050565b6104318161041a565b811461043c57600080fd5b50565b60008135905061044e81610428565b92915050565b60008060006060848603121561046d5761046c610381565b5b600061047b868287016103cf565b935050602061048c86828701610405565b925050604061049d8682870161043f565b9150509250925092565b6000602082840312156104bd576104bc610381565b5b60006104cb848285016103cf565b91505092915050565b60008115159050919050565b6104e9816104d4565b82525050565b600060208201905061050460008301846104e0565b92915050565b610513816103a6565b82525050565b600060208201905061052e600083018461050a565b92915050565b6000819050919050565b600061055961055461054f84610386565b610534565b610386565b9050919050565b600061056b8261053e565b9050919050565b600061057d82610560565b9050919050565b61058d81610572565b82525050565b60006020820190506105a86000830184610584565b92915050565b6105b7816103e4565b82525050565b60006060820190506105d2600083018661050a565b6105df602083018561050a565b6105ec60408301846105ae565b949350505050565b6105fd816104d4565b811461060857600080fd5b50565b60008151905061061a816105f4565b92915050565b60006020828403121561063657610635610381565b5b60006106448482850161060b565b91505092915050565b6000604082019050610662600083018561050a565b61066f60208301846105ae565b9392505050565b61067f8161041a565b82525050565b600060808201905061069a600083018761050a565b6106a760208301866105ae565b6106b4604083018561050a565b6106c16060830184610676565b9594505050505056fea2646970667358221220b215a51b6f331cc96e88affcdd2b125f02d032713be6ab321c5c798f8c58231564736f6c634300080a0033",
  "linkReferences": {},
  "deployedLinkReferences": {}
}