{
  "_format": "hh-sol-artifact-1",
  "contractName": "MockReserveInterestRateStrategy",
  "sourceName": "contracts/Aave_Contracts/mocks/tests/MockReserveInterestRateStrategy.sol",
  "abi": [
    {
      "inputs": [
        {
          "internalType": "contract IPoolAddressesProvider",
          "name": "provider",
          "type": "address"
        },
        {
          "internalType": "uint256",
          "name": "optimalUsageRatio",
          "type": "uint256"
        },
        {
          "internalType": "uint256",
          "name": "baseVariableBorrowRate",
          "type": "uint256"
        },
        {
          "internalType": "uint256",
          "name": "variableRateSlope1",
          "type": "uint256"
        },
        {
          "internalType": "uint256",
          "name": "variableRateSlope2",
          "type": "uint256"
        },
        {
          "internalType": "uint256",
          "name": "stableRateSlope1",
          "type": "uint256"
        },
        {
          "internalType": "uint256",
          "name": "stableRateSlope2",
          "type": "uint256"
        }
      ],
      "stateMutability": "nonpayable",
      "type": "constructor"
    },
    {
      "inputs": [],
      "name": "ADDRESSES_PROVIDER",
      "outputs": [
        {
          "internalType": "contract IPoolAddressesProvider",
          "name": "",
          "type": "address"
        }
      ],
      "stateMutability": "view",
      "type": "function"
    },
    {
      "inputs": [],
      "name": "OPTIMAL_USAGE_RATIO",
      "outputs": [
        {
          "internalType": "uint256",
          "name": "",
          "type": "uint256"
        }
      ],
      "stateMutability": "view",
      "type": "function"
    },
    {
      "inputs": [
        {
          "components": [
            {
              "internalType": "uint256",
              "name": "unbacked",
              "type": "uint256"
            },
            {
              "internalType": "uint256",
              "name": "liquidityAdded",
              "type": "uint256"
            },
            {
              "internalType": "uint256",
              "name": "liquidityTaken",
              "type": "uint256"
            },
            {
              "internalType": "uint256",
              "name": "totalStableDebt",
              "type": "uint256"
            },
            {
              "internalType": "uint256",
              "name": "totalVariableDebt",
              "type": "uint256"
            },
            {
              "internalType": "uint256",
              "name": "averageStableBorrowRate",
              "type": "uint256"
            },
            {
              "internalType": "uint256",
              "name": "reserveFactor",
              "type": "uint256"
            },
            {
              "internalType": "address",
              "name": "reserve",
              "type": "address"
            },
            {
              "internalType": "address",
              "name": "aToken",
              "type": "address"
            }
          ],
          "internalType": "struct DataTypes.CalculateInterestRatesParams",
          "name": "",
          "type": "tuple"
        }
      ],
      "name": "calculateInterestRates",
      "outputs": [
        {
          "internalType": "uint256",
          "name": "liquidityRate",
          "type": "uint256"
        },
        {
          "internalType": "uint256",
          "name": "stableBorrowRate",
          "type": "uint256"
        },
        {
          "internalType": "uint256",
          "name": "variableBorrowRate",
          "type": "uint256"
        }
      ],
      "stateMutability": "view",
      "type": "function"
    },
    {
      "inputs": [],
      "name": "getBaseVariableBorrowRate",
      "outputs": [
        {
          "internalType": "uint256",
          "name": "",
          "type": "uint256"
        }
      ],
      "stateMutability": "view",
      "type": "function"
    },
    {
      "inputs": [],
      "name": "getMaxVariableBorrowRate",
      "outputs": [
        {
          "internalType": "uint256",
          "name": "",
          "type": "uint256"
        }
      ],
      "stateMutability": "view",
      "type": "function"
    },
    {
      "inputs": [],
      "name": "getStableRateSlope1",
      "outputs": [
        {
          "internalType": "uint256",
          "name": "",
          "type": "uint256"
        }
      ],
      "stateMutability": "view",
      "type": "function"
    },
    {
      "inputs": [],
      "name": "getStableRateSlope2",
      "outputs": [
        {
          "internalType": "uint256",
          "name": "",
          "type": "uint256"
        }
      ],
      "stateMutability": "view",
      "type": "function"
    },
    {
      "inputs": [],
      "name": "getVariableRateSlope1",
      "outputs": [
        {
          "internalType": "uint256",
          "name": "",
          "type": "uint256"
        }
      ],
      "stateMutability": "view",
      "type": "function"
    },
    {
      "inputs": [],
      "name": "getVariableRateSlope2",
      "outputs": [
        {
          "internalType": "uint256",
          "name": "",
          "type": "uint256"
        }
      ],
      "stateMutability": "view",
      "type": "function"
    },
    {
      "inputs": [
        {
          "internalType": "uint256",
          "name": "liquidityRate",
          "type": "uint256"
        }
      ],
      "name": "setLiquidityRate",
      "outputs": [],
      "stateMutability": "nonpayable",
      "type": "function"
    },
    {
      "inputs": [
        {
          "internalType": "uint256",
          "name": "stableBorrowRate",
          "type": "uint256"
        }
      ],
      "name": "setStableBorrowRate",
      "outputs": [],
      "stateMutability": "nonpayable",
      "type": "function"
    },
    {
      "inputs": [
        {
          "internalType": "uint256",
          "name": "variableBorrowRate",
          "type": "uint256"
        }
      ],
      "name": "setVariableBorrowRate",
      "outputs": [],
      "stateMutability": "nonpayable",
      "type": "function"
    }
  ],
  "bytecode": "0x6101606040523480156200001257600080fd5b5060405162000a8238038062000a82833981810160405281019062000038919062000165565b85608081815250508673ffffffffffffffffffffffffffffffffffffffff1660a08173ffffffffffffffffffffffffffffffffffffffff16815250508460c081815250508360e081815250508261010081815250508161012081815250508061014081815250505050505050505062000218565b600080fd5b600073ffffffffffffffffffffffffffffffffffffffff82169050919050565b6000620000de82620000b1565b9050919050565b6000620000f282620000d1565b9050919050565b6200010481620000e5565b81146200011057600080fd5b50565b6000815190506200012481620000f9565b92915050565b6000819050919050565b6200013f816200012a565b81146200014b57600080fd5b50565b6000815190506200015f8162000134565b92915050565b600080600080600080600060e0888a031215620001875762000186620000ac565b5b6000620001978a828b0162000113565b9750506020620001aa8a828b016200014e565b9650506040620001bd8a828b016200014e565b9550506060620001d08a828b016200014e565b9450506080620001e38a828b016200014e565b93505060a0620001f68a828b016200014e565b92505060c0620002098a828b016200014e565b91505092959891949750929550565b60805160a05160c05160e0516101005161012051610140516107fa62000288600039600061027f015260006103a90152600081816102fd01526103d1015260008181610257015261031e0152600081816102a7015261033f01526000610231015260006102d701526107fa6000f3fe608060405234801561001057600080fd5b50600436106100b45760003560e01c806380031e371161007157806380031e371461016b578063a589870914610189578063aa16fe34146101bb578063cecced51146101d7578063d5cd7391146101f3578063f420240914610211576100b4565b80630542975c146100b95780630b3429a2146100d757806314e32da4146100f557806334762ca5146101135780633a244adf1461013157806354c365c61461014d575b600080fd5b6100c161022f565b6040516100ce9190610474565b60405180910390f35b6100df610253565b6040516100ec91906104a8565b60405180910390f35b6100fd61027b565b60405161010a91906104a8565b60405180910390f35b61011b6102a3565b60405161012891906104a8565b60405180910390f35b61014b600480360381019061014691906104fe565b6102cb565b005b6101556102d5565b60405161016291906104a8565b60405180910390f35b6101736102f9565b60405161018091906104a8565b60405180910390f35b6101a3600480360381019061019e91906106da565b610377565b6040516101b293929190610708565b60405180910390f35b6101d560048036038101906101d091906104fe565b610391565b005b6101f160048036038101906101ec91906104fe565b61039b565b005b6101fb6103a5565b60405161020891906104a8565b60405180910390f35b6102196103cd565b60405161022691906104a8565b60405180910390f35b7f000000000000000000000000000000000000000000000000000000000000000081565b60007f0000000000000000000000000000000000000000000000000000000000000000905090565b60007f0000000000000000000000000000000000000000000000000000000000000000905090565b60007f0000000000000000000000000000000000000000000000000000000000000000905090565b8060008190555050565b7f000000000000000000000000000000000000000000000000000000000000000081565b60007f00000000000000000000000000000000000000000000000000000000000000007f00000000000000000000000000000000000000000000000000000000000000007f0000000000000000000000000000000000000000000000000000000000000000610368919061076e565b610372919061076e565b905090565b600080600080546001546002549250925092509193909250565b8060028190555050565b8060018190555050565b60007f0000000000000000000000000000000000000000000000000000000000000000905090565b60007f0000000000000000000000000000000000000000000000000000000000000000905090565b600073ffffffffffffffffffffffffffffffffffffffff82169050919050565b6000819050919050565b600061043a610435610430846103f5565b610415565b6103f5565b9050919050565b600061044c8261041f565b9050919050565b600061045e82610441565b9050919050565b61046e81610453565b82525050565b60006020820190506104896000830184610465565b92915050565b6000819050919050565b6104a28161048f565b82525050565b60006020820190506104bd6000830184610499565b92915050565b6000604051905090565b600080fd5b6104db8161048f565b81146104e657600080fd5b50565b6000813590506104f8816104d2565b92915050565b600060208284031215610514576105136104cd565b5b6000610522848285016104e9565b91505092915050565b600080fd5b6000601f19601f8301169050919050565b7f4e487b7100000000000000000000000000000000000000000000000000000000600052604160045260246000fd5b61057982610530565b810181811067ffffffffffffffff8211171561059857610597610541565b5b80604052505050565b60006105ab6104c3565b90506105b78282610570565b919050565b60006105c7826103f5565b9050919050565b6105d7816105bc565b81146105e257600080fd5b50565b6000813590506105f4816105ce565b92915050565b600061012082840312156106115761061061052b565b5b61061c6101206105a1565b9050600061062c848285016104e9565b6000830152506020610640848285016104e9565b6020830152506040610654848285016104e9565b6040830152506060610668848285016104e9565b606083015250608061067c848285016104e9565b60808301525060a0610690848285016104e9565b60a08301525060c06106a4848285016104e9565b60c08301525060e06106b8848285016105e5565b60e0830152506101006106cd848285016105e5565b6101008301525092915050565b600061012082840312156106f1576106f06104cd565b5b60006106ff848285016105fa565b91505092915050565b600060608201905061071d6000830186610499565b61072a6020830185610499565b6107376040830184610499565b949350505050565b7f4e487b7100000000000000000000000000000000000000000000000000000000600052601160045260246000fd5b60006107798261048f565b91506107848361048f565b9250827fffffffffffffffffffffffffffffffffffffffffffffffffffffffffffffffff038211156107b9576107b861073f565b5b82820190509291505056fea2646970667358221220c964a066c4abca05cd1803e82ca068b56b1bbe6cd3ea07e8eda5ccb7dcf5b9cc64736f6c634300080a0033",
  "linkReferences": {},
  "deployedLinkReferences": {}
}