{
  "_format": "hh-sol-artifact-1",
  "contractName": "ACLManager",
  "sourceName": "contracts/Aave_Contracts/protocol/configuration/ACLManager.sol",
  "abi": [
    {
      "inputs": [
        {
          "internalType": "contract IPoolAddressesProvider",
          "name": "provider",
          "type": "address"
        }
      ],
      "stateMutability": "nonpayable",
      "type": "constructor"
    },
    {
      "anonymous": false,
      "inputs": [
        {
          "indexed": true,
          "internalType": "bytes32",
          "name": "role",
          "type": "bytes32"
        },
        {
          "indexed": true,
          "internalType": "bytes32",
          "name": "previousAdminRole",
          "type": "bytes32"
        },
        {
          "indexed": true,
          "internalType": "bytes32",
          "name": "newAdminRole",
          "type": "bytes32"
        }
      ],
      "name": "RoleAdminChanged",
      "type": "event"
    },
    {
      "anonymous": false,
      "inputs": [
        {
          "indexed": true,
          "internalType": "bytes32",
          "name": "role",
          "type": "bytes32"
        },
        {
          "indexed": true,
          "internalType": "address",
          "name": "account",
          "type": "address"
        },
        {
          "indexed": true,
          "internalType": "address",
          "name": "sender",
          "type": "address"
        }
      ],
      "name": "RoleGranted",
      "type": "event"
    },
    {
      "anonymous": false,
      "inputs": [
        {
          "indexed": true,
          "internalType": "bytes32",
          "name": "role",
          "type": "bytes32"
        },
        {
          "indexed": true,
          "internalType": "address",
          "name": "account",
          "type": "address"
        },
        {
          "indexed": true,
          "internalType": "address",
          "name": "sender",
          "type": "address"
        }
      ],
      "name": "RoleRevoked",
      "type": "event"
    },
    {
      "inputs": [],
      "name": "ADDRESSES_PROVIDER",
      "outputs": [
        {
          "internalType": "contract IPoolAddressesProvider",
          "name": "",
          "type": "address"
        }
      ],
      "stateMutability": "view",
      "type": "function"
    },
    {
      "inputs": [],
      "name": "ASSET_LISTING_ADMIN_ROLE",
      "outputs": [
        {
          "internalType": "bytes32",
          "name": "",
          "type": "bytes32"
        }
      ],
      "stateMutability": "view",
      "type": "function"
    },
    {
      "inputs": [],
      "name": "BRIDGE_ROLE",
      "outputs": [
        {
          "internalType": "bytes32",
          "name": "",
          "type": "bytes32"
        }
      ],
      "stateMutability": "view",
      "type": "function"
    },
    {
      "inputs": [],
      "name": "DEFAULT_ADMIN_ROLE",
      "outputs": [
        {
          "internalType": "bytes32",
          "name": "",
          "type": "bytes32"
        }
      ],
      "stateMutability": "view",
      "type": "function"
    },
    {
      "inputs": [],
      "name": "EMERGENCY_ADMIN_ROLE",
      "outputs": [
        {
          "internalType": "bytes32",
          "name": "",
          "type": "bytes32"
        }
      ],
      "stateMutability": "view",
      "type": "function"
    },
    {
      "inputs": [],
      "name": "FLASH_BORROWER_ROLE",
      "outputs": [
        {
          "internalType": "bytes32",
          "name": "",
          "type": "bytes32"
        }
      ],
      "stateMutability": "view",
      "type": "function"
    },
    {
      "inputs": [],
      "name": "POOL_ADMIN_ROLE",
      "outputs": [
        {
          "internalType": "bytes32",
          "name": "",
          "type": "bytes32"
        }
      ],
      "stateMutability": "view",
      "type": "function"
    },
    {
      "inputs": [],
      "name": "RISK_ADMIN_ROLE",
      "outputs": [
        {
          "internalType": "bytes32",
          "name": "",
          "type": "bytes32"
        }
      ],
      "stateMutability": "view",
      "type": "function"
    },
    {
      "inputs": [
        {
          "internalType": "address",
          "name": "admin",
          "type": "address"
        }
      ],
      "name": "addAssetListingAdmin",
      "outputs": [],
      "stateMutability": "nonpayable",
      "type": "function"
    },
    {
      "inputs": [
        {
          "internalType": "address",
          "name": "bridge",
          "type": "address"
        }
      ],
      "name": "addBridge",
      "outputs": [],
      "stateMutability": "nonpayable",
      "type": "function"
    },
    {
      "inputs": [
        {
          "internalType": "address",
          "name": "admin",
          "type": "address"
        }
      ],
      "name": "addEmergencyAdmin",
      "outputs": [],
      "stateMutability": "nonpayable",
      "type": "function"
    },
    {
      "inputs": [
        {
          "internalType": "address",
          "name": "borrower",
          "type": "address"
        }
      ],
      "name": "addFlashBorrower",
      "outputs": [],
      "stateMutability": "nonpayable",
      "type": "function"
    },
    {
      "inputs": [
        {
          "internalType": "address",
          "name": "admin",
          "type": "address"
        }
      ],
      "name": "addPoolAdmin",
      "outputs": [],
      "stateMutability": "nonpayable",
      "type": "function"
    },
    {
      "inputs": [
        {
          "internalType": "address",
          "name": "admin",
          "type": "address"
        }
      ],
      "name": "addRiskAdmin",
      "outputs": [],
      "stateMutability": "nonpayable",
      "type": "function"
    },
    {
      "inputs": [
        {
          "internalType": "bytes32",
          "name": "role",
          "type": "bytes32"
        }
      ],
      "name": "getRoleAdmin",
      "outputs": [
        {
          "internalType": "bytes32",
          "name": "",
          "type": "bytes32"
        }
      ],
      "stateMutability": "view",
      "type": "function"
    },
    {
      "inputs": [
        {
          "internalType": "bytes32",
          "name": "role",
          "type": "bytes32"
        },
        {
          "internalType": "address",
          "name": "account",
          "type": "address"
        }
      ],
      "name": "grantRole",
      "outputs": [],
      "stateMutability": "nonpayable",
      "type": "function"
    },
    {
      "inputs": [
        {
          "internalType": "bytes32",
          "name": "role",
          "type": "bytes32"
        },
        {
          "internalType": "address",
          "name": "account",
          "type": "address"
        }
      ],
      "name": "hasRole",
      "outputs": [
        {
          "internalType": "bool",
          "name": "",
          "type": "bool"
        }
      ],
      "stateMutability": "view",
      "type": "function"
    },
    {
      "inputs": [
        {
          "internalType": "address",
          "name": "admin",
          "type": "address"
        }
      ],
      "name": "isAssetListingAdmin",
      "outputs": [
        {
          "internalType": "bool",
          "name": "",
          "type": "bool"
        }
      ],
      "stateMutability": "view",
      "type": "function"
    },
    {
      "inputs": [
        {
          "internalType": "address",
          "name": "bridge",
          "type": "address"
        }
      ],
      "name": "isBridge",
      "outputs": [
        {
          "internalType": "bool",
          "name": "",
          "type": "bool"
        }
      ],
      "stateMutability": "view",
      "type": "function"
    },
    {
      "inputs": [
        {
          "internalType": "address",
          "name": "admin",
          "type": "address"
        }
      ],
      "name": "isEmergencyAdmin",
      "outputs": [
        {
          "internalType": "bool",
          "name": "",
          "type": "bool"
        }
      ],
      "stateMutability": "view",
      "type": "function"
    },
    {
      "inputs": [
        {
          "internalType": "address",
          "name": "borrower",
          "type": "address"
        }
      ],
      "name": "isFlashBorrower",
      "outputs": [
        {
          "internalType": "bool",
          "name": "",
          "type": "bool"
        }
      ],
      "stateMutability": "view",
      "type": "function"
    },
    {
      "inputs": [
        {
          "internalType": "address",
          "name": "admin",
          "type": "address"
        }
      ],
      "name": "isPoolAdmin",
      "outputs": [
        {
          "internalType": "bool",
          "name": "",
          "type": "bool"
        }
      ],
      "stateMutability": "view",
      "type": "function"
    },
    {
      "inputs": [
        {
          "internalType": "address",
          "name": "admin",
          "type": "address"
        }
      ],
      "name": "isRiskAdmin",
      "outputs": [
        {
          "internalType": "bool",
          "name": "",
          "type": "bool"
        }
      ],
      "stateMutability": "view",
      "type": "function"
    },
    {
      "inputs": [
        {
          "internalType": "address",
          "name": "admin",
          "type": "address"
        }
      ],
      "name": "removeAssetListingAdmin",
      "outputs": [],
      "stateMutability": "nonpayable",
      "type": "function"
    },
    {
      "inputs": [
        {
          "internalType": "address",
          "name": "bridge",
          "type": "address"
        }
      ],
      "name": "removeBridge",
      "outputs": [],
      "stateMutability": "nonpayable",
      "type": "function"
    },
    {
      "inputs": [
        {
          "internalType": "address",
          "name": "admin",
          "type": "address"
        }
      ],
      "name": "removeEmergencyAdmin",
      "outputs": [],
      "stateMutability": "nonpayable",
      "type": "function"
    },
    {
      "inputs": [
        {
          "internalType": "address",
          "name": "borrower",
          "type": "address"
        }
      ],
      "name": "removeFlashBorrower",
      "outputs": [],
      "stateMutability": "nonpayable",
      "type": "function"
    },
    {
      "inputs": [
        {
          "internalType": "address",
          "name": "admin",
          "type": "address"
        }
      ],
      "name": "removePoolAdmin",
      "outputs": [],
      "stateMutability": "nonpayable",
      "type": "function"
    },
    {
      "inputs": [
        {
          "internalType": "address",
          "name": "admin",
          "type": "address"
        }
      ],
      "name": "removeRiskAdmin",
      "outputs": [],
      "stateMutability": "nonpayable",
      "type": "function"
    },
    {
      "inputs": [
        {
          "internalType": "bytes32",
          "name": "role",
          "type": "bytes32"
        },
        {
          "internalType": "address",
          "name": "account",
          "type": "address"
        }
      ],
      "name": "renounceRole",
      "outputs": [],
      "stateMutability": "nonpayable",
      "type": "function"
    },
    {
      "inputs": [
        {
          "internalType": "bytes32",
          "name": "role",
          "type": "bytes32"
        },
        {
          "internalType": "address",
          "name": "account",
          "type": "address"
        }
      ],
      "name": "revokeRole",
      "outputs": [],
      "stateMutability": "nonpayable",
      "type": "function"
    },
    {
      "inputs": [
        {
          "internalType": "bytes32",
          "name": "role",
          "type": "bytes32"
        },
        {
          "internalType": "bytes32",
          "name": "adminRole",
          "type": "bytes32"
        }
      ],
      "name": "setRoleAdmin",
      "outputs": [],
      "stateMutability": "nonpayable",
      "type": "function"
    },
    {
      "inputs": [
        {
          "internalType": "bytes4",
          "name": "interfaceId",
          "type": "bytes4"
        }
      ],
      "name": "supportsInterface",
      "outputs": [
        {
          "internalType": "bool",
          "name": "",
          "type": "bool"
        }
      ],
      "stateMutability": "view",
      "type": "function"
    }
  ],
  "bytecode": "0x60a06040523480156200001157600080fd5b5060405162001e6e38038062001e6e8339818101604052810190620000379190620003a1565b8073ffffffffffffffffffffffffffffffffffffffff1660808173ffffffffffffffffffffffffffffffffffffffff168152505060008173ffffffffffffffffffffffffffffffffffffffff16630e67178c6040518163ffffffff1660e01b8152600401602060405180830381865afa158015620000b9573d6000803e3d6000fd5b505050506040513d601f19601f82011682018060405250810190620000df919062000404565b9050600073ffffffffffffffffffffffffffffffffffffffff168173ffffffffffffffffffffffffffffffffffffffff1614156040518060400160405280600281526020017f3735000000000000000000000000000000000000000000000000000000000000815250906200018c576040517f08c379a0000000000000000000000000000000000000000000000000000000008152600401620001839190620004da565b60405180910390fd5b50620001a26000801b82620001aa60201b60201c565b5050620004fe565b620001bc8282620001c060201b60201c565b5050565b620001d28282620002b160201b60201c565b620002ad57600160008084815260200190815260200160002060000160008373ffffffffffffffffffffffffffffffffffffffff1673ffffffffffffffffffffffffffffffffffffffff16815260200190815260200160002060006101000a81548160ff021916908315150217905550620002526200031b60201b60201c565b73ffffffffffffffffffffffffffffffffffffffff168173ffffffffffffffffffffffffffffffffffffffff16837f2f8788117e7eff1d82e926ec794901d17c78024a50270940304540a733656f0d60405160405180910390a45b5050565b600080600084815260200190815260200160002060000160008373ffffffffffffffffffffffffffffffffffffffff1673ffffffffffffffffffffffffffffffffffffffff16815260200190815260200160002060009054906101000a900460ff16905092915050565b600033905090565b600080fd5b600073ffffffffffffffffffffffffffffffffffffffff82169050919050565b6000620003558262000328565b9050919050565b6000620003698262000348565b9050919050565b6200037b816200035c565b81146200038757600080fd5b50565b6000815190506200039b8162000370565b92915050565b600060208284031215620003ba57620003b962000323565b5b6000620003ca848285016200038a565b91505092915050565b620003de8162000348565b8114620003ea57600080fd5b50565b600081519050620003fe81620003d3565b92915050565b6000602082840312156200041d576200041c62000323565b5b60006200042d84828501620003ed565b91505092915050565b600081519050919050565b600082825260208201905092915050565b60005b838110156200047257808201518184015260208101905062000455565b8381111562000482576000848401525b50505050565b6000601f19601f8301169050919050565b6000620004a68262000436565b620004b2818562000441565b9350620004c481856020860162000452565b620004cf8162000488565b840191505092915050565b60006020820190508181036000830152620004f6818462000499565b905092915050565b6080516119546200051a600039600061070901526119546000f3fe608060405234801561001057600080fd5b50600436106101fb5760003560e01c8063674b5e4d1161011a5780639a2b96f7116100ad578063b5bfddea1161007c578063b5bfddea146105bc578063b8f6dba7146105da578063d547741f146105f8578063f83695cb14610614578063fa50f29714610630576101fb565b80639a2b96f71461054a5780639ac9d80b14610566578063a217fddf14610582578063a21bce15146105a0576101fb565b80637a9a93f4116100e95780637a9a93f4146104b25780637be53ca1146104ce57806391d14854146104fe5780639712fdf81461052e576101fb565b8063674b5e4d146104165780636e76fc8f14610446578063726600ce1461046457806378bb0a4314610494576101fb565b80632500f2b6116101925780633c5a08e5116101615780633c5a08e5146103a25780634f16b425146103be5780635577b7a9146103dc5780635b9a94e4146103fa576101fb565b80632500f2b61461031e578063253cf9801461034e5780632f2ff15d1461036a57806336568abe14610386576101fb565b8063179efb09116101ce578063179efb091461029a5780631e4e0091146102b657806322650caf146102d2578063248a9ca3146102ee576101fb565b806301ffc9a71461020057806304df017d146102305780630542975c1461024c57806313ee32e01461026a575b600080fd5b61021a60048036038101906102159190611271565b610660565b60405161022791906112b9565b60405180910390f35b61024a60048036038101906102459190611332565b6106da565b005b610254610707565b60405161026191906113be565b60405180910390f35b610284600480360381019061027f9190611332565b61072b565b60405161029191906112b9565b60405180910390f35b6102b460048036038101906102af9190611332565b61075e565b005b6102d060048036038101906102cb919061140f565b61078b565b005b6102ec60048036038101906102e79190611332565b6107af565b005b6103086004803603810190610303919061144f565b6107dc565b604051610315919061148b565b60405180910390f35b61033860048036038101906103339190611332565b6107fb565b60405161034591906112b9565b60405180910390f35b61036860048036038101906103639190611332565b61082e565b005b610384600480360381019061037f91906114a6565b61085b565b005b6103a0600480360381019061039b91906114a6565b610884565b005b6103bc60048036038101906103b79190611332565b610907565b005b6103c6610934565b6040516103d3919061148b565b60405180910390f35b6103e4610958565b6040516103f1919061148b565b60405180910390f35b610414600480360381019061040f9190611332565b61097c565b005b610430600480360381019061042b9190611332565b6109a9565b60405161043d91906112b9565b60405180910390f35b61044e6109dc565b60405161045b919061148b565b60405180910390f35b61047e60048036038101906104799190611332565b610a00565b60405161048b91906112b9565b60405180910390f35b61049c610a33565b6040516104a9919061148b565b60405180910390f35b6104cc60048036038101906104c79190611332565b610a57565b005b6104e860048036038101906104e39190611332565b610a84565b6040516104f591906112b9565b60405180910390f35b610518600480360381019061051391906114a6565b610ab7565b60405161052591906112b9565b60405180910390f35b61054860048036038101906105439190611332565b610b21565b005b610564600480360381019061055f9190611332565b610b4e565b005b610580600480360381019061057b9190611332565b610b7b565b005b61058a610ba8565b604051610597919061148b565b60405180910390f35b6105ba60048036038101906105b59190611332565b610baf565b005b6105c4610bdc565b6040516105d1919061148b565b60405180910390f35b6105e2610c00565b6040516105ef919061148b565b60405180910390f35b610612600480360381019061060d91906114a6565b610c24565b005b61062e60048036038101906106299190611332565b610c4d565b005b61064a60048036038101906106459190611332565b610c7a565b60405161065791906112b9565b60405180910390f35b60007f7965db0b000000000000000000000000000000000000000000000000000000007bffffffffffffffffffffffffffffffffffffffffffffffffffffffff1916827bffffffffffffffffffffffffffffffffffffffffffffffffffffffff191614806106d357506106d282610cad565b5b9050919050565b6107047f08fb31c3e81624356c3314088aa971b73bcc82d22bc3e3b184b4593077ae327882610c24565b50565b7f000000000000000000000000000000000000000000000000000000000000000081565b60006107577f19c860a63258efbd0ecb7d55c626237bf5c2044c26c073390b74f0c13c85743383610ab7565b9050919050565b6107887f5c91514091af31f62f596a314af7d5be40146b2f2355969392f055e12e0982fb8261085b565b50565b6000801b6107a08161079b610d17565b610d1f565b6107aa8383610dbc565b505050565b6107d97f12ad05bde78c5ab75238ce885307f96ecd482bb402ef831f99e7018a0f169b7b8261085b565b50565b6000806000838152602001908152602001600020600101549050919050565b60006108277f5c91514091af31f62f596a314af7d5be40146b2f2355969392f055e12e0982fb83610ab7565b9050919050565b6108587f939b8dfb57ecef2aea54a93a15e86768b9d4089f1ba61c245e6ec980695f4ca482610c24565b50565b610864826107dc565b61087581610870610d17565b610d1f565b61087f8383610e17565b505050565b61088c610d17565b73ffffffffffffffffffffffffffffffffffffffff168173ffffffffffffffffffffffffffffffffffffffff16146108f9576040517f08c379a00000000000000000000000000000000000000000000000000000000081526004016108f090611569565b60405180910390fd5b6109038282610ef7565b5050565b6109317f8aa855a911518ecfbe5bc3088c8f3dda7badf130faaf8ace33fdc33828e1816782610c24565b50565b7f8aa855a911518ecfbe5bc3088c8f3dda7badf130faaf8ace33fdc33828e1816781565b7f939b8dfb57ecef2aea54a93a15e86768b9d4089f1ba61c245e6ec980695f4ca481565b6109a67f8aa855a911518ecfbe5bc3088c8f3dda7badf130faaf8ace33fdc33828e181678261085b565b50565b60006109d57f8aa855a911518ecfbe5bc3088c8f3dda7badf130faaf8ace33fdc33828e1816783610ab7565b9050919050565b7f5c91514091af31f62f596a314af7d5be40146b2f2355969392f055e12e0982fb81565b6000610a2c7f08fb31c3e81624356c3314088aa971b73bcc82d22bc3e3b184b4593077ae327883610ab7565b9050919050565b7f19c860a63258efbd0ecb7d55c626237bf5c2044c26c073390b74f0c13c85743381565b610a817f5c91514091af31f62f596a314af7d5be40146b2f2355969392f055e12e0982fb82610c24565b50565b6000610ab07f12ad05bde78c5ab75238ce885307f96ecd482bb402ef831f99e7018a0f169b7b83610ab7565b9050919050565b600080600084815260200190815260200160002060000160008373ffffffffffffffffffffffffffffffffffffffff1673ffffffffffffffffffffffffffffffffffffffff16815260200190815260200160002060009054906101000a900460ff16905092915050565b610b4b7f08fb31c3e81624356c3314088aa971b73bcc82d22bc3e3b184b4593077ae32788261085b565b50565b610b787f19c860a63258efbd0ecb7d55c626237bf5c2044c26c073390b74f0c13c8574338261085b565b50565b610ba57f939b8dfb57ecef2aea54a93a15e86768b9d4089f1ba61c245e6ec980695f4ca48261085b565b50565b6000801b81565b610bd97f19c860a63258efbd0ecb7d55c626237bf5c2044c26c073390b74f0c13c85743382610c24565b50565b7f08fb31c3e81624356c3314088aa971b73bcc82d22bc3e3b184b4593077ae327881565b7f12ad05bde78c5ab75238ce885307f96ecd482bb402ef831f99e7018a0f169b7b81565b610c2d826107dc565b610c3e81610c39610d17565b610d1f565b610c488383610ef7565b505050565b610c777f12ad05bde78c5ab75238ce885307f96ecd482bb402ef831f99e7018a0f169b7b82610c24565b50565b6000610ca67f939b8dfb57ecef2aea54a93a15e86768b9d4089f1ba61c245e6ec980695f4ca483610ab7565b9050919050565b60007f01ffc9a7000000000000000000000000000000000000000000000000000000007bffffffffffffffffffffffffffffffffffffffffffffffffffffffff1916827bffffffffffffffffffffffffffffffffffffffffffffffffffffffff1916149050919050565b600033905090565b610d298282610ab7565b610db857610d4e8173ffffffffffffffffffffffffffffffffffffffff166014610fd8565b610d5c8360001c6020610fd8565b604051602001610d6d92919061169b565b6040516020818303038152906040526040517f08c379a0000000000000000000000000000000000000000000000000000000008152600401610daf919061171f565b60405180910390fd5b5050565b6000610dc7836107dc565b905081600080858152602001908152602001600020600101819055508181847fbd79b86ffe0ab8e8776151514217cd7cacd52c909f66475c3af44e129f0b00ff60405160405180910390a4505050565b610e218282610ab7565b610ef357600160008084815260200190815260200160002060000160008373ffffffffffffffffffffffffffffffffffffffff1673ffffffffffffffffffffffffffffffffffffffff16815260200190815260200160002060006101000a81548160ff021916908315150217905550610e98610d17565b73ffffffffffffffffffffffffffffffffffffffff168173ffffffffffffffffffffffffffffffffffffffff16837f2f8788117e7eff1d82e926ec794901d17c78024a50270940304540a733656f0d60405160405180910390a45b5050565b610f018282610ab7565b15610fd457600080600084815260200190815260200160002060000160008373ffffffffffffffffffffffffffffffffffffffff1673ffffffffffffffffffffffffffffffffffffffff16815260200190815260200160002060006101000a81548160ff021916908315150217905550610f79610d17565b73ffffffffffffffffffffffffffffffffffffffff168173ffffffffffffffffffffffffffffffffffffffff16837ff6391f5c32d9c69d2a47ea670b442974b53935d1edc7fd64eb21e047a839171b60405160405180910390a45b5050565b606060006002836002610feb919061177a565b610ff591906117d4565b67ffffffffffffffff81111561100e5761100d61182a565b5b6040519080825280601f01601f1916602001820160405280156110405781602001600182028036833780820191505090505b5090507f30000000000000000000000000000000000000000000000000000000000000008160008151811061107857611077611859565b5b60200101907effffffffffffffffffffffffffffffffffffffffffffffffffffffffffffff1916908160001a9053507f7800000000000000000000000000000000000000000000000000000000000000816001815181106110dc576110db611859565b5b60200101907effffffffffffffffffffffffffffffffffffffffffffffffffffffffffffff1916908160001a9053506000600184600261111c919061177a565b61112691906117d4565b90505b60018111156111c6577f3031323334353637383961626364656600000000000000000000000000000000600f86166010811061116857611167611859565b5b1a60f81b82828151811061117f5761117e611859565b5b60200101907effffffffffffffffffffffffffffffffffffffffffffffffffffffffffffff1916908160001a905350600485901c9450806111bf90611888565b9050611129565b506000841461120a576040517f08c379a0000000000000000000000000000000000000000000000000000000008152600401611201906118fe565b60405180910390fd5b8091505092915050565b600080fd5b60007fffffffff0000000000000000000000000000000000000000000000000000000082169050919050565b61124e81611219565b811461125957600080fd5b50565b60008135905061126b81611245565b92915050565b60006020828403121561128757611286611214565b5b60006112958482850161125c565b91505092915050565b60008115159050919050565b6112b38161129e565b82525050565b60006020820190506112ce60008301846112aa565b92915050565b600073ffffffffffffffffffffffffffffffffffffffff82169050919050565b60006112ff826112d4565b9050919050565b61130f816112f4565b811461131a57600080fd5b50565b60008135905061132c81611306565b92915050565b60006020828403121561134857611347611214565b5b60006113568482850161131d565b91505092915050565b6000819050919050565b600061138461137f61137a846112d4565b61135f565b6112d4565b9050919050565b600061139682611369565b9050919050565b60006113a88261138b565b9050919050565b6113b88161139d565b82525050565b60006020820190506113d360008301846113af565b92915050565b6000819050919050565b6113ec816113d9565b81146113f757600080fd5b50565b600081359050611409816113e3565b92915050565b6000806040838503121561142657611425611214565b5b6000611434858286016113fa565b9250506020611445858286016113fa565b9150509250929050565b60006020828403121561146557611464611214565b5b6000611473848285016113fa565b91505092915050565b611485816113d9565b82525050565b60006020820190506114a0600083018461147c565b92915050565b600080604083850312156114bd576114bc611214565b5b60006114cb858286016113fa565b92505060206114dc8582860161131d565b9150509250929050565b600082825260208201905092915050565b7f416363657373436f6e74726f6c3a2063616e206f6e6c792072656e6f756e636560008201527f20726f6c657320666f722073656c660000000000000000000000000000000000602082015250565b6000611553602f836114e6565b915061155e826114f7565b604082019050919050565b6000602082019050818103600083015261158281611546565b9050919050565b600081905092915050565b7f416363657373436f6e74726f6c3a206163636f756e7420000000000000000000600082015250565b60006115ca601783611589565b91506115d582611594565b601782019050919050565b600081519050919050565b60005b838110156116095780820151818401526020810190506115ee565b83811115611618576000848401525b50505050565b6000611629826115e0565b6116338185611589565b93506116438185602086016115eb565b80840191505092915050565b7f206973206d697373696e6720726f6c6520000000000000000000000000000000600082015250565b6000611685601183611589565b91506116908261164f565b601182019050919050565b60006116a6826115bd565b91506116b2828561161e565b91506116bd82611678565b91506116c9828461161e565b91508190509392505050565b6000601f19601f8301169050919050565b60006116f1826115e0565b6116fb81856114e6565b935061170b8185602086016115eb565b611714816116d5565b840191505092915050565b6000602082019050818103600083015261173981846116e6565b905092915050565b6000819050919050565b7f4e487b7100000000000000000000000000000000000000000000000000000000600052601160045260246000fd5b600061178582611741565b915061179083611741565b9250817fffffffffffffffffffffffffffffffffffffffffffffffffffffffffffffffff04831182151516156117c9576117c861174b565b5b828202905092915050565b60006117df82611741565b91506117ea83611741565b9250827fffffffffffffffffffffffffffffffffffffffffffffffffffffffffffffffff0382111561181f5761181e61174b565b5b828201905092915050565b7f4e487b7100000000000000000000000000000000000000000000000000000000600052604160045260246000fd5b7f4e487b7100000000000000000000000000000000000000000000000000000000600052603260045260246000fd5b600061189382611741565b915060008214156118a7576118a661174b565b5b600182039050919050565b7f537472696e67733a20686578206c656e67746820696e73756666696369656e74600082015250565b60006118e86020836114e6565b91506118f3826118b2565b602082019050919050565b60006020820190508181036000830152611917816118db565b905091905056fea264697066735822122056033dba591f6ef0c3e790af314004f44aff25f3fe20becb1538df0dcbc5da8e64736f6c634300080a0033",
  "linkReferences": {},
  "deployedLinkReferences": {}
}