{
  "_format": "hh-sol-artifact-1",
  "contractName": "ReservesSetupHelper",
  "sourceName": "contracts/Aave_Contracts/deployments/ReservesSetupHelper.sol",
  "abi": [
    {
      "anonymous": false,
      "inputs": [
        {
          "indexed": true,
          "internalType": "address",
          "name": "previousOwner",
          "type": "address"
        },
        {
          "indexed": true,
          "internalType": "address",
          "name": "newOwner",
          "type": "address"
        }
      ],
      "name": "OwnershipTransferred",
      "type": "event"
    },
    {
      "inputs": [
        {
          "internalType": "contract PoolConfigurator",
          "name": "configurator",
          "type": "address"
        },
        {
          "components": [
            {
              "internalType": "address",
              "name": "asset",
              "type": "address"
            },
            {
              "internalType": "uint256",
              "name": "baseLTV",
              "type": "uint256"
            },
            {
              "internalType": "uint256",
              "name": "liquidationThreshold",
              "type": "uint256"
            },
            {
              "internalType": "uint256",
              "name": "liquidationBonus",
              "type": "uint256"
            },
            {
              "internalType": "uint256",
              "name": "reserveFactor",
              "type": "uint256"
            },
            {
              "internalType": "uint256",
              "name": "borrowCap",
              "type": "uint256"
            },
            {
              "internalType": "uint256",
              "name": "supplyCap",
              "type": "uint256"
            },
            {
              "internalType": "bool",
              "name": "stableBorrowingEnabled",
              "type": "bool"
            },
            {
              "internalType": "bool",
              "name": "borrowingEnabled",
              "type": "bool"
            }
          ],
          "internalType": "struct ReservesSetupHelper.ConfigureReserveInput[]",
          "name": "inputParams",
          "type": "tuple[]"
        }
      ],
      "name": "configureReserves",
      "outputs": [],
      "stateMutability": "nonpayable",
      "type": "function"
    },
    {
      "inputs": [],
      "name": "owner",
      "outputs": [
        {
          "internalType": "address",
          "name": "",
          "type": "address"
        }
      ],
      "stateMutability": "view",
      "type": "function"
    },
    {
      "inputs": [],
      "name": "renounceOwnership",
      "outputs": [],
      "stateMutability": "nonpayable",
      "type": "function"
    },
    {
      "inputs": [
        {
          "internalType": "address",
          "name": "newOwner",
          "type": "address"
        }
      ],
      "name": "transferOwnership",
      "outputs": [],
      "stateMutability": "nonpayable",
      "type": "function"
    }
  ],
  "bytecode": "0x608060405234801561001057600080fd5b5060006100216100c460201b60201c565b9050806000806101000a81548173ffffffffffffffffffffffffffffffffffffffff021916908373ffffffffffffffffffffffffffffffffffffffff1602179055508073ffffffffffffffffffffffffffffffffffffffff16600073ffffffffffffffffffffffffffffffffffffffff167f8be0079c531659141344cd1fd0a4f28419497f9722a3daafe3b4186f6b6457e060405160405180910390a3506100cc565b600033905090565b610e27806100db6000396000f3fe608060405234801561001057600080fd5b506004361061004c5760003560e01c8063715018a614610051578063778128311461005b5780638da5cb5b14610077578063f2fde38b14610095575b600080fd5b6100596100b1565b005b61007560048036038101906100709190610a34565b610204565b005b61007f610761565b60405161008c9190610aa3565b60405180910390f35b6100af60048036038101906100aa9190610aea565b61078a565b005b6100b961094c565b73ffffffffffffffffffffffffffffffffffffffff1660008054906101000a900473ffffffffffffffffffffffffffffffffffffffff1673ffffffffffffffffffffffffffffffffffffffff1614610146576040517f08c379a000000000000000000000000000000000000000000000000000000000815260040161013d90610b74565b60405180910390fd5b600073ffffffffffffffffffffffffffffffffffffffff1660008054906101000a900473ffffffffffffffffffffffffffffffffffffffff1673ffffffffffffffffffffffffffffffffffffffff167f8be0079c531659141344cd1fd0a4f28419497f9722a3daafe3b4186f6b6457e060405160405180910390a360008060006101000a81548173ffffffffffffffffffffffffffffffffffffffff021916908373ffffffffffffffffffffffffffffffffffffffff160217905550565b61020c61094c565b73ffffffffffffffffffffffffffffffffffffffff1660008054906101000a900473ffffffffffffffffffffffffffffffffffffffff1673ffffffffffffffffffffffffffffffffffffffff1614610299576040517f08c379a000000000000000000000000000000000000000000000000000000000815260040161029090610b74565b60405180910390fd5b60005b8282905081101561075b578373ffffffffffffffffffffffffffffffffffffffff16637c4e560b8484848181106102d6576102d5610b94565b5b9050610120020160000160208101906102ef9190610aea565b85858581811061030257610301610b94565b5b90506101200201602001358686868181106103205761031f610b94565b5b905061012002016040013587878781811061033e5761033d610b94565b5b90506101200201606001356040518563ffffffff1660e01b81526004016103689493929190610bdc565b600060405180830381600087803b15801561038257600080fd5b505af1158015610396573d6000803e3d6000fd5b505050508282828181106103ad576103ac610b94565b5b905061012002016101000160208101906103c79190610c59565b156105de578373ffffffffffffffffffffffffffffffffffffffff1663682cf2648484848181106103fb576103fa610b94565b5b9050610120020160000160208101906104149190610aea565b60016040518363ffffffff1660e01b8152600401610433929190610c95565b600060405180830381600087803b15801561044d57600080fd5b505af1158015610461573d6000803e3d6000fd5b505050508373ffffffffffffffffffffffffffffffffffffffff1663d14a098384848481811061049457610493610b94565b5b9050610120020160000160208101906104ad9190610aea565b8585858181106104c0576104bf610b94565b5b9050610120020160a001356040518363ffffffff1660e01b81526004016104e8929190610cbe565b600060405180830381600087803b15801561050257600080fd5b505af1158015610516573d6000803e3d6000fd5b505050508373ffffffffffffffffffffffffffffffffffffffff16638a751a6084848481811061054957610548610b94565b5b9050610120020160000160208101906105629190610aea565b85858581811061057557610574610b94565b5b9050610120020160e001602081019061058e9190610c59565b6040518363ffffffff1660e01b81526004016105ab929190610c95565b600060405180830381600087803b1580156105c557600080fd5b505af11580156105d9573d6000803e3d6000fd5b505050505b8373ffffffffffffffffffffffffffffffffffffffff1663571f03e584848481811061060d5761060c610b94565b5b9050610120020160000160208101906106269190610aea565b85858581811061063957610638610b94565b5b9050610120020160c001356040518363ffffffff1660e01b8152600401610661929190610cbe565b600060405180830381600087803b15801561067b57600080fd5b505af115801561068f573d6000803e3d6000fd5b505050508373ffffffffffffffffffffffffffffffffffffffff16634b4e67538484848181106106c2576106c1610b94565b5b9050610120020160000160208101906106db9190610aea565b8585858181106106ee576106ed610b94565b5b90506101200201608001356040518363ffffffff1660e01b8152600401610716929190610cbe565b600060405180830381600087803b15801561073057600080fd5b505af1158015610744573d6000803e3d6000fd5b50505050808061075390610d16565b91505061029c565b50505050565b60008060009054906101000a900473ffffffffffffffffffffffffffffffffffffffff16905090565b61079261094c565b73ffffffffffffffffffffffffffffffffffffffff1660008054906101000a900473ffffffffffffffffffffffffffffffffffffffff1673ffffffffffffffffffffffffffffffffffffffff161461081f576040517f08c379a000000000000000000000000000000000000000000000000000000000815260040161081690610b74565b60405180910390fd5b600073ffffffffffffffffffffffffffffffffffffffff168173ffffffffffffffffffffffffffffffffffffffff16141561088f576040517f08c379a000000000000000000000000000000000000000000000000000000000815260040161088690610dd1565b60405180910390fd5b8073ffffffffffffffffffffffffffffffffffffffff1660008054906101000a900473ffffffffffffffffffffffffffffffffffffffff1673ffffffffffffffffffffffffffffffffffffffff167f8be0079c531659141344cd1fd0a4f28419497f9722a3daafe3b4186f6b6457e060405160405180910390a3806000806101000a81548173ffffffffffffffffffffffffffffffffffffffff021916908373ffffffffffffffffffffffffffffffffffffffff16021790555050565b600033905090565b600080fd5b600080fd5b600073ffffffffffffffffffffffffffffffffffffffff82169050919050565b60006109898261095e565b9050919050565b600061099b8261097e565b9050919050565b6109ab81610990565b81146109b657600080fd5b50565b6000813590506109c8816109a2565b92915050565b600080fd5b600080fd5b600080fd5b60008083601f8401126109f3576109f26109ce565b5b8235905067ffffffffffffffff811115610a1057610a0f6109d3565b5b60208301915083610120820283011115610a2d57610a2c6109d8565b5b9250929050565b600080600060408486031215610a4d57610a4c610954565b5b6000610a5b868287016109b9565b935050602084013567ffffffffffffffff811115610a7c57610a7b610959565b5b610a88868287016109dd565b92509250509250925092565b610a9d8161097e565b82525050565b6000602082019050610ab86000830184610a94565b92915050565b610ac78161097e565b8114610ad257600080fd5b50565b600081359050610ae481610abe565b92915050565b600060208284031215610b0057610aff610954565b5b6000610b0e84828501610ad5565b91505092915050565b600082825260208201905092915050565b7f4f776e61626c653a2063616c6c6572206973206e6f7420746865206f776e6572600082015250565b6000610b5e602083610b17565b9150610b6982610b28565b602082019050919050565b60006020820190508181036000830152610b8d81610b51565b9050919050565b7f4e487b7100000000000000000000000000000000000000000000000000000000600052603260045260246000fd5b6000819050919050565b610bd681610bc3565b82525050565b6000608082019050610bf16000830187610a94565b610bfe6020830186610bcd565b610c0b6040830185610bcd565b610c186060830184610bcd565b95945050505050565b60008115159050919050565b610c3681610c21565b8114610c4157600080fd5b50565b600081359050610c5381610c2d565b92915050565b600060208284031215610c6f57610c6e610954565b5b6000610c7d84828501610c44565b91505092915050565b610c8f81610c21565b82525050565b6000604082019050610caa6000830185610a94565b610cb76020830184610c86565b9392505050565b6000604082019050610cd36000830185610a94565b610ce06020830184610bcd565b9392505050565b7f4e487b7100000000000000000000000000000000000000000000000000000000600052601160045260246000fd5b6000610d2182610bc3565b91507fffffffffffffffffffffffffffffffffffffffffffffffffffffffffffffffff821415610d5457610d53610ce7565b5b600182019050919050565b7f4f776e61626c653a206e6577206f776e657220697320746865207a65726f206160008201527f6464726573730000000000000000000000000000000000000000000000000000602082015250565b6000610dbb602683610b17565b9150610dc682610d5f565b604082019050919050565b60006020820190508181036000830152610dea81610dae565b905091905056fea264697066735822122057703c6becb82b9935af4246a68aecd9239beb0a3b719a4e18a426a3f18e21c164736f6c634300080a0033",
  "linkReferences": {},
  "deployedLinkReferences": {}
}