{
  "_format": "hh-sol-artifact-1",
  "contractName": "SelfdestructTransfer",
  "sourceName": "contracts/Aave_Contracts/mocks/helpers/SelfDestructTransfer.sol",
  "abi": [
    {
      "inputs": [
        {
          "internalType": "address payable",
          "name": "to",
          "type": "address"
        }
      ],
      "name": "destroyAndTransfer",
      "outputs": [],
      "stateMutability": "payable",
      "type": "function"
    }
  ],
  "bytecode": "0x608060405234801561001057600080fd5b5061010c806100206000396000f3fe608060405260043610601c5760003560e01c8063785e07b3146021575b600080fd5b603760048036038101906033919060ae565b6039565b005b8073ffffffffffffffffffffffffffffffffffffffff16ff5b600080fd5b600073ffffffffffffffffffffffffffffffffffffffff82169050919050565b60006080826057565b9050919050565b608e816077565b8114609857600080fd5b50565b60008135905060a8816087565b92915050565b60006020828403121560c15760c06052565b5b600060cd84828501609b565b9150509291505056fea2646970667358221220e65b9907465efea9e43149a58cd85aa6999c2faa766586224d830cd8dbec0a7064736f6c634300080a0033",
  "linkReferences": {},
  "deployedLinkReferences": {}
}