{
  "_format": "hh-sol-artifact-1",
  "contractName": "MockPoolInherited",
  "sourceName": "contracts/Aave_Contracts/mocks/helpers/MockPool.sol",
  "abi": [
    {
      "inputs": [
        {
          "internalType": "contract IPoolAddressesProvider",
          "name": "provider",
          "type": "address"
        }
      ],
      "stateMutability": "nonpayable",
      "type": "constructor"
    },
    {
      "anonymous": false,
      "inputs": [
        {
          "indexed": true,
          "internalType": "address",
          "name": "reserve",
          "type": "address"
        },
        {
          "indexed": true,
          "internalType": "address",
          "name": "backer",
          "type": "address"
        },
        {
          "indexed": false,
          "internalType": "uint256",
          "name": "amount",
          "type": "uint256"
        },
        {
          "indexed": false,
          "internalType": "uint256",
          "name": "fee",
          "type": "uint256"
        }
      ],
      "name": "BackUnbacked",
      "type": "event"
    },
    {
      "anonymous": false,
      "inputs": [
        {
          "indexed": true,
          "internalType": "address",
          "name": "reserve",
          "type": "address"
        },
        {
          "indexed": false,
          "internalType": "address",
          "name": "user",
          "type": "address"
        },
        {
          "indexed": true,
          "internalType": "address",
          "name": "onBehalfOf",
          "type": "address"
        },
        {
          "indexed": false,
          "internalType": "uint256",
          "name": "amount",
          "type": "uint256"
        },
        {
          "indexed": false,
          "internalType": "enum DataTypes.InterestRateMode",
          "name": "interestRateMode",
          "type": "uint8"
        },
        {
          "indexed": false,
          "internalType": "uint256",
          "name": "borrowRate",
          "type": "uint256"
        },
        {
          "indexed": true,
          "internalType": "uint16",
          "name": "referralCode",
          "type": "uint16"
        }
      ],
      "name": "Borrow",
      "type": "event"
    },
    {
      "anonymous": false,
      "inputs": [
        {
          "indexed": true,
          "internalType": "address",
          "name": "target",
          "type": "address"
        },
        {
          "indexed": false,
          "internalType": "address",
          "name": "initiator",
          "type": "address"
        },
        {
          "indexed": true,
          "internalType": "address",
          "name": "asset",
          "type": "address"
        },
        {
          "indexed": false,
          "internalType": "uint256",
          "name": "amount",
          "type": "uint256"
        },
        {
          "indexed": false,
          "internalType": "enum DataTypes.InterestRateMode",
          "name": "interestRateMode",
          "type": "uint8"
        },
        {
          "indexed": false,
          "internalType": "uint256",
          "name": "premium",
          "type": "uint256"
        },
        {
          "indexed": true,
          "internalType": "uint16",
          "name": "referralCode",
          "type": "uint16"
        }
      ],
      "name": "FlashLoan",
      "type": "event"
    },
    {
      "anonymous": false,
      "inputs": [
        {
          "indexed": true,
          "internalType": "address",
          "name": "asset",
          "type": "address"
        },
        {
          "indexed": false,
          "internalType": "uint256",
          "name": "totalDebt",
          "type": "uint256"
        }
      ],
      "name": "IsolationModeTotalDebtUpdated",
      "type": "event"
    },
    {
      "anonymous": false,
      "inputs": [
        {
          "indexed": true,
          "internalType": "address",
          "name": "collateralAsset",
          "type": "address"
        },
        {
          "indexed": true,
          "internalType": "address",
          "name": "debtAsset",
          "type": "address"
        },
        {
          "indexed": true,
          "internalType": "address",
          "name": "user",
          "type": "address"
        },
        {
          "indexed": false,
          "internalType": "uint256",
          "name": "debtToCover",
          "type": "uint256"
        },
        {
          "indexed": false,
          "internalType": "uint256",
          "name": "liquidatedCollateralAmount",
          "type": "uint256"
        },
        {
          "indexed": false,
          "internalType": "address",
          "name": "liquidator",
          "type": "address"
        },
        {
          "indexed": false,
          "internalType": "bool",
          "name": "receiveAToken",
          "type": "bool"
        }
      ],
      "name": "LiquidationCall",
      "type": "event"
    },
    {
      "anonymous": false,
      "inputs": [
        {
          "indexed": true,
          "internalType": "address",
          "name": "reserve",
          "type": "address"
        },
        {
          "indexed": false,
          "internalType": "address",
          "name": "user",
          "type": "address"
        },
        {
          "indexed": true,
          "internalType": "address",
          "name": "onBehalfOf",
          "type": "address"
        },
        {
          "indexed": false,
          "internalType": "uint256",
          "name": "amount",
          "type": "uint256"
        },
        {
          "indexed": true,
          "internalType": "uint16",
          "name": "referralCode",
          "type": "uint16"
        }
      ],
      "name": "MintUnbacked",
      "type": "event"
    },
    {
      "anonymous": false,
      "inputs": [
        {
          "indexed": true,
          "internalType": "address",
          "name": "reserve",
          "type": "address"
        },
        {
          "indexed": false,
          "internalType": "uint256",
          "name": "amountMinted",
          "type": "uint256"
        }
      ],
      "name": "MintedToTreasury",
      "type": "event"
    },
    {
      "anonymous": false,
      "inputs": [
        {
          "indexed": true,
          "internalType": "address",
          "name": "reserve",
          "type": "address"
        },
        {
          "indexed": true,
          "internalType": "address",
          "name": "user",
          "type": "address"
        }
      ],
      "name": "RebalanceStableBorrowRate",
      "type": "event"
    },
    {
      "anonymous": false,
      "inputs": [
        {
          "indexed": true,
          "internalType": "address",
          "name": "reserve",
          "type": "address"
        },
        {
          "indexed": true,
          "internalType": "address",
          "name": "user",
          "type": "address"
        },
        {
          "indexed": true,
          "internalType": "address",
          "name": "repayer",
          "type": "address"
        },
        {
          "indexed": false,
          "internalType": "uint256",
          "name": "amount",
          "type": "uint256"
        },
        {
          "indexed": false,
          "internalType": "bool",
          "name": "useATokens",
          "type": "bool"
        }
      ],
      "name": "Repay",
      "type": "event"
    },
    {
      "anonymous": false,
      "inputs": [
        {
          "indexed": true,
          "internalType": "address",
          "name": "reserve",
          "type": "address"
        },
        {
          "indexed": false,
          "internalType": "uint256",
          "name": "liquidityRate",
          "type": "uint256"
        },
        {
          "indexed": false,
          "internalType": "uint256",
          "name": "stableBorrowRate",
          "type": "uint256"
        },
        {
          "indexed": false,
          "internalType": "uint256",
          "name": "variableBorrowRate",
          "type": "uint256"
        },
        {
          "indexed": false,
          "internalType": "uint256",
          "name": "liquidityIndex",
          "type": "uint256"
        },
        {
          "indexed": false,
          "internalType": "uint256",
          "name": "variableBorrowIndex",
          "type": "uint256"
        }
      ],
      "name": "ReserveDataUpdated",
      "type": "event"
    },
    {
      "anonymous": false,
      "inputs": [
        {
          "indexed": true,
          "internalType": "address",
          "name": "reserve",
          "type": "address"
        },
        {
          "indexed": true,
          "internalType": "address",
          "name": "user",
          "type": "address"
        }
      ],
      "name": "ReserveUsedAsCollateralDisabled",
      "type": "event"
    },
    {
      "anonymous": false,
      "inputs": [
        {
          "indexed": true,
          "internalType": "address",
          "name": "reserve",
          "type": "address"
        },
        {
          "indexed": true,
          "internalType": "address",
          "name": "user",
          "type": "address"
        }
      ],
      "name": "ReserveUsedAsCollateralEnabled",
      "type": "event"
    },
    {
      "anonymous": false,
      "inputs": [
        {
          "indexed": true,
          "internalType": "address",
          "name": "reserve",
          "type": "address"
        },
        {
          "indexed": false,
          "internalType": "address",
          "name": "user",
          "type": "address"
        },
        {
          "indexed": true,
          "internalType": "address",
          "name": "onBehalfOf",
          "type": "address"
        },
        {
          "indexed": false,
          "internalType": "uint256",
          "name": "amount",
          "type": "uint256"
        },
        {
          "indexed": true,
          "internalType": "uint16",
          "name": "referralCode",
          "type": "uint16"
        }
      ],
      "name": "Supply",
      "type": "event"
    },
    {
      "anonymous": false,
      "inputs": [
        {
          "indexed": true,
          "internalType": "address",
          "name": "reserve",
          "type": "address"
        },
        {
          "indexed": true,
          "internalType": "address",
          "name": "user",
          "type": "address"
        },
        {
          "indexed": false,
          "internalType": "enum DataTypes.InterestRateMode",
          "name": "interestRateMode",
          "type": "uint8"
        }
      ],
      "name": "SwapBorrowRateMode",
      "type": "event"
    },
    {
      "anonymous": false,
      "inputs": [
        {
          "indexed": true,
          "internalType": "address",
          "name": "user",
          "type": "address"
        },
        {
          "indexed": false,
          "internalType": "uint8",
          "name": "categoryId",
          "type": "uint8"
        }
      ],
      "name": "UserEModeSet",
      "type": "event"
    },
    {
      "anonymous": false,
      "inputs": [
        {
          "indexed": true,
          "internalType": "address",
          "name": "reserve",
          "type": "address"
        },
        {
          "indexed": true,
          "internalType": "address",
          "name": "user",
          "type": "address"
        },
        {
          "indexed": true,
          "internalType": "address",
          "name": "to",
          "type": "address"
        },
        {
          "indexed": false,
          "internalType": "uint256",
          "name": "amount",
          "type": "uint256"
        }
      ],
      "name": "Withdraw",
      "type": "event"
    },
    {
      "inputs": [],
      "name": "ADDRESSES_PROVIDER",
      "outputs": [
        {
          "internalType": "contract IPoolAddressesProvider",
          "name": "",
          "type": "address"
        }
      ],
      "stateMutability": "view",
      "type": "function"
    },
    {
      "inputs": [],
      "name": "BRIDGE_PROTOCOL_FEE",
      "outputs": [
        {
          "internalType": "uint256",
          "name": "",
          "type": "uint256"
        }
      ],
      "stateMutability": "view",
      "type": "function"
    },
    {
      "inputs": [],
      "name": "FLASHLOAN_PREMIUM_TOTAL",
      "outputs": [
        {
          "internalType": "uint128",
          "name": "",
          "type": "uint128"
        }
      ],
      "stateMutability": "view",
      "type": "function"
    },
    {
      "inputs": [],
      "name": "FLASHLOAN_PREMIUM_TO_PROTOCOL",
      "outputs": [
        {
          "internalType": "uint128",
          "name": "",
          "type": "uint128"
        }
      ],
      "stateMutability": "view",
      "type": "function"
    },
    {
      "inputs": [],
      "name": "MAX_NUMBER_RESERVES",
      "outputs": [
        {
          "internalType": "uint16",
          "name": "",
          "type": "uint16"
        }
      ],
      "stateMutability": "view",
      "type": "function"
    },
    {
      "inputs": [],
      "name": "MAX_STABLE_RATE_BORROW_SIZE_PERCENT",
      "outputs": [
        {
          "internalType": "uint256",
          "name": "",
          "type": "uint256"
        }
      ],
      "stateMutability": "view",
      "type": "function"
    },
    {
      "inputs": [],
      "name": "POOL_REVISION",
      "outputs": [
        {
          "internalType": "uint256",
          "name": "",
          "type": "uint256"
        }
      ],
      "stateMutability": "view",
      "type": "function"
    },
    {
      "inputs": [
        {
          "internalType": "address",
          "name": "asset",
          "type": "address"
        },
        {
          "internalType": "uint256",
          "name": "amount",
          "type": "uint256"
        },
        {
          "internalType": "uint256",
          "name": "fee",
          "type": "uint256"
        }
      ],
      "name": "backUnbacked",
      "outputs": [],
      "stateMutability": "nonpayable",
      "type": "function"
    },
    {
      "inputs": [
        {
          "internalType": "address",
          "name": "asset",
          "type": "address"
        },
        {
          "internalType": "uint256",
          "name": "amount",
          "type": "uint256"
        },
        {
          "internalType": "uint256",
          "name": "interestRateMode",
          "type": "uint256"
        },
        {
          "internalType": "uint16",
          "name": "referralCode",
          "type": "uint16"
        },
        {
          "internalType": "address",
          "name": "onBehalfOf",
          "type": "address"
        }
      ],
      "name": "borrow",
      "outputs": [],
      "stateMutability": "nonpayable",
      "type": "function"
    },
    {
      "inputs": [
        {
          "internalType": "uint8",
          "name": "id",
          "type": "uint8"
        },
        {
          "components": [
            {
              "internalType": "uint16",
              "name": "ltv",
              "type": "uint16"
            },
            {
              "internalType": "uint16",
              "name": "liquidationThreshold",
              "type": "uint16"
            },
            {
              "internalType": "uint16",
              "name": "liquidationBonus",
              "type": "uint16"
            },
            {
              "internalType": "address",
              "name": "priceSource",
              "type": "address"
            },
            {
              "internalType": "string",
              "name": "label",
              "type": "string"
            }
          ],
          "internalType": "struct DataTypes.EModeCategory",
          "name": "category",
          "type": "tuple"
        }
      ],
      "name": "configureEModeCategory",
      "outputs": [],
      "stateMutability": "nonpayable",
      "type": "function"
    },
    {
      "inputs": [
        {
          "internalType": "address",
          "name": "asset",
          "type": "address"
        },
        {
          "internalType": "uint256",
          "name": "amount",
          "type": "uint256"
        },
        {
          "internalType": "address",
          "name": "onBehalfOf",
          "type": "address"
        },
        {
          "internalType": "uint16",
          "name": "referralCode",
          "type": "uint16"
        }
      ],
      "name": "deposit",
      "outputs": [],
      "stateMutability": "nonpayable",
      "type": "function"
    },
    {
      "inputs": [
        {
          "internalType": "address",
          "name": "asset",
          "type": "address"
        }
      ],
      "name": "dropReserve",
      "outputs": [],
      "stateMutability": "nonpayable",
      "type": "function"
    },
    {
      "inputs": [
        {
          "internalType": "address",
          "name": "asset",
          "type": "address"
        },
        {
          "internalType": "address",
          "name": "from",
          "type": "address"
        },
        {
          "internalType": "address",
          "name": "to",
          "type": "address"
        },
        {
          "internalType": "uint256",
          "name": "amount",
          "type": "uint256"
        },
        {
          "internalType": "uint256",
          "name": "balanceFromBefore",
          "type": "uint256"
        },
        {
          "internalType": "uint256",
          "name": "balanceToBefore",
          "type": "uint256"
        }
      ],
      "name": "finalizeTransfer",
      "outputs": [],
      "stateMutability": "nonpayable",
      "type": "function"
    },
    {
      "inputs": [
        {
          "internalType": "address",
          "name": "receiverAddress",
          "type": "address"
        },
        {
          "internalType": "address[]",
          "name": "assets",
          "type": "address[]"
        },
        {
          "internalType": "uint256[]",
          "name": "amounts",
          "type": "uint256[]"
        },
        {
          "internalType": "uint256[]",
          "name": "interestRateModes",
          "type": "uint256[]"
        },
        {
          "internalType": "address",
          "name": "onBehalfOf",
          "type": "address"
        },
        {
          "internalType": "bytes",
          "name": "params",
          "type": "bytes"
        },
        {
          "internalType": "uint16",
          "name": "referralCode",
          "type": "uint16"
        }
      ],
      "name": "flashLoan",
      "outputs": [],
      "stateMutability": "nonpayable",
      "type": "function"
    },
    {
      "inputs": [
        {
          "internalType": "address",
          "name": "receiverAddress",
          "type": "address"
        },
        {
          "internalType": "address",
          "name": "asset",
          "type": "address"
        },
        {
          "internalType": "uint256",
          "name": "amount",
          "type": "uint256"
        },
        {
          "internalType": "bytes",
          "name": "params",
          "type": "bytes"
        },
        {
          "internalType": "uint16",
          "name": "referralCode",
          "type": "uint16"
        }
      ],
      "name": "flashLoanSimple",
      "outputs": [],
      "stateMutability": "nonpayable",
      "type": "function"
    },
    {
      "inputs": [
        {
          "internalType": "address",
          "name": "asset",
          "type": "address"
        }
      ],
      "name": "getConfiguration",
      "outputs": [
        {
          "components": [
            {
              "internalType": "uint256",
              "name": "data",
              "type": "uint256"
            }
          ],
          "internalType": "struct DataTypes.ReserveConfigurationMap",
          "name": "",
          "type": "tuple"
        }
      ],
      "stateMutability": "view",
      "type": "function"
    },
    {
      "inputs": [
        {
          "internalType": "uint8",
          "name": "id",
          "type": "uint8"
        }
      ],
      "name": "getEModeCategoryData",
      "outputs": [
        {
          "components": [
            {
              "internalType": "uint16",
              "name": "ltv",
              "type": "uint16"
            },
            {
              "internalType": "uint16",
              "name": "liquidationThreshold",
              "type": "uint16"
            },
            {
              "internalType": "uint16",
              "name": "liquidationBonus",
              "type": "uint16"
            },
            {
              "internalType": "address",
              "name": "priceSource",
              "type": "address"
            },
            {
              "internalType": "string",
              "name": "label",
              "type": "string"
            }
          ],
          "internalType": "struct DataTypes.EModeCategory",
          "name": "",
          "type": "tuple"
        }
      ],
      "stateMutability": "view",
      "type": "function"
    },
    {
      "inputs": [
        {
          "internalType": "uint16",
          "name": "id",
          "type": "uint16"
        }
      ],
      "name": "getReserveAddressById",
      "outputs": [
        {
          "internalType": "address",
          "name": "",
          "type": "address"
        }
      ],
      "stateMutability": "view",
      "type": "function"
    },
    {
      "inputs": [
        {
          "internalType": "address",
          "name": "asset",
          "type": "address"
        }
      ],
      "name": "getReserveData",
      "outputs": [
        {
          "components": [
            {
              "components": [
                {
                  "internalType": "uint256",
                  "name": "data",
                  "type": "uint256"
                }
              ],
              "internalType": "struct DataTypes.ReserveConfigurationMap",
              "name": "configuration",
              "type": "tuple"
            },
            {
              "internalType": "uint128",
              "name": "liquidityIndex",
              "type": "uint128"
            },
            {
              "internalType": "uint128",
              "name": "currentLiquidityRate",
              "type": "uint128"
            },
            {
              "internalType": "uint128",
              "name": "variableBorrowIndex",
              "type": "uint128"
            },
            {
              "internalType": "uint128",
              "name": "currentVariableBorrowRate",
              "type": "uint128"
            },
            {
              "internalType": "uint128",
              "name": "currentStableBorrowRate",
              "type": "uint128"
            },
            {
              "internalType": "uint40",
              "name": "lastUpdateTimestamp",
              "type": "uint40"
            },
            {
              "internalType": "uint16",
              "name": "id",
              "type": "uint16"
            },
            {
              "internalType": "address",
              "name": "aTokenAddress",
              "type": "address"
            },
            {
              "internalType": "address",
              "name": "stableDebtTokenAddress",
              "type": "address"
            },
            {
              "internalType": "address",
              "name": "variableDebtTokenAddress",
              "type": "address"
            },
            {
              "internalType": "address",
              "name": "interestRateStrategyAddress",
              "type": "address"
            },
            {
              "internalType": "uint128",
              "name": "accruedToTreasury",
              "type": "uint128"
            },
            {
              "internalType": "uint128",
              "name": "unbacked",
              "type": "uint128"
            },
            {
              "internalType": "uint128",
              "name": "isolationModeTotalDebt",
              "type": "uint128"
            }
          ],
          "internalType": "struct DataTypes.ReserveData",
          "name": "",
          "type": "tuple"
        }
      ],
      "stateMutability": "view",
      "type": "function"
    },
    {
      "inputs": [
        {
          "internalType": "address",
          "name": "asset",
          "type": "address"
        }
      ],
      "name": "getReserveNormalizedIncome",
      "outputs": [
        {
          "internalType": "uint256",
          "name": "",
          "type": "uint256"
        }
      ],
      "stateMutability": "view",
      "type": "function"
    },
    {
      "inputs": [
        {
          "internalType": "address",
          "name": "asset",
          "type": "address"
        }
      ],
      "name": "getReserveNormalizedVariableDebt",
      "outputs": [
        {
          "internalType": "uint256",
          "name": "",
          "type": "uint256"
        }
      ],
      "stateMutability": "view",
      "type": "function"
    },
    {
      "inputs": [],
      "name": "getReservesList",
      "outputs": [
        {
          "internalType": "address[]",
          "name": "",
          "type": "address[]"
        }
      ],
      "stateMutability": "view",
      "type": "function"
    },
    {
      "inputs": [
        {
          "internalType": "address",
          "name": "user",
          "type": "address"
        }
      ],
      "name": "getUserAccountData",
      "outputs": [
        {
          "internalType": "uint256",
          "name": "totalCollateralBase",
          "type": "uint256"
        },
        {
          "internalType": "uint256",
          "name": "totalDebtBase",
          "type": "uint256"
        },
        {
          "internalType": "uint256",
          "name": "availableBorrowsBase",
          "type": "uint256"
        },
        {
          "internalType": "uint256",
          "name": "currentLiquidationThreshold",
          "type": "uint256"
        },
        {
          "internalType": "uint256",
          "name": "ltv",
          "type": "uint256"
        },
        {
          "internalType": "uint256",
          "name": "healthFactor",
          "type": "uint256"
        }
      ],
      "stateMutability": "view",
      "type": "function"
    },
    {
      "inputs": [
        {
          "internalType": "address",
          "name": "user",
          "type": "address"
        }
      ],
      "name": "getUserConfiguration",
      "outputs": [
        {
          "components": [
            {
              "internalType": "uint256",
              "name": "data",
              "type": "uint256"
            }
          ],
          "internalType": "struct DataTypes.UserConfigurationMap",
          "name": "",
          "type": "tuple"
        }
      ],
      "stateMutability": "view",
      "type": "function"
    },
    {
      "inputs": [
        {
          "internalType": "address",
          "name": "user",
          "type": "address"
        }
      ],
      "name": "getUserEMode",
      "outputs": [
        {
          "internalType": "uint256",
          "name": "",
          "type": "uint256"
        }
      ],
      "stateMutability": "view",
      "type": "function"
    },
    {
      "inputs": [
        {
          "internalType": "address",
          "name": "asset",
          "type": "address"
        },
        {
          "internalType": "address",
          "name": "aTokenAddress",
          "type": "address"
        },
        {
          "internalType": "address",
          "name": "stableDebtAddress",
          "type": "address"
        },
        {
          "internalType": "address",
          "name": "variableDebtAddress",
          "type": "address"
        },
        {
          "internalType": "address",
          "name": "interestRateStrategyAddress",
          "type": "address"
        }
      ],
      "name": "initReserve",
      "outputs": [],
      "stateMutability": "nonpayable",
      "type": "function"
    },
    {
      "inputs": [
        {
          "internalType": "contract IPoolAddressesProvider",
          "name": "provider",
          "type": "address"
        }
      ],
      "name": "initialize",
      "outputs": [],
      "stateMutability": "nonpayable",
      "type": "function"
    },
    {
      "inputs": [
        {
          "internalType": "address",
          "name": "collateralAsset",
          "type": "address"
        },
        {
          "internalType": "address",
          "name": "debtAsset",
          "type": "address"
        },
        {
          "internalType": "address",
          "name": "user",
          "type": "address"
        },
        {
          "internalType": "uint256",
          "name": "debtToCover",
          "type": "uint256"
        },
        {
          "internalType": "bool",
          "name": "receiveAToken",
          "type": "bool"
        }
      ],
      "name": "liquidationCall",
      "outputs": [],
      "stateMutability": "nonpayable",
      "type": "function"
    },
    {
      "inputs": [
        {
          "internalType": "address[]",
          "name": "assets",
          "type": "address[]"
        }
      ],
      "name": "mintToTreasury",
      "outputs": [],
      "stateMutability": "nonpayable",
      "type": "function"
    },
    {
      "inputs": [
        {
          "internalType": "address",
          "name": "asset",
          "type": "address"
        },
        {
          "internalType": "uint256",
          "name": "amount",
          "type": "uint256"
        },
        {
          "internalType": "address",
          "name": "onBehalfOf",
          "type": "address"
        },
        {
          "internalType": "uint16",
          "name": "referralCode",
          "type": "uint16"
        }
      ],
      "name": "mintUnbacked",
      "outputs": [],
      "stateMutability": "nonpayable",
      "type": "function"
    },
    {
      "inputs": [
        {
          "internalType": "address",
          "name": "asset",
          "type": "address"
        },
        {
          "internalType": "address",
          "name": "user",
          "type": "address"
        }
      ],
      "name": "rebalanceStableBorrowRate",
      "outputs": [],
      "stateMutability": "nonpayable",
      "type": "function"
    },
    {
      "inputs": [
        {
          "internalType": "address",
          "name": "asset",
          "type": "address"
        },
        {
          "internalType": "uint256",
          "name": "amount",
          "type": "uint256"
        },
        {
          "internalType": "uint256",
          "name": "interestRateMode",
          "type": "uint256"
        },
        {
          "internalType": "address",
          "name": "onBehalfOf",
          "type": "address"
        }
      ],
      "name": "repay",
      "outputs": [
        {
          "internalType": "uint256",
          "name": "",
          "type": "uint256"
        }
      ],
      "stateMutability": "nonpayable",
      "type": "function"
    },
    {
      "inputs": [
        {
          "internalType": "address",
          "name": "asset",
          "type": "address"
        },
        {
          "internalType": "uint256",
          "name": "amount",
          "type": "uint256"
        },
        {
          "internalType": "uint256",
          "name": "interestRateMode",
          "type": "uint256"
        }
      ],
      "name": "repayWithATokens",
      "outputs": [
        {
          "internalType": "uint256",
          "name": "",
          "type": "uint256"
        }
      ],
      "stateMutability": "nonpayable",
      "type": "function"
    },
    {
      "inputs": [
        {
          "internalType": "address",
          "name": "asset",
          "type": "address"
        },
        {
          "internalType": "uint256",
          "name": "amount",
          "type": "uint256"
        },
        {
          "internalType": "uint256",
          "name": "interestRateMode",
          "type": "uint256"
        },
        {
          "internalType": "address",
          "name": "onBehalfOf",
          "type": "address"
        },
        {
          "internalType": "uint256",
          "name": "deadline",
          "type": "uint256"
        },
        {
          "internalType": "uint8",
          "name": "permitV",
          "type": "uint8"
        },
        {
          "internalType": "bytes32",
          "name": "permitR",
          "type": "bytes32"
        },
        {
          "internalType": "bytes32",
          "name": "permitS",
          "type": "bytes32"
        }
      ],
      "name": "repayWithPermit",
      "outputs": [
        {
          "internalType": "uint256",
          "name": "",
          "type": "uint256"
        }
      ],
      "stateMutability": "nonpayable",
      "type": "function"
    },
    {
      "inputs": [
        {
          "internalType": "address",
          "name": "token",
          "type": "address"
        },
        {
          "internalType": "address",
          "name": "to",
          "type": "address"
        },
        {
          "internalType": "uint256",
          "name": "amount",
          "type": "uint256"
        }
      ],
      "name": "rescueTokens",
      "outputs": [],
      "stateMutability": "nonpayable",
      "type": "function"
    },
    {
      "inputs": [
        {
          "internalType": "address",
          "name": "asset",
          "type": "address"
        }
      ],
      "name": "resetIsolationModeTotalDebt",
      "outputs": [],
      "stateMutability": "nonpayable",
      "type": "function"
    },
    {
      "inputs": [
        {
          "internalType": "address",
          "name": "asset",
          "type": "address"
        },
        {
          "components": [
            {
              "internalType": "uint256",
              "name": "data",
              "type": "uint256"
            }
          ],
          "internalType": "struct DataTypes.ReserveConfigurationMap",
          "name": "configuration",
          "type": "tuple"
        }
      ],
      "name": "setConfiguration",
      "outputs": [],
      "stateMutability": "nonpayable",
      "type": "function"
    },
    {
      "inputs": [
        {
          "internalType": "uint16",
          "name": "newMaxNumberOfReserves",
          "type": "uint16"
        }
      ],
      "name": "setMaxNumberOfReserves",
      "outputs": [],
      "stateMutability": "nonpayable",
      "type": "function"
    },
    {
      "inputs": [
        {
          "internalType": "address",
          "name": "asset",
          "type": "address"
        },
        {
          "internalType": "address",
          "name": "rateStrategyAddress",
          "type": "address"
        }
      ],
      "name": "setReserveInterestRateStrategyAddress",
      "outputs": [],
      "stateMutability": "nonpayable",
      "type": "function"
    },
    {
      "inputs": [
        {
          "internalType": "uint8",
          "name": "categoryId",
          "type": "uint8"
        }
      ],
      "name": "setUserEMode",
      "outputs": [],
      "stateMutability": "nonpayable",
      "type": "function"
    },
    {
      "inputs": [
        {
          "internalType": "address",
          "name": "asset",
          "type": "address"
        },
        {
          "internalType": "bool",
          "name": "useAsCollateral",
          "type": "bool"
        }
      ],
      "name": "setUserUseReserveAsCollateral",
      "outputs": [],
      "stateMutability": "nonpayable",
      "type": "function"
    },
    {
      "inputs": [
        {
          "internalType": "address",
          "name": "asset",
          "type": "address"
        },
        {
          "internalType": "uint256",
          "name": "amount",
          "type": "uint256"
        },
        {
          "internalType": "address",
          "name": "onBehalfOf",
          "type": "address"
        },
        {
          "internalType": "uint16",
          "name": "referralCode",
          "type": "uint16"
        }
      ],
      "name": "supply",
      "outputs": [],
      "stateMutability": "nonpayable",
      "type": "function"
    },
    {
      "inputs": [
        {
          "internalType": "address",
          "name": "asset",
          "type": "address"
        },
        {
          "internalType": "uint256",
          "name": "amount",
          "type": "uint256"
        },
        {
          "internalType": "address",
          "name": "onBehalfOf",
          "type": "address"
        },
        {
          "internalType": "uint16",
          "name": "referralCode",
          "type": "uint16"
        },
        {
          "internalType": "uint256",
          "name": "deadline",
          "type": "uint256"
        },
        {
          "internalType": "uint8",
          "name": "permitV",
          "type": "uint8"
        },
        {
          "internalType": "bytes32",
          "name": "permitR",
          "type": "bytes32"
        },
        {
          "internalType": "bytes32",
          "name": "permitS",
          "type": "bytes32"
        }
      ],
      "name": "supplyWithPermit",
      "outputs": [],
      "stateMutability": "nonpayable",
      "type": "function"
    },
    {
      "inputs": [
        {
          "internalType": "address",
          "name": "asset",
          "type": "address"
        },
        {
          "internalType": "uint256",
          "name": "interestRateMode",
          "type": "uint256"
        }
      ],
      "name": "swapBorrowRateMode",
      "outputs": [],
      "stateMutability": "nonpayable",
      "type": "function"
    },
    {
      "inputs": [
        {
          "internalType": "uint256",
          "name": "protocolFee",
          "type": "uint256"
        }
      ],
      "name": "updateBridgeProtocolFee",
      "outputs": [],
      "stateMutability": "nonpayable",
      "type": "function"
    },
    {
      "inputs": [
        {
          "internalType": "uint128",
          "name": "flashLoanPremiumTotal",
          "type": "uint128"
        },
        {
          "internalType": "uint128",
          "name": "flashLoanPremiumToProtocol",
          "type": "uint128"
        }
      ],
      "name": "updateFlashloanPremiums",
      "outputs": [],
      "stateMutability": "nonpayable",
      "type": "function"
    },
    {
      "inputs": [
        {
          "internalType": "address",
          "name": "asset",
          "type": "address"
        },
        {
          "internalType": "uint256",
          "name": "amount",
          "type": "uint256"
        },
        {
          "internalType": "address",
          "name": "to",
          "type": "address"
        }
      ],
      "name": "withdraw",
      "outputs": [
        {
          "internalType": "uint256",
          "name": "",
          "type": "uint256"
        }
      ],
      "stateMutability": "nonpayable",
      "type": "function"
    }
  ],
  "bytecode": "0x60a0604052600080556080603b600a6101000a81548161ffff021916908361ffff1602179055503480156200003357600080fd5b5060405162007b7638038062007b76833981810160405281019062000059919062000114565b808073ffffffffffffffffffffffffffffffffffffffff1660808173ffffffffffffffffffffffffffffffffffffffff1681525050505062000146565b600080fd5b600073ffffffffffffffffffffffffffffffffffffffff82169050919050565b6000620000c8826200009b565b9050919050565b6000620000dc82620000bb565b9050919050565b620000ee81620000cf565b8114620000fa57600080fd5b50565b6000815190506200010e81620000e3565b92915050565b6000602082840312156200012d576200012c62000096565b5b60006200013d84828501620000fd565b91505092915050565b6080516179ab620001cb6000396000818161098201528181610a8101528181610d030152818161104d01528181611b930152818161216a0152818161297101528181612a7001528181612d8a01528181612e1b01528181613129015281816133b401528181613b80015281816143be015281816145cc015261476801526179ab6000f3fe608060405234801561001057600080fd5b50600436106102945760003560e01c80636c6f6ae111610167578063d15e0053116100ce578063e82fec2f11610087578063e82fec2f14610802578063e8eda9df14610820578063eddf1b791461083c578063ee3e210b1461086c578063f51e435b1461089c578063f8119d51146108b857610294565b8063d15e005314610744578063d1946dbc14610774578063d579ea7d14610792578063d5ed3933146107ae578063d65dc7a1146107ca578063e43e88a1146107e657610294565b8063bcb6e52211610120578063bcb6e5221461066f578063bf92857c1461068b578063c44b11f7146106c0578063c4d66de8146106f0578063cd1123821461070c578063cea9d26f1461072857610294565b80636c6f6ae1146105b35780637a708e92146105e357806394ba89a2146105ff5780639cd199961461061b578063a415bcad14610637578063ab9c4b5d1461065357610294565b8063386497fd1161020b5780635a3b74b9116101c45780635a3b74b9146104f5578063617ba0371461051157806363c9b8601461052d57806369328dec1461054957806369a933a5146105795780636a99c0361461059557610294565b8063386497fd146103fd57806342b0b77c1461042d5780634417a583146104495780635275179714610479578063573ade81146104a957806357c68dc4146104d957610294565b80631d2118f91161025d5780631d2118f91461032b578063272d90721461034757806328530a47146103655780632dad97d4146103815780633036b439146103b157806335ea6a75146103cd57610294565b8062a718a9146102995780630148170e146102b557806302c205f0146102d35780630542975c146102ef578063074b2e431461030d575b600080fd5b6102b360048036038101906102ae9190614f68565b6108d6565b005b6102bd610b7e565b6040516102ca9190614ff2565b60405180910390f35b6102ed60048036038101906102e891906150b6565b610b83565b005b6102f7610d01565b60405161030491906151cb565b60405180910390f35b610315610d25565b6040516103229190615211565b60405180910390f35b6103456004803603810190610340919061522c565b610d4b565b005b61034f610fbb565b60405161035c9190614ff2565b60405180910390f35b61037f600480360381019061037a919061526c565b610fc5565b005b61039b60048036038101906103969190615299565b611150565b6040516103a89190614ff2565b60405180910390f35b6103cb60048036038101906103c691906152ec565b611292565b005b6103e760048036038101906103e29190615319565b6112a4565b6040516103f491906154f3565b60405180910390f35b61041760048036038101906104129190615319565b61170d565b6040516104249190614ff2565b60405180910390f35b61044760048036038101906104429190615574565b61175d565b005b610463600480360381019061045e9190615319565b611918565b604051610470919061562a565b60405180910390f35b610493600480360381019061048e9190615645565b61197b565b6040516104a09190615681565b60405180910390f35b6104c360048036038101906104be919061569c565b6119bc565b6040516104d09190614ff2565b60405180910390f35b6104f360048036038101906104ee9190615645565b611aff565b005b61050f600480360381019061050a9190615703565b611b1f565b005b61052b60048036038101906105269190615743565b611cc5565b005b61054760048036038101906105429190615319565b611dc8565b005b610563600480360381019061055e91906157aa565b6120a4565b6040516105709190614ff2565b60405180910390f35b610593600480360381019061058e9190615743565b6122cf565b005b61059d612390565b6040516105aa9190615211565b60405180910390f35b6105cd60048036038101906105c8919061526c565b6123b6565b6040516105da919061590c565b60405180910390f35b6105fd60048036038101906105f8919061592e565b612531565b005b610619600480360381019061061491906159a9565b6126be565b005b61063560048036038101906106309190615a3f565b6127bd565b005b610651600480360381019061064c9190615a8c565b61282d565b005b61066d60048036038101906106689190615b5d565b612b6d565b005b61068960048036038101906106849190615cad565b612fe6565b005b6106a560048036038101906106a09190615319565b613064565b6040516106b796959493929190615ced565b60405180910390f35b6106da60048036038101906106d59190615319565b613299565b6040516106e79190615d6a565b60405180910390f35b61070a60048036038101906107059190615dc3565b6132ff565b005b6107266004803603810190610721919061522c565b61353f565b005b610742600480360381019061073d9190615df0565b6135ec565b005b61075e60048036038101906107599190615319565b613664565b60405161076b9190614ff2565b60405180910390f35b61077c6136b4565b6040516107899190615ef2565b60405180910390f35b6107ac60048036038101906107a791906160f6565b613851565b005b6107c860048036038101906107c39190616152565b6139c7565b005b6107e460048036038101906107df9190615299565b613cd3565b005b61080060048036038101906107fb9190615319565b613d8f565b005b61080a613e04565b6040516108179190614ff2565b60405180910390f35b61083a60048036038101906108359190615743565b613e2c565b005b61085660048036038101906108519190615319565b613f2f565b6040516108639190614ff2565b60405180910390f35b610886600480360381019061088191906161df565b613f88565b6040516108939190614ff2565b60405180910390f35b6108b660048036038101906108b191906162b9565b61414c565b005b6108c061438d565b6040516108cd9190616308565b60405180910390f35b73__$b8fc6c4dd8386441e3ddd93bd59d9a9792$__6383c1087d6034603660356037604051806101200160405280603b60089054906101000a900461ffff1661ffff1681526020018981526020018c73ffffffffffffffffffffffffffffffffffffffff1681526020018b73ffffffffffffffffffffffffffffffffffffffff1681526020018a73ffffffffffffffffffffffffffffffffffffffff16815260200188151581526020017f000000000000000000000000000000000000000000000000000000000000000073ffffffffffffffffffffffffffffffffffffffff1663fca513a86040518163ffffffff1660e01b8152600401602060405180830381865afa1580156109eb573d6000803e3d6000fd5b505050506040513d601f19601f82011682018060405250810190610a0f9190616338565b73ffffffffffffffffffffffffffffffffffffffff168152602001603860008c73ffffffffffffffffffffffffffffffffffffffff1673ffffffffffffffffffffffffffffffffffffffff16815260200190815260200160002060009054906101000a900460ff1660ff1681526020017f000000000000000000000000000000000000000000000000000000000000000073ffffffffffffffffffffffffffffffffffffffff16635eb88d3d6040518163ffffffff1660e01b8152600401602060405180830381865afa158015610aea573d6000803e3d6000fd5b505050506040513d601f19601f82011682018060405250810190610b0e9190616338565b73ffffffffffffffffffffffffffffffffffffffff168152506040518663ffffffff1660e01b8152600401610b47959493929190616474565b60006040518083038186803b158015610b5f57600080fd5b505af4158015610b73573d6000803e3d6000fd5b505050505050505050565b600181565b8773ffffffffffffffffffffffffffffffffffffffff1663d505accf33308a888888886040518863ffffffff1660e01b8152600401610bc897969594939291906164e6565b600060405180830381600087803b158015610be257600080fd5b505af1158015610bf6573d6000803e3d6000fd5b5050505073__$792a6858e828a9166a182213cb74cf182c$__631913f16160346036603560008b73ffffffffffffffffffffffffffffffffffffffff1673ffffffffffffffffffffffffffffffffffffffff16815260200190815260200160002060405180608001604052808e73ffffffffffffffffffffffffffffffffffffffff1681526020018d81526020018c73ffffffffffffffffffffffffffffffffffffffff1681526020018b61ffff168152506040518563ffffffff1660e01b8152600401610cc794939291906165c0565b60006040518083038186803b158015610cdf57600080fd5b505af4158015610cf3573d6000803e3d6000fd5b505050505050505050505050565b7f000000000000000000000000000000000000000000000000000000000000000081565b6000603a60009054906101000a90046fffffffffffffffffffffffffffffffff16905090565b610d536143a5565b600073ffffffffffffffffffffffffffffffffffffffff168273ffffffffffffffffffffffffffffffffffffffff1614156040518060400160405280600281526020017f373700000000000000000000000000000000000000000000000000000000000081525090610dfb576040517f08c379a0000000000000000000000000000000000000000000000000000000008152600401610df2919061664f565b60405180910390fd5b506000603460008473ffffffffffffffffffffffffffffffffffffffff1673ffffffffffffffffffffffffffffffffffffffff16815260200190815260200160002060030160159054906101000a900461ffff1661ffff16141580610ebe57508173ffffffffffffffffffffffffffffffffffffffff166036600080815260200190815260200160002060009054906101000a900473ffffffffffffffffffffffffffffffffffffffff1673ffffffffffffffffffffffffffffffffffffffff16145b6040518060400160405280600281526020017f383200000000000000000000000000000000000000000000000000000000000081525090610f35576040517f08c379a0000000000000000000000000000000000000000000000000000000008152600401610f2c919061664f565b60405180910390fd5b5080603460008473ffffffffffffffffffffffffffffffffffffffff1673ffffffffffffffffffffffffffffffffffffffff16815260200190815260200160002060070160006101000a81548173ffffffffffffffffffffffffffffffffffffffff021916908373ffffffffffffffffffffffffffffffffffffffff1602179055505050565b6000603954905090565b73__$b3e7a7e7c27bd2115be53950ecd292c08e$__635d5dc3136034603660376038603560003373ffffffffffffffffffffffffffffffffffffffff1673ffffffffffffffffffffffffffffffffffffffff1681526020019081526020016000206040518060600160405280603b60089054906101000a900461ffff1661ffff1681526020017f000000000000000000000000000000000000000000000000000000000000000073ffffffffffffffffffffffffffffffffffffffff1663fca513a86040518163ffffffff1660e01b8152600401602060405180830381865afa1580156110b6573d6000803e3d6000fd5b505050506040513d601f19601f820116820180604052508101906110da9190616338565b73ffffffffffffffffffffffffffffffffffffffff1681526020018960ff168152506040518763ffffffff1660e01b815260040161111d969594939291906166ba565b60006040518083038186803b15801561113557600080fd5b505af4158015611149573d6000803e3d6000fd5b5050505050565b600073__$5157860d6e8796e816c59125dcbc9decd5$__6340e95de660346036603560003373ffffffffffffffffffffffffffffffffffffffff1673ffffffffffffffffffffffffffffffffffffffff1681526020019081526020016000206040518060a001604052808a73ffffffffffffffffffffffffffffffffffffffff1681526020018981526020018860028111156111ef576111ee61671c565b5b60028111156112015761120061671c565b5b81526020013373ffffffffffffffffffffffffffffffffffffffff168152602001600115158152506040518563ffffffff1660e01b815260040161124894939291906167fb565b602060405180830381865af4158015611265573d6000803e3d6000fd5b505050506040513d601f19601f820116820180604052508101906112899190616856565b90509392505050565b61129a6143a5565b8060398190555050565b6112ac614bff565b603460008373ffffffffffffffffffffffffffffffffffffffff1673ffffffffffffffffffffffffffffffffffffffff168152602001908152602001600020604051806101e00160405290816000820160405180602001604052908160008201548152505081526020016001820160009054906101000a90046fffffffffffffffffffffffffffffffff166fffffffffffffffffffffffffffffffff166fffffffffffffffffffffffffffffffff1681526020016001820160109054906101000a90046fffffffffffffffffffffffffffffffff166fffffffffffffffffffffffffffffffff166fffffffffffffffffffffffffffffffff1681526020016002820160009054906101000a90046fffffffffffffffffffffffffffffffff166fffffffffffffffffffffffffffffffff166fffffffffffffffffffffffffffffffff1681526020016002820160109054906101000a90046fffffffffffffffffffffffffffffffff166fffffffffffffffffffffffffffffffff166fffffffffffffffffffffffffffffffff1681526020016003820160009054906101000a90046fffffffffffffffffffffffffffffffff166fffffffffffffffffffffffffffffffff166fffffffffffffffffffffffffffffffff1681526020016003820160109054906101000a900464ffffffffff1664ffffffffff1664ffffffffff1681526020016003820160159054906101000a900461ffff1661ffff1661ffff1681526020016004820160009054906101000a900473ffffffffffffffffffffffffffffffffffffffff1673ffffffffffffffffffffffffffffffffffffffff1673ffffffffffffffffffffffffffffffffffffffff1681526020016005820160009054906101000a900473ffffffffffffffffffffffffffffffffffffffff1673ffffffffffffffffffffffffffffffffffffffff1673ffffffffffffffffffffffffffffffffffffffff1681526020016006820160009054906101000a900473ffffffffffffffffffffffffffffffffffffffff1673ffffffffffffffffffffffffffffffffffffffff1673ffffffffffffffffffffffffffffffffffffffff1681526020016007820160009054906101000a900473ffffffffffffffffffffffffffffffffffffffff1673ffffffffffffffffffffffffffffffffffffffff1673ffffffffffffffffffffffffffffffffffffffff1681526020016008820160009054906101000a90046fffffffffffffffffffffffffffffffff166fffffffffffffffffffffffffffffffff166fffffffffffffffffffffffffffffffff1681526020016008820160109054906101000a90046fffffffffffffffffffffffffffffffff166fffffffffffffffffffffffffffffffff166fffffffffffffffffffffffffffffffff1681526020016009820160009054906101000a90046fffffffffffffffffffffffffffffffff166fffffffffffffffffffffffffffffffff166fffffffffffffffffffffffffffffffff16815250509050919050565b6000611756603460008473ffffffffffffffffffffffffffffffffffffffff1673ffffffffffffffffffffffffffffffffffffffff1681526020019081526020016000206144dc565b9050919050565b60006040518060e001604052808873ffffffffffffffffffffffffffffffffffffffff1681526020018773ffffffffffffffffffffffffffffffffffffffff16815260200186815260200185858080601f016020809104026020016040519081016040528093929190818152602001838380828437600081840152601f19601f8201169050808301925050505050505081526020018361ffff168152602001603a60109054906101000a90046fffffffffffffffffffffffffffffffff166fffffffffffffffffffffffffffffffff168152602001603a60009054906101000a90046fffffffffffffffffffffffffffffffff166fffffffffffffffffffffffffffffffff16815250905073__$9fe57f3ed66fb1ad1bdf82003ba1eaf30d$__63a1fe0e8d603460008973ffffffffffffffffffffffffffffffffffffffff1673ffffffffffffffffffffffffffffffffffffffff168152602001908152602001600020836040518363ffffffff1660e01b81526004016118df92919061697b565b60006040518083038186803b1580156118f757600080fd5b505af415801561190b573d6000803e3d6000fd5b5050505050505050505050565b611920614d6e565b603560008373ffffffffffffffffffffffffffffffffffffffff1673ffffffffffffffffffffffffffffffffffffffff1681526020019081526020016000206040518060200160405290816000820154815250509050919050565b6000603660008361ffff16815260200190815260200160002060009054906101000a900473ffffffffffffffffffffffffffffffffffffffff169050919050565b600073__$5157860d6e8796e816c59125dcbc9decd5$__6340e95de660346036603560008773ffffffffffffffffffffffffffffffffffffffff1673ffffffffffffffffffffffffffffffffffffffff1681526020019081526020016000206040518060a001604052808b73ffffffffffffffffffffffffffffffffffffffff1681526020018a8152602001896002811115611a5b57611a5a61671c565b5b6002811115611a6d57611a6c61671c565b5b81526020018873ffffffffffffffffffffffffffffffffffffffff168152602001600015158152506040518563ffffffff1660e01b8152600401611ab494939291906167fb565b602060405180830381865af4158015611ad1573d6000803e3d6000fd5b505050506040513d601f19601f82011682018060405250810190611af59190616856565b9050949350505050565b80603b600a6101000a81548161ffff021916908361ffff16021790555050565b73__$792a6858e828a9166a182213cb74cf182c$__63bf697a26603460366037603560003373ffffffffffffffffffffffffffffffffffffffff1673ffffffffffffffffffffffffffffffffffffffff1681526020019081526020016000208787603b60089054906101000a900461ffff167f000000000000000000000000000000000000000000000000000000000000000073ffffffffffffffffffffffffffffffffffffffff1663fca513a86040518163ffffffff1660e01b8152600401602060405180830381865afa158015611bfc573d6000803e3d6000fd5b505050506040513d601f19601f82011682018060405250810190611c209190616338565b603860003373ffffffffffffffffffffffffffffffffffffffff1673ffffffffffffffffffffffffffffffffffffffff16815260200190815260200160002060009054906101000a900460ff166040518a63ffffffff1660e01b8152600401611c9199989796959493929190616a09565b60006040518083038186803b158015611ca957600080fd5b505af4158015611cbd573d6000803e3d6000fd5b505050505050565b73__$792a6858e828a9166a182213cb74cf182c$__631913f16160346036603560008773ffffffffffffffffffffffffffffffffffffffff1673ffffffffffffffffffffffffffffffffffffffff16815260200190815260200160002060405180608001604052808a73ffffffffffffffffffffffffffffffffffffffff1681526020018981526020018873ffffffffffffffffffffffffffffffffffffffff1681526020018761ffff168152506040518563ffffffff1660e01b8152600401611d9294939291906165c0565b60006040518083038186803b158015611daa57600080fd5b505af4158015611dbe573d6000803e3d6000fd5b5050505050505050565b600060366000603460008573ffffffffffffffffffffffffffffffffffffffff1673ffffffffffffffffffffffffffffffffffffffff16815260200190815260200160002060030160159054906101000a900461ffff1661ffff16815260200190815260200160002060006101000a81548173ffffffffffffffffffffffffffffffffffffffff021916908373ffffffffffffffffffffffffffffffffffffffff160217905550603460008273ffffffffffffffffffffffffffffffffffffffff1673ffffffffffffffffffffffffffffffffffffffff168152602001908152602001600020600080820160008082016000905550506001820160006101000a8154906fffffffffffffffffffffffffffffffff02191690556001820160106101000a8154906fffffffffffffffffffffffffffffffff02191690556002820160006101000a8154906fffffffffffffffffffffffffffffffff02191690556002820160106101000a8154906fffffffffffffffffffffffffffffffff02191690556003820160006101000a8154906fffffffffffffffffffffffffffffffff02191690556003820160106101000a81549064ffffffffff02191690556003820160156101000a81549061ffff02191690556004820160006101000a81549073ffffffffffffffffffffffffffffffffffffffff02191690556005820160006101000a81549073ffffffffffffffffffffffffffffffffffffffff02191690556006820160006101000a81549073ffffffffffffffffffffffffffffffffffffffff02191690556007820160006101000a81549073ffffffffffffffffffffffffffffffffffffffff02191690556008820160006101000a8154906fffffffffffffffffffffffffffffffff02191690556008820160106101000a8154906fffffffffffffffffffffffffffffffff02191690556009820160006101000a8154906fffffffffffffffffffffffffffffffff0219169055505050565b600073__$792a6858e828a9166a182213cb74cf182c$__63186dea44603460366037603560003373ffffffffffffffffffffffffffffffffffffffff1673ffffffffffffffffffffffffffffffffffffffff1681526020019081526020016000206040518060c001604052808b73ffffffffffffffffffffffffffffffffffffffff1681526020018a81526020018973ffffffffffffffffffffffffffffffffffffffff168152602001603b60089054906101000a900461ffff1661ffff1681526020017f000000000000000000000000000000000000000000000000000000000000000073ffffffffffffffffffffffffffffffffffffffff1663fca513a86040518163ffffffff1660e01b8152600401602060405180830381865afa1580156121d3573d6000803e3d6000fd5b505050506040513d601f19601f820116820180604052508101906121f79190616338565b73ffffffffffffffffffffffffffffffffffffffff168152602001603860003373ffffffffffffffffffffffffffffffffffffffff1673ffffffffffffffffffffffffffffffffffffffff16815260200190815260200160002060009054906101000a900460ff1660ff168152506040518663ffffffff1660e01b8152600401612285959493929190616b11565b602060405180830381865af41580156122a2573d6000803e3d6000fd5b505050506040513d601f19601f820116820180604052508101906122c69190616856565b90509392505050565b6122d76145ca565b73__$1a5b5028a57ae19be99589a53297134eab$__630413c86f60346036603560008773ffffffffffffffffffffffffffffffffffffffff1673ffffffffffffffffffffffffffffffffffffffff168152602001908152602001600020888888886040518863ffffffff1660e01b815260040161235a9796959493929190616b83565b60006040518083038186803b15801561237257600080fd5b505af4158015612386573d6000803e3d6000fd5b5050505050505050565b6000603a60109054906101000a90046fffffffffffffffffffffffffffffffff16905090565b6123be614d81565b603760008360ff1660ff1681526020019081526020016000206040518060a00160405290816000820160009054906101000a900461ffff1661ffff1661ffff1681526020016000820160029054906101000a900461ffff1661ffff1661ffff1681526020016000820160049054906101000a900461ffff1661ffff1661ffff1681526020016000820160069054906101000a900473ffffffffffffffffffffffffffffffffffffffff1673ffffffffffffffffffffffffffffffffffffffff1673ffffffffffffffffffffffffffffffffffffffff1681526020016001820180546124a890616c21565b80601f01602080910402602001604051908101604052809291908181526020018280546124d490616c21565b80156125215780601f106124f657610100808354040283529160200191612521565b820191906000526020600020905b81548152906001019060200180831161250457829003601f168201915b5050505050815250509050919050565b6125396143a5565b73__$fe21a1d4eaaeaff9e8fbaf7fdfd147fd7e$__6369fc1bdf603460366040518060e001604052808a73ffffffffffffffffffffffffffffffffffffffff1681526020018973ffffffffffffffffffffffffffffffffffffffff1681526020018873ffffffffffffffffffffffffffffffffffffffff1681526020018773ffffffffffffffffffffffffffffffffffffffff1681526020018673ffffffffffffffffffffffffffffffffffffffff168152602001603b60089054906101000a900461ffff1661ffff16815260200161261061438d565b61ffff168152506040518463ffffffff1660e01b815260040161263593929190616ce1565b602060405180830381865af4158015612652573d6000803e3d6000fd5b505050506040513d601f19601f820116820180604052508101906126769190616d2e565b156126b757603b600881819054906101000a900461ffff168092919061269b90616d8a565b91906101000a81548161ffff021916908361ffff160217905550505b5050505050565b73__$5157860d6e8796e816c59125dcbc9decd5$__63eac4d703603460008573ffffffffffffffffffffffffffffffffffffffff1673ffffffffffffffffffffffffffffffffffffffff168152602001908152602001600020603560003373ffffffffffffffffffffffffffffffffffffffff1673ffffffffffffffffffffffffffffffffffffffff1681526020019081526020016000208585600281111561276a5761276961671c565b5b6040518563ffffffff1660e01b81526004016127899493929190616dc4565b60006040518083038186803b1580156127a157600080fd5b505af41580156127b5573d6000803e3d6000fd5b505050505050565b73__$fe21a1d4eaaeaff9e8fbaf7fdfd147fd7e$__6348c2ca8c603484846040518463ffffffff1660e01b81526004016127f993929190616ebd565b60006040518083038186803b15801561281157600080fd5b505af4158015612825573d6000803e3d6000fd5b505050505050565b73__$5157860d6e8796e816c59125dcbc9decd5$__631e6473f9603460366037603560008773ffffffffffffffffffffffffffffffffffffffff1673ffffffffffffffffffffffffffffffffffffffff1681526020019081526020016000206040518061018001604052808c73ffffffffffffffffffffffffffffffffffffffff1681526020013373ffffffffffffffffffffffffffffffffffffffff1681526020018873ffffffffffffffffffffffffffffffffffffffff1681526020018b81526020018a60028111156129055761290461671c565b5b60028111156129175761291661671c565b5b81526020018961ffff168152602001600115158152602001603b60009054906101000a900467ffffffffffffffff1667ffffffffffffffff168152602001603b60089054906101000a900461ffff1661ffff1681526020017f000000000000000000000000000000000000000000000000000000000000000073ffffffffffffffffffffffffffffffffffffffff1663fca513a86040518163ffffffff1660e01b8152600401602060405180830381865afa1580156129da573d6000803e3d6000fd5b505050506040513d601f19601f820116820180604052508101906129fe9190616338565b73ffffffffffffffffffffffffffffffffffffffff168152602001603860008a73ffffffffffffffffffffffffffffffffffffffff1673ffffffffffffffffffffffffffffffffffffffff16815260200190815260200160002060009054906101000a900460ff1660ff1681526020017f000000000000000000000000000000000000000000000000000000000000000073ffffffffffffffffffffffffffffffffffffffff16635eb88d3d6040518163ffffffff1660e01b8152600401602060405180830381865afa158015612ad9573d6000803e3d6000fd5b505050506040513d601f19601f82011682018060405250810190612afd9190616338565b73ffffffffffffffffffffffffffffffffffffffff168152506040518663ffffffff1660e01b8152600401612b36959493929190616fe5565b60006040518083038186803b158015612b4e57600080fd5b505af4158015612b62573d6000803e3d6000fd5b505050505050505050565b6000604051806101c001604052808d73ffffffffffffffffffffffffffffffffffffffff1681526020018c8c80806020026020016040519081016040528093929190818152602001838360200280828437600081840152601f19601f8201169050808301925050505050505081526020018a8a80806020026020016040519081016040528093929190818152602001838360200280828437600081840152601f19601f820116905080830192505050505050508152602001888880806020026020016040519081016040528093929190818152602001838360200280828437600081840152601f19601f8201169050808301925050505050505081526020018673ffffffffffffffffffffffffffffffffffffffff16815260200185858080601f016020809104026020016040519081016040528093929190818152602001838380828437600081840152601f19601f8201169050808301925050505050505081526020018361ffff168152602001603a60109054906101000a90046fffffffffffffffffffffffffffffffff166fffffffffffffffffffffffffffffffff168152602001603a60009054906101000a90046fffffffffffffffffffffffffffffffff166fffffffffffffffffffffffffffffffff168152602001603b60009054906101000a900467ffffffffffffffff1667ffffffffffffffff168152602001603b60089054906101000a900461ffff1661ffff1681526020017f000000000000000000000000000000000000000000000000000000000000000073ffffffffffffffffffffffffffffffffffffffff168152602001603860008873ffffffffffffffffffffffffffffffffffffffff1673ffffffffffffffffffffffffffffffffffffffff16815260200190815260200160002060009054906101000a900460ff1660ff1681526020017f000000000000000000000000000000000000000000000000000000000000000073ffffffffffffffffffffffffffffffffffffffff1663707cd7166040518163ffffffff1660e01b8152600401602060405180830381865afa158015612e84573d6000803e3d6000fd5b505050506040513d601f19601f82011682018060405250810190612ea89190616338565b73ffffffffffffffffffffffffffffffffffffffff1663fa50f297336040518263ffffffff1660e01b8152600401612ee09190615681565b602060405180830381865afa158015612efd573d6000803e3d6000fd5b505050506040513d601f19601f82011682018060405250810190612f219190616d2e565b1515815250905073__$9fe57f3ed66fb1ad1bdf82003ba1eaf30d$__632e7263ea603460366037603560008b73ffffffffffffffffffffffffffffffffffffffff1673ffffffffffffffffffffffffffffffffffffffff168152602001908152602001600020866040518663ffffffff1660e01b8152600401612fa895949392919061729a565b60006040518083038186803b158015612fc057600080fd5b505af4158015612fd4573d6000803e3d6000fd5b50505050505050505050505050505050565b612fee6143a5565b81603a60006101000a8154816fffffffffffffffffffffffffffffffff02191690836fffffffffffffffffffffffffffffffff16021790555080603a60106101000a8154816fffffffffffffffffffffffffffffffff02191690836fffffffffffffffffffffffffffffffff1602179055505050565b60008060008060008073__$fe21a1d4eaaeaff9e8fbaf7fdfd147fd7e$__6326ec273f6034603660376040518060a00160405280603560008f73ffffffffffffffffffffffffffffffffffffffff1673ffffffffffffffffffffffffffffffffffffffff1681526020019081526020016000206040518060200160405290816000820154815250508152602001603b60089054906101000a900461ffff1661ffff1681526020018d73ffffffffffffffffffffffffffffffffffffffff1681526020017f000000000000000000000000000000000000000000000000000000000000000073ffffffffffffffffffffffffffffffffffffffff1663fca513a86040518163ffffffff1660e01b8152600401602060405180830381865afa158015613192573d6000803e3d6000fd5b505050506040513d601f19601f820116820180604052508101906131b69190616338565b73ffffffffffffffffffffffffffffffffffffffff168152602001603860008f73ffffffffffffffffffffffffffffffffffffffff1673ffffffffffffffffffffffffffffffffffffffff16815260200190815260200160002060009054906101000a900460ff1660ff168152506040518563ffffffff1660e01b81526004016132439493929190617378565b60c060405180830381865af4158015613260573d6000803e3d6000fd5b505050506040513d601f19601f8201168201806040525081019061328491906173be565b95509550955095509550955091939550919395565b6132a1614dd2565b603460008373ffffffffffffffffffffffffffffffffffffffff1673ffffffffffffffffffffffffffffffffffffffff1681526020019081526020016000206000016040518060200160405290816000820154815250509050919050565b600061330961474c565b9050600160009054906101000a900460ff168061332a5750613329614755565b5b80613336575060005481115b613375576040517f08c379a000000000000000000000000000000000000000000000000000000000815260040161336c906174bd565b60405180910390fd5b6000600160009054906101000a900460ff1615905080156133b25760018060006101000a81548160ff021916908315150217905550816000819055505b7f000000000000000000000000000000000000000000000000000000000000000073ffffffffffffffffffffffffffffffffffffffff168373ffffffffffffffffffffffffffffffffffffffff16146040518060400160405280600281526020017f313200000000000000000000000000000000000000000000000000000000000081525090613478576040517f08c379a000000000000000000000000000000000000000000000000000000000815260040161346f919061664f565b60405180910390fd5b506109c4603b60006101000a81548167ffffffffffffffff021916908367ffffffffffffffff1602179055506009603a60006101000a8154816fffffffffffffffffffffffffffffffff02191690836fffffffffffffffffffffffffffffffff1602179055506000603a60106101000a8154816fffffffffffffffffffffffffffffffff02191690836fffffffffffffffffffffffffffffffff160217905550801561353a576000600160006101000a81548160ff0219169083151502179055505b505050565b73__$5157860d6e8796e816c59125dcbc9decd5$__636973f744603460008573ffffffffffffffffffffffffffffffffffffffff1673ffffffffffffffffffffffffffffffffffffffff16815260200190815260200160002084846040518463ffffffff1660e01b81526004016135b8939291906174dd565b60006040518083038186803b1580156135d057600080fd5b505af41580156135e4573d6000803e3d6000fd5b505050505050565b6135f4614766565b73__$fe21a1d4eaaeaff9e8fbaf7fdfd147fd7e$__6387b322b28484846040518463ffffffff1660e01b815260040161362f93929190617514565b60006040518083038186803b15801561364757600080fd5b505af415801561365b573d6000803e3d6000fd5b50505050505050565b60006136ad603460008473ffffffffffffffffffffffffffffffffffffffff1673ffffffffffffffffffffffffffffffffffffffff1681526020019081526020016000206148e8565b9050919050565b60606000603b60089054906101000a900461ffff1661ffff1690506000808267ffffffffffffffff8111156136ec576136eb615f19565b5b60405190808252806020026020018201604052801561371a5781602001602082028036833780820191505090505b50905060005b8381101561384257600073ffffffffffffffffffffffffffffffffffffffff166036600083815260200190815260200160002060009054906101000a900473ffffffffffffffffffffffffffffffffffffffff1673ffffffffffffffffffffffffffffffffffffffff1614613820576036600082815260200190815260200160002060009054906101000a900473ffffffffffffffffffffffffffffffffffffffff168284836137d0919061754b565b815181106137e1576137e061757f565b5b602002602001019073ffffffffffffffffffffffffffffffffffffffff16908173ffffffffffffffffffffffffffffffffffffffff168152505061382f565b828061382b906175ae565b9350505b808061383a906175ae565b915050613720565b50818303815280935050505090565b6138596143a5565b60008260ff1614156040518060400160405280600281526020017f3136000000000000000000000000000000000000000000000000000000000000815250906138d8576040517f08c379a00000000000000000000000000000000000000000000000000000000081526004016138cf919061664f565b60405180910390fd5b5080603760008460ff1660ff16815260200190815260200160002060008201518160000160006101000a81548161ffff021916908361ffff16021790555060208201518160000160026101000a81548161ffff021916908361ffff16021790555060408201518160000160046101000a81548161ffff021916908361ffff16021790555060608201518160000160066101000a81548173ffffffffffffffffffffffffffffffffffffffff021916908373ffffffffffffffffffffffffffffffffffffffff16021790555060808201518160010190805190602001906139bf929190614de5565b509050505050565b603460008773ffffffffffffffffffffffffffffffffffffffff1673ffffffffffffffffffffffffffffffffffffffff16815260200190815260200160002060040160009054906101000a900473ffffffffffffffffffffffffffffffffffffffff1673ffffffffffffffffffffffffffffffffffffffff163373ffffffffffffffffffffffffffffffffffffffff16146040518060400160405280600281526020017f313100000000000000000000000000000000000000000000000000000000000081525090613acf576040517f08c379a0000000000000000000000000000000000000000000000000000000008152600401613ac6919061664f565b60405180910390fd5b5073__$792a6858e828a9166a182213cb74cf182c$__638a5dadd160346036603760356040518061012001604052808d73ffffffffffffffffffffffffffffffffffffffff1681526020018c73ffffffffffffffffffffffffffffffffffffffff1681526020018b73ffffffffffffffffffffffffffffffffffffffff1681526020018a8152602001898152602001888152602001603b60089054906101000a900461ffff1661ffff1681526020017f000000000000000000000000000000000000000000000000000000000000000073ffffffffffffffffffffffffffffffffffffffff1663fca513a86040518163ffffffff1660e01b8152600401602060405180830381865afa158015613be9573d6000803e3d6000fd5b505050506040513d601f19601f82011682018060405250810190613c0d9190616338565b73ffffffffffffffffffffffffffffffffffffffff168152602001603860008e73ffffffffffffffffffffffffffffffffffffffff1673ffffffffffffffffffffffffffffffffffffffff16815260200190815260200160002060009054906101000a900460ff1660ff168152506040518663ffffffff1660e01b8152600401613c9b9594939291906176ae565b60006040518083038186803b158015613cb357600080fd5b505af4158015613cc7573d6000803e3d6000fd5b50505050505050505050565b613cdb6145ca565b73__$1a5b5028a57ae19be99589a53297134eab$__638e743248603460008673ffffffffffffffffffffffffffffffffffffffff1673ffffffffffffffffffffffffffffffffffffffff1681526020019081526020016000208585856039546040518663ffffffff1660e01b8152600401613d5a959493929190617702565b60006040518083038186803b158015613d7257600080fd5b505af4158015613d86573d6000803e3d6000fd5b50505050505050565b613d976143a5565b73__$fe21a1d4eaaeaff9e8fbaf7fdfd147fd7e$__631e3b41456034836040518363ffffffff1660e01b8152600401613dd1929190617755565b60006040518083038186803b158015613de957600080fd5b505af4158015613dfd573d6000803e3d6000fd5b5050505050565b6000603b60009054906101000a900467ffffffffffffffff1667ffffffffffffffff16905090565b73__$792a6858e828a9166a182213cb74cf182c$__631913f16160346036603560008773ffffffffffffffffffffffffffffffffffffffff1673ffffffffffffffffffffffffffffffffffffffff16815260200190815260200160002060405180608001604052808a73ffffffffffffffffffffffffffffffffffffffff1681526020018981526020018873ffffffffffffffffffffffffffffffffffffffff1681526020018761ffff168152506040518563ffffffff1660e01b8152600401613ef994939291906165c0565b60006040518083038186803b158015613f1157600080fd5b505af4158015613f25573d6000803e3d6000fd5b5050505050505050565b6000603860008373ffffffffffffffffffffffffffffffffffffffff1673ffffffffffffffffffffffffffffffffffffffff16815260200190815260200160002060009054906101000a900460ff1660ff169050919050565b60008873ffffffffffffffffffffffffffffffffffffffff1663d505accf33308b898989896040518863ffffffff1660e01b8152600401613fcf97969594939291906164e6565b600060405180830381600087803b158015613fe957600080fd5b505af1158015613ffd573d6000803e3d6000fd5b5050505060006040518060a001604052808b73ffffffffffffffffffffffffffffffffffffffff1681526020018a81526020018960028111156140435761404261671c565b5b60028111156140555761405461671c565b5b81526020018873ffffffffffffffffffffffffffffffffffffffff16815260200160001515815250905073__$5157860d6e8796e816c59125dcbc9decd5$__6340e95de660346036603560008c73ffffffffffffffffffffffffffffffffffffffff1673ffffffffffffffffffffffffffffffffffffffff168152602001908152602001600020856040518563ffffffff1660e01b81526004016140fc94939291906167fb565b602060405180830381865af4158015614119573d6000803e3d6000fd5b505050506040513d601f19601f8201168201806040525081019061413d9190616856565b91505098975050505050505050565b6141546143a5565b600073ffffffffffffffffffffffffffffffffffffffff168273ffffffffffffffffffffffffffffffffffffffff1614156040518060400160405280600281526020017f3737000000000000000000000000000000000000000000000000000000000000815250906141fc576040517f08c379a00000000000000000000000000000000000000000000000000000000081526004016141f3919061664f565b60405180910390fd5b506000603460008473ffffffffffffffffffffffffffffffffffffffff1673ffffffffffffffffffffffffffffffffffffffff16815260200190815260200160002060030160159054906101000a900461ffff1661ffff161415806142bf57508173ffffffffffffffffffffffffffffffffffffffff166036600080815260200190815260200160002060009054906101000a900473ffffffffffffffffffffffffffffffffffffffff1673ffffffffffffffffffffffffffffffffffffffff16145b6040518060400160405280600281526020017f383200000000000000000000000000000000000000000000000000000000000081525090614336576040517f08c379a000000000000000000000000000000000000000000000000000000000815260040161432d919061664f565b60405180910390fd5b5080603460008473ffffffffffffffffffffffffffffffffffffffff1673ffffffffffffffffffffffffffffffffffffffff16815260200190815260200160002060000181816143869190617857565b9050505050565b6000603b600a9054906101000a900461ffff16905090565b3373ffffffffffffffffffffffffffffffffffffffff167f000000000000000000000000000000000000000000000000000000000000000073ffffffffffffffffffffffffffffffffffffffff1663631adfca6040518163ffffffff1660e01b8152600401602060405180830381865afa158015614427573d6000803e3d6000fd5b505050506040513d601f19601f8201168201806040525081019061444b9190616338565b73ffffffffffffffffffffffffffffffffffffffff16146040518060400160405280600281526020017f3130000000000000000000000000000000000000000000000000000000000000815250906144d9576040517f08c379a00000000000000000000000000000000000000000000000000000000081526004016144d0919061664f565b60405180910390fd5b50565b6000808260030160109054906101000a900464ffffffffff169050428164ffffffffff161415614541578260020160009054906101000a90046fffffffffffffffffffffffffffffffff166fffffffffffffffffffffffffffffffff169150506145c5565b6145c18360020160009054906101000a90046fffffffffffffffffffffffffffffffff166fffffffffffffffffffffffffffffffff166145b38560020160109054906101000a90046fffffffffffffffffffffffffffffffff166fffffffffffffffffffffffffffffffff16846149d6565b6149eb90919063ffffffff16565b9150505b919050565b7f000000000000000000000000000000000000000000000000000000000000000073ffffffffffffffffffffffffffffffffffffffff1663707cd7166040518163ffffffff1660e01b8152600401602060405180830381865afa158015614635573d6000803e3d6000fd5b505050506040513d601f19601f820116820180604052508101906146599190616338565b73ffffffffffffffffffffffffffffffffffffffff1663726600ce336040518263ffffffff1660e01b81526004016146919190615681565b602060405180830381865afa1580156146ae573d6000803e3d6000fd5b505050506040513d601f19601f820116820180604052508101906146d29190616d2e565b6040518060400160405280600181526020017f360000000000000000000000000000000000000000000000000000000000000081525090614749576040517f08c379a0000000000000000000000000000000000000000000000000000000008152600401614740919061664f565b60405180910390fd5b50565b60006003905090565b600080303b90506000811491505090565b7f000000000000000000000000000000000000000000000000000000000000000073ffffffffffffffffffffffffffffffffffffffff1663707cd7166040518163ffffffff1660e01b8152600401602060405180830381865afa1580156147d1573d6000803e3d6000fd5b505050506040513d601f19601f820116820180604052508101906147f59190616338565b73ffffffffffffffffffffffffffffffffffffffff16637be53ca1336040518263ffffffff1660e01b815260040161482d9190615681565b602060405180830381865afa15801561484a573d6000803e3d6000fd5b505050506040513d601f19601f8201168201806040525081019061486e9190616d2e565b6040518060400160405280600181526020017f3100000000000000000000000000000000000000000000000000000000000000815250906148e5576040517f08c379a00000000000000000000000000000000000000000000000000000000081526004016148dc919061664f565b60405180910390fd5b50565b6000808260030160109054906101000a900464ffffffffff169050428164ffffffffff16141561494d578260010160009054906101000a90046fffffffffffffffffffffffffffffffff166fffffffffffffffffffffffffffffffff169150506149d1565b6149cd8360010160009054906101000a90046fffffffffffffffffffffffffffffffff166fffffffffffffffffffffffffffffffff166149bf8560010160109054906101000a90046fffffffffffffffffffffffffffffffff166fffffffffffffffffffffffffffffffff1684614a36565b6149eb90919063ffffffff16565b9150505b919050565b60006149e3838342614a91565b905092915050565b6000816b019d971e4fe8401e740000006000190304831115821517614a0f57600080fd5b6b033b2e3c9fd0803ce80000006b019d971e4fe8401e740000008385020104905092915050565b6000808264ffffffffff1642614a4c919061754b565b84614a579190617865565b90506301e133808181614a6d57614a6c6178bf565b5b049050806b033b2e3c9fd0803ce8000000614a8891906178ee565b91505092915050565b6000808364ffffffffff1683614aa7919061754b565b90506000811415614ac7576b033b2e3c9fd0803ce8000000915050614bf8565b60008060008060018503935060028511614ae2576000614ae7565b600285035b92506301e133808002614b038a8b6149eb90919063ffffffff16565b81614b1157614b106178bf565b5b0491506301e13380614b2c8a846149eb90919063ffffffff16565b81614b3a57614b396178bf565b5b0490506000828587614b4c9190617865565b614b569190617865565b905060028181614b6957614b686178bf565b5b049050600082858789614b7c9190617865565b614b869190617865565b614b909190617865565b905060068181614ba357614ba26178bf565b5b04905080826301e13380898e614bb99190617865565b614bc39190617944565b6b033b2e3c9fd0803ce8000000614bda91906178ee565b614be491906178ee565b614bee91906178ee565b9750505050505050505b9392505050565b604051806101e00160405280614c13614dd2565b815260200160006fffffffffffffffffffffffffffffffff16815260200160006fffffffffffffffffffffffffffffffff16815260200160006fffffffffffffffffffffffffffffffff16815260200160006fffffffffffffffffffffffffffffffff16815260200160006fffffffffffffffffffffffffffffffff168152602001600064ffffffffff168152602001600061ffff168152602001600073ffffffffffffffffffffffffffffffffffffffff168152602001600073ffffffffffffffffffffffffffffffffffffffff168152602001600073ffffffffffffffffffffffffffffffffffffffff168152602001600073ffffffffffffffffffffffffffffffffffffffff16815260200160006fffffffffffffffffffffffffffffffff16815260200160006fffffffffffffffffffffffffffffffff16815260200160006fffffffffffffffffffffffffffffffff1681525090565b6040518060200160405280600081525090565b6040518060a00160405280600061ffff168152602001600061ffff168152602001600061ffff168152602001600073ffffffffffffffffffffffffffffffffffffffff168152602001606081525090565b6040518060200160405280600081525090565b828054614df190616c21565b90600052602060002090601f016020900481019282614e135760008555614e5a565b82601f10614e2c57805160ff1916838001178555614e5a565b82800160010185558215614e5a579182015b82811115614e59578251825591602001919060010190614e3e565b5b509050614e679190614e6b565b5090565b5b80821115614e84576000816000905550600101614e6c565b5090565b6000604051905090565b600080fd5b600080fd5b600073ffffffffffffffffffffffffffffffffffffffff82169050919050565b6000614ec782614e9c565b9050919050565b614ed781614ebc565b8114614ee257600080fd5b50565b600081359050614ef481614ece565b92915050565b6000819050919050565b614f0d81614efa565b8114614f1857600080fd5b50565b600081359050614f2a81614f04565b92915050565b60008115159050919050565b614f4581614f30565b8114614f5057600080fd5b50565b600081359050614f6281614f3c565b92915050565b600080600080600060a08688031215614f8457614f83614e92565b5b6000614f9288828901614ee5565b9550506020614fa388828901614ee5565b9450506040614fb488828901614ee5565b9350506060614fc588828901614f1b565b9250506080614fd688828901614f53565b9150509295509295909350565b614fec81614efa565b82525050565b60006020820190506150076000830184614fe3565b92915050565b600061ffff82169050919050565b6150248161500d565b811461502f57600080fd5b50565b6000813590506150418161501b565b92915050565b600060ff82169050919050565b61505d81615047565b811461506857600080fd5b50565b60008135905061507a81615054565b92915050565b6000819050919050565b61509381615080565b811461509e57600080fd5b50565b6000813590506150b08161508a565b92915050565b600080600080600080600080610100898b0312156150d7576150d6614e92565b5b60006150e58b828c01614ee5565b98505060206150f68b828c01614f1b565b97505060406151078b828c01614ee5565b96505060606151188b828c01615032565b95505060806151298b828c01614f1b565b94505060a061513a8b828c0161506b565b93505060c061514b8b828c016150a1565b92505060e061515c8b828c016150a1565b9150509295985092959890939650565b6000819050919050565b600061519161518c61518784614e9c565b61516c565b614e9c565b9050919050565b60006151a382615176565b9050919050565b60006151b582615198565b9050919050565b6151c5816151aa565b82525050565b60006020820190506151e060008301846151bc565b92915050565b60006fffffffffffffffffffffffffffffffff82169050919050565b61520b816151e6565b82525050565b60006020820190506152266000830184615202565b92915050565b6000806040838503121561524357615242614e92565b5b600061525185828601614ee5565b925050602061526285828601614ee5565b9150509250929050565b60006020828403121561528257615281614e92565b5b60006152908482850161506b565b91505092915050565b6000806000606084860312156152b2576152b1614e92565b5b60006152c086828701614ee5565b93505060206152d186828701614f1b565b92505060406152e286828701614f1b565b9150509250925092565b60006020828403121561530257615301614e92565b5b600061531084828501614f1b565b91505092915050565b60006020828403121561532f5761532e614e92565b5b600061533d84828501614ee5565b91505092915050565b61534f81614efa565b82525050565b60208201600082015161536b6000850182615346565b50505050565b61537a816151e6565b82525050565b600064ffffffffff82169050919050565b61539a81615380565b82525050565b6153a98161500d565b82525050565b6153b881614ebc565b82525050565b6101e0820160008201516153d56000850182615355565b5060208201516153e86020850182615371565b5060408201516153fb6040850182615371565b50606082015161540e6060850182615371565b5060808201516154216080850182615371565b5060a082015161543460a0850182615371565b5060c082015161544760c0850182615391565b5060e082015161545a60e08501826153a0565b5061010082015161546f6101008501826153af565b506101208201516154846101208501826153af565b506101408201516154996101408501826153af565b506101608201516154ae6101608501826153af565b506101808201516154c3610180850182615371565b506101a08201516154d86101a0850182615371565b506101c08201516154ed6101c0850182615371565b50505050565b60006101e08201905061550960008301846153be565b92915050565b600080fd5b600080fd5b600080fd5b60008083601f8401126155345761553361550f565b5b8235905067ffffffffffffffff81111561555157615550615514565b5b60208301915083600182028301111561556d5761556c615519565b5b9250929050565b60008060008060008060a0878903121561559157615590614e92565b5b600061559f89828a01614ee5565b96505060206155b089828a01614ee5565b95505060406155c189828a01614f1b565b945050606087013567ffffffffffffffff8111156155e2576155e1614e97565b5b6155ee89828a0161551e565b9350935050608061560189828a01615032565b9150509295509295509295565b6020820160008201516156246000850182615346565b50505050565b600060208201905061563f600083018461560e565b92915050565b60006020828403121561565b5761565a614e92565b5b600061566984828501615032565b91505092915050565b61567b81614ebc565b82525050565b60006020820190506156966000830184615672565b92915050565b600080600080608085870312156156b6576156b5614e92565b5b60006156c487828801614ee5565b94505060206156d587828801614f1b565b93505060406156e687828801614f1b565b92505060606156f787828801614ee5565b91505092959194509250565b6000806040838503121561571a57615719614e92565b5b600061572885828601614ee5565b925050602061573985828601614f53565b9150509250929050565b6000806000806080858703121561575d5761575c614e92565b5b600061576b87828801614ee5565b945050602061577c87828801614f1b565b935050604061578d87828801614ee5565b925050606061579e87828801615032565b91505092959194509250565b6000806000606084860312156157c3576157c2614e92565b5b60006157d186828701614ee5565b93505060206157e286828701614f1b565b92505060406157f386828701614ee5565b9150509250925092565b600081519050919050565b600082825260208201905092915050565b60005b8381101561583757808201518184015260208101905061581c565b83811115615846576000848401525b50505050565b6000601f19601f8301169050919050565b6000615868826157fd565b6158728185615808565b9350615882818560208601615819565b61588b8161584c565b840191505092915050565b600060a0830160008301516158ae60008601826153a0565b5060208301516158c160208601826153a0565b5060408301516158d460408601826153a0565b5060608301516158e760608601826153af565b50608083015184820360808601526158ff828261585d565b9150508091505092915050565b600060208201905081810360008301526159268184615896565b905092915050565b600080600080600060a0868803121561594a57615949614e92565b5b600061595888828901614ee5565b955050602061596988828901614ee5565b945050604061597a88828901614ee5565b935050606061598b88828901614ee5565b925050608061599c88828901614ee5565b9150509295509295909350565b600080604083850312156159c0576159bf614e92565b5b60006159ce85828601614ee5565b92505060206159df85828601614f1b565b9150509250929050565b60008083601f8401126159ff576159fe61550f565b5b8235905067ffffffffffffffff811115615a1c57615a1b615514565b5b602083019150836020820283011115615a3857615a37615519565b5b9250929050565b60008060208385031215615a5657615a55614e92565b5b600083013567ffffffffffffffff811115615a7457615a73614e97565b5b615a80858286016159e9565b92509250509250929050565b600080600080600060a08688031215615aa857615aa7614e92565b5b6000615ab688828901614ee5565b9550506020615ac788828901614f1b565b9450506040615ad888828901614f1b565b9350506060615ae988828901615032565b9250506080615afa88828901614ee5565b9150509295509295909350565b60008083601f840112615b1d57615b1c61550f565b5b8235905067ffffffffffffffff811115615b3a57615b39615514565b5b602083019150836020820283011115615b5657615b55615519565b5b9250929050565b600080600080600080600080600080600060e08c8e031215615b8257615b81614e92565b5b6000615b908e828f01614ee5565b9b505060208c013567ffffffffffffffff811115615bb157615bb0614e97565b5b615bbd8e828f016159e9565b9a509a505060408c013567ffffffffffffffff811115615be057615bdf614e97565b5b615bec8e828f01615b07565b985098505060608c013567ffffffffffffffff811115615c0f57615c0e614e97565b5b615c1b8e828f01615b07565b96509650506080615c2e8e828f01614ee5565b94505060a08c013567ffffffffffffffff811115615c4f57615c4e614e97565b5b615c5b8e828f0161551e565b935093505060c0615c6e8e828f01615032565b9150509295989b509295989b9093969950565b615c8a816151e6565b8114615c9557600080fd5b50565b600081359050615ca781615c81565b92915050565b60008060408385031215615cc457615cc3614e92565b5b6000615cd285828601615c98565b9250506020615ce385828601615c98565b9150509250929050565b600060c082019050615d026000830189614fe3565b615d0f6020830188614fe3565b615d1c6040830187614fe3565b615d296060830186614fe3565b615d366080830185614fe3565b615d4360a0830184614fe3565b979650505050505050565b602082016000820151615d646000850182615346565b50505050565b6000602082019050615d7f6000830184615d4e565b92915050565b6000615d9082614ebc565b9050919050565b615da081615d85565b8114615dab57600080fd5b50565b600081359050615dbd81615d97565b92915050565b600060208284031215615dd957615dd8614e92565b5b6000615de784828501615dae565b91505092915050565b600080600060608486031215615e0957615e08614e92565b5b6000615e1786828701614ee5565b9350506020615e2886828701614ee5565b9250506040615e3986828701614f1b565b9150509250925092565b600081519050919050565b600082825260208201905092915050565b6000819050602082019050919050565b6000615e7b83836153af565b60208301905092915050565b6000602082019050919050565b6000615e9f82615e43565b615ea98185615e4e565b9350615eb483615e5f565b8060005b83811015615ee5578151615ecc8882615e6f565b9750615ed783615e87565b925050600181019050615eb8565b5085935050505092915050565b60006020820190508181036000830152615f0c8184615e94565b905092915050565b600080fd5b7f4e487b7100000000000000000000000000000000000000000000000000000000600052604160045260246000fd5b615f518261584c565b810181811067ffffffffffffffff82111715615f7057615f6f615f19565b5b80604052505050565b6000615f83614e88565b9050615f8f8282615f48565b919050565b600080fd5b600080fd5b600067ffffffffffffffff821115615fb957615fb8615f19565b5b615fc28261584c565b9050602081019050919050565b82818337600083830152505050565b6000615ff1615fec84615f9e565b615f79565b90508281526020810184848401111561600d5761600c615f99565b5b616018848285615fcf565b509392505050565b600082601f8301126160355761603461550f565b5b8135616045848260208601615fde565b91505092915050565b600060a0828403121561606457616063615f14565b5b61606e60a0615f79565b9050600061607e84828501615032565b600083015250602061609284828501615032565b60208301525060406160a684828501615032565b60408301525060606160ba84828501614ee5565b606083015250608082013567ffffffffffffffff8111156160de576160dd615f94565b5b6160ea84828501616020565b60808301525092915050565b6000806040838503121561610d5761610c614e92565b5b600061611b8582860161506b565b925050602083013567ffffffffffffffff81111561613c5761613b614e97565b5b6161488582860161604e565b9150509250929050565b60008060008060008060c0878903121561616f5761616e614e92565b5b600061617d89828a01614ee5565b965050602061618e89828a01614ee5565b955050604061619f89828a01614ee5565b94505060606161b089828a01614f1b565b93505060806161c189828a01614f1b565b92505060a06161d289828a01614f1b565b9150509295509295509295565b600080600080600080600080610100898b031215616200576161ff614e92565b5b600061620e8b828c01614ee5565b985050602061621f8b828c01614f1b565b97505060406162308b828c01614f1b565b96505060606162418b828c01614ee5565b95505060806162528b828c01614f1b565b94505060a06162638b828c0161506b565b93505060c06162748b828c016150a1565b92505060e06162858b828c016150a1565b9150509295985092959890939650565b600080fd5b6000602082840312156162b0576162af616295565b5b81905092915050565b600080604083850312156162d0576162cf614e92565b5b60006162de85828601614ee5565b92505060206162ef8582860161629a565b9150509250929050565b6163028161500d565b82525050565b600060208201905061631d60008301846162f9565b92915050565b60008151905061633281614ece565b92915050565b60006020828403121561634e5761634d614e92565b5b600061635c84828501616323565b91505092915050565b8082525050565b8082525050565b8082525050565b8082525050565b61638a81614efa565b82525050565b61639981614ebc565b82525050565b6163a881614f30565b82525050565b6163b781615047565b82525050565b610120820160008201516163d46000850182616381565b5060208201516163e76020850182616381565b5060408201516163fa6040850182616390565b50606082015161640d6060850182616390565b5060808201516164206080850182616390565b5060a082015161643360a085018261639f565b5060c082015161644660c0850182616390565b5060e082015161645960e08501826163ae565b5061010082015161646e610100850182616390565b50505050565b60006101a08201905061648a6000830188616365565b616497602083018761636c565b6164a46040830186616373565b6164b1606083018561637a565b6164be60808301846163bd565b9695505050505050565b6164d181615047565b82525050565b6164e081615080565b82525050565b600060e0820190506164fb600083018a615672565b6165086020830189615672565b6165156040830188614fe3565b6165226060830187614fe3565b61652f60808301866164c8565b61653c60a08301856164d7565b61654960c08301846164d7565b98975050505050505050565b8082525050565b6165658161500d565b82525050565b6080820160008201516165816000850182616390565b5060208201516165946020850182616381565b5060408201516165a76040850182616390565b5060608201516165ba606085018261655c565b50505050565b600060e0820190506165d56000830187616365565b6165e2602083018661636c565b6165ef6040830185616555565b6165fc606083018461656b565b95945050505050565b600082825260208201905092915050565b6000616621826157fd565b61662b8185616605565b935061663b818560208601615819565b6166448161584c565b840191505092915050565b600060208201905081810360008301526166698184616616565b905092915050565b8082525050565b60608201600082015161668e6000850182616381565b5060208201516166a16020850182616390565b5060408201516166b460408501826163ae565b50505050565b6000610100820190506166d06000830189616365565b6166dd602083018861636c565b6166ea604083018761637a565b6166f76060830186616671565b6167046080830185616555565b61671160a0830184616678565b979650505050505050565b7f4e487b7100000000000000000000000000000000000000000000000000000000600052602160045260246000fd5b6003811061675c5761675b61671c565b5b50565b600081905061676d8261674b565b919050565b600061677d8261675f565b9050919050565b61678d81616772565b82525050565b60a0820160008201516167a96000850182616390565b5060208201516167bc6020850182616381565b5060408201516167cf6040850182616784565b5060608201516167e26060850182616390565b5060808201516167f5608085018261639f565b50505050565b6000610100820190506168116000830187616365565b61681e602083018661636c565b61682b6040830185616555565b6168386060830184616793565b95945050505050565b60008151905061685081614f04565b92915050565b60006020828403121561686c5761686b614e92565b5b600061687a84828501616841565b91505092915050565b8082525050565b600081519050919050565b600082825260208201905092915050565b60006168b18261688a565b6168bb8185616895565b93506168cb818560208601615819565b6168d48161584c565b840191505092915050565b600060e0830160008301516168f76000860182616390565b50602083015161690a6020860182616390565b50604083015161691d6040860182616381565b506060830151848203606086015261693582826168a6565b915050608083015161694a608086018261655c565b5060a083015161695d60a0860182616381565b5060c083015161697060c0860182616381565b508091505092915050565b60006040820190506169906000830185616883565b81810360208301526169a281846168df565b90509392505050565b6169b481614ebc565b82525050565b6169c381614f30565b82525050565b60006169e46169df6169da8461500d565b61516c565b614efa565b9050919050565b6169f4816169c9565b82525050565b616a0381615047565b82525050565b600061012082019050616a1f600083018c616365565b616a2c602083018b61636c565b616a39604083018a61637a565b616a466060830189616555565b616a5360808301886169ab565b616a6060a08301876169ba565b616a6d60c08301866169eb565b616a7a60e08301856169ab565b616a886101008301846169fa565b9a9950505050505050505050565b60c082016000820151616aac6000850182616390565b506020820151616abf6020850182616381565b506040820151616ad26040850182616390565b506060820151616ae56060850182616381565b506080820151616af86080850182616390565b5060a0820151616b0b60a08501826163ae565b50505050565b600061014082019050616b276000830188616365565b616b34602083018761636c565b616b41604083018661637a565b616b4e6060830185616555565b616b5b6080830184616a96565b9695505050505050565b616b6e81614efa565b82525050565b616b7d8161500d565b82525050565b600060e082019050616b98600083018a616365565b616ba5602083018961636c565b616bb26040830188616555565b616bbf60608301876169ab565b616bcc6080830186616b65565b616bd960a08301856169ab565b616be660c0830184616b74565b98975050505050505050565b7f4e487b7100000000000000000000000000000000000000000000000000000000600052602260045260246000fd5b60006002820490506001821680616c3957607f821691505b60208210811415616c4d57616c4c616bf2565b5b50919050565b60e082016000820151616c696000850182616390565b506020820151616c7c6020850182616390565b506040820151616c8f6040850182616390565b506060820151616ca26060850182616390565b506080820151616cb56080850182616390565b5060a0820151616cc860a085018261655c565b5060c0820151616cdb60c085018261655c565b50505050565b600061012082019050616cf76000830186616365565b616d04602083018561636c565b616d116040830184616c53565b949350505050565b600081519050616d2881614f3c565b92915050565b600060208284031215616d4457616d43614e92565b5b6000616d5284828501616d19565b91505092915050565b7f4e487b7100000000000000000000000000000000000000000000000000000000600052601160045260246000fd5b6000616d958261500d565b915061ffff821415616daa57616da9616d5b565b5b600182019050919050565b616dbe81616772565b82525050565b6000608082019050616dd96000830187616883565b616de66020830186616555565b616df360408301856169ab565b616e006060830184616db5565b95945050505050565b600082825260208201905092915050565b6000819050919050565b6000616e308383616390565b60208301905092915050565b6000616e4b6020840184614ee5565b905092915050565b6000602082019050919050565b6000616e6c8385616e09565b9350616e7782616e1a565b8060005b85811015616eb057616e8d8284616e3c565b616e978882616e24565b9750616ea283616e53565b925050600181019050616e7b565b5085925050509392505050565b6000604082019050616ed26000830186616365565b8181036020830152616ee5818486616e60565b9050949350505050565b61018082016000820151616f066000850182616390565b506020820151616f196020850182616390565b506040820151616f2c6040850182616390565b506060820151616f3f6060850182616381565b506080820151616f526080850182616784565b5060a0820151616f6560a085018261655c565b5060c0820151616f7860c085018261639f565b5060e0820151616f8b60e0850182616381565b50610100820151616fa0610100850182616381565b50610120820151616fb5610120850182616390565b50610140820151616fca6101408501826163ae565b50610160820151616fdf610160850182616390565b50505050565b600061020082019050616ffb6000830188616365565b617008602083018761636c565b617015604083018661637a565b6170226060830185616555565b61702f6080830184616eef565b9695505050505050565b600082825260208201905092915050565b600061705582615e43565b61705f8185617039565b935061706a83615e5f565b8060005b8381101561709b5781516170828882616e24565b975061708d83615e87565b92505060018101905061706e565b5085935050505092915050565b600081519050919050565b600082825260208201905092915050565b6000819050602082019050919050565b60006170e08383616381565b60208301905092915050565b6000602082019050919050565b6000617104826170a8565b61710e81856170b3565b9350617119836170c4565b8060005b8381101561714a57815161713188826170d4565b975061713c836170ec565b92505060018101905061711d565b5085935050505092915050565b60006101c0830160008301516171706000860182616390565b5060208301518482036020860152617188828261704a565b915050604083015184820360408601526171a282826170f9565b915050606083015184820360608601526171bc82826170f9565b91505060808301516171d16080860182616390565b5060a083015184820360a08601526171e982826168a6565b91505060c08301516171fe60c086018261655c565b5060e083015161721160e0860182616381565b50610100830151617226610100860182616381565b5061012083015161723b610120860182616381565b50610140830151617250610140860182616381565b50610160830151617265610160860182616390565b5061018083015161727a6101808601826163ae565b506101a083015161728f6101a086018261639f565b508091505092915050565b600060a0820190506172af6000830188616365565b6172bc602083018761636c565b6172c9604083018661637a565b6172d66060830185616555565b81810360808301526172e88184617157565b90509695505050505050565b60208201600082015161730a6000850182616381565b50505050565b60a08201600082015161732660008501826172f4565b5060208201516173396020850182616381565b50604082015161734c6040850182616390565b50606082015161735f6060850182616390565b50608082015161737260808501826163ae565b50505050565b60006101008201905061738e6000830187616365565b61739b602083018661636c565b6173a8604083018561637a565b6173b56060830184617310565b95945050505050565b60008060008060008060c087890312156173db576173da614e92565b5b60006173e989828a01616841565b96505060206173fa89828a01616841565b955050604061740b89828a01616841565b945050606061741c89828a01616841565b935050608061742d89828a01616841565b92505060a061743e89828a01616841565b9150509295509295509295565b7f436f6e747261637420696e7374616e63652068617320616c726561647920626560008201527f656e20696e697469616c697a6564000000000000000000000000000000000000602082015250565b60006174a7602e83616605565b91506174b28261744b565b604082019050919050565b600060208201905081810360008301526174d68161749a565b9050919050565b60006060820190506174f26000830186616883565b6174ff60208301856169ab565b61750c60408301846169ab565b949350505050565b600060608201905061752960008301866169ab565b61753660208301856169ab565b6175436040830184616b65565b949350505050565b600061755682614efa565b915061756183614efa565b92508282101561757457617573616d5b565b5b828203905092915050565b7f4e487b7100000000000000000000000000000000000000000000000000000000600052603260045260246000fd5b60006175b982614efa565b91507fffffffffffffffffffffffffffffffffffffffffffffffffffffffffffffffff8214156175ec576175eb616d5b565b5b600182019050919050565b6101208201600082015161760e6000850182616390565b5060208201516176216020850182616390565b5060408201516176346040850182616390565b5060608201516176476060850182616381565b50608082015161765a6080850182616381565b5060a082015161766d60a0850182616381565b5060c082015161768060c0850182616381565b5060e082015161769360e0850182616390565b506101008201516176a86101008501826163ae565b50505050565b60006101a0820190506176c46000830188616365565b6176d1602083018761636c565b6176de604083018661637a565b6176eb6060830185616373565b6176f860808301846175f7565b9695505050505050565b600060a0820190506177176000830188616883565b61772460208301876169ab565b6177316040830186616b65565b61773e6060830185616b65565b61774b6080830184616b65565b9695505050505050565b600060408201905061776a6000830185616365565b61777760208301846169ab565b9392505050565b6000813561778b81614f04565b80915050919050565b60008160001b9050919050565b60007fffffffffffffffffffffffffffffffffffffffffffffffffffffffffffffffff6177cd84617794565b9350801983169250808416831791505092915050565b60006177fe6177f96177f484614efa565b61516c565b614efa565b9050919050565b6000819050919050565b617818826177e3565b61782b61782482617805565b83546177a1565b8255505050565b6000810160008301806178448161777e565b9050617850818461780f565b5050505050565b6178618282617832565b5050565b600061787082614efa565b915061787b83614efa565b9250817fffffffffffffffffffffffffffffffffffffffffffffffffffffffffffffffff04831182151516156178b4576178b3616d5b565b5b828202905092915050565b7f4e487b7100000000000000000000000000000000000000000000000000000000600052601260045260246000fd5b60006178f982614efa565b915061790483614efa565b9250827fffffffffffffffffffffffffffffffffffffffffffffffffffffffffffffffff0382111561793957617938616d5b565b5b828201905092915050565b600061794f82614efa565b915061795a83614efa565b92508261796a576179696178bf565b5b82820490509291505056fea26469706673582212202defae6372ea4fdfcd3ef43de44f9e31275a115000cefc717304622854078a6664736f6c634300080a0033",
  "linkReferences": {
    "contracts/Aave_Contracts/protocol/libraries/logic/BorrowLogic.sol": {
      "BorrowLogic": [
        {
          "length": 20,
          "start": 4895
        },
        {
          "length": 20,
          "start": 7051
        },
        {
          "length": 20,
          "start": 10379
        },
        {
          "length": 20,
          "start": 10746
        },
        {
          "length": 20,
          "start": 14092
        },
        {
          "length": 20,
          "start": 16972
        }
      ]
    },
    "contracts/Aave_Contracts/protocol/libraries/logic/BridgeLogic.sol": {
      "BridgeLogic": [
        {
          "length": 20,
          "start": 9380
        },
        {
          "length": 20,
          "start": 16040
        }
      ]
    },
    "contracts/Aave_Contracts/protocol/libraries/logic/EModeLogic.sol": {
      "EModeLogic": [
        {
          "length": 20,
          "start": 4498
        }
      ]
    },
    "contracts/Aave_Contracts/protocol/libraries/logic/FlashLoanLogic.sol": {
      "FlashLoanLogic": [
        {
          "length": 20,
          "start": 6709
        },
        {
          "length": 20,
          "start": 12533
        }
      ]
    },
    "contracts/Aave_Contracts/protocol/libraries/logic/LiquidationLogic.sol": {
      "LiquidationLogic": [
        {
          "length": 20,
          "start": 2723
        }
      ]
    },
    "contracts/Aave_Contracts/protocol/libraries/logic/PoolLogic.sol": {
      "PoolLogic": [
        {
          "length": 20,
          "start": 9990
        },
        {
          "length": 20,
          "start": 10634
        },
        {
          "length": 20,
          "start": 12858
        },
        {
          "length": 20,
          "start": 14273
        },
        {
          "length": 20,
          "start": 16228
        }
      ]
    },
    "contracts/Aave_Contracts/protocol/libraries/logic/SupplyLogic.sol": {
      "SupplyLogic": [
        {
          "length": 20,
          "start": 3527
        },
        {
          "length": 20,
          "start": 7404
        },
        {
          "length": 20,
          "start": 7826
        },
        {
          "length": 20,
          "start": 8819
        },
        {
          "length": 20,
          "start": 15517
        },
        {
          "length": 20,
          "start": 16377
        }
      ]
    }
  },
  "deployedLinkReferences": {
    "contracts/Aave_Contracts/protocol/libraries/logic/BorrowLogic.sol": {
      "BorrowLogic": [
        {
          "length": 20,
          "start": 4436
        },
        {
          "length": 20,
          "start": 6592
        },
        {
          "length": 20,
          "start": 9920
        },
        {
          "length": 20,
          "start": 10287
        },
        {
          "length": 20,
          "start": 13633
        },
        {
          "length": 20,
          "start": 16513
        }
      ]
    },
    "contracts/Aave_Contracts/protocol/libraries/logic/BridgeLogic.sol": {
      "BridgeLogic": [
        {
          "length": 20,
          "start": 8921
        },
        {
          "length": 20,
          "start": 15581
        }
      ]
    },
    "contracts/Aave_Contracts/protocol/libraries/logic/EModeLogic.sol": {
      "EModeLogic": [
        {
          "length": 20,
          "start": 4039
        }
      ]
    },
    "contracts/Aave_Contracts/protocol/libraries/logic/FlashLoanLogic.sol": {
      "FlashLoanLogic": [
        {
          "length": 20,
          "start": 6250
        },
        {
          "length": 20,
          "start": 12074
        }
      ]
    },
    "contracts/Aave_Contracts/protocol/libraries/logic/LiquidationLogic.sol": {
      "LiquidationLogic": [
        {
          "length": 20,
          "start": 2264
        }
      ]
    },
    "contracts/Aave_Contracts/protocol/libraries/logic/PoolLogic.sol": {
      "PoolLogic": [
        {
          "length": 20,
          "start": 9531
        },
        {
          "length": 20,
          "start": 10175
        },
        {
          "length": 20,
          "start": 12399
        },
        {
          "length": 20,
          "start": 13814
        },
        {
          "length": 20,
          "start": 15769
        }
      ]
    },
    "contracts/Aave_Contracts/protocol/libraries/logic/SupplyLogic.sol": {
      "SupplyLogic": [
        {
          "length": 20,
          "start": 3068
        },
        {
          "length": 20,
          "start": 6945
        },
        {
          "length": 20,
          "start": 7367
        },
        {
          "length": 20,
          "start": 8360
        },
        {
          "length": 20,
          "start": 15058
        },
        {
          "length": 20,
          "start": 15918
        }
      ]
    }
  }
}