{
  "_format": "hh-sol-artifact-1",
  "contractName": "L2Encoder",
  "sourceName": "contracts/Aave_Contracts/misc/L2Encoder.sol",
  "abi": [
    {
      "inputs": [
        {
          "internalType": "contract IPool",
          "name": "pool",
          "type": "address"
        }
      ],
      "stateMutability": "nonpayable",
      "type": "constructor"
    },
    {
      "inputs": [],
      "name": "POOL",
      "outputs": [
        {
          "internalType": "contract IPool",
          "name": "",
          "type": "address"
        }
      ],
      "stateMutability": "view",
      "type": "function"
    },
    {
      "inputs": [
        {
          "internalType": "address",
          "name": "asset",
          "type": "address"
        },
        {
          "internalType": "uint256",
          "name": "amount",
          "type": "uint256"
        },
        {
          "internalType": "uint256",
          "name": "interestRateMode",
          "type": "uint256"
        },
        {
          "internalType": "uint16",
          "name": "referralCode",
          "type": "uint16"
        }
      ],
      "name": "encodeBorrowParams",
      "outputs": [
        {
          "internalType": "bytes32",
          "name": "",
          "type": "bytes32"
        }
      ],
      "stateMutability": "view",
      "type": "function"
    },
    {
      "inputs": [
        {
          "internalType": "address",
          "name": "collateralAsset",
          "type": "address"
        },
        {
          "internalType": "address",
          "name": "debtAsset",
          "type": "address"
        },
        {
          "internalType": "address",
          "name": "user",
          "type": "address"
        },
        {
          "internalType": "uint256",
          "name": "debtToCover",
          "type": "uint256"
        },
        {
          "internalType": "bool",
          "name": "receiveAToken",
          "type": "bool"
        }
      ],
      "name": "encodeLiquidationCall",
      "outputs": [
        {
          "internalType": "bytes32",
          "name": "",
          "type": "bytes32"
        },
        {
          "internalType": "bytes32",
          "name": "",
          "type": "bytes32"
        }
      ],
      "stateMutability": "view",
      "type": "function"
    },
    {
      "inputs": [
        {
          "internalType": "address",
          "name": "asset",
          "type": "address"
        },
        {
          "internalType": "address",
          "name": "user",
          "type": "address"
        }
      ],
      "name": "encodeRebalanceStableBorrowRate",
      "outputs": [
        {
          "internalType": "bytes32",
          "name": "",
          "type": "bytes32"
        }
      ],
      "stateMutability": "view",
      "type": "function"
    },
    {
      "inputs": [
        {
          "internalType": "address",
          "name": "asset",
          "type": "address"
        },
        {
          "internalType": "uint256",
          "name": "amount",
          "type": "uint256"
        },
        {
          "internalType": "uint256",
          "name": "interestRateMode",
          "type": "uint256"
        }
      ],
      "name": "encodeRepayParams",
      "outputs": [
        {
          "internalType": "bytes32",
          "name": "",
          "type": "bytes32"
        }
      ],
      "stateMutability": "view",
      "type": "function"
    },
    {
      "inputs": [
        {
          "internalType": "address",
          "name": "asset",
          "type": "address"
        },
        {
          "internalType": "uint256",
          "name": "amount",
          "type": "uint256"
        },
        {
          "internalType": "uint256",
          "name": "interestRateMode",
          "type": "uint256"
        }
      ],
      "name": "encodeRepayWithATokensParams",
      "outputs": [
        {
          "internalType": "bytes32",
          "name": "",
          "type": "bytes32"
        }
      ],
      "stateMutability": "view",
      "type": "function"
    },
    {
      "inputs": [
        {
          "internalType": "address",
          "name": "asset",
          "type": "address"
        },
        {
          "internalType": "uint256",
          "name": "amount",
          "type": "uint256"
        },
        {
          "internalType": "uint256",
          "name": "interestRateMode",
          "type": "uint256"
        },
        {
          "internalType": "uint256",
          "name": "deadline",
          "type": "uint256"
        },
        {
          "internalType": "uint8",
          "name": "permitV",
          "type": "uint8"
        },
        {
          "internalType": "bytes32",
          "name": "permitR",
          "type": "bytes32"
        },
        {
          "internalType": "bytes32",
          "name": "permitS",
          "type": "bytes32"
        }
      ],
      "name": "encodeRepayWithPermitParams",
      "outputs": [
        {
          "internalType": "bytes32",
          "name": "",
          "type": "bytes32"
        },
        {
          "internalType": "bytes32",
          "name": "",
          "type": "bytes32"
        },
        {
          "internalType": "bytes32",
          "name": "",
          "type": "bytes32"
        }
      ],
      "stateMutability": "view",
      "type": "function"
    },
    {
      "inputs": [
        {
          "internalType": "address",
          "name": "asset",
          "type": "address"
        },
        {
          "internalType": "bool",
          "name": "useAsCollateral",
          "type": "bool"
        }
      ],
      "name": "encodeSetUserUseReserveAsCollateral",
      "outputs": [
        {
          "internalType": "bytes32",
          "name": "",
          "type": "bytes32"
        }
      ],
      "stateMutability": "view",
      "type": "function"
    },
    {
      "inputs": [
        {
          "internalType": "address",
          "name": "asset",
          "type": "address"
        },
        {
          "internalType": "uint256",
          "name": "amount",
          "type": "uint256"
        },
        {
          "internalType": "uint16",
          "name": "referralCode",
          "type": "uint16"
        }
      ],
      "name": "encodeSupplyParams",
      "outputs": [
        {
          "internalType": "bytes32",
          "name": "",
          "type": "bytes32"
        }
      ],
      "stateMutability": "view",
      "type": "function"
    },
    {
      "inputs": [
        {
          "internalType": "address",
          "name": "asset",
          "type": "address"
        },
        {
          "internalType": "uint256",
          "name": "amount",
          "type": "uint256"
        },
        {
          "internalType": "uint16",
          "name": "referralCode",
          "type": "uint16"
        },
        {
          "internalType": "uint256",
          "name": "deadline",
          "type": "uint256"
        },
        {
          "internalType": "uint8",
          "name": "permitV",
          "type": "uint8"
        },
        {
          "internalType": "bytes32",
          "name": "permitR",
          "type": "bytes32"
        },
        {
          "internalType": "bytes32",
          "name": "permitS",
          "type": "bytes32"
        }
      ],
      "name": "encodeSupplyWithPermitParams",
      "outputs": [
        {
          "internalType": "bytes32",
          "name": "",
          "type": "bytes32"
        },
        {
          "internalType": "bytes32",
          "name": "",
          "type": "bytes32"
        },
        {
          "internalType": "bytes32",
          "name": "",
          "type": "bytes32"
        }
      ],
      "stateMutability": "view",
      "type": "function"
    },
    {
      "inputs": [
        {
          "internalType": "address",
          "name": "asset",
          "type": "address"
        },
        {
          "internalType": "uint256",
          "name": "interestRateMode",
          "type": "uint256"
        }
      ],
      "name": "encodeSwapBorrowRateMode",
      "outputs": [
        {
          "internalType": "bytes32",
          "name": "",
          "type": "bytes32"
        }
      ],
      "stateMutability": "view",
      "type": "function"
    },
    {
      "inputs": [
        {
          "internalType": "address",
          "name": "asset",
          "type": "address"
        },
        {
          "internalType": "uint256",
          "name": "amount",
          "type": "uint256"
        }
      ],
      "name": "encodeWithdrawParams",
      "outputs": [
        {
          "internalType": "bytes32",
          "name": "",
          "type": "bytes32"
        }
      ],
      "stateMutability": "view",
      "type": "function"
    }
  ],
  "bytecode": "0x60a06040523480156200001157600080fd5b5060405162001b4d38038062001b4d8339818101604052810190620000379190620000f0565b8073ffffffffffffffffffffffffffffffffffffffff1660808173ffffffffffffffffffffffffffffffffffffffff16815250505062000122565b600080fd5b600073ffffffffffffffffffffffffffffffffffffffff82169050919050565b6000620000a48262000077565b9050919050565b6000620000b88262000097565b9050919050565b620000ca81620000ab565b8114620000d657600080fd5b50565b600081519050620000ea81620000bf565b92915050565b60006020828403121562000109576200010862000072565b5b60006200011984828501620000d9565b91505092915050565b6080516119c26200018b600039600081816102f1015281816103d8015281816104970152818161056401528181610672015281816107660152818161078f015281816108370152818161097001528181610a8f01528181610b620152610c2401526119c26000f3fe608060405234801561001057600080fd5b50600436106100b45760003560e01c806388d518521161007157806388d51852146101c95780638da7fb18146101fa5780639d2ffc1b1461022a578063b76398e41461025a578063fc0eed851461028a578063fed63a93146102ba576100b4565b80631a64acf2146100b95780631a8f6dee146100e95780631fd34797146101195780635cc7bc1014610149578063671a7fae146101795780637535d246146101ab575b600080fd5b6100d360048036038101906100ce9190610f41565b6102ec565b6040516100e09190610fc1565b60405180910390f35b61010360048036038101906100fe9190610fdc565b6103d3565b6040516101109190610fc1565b60405180910390f35b610133600480360381019061012e919061101c565b610492565b6040516101409190610fc1565b60405180910390f35b610163600480360381019061015e919061101c565b61055f565b6040516101709190610fc1565b60405180910390f35b610193600480360381019061018e91906110c1565b61066a565b6040516101a293929190611163565b60405180910390f35b6101b3610764565b6040516101c091906111f9565b60405180910390f35b6101e360048036038101906101de919061124c565b610788565b6040516101f19291906112c7565b60405180910390f35b610214600480360381019061020f91906112f0565b610955565b6040516102219190610fc1565b60405180910390f35b610244600480360381019061023f91906112f0565b61096b565b6040516102519190610fc1565b60405180910390f35b610274600480360381019061026f9190611343565b610a8a565b6040516102819190610fc1565b60405180910390f35b6102a4600480360381019061029f9190611396565b610b5d565b6040516102b19190610fc1565b60405180910390f35b6102d460048036038101906102cf91906113d6565b610c1c565b6040516102e393929190611163565b60405180910390f35b6000807f000000000000000000000000000000000000000000000000000000000000000073ffffffffffffffffffffffffffffffffffffffff166335ea6a75876040518263ffffffff1660e01b81526004016103489190611487565b6101e060405180830381865afa158015610366573d6000803e3d6000fd5b505050506040513d601f19601f8201168201806040525081019061038a9190611797565b905060008160e00151905060006103a087610d62565b905060006103ad87610dc1565b905060008660981b8260901b018360101b01840190508095505050505050949350505050565b6000807f000000000000000000000000000000000000000000000000000000000000000073ffffffffffffffffffffffffffffffffffffffff166335ea6a75856040518263ffffffff1660e01b815260040161042f9190611487565b6101e060405180830381865afa15801561044d573d6000803e3d6000fd5b505050506040513d601f19601f820116820180604052508101906104719190611797565b905060008160e00151905060008460101b8201905080935050505092915050565b6000807f000000000000000000000000000000000000000000000000000000000000000073ffffffffffffffffffffffffffffffffffffffff166335ea6a75856040518263ffffffff1660e01b81526004016104ee9190611487565b6101e060405180830381865afa15801561050c573d6000803e3d6000fd5b505050506040513d601f19601f820116820180604052508101906105309190611797565b905060008160e001519050600061054685610dc1565b905060008160101b830190508094505050505092915050565b6000807f000000000000000000000000000000000000000000000000000000000000000073ffffffffffffffffffffffffffffffffffffffff166335ea6a75856040518263ffffffff1660e01b81526004016105bb9190611487565b6101e060405180830381865afa1580156105d9573d6000803e3d6000fd5b505050506040513d601f19601f820116820180604052508101906105fd9190611797565b905060008160e00151905060007fffffffffffffffffffffffffffffffffffffffffffffffffffffffffffffffff851461063f5761063a85610d62565b610651565b6fffffffffffffffffffffffffffffffff5b905060008160101b830190508094505050505092915050565b6000806000807f000000000000000000000000000000000000000000000000000000000000000073ffffffffffffffffffffffffffffffffffffffff166335ea6a758c6040518263ffffffff1660e01b81526004016106c99190611487565b6101e060405180830381865afa1580156106e7573d6000803e3d6000fd5b505050506040513d601f19601f8201168201806040525081019061070b9190611797565b905060008160e00151905060006107218c610d62565b9050600061072e8b610e11565b905060008a60c01b8260a01b018d60901b018360101b0184019050808a8a97509750975050505050509750975097945050505050565b7f000000000000000000000000000000000000000000000000000000000000000081565b60008060007f000000000000000000000000000000000000000000000000000000000000000073ffffffffffffffffffffffffffffffffffffffff166335ea6a75896040518263ffffffff1660e01b81526004016107e69190611487565b6101e060405180830381865afa158015610804573d6000803e3d6000fd5b505050506040513d601f19601f820116820180604052508101906108289190611797565b905060008160e00151905060007f000000000000000000000000000000000000000000000000000000000000000073ffffffffffffffffffffffffffffffffffffffff166335ea6a758a6040518263ffffffff1660e01b815260040161088e9190611487565b6101e060405180830381865afa1580156108ac573d6000803e3d6000fd5b505050506040513d601f19601f820116820180604052508101906108d09190611797565b905060008160e00151905060007fffffffffffffffffffffffffffffffffffffffffffffffffffffffffffffffff89146109125761090d89610d62565b610924565b6fffffffffffffffffffffffffffffffff5b90506000808b60201b8460101b87010191508960801b83019050818198509850505050505050509550959350505050565b600061096284848461096b565b90509392505050565b6000807f000000000000000000000000000000000000000000000000000000000000000073ffffffffffffffffffffffffffffffffffffffff166335ea6a75866040518263ffffffff1660e01b81526004016109c79190611487565b6101e060405180830381865afa1580156109e5573d6000803e3d6000fd5b505050506040513d601f19601f82011682018060405250810190610a099190611797565b905060008160e00151905060007fffffffffffffffffffffffffffffffffffffffffffffffffffffffffffffffff8614610a4b57610a4686610d62565b610a5d565b6fffffffffffffffffffffffffffffffff5b90506000610a6a86610dc1565b905060008160901b8360101b018401905080955050505050509392505050565b6000807f000000000000000000000000000000000000000000000000000000000000000073ffffffffffffffffffffffffffffffffffffffff166335ea6a75866040518263ffffffff1660e01b8152600401610ae69190611487565b6101e060405180830381865afa158015610b04573d6000803e3d6000fd5b505050506040513d601f19601f82011682018060405250810190610b289190611797565b905060008160e0015190506000610b3e86610d62565b905060008560901b8260101b0183019050809450505050509392505050565b6000807f000000000000000000000000000000000000000000000000000000000000000073ffffffffffffffffffffffffffffffffffffffff166335ea6a75856040518263ffffffff1660e01b8152600401610bb99190611487565b6101e060405180830381865afa158015610bd7573d6000803e3d6000fd5b505050506040513d601f19601f82011682018060405250810190610bfb9190611797565b905060008160e00151905060008460101b8201905080935050505092915050565b6000806000807f000000000000000000000000000000000000000000000000000000000000000073ffffffffffffffffffffffffffffffffffffffff166335ea6a758c6040518263ffffffff1660e01b8152600401610c7b9190611487565b6101e060405180830381865afa158015610c99573d6000803e3d6000fd5b505050506040513d601f19601f82011682018060405250810190610cbd9190611797565b905060008160e00151905060007fffffffffffffffffffffffffffffffffffffffffffffffffffffffffffffffff8c14610cff57610cfa8c610d62565b610d11565b6fffffffffffffffffffffffffffffffff5b90506000610d1e8c610dc1565b90506000610d2b8c610e11565b905060008b60b81b8260981b018360901b018460101b0185019050808b8b9850985098505050505050509750975097945050505050565b60006fffffffffffffffffffffffffffffffff8016821115610db9576040517f08c379a0000000000000000000000000000000000000000000000000000000008152600401610db090611848565b60405180910390fd5b819050919050565b600060ff8016821115610e09576040517f08c379a0000000000000000000000000000000000000000000000000000000008152600401610e00906118da565b60405180910390fd5b819050919050565b600063ffffffff8016821115610e5c576040517f08c379a0000000000000000000000000000000000000000000000000000000008152600401610e539061196c565b60405180910390fd5b819050919050565b6000604051905090565b600080fd5b600073ffffffffffffffffffffffffffffffffffffffff82169050919050565b6000610e9e82610e73565b9050919050565b610eae81610e93565b8114610eb957600080fd5b50565b600081359050610ecb81610ea5565b92915050565b6000819050919050565b610ee481610ed1565b8114610eef57600080fd5b50565b600081359050610f0181610edb565b92915050565b600061ffff82169050919050565b610f1e81610f07565b8114610f2957600080fd5b50565b600081359050610f3b81610f15565b92915050565b60008060008060808587031215610f5b57610f5a610e6e565b5b6000610f6987828801610ebc565b9450506020610f7a87828801610ef2565b9350506040610f8b87828801610ef2565b9250506060610f9c87828801610f2c565b91505092959194509250565b6000819050919050565b610fbb81610fa8565b82525050565b6000602082019050610fd66000830184610fb2565b92915050565b60008060408385031215610ff357610ff2610e6e565b5b600061100185828601610ebc565b925050602061101285828601610ebc565b9150509250929050565b6000806040838503121561103357611032610e6e565b5b600061104185828601610ebc565b925050602061105285828601610ef2565b9150509250929050565b600060ff82169050919050565b6110728161105c565b811461107d57600080fd5b50565b60008135905061108f81611069565b92915050565b61109e81610fa8565b81146110a957600080fd5b50565b6000813590506110bb81611095565b92915050565b600080600080600080600060e0888a0312156110e0576110df610e6e565b5b60006110ee8a828b01610ebc565b97505060206110ff8a828b01610ef2565b96505060406111108a828b01610f2c565b95505060606111218a828b01610ef2565b94505060806111328a828b01611080565b93505060a06111438a828b016110ac565b92505060c06111548a828b016110ac565b91505092959891949750929550565b60006060820190506111786000830186610fb2565b6111856020830185610fb2565b6111926040830184610fb2565b949350505050565b6000819050919050565b60006111bf6111ba6111b584610e73565b61119a565b610e73565b9050919050565b60006111d1826111a4565b9050919050565b60006111e3826111c6565b9050919050565b6111f3816111d8565b82525050565b600060208201905061120e60008301846111ea565b92915050565b60008115159050919050565b61122981611214565b811461123457600080fd5b50565b60008135905061124681611220565b92915050565b600080600080600060a0868803121561126857611267610e6e565b5b600061127688828901610ebc565b955050602061128788828901610ebc565b945050604061129888828901610ebc565b93505060606112a988828901610ef2565b92505060806112ba88828901611237565b9150509295509295909350565b60006040820190506112dc6000830185610fb2565b6112e96020830184610fb2565b9392505050565b60008060006060848603121561130957611308610e6e565b5b600061131786828701610ebc565b935050602061132886828701610ef2565b925050604061133986828701610ef2565b9150509250925092565b60008060006060848603121561135c5761135b610e6e565b5b600061136a86828701610ebc565b935050602061137b86828701610ef2565b925050604061138c86828701610f2c565b9150509250925092565b600080604083850312156113ad576113ac610e6e565b5b60006113bb85828601610ebc565b92505060206113cc85828601611237565b9150509250929050565b600080600080600080600060e0888a0312156113f5576113f4610e6e565b5b60006114038a828b01610ebc565b97505060206114148a828b01610ef2565b96505060406114258a828b01610ef2565b95505060606114368a828b01610ef2565b94505060806114478a828b01611080565b93505060a06114588a828b016110ac565b92505060c06114698a828b016110ac565b91505092959891949750929550565b61148181610e93565b82525050565b600060208201905061149c6000830184611478565b92915050565b600080fd5b6000601f19601f8301169050919050565b7f4e487b7100000000000000000000000000000000000000000000000000000000600052604160045260246000fd5b6114f0826114a7565b810181811067ffffffffffffffff8211171561150f5761150e6114b8565b5b80604052505050565b6000611522610e64565b905061152e82826114e7565b919050565b60008151905061154281610edb565b92915050565b60006020828403121561155e5761155d6114a2565b5b6115686020611518565b9050600061157884828501611533565b60008301525092915050565b60006fffffffffffffffffffffffffffffffff82169050919050565b6115a981611584565b81146115b457600080fd5b50565b6000815190506115c6816115a0565b92915050565b600064ffffffffff82169050919050565b6115e6816115cc565b81146115f157600080fd5b50565b600081519050611603816115dd565b92915050565b60008151905061161881610f15565b92915050565b60008151905061162d81610ea5565b92915050565b60006101e0828403121561164a576116496114a2565b5b6116556101e0611518565b9050600061166584828501611548565b6000830152506020611679848285016115b7565b602083015250604061168d848285016115b7565b60408301525060606116a1848285016115b7565b60608301525060806116b5848285016115b7565b60808301525060a06116c9848285016115b7565b60a08301525060c06116dd848285016115f4565b60c08301525060e06116f184828501611609565b60e0830152506101006117068482850161161e565b6101008301525061012061171c8482850161161e565b610120830152506101406117328482850161161e565b610140830152506101606117488482850161161e565b6101608301525061018061175e848285016115b7565b610180830152506101a0611774848285016115b7565b6101a0830152506101c061178a848285016115b7565b6101c08301525092915050565b60006101e082840312156117ae576117ad610e6e565b5b60006117bc84828501611633565b91505092915050565b600082825260208201905092915050565b7f53616665436173743a2076616c756520646f65736e27742066697420696e203160008201527f3238206269747300000000000000000000000000000000000000000000000000602082015250565b60006118326027836117c5565b915061183d826117d6565b604082019050919050565b6000602082019050818103600083015261186181611825565b9050919050565b7f53616665436173743a2076616c756520646f65736e27742066697420696e203860008201527f2062697473000000000000000000000000000000000000000000000000000000602082015250565b60006118c46025836117c5565b91506118cf82611868565b604082019050919050565b600060208201905081810360008301526118f3816118b7565b9050919050565b7f53616665436173743a2076616c756520646f65736e27742066697420696e203360008201527f3220626974730000000000000000000000000000000000000000000000000000602082015250565b60006119566026836117c5565b9150611961826118fa565b604082019050919050565b6000602082019050818103600083015261198581611949565b905091905056fea26469706673582212200dd96091d33d41b3671c441d110aa3f45ab47d166280813902d646f498f1f15464736f6c634300080a0033",
  "linkReferences": {},
  "deployedLinkReferences": {}
}