{
  "_format": "hh-sol-artifact-1",
  "contractName": "MockAToken",
  "sourceName": "contracts/Aave_Contracts/mocks/upgradeability/MockAToken.sol",
  "abi": [
    {
      "inputs": [
        {
          "internalType": "contract IPool",
          "name": "pool",
          "type": "address"
        }
      ],
      "stateMutability": "nonpayable",
      "type": "constructor"
    },
    {
      "anonymous": false,
      "inputs": [
        {
          "indexed": true,
          "internalType": "address",
          "name": "owner",
          "type": "address"
        },
        {
          "indexed": true,
          "internalType": "address",
          "name": "spender",
          "type": "address"
        },
        {
          "indexed": false,
          "internalType": "uint256",
          "name": "value",
          "type": "uint256"
        }
      ],
      "name": "Approval",
      "type": "event"
    },
    {
      "anonymous": false,
      "inputs": [
        {
          "indexed": true,
          "internalType": "address",
          "name": "from",
          "type": "address"
        },
        {
          "indexed": true,
          "internalType": "address",
          "name": "to",
          "type": "address"
        },
        {
          "indexed": false,
          "internalType": "uint256",
          "name": "value",
          "type": "uint256"
        },
        {
          "indexed": false,
          "internalType": "uint256",
          "name": "index",
          "type": "uint256"
        }
      ],
      "name": "BalanceTransfer",
      "type": "event"
    },
    {
      "anonymous": false,
      "inputs": [
        {
          "indexed": true,
          "internalType": "address",
          "name": "from",
          "type": "address"
        },
        {
          "indexed": true,
          "internalType": "address",
          "name": "target",
          "type": "address"
        },
        {
          "indexed": false,
          "internalType": "uint256",
          "name": "value",
          "type": "uint256"
        },
        {
          "indexed": false,
          "internalType": "uint256",
          "name": "balanceIncrease",
          "type": "uint256"
        },
        {
          "indexed": false,
          "internalType": "uint256",
          "name": "index",
          "type": "uint256"
        }
      ],
      "name": "Burn",
      "type": "event"
    },
    {
      "anonymous": false,
      "inputs": [
        {
          "indexed": true,
          "internalType": "address",
          "name": "underlyingAsset",
          "type": "address"
        },
        {
          "indexed": true,
          "internalType": "address",
          "name": "pool",
          "type": "address"
        },
        {
          "indexed": false,
          "internalType": "address",
          "name": "treasury",
          "type": "address"
        },
        {
          "indexed": false,
          "internalType": "address",
          "name": "incentivesController",
          "type": "address"
        },
        {
          "indexed": false,
          "internalType": "uint8",
          "name": "aTokenDecimals",
          "type": "uint8"
        },
        {
          "indexed": false,
          "internalType": "string",
          "name": "aTokenName",
          "type": "string"
        },
        {
          "indexed": false,
          "internalType": "string",
          "name": "aTokenSymbol",
          "type": "string"
        },
        {
          "indexed": false,
          "internalType": "bytes",
          "name": "params",
          "type": "bytes"
        }
      ],
      "name": "Initialized",
      "type": "event"
    },
    {
      "anonymous": false,
      "inputs": [
        {
          "indexed": true,
          "internalType": "address",
          "name": "caller",
          "type": "address"
        },
        {
          "indexed": true,
          "internalType": "address",
          "name": "onBehalfOf",
          "type": "address"
        },
        {
          "indexed": false,
          "internalType": "uint256",
          "name": "value",
          "type": "uint256"
        },
        {
          "indexed": false,
          "internalType": "uint256",
          "name": "balanceIncrease",
          "type": "uint256"
        },
        {
          "indexed": false,
          "internalType": "uint256",
          "name": "index",
          "type": "uint256"
        }
      ],
      "name": "Mint",
      "type": "event"
    },
    {
      "anonymous": false,
      "inputs": [
        {
          "indexed": true,
          "internalType": "address",
          "name": "from",
          "type": "address"
        },
        {
          "indexed": true,
          "internalType": "address",
          "name": "to",
          "type": "address"
        },
        {
          "indexed": false,
          "internalType": "uint256",
          "name": "value",
          "type": "uint256"
        }
      ],
      "name": "Transfer",
      "type": "event"
    },
    {
      "inputs": [],
      "name": "ATOKEN_REVISION",
      "outputs": [
        {
          "internalType": "uint256",
          "name": "",
          "type": "uint256"
        }
      ],
      "stateMutability": "view",
      "type": "function"
    },
    {
      "inputs": [],
      "name": "DOMAIN_SEPARATOR",
      "outputs": [
        {
          "internalType": "bytes32",
          "name": "",
          "type": "bytes32"
        }
      ],
      "stateMutability": "view",
      "type": "function"
    },
    {
      "inputs": [],
      "name": "EIP712_REVISION",
      "outputs": [
        {
          "internalType": "bytes",
          "name": "",
          "type": "bytes"
        }
      ],
      "stateMutability": "view",
      "type": "function"
    },
    {
      "inputs": [],
      "name": "PERMIT_TYPEHASH",
      "outputs": [
        {
          "internalType": "bytes32",
          "name": "",
          "type": "bytes32"
        }
      ],
      "stateMutability": "view",
      "type": "function"
    },
    {
      "inputs": [],
      "name": "POOL",
      "outputs": [
        {
          "internalType": "contract IPool",
          "name": "",
          "type": "address"
        }
      ],
      "stateMutability": "view",
      "type": "function"
    },
    {
      "inputs": [],
      "name": "RESERVE_TREASURY_ADDRESS",
      "outputs": [
        {
          "internalType": "address",
          "name": "",
          "type": "address"
        }
      ],
      "stateMutability": "view",
      "type": "function"
    },
    {
      "inputs": [],
      "name": "UNDERLYING_ASSET_ADDRESS",
      "outputs": [
        {
          "internalType": "address",
          "name": "",
          "type": "address"
        }
      ],
      "stateMutability": "view",
      "type": "function"
    },
    {
      "inputs": [
        {
          "internalType": "address",
          "name": "owner",
          "type": "address"
        },
        {
          "internalType": "address",
          "name": "spender",
          "type": "address"
        }
      ],
      "name": "allowance",
      "outputs": [
        {
          "internalType": "uint256",
          "name": "",
          "type": "uint256"
        }
      ],
      "stateMutability": "view",
      "type": "function"
    },
    {
      "inputs": [
        {
          "internalType": "address",
          "name": "spender",
          "type": "address"
        },
        {
          "internalType": "uint256",
          "name": "amount",
          "type": "uint256"
        }
      ],
      "name": "approve",
      "outputs": [
        {
          "internalType": "bool",
          "name": "",
          "type": "bool"
        }
      ],
      "stateMutability": "nonpayable",
      "type": "function"
    },
    {
      "inputs": [
        {
          "internalType": "address",
          "name": "user",
          "type": "address"
        }
      ],
      "name": "balanceOf",
      "outputs": [
        {
          "internalType": "uint256",
          "name": "",
          "type": "uint256"
        }
      ],
      "stateMutability": "view",
      "type": "function"
    },
    {
      "inputs": [
        {
          "internalType": "address",
          "name": "from",
          "type": "address"
        },
        {
          "internalType": "address",
          "name": "receiverOfUnderlying",
          "type": "address"
        },
        {
          "internalType": "uint256",
          "name": "amount",
          "type": "uint256"
        },
        {
          "internalType": "uint256",
          "name": "index",
          "type": "uint256"
        }
      ],
      "name": "burn",
      "outputs": [],
      "stateMutability": "nonpayable",
      "type": "function"
    },
    {
      "inputs": [],
      "name": "decimals",
      "outputs": [
        {
          "internalType": "uint8",
          "name": "",
          "type": "uint8"
        }
      ],
      "stateMutability": "view",
      "type": "function"
    },
    {
      "inputs": [
        {
          "internalType": "address",
          "name": "spender",
          "type": "address"
        },
        {
          "internalType": "uint256",
          "name": "subtractedValue",
          "type": "uint256"
        }
      ],
      "name": "decreaseAllowance",
      "outputs": [
        {
          "internalType": "bool",
          "name": "",
          "type": "bool"
        }
      ],
      "stateMutability": "nonpayable",
      "type": "function"
    },
    {
      "inputs": [],
      "name": "getIncentivesController",
      "outputs": [
        {
          "internalType": "contract IAaveIncentivesController",
          "name": "",
          "type": "address"
        }
      ],
      "stateMutability": "view",
      "type": "function"
    },
    {
      "inputs": [
        {
          "internalType": "address",
          "name": "user",
          "type": "address"
        }
      ],
      "name": "getPreviousIndex",
      "outputs": [
        {
          "internalType": "uint256",
          "name": "",
          "type": "uint256"
        }
      ],
      "stateMutability": "view",
      "type": "function"
    },
    {
      "inputs": [
        {
          "internalType": "address",
          "name": "user",
          "type": "address"
        }
      ],
      "name": "getScaledUserBalanceAndSupply",
      "outputs": [
        {
          "internalType": "uint256",
          "name": "",
          "type": "uint256"
        },
        {
          "internalType": "uint256",
          "name": "",
          "type": "uint256"
        }
      ],
      "stateMutability": "view",
      "type": "function"
    },
    {
      "inputs": [
        {
          "internalType": "address",
          "name": "user",
          "type": "address"
        },
        {
          "internalType": "uint256",
          "name": "amount",
          "type": "uint256"
        }
      ],
      "name": "handleRepayment",
      "outputs": [],
      "stateMutability": "nonpayable",
      "type": "function"
    },
    {
      "inputs": [
        {
          "internalType": "address",
          "name": "spender",
          "type": "address"
        },
        {
          "internalType": "uint256",
          "name": "addedValue",
          "type": "uint256"
        }
      ],
      "name": "increaseAllowance",
      "outputs": [
        {
          "internalType": "bool",
          "name": "",
          "type": "bool"
        }
      ],
      "stateMutability": "nonpayable",
      "type": "function"
    },
    {
      "inputs": [
        {
          "internalType": "contract IPool",
          "name": "initializingPool",
          "type": "address"
        },
        {
          "internalType": "address",
          "name": "treasury",
          "type": "address"
        },
        {
          "internalType": "address",
          "name": "underlyingAsset",
          "type": "address"
        },
        {
          "internalType": "contract IAaveIncentivesController",
          "name": "incentivesController",
          "type": "address"
        },
        {
          "internalType": "uint8",
          "name": "aTokenDecimals",
          "type": "uint8"
        },
        {
          "internalType": "string",
          "name": "aTokenName",
          "type": "string"
        },
        {
          "internalType": "string",
          "name": "aTokenSymbol",
          "type": "string"
        },
        {
          "internalType": "bytes",
          "name": "params",
          "type": "bytes"
        }
      ],
      "name": "initialize",
      "outputs": [],
      "stateMutability": "nonpayable",
      "type": "function"
    },
    {
      "inputs": [
        {
          "internalType": "address",
          "name": "caller",
          "type": "address"
        },
        {
          "internalType": "address",
          "name": "onBehalfOf",
          "type": "address"
        },
        {
          "internalType": "uint256",
          "name": "amount",
          "type": "uint256"
        },
        {
          "internalType": "uint256",
          "name": "index",
          "type": "uint256"
        }
      ],
      "name": "mint",
      "outputs": [
        {
          "internalType": "bool",
          "name": "",
          "type": "bool"
        }
      ],
      "stateMutability": "nonpayable",
      "type": "function"
    },
    {
      "inputs": [
        {
          "internalType": "uint256",
          "name": "amount",
          "type": "uint256"
        },
        {
          "internalType": "uint256",
          "name": "index",
          "type": "uint256"
        }
      ],
      "name": "mintToTreasury",
      "outputs": [],
      "stateMutability": "nonpayable",
      "type": "function"
    },
    {
      "inputs": [],
      "name": "name",
      "outputs": [
        {
          "internalType": "string",
          "name": "",
          "type": "string"
        }
      ],
      "stateMutability": "view",
      "type": "function"
    },
    {
      "inputs": [
        {
          "internalType": "address",
          "name": "owner",
          "type": "address"
        }
      ],
      "name": "nonces",
      "outputs": [
        {
          "internalType": "uint256",
          "name": "",
          "type": "uint256"
        }
      ],
      "stateMutability": "view",
      "type": "function"
    },
    {
      "inputs": [
        {
          "internalType": "address",
          "name": "owner",
          "type": "address"
        },
        {
          "internalType": "address",
          "name": "spender",
          "type": "address"
        },
        {
          "internalType": "uint256",
          "name": "value",
          "type": "uint256"
        },
        {
          "internalType": "uint256",
          "name": "deadline",
          "type": "uint256"
        },
        {
          "internalType": "uint8",
          "name": "v",
          "type": "uint8"
        },
        {
          "internalType": "bytes32",
          "name": "r",
          "type": "bytes32"
        },
        {
          "internalType": "bytes32",
          "name": "s",
          "type": "bytes32"
        }
      ],
      "name": "permit",
      "outputs": [],
      "stateMutability": "nonpayable",
      "type": "function"
    },
    {
      "inputs": [
        {
          "internalType": "address",
          "name": "token",
          "type": "address"
        },
        {
          "internalType": "address",
          "name": "to",
          "type": "address"
        },
        {
          "internalType": "uint256",
          "name": "amount",
          "type": "uint256"
        }
      ],
      "name": "rescueTokens",
      "outputs": [],
      "stateMutability": "nonpayable",
      "type": "function"
    },
    {
      "inputs": [
        {
          "internalType": "address",
          "name": "user",
          "type": "address"
        }
      ],
      "name": "scaledBalanceOf",
      "outputs": [
        {
          "internalType": "uint256",
          "name": "",
          "type": "uint256"
        }
      ],
      "stateMutability": "view",
      "type": "function"
    },
    {
      "inputs": [],
      "name": "scaledTotalSupply",
      "outputs": [
        {
          "internalType": "uint256",
          "name": "",
          "type": "uint256"
        }
      ],
      "stateMutability": "view",
      "type": "function"
    },
    {
      "inputs": [
        {
          "internalType": "contract IAaveIncentivesController",
          "name": "controller",
          "type": "address"
        }
      ],
      "name": "setIncentivesController",
      "outputs": [],
      "stateMutability": "nonpayable",
      "type": "function"
    },
    {
      "inputs": [],
      "name": "symbol",
      "outputs": [
        {
          "internalType": "string",
          "name": "",
          "type": "string"
        }
      ],
      "stateMutability": "view",
      "type": "function"
    },
    {
      "inputs": [],
      "name": "totalSupply",
      "outputs": [
        {
          "internalType": "uint256",
          "name": "",
          "type": "uint256"
        }
      ],
      "stateMutability": "view",
      "type": "function"
    },
    {
      "inputs": [
        {
          "internalType": "address",
          "name": "recipient",
          "type": "address"
        },
        {
          "internalType": "uint256",
          "name": "amount",
          "type": "uint256"
        }
      ],
      "name": "transfer",
      "outputs": [
        {
          "internalType": "bool",
          "name": "",
          "type": "bool"
        }
      ],
      "stateMutability": "nonpayable",
      "type": "function"
    },
    {
      "inputs": [
        {
          "internalType": "address",
          "name": "sender",
          "type": "address"
        },
        {
          "internalType": "address",
          "name": "recipient",
          "type": "address"
        },
        {
          "internalType": "uint256",
          "name": "amount",
          "type": "uint256"
        }
      ],
      "name": "transferFrom",
      "outputs": [
        {
          "internalType": "bool",
          "name": "",
          "type": "bool"
        }
      ],
      "stateMutability": "nonpayable",
      "type": "function"
    },
    {
      "inputs": [
        {
          "internalType": "address",
          "name": "from",
          "type": "address"
        },
        {
          "internalType": "address",
          "name": "to",
          "type": "address"
        },
        {
          "internalType": "uint256",
          "name": "value",
          "type": "uint256"
        }
      ],
      "name": "transferOnLiquidation",
      "outputs": [],
      "stateMutability": "nonpayable",
      "type": "function"
    },
    {
      "inputs": [
        {
          "internalType": "address",
          "name": "target",
          "type": "address"
        },
        {
          "internalType": "uint256",
          "name": "amount",
          "type": "uint256"
        }
      ],
      "name": "transferUnderlyingTo",
      "outputs": [],
      "stateMutability": "nonpayable",
      "type": "function"
    }
  ],
  "bytecode": "0x60e0604052600080553480156200001557600080fd5b5060405162004c9038038062004c9083398181016040528101906200003b919062000323565b80806040518060400160405280600b81526020017f41544f4b454e5f494d504c0000000000000000000000000000000000000000008152506040518060400160405280600b81526020017f41544f4b454e5f494d504c000000000000000000000000000000000000000000815250600083838383838383838373ffffffffffffffffffffffffffffffffffffffff16630542975c6040518163ffffffff1660e01b8152600401602060405180830381865afa158015620000ff573d6000803e3d6000fd5b505050506040513d601f19601f820116820180604052508101906200012591906200039a565b73ffffffffffffffffffffffffffffffffffffffff1660808173ffffffffffffffffffffffffffffffffffffffff1681525050826037908051906020019062000170929190620001f5565b50816038908051906020019062000189929190620001f5565b5080603960006101000a81548160ff021916908360ff1602179055508373ffffffffffffffffffffffffffffffffffffffff1660a08173ffffffffffffffffffffffffffffffffffffffff16815250505050505050505050505050504660c08181525050505062000431565b8280546200020390620003fb565b90600052602060002090601f01602090048101928262000227576000855562000273565b82601f106200024257805160ff191683800117855562000273565b8280016001018555821562000273579182015b828111156200027257825182559160200191906001019062000255565b5b50905062000282919062000286565b5090565b5b80821115620002a157600081600090555060010162000287565b5090565b600080fd5b600073ffffffffffffffffffffffffffffffffffffffff82169050919050565b6000620002d782620002aa565b9050919050565b6000620002eb82620002ca565b9050919050565b620002fd81620002de565b81146200030957600080fd5b50565b6000815190506200031d81620002f2565b92915050565b6000602082840312156200033c576200033b620002a5565b5b60006200034c848285016200030c565b91505092915050565b60006200036282620002ca565b9050919050565b620003748162000355565b81146200038057600080fd5b50565b600081519050620003948162000369565b92915050565b600060208284031215620003b357620003b2620002a5565b5b6000620003c38482850162000383565b91505092915050565b7f4e487b7100000000000000000000000000000000000000000000000000000000600052602260045260246000fd5b600060028204905060018216806200041457607f821691505b602082108114156200042b576200042a620003cc565b5b50919050565b60805160a05160c0516147cd620004c360003960006124010152600081816107c50152818161094a01528181610b8501528181610e2a01528181610f4e01528181611028015281816110af0152818161118e015281816111f10152818161149101528181611b3d01528181611f6901528181612bc80152612ccd0152600081816115770152611da101526147cd6000f3fe608060405234801561001057600080fd5b50600436106102065760003560e01c80637df5bd3b1161011a578063b1bf962d116100ad578063d7020d0a1161007c578063d7020d0a1461061a578063dd62ed3e14610636578063e075398614610666578063e655dbd814610696578063f866c319146106b257610206565b8063b1bf962d14610594578063b3f1c93d146105b2578063cea9d26f146105e2578063d505accf146105fe57610206565b8063a457c2d7116100e9578063a457c2d7146104f8578063a9059cbb14610528578063ae16733514610558578063b16a19de1461057657610206565b80637df5bd3b146104725780637ecebe001461048e57806388dd91a1146104be57806395d89b41146104da57610206565b806330adf81f1161019d5780634efecaa51161016c5780634efecaa5146103cc57806370a08231146103e85780637535d2461461041857806375d2641314610436578063781603761461045457610206565b806330adf81f14610342578063313ce567146103605780633644e5151461037e578063395093511461039c57610206565b806318160ddd116101d957806318160ddd146102a8578063183fb413146102c65780631da24f3e146102e257806323b872dd1461031257610206565b806306fdde031461020b578063095ea7b3146102295780630afbcdc9146102595780630bd7ad3b1461028a575b600080fd5b6102136106ce565b60405161022091906137aa565b60405180910390f35b610243600480360381019061023e919061386a565b610760565b60405161025091906138c5565b60405180910390f35b610273600480360381019061026e91906138e0565b61077e565b60405161028192919061391c565b60405180910390f35b61029261079b565b60405161029f9190613945565b60405180910390f35b6102b06107a0565b6040516102bd9190613945565b60405180910390f35b6102e060048036038101906102db9190613ad0565b610895565b005b6102fc60048036038101906102f791906138e0565b610c49565b6040516103099190613945565b60405180910390f35b61032c60048036038101906103279190613be8565b610c5b565b60405161033991906138c5565b60405180910390f35b61034a610d32565b6040516103579190613c54565b60405180910390f35b610368610d56565b6040516103759190613c7e565b60405180910390f35b610386610d6d565b6040516103939190613c54565b60405180910390f35b6103b660048036038101906103b1919061386a565b610d7c565b6040516103c391906138c5565b60405180910390f35b6103e660048036038101906103e1919061386a565b610e28565b005b61040260048036038101906103fd91906138e0565b610f47565b60405161040f9190613945565b60405180910390f35b610420611026565b60405161042d9190613cf8565b60405180910390f35b61043e61104a565b60405161044b9190613d34565b60405180910390f35b61045c611074565b6040516104699190613da4565b60405180910390f35b61048c60048036038101906104879190613dc6565b6110ad565b005b6104a860048036038101906104a391906138e0565b6111dd565b6040516104b59190613945565b60405180910390f35b6104d860048036038101906104d3919061386a565b6111ef565b005b6104e26112c1565b6040516104ef91906137aa565b60405180910390f35b610512600480360381019061050d919061386a565b611353565b60405161051f91906138c5565b60405180910390f35b610542600480360381019061053d919061386a565b6113ff565b60405161054f91906138c5565b60405180910390f35b61056061142a565b60405161056d9190613e15565b60405180910390f35b61057e611454565b60405161058b9190613e15565b60405180910390f35b61059c61147e565b6040516105a99190613945565b60405180910390f35b6105cc60048036038101906105c79190613e30565b61148d565b6040516105d991906138c5565b60405180910390f35b6105fc60048036038101906105f79190613be8565b611573565b005b61061860048036038101906106139190613ec3565b6117f3565b005b610634600480360381019061062f9190613e30565b611b3b565b005b610650600480360381019061064b9190613f65565b611c9c565b60405161065d9190613945565b60405180910390f35b610680600480360381019061067b91906138e0565b611d23565b60405161068d9190613945565b60405180910390f35b6106b060048036038101906106ab9190613fa5565b611d9d565b005b6106cc60048036038101906106c79190613be8565b611f67565b005b6060603780546106dd90614001565b80601f016020809104026020016040519081016040528092919081815260200182805461070990614001565b80156107565780601f1061072b57610100808354040283529160200191610756565b820191906000526020600020905b81548152906001019060200180831161073957829003601f168201915b5050505050905090565b600061077461076d6120ac565b84846120b4565b6001905092915050565b60008061078a8361219f565b610792612219565b91509150915091565b600181565b6000806107ab612219565b905060008114156107c0576000915050610892565b61088e7f000000000000000000000000000000000000000000000000000000000000000073ffffffffffffffffffffffffffffffffffffffff1663d15e0053603d60009054906101000a900473ffffffffffffffffffffffffffffffffffffffff166040518263ffffffff1660e01b815260040161083e9190613e15565b602060405180830381865afa15801561085b573d6000803e3d6000fd5b505050506040513d601f19601f8201168201806040525081019061087f9190614048565b8261222390919063ffffffff16565b9150505b90565b600061089f61226e565b9050600160009054906101000a900460ff16806108c057506108bf612277565b5b806108cc575060005481115b61090b576040517f08c379a0000000000000000000000000000000000000000000000000000000008152600401610902906140e7565b60405180910390fd5b6000600160009054906101000a900460ff1615905080156109485760018060006101000a81548160ff021916908315150217905550816000819055505b7f000000000000000000000000000000000000000000000000000000000000000073ffffffffffffffffffffffffffffffffffffffff168d73ffffffffffffffffffffffffffffffffffffffff16146040518060400160405280600281526020017f383700000000000000000000000000000000000000000000000000000000000081525090610a0e576040517f08c379a0000000000000000000000000000000000000000000000000000000008152600401610a0591906137aa565b60405180910390fd5b50610a5c88888080601f016020809104026020016040519081016040528093929190818152602001838380828437600081840152601f19601f82011690508083019250505050505050612288565b610aa986868080601f016020809104026020016040519081016040528093929190818152602001838380828437600081840152601f19601f820116905080830192505050505050506122a2565b610ab2896122bc565b8b603c60006101000a81548173ffffffffffffffffffffffffffffffffffffffff021916908373ffffffffffffffffffffffffffffffffffffffff1602179055508a603d60006101000a81548173ffffffffffffffffffffffffffffffffffffffff021916908373ffffffffffffffffffffffffffffffffffffffff16021790555089603960016101000a81548173ffffffffffffffffffffffffffffffffffffffff021916908373ffffffffffffffffffffffffffffffffffffffff160217905550610b7d6122da565b603b819055507f000000000000000000000000000000000000000000000000000000000000000073ffffffffffffffffffffffffffffffffffffffff168b73ffffffffffffffffffffffffffffffffffffffff167fb19e051f8af41150ccccb3fc2c2d8d15f4a4cf434f32a559ba75fe73d6eea20b8e8d8d8d8d8d8d8d8d604051610c1099989796959493929190614170565b60405180910390a38015610c3a576000600160006101000a81548160ff0219169083151502179055505b50505050505050505050505050565b6000610c548261219f565b9050919050565b600080610c678361237a565b9050610d1b85610c756120ac565b836fffffffffffffffffffffffffffffffff16603560008a73ffffffffffffffffffffffffffffffffffffffff1673ffffffffffffffffffffffffffffffffffffffff1681526020019081526020016000206000610cd16120ac565b73ffffffffffffffffffffffffffffffffffffffff1673ffffffffffffffffffffffffffffffffffffffff16815260200190815260200160002054610d16919061421b565b6120b4565b610d268585836123d9565b60019150509392505050565b7f6e71edae12b1b97f4d1f60370fef10105fa2faae0126114a169c64845d6126c981565b6000603960009054906101000a900460ff16905090565b6000610d776123fd565b905090565b6000610e1e610d896120ac565b848460356000610d976120ac565b73ffffffffffffffffffffffffffffffffffffffff1673ffffffffffffffffffffffffffffffffffffffff16815260200190815260200160002060008873ffffffffffffffffffffffffffffffffffffffff1673ffffffffffffffffffffffffffffffffffffffff16815260200190815260200160002054610e19919061424f565b6120b4565b6001905092915050565b7f000000000000000000000000000000000000000000000000000000000000000073ffffffffffffffffffffffffffffffffffffffff16610e676120ac565b73ffffffffffffffffffffffffffffffffffffffff16146040518060400160405280600281526020017f323300000000000000000000000000000000000000000000000000000000000081525090610ef5576040517f08c379a0000000000000000000000000000000000000000000000000000000008152600401610eec91906137aa565b60405180910390fd5b50610f438282603d60009054906101000a900473ffffffffffffffffffffffffffffffffffffffff1673ffffffffffffffffffffffffffffffffffffffff1661243f9092919063ffffffff16565b5050565b600061101f7f000000000000000000000000000000000000000000000000000000000000000073ffffffffffffffffffffffffffffffffffffffff1663d15e0053603d60009054906101000a900473ffffffffffffffffffffffffffffffffffffffff166040518263ffffffff1660e01b8152600401610fc79190613e15565b602060405180830381865afa158015610fe4573d6000803e3d6000fd5b505050506040513d601f19601f820116820180604052508101906110089190614048565b6110118461219f565b61222390919063ffffffff16565b9050919050565b7f000000000000000000000000000000000000000000000000000000000000000081565b6000603960019054906101000a900473ffffffffffffffffffffffffffffffffffffffff16905090565b6040518060400160405280600181526020017f310000000000000000000000000000000000000000000000000000000000000081525081565b7f000000000000000000000000000000000000000000000000000000000000000073ffffffffffffffffffffffffffffffffffffffff166110ec6120ac565b73ffffffffffffffffffffffffffffffffffffffff16146040518060400160405280600281526020017f32330000000000000000000000000000000000000000000000000000000000008152509061117a576040517f08c379a000000000000000000000000000000000000000000000000000000000815260040161117191906137aa565b60405180910390fd5b506000821415611189576111d9565b6111d77f0000000000000000000000000000000000000000000000000000000000000000603c60009054906101000a900473ffffffffffffffffffffffffffffffffffffffff1684846124db565b505b5050565b60006111e8826127a5565b9050919050565b7f000000000000000000000000000000000000000000000000000000000000000073ffffffffffffffffffffffffffffffffffffffff1661122e6120ac565b73ffffffffffffffffffffffffffffffffffffffff16146040518060400160405280600281526020017f3233000000000000000000000000000000000000000000000000000000000000815250906112bc576040517f08c379a00000000000000000000000000000000000000000000000000000000081526004016112b391906137aa565b60405180910390fd5b505050565b6060603880546112d090614001565b80601f01602080910402602001604051908101604052809291908181526020018280546112fc90614001565b80156113495780601f1061131e57610100808354040283529160200191611349565b820191906000526020600020905b81548152906001019060200180831161132c57829003601f168201915b5050505050905090565b60006113f56113606120ac565b84846035600061136e6120ac565b73ffffffffffffffffffffffffffffffffffffffff1673ffffffffffffffffffffffffffffffffffffffff16815260200190815260200160002060008873ffffffffffffffffffffffffffffffffffffffff1673ffffffffffffffffffffffffffffffffffffffff168152602001908152602001600020546113f0919061421b565b6120b4565b6001905092915050565b60008061140b8361237a565b905061141f6114186120ac565b85836123d9565b600191505092915050565b6000603c60009054906101000a900473ffffffffffffffffffffffffffffffffffffffff16905090565b6000603d60009054906101000a900473ffffffffffffffffffffffffffffffffffffffff16905090565b6000611488612219565b905090565b60007f000000000000000000000000000000000000000000000000000000000000000073ffffffffffffffffffffffffffffffffffffffff166114ce6120ac565b73ffffffffffffffffffffffffffffffffffffffff16146040518060400160405280600281526020017f32330000000000000000000000000000000000000000000000000000000000008152509061155c576040517f08c379a000000000000000000000000000000000000000000000000000000000815260040161155391906137aa565b60405180910390fd5b50611569858585856124db565b9050949350505050565b60007f000000000000000000000000000000000000000000000000000000000000000073ffffffffffffffffffffffffffffffffffffffff1663707cd7166040518163ffffffff1660e01b8152600401602060405180830381865afa1580156115e0573d6000803e3d6000fd5b505050506040513d601f19601f8201168201806040525081019061160491906142ba565b90508073ffffffffffffffffffffffffffffffffffffffff16637be53ca1336040518263ffffffff1660e01b815260040161163f9190613e15565b602060405180830381865afa15801561165c573d6000803e3d6000fd5b505050506040513d601f19601f820116820180604052508101906116809190614313565b6040518060400160405280600181526020017f3100000000000000000000000000000000000000000000000000000000000000815250906116f7576040517f08c379a00000000000000000000000000000000000000000000000000000000081526004016116ee91906137aa565b60405180910390fd5b50603d60009054906101000a900473ffffffffffffffffffffffffffffffffffffffff1673ffffffffffffffffffffffffffffffffffffffff168473ffffffffffffffffffffffffffffffffffffffff1614156040518060400160405280600281526020017f3835000000000000000000000000000000000000000000000000000000000000815250906117c1576040517f08c379a00000000000000000000000000000000000000000000000000000000081526004016117b891906137aa565b60405180910390fd5b506117ed83838673ffffffffffffffffffffffffffffffffffffffff1661243f9092919063ffffffff16565b50505050565b600073ffffffffffffffffffffffffffffffffffffffff168773ffffffffffffffffffffffffffffffffffffffff1614156040518060400160405280600281526020017f37370000000000000000000000000000000000000000000000000000000000008152509061189b576040517f08c379a000000000000000000000000000000000000000000000000000000000815260040161189291906137aa565b60405180910390fd5b50834211156040518060400160405280600281526020017f373800000000000000000000000000000000000000000000000000000000000081525090611917576040517f08c379a000000000000000000000000000000000000000000000000000000000815260040161190e91906137aa565b60405180910390fd5b506000603a60008973ffffffffffffffffffffffffffffffffffffffff1673ffffffffffffffffffffffffffffffffffffffff1681526020019081526020016000205490506000611966610d6d565b7f6e71edae12b1b97f4d1f60370fef10105fa2faae0126114a169c64845d6126c98a8a8a868b6040516020016119a196959493929190614340565b604051602081830303815290604052805190602001206040516020016119c8929190614419565b60405160208183030381529060405280519060200120905060018186868660405160008152602001604052604051611a039493929190614450565b6020604051602081039080840390855afa158015611a25573d6000803e3d6000fd5b5050506020604051035173ffffffffffffffffffffffffffffffffffffffff168973ffffffffffffffffffffffffffffffffffffffff16146040518060400160405280600281526020017f373900000000000000000000000000000000000000000000000000000000000081525090611ad4576040517f08c379a0000000000000000000000000000000000000000000000000000000008152600401611acb91906137aa565b60405180910390fd5b50600182611ae2919061424f565b603a60008b73ffffffffffffffffffffffffffffffffffffffff1673ffffffffffffffffffffffffffffffffffffffff16815260200190815260200160002081905550611b308989896120b4565b505050505050505050565b7f000000000000000000000000000000000000000000000000000000000000000073ffffffffffffffffffffffffffffffffffffffff16611b7a6120ac565b73ffffffffffffffffffffffffffffffffffffffff16146040518060400160405280600281526020017f323300000000000000000000000000000000000000000000000000000000000081525090611c08576040517f08c379a0000000000000000000000000000000000000000000000000000000008152600401611bff91906137aa565b60405180910390fd5b50611c15848484846127ee565b3073ffffffffffffffffffffffffffffffffffffffff168373ffffffffffffffffffffffffffffffffffffffff1614611c9657611c958383603d60009054906101000a900473ffffffffffffffffffffffffffffffffffffffff1673ffffffffffffffffffffffffffffffffffffffff1661243f9092919063ffffffff16565b5b50505050565b6000603560008473ffffffffffffffffffffffffffffffffffffffff1673ffffffffffffffffffffffffffffffffffffffff16815260200190815260200160002060008373ffffffffffffffffffffffffffffffffffffffff1673ffffffffffffffffffffffffffffffffffffffff16815260200190815260200160002054905092915050565b6000603460008373ffffffffffffffffffffffffffffffffffffffff1673ffffffffffffffffffffffffffffffffffffffff16815260200190815260200160002060000160109054906101000a90046fffffffffffffffffffffffffffffffff166fffffffffffffffffffffffffffffffff169050919050565b60007f000000000000000000000000000000000000000000000000000000000000000073ffffffffffffffffffffffffffffffffffffffff1663707cd7166040518163ffffffff1660e01b8152600401602060405180830381865afa158015611e0a573d6000803e3d6000fd5b505050506040513d601f19601f82011682018060405250810190611e2e91906142ba565b90508073ffffffffffffffffffffffffffffffffffffffff16637be53ca1336040518263ffffffff1660e01b8152600401611e699190613e15565b602060405180830381865afa158015611e86573d6000803e3d6000fd5b505050506040513d601f19601f82011682018060405250810190611eaa9190614313565b6040518060400160405280600181526020017f310000000000000000000000000000000000000000000000000000000000000081525090611f21576040517f08c379a0000000000000000000000000000000000000000000000000000000008152600401611f1891906137aa565b60405180910390fd5b5081603960016101000a81548173ffffffffffffffffffffffffffffffffffffffff021916908373ffffffffffffffffffffffffffffffffffffffff1602179055505050565b7f000000000000000000000000000000000000000000000000000000000000000073ffffffffffffffffffffffffffffffffffffffff16611fa66120ac565b73ffffffffffffffffffffffffffffffffffffffff16146040518060400160405280600281526020017f323300000000000000000000000000000000000000000000000000000000000081525090612034576040517f08c379a000000000000000000000000000000000000000000000000000000000815260040161202b91906137aa565b60405180910390fd5b506120428383836000612b9d565b8173ffffffffffffffffffffffffffffffffffffffff168373ffffffffffffffffffffffffffffffffffffffff167fddf252ad1be2c89b69c2b068fc378daa952ba7f163c4a11628f55a4df523b3ef8360405161209f9190613945565b60405180910390a3505050565b600033905090565b80603560008573ffffffffffffffffffffffffffffffffffffffff1673ffffffffffffffffffffffffffffffffffffffff16815260200190815260200160002060008473ffffffffffffffffffffffffffffffffffffffff1673ffffffffffffffffffffffffffffffffffffffff168152602001908152602001600020819055508173ffffffffffffffffffffffffffffffffffffffff168373ffffffffffffffffffffffffffffffffffffffff167f8c5be1e5ebec7d5bd14f71427d1e84f3dd0314c0f7b2291e5b200ac8c7c3b925836040516121929190613945565b60405180910390a3505050565b6000603460008373ffffffffffffffffffffffffffffffffffffffff1673ffffffffffffffffffffffffffffffffffffffff16815260200190815260200160002060000160009054906101000a90046fffffffffffffffffffffffffffffffff166fffffffffffffffffffffffffffffffff169050919050565b6000603654905090565b6000816b019d971e4fe8401e74000000600019030483111582151761224757600080fd5b6b033b2e3c9fd0803ce80000006b019d971e4fe8401e740000008385020104905092915050565b60006002905090565b600080303b90506000811491505090565b806037908051906020019061229e92919061366e565b5050565b80603890805190602001906122b892919061366e565b5050565b80603960006101000a81548160ff021916908360ff16021790555050565b60007f8b73c3c69bb8fe3d512ecc4cf759cc79239f7b179b0ffacaa9a75d522b39400f612305612dd2565b805190602001206040518060400160405280600181526020017f310000000000000000000000000000000000000000000000000000000000000081525080519060200120463060405160200161235f959493929190614495565b60405160208183030381529060405280519060200120905090565b60006fffffffffffffffffffffffffffffffff80168211156123d1576040517f08c379a00000000000000000000000000000000000000000000000000000000081526004016123c89061455a565b60405180910390fd5b819050919050565b6123f88383836fffffffffffffffffffffffffffffffff166001612b9d565b505050565b60007f000000000000000000000000000000000000000000000000000000000000000046141561243157603b54905061243c565b6124396122da565b90505b90565b600063a9059cbb60e01b905060405181815273ffffffffffffffffffffffffffffffffffffffff841660048201528260248201526000806044836000895af161248c573d6000803e3d6000fd5b5061249684612de1565b6124d5576040517f08c379a00000000000000000000000000000000000000000000000000000000081526004016124cc906145c6565b60405180910390fd5b50505050565b6000806124f18385612eae90919063ffffffff16565b905060008114156040518060400160405280600281526020017f32340000000000000000000000000000000000000000000000000000000000008152509061256f576040517f08c379a000000000000000000000000000000000000000000000000000000000815260040161256691906137aa565b60405180910390fd5b50600061257b8661219f565b90506000612602603460008973ffffffffffffffffffffffffffffffffffffffff1673ffffffffffffffffffffffffffffffffffffffff16815260200190815260200160002060000160109054906101000a90046fffffffffffffffffffffffffffffffff166fffffffffffffffffffffffffffffffff168361222390919063ffffffff16565b612615868461222390919063ffffffff16565b61261f919061421b565b905061262a8561237a565b603460008973ffffffffffffffffffffffffffffffffffffffff1673ffffffffffffffffffffffffffffffffffffffff16815260200190815260200160002060000160106101000a8154816fffffffffffffffffffffffffffffffff02191690836fffffffffffffffffffffffffffffffff1602179055506126b4876126af8561237a565b612ef5565b600081876126c2919061424f565b90508773ffffffffffffffffffffffffffffffffffffffff16600073ffffffffffffffffffffffffffffffffffffffff167fddf252ad1be2c89b69c2b068fc378daa952ba7f163c4a11628f55a4df523b3ef836040516127229190613945565b60405180910390a38773ffffffffffffffffffffffffffffffffffffffff168973ffffffffffffffffffffffffffffffffffffffff167f458f5fa412d0f69b08dd84872b0215675cc67bc1d5b6fd93300a1c3878b8619683858a60405161278b939291906145e6565b60405180910390a360008314945050505050949350505050565b6000603a60008373ffffffffffffffffffffffffffffffffffffffff1673ffffffffffffffffffffffffffffffffffffffff168152602001908152602001600020549050919050565b60006128038284612eae90919063ffffffff16565b905060008114156040518060400160405280600281526020017f323500000000000000000000000000000000000000000000000000000000000081525090612881576040517f08c379a000000000000000000000000000000000000000000000000000000000815260040161287891906137aa565b60405180910390fd5b50600061288d8661219f565b90506000612914603460008973ffffffffffffffffffffffffffffffffffffffff1673ffffffffffffffffffffffffffffffffffffffff16815260200190815260200160002060000160109054906101000a90046fffffffffffffffffffffffffffffffff166fffffffffffffffffffffffffffffffff168361222390919063ffffffff16565b612927858461222390919063ffffffff16565b612931919061421b565b905061293c8461237a565b603460008973ffffffffffffffffffffffffffffffffffffffff1673ffffffffffffffffffffffffffffffffffffffff16815260200190815260200160002060000160106101000a8154816fffffffffffffffffffffffffffffffff02191690836fffffffffffffffffffffffffffffffff1602179055506129c6876129c18561237a565b6130d9565b84811115612ab357600085826129dc919061421b565b90508773ffffffffffffffffffffffffffffffffffffffff16600073ffffffffffffffffffffffffffffffffffffffff167fddf252ad1be2c89b69c2b068fc378daa952ba7f163c4a11628f55a4df523b3ef83604051612a3c9190613945565b60405180910390a38773ffffffffffffffffffffffffffffffffffffffff168873ffffffffffffffffffffffffffffffffffffffff167f458f5fa412d0f69b08dd84872b0215675cc67bc1d5b6fd93300a1c3878b86196838589604051612aa5939291906145e6565b60405180910390a350612b94565b60008186612ac1919061421b565b9050600073ffffffffffffffffffffffffffffffffffffffff168873ffffffffffffffffffffffffffffffffffffffff167fddf252ad1be2c89b69c2b068fc378daa952ba7f163c4a11628f55a4df523b3ef83604051612b219190613945565b60405180910390a38673ffffffffffffffffffffffffffffffffffffffff168873ffffffffffffffffffffffffffffffffffffffff167f4cf25bc1d991c17529c25213d3cc0cda295eeaad5f13f361969b12ea48015f90838589604051612b8a939291906145e6565b60405180910390a3505b50505050505050565b6000603d60009054906101000a900473ffffffffffffffffffffffffffffffffffffffff16905060007f000000000000000000000000000000000000000000000000000000000000000073ffffffffffffffffffffffffffffffffffffffff1663d15e0053836040518263ffffffff1660e01b8152600401612c1f9190613e15565b602060405180830381865afa158015612c3c573d6000803e3d6000fd5b505050506040513d601f19601f82011682018060405250810190612c609190614048565b90506000612c7f82612c718961219f565b61222390919063ffffffff16565b90506000612c9e83612c908961219f565b61222390919063ffffffff16565b9050612cc58888612cc0612cbb878b612eae90919063ffffffff16565b61237a565b6132bd565b8415612d61577f000000000000000000000000000000000000000000000000000000000000000073ffffffffffffffffffffffffffffffffffffffff1663d5ed3933858a8a8a87876040518763ffffffff1660e01b8152600401612d2e9695949392919061461d565b600060405180830381600087803b158015612d4857600080fd5b505af1158015612d5c573d6000803e3d6000fd5b505050505b8673ffffffffffffffffffffffffffffffffffffffff168873ffffffffffffffffffffffffffffffffffffffff167f4beccb90f994c31aced7a23b5611020728a23d8ec5cddd1a3e9d97b96fda86668886604051612dc092919061391c565b60405180910390a35050505050505050565b6060612ddc6106ce565b905090565b6000612e1f565b7f08c379a0000000000000000000000000000000000000000000000000000000006000526020600452806024528160445260646000fd5b3d60008114612e605760208114612e9b57612e5b7f475076323a206d616c666f726d6564207472616e7366657220726573756c7400601f612de8565b612ea8565b823b612e9257612e917f475076323a206e6f74206120636f6e74726163740000000000000000000000006014612de8565b5b60019150612ea8565b3d6000803e600051151591505b50919050565b60006b033b2e3c9fd0803ce80000006002830460001903048311151582151715612ed757600080fd5b81600283046b033b2e3c9fd0803ce800000085020104905092915050565b60006036549050816fffffffffffffffffffffffffffffffff1681612f1a919061424f565b6036819055506000603460008573ffffffffffffffffffffffffffffffffffffffff1673ffffffffffffffffffffffffffffffffffffffff16815260200190815260200160002060000160009054906101000a90046fffffffffffffffffffffffffffffffff1690508281612f8f919061469a565b603460008673ffffffffffffffffffffffffffffffffffffffff1673ffffffffffffffffffffffffffffffffffffffff16815260200190815260200160002060000160006101000a8154816fffffffffffffffffffffffffffffffff02191690836fffffffffffffffffffffffffffffffff1602179055506000603960019054906101000a900473ffffffffffffffffffffffffffffffffffffffff169050600073ffffffffffffffffffffffffffffffffffffffff168173ffffffffffffffffffffffffffffffffffffffff16146130d2578073ffffffffffffffffffffffffffffffffffffffff166331873e2e8685856040518463ffffffff1660e01b815260040161309f93929190614711565b600060405180830381600087803b1580156130b957600080fd5b505af11580156130cd573d6000803e3d6000fd5b505050505b5050505050565b60006036549050816fffffffffffffffffffffffffffffffff16816130fe919061421b565b6036819055506000603460008573ffffffffffffffffffffffffffffffffffffffff1673ffffffffffffffffffffffffffffffffffffffff16815260200190815260200160002060000160009054906101000a90046fffffffffffffffffffffffffffffffff16905082816131739190614748565b603460008673ffffffffffffffffffffffffffffffffffffffff1673ffffffffffffffffffffffffffffffffffffffff16815260200190815260200160002060000160006101000a8154816fffffffffffffffffffffffffffffffff02191690836fffffffffffffffffffffffffffffffff1602179055506000603960019054906101000a900473ffffffffffffffffffffffffffffffffffffffff169050600073ffffffffffffffffffffffffffffffffffffffff168173ffffffffffffffffffffffffffffffffffffffff16146132b6578073ffffffffffffffffffffffffffffffffffffffff166331873e2e8685856040518463ffffffff1660e01b815260040161328393929190614711565b600060405180830381600087803b15801561329d57600080fd5b505af11580156132b1573d6000803e3d6000fd5b505050505b5050505050565b6000603460008573ffffffffffffffffffffffffffffffffffffffff1673ffffffffffffffffffffffffffffffffffffffff16815260200190815260200160002060000160009054906101000a90046fffffffffffffffffffffffffffffffff169050818161332c9190614748565b603460008673ffffffffffffffffffffffffffffffffffffffff1673ffffffffffffffffffffffffffffffffffffffff16815260200190815260200160002060000160006101000a8154816fffffffffffffffffffffffffffffffff02191690836fffffffffffffffffffffffffffffffff1602179055506000603460008573ffffffffffffffffffffffffffffffffffffffff1673ffffffffffffffffffffffffffffffffffffffff16815260200190815260200160002060000160009054906101000a90046fffffffffffffffffffffffffffffffff1690508281613413919061469a565b603460008673ffffffffffffffffffffffffffffffffffffffff1673ffffffffffffffffffffffffffffffffffffffff16815260200190815260200160002060000160006101000a8154816fffffffffffffffffffffffffffffffff02191690836fffffffffffffffffffffffffffffffff1602179055506000603960019054906101000a900473ffffffffffffffffffffffffffffffffffffffff169050600073ffffffffffffffffffffffffffffffffffffffff168173ffffffffffffffffffffffffffffffffffffffff161461360157600060365490508173ffffffffffffffffffffffffffffffffffffffff166331873e2e8883876040518463ffffffff1660e01b815260040161352a93929190614711565b600060405180830381600087803b15801561354457600080fd5b505af1158015613558573d6000803e3d6000fd5b505050508573ffffffffffffffffffffffffffffffffffffffff168773ffffffffffffffffffffffffffffffffffffffff16146135ff578173ffffffffffffffffffffffffffffffffffffffff166331873e2e8783866040518463ffffffff1660e01b81526004016135cc93929190614711565b600060405180830381600087803b1580156135e657600080fd5b505af11580156135fa573d6000803e3d6000fd5b505050505b505b8473ffffffffffffffffffffffffffffffffffffffff168673ffffffffffffffffffffffffffffffffffffffff167fddf252ad1be2c89b69c2b068fc378daa952ba7f163c4a11628f55a4df523b3ef8660405161365e919061477c565b60405180910390a3505050505050565b82805461367a90614001565b90600052602060002090601f01602090048101928261369c57600085556136e3565b82601f106136b557805160ff19168380011785556136e3565b828001600101855582156136e3579182015b828111156136e25782518255916020019190600101906136c7565b5b5090506136f091906136f4565b5090565b5b8082111561370d5760008160009055506001016136f5565b5090565b600081519050919050565b600082825260208201905092915050565b60005b8381101561374b578082015181840152602081019050613730565b8381111561375a576000848401525b50505050565b6000601f19601f8301169050919050565b600061377c82613711565b613786818561371c565b935061379681856020860161372d565b61379f81613760565b840191505092915050565b600060208201905081810360008301526137c48184613771565b905092915050565b600080fd5b600080fd5b600073ffffffffffffffffffffffffffffffffffffffff82169050919050565b6000613801826137d6565b9050919050565b613811816137f6565b811461381c57600080fd5b50565b60008135905061382e81613808565b92915050565b6000819050919050565b61384781613834565b811461385257600080fd5b50565b6000813590506138648161383e565b92915050565b60008060408385031215613881576138806137cc565b5b600061388f8582860161381f565b92505060206138a085828601613855565b9150509250929050565b60008115159050919050565b6138bf816138aa565b82525050565b60006020820190506138da60008301846138b6565b92915050565b6000602082840312156138f6576138f56137cc565b5b60006139048482850161381f565b91505092915050565b61391681613834565b82525050565b6000604082019050613931600083018561390d565b61393e602083018461390d565b9392505050565b600060208201905061395a600083018461390d565b92915050565b600061396b826137f6565b9050919050565b61397b81613960565b811461398657600080fd5b50565b60008135905061399881613972565b92915050565b60006139a9826137f6565b9050919050565b6139b98161399e565b81146139c457600080fd5b50565b6000813590506139d6816139b0565b92915050565b600060ff82169050919050565b6139f2816139dc565b81146139fd57600080fd5b50565b600081359050613a0f816139e9565b92915050565b600080fd5b600080fd5b600080fd5b60008083601f840112613a3a57613a39613a15565b5b8235905067ffffffffffffffff811115613a5757613a56613a1a565b5b602083019150836001820283011115613a7357613a72613a1f565b5b9250929050565b60008083601f840112613a9057613a8f613a15565b5b8235905067ffffffffffffffff811115613aad57613aac613a1a565b5b602083019150836001820283011115613ac957613ac8613a1f565b5b9250929050565b60008060008060008060008060008060006101008c8e031215613af657613af56137cc565b5b6000613b048e828f01613989565b9b50506020613b158e828f0161381f565b9a50506040613b268e828f0161381f565b9950506060613b378e828f016139c7565b9850506080613b488e828f01613a00565b97505060a08c013567ffffffffffffffff811115613b6957613b686137d1565b5b613b758e828f01613a24565b965096505060c08c013567ffffffffffffffff811115613b9857613b976137d1565b5b613ba48e828f01613a24565b945094505060e08c013567ffffffffffffffff811115613bc757613bc66137d1565b5b613bd38e828f01613a7a565b92509250509295989b509295989b9093969950565b600080600060608486031215613c0157613c006137cc565b5b6000613c0f8682870161381f565b9350506020613c208682870161381f565b9250506040613c3186828701613855565b9150509250925092565b6000819050919050565b613c4e81613c3b565b82525050565b6000602082019050613c696000830184613c45565b92915050565b613c78816139dc565b82525050565b6000602082019050613c936000830184613c6f565b92915050565b6000819050919050565b6000613cbe613cb9613cb4846137d6565b613c99565b6137d6565b9050919050565b6000613cd082613ca3565b9050919050565b6000613ce282613cc5565b9050919050565b613cf281613cd7565b82525050565b6000602082019050613d0d6000830184613ce9565b92915050565b6000613d1e82613cc5565b9050919050565b613d2e81613d13565b82525050565b6000602082019050613d496000830184613d25565b92915050565b600081519050919050565b600082825260208201905092915050565b6000613d7682613d4f565b613d808185613d5a565b9350613d9081856020860161372d565b613d9981613760565b840191505092915050565b60006020820190508181036000830152613dbe8184613d6b565b905092915050565b60008060408385031215613ddd57613ddc6137cc565b5b6000613deb85828601613855565b9250506020613dfc85828601613855565b9150509250929050565b613e0f816137f6565b82525050565b6000602082019050613e2a6000830184613e06565b92915050565b60008060008060808587031215613e4a57613e496137cc565b5b6000613e588782880161381f565b9450506020613e698782880161381f565b9350506040613e7a87828801613855565b9250506060613e8b87828801613855565b91505092959194509250565b613ea081613c3b565b8114613eab57600080fd5b50565b600081359050613ebd81613e97565b92915050565b600080600080600080600060e0888a031215613ee257613ee16137cc565b5b6000613ef08a828b0161381f565b9750506020613f018a828b0161381f565b9650506040613f128a828b01613855565b9550506060613f238a828b01613855565b9450506080613f348a828b01613a00565b93505060a0613f458a828b01613eae565b92505060c0613f568a828b01613eae565b91505092959891949750929550565b60008060408385031215613f7c57613f7b6137cc565b5b6000613f8a8582860161381f565b9250506020613f9b8582860161381f565b9150509250929050565b600060208284031215613fbb57613fba6137cc565b5b6000613fc9848285016139c7565b91505092915050565b7f4e487b7100000000000000000000000000000000000000000000000000000000600052602260045260246000fd5b6000600282049050600182168061401957607f821691505b6020821081141561402d5761402c613fd2565b5b50919050565b6000815190506140428161383e565b92915050565b60006020828403121561405e5761405d6137cc565b5b600061406c84828501614033565b91505092915050565b7f436f6e747261637420696e7374616e63652068617320616c726561647920626560008201527f656e20696e697469616c697a6564000000000000000000000000000000000000602082015250565b60006140d1602e8361371c565b91506140dc82614075565b604082019050919050565b60006020820190508181036000830152614100816140c4565b9050919050565b82818337600083830152505050565b6000614122838561371c565b935061412f838584614107565b61413883613760565b840190509392505050565b600061414f8385613d5a565b935061415c838584614107565b61416583613760565b840190509392505050565b600060c082019050614185600083018c613e06565b614192602083018b613e06565b61419f604083018a613c6f565b81810360608301526141b281888a614116565b905081810360808301526141c7818688614116565b905081810360a08301526141dc818486614143565b90509a9950505050505050505050565b7f4e487b7100000000000000000000000000000000000000000000000000000000600052601160045260246000fd5b600061422682613834565b915061423183613834565b925082821015614244576142436141ec565b5b828203905092915050565b600061425a82613834565b915061426583613834565b9250827fffffffffffffffffffffffffffffffffffffffffffffffffffffffffffffffff0382111561429a576142996141ec565b5b828201905092915050565b6000815190506142b481613808565b92915050565b6000602082840312156142d0576142cf6137cc565b5b60006142de848285016142a5565b91505092915050565b6142f0816138aa565b81146142fb57600080fd5b50565b60008151905061430d816142e7565b92915050565b600060208284031215614329576143286137cc565b5b6000614337848285016142fe565b91505092915050565b600060c0820190506143556000830189613c45565b6143626020830188613e06565b61436f6040830187613e06565b61437c606083018661390d565b614389608083018561390d565b61439660a083018461390d565b979650505050505050565b600081905092915050565b7f1901000000000000000000000000000000000000000000000000000000000000600082015250565b60006143e26002836143a1565b91506143ed826143ac565b600282019050919050565b6000819050919050565b61441361440e82613c3b565b6143f8565b82525050565b6000614424826143d5565b91506144308285614402565b6020820191506144408284614402565b6020820191508190509392505050565b60006080820190506144656000830187613c45565b6144726020830186613c6f565b61447f6040830185613c45565b61448c6060830184613c45565b95945050505050565b600060a0820190506144aa6000830188613c45565b6144b76020830187613c45565b6144c46040830186613c45565b6144d1606083018561390d565b6144de6080830184613e06565b9695505050505050565b7f53616665436173743a2076616c756520646f65736e27742066697420696e203160008201527f3238206269747300000000000000000000000000000000000000000000000000602082015250565b600061454460278361371c565b915061454f826144e8565b604082019050919050565b6000602082019050818103600083015261457381614537565b9050919050565b7f475076323a206661696c6564207472616e736665720000000000000000000000600082015250565b60006145b060158361371c565b91506145bb8261457a565b602082019050919050565b600060208201905081810360008301526145df816145a3565b9050919050565b60006060820190506145fb600083018661390d565b614608602083018561390d565b614615604083018461390d565b949350505050565b600060c0820190506146326000830189613e06565b61463f6020830188613e06565b61464c6040830187613e06565b614659606083018661390d565b614666608083018561390d565b61467360a083018461390d565b979650505050505050565b60006fffffffffffffffffffffffffffffffff82169050919050565b60006146a58261467e565b91506146b08361467e565b9250826fffffffffffffffffffffffffffffffff038211156146d5576146d46141ec565b5b828201905092915050565b60006146fb6146f66146f18461467e565b613c99565b613834565b9050919050565b61470b816146e0565b82525050565b60006060820190506147266000830186613e06565b614733602083018561390d565b6147406040830184614702565b949350505050565b60006147538261467e565b915061475e8361467e565b925082821015614771576147706141ec565b5b828203905092915050565b60006020820190506147916000830184614702565b9291505056fea26469706673582212204fdac9af631caa2846805ae48238258bb666b46dd5b7903629592330bd82c0fb64736f6c634300080a0033",
  "linkReferences": {},
  "deployedLinkReferences": {}
}