{
  "_format": "hh-sol-artifact-1",
  "contractName": "AaveOracle",
  "sourceName": "contracts/Aave_Contracts/misc/AaveOracle.sol",
  "abi": [
    {
      "inputs": [
        {
          "internalType": "contract IPoolAddressesProvider",
          "name": "provider",
          "type": "address"
        },
        {
          "internalType": "address[]",
          "name": "assets",
          "type": "address[]"
        },
        {
          "internalType": "address[]",
          "name": "sources",
          "type": "address[]"
        },
        {
          "internalType": "address",
          "name": "fallbackOracle",
          "type": "address"
        },
        {
          "internalType": "address",
          "name": "baseCurrency",
          "type": "address"
        },
        {
          "internalType": "uint256",
          "name": "baseCurrencyUnit",
          "type": "uint256"
        }
      ],
      "stateMutability": "nonpayable",
      "type": "constructor"
    },
    {
      "anonymous": false,
      "inputs": [
        {
          "indexed": true,
          "internalType": "address",
          "name": "asset",
          "type": "address"
        },
        {
          "indexed": true,
          "internalType": "address",
          "name": "source",
          "type": "address"
        }
      ],
      "name": "AssetSourceUpdated",
      "type": "event"
    },
    {
      "anonymous": false,
      "inputs": [
        {
          "indexed": true,
          "internalType": "address",
          "name": "baseCurrency",
          "type": "address"
        },
        {
          "indexed": false,
          "internalType": "uint256",
          "name": "baseCurrencyUnit",
          "type": "uint256"
        }
      ],
      "name": "BaseCurrencySet",
      "type": "event"
    },
    {
      "anonymous": false,
      "inputs": [
        {
          "indexed": true,
          "internalType": "address",
          "name": "fallbackOracle",
          "type": "address"
        }
      ],
      "name": "FallbackOracleUpdated",
      "type": "event"
    },
    {
      "inputs": [],
      "name": "ADDRESSES_PROVIDER",
      "outputs": [
        {
          "internalType": "contract IPoolAddressesProvider",
          "name": "",
          "type": "address"
        }
      ],
      "stateMutability": "view",
      "type": "function"
    },
    {
      "inputs": [],
      "name": "BASE_CURRENCY",
      "outputs": [
        {
          "internalType": "address",
          "name": "",
          "type": "address"
        }
      ],
      "stateMutability": "view",
      "type": "function"
    },
    {
      "inputs": [],
      "name": "BASE_CURRENCY_UNIT",
      "outputs": [
        {
          "internalType": "uint256",
          "name": "",
          "type": "uint256"
        }
      ],
      "stateMutability": "view",
      "type": "function"
    },
    {
      "inputs": [
        {
          "internalType": "address",
          "name": "asset",
          "type": "address"
        }
      ],
      "name": "getAssetPrice",
      "outputs": [
        {
          "internalType": "uint256",
          "name": "",
          "type": "uint256"
        }
      ],
      "stateMutability": "view",
      "type": "function"
    },
    {
      "inputs": [
        {
          "internalType": "address[]",
          "name": "assets",
          "type": "address[]"
        }
      ],
      "name": "getAssetsPrices",
      "outputs": [
        {
          "internalType": "uint256[]",
          "name": "",
          "type": "uint256[]"
        }
      ],
      "stateMutability": "view",
      "type": "function"
    },
    {
      "inputs": [],
      "name": "getFallbackOracle",
      "outputs": [
        {
          "internalType": "address",
          "name": "",
          "type": "address"
        }
      ],
      "stateMutability": "view",
      "type": "function"
    },
    {
      "inputs": [
        {
          "internalType": "address",
          "name": "asset",
          "type": "address"
        }
      ],
      "name": "getSourceOfAsset",
      "outputs": [
        {
          "internalType": "address",
          "name": "",
          "type": "address"
        }
      ],
      "stateMutability": "view",
      "type": "function"
    },
    {
      "inputs": [
        {
          "internalType": "address[]",
          "name": "assets",
          "type": "address[]"
        },
        {
          "internalType": "address[]",
          "name": "sources",
          "type": "address[]"
        }
      ],
      "name": "setAssetSources",
      "outputs": [],
      "stateMutability": "nonpayable",
      "type": "function"
    },
    {
      "inputs": [
        {
          "internalType": "address",
          "name": "fallbackOracle",
          "type": "address"
        }
      ],
      "name": "setFallbackOracle",
      "outputs": [],
      "stateMutability": "nonpayable",
      "type": "function"
    }
  ],
  "bytecode": "0x60e06040523480156200001157600080fd5b5060405162001b0f38038062001b0f83398181016040528101906200003791906200060e565b8573ffffffffffffffffffffffffffffffffffffffff1660808173ffffffffffffffffffffffffffffffffffffffff16815250506200007c836200012660201b60201c565b6200008e8585620001ad60201b60201c565b8173ffffffffffffffffffffffffffffffffffffffff1660a08173ffffffffffffffffffffffffffffffffffffffff16815250508060c081815250508173ffffffffffffffffffffffffffffffffffffffff167fe27c4c1372396a3d15a9922f74f9dfc7c72b1ad6d63868470787249c356454c182604051620001129190620006f9565b60405180910390a250505050505062000879565b80600160006101000a81548173ffffffffffffffffffffffffffffffffffffffff021916908373ffffffffffffffffffffffffffffffffffffffff1602179055508073ffffffffffffffffffffffffffffffffffffffff167fce7a780d33665b1ea097af5f155e3821b809ecbaa839d3b33aa83ba28168cefb60405160405180910390a250565b80518251146040518060400160405280600281526020017f3736000000000000000000000000000000000000000000000000000000000000815250906200022c576040517f08c379a0000000000000000000000000000000000000000000000000000000008152600401620002239190620007a9565b60405180910390fd5b5060005b82518110156200039b5781818151811062000250576200024f620007cd565b5b6020026020010151600080858481518110620002715762000270620007cd565b5b602002602001015173ffffffffffffffffffffffffffffffffffffffff1673ffffffffffffffffffffffffffffffffffffffff16815260200190815260200160002060006101000a81548173ffffffffffffffffffffffffffffffffffffffff021916908373ffffffffffffffffffffffffffffffffffffffff160217905550818181518110620003075762000306620007cd565b5b602002602001015173ffffffffffffffffffffffffffffffffffffffff168382815181106200033b576200033a620007cd565b5b602002602001015173ffffffffffffffffffffffffffffffffffffffff167f22c5b7b2d8561d39f7f210b6b326a1aa69f15311163082308ac4877db6339dc160405160405180910390a3808062000392906200082b565b91505062000230565b505050565b6000604051905090565b600080fd5b600080fd5b600073ffffffffffffffffffffffffffffffffffffffff82169050919050565b6000620003e182620003b4565b9050919050565b6000620003f582620003d4565b9050919050565b6200040781620003e8565b81146200041357600080fd5b50565b6000815190506200042781620003fc565b92915050565b600080fd5b6000601f19601f8301169050919050565b7f4e487b7100000000000000000000000000000000000000000000000000000000600052604160045260246000fd5b6200047d8262000432565b810181811067ffffffffffffffff821117156200049f576200049e62000443565b5b80604052505050565b6000620004b4620003a0565b9050620004c2828262000472565b919050565b600067ffffffffffffffff821115620004e557620004e462000443565b5b602082029050602081019050919050565b600080fd5b6200050681620003d4565b81146200051257600080fd5b50565b6000815190506200052681620004fb565b92915050565b6000620005436200053d84620004c7565b620004a8565b90508083825260208201905060208402830185811115620005695762000568620004f6565b5b835b8181101562000596578062000581888262000515565b8452602084019350506020810190506200056b565b5050509392505050565b600082601f830112620005b857620005b76200042d565b5b8151620005ca8482602086016200052c565b91505092915050565b6000819050919050565b620005e881620005d3565b8114620005f457600080fd5b50565b6000815190506200060881620005dd565b92915050565b60008060008060008060c087890312156200062e576200062d620003aa565b5b60006200063e89828a0162000416565b965050602087015167ffffffffffffffff811115620006625762000661620003af565b5b6200067089828a01620005a0565b955050604087015167ffffffffffffffff811115620006945762000693620003af565b5b620006a289828a01620005a0565b9450506060620006b589828a0162000515565b9350506080620006c889828a0162000515565b92505060a0620006db89828a01620005f7565b9150509295509295509295565b620006f381620005d3565b82525050565b6000602082019050620007106000830184620006e8565b92915050565b600081519050919050565b600082825260208201905092915050565b60005b838110156200075257808201518184015260208101905062000735565b8381111562000762576000848401525b50505050565b6000620007758262000716565b62000781818562000721565b93506200079381856020860162000732565b6200079e8162000432565b840191505092915050565b60006020820190508181036000830152620007c5818462000768565b905092915050565b7f4e487b7100000000000000000000000000000000000000000000000000000000600052603260045260246000fd5b7f4e487b7100000000000000000000000000000000000000000000000000000000600052601160045260246000fd5b60006200083882620005d3565b91507fffffffffffffffffffffffffffffffffffffffffffffffffffffffffffffffff8214156200086e576200086d620007fc565b5b600182019050919050565b60805160a05160c051611251620008be6000396000818161023c01526104e701526000818161049301526107150152600081816101da015261073b01526112516000f3fe608060405234801561001057600080fd5b50600436106100935760003560e01c806392bf2be01161006657806392bf2be01461010e5780639d23d9f21461013e578063abfd53101461016e578063b3596f071461018a578063e19f4700146101ba57610093565b80630542975c14610098578063170aee73146100b65780636210308c146100d25780638c89b64f146100f0575b600080fd5b6100a06101d8565b6040516100ad9190610c26565b60405180910390f35b6100d060048036038101906100cb9190610c89565b6101fc565b005b6100da610210565b6040516100e79190610cc5565b60405180910390f35b6100f861023a565b6040516101059190610cf9565b60405180910390f35b61012860048036038101906101239190610c89565b61025e565b6040516101359190610cc5565b60405180910390f35b61015860048036038101906101539190610d79565b6102c6565b6040516101659190610e84565b60405180910390f35b61018860048036038101906101839190610ea6565b610393565b005b6101a4600480360381019061019f9190610c89565b61042d565b6040516101b19190610cf9565b60405180910390f35b6101c2610713565b6040516101cf9190610cc5565b60405180910390f35b7f000000000000000000000000000000000000000000000000000000000000000081565b610204610737565b61020d81610940565b50565b6000600160009054906101000a900473ffffffffffffffffffffffffffffffffffffffff16905090565b7f000000000000000000000000000000000000000000000000000000000000000081565b60008060008373ffffffffffffffffffffffffffffffffffffffff1673ffffffffffffffffffffffffffffffffffffffff16815260200190815260200160002060009054906101000a900473ffffffffffffffffffffffffffffffffffffffff169050919050565b606060008383905067ffffffffffffffff8111156102e7576102e6610f27565b5b6040519080825280602002602001820160405280156103155781602001602082028036833780820191505090505b50905060005b848490508110156103885761035685858381811061033c5761033b610f56565b5b90506020020160208101906103519190610c89565b61042d565b82828151811061036957610368610f56565b5b602002602001018181525050808061038090610fb4565b91505061031b565b508091505092915050565b61039b610737565b610427848480806020026020016040519081016040528093929190818152602001838360200280828437600081840152601f19601f82011690508083019250505050505050838380806020026020016040519081016040528093929190818152602001838360200280828437600081840152601f19601f820116905080830192505050505050506109c7565b50505050565b6000806000808473ffffffffffffffffffffffffffffffffffffffff1673ffffffffffffffffffffffffffffffffffffffff16815260200190815260200160002060009054906101000a900473ffffffffffffffffffffffffffffffffffffffff1690507f000000000000000000000000000000000000000000000000000000000000000073ffffffffffffffffffffffffffffffffffffffff168373ffffffffffffffffffffffffffffffffffffffff16141561050e577f000000000000000000000000000000000000000000000000000000000000000091505061070e565b600073ffffffffffffffffffffffffffffffffffffffff168173ffffffffffffffffffffffffffffffffffffffff1614156105e757600160009054906101000a900473ffffffffffffffffffffffffffffffffffffffff1673ffffffffffffffffffffffffffffffffffffffff1663b3596f07846040518263ffffffff1660e01b815260040161059e9190610cc5565b602060405180830381865afa1580156105bb573d6000803e3d6000fd5b505050506040513d601f19601f820116820180604052508101906105df9190611029565b91505061070e565b60008173ffffffffffffffffffffffffffffffffffffffff166350d25bcd6040518163ffffffff1660e01b8152600401602060405180830381865afa158015610634573d6000803e3d6000fd5b505050506040513d601f19601f82011682018060405250810190610658919061108c565b9050600081131561066d57809250505061070e565b600160009054906101000a900473ffffffffffffffffffffffffffffffffffffffff1673ffffffffffffffffffffffffffffffffffffffff1663b3596f07856040518263ffffffff1660e01b81526004016106c89190610cc5565b602060405180830381865afa1580156106e5573d6000803e3d6000fd5b505050506040513d601f19601f820116820180604052508101906107099190611029565b925050505b919050565b7f000000000000000000000000000000000000000000000000000000000000000081565b60007f000000000000000000000000000000000000000000000000000000000000000073ffffffffffffffffffffffffffffffffffffffff1663707cd7166040518163ffffffff1660e01b8152600401602060405180830381865afa1580156107a4573d6000803e3d6000fd5b505050506040513d601f19601f820116820180604052508101906107c891906110ce565b90508073ffffffffffffffffffffffffffffffffffffffff166313ee32e0336040518263ffffffff1660e01b81526004016108039190610cc5565b602060405180830381865afa158015610820573d6000803e3d6000fd5b505050506040513d601f19601f820116820180604052508101906108449190611133565b806108c557508073ffffffffffffffffffffffffffffffffffffffff16637be53ca1336040518263ffffffff1660e01b81526004016108839190610cc5565b602060405180830381865afa1580156108a0573d6000803e3d6000fd5b505050506040513d601f19601f820116820180604052508101906108c49190611133565b5b6040518060400160405280600181526020017f35000000000000000000000000000000000000000000000000000000000000008152509061093c576040517f08c379a000000000000000000000000000000000000000000000000000000000815260040161093391906111f9565b60405180910390fd5b5050565b80600160006101000a81548173ffffffffffffffffffffffffffffffffffffffff021916908373ffffffffffffffffffffffffffffffffffffffff1602179055508073ffffffffffffffffffffffffffffffffffffffff167fce7a780d33665b1ea097af5f155e3821b809ecbaa839d3b33aa83ba28168cefb60405160405180910390a250565b80518251146040518060400160405280600281526020017f373600000000000000000000000000000000000000000000000000000000000081525090610a43576040517f08c379a0000000000000000000000000000000000000000000000000000000008152600401610a3a91906111f9565b60405180910390fd5b5060005b8251811015610ba257818181518110610a6357610a62610f56565b5b6020026020010151600080858481518110610a8157610a80610f56565b5b602002602001015173ffffffffffffffffffffffffffffffffffffffff1673ffffffffffffffffffffffffffffffffffffffff16815260200190815260200160002060006101000a81548173ffffffffffffffffffffffffffffffffffffffff021916908373ffffffffffffffffffffffffffffffffffffffff160217905550818181518110610b1457610b13610f56565b5b602002602001015173ffffffffffffffffffffffffffffffffffffffff16838281518110610b4557610b44610f56565b5b602002602001015173ffffffffffffffffffffffffffffffffffffffff167f22c5b7b2d8561d39f7f210b6b326a1aa69f15311163082308ac4877db6339dc160405160405180910390a38080610b9a90610fb4565b915050610a47565b505050565b600073ffffffffffffffffffffffffffffffffffffffff82169050919050565b6000819050919050565b6000610bec610be7610be284610ba7565b610bc7565b610ba7565b9050919050565b6000610bfe82610bd1565b9050919050565b6000610c1082610bf3565b9050919050565b610c2081610c05565b82525050565b6000602082019050610c3b6000830184610c17565b92915050565b600080fd5b600080fd5b6000610c5682610ba7565b9050919050565b610c6681610c4b565b8114610c7157600080fd5b50565b600081359050610c8381610c5d565b92915050565b600060208284031215610c9f57610c9e610c41565b5b6000610cad84828501610c74565b91505092915050565b610cbf81610c4b565b82525050565b6000602082019050610cda6000830184610cb6565b92915050565b6000819050919050565b610cf381610ce0565b82525050565b6000602082019050610d0e6000830184610cea565b92915050565b600080fd5b600080fd5b600080fd5b60008083601f840112610d3957610d38610d14565b5b8235905067ffffffffffffffff811115610d5657610d55610d19565b5b602083019150836020820283011115610d7257610d71610d1e565b5b9250929050565b60008060208385031215610d9057610d8f610c41565b5b600083013567ffffffffffffffff811115610dae57610dad610c46565b5b610dba85828601610d23565b92509250509250929050565b600081519050919050565b600082825260208201905092915050565b6000819050602082019050919050565b610dfb81610ce0565b82525050565b6000610e0d8383610df2565b60208301905092915050565b6000602082019050919050565b6000610e3182610dc6565b610e3b8185610dd1565b9350610e4683610de2565b8060005b83811015610e77578151610e5e8882610e01565b9750610e6983610e19565b925050600181019050610e4a565b5085935050505092915050565b60006020820190508181036000830152610e9e8184610e26565b905092915050565b60008060008060408587031215610ec057610ebf610c41565b5b600085013567ffffffffffffffff811115610ede57610edd610c46565b5b610eea87828801610d23565b9450945050602085013567ffffffffffffffff811115610f0d57610f0c610c46565b5b610f1987828801610d23565b925092505092959194509250565b7f4e487b7100000000000000000000000000000000000000000000000000000000600052604160045260246000fd5b7f4e487b7100000000000000000000000000000000000000000000000000000000600052603260045260246000fd5b7f4e487b7100000000000000000000000000000000000000000000000000000000600052601160045260246000fd5b6000610fbf82610ce0565b91507fffffffffffffffffffffffffffffffffffffffffffffffffffffffffffffffff821415610ff257610ff1610f85565b5b600182019050919050565b61100681610ce0565b811461101157600080fd5b50565b60008151905061102381610ffd565b92915050565b60006020828403121561103f5761103e610c41565b5b600061104d84828501611014565b91505092915050565b6000819050919050565b61106981611056565b811461107457600080fd5b50565b60008151905061108681611060565b92915050565b6000602082840312156110a2576110a1610c41565b5b60006110b084828501611077565b91505092915050565b6000815190506110c881610c5d565b92915050565b6000602082840312156110e4576110e3610c41565b5b60006110f2848285016110b9565b91505092915050565b60008115159050919050565b611110816110fb565b811461111b57600080fd5b50565b60008151905061112d81611107565b92915050565b60006020828403121561114957611148610c41565b5b60006111578482850161111e565b91505092915050565b600081519050919050565b600082825260208201905092915050565b60005b8381101561119a57808201518184015260208101905061117f565b838111156111a9576000848401525b50505050565b6000601f19601f8301169050919050565b60006111cb82611160565b6111d5818561116b565b93506111e581856020860161117c565b6111ee816111af565b840191505092915050565b6000602082019050818103600083015261121381846111c0565b90509291505056fea264697066735822122077c925496da31724d05c4cf2f185ab3b489ca4371522fbb3dc41fa47c142a45664736f6c634300080a0033",
  "linkReferences": {},
  "deployedLinkReferences": {}
}