{
  "_format": "hh-sol-artifact-1",
  "contractName": "AaveProtocolDataProvider",
  "sourceName": "contracts/Aave_Contracts/misc/AaveProtocolDataProvider.sol",
  "abi": [
    {
      "inputs": [
        {
          "internalType": "contract IPoolAddressesProvider",
          "name": "addressesProvider",
          "type": "address"
        }
      ],
      "stateMutability": "nonpayable",
      "type": "constructor"
    },
    {
      "inputs": [],
      "name": "ADDRESSES_PROVIDER",
      "outputs": [
        {
          "internalType": "contract IPoolAddressesProvider",
          "name": "",
          "type": "address"
        }
      ],
      "stateMutability": "view",
      "type": "function"
    },
    {
      "inputs": [
        {
          "internalType": "address",
          "name": "asset",
          "type": "address"
        }
      ],
      "name": "getATokenTotalSupply",
      "outputs": [
        {
          "internalType": "uint256",
          "name": "",
          "type": "uint256"
        }
      ],
      "stateMutability": "view",
      "type": "function"
    },
    {
      "inputs": [],
      "name": "getAllATokens",
      "outputs": [
        {
          "components": [
            {
              "internalType": "string",
              "name": "symbol",
              "type": "string"
            },
            {
              "internalType": "address",
              "name": "tokenAddress",
              "type": "address"
            }
          ],
          "internalType": "struct AaveProtocolDataProvider.TokenData[]",
          "name": "",
          "type": "tuple[]"
        }
      ],
      "stateMutability": "view",
      "type": "function"
    },
    {
      "inputs": [],
      "name": "getAllReservesTokens",
      "outputs": [
        {
          "components": [
            {
              "internalType": "string",
              "name": "symbol",
              "type": "string"
            },
            {
              "internalType": "address",
              "name": "tokenAddress",
              "type": "address"
            }
          ],
          "internalType": "struct AaveProtocolDataProvider.TokenData[]",
          "name": "",
          "type": "tuple[]"
        }
      ],
      "stateMutability": "view",
      "type": "function"
    },
    {
      "inputs": [
        {
          "internalType": "address",
          "name": "asset",
          "type": "address"
        }
      ],
      "name": "getDebtCeiling",
      "outputs": [
        {
          "internalType": "uint256",
          "name": "",
          "type": "uint256"
        }
      ],
      "stateMutability": "view",
      "type": "function"
    },
    {
      "inputs": [],
      "name": "getDebtCeilingDecimals",
      "outputs": [
        {
          "internalType": "uint256",
          "name": "",
          "type": "uint256"
        }
      ],
      "stateMutability": "pure",
      "type": "function"
    },
    {
      "inputs": [
        {
          "internalType": "address",
          "name": "asset",
          "type": "address"
        }
      ],
      "name": "getInterestRateStrategyAddress",
      "outputs": [
        {
          "internalType": "address",
          "name": "irStrategyAddress",
          "type": "address"
        }
      ],
      "stateMutability": "view",
      "type": "function"
    },
    {
      "inputs": [
        {
          "internalType": "address",
          "name": "asset",
          "type": "address"
        }
      ],
      "name": "getLiquidationProtocolFee",
      "outputs": [
        {
          "internalType": "uint256",
          "name": "",
          "type": "uint256"
        }
      ],
      "stateMutability": "view",
      "type": "function"
    },
    {
      "inputs": [
        {
          "internalType": "address",
          "name": "asset",
          "type": "address"
        }
      ],
      "name": "getPaused",
      "outputs": [
        {
          "internalType": "bool",
          "name": "isPaused",
          "type": "bool"
        }
      ],
      "stateMutability": "view",
      "type": "function"
    },
    {
      "inputs": [
        {
          "internalType": "address",
          "name": "asset",
          "type": "address"
        }
      ],
      "name": "getReserveCaps",
      "outputs": [
        {
          "internalType": "uint256",
          "name": "borrowCap",
          "type": "uint256"
        },
        {
          "internalType": "uint256",
          "name": "supplyCap",
          "type": "uint256"
        }
      ],
      "stateMutability": "view",
      "type": "function"
    },
    {
      "inputs": [
        {
          "internalType": "address",
          "name": "asset",
          "type": "address"
        }
      ],
      "name": "getReserveConfigurationData",
      "outputs": [
        {
          "internalType": "uint256",
          "name": "decimals",
          "type": "uint256"
        },
        {
          "internalType": "uint256",
          "name": "ltv",
          "type": "uint256"
        },
        {
          "internalType": "uint256",
          "name": "liquidationThreshold",
          "type": "uint256"
        },
        {
          "internalType": "uint256",
          "name": "liquidationBonus",
          "type": "uint256"
        },
        {
          "internalType": "uint256",
          "name": "reserveFactor",
          "type": "uint256"
        },
        {
          "internalType": "bool",
          "name": "usageAsCollateralEnabled",
          "type": "bool"
        },
        {
          "internalType": "bool",
          "name": "borrowingEnabled",
          "type": "bool"
        },
        {
          "internalType": "bool",
          "name": "stableBorrowRateEnabled",
          "type": "bool"
        },
        {
          "internalType": "bool",
          "name": "isActive",
          "type": "bool"
        },
        {
          "internalType": "bool",
          "name": "isFrozen",
          "type": "bool"
        }
      ],
      "stateMutability": "view",
      "type": "function"
    },
    {
      "inputs": [
        {
          "internalType": "address",
          "name": "asset",
          "type": "address"
        }
      ],
      "name": "getReserveData",
      "outputs": [
        {
          "internalType": "uint256",
          "name": "unbacked",
          "type": "uint256"
        },
        {
          "internalType": "uint256",
          "name": "accruedToTreasuryScaled",
          "type": "uint256"
        },
        {
          "internalType": "uint256",
          "name": "totalAToken",
          "type": "uint256"
        },
        {
          "internalType": "uint256",
          "name": "totalStableDebt",
          "type": "uint256"
        },
        {
          "internalType": "uint256",
          "name": "totalVariableDebt",
          "type": "uint256"
        },
        {
          "internalType": "uint256",
          "name": "liquidityRate",
          "type": "uint256"
        },
        {
          "internalType": "uint256",
          "name": "variableBorrowRate",
          "type": "uint256"
        },
        {
          "internalType": "uint256",
          "name": "stableBorrowRate",
          "type": "uint256"
        },
        {
          "internalType": "uint256",
          "name": "averageStableBorrowRate",
          "type": "uint256"
        },
        {
          "internalType": "uint256",
          "name": "liquidityIndex",
          "type": "uint256"
        },
        {
          "internalType": "uint256",
          "name": "variableBorrowIndex",
          "type": "uint256"
        },
        {
          "internalType": "uint40",
          "name": "lastUpdateTimestamp",
          "type": "uint40"
        }
      ],
      "stateMutability": "view",
      "type": "function"
    },
    {
      "inputs": [
        {
          "internalType": "address",
          "name": "asset",
          "type": "address"
        }
      ],
      "name": "getReserveEModeCategory",
      "outputs": [
        {
          "internalType": "uint256",
          "name": "",
          "type": "uint256"
        }
      ],
      "stateMutability": "view",
      "type": "function"
    },
    {
      "inputs": [
        {
          "internalType": "address",
          "name": "asset",
          "type": "address"
        }
      ],
      "name": "getReserveTokensAddresses",
      "outputs": [
        {
          "internalType": "address",
          "name": "aTokenAddress",
          "type": "address"
        },
        {
          "internalType": "address",
          "name": "stableDebtTokenAddress",
          "type": "address"
        },
        {
          "internalType": "address",
          "name": "variableDebtTokenAddress",
          "type": "address"
        }
      ],
      "stateMutability": "view",
      "type": "function"
    },
    {
      "inputs": [
        {
          "internalType": "address",
          "name": "asset",
          "type": "address"
        }
      ],
      "name": "getSiloedBorrowing",
      "outputs": [
        {
          "internalType": "bool",
          "name": "",
          "type": "bool"
        }
      ],
      "stateMutability": "view",
      "type": "function"
    },
    {
      "inputs": [
        {
          "internalType": "address",
          "name": "asset",
          "type": "address"
        }
      ],
      "name": "getTotalDebt",
      "outputs": [
        {
          "internalType": "uint256",
          "name": "",
          "type": "uint256"
        }
      ],
      "stateMutability": "view",
      "type": "function"
    },
    {
      "inputs": [
        {
          "internalType": "address",
          "name": "asset",
          "type": "address"
        }
      ],
      "name": "getUnbackedMintCap",
      "outputs": [
        {
          "internalType": "uint256",
          "name": "",
          "type": "uint256"
        }
      ],
      "stateMutability": "view",
      "type": "function"
    },
    {
      "inputs": [
        {
          "internalType": "address",
          "name": "asset",
          "type": "address"
        },
        {
          "internalType": "address",
          "name": "user",
          "type": "address"
        }
      ],
      "name": "getUserReserveData",
      "outputs": [
        {
          "internalType": "uint256",
          "name": "currentATokenBalance",
          "type": "uint256"
        },
        {
          "internalType": "uint256",
          "name": "currentStableDebt",
          "type": "uint256"
        },
        {
          "internalType": "uint256",
          "name": "currentVariableDebt",
          "type": "uint256"
        },
        {
          "internalType": "uint256",
          "name": "principalStableDebt",
          "type": "uint256"
        },
        {
          "internalType": "uint256",
          "name": "scaledVariableDebt",
          "type": "uint256"
        },
        {
          "internalType": "uint256",
          "name": "stableBorrowRate",
          "type": "uint256"
        },
        {
          "internalType": "uint256",
          "name": "liquidityRate",
          "type": "uint256"
        },
        {
          "internalType": "uint40",
          "name": "stableRateLastUpdated",
          "type": "uint40"
        },
        {
          "internalType": "bool",
          "name": "usageAsCollateralEnabled",
          "type": "bool"
        }
      ],
      "stateMutability": "view",
      "type": "function"
    }
  ],
  "bytecode": "0x60a06040523480156200001157600080fd5b50604051620038cd380380620038cd8339818101604052810190620000379190620000f0565b8073ffffffffffffffffffffffffffffffffffffffff1660808173ffffffffffffffffffffffffffffffffffffffff16815250505062000122565b600080fd5b600073ffffffffffffffffffffffffffffffffffffffff82169050919050565b6000620000a48262000077565b9050919050565b6000620000b88262000097565b9050919050565b620000ca81620000ab565b8114620000d657600080fd5b50565b600081519050620000ea81620000bf565b92915050565b60006020828403121562000109576200010862000072565b5b60006200011984828501620000d9565b91505092915050565b608051613718620001b5600039600081816104540152818161047b015281816105a5015281816106b201528181610b9c01528181610f610152818161107a0152818161119f015281816112fc0152818161141901528181611621015281816117ab015281816118d2015281816119ea01528181611e6901528181611f93015281816120c201526123b201526137186000f3fe608060405234801561001057600080fd5b50600436106101165760003560e01c806351460e25116100a2578063b316ff8911610071578063b316ff8914610384578063b55d9904146103a2578063d2493b6c146103d2578063f561ae4114610404578063fcf40a621461042257610116565b806351460e25146102d65780636744362a1461030657806369b169e1146103365780637ba1ae361461035457610116565b80633c798109116100e95780633c798109146101dc5780633cb8a6221461020c5780633e1501411461023c57806346fbe558146102755780634d44ac4f146102a657610116565b80630542975c1461011b578063163a0f201461013957806328dd2d011461016957806335ea6a75146101a1575b600080fd5b610123610452565b6040516101309190612980565b60405180910390f35b610153600480360381019061014e91906129ed565b610476565b6040516101609190612a33565b60405180910390f35b610183600480360381019061017e9190612a4e565b610594565b60405161019899989796959493929190612ac9565b60405180910390f35b6101bb60048036038101906101b691906129ed565b610b86565b6040516101d39c9b9a99989796959493929190612b56565b60405180910390f35b6101f660048036038101906101f191906129ed565b610f5a565b6040516102039190612a33565b60405180910390f35b610226600480360381019061022191906129ed565b611073565b6040516102339190612a33565b60405180910390f35b610256600480360381019061025191906129ed565b61118c565b60405161026c9a99989796959493929190612c10565b60405180910390f35b61028f600480360381019061028a91906129ed565b6112f4565b60405161029d929190612cac565b60405180910390f35b6102c060048036038101906102bb91906129ed565b611414565b6040516102cd9190612a33565b60405180910390f35b6102f060048036038101906102eb91906129ed565b61161c565b6040516102fd9190612a33565b60405180910390f35b610320600480360381019061031b91906129ed565b6117a6565b60405161032d9190612ce4565b60405180910390f35b61033e6118c2565b60405161034b9190612a33565b60405180910390f35b61036e600480360381019061036991906129ed565b6118cb565b60405161037b9190612a33565b60405180910390f35b61038c6119e4565b6040516103999190612ea6565b60405180910390f35b6103bc60048036038101906103b791906129ed565b611e62565b6040516103c99190612ec8565b60405180910390f35b6103ec60048036038101906103e791906129ed565b611f8b565b6040516103fb93929190612ee3565b60405180910390f35b61040c6120bc565b6040516104199190612ea6565b60405180910390f35b61043c600480360381019061043791906129ed565b6123ab565b6040516104499190612ec8565b60405180910390f35b7f000000000000000000000000000000000000000000000000000000000000000081565b6000807f000000000000000000000000000000000000000000000000000000000000000073ffffffffffffffffffffffffffffffffffffffff1663026b1d5f6040518163ffffffff1660e01b8152600401602060405180830381865afa1580156104e4573d6000803e3d6000fd5b505050506040513d601f19601f820116820180604052508101906105089190612f2f565b73ffffffffffffffffffffffffffffffffffffffff1663c44b11f7846040518263ffffffff1660e01b81526004016105409190612ce4565b602060405180830381865afa15801561055d573d6000803e3d6000fd5b505050506040513d601f19601f820116820180604052508101906105819190613044565b905061058c816124c4565b915050919050565b6000806000806000806000806000807f000000000000000000000000000000000000000000000000000000000000000073ffffffffffffffffffffffffffffffffffffffff1663026b1d5f6040518163ffffffff1660e01b8152600401602060405180830381865afa15801561060e573d6000803e3d6000fd5b505050506040513d601f19601f820116820180604052508101906106329190612f2f565b73ffffffffffffffffffffffffffffffffffffffff166335ea6a758d6040518263ffffffff1660e01b815260040161066a9190612ce4565b6101e060405180830381865afa158015610688573d6000803e3d6000fd5b505050506040513d601f19601f820116820180604052508101906106ac9190613283565b905060007f000000000000000000000000000000000000000000000000000000000000000073ffffffffffffffffffffffffffffffffffffffff1663026b1d5f6040518163ffffffff1660e01b8152600401602060405180830381865afa15801561071b573d6000803e3d6000fd5b505050506040513d601f19601f8201168201806040525081019061073f9190612f2f565b73ffffffffffffffffffffffffffffffffffffffff16634417a5838d6040518263ffffffff1660e01b81526004016107779190612ce4565b602060405180830381865afa158015610794573d6000803e3d6000fd5b505050506040513d601f19601f820116820180604052508101906107b891906132ed565b905081610100015173ffffffffffffffffffffffffffffffffffffffff166370a082318d6040518263ffffffff1660e01b81526004016107f89190612ce4565b602060405180830381865afa158015610815573d6000803e3d6000fd5b505050506040513d601f19601f82011682018060405250810190610839919061331a565b9a5081610140015173ffffffffffffffffffffffffffffffffffffffff166370a082318d6040518263ffffffff1660e01b81526004016108799190612ce4565b602060405180830381865afa158015610896573d6000803e3d6000fd5b505050506040513d601f19601f820116820180604052508101906108ba919061331a565b985081610120015173ffffffffffffffffffffffffffffffffffffffff166370a082318d6040518263ffffffff1660e01b81526004016108fa9190612ce4565b602060405180830381865afa158015610917573d6000803e3d6000fd5b505050506040513d601f19601f8201168201806040525081019061093b919061331a565b995081610120015173ffffffffffffffffffffffffffffffffffffffff1663c634dfaa8d6040518263ffffffff1660e01b815260040161097b9190612ce4565b602060405180830381865afa158015610998573d6000803e3d6000fd5b505050506040513d601f19601f820116820180604052508101906109bc919061331a565b975081610140015173ffffffffffffffffffffffffffffffffffffffff16631da24f3e8d6040518263ffffffff1660e01b81526004016109fc9190612ce4565b602060405180830381865afa158015610a19573d6000803e3d6000fd5b505050506040513d601f19601f82011682018060405250810190610a3d919061331a565b965081604001516fffffffffffffffffffffffffffffffff16945081610120015173ffffffffffffffffffffffffffffffffffffffff1663e78c9b3b8d6040518263ffffffff1660e01b8152600401610a969190612ce4565b602060405180830381865afa158015610ab3573d6000803e3d6000fd5b505050506040513d601f19601f82011682018060405250810190610ad7919061331a565b955081610120015173ffffffffffffffffffffffffffffffffffffffff166379ce6b8c8d6040518263ffffffff1660e01b8152600401610b179190612ce4565b602060405180830381865afa158015610b34573d6000803e3d6000fd5b505050506040513d601f19601f82011682018060405250810190610b589190613347565b9350610b758260e0015161ffff16826124f990919063ffffffff16565b925050509295985092959850929598565b60008060008060008060008060008060008060007f000000000000000000000000000000000000000000000000000000000000000073ffffffffffffffffffffffffffffffffffffffff1663026b1d5f6040518163ffffffff1660e01b8152600401602060405180830381865afa158015610c05573d6000803e3d6000fd5b505050506040513d601f19601f82011682018060405250810190610c299190612f2f565b73ffffffffffffffffffffffffffffffffffffffff166335ea6a758f6040518263ffffffff1660e01b8152600401610c619190612ce4565b6101e060405180830381865afa158015610c7f573d6000803e3d6000fd5b505050506040513d601f19601f82011682018060405250810190610ca39190613283565b9050806101a0015181610180015182610100015173ffffffffffffffffffffffffffffffffffffffff166318160ddd6040518163ffffffff1660e01b8152600401602060405180830381865afa158015610d01573d6000803e3d6000fd5b505050506040513d601f19601f82011682018060405250810190610d25919061331a565b83610120015173ffffffffffffffffffffffffffffffffffffffff166318160ddd6040518163ffffffff1660e01b8152600401602060405180830381865afa158015610d75573d6000803e3d6000fd5b505050506040513d601f19601f82011682018060405250810190610d99919061331a565b84610140015173ffffffffffffffffffffffffffffffffffffffff166318160ddd6040518163ffffffff1660e01b8152600401602060405180830381865afa158015610de9573d6000803e3d6000fd5b505050506040513d601f19601f82011682018060405250810190610e0d919061331a565b856040015186608001518760a0015188610120015173ffffffffffffffffffffffffffffffffffffffff166390f6fcf26040518163ffffffff1660e01b8152600401602060405180830381865afa158015610e6c573d6000803e3d6000fd5b505050506040513d601f19601f82011682018060405250810190610e90919061331a565b89602001518a606001518b60c001518b6fffffffffffffffffffffffffffffffff169b508a6fffffffffffffffffffffffffffffffff169a50866fffffffffffffffffffffffffffffffff169650856fffffffffffffffffffffffffffffffff169550846fffffffffffffffffffffffffffffffff169450826fffffffffffffffffffffffffffffffff169250816fffffffffffffffffffffffffffffffff1691509c509c509c509c509c509c509c509c509c509c509c509c505091939597999b5091939597999b565b600061106c7f000000000000000000000000000000000000000000000000000000000000000073ffffffffffffffffffffffffffffffffffffffff1663026b1d5f6040518163ffffffff1660e01b8152600401602060405180830381865afa158015610fca573d6000803e3d6000fd5b505050506040513d601f19601f82011682018060405250810190610fee9190612f2f565b73ffffffffffffffffffffffffffffffffffffffff1663c44b11f7846040518263ffffffff1660e01b81526004016110269190612ce4565b602060405180830381865afa158015611043573d6000803e3d6000fd5b505050506040513d601f19601f820116820180604052508101906110679190613044565b612598565b9050919050565b60006111857f000000000000000000000000000000000000000000000000000000000000000073ffffffffffffffffffffffffffffffffffffffff1663026b1d5f6040518163ffffffff1660e01b8152600401602060405180830381865afa1580156110e3573d6000803e3d6000fd5b505050506040513d601f19601f820116820180604052508101906111079190612f2f565b73ffffffffffffffffffffffffffffffffffffffff1663c44b11f7846040518263ffffffff1660e01b815260040161113f9190612ce4565b602060405180830381865afa15801561115c573d6000803e3d6000fd5b505050506040513d601f19601f820116820180604052508101906111809190613044565b6125cd565b9050919050565b60008060008060008060008060008060007f000000000000000000000000000000000000000000000000000000000000000073ffffffffffffffffffffffffffffffffffffffff1663026b1d5f6040518163ffffffff1660e01b8152600401602060405180830381865afa158015611208573d6000803e3d6000fd5b505050506040513d601f19601f8201168201806040525081019061122c9190612f2f565b73ffffffffffffffffffffffffffffffffffffffff1663c44b11f78d6040518263ffffffff1660e01b81526004016112649190612ce4565b602060405180830381865afa158015611281573d6000803e3d6000fd5b505050506040513d601f19601f820116820180604052508101906112a59190613044565b90506112b081612602565b50809b50819f50829c50839d50849e5050505050506112ce81612716565b508097508198508295508396505050505060008914159550509193959799509193959799565b6000806114077f000000000000000000000000000000000000000000000000000000000000000073ffffffffffffffffffffffffffffffffffffffff1663026b1d5f6040518163ffffffff1660e01b8152600401602060405180830381865afa158015611365573d6000803e3d6000fd5b505050506040513d601f19601f820116820180604052508101906113899190612f2f565b73ffffffffffffffffffffffffffffffffffffffff1663c44b11f7856040518263ffffffff1660e01b81526004016113c19190612ce4565b602060405180830381865afa1580156113de573d6000803e3d6000fd5b505050506040513d601f19601f820116820180604052508101906114029190613044565b612802565b8092508193505050915091565b6000807f000000000000000000000000000000000000000000000000000000000000000073ffffffffffffffffffffffffffffffffffffffff1663026b1d5f6040518163ffffffff1660e01b8152600401602060405180830381865afa158015611482573d6000803e3d6000fd5b505050506040513d601f19601f820116820180604052508101906114a69190612f2f565b73ffffffffffffffffffffffffffffffffffffffff166335ea6a75846040518263ffffffff1660e01b81526004016114de9190612ce4565b6101e060405180830381865afa1580156114fc573d6000803e3d6000fd5b505050506040513d601f19601f820116820180604052508101906115209190613283565b905080610140015173ffffffffffffffffffffffffffffffffffffffff166318160ddd6040518163ffffffff1660e01b8152600401602060405180830381865afa158015611572573d6000803e3d6000fd5b505050506040513d601f19601f82011682018060405250810190611596919061331a565b81610120015173ffffffffffffffffffffffffffffffffffffffff166318160ddd6040518163ffffffff1660e01b8152600401602060405180830381865afa1580156115e6573d6000803e3d6000fd5b505050506040513d601f19601f8201168201806040525081019061160a919061331a565b61161491906133a3565b915050919050565b6000807f000000000000000000000000000000000000000000000000000000000000000073ffffffffffffffffffffffffffffffffffffffff1663026b1d5f6040518163ffffffff1660e01b8152600401602060405180830381865afa15801561168a573d6000803e3d6000fd5b505050506040513d601f19601f820116820180604052508101906116ae9190612f2f565b73ffffffffffffffffffffffffffffffffffffffff166335ea6a75846040518263ffffffff1660e01b81526004016116e69190612ce4565b6101e060405180830381865afa158015611704573d6000803e3d6000fd5b505050506040513d601f19601f820116820180604052508101906117289190613283565b905080610100015173ffffffffffffffffffffffffffffffffffffffff166318160ddd6040518163ffffffff1660e01b8152600401602060405180830381865afa15801561177a573d6000803e3d6000fd5b505050506040513d601f19601f8201168201806040525081019061179e919061331a565b915050919050565b6000807f000000000000000000000000000000000000000000000000000000000000000073ffffffffffffffffffffffffffffffffffffffff1663026b1d5f6040518163ffffffff1660e01b8152600401602060405180830381865afa158015611814573d6000803e3d6000fd5b505050506040513d601f19601f820116820180604052508101906118389190612f2f565b73ffffffffffffffffffffffffffffffffffffffff166335ea6a75846040518263ffffffff1660e01b81526004016118709190612ce4565b6101e060405180830381865afa15801561188e573d6000803e3d6000fd5b505050506040513d601f19601f820116820180604052508101906118b29190613283565b9050806101600151915050919050565b60006002905090565b60006119dd7f000000000000000000000000000000000000000000000000000000000000000073ffffffffffffffffffffffffffffffffffffffff1663026b1d5f6040518163ffffffff1660e01b8152600401602060405180830381865afa15801561193b573d6000803e3d6000fd5b505050506040513d601f19601f8201168201806040525081019061195f9190612f2f565b73ffffffffffffffffffffffffffffffffffffffff1663c44b11f7846040518263ffffffff1660e01b81526004016119979190612ce4565b602060405180830381865afa1580156119b4573d6000803e3d6000fd5b505050506040513d601f19601f820116820180604052508101906119d89190613044565b612868565b9050919050565b606060007f000000000000000000000000000000000000000000000000000000000000000073ffffffffffffffffffffffffffffffffffffffff1663026b1d5f6040518163ffffffff1660e01b8152600401602060405180830381865afa158015611a53573d6000803e3d6000fd5b505050506040513d601f19601f82011682018060405250810190611a779190612f2f565b905060008173ffffffffffffffffffffffffffffffffffffffff1663d1946dbc6040518163ffffffff1660e01b8152600401600060405180830381865afa158015611ac6573d6000803e3d6000fd5b505050506040513d6000823e3d601f19601f82011682018060405250810190611aef91906134c6565b90506000815167ffffffffffffffff811115611b0e57611b0d612f61565b5b604051908082528060200260200182016040528015611b4757816020015b611b346128d1565b815260200190600190039081611b2c5790505b50905060005b8251811015611e5857739f8f72aa9304c8b593d555f12ef6589cc3a579a273ffffffffffffffffffffffffffffffffffffffff16838281518110611b9457611b9361350f565b5b602002602001015173ffffffffffffffffffffffffffffffffffffffff161415611c555760405180604001604052806040518060400160405280600381526020017f4d4b5200000000000000000000000000000000000000000000000000000000008152508152602001848381518110611c1157611c1061350f565b5b602002602001015173ffffffffffffffffffffffffffffffffffffffff16815250828281518110611c4557611c4461350f565b5b6020026020010181905250611e45565b73eeeeeeeeeeeeeeeeeeeeeeeeeeeeeeeeeeeeeeee73ffffffffffffffffffffffffffffffffffffffff16838281518110611c9357611c9261350f565b5b602002602001015173ffffffffffffffffffffffffffffffffffffffff161415611d545760405180604001604052806040518060400160405280600381526020017f45544800000000000000000000000000000000000000000000000000000000008152508152602001848381518110611d1057611d0f61350f565b5b602002602001015173ffffffffffffffffffffffffffffffffffffffff16815250828281518110611d4457611d4361350f565b5b6020026020010181905250611e45565b6040518060400160405280848381518110611d7257611d7161350f565b5b602002602001015173ffffffffffffffffffffffffffffffffffffffff166395d89b416040518163ffffffff1660e01b8152600401600060405180830381865afa158015611dc4573d6000803e3d6000fd5b505050506040513d6000823e3d601f19601f82011682018060405250810190611ded91906135e4565b8152602001848381518110611e0557611e0461350f565b5b602002602001015173ffffffffffffffffffffffffffffffffffffffff16815250828281518110611e3957611e3861350f565b5b60200260200101819052505b8080611e509061362d565b915050611b4d565b5080935050505090565b6000611f747f000000000000000000000000000000000000000000000000000000000000000073ffffffffffffffffffffffffffffffffffffffff1663026b1d5f6040518163ffffffff1660e01b8152600401602060405180830381865afa158015611ed2573d6000803e3d6000fd5b505050506040513d601f19601f82011682018060405250810190611ef69190612f2f565b73ffffffffffffffffffffffffffffffffffffffff1663c44b11f7846040518263ffffffff1660e01b8152600401611f2e9190612ce4565b602060405180830381865afa158015611f4b573d6000803e3d6000fd5b505050506040513d601f19601f82011682018060405250810190611f6f9190613044565b612716565b909192935090919250909150905080915050919050565b6000806000807f000000000000000000000000000000000000000000000000000000000000000073ffffffffffffffffffffffffffffffffffffffff1663026b1d5f6040518163ffffffff1660e01b8152600401602060405180830381865afa158015611ffc573d6000803e3d6000fd5b505050506040513d601f19601f820116820180604052508101906120209190612f2f565b73ffffffffffffffffffffffffffffffffffffffff166335ea6a75866040518263ffffffff1660e01b81526004016120589190612ce4565b6101e060405180830381865afa158015612076573d6000803e3d6000fd5b505050506040513d601f19601f8201168201806040525081019061209a9190613283565b9050806101000151816101200151826101400151935093509350509193909250565b606060007f000000000000000000000000000000000000000000000000000000000000000073ffffffffffffffffffffffffffffffffffffffff1663026b1d5f6040518163ffffffff1660e01b8152600401602060405180830381865afa15801561212b573d6000803e3d6000fd5b505050506040513d601f19601f8201168201806040525081019061214f9190612f2f565b905060008173ffffffffffffffffffffffffffffffffffffffff1663d1946dbc6040518163ffffffff1660e01b8152600401600060405180830381865afa15801561219e573d6000803e3d6000fd5b505050506040513d6000823e3d601f19601f820116820180604052508101906121c791906134c6565b90506000815167ffffffffffffffff8111156121e6576121e5612f61565b5b60405190808252806020026020018201604052801561221f57816020015b61220c6128d1565b8152602001906001900390816122045790505b50905060005b82518110156123a15760008473ffffffffffffffffffffffffffffffffffffffff166335ea6a7585848151811061225f5761225e61350f565b5b60200260200101516040518263ffffffff1660e01b81526004016122839190612ce4565b6101e060405180830381865afa1580156122a1573d6000803e3d6000fd5b505050506040513d601f19601f820116820180604052508101906122c59190613283565b9050604051806040016040528082610100015173ffffffffffffffffffffffffffffffffffffffff166395d89b416040518163ffffffff1660e01b8152600401600060405180830381865afa158015612322573d6000803e3d6000fd5b505050506040513d6000823e3d601f19601f8201168201806040525081019061234b91906135e4565b815260200182610100015173ffffffffffffffffffffffffffffffffffffffff168152508383815181106123825761238161350f565b5b60200260200101819052505080806123999061362d565b915050612225565b5080935050505090565b60006124bd7f000000000000000000000000000000000000000000000000000000000000000073ffffffffffffffffffffffffffffffffffffffff1663026b1d5f6040518163ffffffff1660e01b8152600401602060405180830381865afa15801561241b573d6000803e3d6000fd5b505050506040513d601f19601f8201168201806040525081019061243f9190612f2f565b73ffffffffffffffffffffffffffffffffffffffff1663c44b11f7846040518263ffffffff1660e01b81526004016124779190612ce4565b602060405180830381865afa158015612494573d6000803e3d6000fd5b505050506040513d601f19601f820116820180604052508101906124b89190613044565b61289d565b9050919050565b600060a87fffffffffffffffffffff00ffffffffffffffffffffffffffffffffffffffffff19836000015116901c9050919050565b6000608061ffff1682106040518060400160405280600281526020017f37340000000000000000000000000000000000000000000000000000000000008152509061257a576040517f08c379a000000000000000000000000000000000000000000000000000000000815260040161257191906136c0565b60405180910390fd5b506000600180600185901b018560000151901c161415905092915050565b600060d47ff0000000000fffffffffffffffffffffffffffffffffffffffffffffffffffff19836000015116901c9050919050565b600060987fffffffffffffffffffffff0000ffffffffffffffffffffffffffffffffffffff19836000015116901c9050919050565b6000806000806000806000876000015190507fffffffffffffffffffffffffffffffffffffffffffffffffffffffffffff000019811660107fffffffffffffffffffffffffffffffffffffffffffffffffffffffff0000ffff198316901c60207fffffffffffffffffffffffffffffffffffffffffffffffffffff0000ffffffff198416901c60307fffffffffffffffffffffffffffffffffffffffffffffffffff00ffffffffffff198516901c60407fffffffffffffffffffffffffffffffffffffffffffff0000ffffffffffffffff198616901c60a87fffffffffffffffffffff00ffffffffffffffffffffffffffffffffffffffffff198716901c9650965096509650965096505091939550919395565b6000806000806000808660000151905060007ffffffffffffffffffffffffffffffffffffffffffffffffffeffffffffffffff198216141560007ffffffffffffffffffffffffffffffffffffffffffffffffffdffffffffffffff198316141560007ffffffffffffffffffffffffffffffffffffffffffffffffffbffffffffffffff198416141560007ffffffffffffffffffffffffffffffffffffffffffffffffff7ffffffffffffff198516141560007fffffffffffffffffffffffffffffffffffffffffffffffffefffffffffffffff1986161415955095509550955095505091939590929450565b60008060008360000151905060507ffffffffffffffffffffffffffffffffffff000000000ffffffffffffffffffff198216901c60747fffffffffffffffffffffffffff000000000fffffffffffffffffffffffffffff198316901c9250925050915091565b600060b07ffffffffffff000000000ffffffffffffffffffffffffffffffffffffffffffff19836000015116901c9050919050565b6000807fffffffffffffffffffffffffffffffffffffffffffffffffbfffffffffffffff1983600001511614159050919050565b604051806040016040528060608152602001600073ffffffffffffffffffffffffffffffffffffffff1681525090565b600073ffffffffffffffffffffffffffffffffffffffff82169050919050565b6000819050919050565b600061294661294161293c84612901565b612921565b612901565b9050919050565b60006129588261292b565b9050919050565b600061296a8261294d565b9050919050565b61297a8161295f565b82525050565b60006020820190506129956000830184612971565b92915050565b6000604051905090565b600080fd5b600080fd5b60006129ba82612901565b9050919050565b6129ca816129af565b81146129d557600080fd5b50565b6000813590506129e7816129c1565b92915050565b600060208284031215612a0357612a026129a5565b5b6000612a11848285016129d8565b91505092915050565b6000819050919050565b612a2d81612a1a565b82525050565b6000602082019050612a486000830184612a24565b92915050565b60008060408385031215612a6557612a646129a5565b5b6000612a73858286016129d8565b9250506020612a84858286016129d8565b9150509250929050565b600064ffffffffff82169050919050565b612aa881612a8e565b82525050565b60008115159050919050565b612ac381612aae565b82525050565b600061012082019050612adf600083018c612a24565b612aec602083018b612a24565b612af9604083018a612a24565b612b066060830189612a24565b612b136080830188612a24565b612b2060a0830187612a24565b612b2d60c0830186612a24565b612b3a60e0830185612a9f565b612b48610100830184612aba565b9a9950505050505050505050565b600061018082019050612b6c600083018f612a24565b612b79602083018e612a24565b612b86604083018d612a24565b612b93606083018c612a24565b612ba0608083018b612a24565b612bad60a083018a612a24565b612bba60c0830189612a24565b612bc760e0830188612a24565b612bd5610100830187612a24565b612be3610120830186612a24565b612bf1610140830185612a24565b612bff610160830184612a9f565b9d9c50505050505050505050505050565b600061014082019050612c26600083018d612a24565b612c33602083018c612a24565b612c40604083018b612a24565b612c4d606083018a612a24565b612c5a6080830189612a24565b612c6760a0830188612aba565b612c7460c0830187612aba565b612c8160e0830186612aba565b612c8f610100830185612aba565b612c9d610120830184612aba565b9b9a5050505050505050505050565b6000604082019050612cc16000830185612a24565b612cce6020830184612a24565b9392505050565b612cde816129af565b82525050565b6000602082019050612cf96000830184612cd5565b92915050565b600081519050919050565b600082825260208201905092915050565b6000819050602082019050919050565b600081519050919050565b600082825260208201905092915050565b60005b83811015612d65578082015181840152602081019050612d4a565b83811115612d74576000848401525b50505050565b6000601f19601f8301169050919050565b6000612d9682612d2b565b612da08185612d36565b9350612db0818560208601612d47565b612db981612d7a565b840191505092915050565b612dcd816129af565b82525050565b60006040830160008301518482036000860152612df08282612d8b565b9150506020830151612e056020860182612dc4565b508091505092915050565b6000612e1c8383612dd3565b905092915050565b6000602082019050919050565b6000612e3c82612cff565b612e468185612d0a565b935083602082028501612e5885612d1b565b8060005b85811015612e945784840389528151612e758582612e10565b9450612e8083612e24565b925060208a01995050600181019050612e5c565b50829750879550505050505092915050565b60006020820190508181036000830152612ec08184612e31565b905092915050565b6000602082019050612edd6000830184612aba565b92915050565b6000606082019050612ef86000830186612cd5565b612f056020830185612cd5565b612f126040830184612cd5565b949350505050565b600081519050612f29816129c1565b92915050565b600060208284031215612f4557612f446129a5565b5b6000612f5384828501612f1a565b91505092915050565b600080fd5b7f4e487b7100000000000000000000000000000000000000000000000000000000600052604160045260246000fd5b612f9982612d7a565b810181811067ffffffffffffffff82111715612fb857612fb7612f61565b5b80604052505050565b6000612fcb61299b565b9050612fd78282612f90565b919050565b612fe581612a1a565b8114612ff057600080fd5b50565b60008151905061300281612fdc565b92915050565b60006020828403121561301e5761301d612f5c565b5b6130286020612fc1565b9050600061303884828501612ff3565b60008301525092915050565b60006020828403121561305a576130596129a5565b5b600061306884828501613008565b91505092915050565b60006fffffffffffffffffffffffffffffffff82169050919050565b61309681613071565b81146130a157600080fd5b50565b6000815190506130b38161308d565b92915050565b6130c281612a8e565b81146130cd57600080fd5b50565b6000815190506130df816130b9565b92915050565b600061ffff82169050919050565b6130fc816130e5565b811461310757600080fd5b50565b600081519050613119816130f3565b92915050565b60006101e0828403121561313657613135612f5c565b5b6131416101e0612fc1565b9050600061315184828501613008565b6000830152506020613165848285016130a4565b6020830152506040613179848285016130a4565b604083015250606061318d848285016130a4565b60608301525060806131a1848285016130a4565b60808301525060a06131b5848285016130a4565b60a08301525060c06131c9848285016130d0565b60c08301525060e06131dd8482850161310a565b60e0830152506101006131f284828501612f1a565b6101008301525061012061320884828501612f1a565b6101208301525061014061321e84828501612f1a565b6101408301525061016061323484828501612f1a565b6101608301525061018061324a848285016130a4565b610180830152506101a0613260848285016130a4565b6101a0830152506101c0613276848285016130a4565b6101c08301525092915050565b60006101e0828403121561329a576132996129a5565b5b60006132a88482850161311f565b91505092915050565b6000602082840312156132c7576132c6612f5c565b5b6132d16020612fc1565b905060006132e184828501612ff3565b60008301525092915050565b600060208284031215613303576133026129a5565b5b6000613311848285016132b1565b91505092915050565b6000602082840312156133305761332f6129a5565b5b600061333e84828501612ff3565b91505092915050565b60006020828403121561335d5761335c6129a5565b5b600061336b848285016130d0565b91505092915050565b7f4e487b7100000000000000000000000000000000000000000000000000000000600052601160045260246000fd5b60006133ae82612a1a565b91506133b983612a1a565b9250827fffffffffffffffffffffffffffffffffffffffffffffffffffffffffffffffff038211156133ee576133ed613374565b5b828201905092915050565b600080fd5b600067ffffffffffffffff82111561341957613418612f61565b5b602082029050602081019050919050565b600080fd5b600061344261343d846133fe565b612fc1565b905080838252602082019050602084028301858111156134655761346461342a565b5b835b8181101561348e578061347a8882612f1a565b845260208401935050602081019050613467565b5050509392505050565b600082601f8301126134ad576134ac6133f9565b5b81516134bd84826020860161342f565b91505092915050565b6000602082840312156134dc576134db6129a5565b5b600082015167ffffffffffffffff8111156134fa576134f96129aa565b5b61350684828501613498565b91505092915050565b7f4e487b7100000000000000000000000000000000000000000000000000000000600052603260045260246000fd5b600080fd5b600067ffffffffffffffff82111561355e5761355d612f61565b5b61356782612d7a565b9050602081019050919050565b600061358761358284613543565b612fc1565b9050828152602081018484840111156135a3576135a261353e565b5b6135ae848285612d47565b509392505050565b600082601f8301126135cb576135ca6133f9565b5b81516135db848260208601613574565b91505092915050565b6000602082840312156135fa576135f96129a5565b5b600082015167ffffffffffffffff811115613618576136176129aa565b5b613624848285016135b6565b91505092915050565b600061363882612a1a565b91507fffffffffffffffffffffffffffffffffffffffffffffffffffffffffffffffff82141561366b5761366a613374565b5b600182019050919050565b600082825260208201905092915050565b600061369282612d2b565b61369c8185613676565b93506136ac818560208601612d47565b6136b581612d7a565b840191505092915050565b600060208201905081810360008301526136da8184613687565b90509291505056fea26469706673582212205dff55170a49c8125e093b6bba953acf9ccb161de8327bd567159901bd27827a64736f6c634300080a0033",
  "linkReferences": {},
  "deployedLinkReferences": {}
}