{
  "_format": "hh-sol-artifact-1",
  "contractName": "AaveBiconomyForwarder",
  "sourceName": "contracts/AaveBiconomyForwarder.sol",
  "abi": [
    {
      "inputs": [
        {
          "internalType": "address",
          "name": "_trustedForwarder",
          "type": "address"
        }
      ],
      "stateMutability": "nonpayable",
      "type": "constructor"
    },
    {
      "anonymous": false,
      "inputs": [
        {
          "indexed": true,
          "internalType": "address",
          "name": "previousOwner",
          "type": "address"
        },
        {
          "indexed": true,
          "internalType": "address",
          "name": "newOwner",
          "type": "address"
        }
      ],
      "name": "OwnershipTransferred",
      "type": "event"
    },
    {
      "inputs": [
        {
          "internalType": "address",
          "name": "asset",
          "type": "address"
        },
        {
          "internalType": "uint256",
          "name": "amount",
          "type": "uint256"
        },
        {
          "internalType": "address",
          "name": "onBehalfOf",
          "type": "address"
        },
        {
          "internalType": "uint16",
          "name": "referralCode",
          "type": "uint16"
        }
      ],
      "name": "depositToAave",
      "outputs": [],
      "stateMutability": "nonpayable",
      "type": "function"
    },
    {
      "inputs": [
        {
          "internalType": "address",
          "name": "forwarder",
          "type": "address"
        }
      ],
      "name": "isTrustedForwarder",
      "outputs": [
        {
          "internalType": "bool",
          "name": "",
          "type": "bool"
        }
      ],
      "stateMutability": "view",
      "type": "function"
    },
    {
      "inputs": [],
      "name": "owner",
      "outputs": [
        {
          "internalType": "address",
          "name": "",
          "type": "address"
        }
      ],
      "stateMutability": "view",
      "type": "function"
    },
    {
      "inputs": [],
      "name": "renounceOwnership",
      "outputs": [],
      "stateMutability": "nonpayable",
      "type": "function"
    },
    {
      "inputs": [
        {
          "internalType": "address",
          "name": "lPAddress",
          "type": "address"
        }
      ],
      "name": "setLendingPoolAddress",
      "outputs": [],
      "stateMutability": "nonpayable",
      "type": "function"
    },
    {
      "inputs": [
        {
          "internalType": "address",
          "name": "forwarder",
          "type": "address"
        }
      ],
      "name": "setTrustedForwarder",
      "outputs": [],
      "stateMutability": "nonpayable",
      "type": "function"
    },
    {
      "inputs": [
        {
          "internalType": "address",
          "name": "newOwner",
          "type": "address"
        }
      ],
      "name": "transferOwnership",
      "outputs": [],
      "stateMutability": "nonpayable",
      "type": "function"
    },
    {
      "inputs": [
        {
          "internalType": "address",
          "name": "asset",
          "type": "address"
        },
        {
          "internalType": "uint256",
          "name": "amount",
          "type": "uint256"
        },
        {
          "internalType": "address",
          "name": "to",
          "type": "address"
        }
      ],
      "name": "withdrawFromAave",
      "outputs": [],
      "stateMutability": "nonpayable",
      "type": "function"
    }
  ],
  "bytecode": "0x6080604052736c9fb0d5bd9429eb9cd96b85b81d872281771e6b600260006101000a81548173ffffffffffffffffffffffffffffffffffffffff021916908373ffffffffffffffffffffffffffffffffffffffff1602179055503480156200006657600080fd5b5060405162001ac638038062001ac683398181016040528101906200008c9190620004a5565b80620000ad620000a1620002a060201b60201c565b620002bc60201b60201c565b80600160006101000a81548173ffffffffffffffffffffffffffffffffffffffff021916908373ffffffffffffffffffffffffffffffffffffffff160217905550506000600260009054906101000a900473ffffffffffffffffffffffffffffffffffffffff16905060008173ffffffffffffffffffffffffffffffffffffffff1663d1946dbc6040518163ffffffff1660e01b8152600401600060405180830381865afa15801562000164573d6000803e3d6000fd5b505050506040513d6000823e3d601f19601f820116820180604052508101906200018f91906200064c565b905060005b60018251620001a49190620006d6565b8161ffff16101562000296576000828261ffff1681518110620001cc57620001cb62000711565b5b602002602001015190508073ffffffffffffffffffffffffffffffffffffffff1663095ea7b3600260009054906101000a900473ffffffffffffffffffffffffffffffffffffffff166101ff6040518363ffffffff1660e01b8152600401620002379291906200079e565b6020604051808303816000875af115801562000257573d6000803e3d6000fd5b505050506040513d601f19601f820116820180604052508101906200027d919062000808565b50506001816200028e919062000848565b905062000194565b5050505062000887565b6000620002b76200038060201b6200099e1760201c565b905090565b60008060009054906101000a900473ffffffffffffffffffffffffffffffffffffffff169050816000806101000a81548173ffffffffffffffffffffffffffffffffffffffff021916908373ffffffffffffffffffffffffffffffffffffffff1602179055508173ffffffffffffffffffffffffffffffffffffffff168173ffffffffffffffffffffffffffffffffffffffff167f8be0079c531659141344cd1fd0a4f28419497f9722a3daafe3b4186f6b6457e060405160405180910390a35050565b60006200039333620003ca60201b60201c565b15620003a957601436033560601c9050620003c6565b620003be6200042460201b620009d01760201c565b9050620003c7565b5b90565b6000600160009054906101000a900473ffffffffffffffffffffffffffffffffffffffff1673ffffffffffffffffffffffffffffffffffffffff168273ffffffffffffffffffffffffffffffffffffffff16149050919050565b600033905090565b6000604051905090565b600080fd5b600080fd5b600073ffffffffffffffffffffffffffffffffffffffff82169050919050565b60006200046d8262000440565b9050919050565b6200047f8162000460565b81146200048b57600080fd5b50565b6000815190506200049f8162000474565b92915050565b600060208284031215620004be57620004bd62000436565b5b6000620004ce848285016200048e565b91505092915050565b600080fd5b6000601f19601f8301169050919050565b7f4e487b7100000000000000000000000000000000000000000000000000000000600052604160045260246000fd5b6200052782620004dc565b810181811067ffffffffffffffff82111715620005495762000548620004ed565b5b80604052505050565b60006200055e6200042c565b90506200056c82826200051c565b919050565b600067ffffffffffffffff8211156200058f576200058e620004ed565b5b602082029050602081019050919050565b600080fd5b6000620005bc620005b68462000571565b62000552565b90508083825260208201905060208402830185811115620005e257620005e1620005a0565b5b835b818110156200060f5780620005fa88826200048e565b845260208401935050602081019050620005e4565b5050509392505050565b600082601f830112620006315762000630620004d7565b5b815162000643848260208601620005a5565b91505092915050565b60006020828403121562000665576200066462000436565b5b600082015167ffffffffffffffff8111156200068657620006856200043b565b5b620006948482850162000619565b91505092915050565b6000819050919050565b7f4e487b7100000000000000000000000000000000000000000000000000000000600052601160045260246000fd5b6000620006e3826200069d565b9150620006f0836200069d565b925082821015620007065762000705620006a7565b5b828203905092915050565b7f4e487b7100000000000000000000000000000000000000000000000000000000600052603260045260246000fd5b6200074b8162000460565b82525050565b6000819050919050565b6000819050919050565b600062000786620007806200077a8462000751565b6200075b565b6200069d565b9050919050565b620007988162000765565b82525050565b6000604082019050620007b5600083018562000740565b620007c460208301846200078d565b9392505050565b60008115159050919050565b620007e281620007cb565b8114620007ee57600080fd5b50565b6000815190506200080281620007d7565b92915050565b60006020828403121562000821576200082062000436565b5b60006200083184828501620007f1565b91505092915050565b600061ffff82169050919050565b600062000855826200083a565b915062000862836200083a565b92508261ffff038211156200087c576200087b620006a7565b5b828201905092915050565b61122f80620008976000396000f3fe608060405234801561001057600080fd5b50600436106100885760003560e01c8063da7422281161005b578063da74222814610101578063e93afc031461011d578063ed3f827a14610139578063f2fde38b1461015557610088565b8063572b6c051461008d578063715018a6146100bd5780638da5cb5b146100c7578063ad9b3af7146100e5575b600080fd5b6100a760048036038101906100a29190610b1d565b610171565b6040516100b49190610b65565b60405180910390f35b6100c56101cb565b005b6100cf610253565b6040516100dc9190610b8f565b60405180910390f35b6100ff60048036038101906100fa9190610be0565b61027c565b005b61011b60048036038101906101169190610b1d565b610444565b005b61013760048036038101906101329190610c6d565b610504565b005b610153600480360381019061014e9190610b1d565b6107e6565b005b61016f600480360381019061016a9190610b1d565b6108a6565b005b6000600160009054906101000a900473ffffffffffffffffffffffffffffffffffffffff1673ffffffffffffffffffffffffffffffffffffffff168273ffffffffffffffffffffffffffffffffffffffff16149050919050565b6101d36109d8565b73ffffffffffffffffffffffffffffffffffffffff166101f1610253565b73ffffffffffffffffffffffffffffffffffffffff1614610247576040517f08c379a000000000000000000000000000000000000000000000000000000000815260040161023e90610d31565b60405180910390fd5b61025160006109e7565b565b60008060009054906101000a900473ffffffffffffffffffffffffffffffffffffffff16905090565b6000600260009054906101000a900473ffffffffffffffffffffffffffffffffffffffff16905060008173ffffffffffffffffffffffffffffffffffffffff1663d1946dbc6040518163ffffffff1660e01b8152600401600060405180830381865afa1580156102f0573d6000803e3d6000fd5b505050506040513d6000823e3d601f19601f820116820180604052508101906103199190610ebf565b90506000805b6001835161032d9190610f37565b8161ffff1610156103a3578673ffffffffffffffffffffffffffffffffffffffff16838261ffff168151811061036657610365610f6b565b5b602002602001015173ffffffffffffffffffffffffffffffffffffffff16141561038f57600191505b60018161039c9190610f9a565b905061031f565b5060011515811515146103b557600080fd5b60008690508373ffffffffffffffffffffffffffffffffffffffff166369328dec8888886040518463ffffffff1660e01b81526004016103f793929190610fe1565b6020604051808303816000875af1158015610416573d6000803e3d6000fd5b505050506040513d601f19601f8201168201806040525081019061043a919061102d565b5050505050505050565b61044c6109d8565b73ffffffffffffffffffffffffffffffffffffffff1661046a610253565b73ffffffffffffffffffffffffffffffffffffffff16146104c0576040517f08c379a00000000000000000000000000000000000000000000000000000000081526004016104b790610d31565b60405180910390fd5b80600160006101000a81548173ffffffffffffffffffffffffffffffffffffffff021916908373ffffffffffffffffffffffffffffffffffffffff16021790555050565b6000600260009054906101000a900473ffffffffffffffffffffffffffffffffffffffff16905060008173ffffffffffffffffffffffffffffffffffffffff1663d1946dbc6040518163ffffffff1660e01b8152600401600060405180830381865afa158015610578573d6000803e3d6000fd5b505050506040513d6000823e3d601f19601f820116820180604052508101906105a19190610ebf565b90506000805b600183516105b59190610f37565b8161ffff16101561062b578773ffffffffffffffffffffffffffffffffffffffff16838261ffff16815181106105ee576105ed610f6b565b5b602002602001015173ffffffffffffffffffffffffffffffffffffffff16141561061757600191505b6001816106249190610f9a565b90506105a7565b50600115158115151461063d57600080fd5b60008790508073ffffffffffffffffffffffffffffffffffffffff166323b872dd6106666109d8565b308a6040518463ffffffff1660e01b81526004016106869392919061105a565b6020604051808303816000875af11580156106a5573d6000803e3d6000fd5b505050506040513d601f19601f820116820180604052508101906106c991906110bd565b508073ffffffffffffffffffffffffffffffffffffffff1663095ea7b3600260009054906101000a900473ffffffffffffffffffffffffffffffffffffffff16896040518363ffffffff1660e01b81526004016107279291906110ea565b6020604051808303816000875af1158015610746573d6000803e3d6000fd5b505050506040513d601f19601f8201168201806040525081019061076a91906110bd565b508373ffffffffffffffffffffffffffffffffffffffff1663617ba037898989896040518563ffffffff1660e01b81526004016107aa9493929190611122565b600060405180830381600087803b1580156107c457600080fd5b505af11580156107d8573d6000803e3d6000fd5b505050505050505050505050565b6107ee6109d8565b73ffffffffffffffffffffffffffffffffffffffff1661080c610253565b73ffffffffffffffffffffffffffffffffffffffff1614610862576040517f08c379a000000000000000000000000000000000000000000000000000000000815260040161085990610d31565b60405180910390fd5b80600260006101000a81548173ffffffffffffffffffffffffffffffffffffffff021916908373ffffffffffffffffffffffffffffffffffffffff16021790555050565b6108ae6109d8565b73ffffffffffffffffffffffffffffffffffffffff166108cc610253565b73ffffffffffffffffffffffffffffffffffffffff1614610922576040517f08c379a000000000000000000000000000000000000000000000000000000000815260040161091990610d31565b60405180910390fd5b600073ffffffffffffffffffffffffffffffffffffffff168173ffffffffffffffffffffffffffffffffffffffff161415610992576040517f08c379a0000000000000000000000000000000000000000000000000000000008152600401610989906111d9565b60405180910390fd5b61099b816109e7565b50565b60006109a933610171565b156109bd57601436033560601c90506109cc565b6109c56109d0565b90506109cd565b5b90565b600033905090565b60006109e261099e565b905090565b60008060009054906101000a900473ffffffffffffffffffffffffffffffffffffffff169050816000806101000a81548173ffffffffffffffffffffffffffffffffffffffff021916908373ffffffffffffffffffffffffffffffffffffffff1602179055508173ffffffffffffffffffffffffffffffffffffffff168173ffffffffffffffffffffffffffffffffffffffff167f8be0079c531659141344cd1fd0a4f28419497f9722a3daafe3b4186f6b6457e060405160405180910390a35050565b6000604051905090565b600080fd5b600080fd5b600073ffffffffffffffffffffffffffffffffffffffff82169050919050565b6000610aea82610abf565b9050919050565b610afa81610adf565b8114610b0557600080fd5b50565b600081359050610b1781610af1565b92915050565b600060208284031215610b3357610b32610ab5565b5b6000610b4184828501610b08565b91505092915050565b60008115159050919050565b610b5f81610b4a565b82525050565b6000602082019050610b7a6000830184610b56565b92915050565b610b8981610adf565b82525050565b6000602082019050610ba46000830184610b80565b92915050565b6000819050919050565b610bbd81610baa565b8114610bc857600080fd5b50565b600081359050610bda81610bb4565b92915050565b600080600060608486031215610bf957610bf8610ab5565b5b6000610c0786828701610b08565b9350506020610c1886828701610bcb565b9250506040610c2986828701610b08565b9150509250925092565b600061ffff82169050919050565b610c4a81610c33565b8114610c5557600080fd5b50565b600081359050610c6781610c41565b92915050565b60008060008060808587031215610c8757610c86610ab5565b5b6000610c9587828801610b08565b9450506020610ca687828801610bcb565b9350506040610cb787828801610b08565b9250506060610cc887828801610c58565b91505092959194509250565b600082825260208201905092915050565b7f4f776e61626c653a2063616c6c6572206973206e6f7420746865206f776e6572600082015250565b6000610d1b602083610cd4565b9150610d2682610ce5565b602082019050919050565b60006020820190508181036000830152610d4a81610d0e565b9050919050565b600080fd5b6000601f19601f8301169050919050565b7f4e487b7100000000000000000000000000000000000000000000000000000000600052604160045260246000fd5b610d9f82610d56565b810181811067ffffffffffffffff82111715610dbe57610dbd610d67565b5b80604052505050565b6000610dd1610aab565b9050610ddd8282610d96565b919050565b600067ffffffffffffffff821115610dfd57610dfc610d67565b5b602082029050602081019050919050565b600080fd5b600081519050610e2281610af1565b92915050565b6000610e3b610e3684610de2565b610dc7565b90508083825260208201905060208402830185811115610e5e57610e5d610e0e565b5b835b81811015610e875780610e738882610e13565b845260208401935050602081019050610e60565b5050509392505050565b600082601f830112610ea657610ea5610d51565b5b8151610eb6848260208601610e28565b91505092915050565b600060208284031215610ed557610ed4610ab5565b5b600082015167ffffffffffffffff811115610ef357610ef2610aba565b5b610eff84828501610e91565b91505092915050565b7f4e487b7100000000000000000000000000000000000000000000000000000000600052601160045260246000fd5b6000610f4282610baa565b9150610f4d83610baa565b925082821015610f6057610f5f610f08565b5b828203905092915050565b7f4e487b7100000000000000000000000000000000000000000000000000000000600052603260045260246000fd5b6000610fa582610c33565b9150610fb083610c33565b92508261ffff03821115610fc757610fc6610f08565b5b828201905092915050565b610fdb81610baa565b82525050565b6000606082019050610ff66000830186610b80565b6110036020830185610fd2565b6110106040830184610b80565b949350505050565b60008151905061102781610bb4565b92915050565b60006020828403121561104357611042610ab5565b5b600061105184828501611018565b91505092915050565b600060608201905061106f6000830186610b80565b61107c6020830185610b80565b6110896040830184610fd2565b949350505050565b61109a81610b4a565b81146110a557600080fd5b50565b6000815190506110b781611091565b92915050565b6000602082840312156110d3576110d2610ab5565b5b60006110e1848285016110a8565b91505092915050565b60006040820190506110ff6000830185610b80565b61110c6020830184610fd2565b9392505050565b61111c81610c33565b82525050565b60006080820190506111376000830187610b80565b6111446020830186610fd2565b6111516040830185610b80565b61115e6060830184611113565b95945050505050565b7f4f776e61626c653a206e6577206f776e657220697320746865207a65726f206160008201527f6464726573730000000000000000000000000000000000000000000000000000602082015250565b60006111c3602683610cd4565b91506111ce82611167565b604082019050919050565b600060208201905081810360008301526111f2816111b6565b905091905056fea264697066735822122084e87f0050ddc7855b101d31a1777cb3957de18fae18927be5fc0a9f178eb8e464736f6c634300080a0033",
  "linkReferences": {},
  "deployedLinkReferences": {}
}