{
  "_format": "hh-sol-artifact-1",
  "contractName": "AaveBiconomyForwarder",
  "sourceName": "contracts/AaveBiconomyForwarder.sol",
  "abi": [
    {
      "inputs": [
        {
          "internalType": "address",
          "name": "_trustedForwarder",
          "type": "address"
        }
      ],
      "stateMutability": "nonpayable",
      "type": "constructor"
    },
    {
      "anonymous": false,
      "inputs": [
        {
          "indexed": true,
          "internalType": "address",
          "name": "previousOwner",
          "type": "address"
        },
        {
          "indexed": true,
          "internalType": "address",
          "name": "newOwner",
          "type": "address"
        }
      ],
      "name": "OwnershipTransferred",
      "type": "event"
    },
    {
      "inputs": [
        {
          "internalType": "address",
          "name": "asset",
          "type": "address"
        },
        {
          "internalType": "uint256",
          "name": "amount",
          "type": "uint256"
        },
        {
          "internalType": "uint16",
          "name": "referralCode",
          "type": "uint16"
        }
      ],
      "name": "depositToAave",
      "outputs": [],
      "stateMutability": "nonpayable",
      "type": "function"
    },
    {
      "inputs": [
        {
          "internalType": "address",
          "name": "forwarder",
          "type": "address"
        }
      ],
      "name": "isTrustedForwarder",
      "outputs": [
        {
          "internalType": "bool",
          "name": "",
          "type": "bool"
        }
      ],
      "stateMutability": "view",
      "type": "function"
    },
    {
      "inputs": [],
      "name": "owner",
      "outputs": [
        {
          "internalType": "address",
          "name": "",
          "type": "address"
        }
      ],
      "stateMutability": "view",
      "type": "function"
    },
    {
      "inputs": [],
      "name": "renounceOwnership",
      "outputs": [],
      "stateMutability": "nonpayable",
      "type": "function"
    },
    {
      "inputs": [
        {
          "internalType": "address",
          "name": "lPAddress",
          "type": "address"
        }
      ],
      "name": "setLendingPoolAddress",
      "outputs": [],
      "stateMutability": "nonpayable",
      "type": "function"
    },
    {
      "inputs": [
        {
          "internalType": "address",
          "name": "forwarder",
          "type": "address"
        }
      ],
      "name": "setTrustedForwarder",
      "outputs": [],
      "stateMutability": "nonpayable",
      "type": "function"
    },
    {
      "inputs": [
        {
          "internalType": "address",
          "name": "newOwner",
          "type": "address"
        }
      ],
      "name": "transferOwnership",
      "outputs": [],
      "stateMutability": "nonpayable",
      "type": "function"
    },
    {
      "inputs": [
        {
          "internalType": "address",
          "name": "asset",
          "type": "address"
        },
        {
          "internalType": "uint256",
          "name": "amount",
          "type": "uint256"
        }
      ],
      "name": "withdrawFromAave",
      "outputs": [],
      "stateMutability": "nonpayable",
      "type": "function"
    }
  ],
  "bytecode": "0x6080604052736c9fb0d5bd9429eb9cd96b85b81d872281771e6b600260006101000a81548173ffffffffffffffffffffffffffffffffffffffff021916908373ffffffffffffffffffffffffffffffffffffffff1602179055503480156200006657600080fd5b5060405162001b3338038062001b3383398181016040528101906200008c9190620004a5565b80620000ad620000a1620002a060201b60201c565b620002bc60201b60201c565b80600160006101000a81548173ffffffffffffffffffffffffffffffffffffffff021916908373ffffffffffffffffffffffffffffffffffffffff160217905550506000600260009054906101000a900473ffffffffffffffffffffffffffffffffffffffff16905060008173ffffffffffffffffffffffffffffffffffffffff1663d1946dbc6040518163ffffffff1660e01b8152600401600060405180830381865afa15801562000164573d6000803e3d6000fd5b505050506040513d6000823e3d601f19601f820116820180604052508101906200018f91906200064c565b905060005b60018251620001a49190620006d6565b8161ffff16101562000296576000828261ffff1681518110620001cc57620001cb62000711565b5b602002602001015190508073ffffffffffffffffffffffffffffffffffffffff1663095ea7b3600260009054906101000a900473ffffffffffffffffffffffffffffffffffffffff166101ff6040518363ffffffff1660e01b8152600401620002379291906200079e565b6020604051808303816000875af115801562000257573d6000803e3d6000fd5b505050506040513d601f19601f820116820180604052508101906200027d919062000808565b50506001816200028e919062000848565b905062000194565b5050505062000887565b6000620002b76200038060201b62000a321760201c565b905090565b60008060009054906101000a900473ffffffffffffffffffffffffffffffffffffffff169050816000806101000a81548173ffffffffffffffffffffffffffffffffffffffff021916908373ffffffffffffffffffffffffffffffffffffffff1602179055508173ffffffffffffffffffffffffffffffffffffffff168173ffffffffffffffffffffffffffffffffffffffff167f8be0079c531659141344cd1fd0a4f28419497f9722a3daafe3b4186f6b6457e060405160405180910390a35050565b60006200039333620003ca60201b60201c565b15620003a957601436033560601c9050620003c6565b620003be6200042460201b62000a641760201c565b9050620003c7565b5b90565b6000600160009054906101000a900473ffffffffffffffffffffffffffffffffffffffff1673ffffffffffffffffffffffffffffffffffffffff168273ffffffffffffffffffffffffffffffffffffffff16149050919050565b600033905090565b6000604051905090565b600080fd5b600080fd5b600073ffffffffffffffffffffffffffffffffffffffff82169050919050565b60006200046d8262000440565b9050919050565b6200047f8162000460565b81146200048b57600080fd5b50565b6000815190506200049f8162000474565b92915050565b600060208284031215620004be57620004bd62000436565b5b6000620004ce848285016200048e565b91505092915050565b600080fd5b6000601f19601f8301169050919050565b7f4e487b7100000000000000000000000000000000000000000000000000000000600052604160045260246000fd5b6200052782620004dc565b810181811067ffffffffffffffff82111715620005495762000548620004ed565b5b80604052505050565b60006200055e6200042c565b90506200056c82826200051c565b919050565b600067ffffffffffffffff8211156200058f576200058e620004ed565b5b602082029050602081019050919050565b600080fd5b6000620005bc620005b68462000571565b62000552565b90508083825260208201905060208402830185811115620005e257620005e1620005a0565b5b835b818110156200060f5780620005fa88826200048e565b845260208401935050602081019050620005e4565b5050509392505050565b600082601f830112620006315762000630620004d7565b5b815162000643848260208601620005a5565b91505092915050565b60006020828403121562000665576200066462000436565b5b600082015167ffffffffffffffff8111156200068657620006856200043b565b5b620006948482850162000619565b91505092915050565b6000819050919050565b7f4e487b7100000000000000000000000000000000000000000000000000000000600052601160045260246000fd5b6000620006e3826200069d565b9150620006f0836200069d565b925082821015620007065762000705620006a7565b5b828203905092915050565b7f4e487b7100000000000000000000000000000000000000000000000000000000600052603260045260246000fd5b6200074b8162000460565b82525050565b6000819050919050565b6000819050919050565b600062000786620007806200077a8462000751565b6200075b565b6200069d565b9050919050565b620007988162000765565b82525050565b6000604082019050620007b5600083018562000740565b620007c460208301846200078d565b9392505050565b60008115159050919050565b620007e281620007cb565b8114620007ee57600080fd5b50565b6000815190506200080281620007d7565b92915050565b60006020828403121562000821576200082062000436565b5b60006200083184828501620007f1565b91505092915050565b600061ffff82169050919050565b600062000855826200083a565b915062000862836200083a565b92508261ffff038211156200087c576200087b620006a7565b5b828201905092915050565b61129c80620008976000396000f3fe608060405234801561001057600080fd5b50600436106100885760003560e01c80638da5cb5b1161005b5780638da5cb5b146100ff578063da7422281461011d578063ed3f827a14610139578063f2fde38b1461015557610088565b80630b2ba8d51461008d578063487ede04146100a9578063572b6c05146100c5578063715018a6146100f5575b600080fd5b6100a760048036038101906100a29190610c21565b610171565b005b6100c360048036038101906100be9190610c74565b610459565b005b6100df60048036038101906100da9190610cb4565b6106af565b6040516100ec9190610cfc565b60405180910390f35b6100fd610709565b005b610107610791565b6040516101149190610d26565b60405180910390f35b61013760048036038101906101329190610cb4565b6107ba565b005b610153600480360381019061014e9190610cb4565b61087a565b005b61016f600480360381019061016a9190610cb4565b61093a565b005b6000600260009054906101000a900473ffffffffffffffffffffffffffffffffffffffff16905060008173ffffffffffffffffffffffffffffffffffffffff1663d1946dbc6040518163ffffffff1660e01b8152600401600060405180830381865afa1580156101e5573d6000803e3d6000fd5b505050506040513d6000823e3d601f19601f8201168201806040525081019061020e9190610eaf565b90506000805b600183516102229190610f27565b8161ffff161015610298578673ffffffffffffffffffffffffffffffffffffffff16838261ffff168151811061025b5761025a610f5b565b5b602002602001015173ffffffffffffffffffffffffffffffffffffffff16141561028457600191505b6001816102919190610f8a565b9050610214565b5060011515811515146102aa57600080fd5b60008690508073ffffffffffffffffffffffffffffffffffffffff166323b872dd6102d3610a6c565b30896040518463ffffffff1660e01b81526004016102f393929190610fd1565b6020604051808303816000875af1158015610312573d6000803e3d6000fd5b505050506040513d601f19601f820116820180604052508101906103369190611034565b508073ffffffffffffffffffffffffffffffffffffffff1663095ea7b3600260009054906101000a900473ffffffffffffffffffffffffffffffffffffffff16886040518363ffffffff1660e01b8152600401610394929190611061565b6020604051808303816000875af11580156103b3573d6000803e3d6000fd5b505050506040513d601f19601f820116820180604052508101906103d79190611034565b508373ffffffffffffffffffffffffffffffffffffffff1663617ba03788886103fe610a6c565b896040518563ffffffff1660e01b815260040161041e9493929190611099565b600060405180830381600087803b15801561043857600080fd5b505af115801561044c573d6000803e3d6000fd5b5050505050505050505050565b6000600260009054906101000a900473ffffffffffffffffffffffffffffffffffffffff16905060008173ffffffffffffffffffffffffffffffffffffffff1663d1946dbc6040518163ffffffff1660e01b8152600401600060405180830381865afa1580156104cd573d6000803e3d6000fd5b505050506040513d6000823e3d601f19601f820116820180604052508101906104f69190610eaf565b90506000805b6001835161050a9190610f27565b8161ffff161015610580578573ffffffffffffffffffffffffffffffffffffffff16838261ffff168151811061054357610542610f5b565b5b602002602001015173ffffffffffffffffffffffffffffffffffffffff16141561056c57600191505b6001816105799190610f8a565b90506104fc565b50600115158115151461059257600080fd5b60008590508073ffffffffffffffffffffffffffffffffffffffff166323b872dd6105bb610a6c565b30886040518463ffffffff1660e01b81526004016105db93929190610fd1565b6020604051808303816000875af11580156105fa573d6000803e3d6000fd5b505050506040513d601f19601f8201168201806040525081019061061e9190611034565b508373ffffffffffffffffffffffffffffffffffffffff166369328dec8787610645610a6c565b6040518463ffffffff1660e01b8152600401610663939291906110de565b6020604051808303816000875af1158015610682573d6000803e3d6000fd5b505050506040513d601f19601f820116820180604052508101906106a6919061112a565b50505050505050565b6000600160009054906101000a900473ffffffffffffffffffffffffffffffffffffffff1673ffffffffffffffffffffffffffffffffffffffff168273ffffffffffffffffffffffffffffffffffffffff16149050919050565b610711610a6c565b73ffffffffffffffffffffffffffffffffffffffff1661072f610791565b73ffffffffffffffffffffffffffffffffffffffff1614610785576040517f08c379a000000000000000000000000000000000000000000000000000000000815260040161077c906111b4565b60405180910390fd5b61078f6000610a7b565b565b60008060009054906101000a900473ffffffffffffffffffffffffffffffffffffffff16905090565b6107c2610a6c565b73ffffffffffffffffffffffffffffffffffffffff166107e0610791565b73ffffffffffffffffffffffffffffffffffffffff1614610836576040517f08c379a000000000000000000000000000000000000000000000000000000000815260040161082d906111b4565b60405180910390fd5b80600160006101000a81548173ffffffffffffffffffffffffffffffffffffffff021916908373ffffffffffffffffffffffffffffffffffffffff16021790555050565b610882610a6c565b73ffffffffffffffffffffffffffffffffffffffff166108a0610791565b73ffffffffffffffffffffffffffffffffffffffff16146108f6576040517f08c379a00000000000000000000000000000000000000000000000000000000081526004016108ed906111b4565b60405180910390fd5b80600260006101000a81548173ffffffffffffffffffffffffffffffffffffffff021916908373ffffffffffffffffffffffffffffffffffffffff16021790555050565b610942610a6c565b73ffffffffffffffffffffffffffffffffffffffff16610960610791565b73ffffffffffffffffffffffffffffffffffffffff16146109b6576040517f08c379a00000000000000000000000000000000000000000000000000000000081526004016109ad906111b4565b60405180910390fd5b600073ffffffffffffffffffffffffffffffffffffffff168173ffffffffffffffffffffffffffffffffffffffff161415610a26576040517f08c379a0000000000000000000000000000000000000000000000000000000008152600401610a1d90611246565b60405180910390fd5b610a2f81610a7b565b50565b6000610a3d336106af565b15610a5157601436033560601c9050610a60565b610a59610a64565b9050610a61565b5b90565b600033905090565b6000610a76610a32565b905090565b60008060009054906101000a900473ffffffffffffffffffffffffffffffffffffffff169050816000806101000a81548173ffffffffffffffffffffffffffffffffffffffff021916908373ffffffffffffffffffffffffffffffffffffffff1602179055508173ffffffffffffffffffffffffffffffffffffffff168173ffffffffffffffffffffffffffffffffffffffff167f8be0079c531659141344cd1fd0a4f28419497f9722a3daafe3b4186f6b6457e060405160405180910390a35050565b6000604051905090565b600080fd5b600080fd5b600073ffffffffffffffffffffffffffffffffffffffff82169050919050565b6000610b7e82610b53565b9050919050565b610b8e81610b73565b8114610b9957600080fd5b50565b600081359050610bab81610b85565b92915050565b6000819050919050565b610bc481610bb1565b8114610bcf57600080fd5b50565b600081359050610be181610bbb565b92915050565b600061ffff82169050919050565b610bfe81610be7565b8114610c0957600080fd5b50565b600081359050610c1b81610bf5565b92915050565b600080600060608486031215610c3a57610c39610b49565b5b6000610c4886828701610b9c565b9350506020610c5986828701610bd2565b9250506040610c6a86828701610c0c565b9150509250925092565b60008060408385031215610c8b57610c8a610b49565b5b6000610c9985828601610b9c565b9250506020610caa85828601610bd2565b9150509250929050565b600060208284031215610cca57610cc9610b49565b5b6000610cd884828501610b9c565b91505092915050565b60008115159050919050565b610cf681610ce1565b82525050565b6000602082019050610d116000830184610ced565b92915050565b610d2081610b73565b82525050565b6000602082019050610d3b6000830184610d17565b92915050565b600080fd5b6000601f19601f8301169050919050565b7f4e487b7100000000000000000000000000000000000000000000000000000000600052604160045260246000fd5b610d8f82610d46565b810181811067ffffffffffffffff82111715610dae57610dad610d57565b5b80604052505050565b6000610dc1610b3f565b9050610dcd8282610d86565b919050565b600067ffffffffffffffff821115610ded57610dec610d57565b5b602082029050602081019050919050565b600080fd5b600081519050610e1281610b85565b92915050565b6000610e2b610e2684610dd2565b610db7565b90508083825260208201905060208402830185811115610e4e57610e4d610dfe565b5b835b81811015610e775780610e638882610e03565b845260208401935050602081019050610e50565b5050509392505050565b600082601f830112610e9657610e95610d41565b5b8151610ea6848260208601610e18565b91505092915050565b600060208284031215610ec557610ec4610b49565b5b600082015167ffffffffffffffff811115610ee357610ee2610b4e565b5b610eef84828501610e81565b91505092915050565b7f4e487b7100000000000000000000000000000000000000000000000000000000600052601160045260246000fd5b6000610f3282610bb1565b9150610f3d83610bb1565b925082821015610f5057610f4f610ef8565b5b828203905092915050565b7f4e487b7100000000000000000000000000000000000000000000000000000000600052603260045260246000fd5b6000610f9582610be7565b9150610fa083610be7565b92508261ffff03821115610fb757610fb6610ef8565b5b828201905092915050565b610fcb81610bb1565b82525050565b6000606082019050610fe66000830186610d17565b610ff36020830185610d17565b6110006040830184610fc2565b949350505050565b61101181610ce1565b811461101c57600080fd5b50565b60008151905061102e81611008565b92915050565b60006020828403121561104a57611049610b49565b5b60006110588482850161101f565b91505092915050565b60006040820190506110766000830185610d17565b6110836020830184610fc2565b9392505050565b61109381610be7565b82525050565b60006080820190506110ae6000830187610d17565b6110bb6020830186610fc2565b6110c86040830185610d17565b6110d5606083018461108a565b95945050505050565b60006060820190506110f36000830186610d17565b6111006020830185610fc2565b61110d6040830184610d17565b949350505050565b60008151905061112481610bbb565b92915050565b6000602082840312156111405761113f610b49565b5b600061114e84828501611115565b91505092915050565b600082825260208201905092915050565b7f4f776e61626c653a2063616c6c6572206973206e6f7420746865206f776e6572600082015250565b600061119e602083611157565b91506111a982611168565b602082019050919050565b600060208201905081810360008301526111cd81611191565b9050919050565b7f4f776e61626c653a206e6577206f776e657220697320746865207a65726f206160008201527f6464726573730000000000000000000000000000000000000000000000000000602082015250565b6000611230602683611157565b915061123b826111d4565b604082019050919050565b6000602082019050818103600083015261125f81611223565b905091905056fea2646970667358221220405abe34cb2838705057c8fa11d0cbf2f962ebc396b011075f935e822eeff21964736f6c634300080a0033",
  "linkReferences": {},
  "deployedLinkReferences": {}
}