{
  "_format": "hh-sol-artifact-1",
  "contractName": "StableDebtToken",
  "sourceName": "contracts/Aave_Contracts/protocol/tokenization/StableDebtToken.sol",
  "abi": [
    {
      "inputs": [
        {
          "internalType": "contract IPool",
          "name": "pool",
          "type": "address"
        }
      ],
      "stateMutability": "nonpayable",
      "type": "constructor"
    },
    {
      "anonymous": false,
      "inputs": [
        {
          "indexed": true,
          "internalType": "address",
          "name": "owner",
          "type": "address"
        },
        {
          "indexed": true,
          "internalType": "address",
          "name": "spender",
          "type": "address"
        },
        {
          "indexed": false,
          "internalType": "uint256",
          "name": "value",
          "type": "uint256"
        }
      ],
      "name": "Approval",
      "type": "event"
    },
    {
      "anonymous": false,
      "inputs": [
        {
          "indexed": true,
          "internalType": "address",
          "name": "fromUser",
          "type": "address"
        },
        {
          "indexed": true,
          "internalType": "address",
          "name": "toUser",
          "type": "address"
        },
        {
          "indexed": true,
          "internalType": "address",
          "name": "asset",
          "type": "address"
        },
        {
          "indexed": false,
          "internalType": "uint256",
          "name": "amount",
          "type": "uint256"
        }
      ],
      "name": "BorrowAllowanceDelegated",
      "type": "event"
    },
    {
      "anonymous": false,
      "inputs": [
        {
          "indexed": true,
          "internalType": "address",
          "name": "from",
          "type": "address"
        },
        {
          "indexed": false,
          "internalType": "uint256",
          "name": "amount",
          "type": "uint256"
        },
        {
          "indexed": false,
          "internalType": "uint256",
          "name": "currentBalance",
          "type": "uint256"
        },
        {
          "indexed": false,
          "internalType": "uint256",
          "name": "balanceIncrease",
          "type": "uint256"
        },
        {
          "indexed": false,
          "internalType": "uint256",
          "name": "avgStableRate",
          "type": "uint256"
        },
        {
          "indexed": false,
          "internalType": "uint256",
          "name": "newTotalSupply",
          "type": "uint256"
        }
      ],
      "name": "Burn",
      "type": "event"
    },
    {
      "anonymous": false,
      "inputs": [
        {
          "indexed": true,
          "internalType": "address",
          "name": "underlyingAsset",
          "type": "address"
        },
        {
          "indexed": true,
          "internalType": "address",
          "name": "pool",
          "type": "address"
        },
        {
          "indexed": false,
          "internalType": "address",
          "name": "incentivesController",
          "type": "address"
        },
        {
          "indexed": false,
          "internalType": "uint8",
          "name": "debtTokenDecimals",
          "type": "uint8"
        },
        {
          "indexed": false,
          "internalType": "string",
          "name": "debtTokenName",
          "type": "string"
        },
        {
          "indexed": false,
          "internalType": "string",
          "name": "debtTokenSymbol",
          "type": "string"
        },
        {
          "indexed": false,
          "internalType": "bytes",
          "name": "params",
          "type": "bytes"
        }
      ],
      "name": "Initialized",
      "type": "event"
    },
    {
      "anonymous": false,
      "inputs": [
        {
          "indexed": true,
          "internalType": "address",
          "name": "user",
          "type": "address"
        },
        {
          "indexed": true,
          "internalType": "address",
          "name": "onBehalfOf",
          "type": "address"
        },
        {
          "indexed": false,
          "internalType": "uint256",
          "name": "amount",
          "type": "uint256"
        },
        {
          "indexed": false,
          "internalType": "uint256",
          "name": "currentBalance",
          "type": "uint256"
        },
        {
          "indexed": false,
          "internalType": "uint256",
          "name": "balanceIncrease",
          "type": "uint256"
        },
        {
          "indexed": false,
          "internalType": "uint256",
          "name": "newRate",
          "type": "uint256"
        },
        {
          "indexed": false,
          "internalType": "uint256",
          "name": "avgStableRate",
          "type": "uint256"
        },
        {
          "indexed": false,
          "internalType": "uint256",
          "name": "newTotalSupply",
          "type": "uint256"
        }
      ],
      "name": "Mint",
      "type": "event"
    },
    {
      "anonymous": false,
      "inputs": [
        {
          "indexed": true,
          "internalType": "address",
          "name": "from",
          "type": "address"
        },
        {
          "indexed": true,
          "internalType": "address",
          "name": "to",
          "type": "address"
        },
        {
          "indexed": false,
          "internalType": "uint256",
          "name": "value",
          "type": "uint256"
        }
      ],
      "name": "Transfer",
      "type": "event"
    },
    {
      "inputs": [],
      "name": "DEBT_TOKEN_REVISION",
      "outputs": [
        {
          "internalType": "uint256",
          "name": "",
          "type": "uint256"
        }
      ],
      "stateMutability": "view",
      "type": "function"
    },
    {
      "inputs": [],
      "name": "DELEGATION_WITH_SIG_TYPEHASH",
      "outputs": [
        {
          "internalType": "bytes32",
          "name": "",
          "type": "bytes32"
        }
      ],
      "stateMutability": "view",
      "type": "function"
    },
    {
      "inputs": [],
      "name": "DOMAIN_SEPARATOR",
      "outputs": [
        {
          "internalType": "bytes32",
          "name": "",
          "type": "bytes32"
        }
      ],
      "stateMutability": "view",
      "type": "function"
    },
    {
      "inputs": [],
      "name": "EIP712_REVISION",
      "outputs": [
        {
          "internalType": "bytes",
          "name": "",
          "type": "bytes"
        }
      ],
      "stateMutability": "view",
      "type": "function"
    },
    {
      "inputs": [],
      "name": "POOL",
      "outputs": [
        {
          "internalType": "contract IPool",
          "name": "",
          "type": "address"
        }
      ],
      "stateMutability": "view",
      "type": "function"
    },
    {
      "inputs": [],
      "name": "UNDERLYING_ASSET_ADDRESS",
      "outputs": [
        {
          "internalType": "address",
          "name": "",
          "type": "address"
        }
      ],
      "stateMutability": "view",
      "type": "function"
    },
    {
      "inputs": [
        {
          "internalType": "address",
          "name": "",
          "type": "address"
        },
        {
          "internalType": "address",
          "name": "",
          "type": "address"
        }
      ],
      "name": "allowance",
      "outputs": [
        {
          "internalType": "uint256",
          "name": "",
          "type": "uint256"
        }
      ],
      "stateMutability": "view",
      "type": "function"
    },
    {
      "inputs": [
        {
          "internalType": "address",
          "name": "",
          "type": "address"
        },
        {
          "internalType": "uint256",
          "name": "",
          "type": "uint256"
        }
      ],
      "name": "approve",
      "outputs": [
        {
          "internalType": "bool",
          "name": "",
          "type": "bool"
        }
      ],
      "stateMutability": "nonpayable",
      "type": "function"
    },
    {
      "inputs": [
        {
          "internalType": "address",
          "name": "delegatee",
          "type": "address"
        },
        {
          "internalType": "uint256",
          "name": "amount",
          "type": "uint256"
        }
      ],
      "name": "approveDelegation",
      "outputs": [],
      "stateMutability": "nonpayable",
      "type": "function"
    },
    {
      "inputs": [
        {
          "internalType": "address",
          "name": "account",
          "type": "address"
        }
      ],
      "name": "balanceOf",
      "outputs": [
        {
          "internalType": "uint256",
          "name": "",
          "type": "uint256"
        }
      ],
      "stateMutability": "view",
      "type": "function"
    },
    {
      "inputs": [
        {
          "internalType": "address",
          "name": "fromUser",
          "type": "address"
        },
        {
          "internalType": "address",
          "name": "toUser",
          "type": "address"
        }
      ],
      "name": "borrowAllowance",
      "outputs": [
        {
          "internalType": "uint256",
          "name": "",
          "type": "uint256"
        }
      ],
      "stateMutability": "view",
      "type": "function"
    },
    {
      "inputs": [
        {
          "internalType": "address",
          "name": "from",
          "type": "address"
        },
        {
          "internalType": "uint256",
          "name": "amount",
          "type": "uint256"
        }
      ],
      "name": "burn",
      "outputs": [
        {
          "internalType": "uint256",
          "name": "",
          "type": "uint256"
        },
        {
          "internalType": "uint256",
          "name": "",
          "type": "uint256"
        }
      ],
      "stateMutability": "nonpayable",
      "type": "function"
    },
    {
      "inputs": [],
      "name": "decimals",
      "outputs": [
        {
          "internalType": "uint8",
          "name": "",
          "type": "uint8"
        }
      ],
      "stateMutability": "view",
      "type": "function"
    },
    {
      "inputs": [
        {
          "internalType": "address",
          "name": "",
          "type": "address"
        },
        {
          "internalType": "uint256",
          "name": "",
          "type": "uint256"
        }
      ],
      "name": "decreaseAllowance",
      "outputs": [
        {
          "internalType": "bool",
          "name": "",
          "type": "bool"
        }
      ],
      "stateMutability": "nonpayable",
      "type": "function"
    },
    {
      "inputs": [
        {
          "internalType": "address",
          "name": "delegator",
          "type": "address"
        },
        {
          "internalType": "address",
          "name": "delegatee",
          "type": "address"
        },
        {
          "internalType": "uint256",
          "name": "value",
          "type": "uint256"
        },
        {
          "internalType": "uint256",
          "name": "deadline",
          "type": "uint256"
        },
        {
          "internalType": "uint8",
          "name": "v",
          "type": "uint8"
        },
        {
          "internalType": "bytes32",
          "name": "r",
          "type": "bytes32"
        },
        {
          "internalType": "bytes32",
          "name": "s",
          "type": "bytes32"
        }
      ],
      "name": "delegationWithSig",
      "outputs": [],
      "stateMutability": "nonpayable",
      "type": "function"
    },
    {
      "inputs": [],
      "name": "getAverageStableRate",
      "outputs": [
        {
          "internalType": "uint256",
          "name": "",
          "type": "uint256"
        }
      ],
      "stateMutability": "view",
      "type": "function"
    },
    {
      "inputs": [],
      "name": "getIncentivesController",
      "outputs": [
        {
          "internalType": "contract IAaveIncentivesController",
          "name": "",
          "type": "address"
        }
      ],
      "stateMutability": "view",
      "type": "function"
    },
    {
      "inputs": [],
      "name": "getSupplyData",
      "outputs": [
        {
          "internalType": "uint256",
          "name": "",
          "type": "uint256"
        },
        {
          "internalType": "uint256",
          "name": "",
          "type": "uint256"
        },
        {
          "internalType": "uint256",
          "name": "",
          "type": "uint256"
        },
        {
          "internalType": "uint40",
          "name": "",
          "type": "uint40"
        }
      ],
      "stateMutability": "view",
      "type": "function"
    },
    {
      "inputs": [],
      "name": "getTotalSupplyAndAvgRate",
      "outputs": [
        {
          "internalType": "uint256",
          "name": "",
          "type": "uint256"
        },
        {
          "internalType": "uint256",
          "name": "",
          "type": "uint256"
        }
      ],
      "stateMutability": "view",
      "type": "function"
    },
    {
      "inputs": [],
      "name": "getTotalSupplyLastUpdated",
      "outputs": [
        {
          "internalType": "uint40",
          "name": "",
          "type": "uint40"
        }
      ],
      "stateMutability": "view",
      "type": "function"
    },
    {
      "inputs": [
        {
          "internalType": "address",
          "name": "user",
          "type": "address"
        }
      ],
      "name": "getUserLastUpdated",
      "outputs": [
        {
          "internalType": "uint40",
          "name": "",
          "type": "uint40"
        }
      ],
      "stateMutability": "view",
      "type": "function"
    },
    {
      "inputs": [
        {
          "internalType": "address",
          "name": "user",
          "type": "address"
        }
      ],
      "name": "getUserStableRate",
      "outputs": [
        {
          "internalType": "uint256",
          "name": "",
          "type": "uint256"
        }
      ],
      "stateMutability": "view",
      "type": "function"
    },
    {
      "inputs": [
        {
          "internalType": "address",
          "name": "",
          "type": "address"
        },
        {
          "internalType": "uint256",
          "name": "",
          "type": "uint256"
        }
      ],
      "name": "increaseAllowance",
      "outputs": [
        {
          "internalType": "bool",
          "name": "",
          "type": "bool"
        }
      ],
      "stateMutability": "nonpayable",
      "type": "function"
    },
    {
      "inputs": [
        {
          "internalType": "contract IPool",
          "name": "initializingPool",
          "type": "address"
        },
        {
          "internalType": "address",
          "name": "underlyingAsset",
          "type": "address"
        },
        {
          "internalType": "contract IAaveIncentivesController",
          "name": "incentivesController",
          "type": "address"
        },
        {
          "internalType": "uint8",
          "name": "debtTokenDecimals",
          "type": "uint8"
        },
        {
          "internalType": "string",
          "name": "debtTokenName",
          "type": "string"
        },
        {
          "internalType": "string",
          "name": "debtTokenSymbol",
          "type": "string"
        },
        {
          "internalType": "bytes",
          "name": "params",
          "type": "bytes"
        }
      ],
      "name": "initialize",
      "outputs": [],
      "stateMutability": "nonpayable",
      "type": "function"
    },
    {
      "inputs": [
        {
          "internalType": "address",
          "name": "user",
          "type": "address"
        },
        {
          "internalType": "address",
          "name": "onBehalfOf",
          "type": "address"
        },
        {
          "internalType": "uint256",
          "name": "amount",
          "type": "uint256"
        },
        {
          "internalType": "uint256",
          "name": "rate",
          "type": "uint256"
        }
      ],
      "name": "mint",
      "outputs": [
        {
          "internalType": "bool",
          "name": "",
          "type": "bool"
        },
        {
          "internalType": "uint256",
          "name": "",
          "type": "uint256"
        },
        {
          "internalType": "uint256",
          "name": "",
          "type": "uint256"
        }
      ],
      "stateMutability": "nonpayable",
      "type": "function"
    },
    {
      "inputs": [],
      "name": "name",
      "outputs": [
        {
          "internalType": "string",
          "name": "",
          "type": "string"
        }
      ],
      "stateMutability": "view",
      "type": "function"
    },
    {
      "inputs": [
        {
          "internalType": "address",
          "name": "owner",
          "type": "address"
        }
      ],
      "name": "nonces",
      "outputs": [
        {
          "internalType": "uint256",
          "name": "",
          "type": "uint256"
        }
      ],
      "stateMutability": "view",
      "type": "function"
    },
    {
      "inputs": [
        {
          "internalType": "address",
          "name": "user",
          "type": "address"
        }
      ],
      "name": "principalBalanceOf",
      "outputs": [
        {
          "internalType": "uint256",
          "name": "",
          "type": "uint256"
        }
      ],
      "stateMutability": "view",
      "type": "function"
    },
    {
      "inputs": [
        {
          "internalType": "contract IAaveIncentivesController",
          "name": "controller",
          "type": "address"
        }
      ],
      "name": "setIncentivesController",
      "outputs": [],
      "stateMutability": "nonpayable",
      "type": "function"
    },
    {
      "inputs": [],
      "name": "symbol",
      "outputs": [
        {
          "internalType": "string",
          "name": "",
          "type": "string"
        }
      ],
      "stateMutability": "view",
      "type": "function"
    },
    {
      "inputs": [],
      "name": "totalSupply",
      "outputs": [
        {
          "internalType": "uint256",
          "name": "",
          "type": "uint256"
        }
      ],
      "stateMutability": "view",
      "type": "function"
    },
    {
      "inputs": [
        {
          "internalType": "address",
          "name": "",
          "type": "address"
        },
        {
          "internalType": "uint256",
          "name": "",
          "type": "uint256"
        }
      ],
      "name": "transfer",
      "outputs": [
        {
          "internalType": "bool",
          "name": "",
          "type": "bool"
        }
      ],
      "stateMutability": "nonpayable",
      "type": "function"
    },
    {
      "inputs": [
        {
          "internalType": "address",
          "name": "",
          "type": "address"
        },
        {
          "internalType": "address",
          "name": "",
          "type": "address"
        },
        {
          "internalType": "uint256",
          "name": "",
          "type": "uint256"
        }
      ],
      "name": "transferFrom",
      "outputs": [
        {
          "internalType": "bool",
          "name": "",
          "type": "bool"
        }
      ],
      "stateMutability": "nonpayable",
      "type": "function"
    }
  ],
  "bytecode": "0x60e0604052600080553480156200001557600080fd5b50604051620046593803806200465983398181016040528101906200003b919062000311565b806040518060400160405280601681526020017f535441424c455f444542545f544f4b454e5f494d504c000000000000000000008152506040518060400160405280601681526020017f535441424c455f444542545f544f4b454e5f494d504c00000000000000000000815250600046608081815250508373ffffffffffffffffffffffffffffffffffffffff16630542975c6040518163ffffffff1660e01b8152600401602060405180830381865afa158015620000fe573d6000803e3d6000fd5b505050506040513d601f19601f8201168201806040525081019062000124919062000388565b73ffffffffffffffffffffffffffffffffffffffff1660a08173ffffffffffffffffffffffffffffffffffffffff168152505082603b90805190602001906200016f929190620001e3565b5081603c908051906020019062000188929190620001e3565b5080603d60006101000a81548160ff021916908360ff1602179055508373ffffffffffffffffffffffffffffffffffffffff1660c08173ffffffffffffffffffffffffffffffffffffffff168152505050505050506200041f565b828054620001f190620003e9565b90600052602060002090601f01602090048101928262000215576000855562000261565b82601f106200023057805160ff191683800117855562000261565b8280016001018555821562000261579182015b828111156200026057825182559160200191906001019062000243565b5b50905062000270919062000274565b5090565b5b808211156200028f57600081600090555060010162000275565b5090565b600080fd5b600073ffffffffffffffffffffffffffffffffffffffff82169050919050565b6000620002c58262000298565b9050919050565b6000620002d982620002b8565b9050919050565b620002eb81620002cc565b8114620002f757600080fd5b50565b6000815190506200030b81620002e0565b92915050565b6000602082840312156200032a576200032962000293565b5b60006200033a84828501620002fa565b91505092915050565b60006200035082620002b8565b9050919050565b620003628162000343565b81146200036e57600080fd5b50565b600081519050620003828162000357565b92915050565b600060208284031215620003a157620003a062000293565b5b6000620003b18482850162000371565b91505092915050565b7f4e487b7100000000000000000000000000000000000000000000000000000000600052602260045260246000fd5b600060028204905060018216806200040257607f821691505b60208210811415620004195762000418620003ba565b5b50919050565b60805160a05160c0516141ee6200046b60003960008181610e42015281816110a90152818161182301528181611e5e0152611fd00152600061211501526000610bf401526141ee6000f3fe608060405234801561001057600080fd5b50600436106101fb5760003560e01c806390f6fcf21161011a578063c04a8a10116100ad578063e655dbd81161007c578063e655dbd814610632578063e74848901461064e578063e78c9b3b1461066c578063f3bfc7381461069c578063f731e9be146106ba576101fb565b8063c04a8a101461059a578063c222ec8a146105b6578063c634dfaa146105d2578063dd62ed3e14610602576101fb565b8063a9059cbb116100e9578063a9059cbb146104fc578063b16a19de1461052c578063b3f1c93d1461054a578063b9a7b6221461057c576101fb565b806390f6fcf21461045f57806395d89b411461047d5780639dc29fac1461049b578063a457c2d7146104cc576101fb565b80636bd76d2411610192578063781603761161016157806378160376146103c057806379774338146103de57806379ce6b8c146103ff5780637ecebe001461042f576101fb565b80636bd76d241461032457806370a08231146103545780637535d2461461038457806375d26413146103a2576101fb565b806323b872dd116101ce57806323b872dd14610288578063313ce567146102b85780633644e515146102d657806339509351146102f4576101fb565b806306fdde0314610200578063095ea7b31461021e5780630b52d5581461024e57806318160ddd1461026a575b600080fd5b6102086106d9565b60405161021591906130dd565b60405180910390f35b610238600480360381019061023391906131a7565b61076b565b6040516102459190613202565b60405180910390f35b6102686004803603810190610263919061328c565b6107df565b005b610272610b25565b60405161027f919061333d565b60405180910390f35b6102a2600480360381019061029d9190613358565b610b65565b6040516102af9190613202565b60405180910390f35b6102c0610bd9565b6040516102cd91906133ba565b60405180910390f35b6102de610bf0565b6040516102eb91906133e4565b60405180910390f35b61030e600480360381019061030991906131a7565b610c32565b60405161031b9190613202565b60405180910390f35b61033e600480360381019061033991906133ff565b610ca6565b60405161034b919061333d565b60405180910390f35b61036e6004803603810190610369919061343f565b610d2d565b60405161037b919061333d565b60405180910390f35b61038c610e40565b60405161039991906134cb565b60405180910390f35b6103aa610e64565b6040516103b79190613507565b60405180910390f35b6103c8610e8e565b6040516103d59190613577565b60405180910390f35b6103e6610ec7565b6040516103f694939291906135b9565b60405180910390f35b6104196004803603810190610414919061343f565b610f37565b60405161042691906135fe565b60405180910390f35b6104496004803603810190610444919061343f565b610f91565b604051610456919061333d565b60405180910390f35b610467610fda565b604051610474919061333d565b60405180910390f35b610485611012565b60405161049291906130dd565b60405180910390f35b6104b560048036038101906104b091906131a7565b6110a4565b6040516104c3929190613619565b60405180910390f35b6104e660048036038101906104e191906131a7565b61170a565b6040516104f39190613202565b60405180910390f35b610516600480360381019061051191906131a7565b61177e565b6040516105239190613202565b60405180910390f35b6105346117f2565b6040516105419190613651565b60405180910390f35b610564600480360381019061055f919061366c565b61181c565b604051610573939291906136d3565b60405180910390f35b610584611d8e565b604051610591919061333d565b60405180910390f35b6105b460048036038101906105af91906131a7565b611d93565b005b6105d060048036038101906105cb919061391b565b611da9565b005b6105ec60048036038101906105e7919061343f565b61208b565b6040516105f9919061333d565b60405180910390f35b61061c600480360381019061061791906133ff565b61209d565b604051610629919061333d565b60405180910390f35b61064c60048036038101906106479190613a15565b612111565b005b6106566122db565b60405161066391906135fe565b60405180910390f35b6106866004803603810190610681919061343f565b6122f6565b604051610693919061333d565b60405180910390f35b6106a4612370565b6040516106b191906133e4565b60405180910390f35b6106c2612394565b6040516106d0929190613619565b60405180910390f35b6060603b80546106e890613a71565b80601f016020809104026020016040519081016040528092919081815260200182805461071490613a71565b80156107615780601f1061073657610100808354040283529160200191610761565b820191906000526020600020905b81548152906001019060200180831161074457829003601f168201915b5050505050905090565b60006040518060400160405280600281526020017f38300000000000000000000000000000000000000000000000000000000000008152506040517f08c379a00000000000000000000000000000000000000000000000000000000081526004016107d691906130dd565b60405180910390fd5b600073ffffffffffffffffffffffffffffffffffffffff168773ffffffffffffffffffffffffffffffffffffffff1614156040518060400160405280600281526020017f373700000000000000000000000000000000000000000000000000000000000081525090610887576040517f08c379a000000000000000000000000000000000000000000000000000000000815260040161087e91906130dd565b60405180910390fd5b50834211156040518060400160405280600281526020017f373800000000000000000000000000000000000000000000000000000000000081525090610903576040517f08c379a00000000000000000000000000000000000000000000000000000000081526004016108fa91906130dd565b60405180910390fd5b506000603460008973ffffffffffffffffffffffffffffffffffffffff1673ffffffffffffffffffffffffffffffffffffffff1681526020019081526020016000205490506000610952610bf0565b7f323db0410fecc107e39e2af5908671f4c8d106123b35a51501bb805c5fa36aa08989858a60405160200161098b959493929190613aa3565b604051602081830303815290604052805190602001206040516020016109b2929190613b6e565b604051602081830303815290604052805190602001209050600181868686604051600081526020016040526040516109ed9493929190613ba5565b6020604051602081039080840390855afa158015610a0f573d6000803e3d6000fd5b5050506020604051035173ffffffffffffffffffffffffffffffffffffffff168973ffffffffffffffffffffffffffffffffffffffff16146040518060400160405280600281526020017f373900000000000000000000000000000000000000000000000000000000000081525090610abe576040517f08c379a0000000000000000000000000000000000000000000000000000000008152600401610ab591906130dd565b60405180910390fd5b50600182610acc9190613c19565b603460008b73ffffffffffffffffffffffffffffffffffffffff1673ffffffffffffffffffffffffffffffffffffffff16815260200190815260200160002081905550610b1a8989896123df565b505050505050505050565b6000610b60603f60009054906101000a90046fffffffffffffffffffffffffffffffff166fffffffffffffffffffffffffffffffff16612503565b905090565b60006040518060400160405280600281526020017f38300000000000000000000000000000000000000000000000000000000000008152506040517f08c379a0000000000000000000000000000000000000000000000000000000008152600401610bd091906130dd565b60405180910390fd5b6000603d60009054906101000a900460ff16905090565b60007f0000000000000000000000000000000000000000000000000000000000000000461415610c24576035549050610c2f565b610c2c612561565b90505b90565b60006040518060400160405280600281526020017f38300000000000000000000000000000000000000000000000000000000000008152506040517f08c379a0000000000000000000000000000000000000000000000000000000008152600401610c9d91906130dd565b60405180910390fd5b6000603660008473ffffffffffffffffffffffffffffffffffffffff1673ffffffffffffffffffffffffffffffffffffffff16815260200190815260200160002060008373ffffffffffffffffffffffffffffffffffffffff1673ffffffffffffffffffffffffffffffffffffffff16815260200190815260200160002054905092915050565b600080610d3983612601565b90506000603860008573ffffffffffffffffffffffffffffffffffffffff1673ffffffffffffffffffffffffffffffffffffffff16815260200190815260200160002060000160109054906101000a90046fffffffffffffffffffffffffffffffff166fffffffffffffffffffffffffffffffff1690506000821415610dc457600092505050610e3b565b6000610e2082603e60008873ffffffffffffffffffffffffffffffffffffffff1673ffffffffffffffffffffffffffffffffffffffff16815260200190815260200160002060009054906101000a900464ffffffffff1661267b565b9050610e35818461269090919063ffffffff16565b93505050505b919050565b7f000000000000000000000000000000000000000000000000000000000000000081565b6000603d60019054906101000a900473ffffffffffffffffffffffffffffffffffffffff16905090565b6040518060400160405280600181526020017f310000000000000000000000000000000000000000000000000000000000000081525081565b6000806000806000603f60009054906101000a90046fffffffffffffffffffffffffffffffff166fffffffffffffffffffffffffffffffff169050610f0a6126db565b610f1382612503565b82603f60109054906101000a900464ffffffffff1694509450945094505090919293565b6000603e60008373ffffffffffffffffffffffffffffffffffffffff1673ffffffffffffffffffffffffffffffffffffffff16815260200190815260200160002060009054906101000a900464ffffffffff169050919050565b6000603460008373ffffffffffffffffffffffffffffffffffffffff1673ffffffffffffffffffffffffffffffffffffffff168152602001908152602001600020549050919050565b6000603f60009054906101000a90046fffffffffffffffffffffffffffffffff166fffffffffffffffffffffffffffffffff16905090565b6060603c805461102190613a71565b80601f016020809104026020016040519081016040528092919081815260200182805461104d90613a71565b801561109a5780601f1061106f5761010080835404028352916020019161109a565b820191906000526020600020905b81548152906001019060200180831161107d57829003601f168201915b5050505050905090565b6000807f000000000000000000000000000000000000000000000000000000000000000073ffffffffffffffffffffffffffffffffffffffff166110e66126e5565b73ffffffffffffffffffffffffffffffffffffffff16146040518060400160405280600281526020017f323300000000000000000000000000000000000000000000000000000000000081525090611174576040517f08c379a000000000000000000000000000000000000000000000000000000000815260040161116b91906130dd565b60405180910390fd5b50600080611181866126ed565b92509250506000611190610b25565b90506000806000603860008b73ffffffffffffffffffffffffffffffffffffffff1673ffffffffffffffffffffffffffffffffffffffff16815260200190815260200160002060000160109054906101000a90046fffffffffffffffffffffffffffffffff166fffffffffffffffffffffffffffffffff169050888411611258576000603f60006101000a8154816fffffffffffffffffffffffffffffffff02191690836fffffffffffffffffffffffffffffffff1602179055506000603a819055506113b4565b88846112649190613c6f565b603a819055915060006112b861127986612743565b603f60009054906101000a90046fffffffffffffffffffffffffffffffff166fffffffffffffffffffffffffffffffff1661269090919063ffffffff16565b905060006112d76112c88c612743565b8461269090919063ffffffff16565b9050818110611337576000603f60006101000a8154816fffffffffffffffffffffffffffffffff02191690836fffffffffffffffffffffffffffffffff16021790556fffffffffffffffffffffffffffffffff16603a81905594506113b1565b61136561136061134686612743565b83856113529190613c6f565b61276590919063ffffffff16565b6127ac565b603f60006101000a8154816fffffffffffffffffffffffffffffffff02191690836fffffffffffffffffffffffffffffffff16021790556fffffffffffffffffffffffffffffffff1694505b50505b8589141561149c576000603860008c73ffffffffffffffffffffffffffffffffffffffff1673ffffffffffffffffffffffffffffffffffffffff16815260200190815260200160002060000160106101000a8154816fffffffffffffffffffffffffffffffff02191690836fffffffffffffffffffffffffffffffff1602179055506000603e60008c73ffffffffffffffffffffffffffffffffffffffff1673ffffffffffffffffffffffffffffffffffffffff16815260200190815260200160002060006101000a81548164ffffffffff021916908364ffffffffff1602179055506114fd565b42603e60008c73ffffffffffffffffffffffffffffffffffffffff1673ffffffffffffffffffffffffffffffffffffffff16815260200190815260200160002060006101000a81548164ffffffffff021916908364ffffffffff1602179055505b42603f60106101000a81548164ffffffffff021916908364ffffffffff1602179055508885111561161e57600089866115369190613c6f565b90506115438b828761280b565b8a73ffffffffffffffffffffffffffffffffffffffff16600073ffffffffffffffffffffffffffffffffffffffff167fddf252ad1be2c89b69c2b068fc378daa952ba7f163c4a11628f55a4df523b3ef836040516115a1919061333d565b60405180910390a38a73ffffffffffffffffffffffffffffffffffffffff168b73ffffffffffffffffffffffffffffffffffffffff167fc16f4e4ca34d790de4c656c72fd015c667d688f20be64eea360618545c4c530f838a8a878a8a60405161161096959493929190613ca3565b60405180910390a3506116f7565b6000858a61162c9190613c6f565b90506116398b82876129ee565b600073ffffffffffffffffffffffffffffffffffffffff168b73ffffffffffffffffffffffffffffffffffffffff167fddf252ad1be2c89b69c2b068fc378daa952ba7f163c4a11628f55a4df523b3ef83604051611697919061333d565b60405180910390a38a73ffffffffffffffffffffffffffffffffffffffff167f44bd20a79e993bdcc7cbedf54a3b4d19fb78490124b6b90d04fe3242eea579e882898988886040516116ed959493929190613d04565b60405180910390a2505b8183975097505050505050509250929050565b60006040518060400160405280600281526020017f38300000000000000000000000000000000000000000000000000000000000008152506040517f08c379a000000000000000000000000000000000000000000000000000000000815260040161177591906130dd565b60405180910390fd5b60006040518060400160405280600281526020017f38300000000000000000000000000000000000000000000000000000000000008152506040517f08c379a00000000000000000000000000000000000000000000000000000000081526004016117e991906130dd565b60405180910390fd5b6000603760009054906101000a900473ffffffffffffffffffffffffffffffffffffffff16905090565b60008060007f000000000000000000000000000000000000000000000000000000000000000073ffffffffffffffffffffffffffffffffffffffff166118606126e5565b73ffffffffffffffffffffffffffffffffffffffff16146040518060400160405280600281526020017f3233000000000000000000000000000000000000000000000000000000000000815250906118ee576040517f08c379a00000000000000000000000000000000000000000000000000000000081526004016118e591906130dd565b60405180910390fd5b506118f7612f6b565b8673ffffffffffffffffffffffffffffffffffffffff168873ffffffffffffffffffffffffffffffffffffffff161461193657611935878988612bd1565b5b600080611942896126ed565b925092505061194f610b25565b836000018181525050603f60009054906101000a90046fffffffffffffffffffffffffffffffff166fffffffffffffffffffffffffffffffff168360a00181815250508783600001516119a29190613c19565b603a8190558360200181815250506119b988612743565b836040018181525050603860008a73ffffffffffffffffffffffffffffffffffffffff1673ffffffffffffffffffffffffffffffffffffffff16815260200190815260200160002060000160109054906101000a90046fffffffffffffffffffffffffffffffff166fffffffffffffffffffffffffffffffff16836060018181525050611aa1611a538984611a4e9190613c19565b612743565b611a6a89866040015161269090919063ffffffff16565b611a89611a7686612743565b876060015161269090919063ffffffff16565b611a939190613c19565b61276590919063ffffffff16565b836080018181525050611ab783608001516127ac565b603860008b73ffffffffffffffffffffffffffffffffffffffff1673ffffffffffffffffffffffffffffffffffffffff16815260200190815260200160002060000160106101000a8154816fffffffffffffffffffffffffffffffff02191690836fffffffffffffffffffffffffffffffff16021790555042603e60008b73ffffffffffffffffffffffffffffffffffffffff1673ffffffffffffffffffffffffffffffffffffffff16815260200190815260200160002060006101000a81548164ffffffffff021916908364ffffffffff1602179055603f60106101000a81548164ffffffffff021916908364ffffffffff160217905550611c1a611c15611bc38560200151612743565b611bda86604001518b61269090919063ffffffff16565b611bfd611bea8860000151612743565b8860a0015161269090919063ffffffff16565b611c079190613c19565b61276590919063ffffffff16565b6127ac565b603f60006101000a8154816fffffffffffffffffffffffffffffffff02191690836fffffffffffffffffffffffffffffffff16021790556fffffffffffffffffffffffffffffffff168360a001818152505060008189611c7a9190613c19565b9050611c8b8a82866000015161280b565b8973ffffffffffffffffffffffffffffffffffffffff16600073ffffffffffffffffffffffffffffffffffffffff167fddf252ad1be2c89b69c2b068fc378daa952ba7f163c4a11628f55a4df523b3ef83604051611ce9919061333d565b60405180910390a38973ffffffffffffffffffffffffffffffffffffffff168b73ffffffffffffffffffffffffffffffffffffffff167fc16f4e4ca34d790de4c656c72fd015c667d688f20be64eea360618545c4c530f83868689608001518a60a001518b60200151604051611d6496959493929190613ca3565b60405180910390a36000831484602001518560a00151965096509650505050509450945094915050565b600181565b611da5611d9e6126e5565b83836123df565b5050565b6000611db3612d82565b9050600160009054906101000a900460ff1680611dd45750611dd3612d8b565b5b80611de0575060005481115b611e1f576040517f08c379a0000000000000000000000000000000000000000000000000000000008152600401611e1690613dc9565b60405180910390fd5b6000600160009054906101000a900460ff161590508015611e5c5760018060006101000a81548160ff021916908315150217905550816000819055505b7f000000000000000000000000000000000000000000000000000000000000000073ffffffffffffffffffffffffffffffffffffffff168a73ffffffffffffffffffffffffffffffffffffffff16146040518060400160405280600281526020017f383700000000000000000000000000000000000000000000000000000000000081525090611f22576040517f08c379a0000000000000000000000000000000000000000000000000000000008152600401611f1991906130dd565b60405180910390fd5b50611f2c86612d9c565b611f3585612db6565b611f3e87612dd0565b88603760006101000a81548173ffffffffffffffffffffffffffffffffffffffff021916908373ffffffffffffffffffffffffffffffffffffffff16021790555087603d60016101000a81548173ffffffffffffffffffffffffffffffffffffffff021916908373ffffffffffffffffffffffffffffffffffffffff160217905550611fc8612561565b6035819055507f000000000000000000000000000000000000000000000000000000000000000073ffffffffffffffffffffffffffffffffffffffff168973ffffffffffffffffffffffffffffffffffffffff167f40251fbfb6656cfa65a00d7879029fec1fad21d28fdcff2f4f68f52795b74f2c8a8a8a8a8a8a60405161205596959493929190613e16565b60405180910390a3801561207f576000600160006101000a81548160ff0219169083151502179055505b50505050505050505050565b600061209682612601565b9050919050565b60006040518060400160405280600281526020017f38300000000000000000000000000000000000000000000000000000000000008152506040517f08c379a000000000000000000000000000000000000000000000000000000000815260040161210891906130dd565b60405180910390fd5b60007f000000000000000000000000000000000000000000000000000000000000000073ffffffffffffffffffffffffffffffffffffffff1663707cd7166040518163ffffffff1660e01b8152600401602060405180830381865afa15801561217e573d6000803e3d6000fd5b505050506040513d601f19601f820116820180604052508101906121a29190613e95565b90508073ffffffffffffffffffffffffffffffffffffffff16637be53ca1336040518263ffffffff1660e01b81526004016121dd9190613651565b602060405180830381865afa1580156121fa573d6000803e3d6000fd5b505050506040513d601f19601f8201168201806040525081019061221e9190613eee565b6040518060400160405280600181526020017f310000000000000000000000000000000000000000000000000000000000000081525090612295576040517f08c379a000000000000000000000000000000000000000000000000000000000815260040161228c91906130dd565b60405180910390fd5b5081603d60016101000a81548173ffffffffffffffffffffffffffffffffffffffff021916908373ffffffffffffffffffffffffffffffffffffffff1602179055505050565b6000603f60109054906101000a900464ffffffffff16905090565b6000603860008373ffffffffffffffffffffffffffffffffffffffff1673ffffffffffffffffffffffffffffffffffffffff16815260200190815260200160002060000160109054906101000a90046fffffffffffffffffffffffffffffffff166fffffffffffffffffffffffffffffffff169050919050565b7f323db0410fecc107e39e2af5908671f4c8d106123b35a51501bb805c5fa36aa081565b6000806000603f60009054906101000a90046fffffffffffffffffffffffffffffffff166fffffffffffffffffffffffffffffffff1690506123d581612503565b8192509250509091565b80603660008573ffffffffffffffffffffffffffffffffffffffff1673ffffffffffffffffffffffffffffffffffffffff16815260200190815260200160002060008473ffffffffffffffffffffffffffffffffffffffff1673ffffffffffffffffffffffffffffffffffffffff16815260200190815260200160002081905550603760009054906101000a900473ffffffffffffffffffffffffffffffffffffffff1673ffffffffffffffffffffffffffffffffffffffff168273ffffffffffffffffffffffffffffffffffffffff168473ffffffffffffffffffffffffffffffffffffffff167fda919360433220e13b51e8c211e490d148e61a3bd53de8c097194e458b97f3e1846040516124f6919061333d565b60405180910390a4505050565b60008061250e6126db565b9050600081141561252357600091505061255c565b600061254284603f60109054906101000a900464ffffffffff1661267b565b9050612557818361269090919063ffffffff16565b925050505b919050565b60007f8b73c3c69bb8fe3d512ecc4cf759cc79239f7b179b0ffacaa9a75d522b39400f61258c612dee565b805190602001206040518060400160405280600181526020017f31000000000000000000000000000000000000000000000000000000000000008152508051906020012046306040516020016125e6959493929190613f1b565b60405160208183030381529060405280519060200120905090565b6000603860008373ffffffffffffffffffffffffffffffffffffffff1673ffffffffffffffffffffffffffffffffffffffff16815260200190815260200160002060000160009054906101000a90046fffffffffffffffffffffffffffffffff166fffffffffffffffffffffffffffffffff169050919050565b6000612688838342612dfd565b905092915050565b6000816b019d971e4fe8401e7400000060001903048311158215176126b457600080fd5b6b033b2e3c9fd0803ce80000006b019d971e4fe8401e740000008385020104905092915050565b6000603a54905090565b600033905090565b6000806000806126fc85612601565b905060008114156127185760008060009350935093505061273c565b600061272386610d2d565b9050818183836127339190613c6f565b94509450945050505b9193909250565b6000633b9aca008202905081633b9aca0082041461276057600080fd5b919050565b60006b033b2e3c9fd0803ce8000000600283046000190304831115158215171561278e57600080fd5b81600283046b033b2e3c9fd0803ce800000085020104905092915050565b60006fffffffffffffffffffffffffffffffff8016821115612803576040517f08c379a00000000000000000000000000000000000000000000000000000000081526004016127fa90613fe0565b60405180910390fd5b819050919050565b6000612816836127ac565b90506000603860008673ffffffffffffffffffffffffffffffffffffffff1673ffffffffffffffffffffffffffffffffffffffff16815260200190815260200160002060000160009054906101000a90046fffffffffffffffffffffffffffffffff1690508181612887919061401c565b603860008773ffffffffffffffffffffffffffffffffffffffff1673ffffffffffffffffffffffffffffffffffffffff16815260200190815260200160002060000160006101000a8154816fffffffffffffffffffffffffffffffff02191690836fffffffffffffffffffffffffffffffff160217905550600073ffffffffffffffffffffffffffffffffffffffff16603d60019054906101000a900473ffffffffffffffffffffffffffffffffffffffff1673ffffffffffffffffffffffffffffffffffffffff16146129e757603d60019054906101000a900473ffffffffffffffffffffffffffffffffffffffff1673ffffffffffffffffffffffffffffffffffffffff166331873e2e8685846040518463ffffffff1660e01b81526004016129b493929190614093565b600060405180830381600087803b1580156129ce57600080fd5b505af11580156129e2573d6000803e3d6000fd5b505050505b5050505050565b60006129f9836127ac565b90506000603860008673ffffffffffffffffffffffffffffffffffffffff1673ffffffffffffffffffffffffffffffffffffffff16815260200190815260200160002060000160009054906101000a90046fffffffffffffffffffffffffffffffff1690508181612a6a91906140ca565b603860008773ffffffffffffffffffffffffffffffffffffffff1673ffffffffffffffffffffffffffffffffffffffff16815260200190815260200160002060000160006101000a8154816fffffffffffffffffffffffffffffffff02191690836fffffffffffffffffffffffffffffffff160217905550600073ffffffffffffffffffffffffffffffffffffffff16603d60019054906101000a900473ffffffffffffffffffffffffffffffffffffffff1673ffffffffffffffffffffffffffffffffffffffff1614612bca57603d60019054906101000a900473ffffffffffffffffffffffffffffffffffffffff1673ffffffffffffffffffffffffffffffffffffffff166331873e2e8685846040518463ffffffff1660e01b8152600401612b9793929190614093565b600060405180830381600087803b158015612bb157600080fd5b505af1158015612bc5573d6000803e3d6000fd5b505050505b5050505050565b600081603660008673ffffffffffffffffffffffffffffffffffffffff1673ffffffffffffffffffffffffffffffffffffffff16815260200190815260200160002060008573ffffffffffffffffffffffffffffffffffffffff1673ffffffffffffffffffffffffffffffffffffffff16815260200190815260200160002054612c5b9190613c6f565b905080603660008673ffffffffffffffffffffffffffffffffffffffff1673ffffffffffffffffffffffffffffffffffffffff16815260200190815260200160002060008573ffffffffffffffffffffffffffffffffffffffff1673ffffffffffffffffffffffffffffffffffffffff16815260200190815260200160002081905550603760009054906101000a900473ffffffffffffffffffffffffffffffffffffffff1673ffffffffffffffffffffffffffffffffffffffff168373ffffffffffffffffffffffffffffffffffffffff168573ffffffffffffffffffffffffffffffffffffffff167fda919360433220e13b51e8c211e490d148e61a3bd53de8c097194e458b97f3e184604051612d74919061333d565b60405180910390a450505050565b60006001905090565b600080303b90506000811491505090565b80603b9080519060200190612db2929190612fa1565b5050565b80603c9080519060200190612dcc929190612fa1565b5050565b80603d60006101000a81548160ff021916908360ff16021790555050565b6060612df86106d9565b905090565b6000808364ffffffffff1683612e139190613c6f565b90506000811415612e33576b033b2e3c9fd0803ce8000000915050612f64565b60008060008060018503935060028511612e4e576000612e53565b600285035b92506301e133808002612e6f8a8b61269090919063ffffffff16565b81612e7d57612e7c6140fe565b5b0491506301e13380612e988a8461269090919063ffffffff16565b81612ea657612ea56140fe565b5b0490506000828587612eb8919061412d565b612ec2919061412d565b905060028181612ed557612ed46140fe565b5b049050600082858789612ee8919061412d565b612ef2919061412d565b612efc919061412d565b905060068181612f0f57612f0e6140fe565b5b04905080826301e13380898e612f25919061412d565b612f2f9190614187565b6b033b2e3c9fd0803ce8000000612f469190613c19565b612f509190613c19565b612f5a9190613c19565b9750505050505050505b9392505050565b6040518060c001604052806000815260200160008152602001600081526020016000815260200160008152602001600081525090565b828054612fad90613a71565b90600052602060002090601f016020900481019282612fcf5760008555613016565b82601f10612fe857805160ff1916838001178555613016565b82800160010185558215613016579182015b82811115613015578251825591602001919060010190612ffa565b5b5090506130239190613027565b5090565b5b80821115613040576000816000905550600101613028565b5090565b600081519050919050565b600082825260208201905092915050565b60005b8381101561307e578082015181840152602081019050613063565b8381111561308d576000848401525b50505050565b6000601f19601f8301169050919050565b60006130af82613044565b6130b9818561304f565b93506130c9818560208601613060565b6130d281613093565b840191505092915050565b600060208201905081810360008301526130f781846130a4565b905092915050565b6000604051905090565b600080fd5b600080fd5b600073ffffffffffffffffffffffffffffffffffffffff82169050919050565b600061313e82613113565b9050919050565b61314e81613133565b811461315957600080fd5b50565b60008135905061316b81613145565b92915050565b6000819050919050565b61318481613171565b811461318f57600080fd5b50565b6000813590506131a18161317b565b92915050565b600080604083850312156131be576131bd613109565b5b60006131cc8582860161315c565b92505060206131dd85828601613192565b9150509250929050565b60008115159050919050565b6131fc816131e7565b82525050565b600060208201905061321760008301846131f3565b92915050565b600060ff82169050919050565b6132338161321d565b811461323e57600080fd5b50565b6000813590506132508161322a565b92915050565b6000819050919050565b61326981613256565b811461327457600080fd5b50565b60008135905061328681613260565b92915050565b600080600080600080600060e0888a0312156132ab576132aa613109565b5b60006132b98a828b0161315c565b97505060206132ca8a828b0161315c565b96505060406132db8a828b01613192565b95505060606132ec8a828b01613192565b94505060806132fd8a828b01613241565b93505060a061330e8a828b01613277565b92505060c061331f8a828b01613277565b91505092959891949750929550565b61333781613171565b82525050565b6000602082019050613352600083018461332e565b92915050565b60008060006060848603121561337157613370613109565b5b600061337f8682870161315c565b93505060206133908682870161315c565b92505060406133a186828701613192565b9150509250925092565b6133b48161321d565b82525050565b60006020820190506133cf60008301846133ab565b92915050565b6133de81613256565b82525050565b60006020820190506133f960008301846133d5565b92915050565b6000806040838503121561341657613415613109565b5b60006134248582860161315c565b92505060206134358582860161315c565b9150509250929050565b60006020828403121561345557613454613109565b5b60006134638482850161315c565b91505092915050565b6000819050919050565b600061349161348c61348784613113565b61346c565b613113565b9050919050565b60006134a382613476565b9050919050565b60006134b582613498565b9050919050565b6134c5816134aa565b82525050565b60006020820190506134e060008301846134bc565b92915050565b60006134f182613498565b9050919050565b613501816134e6565b82525050565b600060208201905061351c60008301846134f8565b92915050565b600081519050919050565b600082825260208201905092915050565b600061354982613522565b613553818561352d565b9350613563818560208601613060565b61356c81613093565b840191505092915050565b60006020820190508181036000830152613591818461353e565b905092915050565b600064ffffffffff82169050919050565b6135b381613599565b82525050565b60006080820190506135ce600083018761332e565b6135db602083018661332e565b6135e8604083018561332e565b6135f560608301846135aa565b95945050505050565b600060208201905061361360008301846135aa565b92915050565b600060408201905061362e600083018561332e565b61363b602083018461332e565b9392505050565b61364b81613133565b82525050565b60006020820190506136666000830184613642565b92915050565b6000806000806080858703121561368657613685613109565b5b60006136948782880161315c565b94505060206136a58782880161315c565b93505060406136b687828801613192565b92505060606136c787828801613192565b91505092959194509250565b60006060820190506136e860008301866131f3565b6136f5602083018561332e565b613702604083018461332e565b949350505050565b600061371582613133565b9050919050565b6137258161370a565b811461373057600080fd5b50565b6000813590506137428161371c565b92915050565b600061375382613133565b9050919050565b61376381613748565b811461376e57600080fd5b50565b6000813590506137808161375a565b92915050565b600080fd5b600080fd5b7f4e487b7100000000000000000000000000000000000000000000000000000000600052604160045260246000fd5b6137c882613093565b810181811067ffffffffffffffff821117156137e7576137e6613790565b5b80604052505050565b60006137fa6130ff565b905061380682826137bf565b919050565b600067ffffffffffffffff82111561382657613825613790565b5b61382f82613093565b9050602081019050919050565b82818337600083830152505050565b600061385e6138598461380b565b6137f0565b90508281526020810184848401111561387a5761387961378b565b5b61388584828561383c565b509392505050565b600082601f8301126138a2576138a1613786565b5b81356138b284826020860161384b565b91505092915050565b600080fd5b600080fd5b60008083601f8401126138db576138da613786565b5b8235905067ffffffffffffffff8111156138f8576138f76138bb565b5b602083019150836001820283011115613914576139136138c0565b5b9250929050565b60008060008060008060008060e0898b03121561393b5761393a613109565b5b60006139498b828c01613733565b985050602061395a8b828c0161315c565b975050604061396b8b828c01613771565b965050606061397c8b828c01613241565b955050608089013567ffffffffffffffff81111561399d5761399c61310e565b5b6139a98b828c0161388d565b94505060a089013567ffffffffffffffff8111156139ca576139c961310e565b5b6139d68b828c0161388d565b93505060c089013567ffffffffffffffff8111156139f7576139f661310e565b5b613a038b828c016138c5565b92509250509295985092959890939650565b600060208284031215613a2b57613a2a613109565b5b6000613a3984828501613771565b91505092915050565b7f4e487b7100000000000000000000000000000000000000000000000000000000600052602260045260246000fd5b60006002820490506001821680613a8957607f821691505b60208210811415613a9d57613a9c613a42565b5b50919050565b600060a082019050613ab860008301886133d5565b613ac56020830187613642565b613ad2604083018661332e565b613adf606083018561332e565b613aec608083018461332e565b9695505050505050565b600081905092915050565b7f1901000000000000000000000000000000000000000000000000000000000000600082015250565b6000613b37600283613af6565b9150613b4282613b01565b600282019050919050565b6000819050919050565b613b68613b6382613256565b613b4d565b82525050565b6000613b7982613b2a565b9150613b858285613b57565b602082019150613b958284613b57565b6020820191508190509392505050565b6000608082019050613bba60008301876133d5565b613bc760208301866133ab565b613bd460408301856133d5565b613be160608301846133d5565b95945050505050565b7f4e487b7100000000000000000000000000000000000000000000000000000000600052601160045260246000fd5b6000613c2482613171565b9150613c2f83613171565b9250827fffffffffffffffffffffffffffffffffffffffffffffffffffffffffffffffff03821115613c6457613c63613bea565b5b828201905092915050565b6000613c7a82613171565b9150613c8583613171565b925082821015613c9857613c97613bea565b5b828203905092915050565b600060c082019050613cb8600083018961332e565b613cc5602083018861332e565b613cd2604083018761332e565b613cdf606083018661332e565b613cec608083018561332e565b613cf960a083018461332e565b979650505050505050565b600060a082019050613d19600083018861332e565b613d26602083018761332e565b613d33604083018661332e565b613d40606083018561332e565b613d4d608083018461332e565b9695505050505050565b7f436f6e747261637420696e7374616e63652068617320616c726561647920626560008201527f656e20696e697469616c697a6564000000000000000000000000000000000000602082015250565b6000613db3602e8361304f565b9150613dbe82613d57565b604082019050919050565b60006020820190508181036000830152613de281613da6565b9050919050565b6000613df5838561352d565b9350613e0283858461383c565b613e0b83613093565b840190509392505050565b600060a082019050613e2b6000830189613642565b613e3860208301886133ab565b8181036040830152613e4a81876130a4565b90508181036060830152613e5e81866130a4565b90508181036080830152613e73818486613de9565b9050979650505050505050565b600081519050613e8f81613145565b92915050565b600060208284031215613eab57613eaa613109565b5b6000613eb984828501613e80565b91505092915050565b613ecb816131e7565b8114613ed657600080fd5b50565b600081519050613ee881613ec2565b92915050565b600060208284031215613f0457613f03613109565b5b6000613f1284828501613ed9565b91505092915050565b600060a082019050613f3060008301886133d5565b613f3d60208301876133d5565b613f4a60408301866133d5565b613f57606083018561332e565b613f646080830184613642565b9695505050505050565b7f53616665436173743a2076616c756520646f65736e27742066697420696e203160008201527f3238206269747300000000000000000000000000000000000000000000000000602082015250565b6000613fca60278361304f565b9150613fd582613f6e565b604082019050919050565b60006020820190508181036000830152613ff981613fbd565b9050919050565b60006fffffffffffffffffffffffffffffffff82169050919050565b600061402782614000565b915061403283614000565b9250826fffffffffffffffffffffffffffffffff0382111561405757614056613bea565b5b828201905092915050565b600061407d61407861407384614000565b61346c565b613171565b9050919050565b61408d81614062565b82525050565b60006060820190506140a86000830186613642565b6140b5602083018561332e565b6140c26040830184614084565b949350505050565b60006140d582614000565b91506140e083614000565b9250828210156140f3576140f2613bea565b5b828203905092915050565b7f4e487b7100000000000000000000000000000000000000000000000000000000600052601260045260246000fd5b600061413882613171565b915061414383613171565b9250817fffffffffffffffffffffffffffffffffffffffffffffffffffffffffffffffff048311821515161561417c5761417b613bea565b5b828202905092915050565b600061419282613171565b915061419d83613171565b9250826141ad576141ac6140fe565b5b82820490509291505056fea264697066735822122038caafc7dcd3d430b08afe3d8f6f1aeec7e1a6c003fedf9ca66c9517dd8cda2864736f6c634300080a0033",
  "linkReferences": {},
  "deployedLinkReferences": {}
}