{
  "_format": "hh-sol-artifact-1",
  "contractName": "MockFlashLoanReceiver",
  "sourceName": "contracts/Aave_Contracts/mocks/flashloan/MockFlashLoanReceiver.sol",
  "abi": [
    {
      "inputs": [
        {
          "internalType": "contract IPoolAddressesProvider",
          "name": "provider",
          "type": "address"
        }
      ],
      "stateMutability": "nonpayable",
      "type": "constructor"
    },
    {
      "anonymous": false,
      "inputs": [
        {
          "indexed": false,
          "internalType": "address[]",
          "name": "_assets",
          "type": "address[]"
        },
        {
          "indexed": false,
          "internalType": "uint256[]",
          "name": "_amounts",
          "type": "uint256[]"
        },
        {
          "indexed": false,
          "internalType": "uint256[]",
          "name": "_premiums",
          "type": "uint256[]"
        }
      ],
      "name": "ExecutedWithFail",
      "type": "event"
    },
    {
      "anonymous": false,
      "inputs": [
        {
          "indexed": false,
          "internalType": "address[]",
          "name": "_assets",
          "type": "address[]"
        },
        {
          "indexed": false,
          "internalType": "uint256[]",
          "name": "_amounts",
          "type": "uint256[]"
        },
        {
          "indexed": false,
          "internalType": "uint256[]",
          "name": "_premiums",
          "type": "uint256[]"
        }
      ],
      "name": "ExecutedWithSuccess",
      "type": "event"
    },
    {
      "inputs": [],
      "name": "ADDRESSES_PROVIDER",
      "outputs": [
        {
          "internalType": "contract IPoolAddressesProvider",
          "name": "",
          "type": "address"
        }
      ],
      "stateMutability": "view",
      "type": "function"
    },
    {
      "inputs": [],
      "name": "POOL",
      "outputs": [
        {
          "internalType": "contract IPool",
          "name": "",
          "type": "address"
        }
      ],
      "stateMutability": "view",
      "type": "function"
    },
    {
      "inputs": [
        {
          "internalType": "address[]",
          "name": "assets",
          "type": "address[]"
        },
        {
          "internalType": "uint256[]",
          "name": "amounts",
          "type": "uint256[]"
        },
        {
          "internalType": "uint256[]",
          "name": "premiums",
          "type": "uint256[]"
        },
        {
          "internalType": "address",
          "name": "",
          "type": "address"
        },
        {
          "internalType": "bytes",
          "name": "",
          "type": "bytes"
        }
      ],
      "name": "executeOperation",
      "outputs": [
        {
          "internalType": "bool",
          "name": "",
          "type": "bool"
        }
      ],
      "stateMutability": "nonpayable",
      "type": "function"
    },
    {
      "inputs": [],
      "name": "getAmountToApprove",
      "outputs": [
        {
          "internalType": "uint256",
          "name": "",
          "type": "uint256"
        }
      ],
      "stateMutability": "view",
      "type": "function"
    },
    {
      "inputs": [
        {
          "internalType": "uint256",
          "name": "amountToApprove",
          "type": "uint256"
        }
      ],
      "name": "setAmountToApprove",
      "outputs": [],
      "stateMutability": "nonpayable",
      "type": "function"
    },
    {
      "inputs": [
        {
          "internalType": "bool",
          "name": "fail",
          "type": "bool"
        }
      ],
      "name": "setFailExecutionTransfer",
      "outputs": [],
      "stateMutability": "nonpayable",
      "type": "function"
    },
    {
      "inputs": [
        {
          "internalType": "bool",
          "name": "flag",
          "type": "bool"
        }
      ],
      "name": "setSimulateEOA",
      "outputs": [],
      "stateMutability": "nonpayable",
      "type": "function"
    },
    {
      "inputs": [],
      "name": "simulateEOA",
      "outputs": [
        {
          "internalType": "bool",
          "name": "",
          "type": "bool"
        }
      ],
      "stateMutability": "view",
      "type": "function"
    }
  ],
  "bytecode": "0x60c06040523480156200001157600080fd5b506040516200126738038062001267833981810160405281019062000037919062000197565b808073ffffffffffffffffffffffffffffffffffffffff1660808173ffffffffffffffffffffffffffffffffffffffff16815250508073ffffffffffffffffffffffffffffffffffffffff1663026b1d5f6040518163ffffffff1660e01b8152600401602060405180830381865afa158015620000b8573d6000803e3d6000fd5b505050506040513d601f19601f82011682018060405250810190620000de9190620001fa565b73ffffffffffffffffffffffffffffffffffffffff1660a08173ffffffffffffffffffffffffffffffffffffffff168152505050506200022c565b600080fd5b600073ffffffffffffffffffffffffffffffffffffffff82169050919050565b60006200014b826200011e565b9050919050565b60006200015f826200013e565b9050919050565b620001718162000152565b81146200017d57600080fd5b50565b600081519050620001918162000166565b92915050565b600060208284031215620001b057620001af62000119565b5b6000620001c08482850162000180565b91505092915050565b620001d4816200013e565b8114620001e057600080fd5b50565b600081519050620001f481620001c9565b92915050565b60006020828403121562000213576200021262000119565b5b60006200022384828501620001e3565b91505092915050565b60805160a05161100e62000259600039600081816101ec01526104b80152600061018b015261100e6000f3fe608060405234801561001057600080fd5b50600436106100885760003560e01c80637535d2461161005b5780637535d24614610103578063920f5c8414610121578063bf443f8514610151578063e9a6a25b1461016d57610088565b80630542975c1461008d578063388f70f1146100ab5780634444f331146100c75780635e76bba3146100e5575b600080fd5b610095610189565b6040516100a2919061063e565b60405180910390f35b6100c560048036038101906100c091906106a5565b6101ad565b005b6100cf6101c9565b6040516100dc91906106e1565b60405180910390f35b6100ed6101e0565b6040516100fa9190610715565b60405180910390f35b61010b6101ea565b6040516101189190610751565b60405180910390f35b61013b60048036038101906101369190610aa7565b61020e565b60405161014891906106e1565b60405180910390f35b61016b60048036038101906101669190610b92565b610598565b005b610187600480360381019061018291906106a5565b6105a2565b005b7f000000000000000000000000000000000000000000000000000000000000000081565b806000806101000a81548160ff02191690831515021790555050565b6000600260009054906101000a900460ff16905090565b6000600154905090565b7f000000000000000000000000000000000000000000000000000000000000000081565b60008060009054906101000a900460ff1615610277577f9972b212e52913783072b960dd41527ae8b6e609d017b64039758dda0ce4127886868660405161025793929190610d3b565b60405180910390a1600260009054906101000a900460ff1615905061058f565b60005b865181101561054e57600087828151811061029857610297610d87565b5b602002602001015190508782815181106102b5576102b4610d87565b5b602002602001015173ffffffffffffffffffffffffffffffffffffffff166370a08231306040518263ffffffff1660e01b81526004016102f59190610dc5565b602060405180830381865afa158015610312573d6000803e3d6000fd5b505050506040513d601f19601f820116820180604052508101906103369190610df5565b87838151811061034957610348610d87565b5b60200260200101511115610392576040517f08c379a000000000000000000000000000000000000000000000000000000000815260040161038990610e7f565b60405180910390fd5b60008060015414156103e3578683815181106103b1576103b0610d87565b5b60200260200101518884815181106103cc576103cb610d87565b5b60200260200101516103de9190610ece565b6103e7565b6001545b90508173ffffffffffffffffffffffffffffffffffffffff1663a0712d6888858151811061041857610417610d87565b5b60200260200101516040518263ffffffff1660e01b815260040161043c9190610715565b6020604051808303816000875af115801561045b573d6000803e3d6000fd5b505050506040513d601f19601f8201168201806040525081019061047f9190610f39565b5088838151811061049357610492610d87565b5b602002602001015173ffffffffffffffffffffffffffffffffffffffff1663095ea7b37f0000000000000000000000000000000000000000000000000000000000000000836040518363ffffffff1660e01b81526004016104f5929190610f66565b6020604051808303816000875af1158015610514573d6000803e3d6000fd5b505050506040513d601f19601f820116820180604052508101906105389190610f39565b505050808061054690610f8f565b91505061027a565b507fbd6b6bfac59612765a81cc4fdee74ab4859671fa14a562056f9eea438735a78a86868660405161058293929190610d3b565b60405180910390a1600190505b95945050505050565b8060018190555050565b80600260006101000a81548160ff02191690831515021790555050565b600073ffffffffffffffffffffffffffffffffffffffff82169050919050565b6000819050919050565b60006106046105ff6105fa846105bf565b6105df565b6105bf565b9050919050565b6000610616826105e9565b9050919050565b60006106288261060b565b9050919050565b6106388161061d565b82525050565b6000602082019050610653600083018461062f565b92915050565b6000604051905090565b600080fd5b600080fd5b60008115159050919050565b6106828161066d565b811461068d57600080fd5b50565b60008135905061069f81610679565b92915050565b6000602082840312156106bb576106ba610663565b5b60006106c984828501610690565b91505092915050565b6106db8161066d565b82525050565b60006020820190506106f660008301846106d2565b92915050565b6000819050919050565b61070f816106fc565b82525050565b600060208201905061072a6000830184610706565b92915050565b600061073b8261060b565b9050919050565b61074b81610730565b82525050565b60006020820190506107666000830184610742565b92915050565b600080fd5b6000601f19601f8301169050919050565b7f4e487b7100000000000000000000000000000000000000000000000000000000600052604160045260246000fd5b6107ba82610771565b810181811067ffffffffffffffff821117156107d9576107d8610782565b5b80604052505050565b60006107ec610659565b90506107f882826107b1565b919050565b600067ffffffffffffffff82111561081857610817610782565b5b602082029050602081019050919050565b600080fd5b6000610839826105bf565b9050919050565b6108498161082e565b811461085457600080fd5b50565b60008135905061086681610840565b92915050565b600061087f61087a846107fd565b6107e2565b905080838252602082019050602084028301858111156108a2576108a1610829565b5b835b818110156108cb57806108b78882610857565b8452602084019350506020810190506108a4565b5050509392505050565b600082601f8301126108ea576108e961076c565b5b81356108fa84826020860161086c565b91505092915050565b600067ffffffffffffffff82111561091e5761091d610782565b5b602082029050602081019050919050565b610938816106fc565b811461094357600080fd5b50565b6000813590506109558161092f565b92915050565b600061096e61096984610903565b6107e2565b9050808382526020820190506020840283018581111561099157610990610829565b5b835b818110156109ba57806109a68882610946565b845260208401935050602081019050610993565b5050509392505050565b600082601f8301126109d9576109d861076c565b5b81356109e984826020860161095b565b91505092915050565b600080fd5b600067ffffffffffffffff821115610a1257610a11610782565b5b610a1b82610771565b9050602081019050919050565b82818337600083830152505050565b6000610a4a610a45846109f7565b6107e2565b905082815260208101848484011115610a6657610a656109f2565b5b610a71848285610a28565b509392505050565b600082601f830112610a8e57610a8d61076c565b5b8135610a9e848260208601610a37565b91505092915050565b600080600080600060a08688031215610ac357610ac2610663565b5b600086013567ffffffffffffffff811115610ae157610ae0610668565b5b610aed888289016108d5565b955050602086013567ffffffffffffffff811115610b0e57610b0d610668565b5b610b1a888289016109c4565b945050604086013567ffffffffffffffff811115610b3b57610b3a610668565b5b610b47888289016109c4565b9350506060610b5888828901610857565b925050608086013567ffffffffffffffff811115610b7957610b78610668565b5b610b8588828901610a79565b9150509295509295909350565b600060208284031215610ba857610ba7610663565b5b6000610bb684828501610946565b91505092915050565b600081519050919050565b600082825260208201905092915050565b6000819050602082019050919050565b610bf48161082e565b82525050565b6000610c068383610beb565b60208301905092915050565b6000602082019050919050565b6000610c2a82610bbf565b610c348185610bca565b9350610c3f83610bdb565b8060005b83811015610c70578151610c578882610bfa565b9750610c6283610c12565b925050600181019050610c43565b5085935050505092915050565b600081519050919050565b600082825260208201905092915050565b6000819050602082019050919050565b610cb2816106fc565b82525050565b6000610cc48383610ca9565b60208301905092915050565b6000602082019050919050565b6000610ce882610c7d565b610cf28185610c88565b9350610cfd83610c99565b8060005b83811015610d2e578151610d158882610cb8565b9750610d2083610cd0565b925050600181019050610d01565b5085935050505092915050565b60006060820190508181036000830152610d558186610c1f565b90508181036020830152610d698185610cdd565b90508181036040830152610d7d8184610cdd565b9050949350505050565b7f4e487b7100000000000000000000000000000000000000000000000000000000600052603260045260246000fd5b610dbf8161082e565b82525050565b6000602082019050610dda6000830184610db6565b92915050565b600081519050610def8161092f565b92915050565b600060208284031215610e0b57610e0a610663565b5b6000610e1984828501610de0565b91505092915050565b600082825260208201905092915050565b7f496e76616c69642062616c616e636520666f722074686520636f6e7472616374600082015250565b6000610e69602083610e22565b9150610e7482610e33565b602082019050919050565b60006020820190508181036000830152610e9881610e5c565b9050919050565b7f4e487b7100000000000000000000000000000000000000000000000000000000600052601160045260246000fd5b6000610ed9826106fc565b9150610ee4836106fc565b9250827fffffffffffffffffffffffffffffffffffffffffffffffffffffffffffffffff03821115610f1957610f18610e9f565b5b828201905092915050565b600081519050610f3381610679565b92915050565b600060208284031215610f4f57610f4e610663565b5b6000610f5d84828501610f24565b91505092915050565b6000604082019050610f7b6000830185610db6565b610f886020830184610706565b9392505050565b6000610f9a826106fc565b91507fffffffffffffffffffffffffffffffffffffffffffffffffffffffffffffffff821415610fcd57610fcc610e9f565b5b60018201905091905056fea264697066735822122041df841c0044bb08163bac23fb8b9a2778d4296a815c323f3ef4e5f8243806c964736f6c634300080a0033",
  "linkReferences": {},
  "deployedLinkReferences": {}
}