{
  "_format": "hh-sol-artifact-1",
  "contractName": "DefaultReserveInterestRateStrategy",
  "sourceName": "contracts/Aave_Contracts/protocol/pool/DefaultReserveInterestRateStrategy.sol",
  "abi": [
    {
      "inputs": [
        {
          "internalType": "contract IPoolAddressesProvider",
          "name": "provider",
          "type": "address"
        },
        {
          "internalType": "uint256",
          "name": "optimalUsageRatio",
          "type": "uint256"
        },
        {
          "internalType": "uint256",
          "name": "baseVariableBorrowRate",
          "type": "uint256"
        },
        {
          "internalType": "uint256",
          "name": "variableRateSlope1",
          "type": "uint256"
        },
        {
          "internalType": "uint256",
          "name": "variableRateSlope2",
          "type": "uint256"
        },
        {
          "internalType": "uint256",
          "name": "stableRateSlope1",
          "type": "uint256"
        },
        {
          "internalType": "uint256",
          "name": "stableRateSlope2",
          "type": "uint256"
        },
        {
          "internalType": "uint256",
          "name": "baseStableRateOffset",
          "type": "uint256"
        },
        {
          "internalType": "uint256",
          "name": "stableRateExcessOffset",
          "type": "uint256"
        },
        {
          "internalType": "uint256",
          "name": "optimalStableToTotalDebtRatio",
          "type": "uint256"
        }
      ],
      "stateMutability": "nonpayable",
      "type": "constructor"
    },
    {
      "inputs": [],
      "name": "ADDRESSES_PROVIDER",
      "outputs": [
        {
          "internalType": "contract IPoolAddressesProvider",
          "name": "",
          "type": "address"
        }
      ],
      "stateMutability": "view",
      "type": "function"
    },
    {
      "inputs": [],
      "name": "MAX_EXCESS_STABLE_TO_TOTAL_DEBT_RATIO",
      "outputs": [
        {
          "internalType": "uint256",
          "name": "",
          "type": "uint256"
        }
      ],
      "stateMutability": "view",
      "type": "function"
    },
    {
      "inputs": [],
      "name": "MAX_EXCESS_USAGE_RATIO",
      "outputs": [
        {
          "internalType": "uint256",
          "name": "",
          "type": "uint256"
        }
      ],
      "stateMutability": "view",
      "type": "function"
    },
    {
      "inputs": [],
      "name": "OPTIMAL_STABLE_TO_TOTAL_DEBT_RATIO",
      "outputs": [
        {
          "internalType": "uint256",
          "name": "",
          "type": "uint256"
        }
      ],
      "stateMutability": "view",
      "type": "function"
    },
    {
      "inputs": [],
      "name": "OPTIMAL_USAGE_RATIO",
      "outputs": [
        {
          "internalType": "uint256",
          "name": "",
          "type": "uint256"
        }
      ],
      "stateMutability": "view",
      "type": "function"
    },
    {
      "inputs": [
        {
          "components": [
            {
              "internalType": "uint256",
              "name": "unbacked",
              "type": "uint256"
            },
            {
              "internalType": "uint256",
              "name": "liquidityAdded",
              "type": "uint256"
            },
            {
              "internalType": "uint256",
              "name": "liquidityTaken",
              "type": "uint256"
            },
            {
              "internalType": "uint256",
              "name": "totalStableDebt",
              "type": "uint256"
            },
            {
              "internalType": "uint256",
              "name": "totalVariableDebt",
              "type": "uint256"
            },
            {
              "internalType": "uint256",
              "name": "averageStableBorrowRate",
              "type": "uint256"
            },
            {
              "internalType": "uint256",
              "name": "reserveFactor",
              "type": "uint256"
            },
            {
              "internalType": "address",
              "name": "reserve",
              "type": "address"
            },
            {
              "internalType": "address",
              "name": "aToken",
              "type": "address"
            }
          ],
          "internalType": "struct DataTypes.CalculateInterestRatesParams",
          "name": "params",
          "type": "tuple"
        }
      ],
      "name": "calculateInterestRates",
      "outputs": [
        {
          "internalType": "uint256",
          "name": "",
          "type": "uint256"
        },
        {
          "internalType": "uint256",
          "name": "",
          "type": "uint256"
        },
        {
          "internalType": "uint256",
          "name": "",
          "type": "uint256"
        }
      ],
      "stateMutability": "view",
      "type": "function"
    },
    {
      "inputs": [],
      "name": "getBaseStableBorrowRate",
      "outputs": [
        {
          "internalType": "uint256",
          "name": "",
          "type": "uint256"
        }
      ],
      "stateMutability": "view",
      "type": "function"
    },
    {
      "inputs": [],
      "name": "getBaseVariableBorrowRate",
      "outputs": [
        {
          "internalType": "uint256",
          "name": "",
          "type": "uint256"
        }
      ],
      "stateMutability": "view",
      "type": "function"
    },
    {
      "inputs": [],
      "name": "getMaxVariableBorrowRate",
      "outputs": [
        {
          "internalType": "uint256",
          "name": "",
          "type": "uint256"
        }
      ],
      "stateMutability": "view",
      "type": "function"
    },
    {
      "inputs": [],
      "name": "getStableRateExcessOffset",
      "outputs": [
        {
          "internalType": "uint256",
          "name": "",
          "type": "uint256"
        }
      ],
      "stateMutability": "view",
      "type": "function"
    },
    {
      "inputs": [],
      "name": "getStableRateSlope1",
      "outputs": [
        {
          "internalType": "uint256",
          "name": "",
          "type": "uint256"
        }
      ],
      "stateMutability": "view",
      "type": "function"
    },
    {
      "inputs": [],
      "name": "getStableRateSlope2",
      "outputs": [
        {
          "internalType": "uint256",
          "name": "",
          "type": "uint256"
        }
      ],
      "stateMutability": "view",
      "type": "function"
    },
    {
      "inputs": [],
      "name": "getVariableRateSlope1",
      "outputs": [
        {
          "internalType": "uint256",
          "name": "",
          "type": "uint256"
        }
      ],
      "stateMutability": "view",
      "type": "function"
    },
    {
      "inputs": [],
      "name": "getVariableRateSlope2",
      "outputs": [
        {
          "internalType": "uint256",
          "name": "",
          "type": "uint256"
        }
      ],
      "stateMutability": "view",
      "type": "function"
    }
  ],
  "bytecode": "0x6102006040523480156200001257600080fd5b5060405162001601380380620016018339818101604052810190620000389190620002dd565b886b033b2e3c9fd0803ce800000010156040518060400160405280600281526020017f383300000000000000000000000000000000000000000000000000000000000081525090620000c2576040517f08c379a0000000000000000000000000000000000000000000000000000000008152600401620000b9919062000477565b60405180910390fd5b50806b033b2e3c9fd0803ce800000010156040518060400160405280600281526020017f3834000000000000000000000000000000000000000000000000000000000000815250906200014d576040517f08c379a000000000000000000000000000000000000000000000000000000000815260040162000144919062000477565b60405180910390fd5b508860808181525050886b033b2e3c9fd0803ce8000000620001709190620004ca565b60c081815250508060a08181525050806b033b2e3c9fd0803ce8000000620001999190620004ca565b60e081815250508973ffffffffffffffffffffffffffffffffffffffff166101008173ffffffffffffffffffffffffffffffffffffffff1681525050876101208181525050866101408181525050856101608181525050846101808181525050836101a08181525050826101c08181525050816101e081815250505050505050505050505062000505565b600080fd5b600073ffffffffffffffffffffffffffffffffffffffff82169050919050565b6000620002568262000229565b9050919050565b60006200026a8262000249565b9050919050565b6200027c816200025d565b81146200028857600080fd5b50565b6000815190506200029c8162000271565b92915050565b6000819050919050565b620002b781620002a2565b8114620002c357600080fd5b50565b600081519050620002d781620002ac565b92915050565b6000806000806000806000806000806101408b8d03121562000304576200030362000224565b5b6000620003148d828e016200028b565b9a50506020620003278d828e01620002c6565b99505060406200033a8d828e01620002c6565b98505060606200034d8d828e01620002c6565b9750506080620003608d828e01620002c6565b96505060a0620003738d828e01620002c6565b95505060c0620003868d828e01620002c6565b94505060e0620003998d828e01620002c6565b935050610100620003ad8d828e01620002c6565b925050610120620003c18d828e01620002c6565b9150509295989b9194979a5092959850565b600081519050919050565b600082825260208201905092915050565b60005b838110156200040f578082015181840152602081019050620003f2565b838111156200041f576000848401525b50505050565b6000601f19601f8301169050919050565b60006200044382620003d3565b6200044f8185620003de565b935062000461818560208601620003ef565b6200046c8162000425565b840191505092915050565b6000602082019050818103600083015262000493818462000436565b905092915050565b7f4e487b7100000000000000000000000000000000000000000000000000000000600052601160045260246000fd5b6000620004d782620002a2565b9150620004e483620002a2565b925082821015620004fa57620004f96200049b565b5b828203905092915050565b60805160a05160c05160e05161010051610120516101405161016051610180516101a0516101c0516101e051610fde62000623600039600081816109060152610a43015260006109f00152600081816102f7015261067f0152600081816106ae015281816107990152610a6b01526000818161038f015281816106f50152610a930152600081816102cf015281816103b0015281816107240152818161081a0152610a1101526000818161031f015281816103d10152610440015260006102a90152600081816108a10152610ab901526000818161061a01526109ca0152600081816103690152818161087001526108c2015260008181610345015281816105e90152818161063b0152818161077001526107f10152610fde6000f3fe608060405234801561001057600080fd5b50600436106100ea5760003560e01c8063a58987091161008c578063bc62690811610066578063bc6269081461022f578063d5cd73911461024d578063f42024091461026b578063fe5fd69814610289576100ea565b8063a5898709146101c1578063a9c622f8146101f3578063acd7868614610211576100ea565b806334762ca5116100c857806334762ca51461014957806354c365c6146101675780636fb925891461018557806380031e37146101a3576100ea565b80630542975c146100ef5780630b3429a21461010d57806314e32da41461012b575b600080fd5b6100f76102a7565b6040516101049190610d23565b60405180910390f35b6101156102cb565b6040516101229190610d57565b60405180910390f35b6101336102f3565b6040516101409190610d57565b60405180910390f35b61015161031b565b60405161015e9190610d57565b60405180910390f35b61016f610343565b60405161017c9190610d57565b60405180910390f35b61018d610367565b60405161019a9190610d57565b60405180910390f35b6101ab61038b565b6040516101b89190610d57565b60405180910390f35b6101db60048036038101906101d69190610d9c565b610409565b6040516101ea93929190610dca565b60405180910390f35b6101fb6109c8565b6040516102089190610d57565b60405180910390f35b6102196109ec565b6040516102269190610d57565b60405180910390f35b610237610a3f565b6040516102449190610d57565b60405180910390f35b610255610a67565b6040516102629190610d57565b60405180910390f35b610273610a8f565b6040516102809190610d57565b60405180910390f35b610291610ab7565b60405161029e9190610d57565b60405180910390f35b7f000000000000000000000000000000000000000000000000000000000000000081565b60007f0000000000000000000000000000000000000000000000000000000000000000905090565b60007f0000000000000000000000000000000000000000000000000000000000000000905090565b60007f0000000000000000000000000000000000000000000000000000000000000000905090565b7f000000000000000000000000000000000000000000000000000000000000000081565b7f000000000000000000000000000000000000000000000000000000000000000081565b60007f00000000000000000000000000000000000000000000000000000000000000007f00000000000000000000000000000000000000000000000000000000000000007f00000000000000000000000000000000000000000000000000000000000000006103fa9190610e30565b6104049190610e30565b905090565b6000806000610416610c58565b8460800135856060013561042a9190610e30565b81602001818152505060008160800181815250507f00000000000000000000000000000000000000000000000000000000000000008160400181815250506104706109ec565b81606001818152505060008160200151146105e7576104a081602001518660600135610adb90919063ffffffff16565b8160e0018181525050846040013585602001358660e00160208101906104c69190610ec4565b73ffffffffffffffffffffffffffffffffffffffff166370a08231886101000160208101906104f59190610ec4565b6040518263ffffffff1660e01b81526004016105119190610f00565b602060405180830381865afa15801561052e573d6000803e3d6000fd5b505050506040513d601f19601f820116820180604052508101906105529190610f47565b61055c9190610e30565b6105669190610f74565b816000018181525050806020015181600001516105839190610e30565b816101000181815250506105a98161010001518260200151610adb90919063ffffffff16565b8160a00181815250506105dd85600001358261010001516105ca9190610e30565b8260200151610adb90919063ffffffff16565b8160c00181815250505b7f00000000000000000000000000000000000000000000000000000000000000008160a00151111561076b5760006106777f00000000000000000000000000000000000000000000000000000000000000007f00000000000000000000000000000000000000000000000000000000000000008460a001516106699190610f74565b610adb90919063ffffffff16565b90506106ac817f0000000000000000000000000000000000000000000000000000000000000000610b2290919063ffffffff16565b7f00000000000000000000000000000000000000000000000000000000000000006106d79190610e30565b826060018181516106e89190610e30565b91508181525050610722817f0000000000000000000000000000000000000000000000000000000000000000610b2290919063ffffffff16565b7f000000000000000000000000000000000000000000000000000000000000000061074d9190610e30565b8260400181815161075e9190610e30565b915081815250505061086e565b6107d47f00000000000000000000000000000000000000000000000000000000000000006107c68360a001517f0000000000000000000000000000000000000000000000000000000000000000610b2290919063ffffffff16565b610adb90919063ffffffff16565b816060018181516107e59190610e30565b915081815250506108557f00000000000000000000000000000000000000000000000000000000000000006108478360a001517f0000000000000000000000000000000000000000000000000000000000000000610b2290919063ffffffff16565b610adb90919063ffffffff16565b816040018181516108669190610e30565b915081815250505b7f00000000000000000000000000000000000000000000000000000000000000008160e00151111561094d5760006108fe7f00000000000000000000000000000000000000000000000000000000000000007f00000000000000000000000000000000000000000000000000000000000000008460e001516108f09190610f74565b610adb90919063ffffffff16565b9050610933817f0000000000000000000000000000000000000000000000000000000000000000610b2290919063ffffffff16565b826060018181516109449190610e30565b91508181525050505b6109a28560c001356127106109629190610f74565b6109948360c0015161098689606001358a6080013587604001518c60a00135610b6d565b610b2290919063ffffffff16565b610c0990919063ffffffff16565b816080018181525050806080015181606001518260400151935093509350509193909250565b7f000000000000000000000000000000000000000000000000000000000000000081565b60007f00000000000000000000000000000000000000000000000000000000000000007f0000000000000000000000000000000000000000000000000000000000000000610a3a9190610e30565b905090565b60007f0000000000000000000000000000000000000000000000000000000000000000905090565b60007f0000000000000000000000000000000000000000000000000000000000000000905090565b60007f0000000000000000000000000000000000000000000000000000000000000000905090565b7f000000000000000000000000000000000000000000000000000000000000000081565b60006b033b2e3c9fd0803ce80000006002830460001903048311151582151715610b0457600080fd5b81600283046b033b2e3c9fd0803ce800000085020104905092915050565b6000816b019d971e4fe8401e740000006000190304831115821517610b4657600080fd5b6b033b2e3c9fd0803ce80000006b019d971e4fe8401e740000008385020104905092915050565b6000808486610b7c9190610e30565b90506000811415610b91576000915050610c01565b6000610bae85610ba088610c36565b610b2290919063ffffffff16565b90506000610bcd85610bbf8a610c36565b610b2290919063ffffffff16565b90506000610bf7610bdd85610c36565b8385610be99190610e30565b610adb90919063ffffffff16565b9050809450505050505b949350505050565b6000816113886000190304831115821517610c2357600080fd5b6127106113888385020104905092915050565b6000633b9aca008202905081633b9aca00820414610c5357600080fd5b919050565b6040518061012001604052806000815260200160008152602001600081526020016000815260200160008152602001600081526020016000815260200160008152602001600081525090565b600073ffffffffffffffffffffffffffffffffffffffff82169050919050565b6000819050919050565b6000610ce9610ce4610cdf84610ca4565b610cc4565b610ca4565b9050919050565b6000610cfb82610cce565b9050919050565b6000610d0d82610cf0565b9050919050565b610d1d81610d02565b82525050565b6000602082019050610d386000830184610d14565b92915050565b6000819050919050565b610d5181610d3e565b82525050565b6000602082019050610d6c6000830184610d48565b92915050565b600080fd5b600080fd5b60006101208284031215610d9357610d92610d77565b5b81905092915050565b60006101208284031215610db357610db2610d72565b5b6000610dc184828501610d7c565b91505092915050565b6000606082019050610ddf6000830186610d48565b610dec6020830185610d48565b610df96040830184610d48565b949350505050565b7f4e487b7100000000000000000000000000000000000000000000000000000000600052601160045260246000fd5b6000610e3b82610d3e565b9150610e4683610d3e565b9250827fffffffffffffffffffffffffffffffffffffffffffffffffffffffffffffffff03821115610e7b57610e7a610e01565b5b828201905092915050565b6000610e9182610ca4565b9050919050565b610ea181610e86565b8114610eac57600080fd5b50565b600081359050610ebe81610e98565b92915050565b600060208284031215610eda57610ed9610d72565b5b6000610ee884828501610eaf565b91505092915050565b610efa81610e86565b82525050565b6000602082019050610f156000830184610ef1565b92915050565b610f2481610d3e565b8114610f2f57600080fd5b50565b600081519050610f4181610f1b565b92915050565b600060208284031215610f5d57610f5c610d72565b5b6000610f6b84828501610f32565b91505092915050565b6000610f7f82610d3e565b9150610f8a83610d3e565b925082821015610f9d57610f9c610e01565b5b82820390509291505056fea2646970667358221220c174fa1fe1e639fece3277f17ae8f59e5309e378d5e7822c986cf0347095a2e864736f6c634300080a0033",
  "linkReferences": {},
  "deployedLinkReferences": {}
}