{
  "_format": "hh-sol-artifact-1",
  "contractName": "BaseImmutableAdminUpgradeabilityProxy",
  "sourceName": "contracts/Aave_Contracts/protocol/libraries/aave-upgradeability/BaseImmutableAdminUpgradeabilityProxy.sol",
  "abi": [
    {
      "inputs": [
        {
          "internalType": "address",
          "name": "admin",
          "type": "address"
        }
      ],
      "stateMutability": "nonpayable",
      "type": "constructor"
    },
    {
      "anonymous": false,
      "inputs": [
        {
          "indexed": true,
          "internalType": "address",
          "name": "implementation",
          "type": "address"
        }
      ],
      "name": "Upgraded",
      "type": "event"
    },
    {
      "stateMutability": "payable",
      "type": "fallback"
    },
    {
      "inputs": [],
      "name": "admin",
      "outputs": [
        {
          "internalType": "address",
          "name": "",
          "type": "address"
        }
      ],
      "stateMutability": "nonpayable",
      "type": "function"
    },
    {
      "inputs": [],
      "name": "implementation",
      "outputs": [
        {
          "internalType": "address",
          "name": "",
          "type": "address"
        }
      ],
      "stateMutability": "nonpayable",
      "type": "function"
    },
    {
      "inputs": [
        {
          "internalType": "address",
          "name": "newImplementation",
          "type": "address"
        }
      ],
      "name": "upgradeTo",
      "outputs": [],
      "stateMutability": "nonpayable",
      "type": "function"
    },
    {
      "inputs": [
        {
          "internalType": "address",
          "name": "newImplementation",
          "type": "address"
        },
        {
          "internalType": "bytes",
          "name": "data",
          "type": "bytes"
        }
      ],
      "name": "upgradeToAndCall",
      "outputs": [],
      "stateMutability": "payable",
      "type": "function"
    }
  ],
  "bytecode": "0x60a060405234801561001057600080fd5b506040516109d83803806109d8833981810160405281019061003291906100cf565b8073ffffffffffffffffffffffffffffffffffffffff1660808173ffffffffffffffffffffffffffffffffffffffff1681525050506100fc565b600080fd5b600073ffffffffffffffffffffffffffffffffffffffff82169050919050565b600061009c82610071565b9050919050565b6100ac81610091565b81146100b757600080fd5b50565b6000815190506100c9816100a3565b92915050565b6000602082840312156100e5576100e461006c565b5b60006100f3848285016100ba565b91505092915050565b60805161089e61013a60003960008181610105015281816101730152818161025d015281816102ce015281816103220152610356015261089e6000f3fe6080604052600436106100435760003560e01c80633659cfe61461004e5780634f1ef286146100775780635c60da1b14610093578063f851a440146100be57610044565b5b61004c6100e9565b005b34801561005a57600080fd5b50610075600480360381019061007091906105bf565b610103565b005b610091600480360381019061008c9190610651565b610171565b005b34801561009f57600080fd5b506100a8610259565b6040516100b591906106c0565b60405180910390f35b3480156100ca57600080fd5b506100d36102ca565b6040516100e091906106c0565b60405180910390f35b6100f1610354565b6101016100fc6103ed565b61041e565b565b7f000000000000000000000000000000000000000000000000000000000000000073ffffffffffffffffffffffffffffffffffffffff163373ffffffffffffffffffffffffffffffffffffffff1614156101655761016081610444565b61016e565b61016d6100e9565b5b50565b7f000000000000000000000000000000000000000000000000000000000000000073ffffffffffffffffffffffffffffffffffffffff163373ffffffffffffffffffffffffffffffffffffffff16141561024b576101ce83610444565b60008373ffffffffffffffffffffffffffffffffffffffff1683836040516101f792919061071a565b600060405180830381855af49150503d8060008114610232576040519150601f19603f3d011682016040523d82523d6000602084013e610237565b606091505b505090508061024557600080fd5b50610254565b6102536100e9565b5b505050565b60007f000000000000000000000000000000000000000000000000000000000000000073ffffffffffffffffffffffffffffffffffffffff163373ffffffffffffffffffffffffffffffffffffffff1614156102be576102b76103ed565b90506102c7565b6102c66100e9565b5b90565b60007f000000000000000000000000000000000000000000000000000000000000000073ffffffffffffffffffffffffffffffffffffffff163373ffffffffffffffffffffffffffffffffffffffff161415610348577f00000000000000000000000000000000000000000000000000000000000000009050610351565b6103506100e9565b5b90565b7f000000000000000000000000000000000000000000000000000000000000000073ffffffffffffffffffffffffffffffffffffffff163373ffffffffffffffffffffffffffffffffffffffff1614156103e3576040517f08c379a00000000000000000000000000000000000000000000000000000000081526004016103da906107b6565b60405180910390fd5b6103eb610493565b565b6000807f360894a13ba1a3210667c828492db98dca3e2076cc3735a920a3ca505d382bbc60001b9050805491505090565b3660008037600080366000845af43d6000803e806000811461043f573d6000f35b3d6000fd5b61044d81610495565b8073ffffffffffffffffffffffffffffffffffffffff167fbc7cd75a20ee27fd9adebab32041f755214dbc6bffa90cc0225b39da2e5c2d3b60405160405180910390a250565b565b61049e8161050c565b6104dd576040517f08c379a00000000000000000000000000000000000000000000000000000000081526004016104d490610848565b60405180910390fd5b60007f360894a13ba1a3210667c828492db98dca3e2076cc3735a920a3ca505d382bbc60001b90508181555050565b60008060007fc5d2460186f7233c927e7db2dcc703c0e500b653ca82273b7bfad8045d85a47060001b9050833f915080821415801561054e57506000801b8214155b92505050919050565b600080fd5b600080fd5b600073ffffffffffffffffffffffffffffffffffffffff82169050919050565b600061058c82610561565b9050919050565b61059c81610581565b81146105a757600080fd5b50565b6000813590506105b981610593565b92915050565b6000602082840312156105d5576105d4610557565b5b60006105e3848285016105aa565b91505092915050565b600080fd5b600080fd5b600080fd5b60008083601f840112610611576106106105ec565b5b8235905067ffffffffffffffff81111561062e5761062d6105f1565b5b60208301915083600182028301111561064a576106496105f6565b5b9250929050565b60008060006040848603121561066a57610669610557565b5b6000610678868287016105aa565b935050602084013567ffffffffffffffff8111156106995761069861055c565b5b6106a5868287016105fb565b92509250509250925092565b6106ba81610581565b82525050565b60006020820190506106d560008301846106b1565b92915050565b600081905092915050565b82818337600083830152505050565b600061070183856106db565b935061070e8385846106e6565b82840190509392505050565b60006107278284866106f5565b91508190509392505050565b600082825260208201905092915050565b7f43616e6e6f742063616c6c2066616c6c6261636b2066756e6374696f6e20667260008201527f6f6d207468652070726f78792061646d696e0000000000000000000000000000602082015250565b60006107a0603283610733565b91506107ab82610744565b604082019050919050565b600060208201905081810360008301526107cf81610793565b9050919050565b7f43616e6e6f742073657420612070726f787920696d706c656d656e746174696f60008201527f6e20746f2061206e6f6e2d636f6e747261637420616464726573730000000000602082015250565b6000610832603b83610733565b915061083d826107d6565b604082019050919050565b6000602082019050818103600083015261086181610825565b905091905056fea26469706673582212205b5740c695af0cbe8b764529954eeecae5b3551c33df7bd224de46d4074d54c264736f6c634300080a0033",
  "linkReferences": {},
  "deployedLinkReferences": {}
}