{
  "_format": "hh-sol-artifact-1",
  "contractName": "MintableDelegationERC20",
  "sourceName": "contracts/Aave_Contracts/mocks/tokens/MintableDelegationERC20.sol",
  "abi": [
    {
      "inputs": [
        {
          "internalType": "string",
          "name": "name",
          "type": "string"
        },
        {
          "internalType": "string",
          "name": "symbol",
          "type": "string"
        },
        {
          "internalType": "uint8",
          "name": "decimals",
          "type": "uint8"
        }
      ],
      "stateMutability": "nonpayable",
      "type": "constructor"
    },
    {
      "anonymous": false,
      "inputs": [
        {
          "indexed": true,
          "internalType": "address",
          "name": "owner",
          "type": "address"
        },
        {
          "indexed": true,
          "internalType": "address",
          "name": "spender",
          "type": "address"
        },
        {
          "indexed": false,
          "internalType": "uint256",
          "name": "value",
          "type": "uint256"
        }
      ],
      "name": "Approval",
      "type": "event"
    },
    {
      "anonymous": false,
      "inputs": [
        {
          "indexed": true,
          "internalType": "address",
          "name": "from",
          "type": "address"
        },
        {
          "indexed": true,
          "internalType": "address",
          "name": "to",
          "type": "address"
        },
        {
          "indexed": false,
          "internalType": "uint256",
          "name": "value",
          "type": "uint256"
        }
      ],
      "name": "Transfer",
      "type": "event"
    },
    {
      "inputs": [
        {
          "internalType": "address",
          "name": "owner",
          "type": "address"
        },
        {
          "internalType": "address",
          "name": "spender",
          "type": "address"
        }
      ],
      "name": "allowance",
      "outputs": [
        {
          "internalType": "uint256",
          "name": "",
          "type": "uint256"
        }
      ],
      "stateMutability": "view",
      "type": "function"
    },
    {
      "inputs": [
        {
          "internalType": "address",
          "name": "spender",
          "type": "address"
        },
        {
          "internalType": "uint256",
          "name": "amount",
          "type": "uint256"
        }
      ],
      "name": "approve",
      "outputs": [
        {
          "internalType": "bool",
          "name": "",
          "type": "bool"
        }
      ],
      "stateMutability": "nonpayable",
      "type": "function"
    },
    {
      "inputs": [
        {
          "internalType": "address",
          "name": "account",
          "type": "address"
        }
      ],
      "name": "balanceOf",
      "outputs": [
        {
          "internalType": "uint256",
          "name": "",
          "type": "uint256"
        }
      ],
      "stateMutability": "view",
      "type": "function"
    },
    {
      "inputs": [],
      "name": "decimals",
      "outputs": [
        {
          "internalType": "uint8",
          "name": "",
          "type": "uint8"
        }
      ],
      "stateMutability": "view",
      "type": "function"
    },
    {
      "inputs": [
        {
          "internalType": "address",
          "name": "spender",
          "type": "address"
        },
        {
          "internalType": "uint256",
          "name": "subtractedValue",
          "type": "uint256"
        }
      ],
      "name": "decreaseAllowance",
      "outputs": [
        {
          "internalType": "bool",
          "name": "",
          "type": "bool"
        }
      ],
      "stateMutability": "nonpayable",
      "type": "function"
    },
    {
      "inputs": [
        {
          "internalType": "address",
          "name": "delegateeAddress",
          "type": "address"
        }
      ],
      "name": "delegate",
      "outputs": [],
      "stateMutability": "nonpayable",
      "type": "function"
    },
    {
      "inputs": [],
      "name": "delegatee",
      "outputs": [
        {
          "internalType": "address",
          "name": "",
          "type": "address"
        }
      ],
      "stateMutability": "view",
      "type": "function"
    },
    {
      "inputs": [
        {
          "internalType": "address",
          "name": "spender",
          "type": "address"
        },
        {
          "internalType": "uint256",
          "name": "addedValue",
          "type": "uint256"
        }
      ],
      "name": "increaseAllowance",
      "outputs": [
        {
          "internalType": "bool",
          "name": "",
          "type": "bool"
        }
      ],
      "stateMutability": "nonpayable",
      "type": "function"
    },
    {
      "inputs": [
        {
          "internalType": "uint256",
          "name": "value",
          "type": "uint256"
        }
      ],
      "name": "mint",
      "outputs": [
        {
          "internalType": "bool",
          "name": "",
          "type": "bool"
        }
      ],
      "stateMutability": "nonpayable",
      "type": "function"
    },
    {
      "inputs": [],
      "name": "name",
      "outputs": [
        {
          "internalType": "string",
          "name": "",
          "type": "string"
        }
      ],
      "stateMutability": "view",
      "type": "function"
    },
    {
      "inputs": [],
      "name": "symbol",
      "outputs": [
        {
          "internalType": "string",
          "name": "",
          "type": "string"
        }
      ],
      "stateMutability": "view",
      "type": "function"
    },
    {
      "inputs": [],
      "name": "totalSupply",
      "outputs": [
        {
          "internalType": "uint256",
          "name": "",
          "type": "uint256"
        }
      ],
      "stateMutability": "view",
      "type": "function"
    },
    {
      "inputs": [
        {
          "internalType": "address",
          "name": "recipient",
          "type": "address"
        },
        {
          "internalType": "uint256",
          "name": "amount",
          "type": "uint256"
        }
      ],
      "name": "transfer",
      "outputs": [
        {
          "internalType": "bool",
          "name": "",
          "type": "bool"
        }
      ],
      "stateMutability": "nonpayable",
      "type": "function"
    },
    {
      "inputs": [
        {
          "internalType": "address",
          "name": "sender",
          "type": "address"
        },
        {
          "internalType": "address",
          "name": "recipient",
          "type": "address"
        },
        {
          "internalType": "uint256",
          "name": "amount",
          "type": "uint256"
        }
      ],
      "name": "transferFrom",
      "outputs": [
        {
          "internalType": "bool",
          "name": "",
          "type": "bool"
        }
      ],
      "stateMutability": "nonpayable",
      "type": "function"
    }
  ],
  "bytecode": "0x60806040523480156200001157600080fd5b5060405162001a1438038062001a1483398181016040528101906200003791906200034c565b8282816003908051906020019062000051929190620000c1565b5080600490805190602001906200006a929190620000c1565b506012600560006101000a81548160ff021916908360ff16021790555050506200009a81620000a360201b60201c565b5050506200044b565b80600560006101000a81548160ff021916908360ff16021790555050565b828054620000cf9062000415565b90600052602060002090601f016020900481019282620000f357600085556200013f565b82601f106200010e57805160ff19168380011785556200013f565b828001600101855582156200013f579182015b828111156200013e57825182559160200191906001019062000121565b5b5090506200014e919062000152565b5090565b5b808211156200016d57600081600090555060010162000153565b5090565b6000604051905090565b600080fd5b600080fd5b600080fd5b600080fd5b6000601f19601f8301169050919050565b7f4e487b7100000000000000000000000000000000000000000000000000000000600052604160045260246000fd5b620001da826200018f565b810181811067ffffffffffffffff82111715620001fc57620001fb620001a0565b5b80604052505050565b60006200021162000171565b90506200021f8282620001cf565b919050565b600067ffffffffffffffff821115620002425762000241620001a0565b5b6200024d826200018f565b9050602081019050919050565b60005b838110156200027a5780820151818401526020810190506200025d565b838111156200028a576000848401525b50505050565b6000620002a7620002a18462000224565b62000205565b905082815260208101848484011115620002c657620002c56200018a565b5b620002d38482856200025a565b509392505050565b600082601f830112620002f357620002f262000185565b5b81516200030584826020860162000290565b91505092915050565b600060ff82169050919050565b62000326816200030e565b81146200033257600080fd5b50565b60008151905062000346816200031b565b92915050565b6000806000606084860312156200036857620003676200017b565b5b600084015167ffffffffffffffff81111562000389576200038862000180565b5b6200039786828701620002db565b935050602084015167ffffffffffffffff811115620003bb57620003ba62000180565b5b620003c986828701620002db565b9250506040620003dc8682870162000335565b9150509250925092565b7f4e487b7100000000000000000000000000000000000000000000000000000000600052602260045260246000fd5b600060028204905060018216806200042e57607f821691505b60208210811415620004455762000444620003e6565b5b50919050565b6115b9806200045b6000396000f3fe608060405234801561001057600080fd5b50600436106100ea5760003560e01c80635c19a95c1161008c578063a0712d6811610066578063a0712d6814610261578063a457c2d714610291578063a9059cbb146102c1578063dd62ed3e146102f1576100ea565b80635c19a95c146101f757806370a082311461021357806395d89b4114610243576100ea565b80631e31d053116100c85780631e31d0531461015b57806323b872dd14610179578063313ce567146101a957806339509351146101c7576100ea565b806306fdde03146100ef578063095ea7b31461010d57806318160ddd1461013d575b600080fd5b6100f7610321565b6040516101049190610f52565b60405180910390f35b6101276004803603810190610122919061100d565b6103b3565b6040516101349190611068565b60405180910390f35b6101456103d1565b6040516101529190611092565b60405180910390f35b6101636103db565b60405161017091906110bc565b60405180910390f35b610193600480360381019061018e91906110d7565b610401565b6040516101a09190611068565b60405180910390f35b6101b16104da565b6040516101be9190611146565b60405180910390f35b6101e160048036038101906101dc919061100d565b6104f1565b6040516101ee9190611068565b60405180910390f35b610211600480360381019061020c9190611161565b6105a4565b005b61022d60048036038101906102289190611161565b6105e8565b60405161023a9190611092565b60405180910390f35b61024b610630565b6040516102589190610f52565b60405180910390f35b61027b6004803603810190610276919061118e565b6106c2565b6040516102889190611068565b60405180910390f35b6102ab60048036038101906102a6919061100d565b6106d7565b6040516102b89190611068565b60405180910390f35b6102db60048036038101906102d6919061100d565b6107a4565b6040516102e89190611068565b60405180910390f35b61030b600480360381019061030691906111bb565b6107c2565b6040516103189190611092565b60405180910390f35b6060600380546103309061122a565b80601f016020809104026020016040519081016040528092919081815260200182805461035c9061122a565b80156103a95780601f1061037e576101008083540402835291602001916103a9565b820191906000526020600020905b81548152906001019060200180831161038c57829003601f168201915b5050505050905090565b60006103c76103c0610849565b8484610851565b6001905092915050565b6000600254905090565b600560019054906101000a900473ffffffffffffffffffffffffffffffffffffffff1681565b600061040e848484610a1c565b6104cf8461041a610849565b6104ca8560405180606001604052806028815260200161153760289139600160008b73ffffffffffffffffffffffffffffffffffffffff1673ffffffffffffffffffffffffffffffffffffffff1681526020019081526020016000206000610480610849565b73ffffffffffffffffffffffffffffffffffffffff1673ffffffffffffffffffffffffffffffffffffffff16815260200190815260200160002054610cb19092919063ffffffff16565b610851565b600190509392505050565b6000600560009054906101000a900460ff16905090565b600061059a6104fe610849565b84610595856001600061050f610849565b73ffffffffffffffffffffffffffffffffffffffff1673ffffffffffffffffffffffffffffffffffffffff16815260200190815260200160002060008973ffffffffffffffffffffffffffffffffffffffff1673ffffffffffffffffffffffffffffffffffffffff16815260200190815260200160002054610d0690919063ffffffff16565b610851565b6001905092915050565b80600560016101000a81548173ffffffffffffffffffffffffffffffffffffffff021916908373ffffffffffffffffffffffffffffffffffffffff16021790555050565b60008060008373ffffffffffffffffffffffffffffffffffffffff1673ffffffffffffffffffffffffffffffffffffffff168152602001908152602001600020549050919050565b60606004805461063f9061122a565b80601f016020809104026020016040519081016040528092919081815260200182805461066b9061122a565b80156106b85780601f1061068d576101008083540402835291602001916106b8565b820191906000526020600020905b81548152906001019060200180831161069b57829003601f168201915b5050505050905090565b60006106ce3383610d20565b60019050919050565b600061079a6106e4610849565b846107958560405180606001604052806025815260200161155f602591396001600061070e610849565b73ffffffffffffffffffffffffffffffffffffffff1673ffffffffffffffffffffffffffffffffffffffff16815260200190815260200160002060008a73ffffffffffffffffffffffffffffffffffffffff1673ffffffffffffffffffffffffffffffffffffffff16815260200190815260200160002054610cb19092919063ffffffff16565b610851565b6001905092915050565b60006107b86107b1610849565b8484610a1c565b6001905092915050565b6000600160008473ffffffffffffffffffffffffffffffffffffffff1673ffffffffffffffffffffffffffffffffffffffff16815260200190815260200160002060008373ffffffffffffffffffffffffffffffffffffffff1673ffffffffffffffffffffffffffffffffffffffff16815260200190815260200160002054905092915050565b600033905090565b600073ffffffffffffffffffffffffffffffffffffffff168373ffffffffffffffffffffffffffffffffffffffff1614156108c1576040517f08c379a00000000000000000000000000000000000000000000000000000000081526004016108b8906112ce565b60405180910390fd5b600073ffffffffffffffffffffffffffffffffffffffff168273ffffffffffffffffffffffffffffffffffffffff161415610931576040517f08c379a000000000000000000000000000000000000000000000000000000000815260040161092890611360565b60405180910390fd5b80600160008573ffffffffffffffffffffffffffffffffffffffff1673ffffffffffffffffffffffffffffffffffffffff16815260200190815260200160002060008473ffffffffffffffffffffffffffffffffffffffff1673ffffffffffffffffffffffffffffffffffffffff168152602001908152602001600020819055508173ffffffffffffffffffffffffffffffffffffffff168373ffffffffffffffffffffffffffffffffffffffff167f8c5be1e5ebec7d5bd14f71427d1e84f3dd0314c0f7b2291e5b200ac8c7c3b92583604051610a0f9190611092565b60405180910390a3505050565b600073ffffffffffffffffffffffffffffffffffffffff168373ffffffffffffffffffffffffffffffffffffffff161415610a8c576040517f08c379a0000000000000000000000000000000000000000000000000000000008152600401610a83906113f2565b60405180910390fd5b600073ffffffffffffffffffffffffffffffffffffffff168273ffffffffffffffffffffffffffffffffffffffff161415610afc576040517f08c379a0000000000000000000000000000000000000000000000000000000008152600401610af390611484565b60405180910390fd5b610b07838383610eb4565b610b7281604051806060016040528060268152602001611511602691396000808773ffffffffffffffffffffffffffffffffffffffff1673ffffffffffffffffffffffffffffffffffffffff16815260200190815260200160002054610cb19092919063ffffffff16565b6000808573ffffffffffffffffffffffffffffffffffffffff1673ffffffffffffffffffffffffffffffffffffffff16815260200190815260200160002081905550610c05816000808573ffffffffffffffffffffffffffffffffffffffff1673ffffffffffffffffffffffffffffffffffffffff16815260200190815260200160002054610d0690919063ffffffff16565b6000808473ffffffffffffffffffffffffffffffffffffffff1673ffffffffffffffffffffffffffffffffffffffff168152602001908152602001600020819055508173ffffffffffffffffffffffffffffffffffffffff168373ffffffffffffffffffffffffffffffffffffffff167fddf252ad1be2c89b69c2b068fc378daa952ba7f163c4a11628f55a4df523b3ef83604051610ca49190611092565b60405180910390a3505050565b60008383850391508111158290610cfe576040517f08c379a0000000000000000000000000000000000000000000000000000000008152600401610cf59190610f52565b60405180910390fd5b509392505050565b6000828284019150811015610d1a57600080fd5b92915050565b600073ffffffffffffffffffffffffffffffffffffffff168273ffffffffffffffffffffffffffffffffffffffff161415610d90576040517f08c379a0000000000000000000000000000000000000000000000000000000008152600401610d87906114f0565b60405180910390fd5b610d9c60008383610eb4565b610db181600254610d0690919063ffffffff16565b600281905550610e08816000808573ffffffffffffffffffffffffffffffffffffffff1673ffffffffffffffffffffffffffffffffffffffff16815260200190815260200160002054610d0690919063ffffffff16565b6000808473ffffffffffffffffffffffffffffffffffffffff1673ffffffffffffffffffffffffffffffffffffffff168152602001908152602001600020819055508173ffffffffffffffffffffffffffffffffffffffff16600073ffffffffffffffffffffffffffffffffffffffff167fddf252ad1be2c89b69c2b068fc378daa952ba7f163c4a11628f55a4df523b3ef83604051610ea89190611092565b60405180910390a35050565b505050565b600081519050919050565b600082825260208201905092915050565b60005b83811015610ef3578082015181840152602081019050610ed8565b83811115610f02576000848401525b50505050565b6000601f19601f8301169050919050565b6000610f2482610eb9565b610f2e8185610ec4565b9350610f3e818560208601610ed5565b610f4781610f08565b840191505092915050565b60006020820190508181036000830152610f6c8184610f19565b905092915050565b600080fd5b600073ffffffffffffffffffffffffffffffffffffffff82169050919050565b6000610fa482610f79565b9050919050565b610fb481610f99565b8114610fbf57600080fd5b50565b600081359050610fd181610fab565b92915050565b6000819050919050565b610fea81610fd7565b8114610ff557600080fd5b50565b60008135905061100781610fe1565b92915050565b6000806040838503121561102457611023610f74565b5b600061103285828601610fc2565b925050602061104385828601610ff8565b9150509250929050565b60008115159050919050565b6110628161104d565b82525050565b600060208201905061107d6000830184611059565b92915050565b61108c81610fd7565b82525050565b60006020820190506110a76000830184611083565b92915050565b6110b681610f99565b82525050565b60006020820190506110d160008301846110ad565b92915050565b6000806000606084860312156110f0576110ef610f74565b5b60006110fe86828701610fc2565b935050602061110f86828701610fc2565b925050604061112086828701610ff8565b9150509250925092565b600060ff82169050919050565b6111408161112a565b82525050565b600060208201905061115b6000830184611137565b92915050565b60006020828403121561117757611176610f74565b5b600061118584828501610fc2565b91505092915050565b6000602082840312156111a4576111a3610f74565b5b60006111b284828501610ff8565b91505092915050565b600080604083850312156111d2576111d1610f74565b5b60006111e085828601610fc2565b92505060206111f185828601610fc2565b9150509250929050565b7f4e487b7100000000000000000000000000000000000000000000000000000000600052602260045260246000fd5b6000600282049050600182168061124257607f821691505b60208210811415611256576112556111fb565b5b50919050565b7f45524332303a20617070726f76652066726f6d20746865207a65726f2061646460008201527f7265737300000000000000000000000000000000000000000000000000000000602082015250565b60006112b8602483610ec4565b91506112c38261125c565b604082019050919050565b600060208201905081810360008301526112e7816112ab565b9050919050565b7f45524332303a20617070726f766520746f20746865207a65726f20616464726560008201527f7373000000000000000000000000000000000000000000000000000000000000602082015250565b600061134a602283610ec4565b9150611355826112ee565b604082019050919050565b600060208201905081810360008301526113798161133d565b9050919050565b7f45524332303a207472616e736665722066726f6d20746865207a65726f20616460008201527f6472657373000000000000000000000000000000000000000000000000000000602082015250565b60006113dc602583610ec4565b91506113e782611380565b604082019050919050565b6000602082019050818103600083015261140b816113cf565b9050919050565b7f45524332303a207472616e7366657220746f20746865207a65726f206164647260008201527f6573730000000000000000000000000000000000000000000000000000000000602082015250565b600061146e602383610ec4565b915061147982611412565b604082019050919050565b6000602082019050818103600083015261149d81611461565b9050919050565b7f45524332303a206d696e7420746f20746865207a65726f206164647265737300600082015250565b60006114da601f83610ec4565b91506114e5826114a4565b602082019050919050565b60006020820190508181036000830152611509816114cd565b905091905056fe45524332303a207472616e7366657220616d6f756e7420657863656564732062616c616e636545524332303a207472616e7366657220616d6f756e74206578636565647320616c6c6f77616e636545524332303a2064656372656173656420616c6c6f77616e63652062656c6f77207a65726fa2646970667358221220aa56b64a326f8b944ff65f4b09889db4ce65c3b12fe366ab19fe65558741396c64736f6c634300080a0033",
  "linkReferences": {},
  "deployedLinkReferences": {}
}