{
  "_format": "hh-sol-artifact-1",
  "contractName": "PriceOracle",
  "sourceName": "contracts/Aave_Contracts/mocks/oracle/PriceOracle.sol",
  "abi": [
    {
      "anonymous": false,
      "inputs": [
        {
          "indexed": false,
          "internalType": "address",
          "name": "asset",
          "type": "address"
        },
        {
          "indexed": false,
          "internalType": "uint256",
          "name": "price",
          "type": "uint256"
        },
        {
          "indexed": false,
          "internalType": "uint256",
          "name": "timestamp",
          "type": "uint256"
        }
      ],
      "name": "AssetPriceUpdated",
      "type": "event"
    },
    {
      "anonymous": false,
      "inputs": [
        {
          "indexed": false,
          "internalType": "uint256",
          "name": "price",
          "type": "uint256"
        },
        {
          "indexed": false,
          "internalType": "uint256",
          "name": "timestamp",
          "type": "uint256"
        }
      ],
      "name": "EthPriceUpdated",
      "type": "event"
    },
    {
      "inputs": [
        {
          "internalType": "address",
          "name": "asset",
          "type": "address"
        }
      ],
      "name": "getAssetPrice",
      "outputs": [
        {
          "internalType": "uint256",
          "name": "",
          "type": "uint256"
        }
      ],
      "stateMutability": "view",
      "type": "function"
    },
    {
      "inputs": [],
      "name": "getEthUsdPrice",
      "outputs": [
        {
          "internalType": "uint256",
          "name": "",
          "type": "uint256"
        }
      ],
      "stateMutability": "view",
      "type": "function"
    },
    {
      "inputs": [
        {
          "internalType": "address",
          "name": "asset",
          "type": "address"
        },
        {
          "internalType": "uint256",
          "name": "price",
          "type": "uint256"
        }
      ],
      "name": "setAssetPrice",
      "outputs": [],
      "stateMutability": "nonpayable",
      "type": "function"
    },
    {
      "inputs": [
        {
          "internalType": "uint256",
          "name": "price",
          "type": "uint256"
        }
      ],
      "name": "setEthUsdPrice",
      "outputs": [],
      "stateMutability": "nonpayable",
      "type": "function"
    }
  ],
  "bytecode": "0x608060405234801561001057600080fd5b506103f0806100206000396000f3fe608060405234801561001057600080fd5b506004361061004c5760003560e01c806351323f7214610051578063a0a8045e1461006d578063b3596f071461008b578063b951883a146100bb575b600080fd5b61006b60048036038101906100669190610287565b6100d7565b005b610075610159565b60405161008291906102d6565b60405180910390f35b6100a560048036038101906100a091906102f1565b610163565b6040516100b291906102d6565b60405180910390f35b6100d560048036038101906100d0919061031e565b6101ab565b005b806000808473ffffffffffffffffffffffffffffffffffffffff1673ffffffffffffffffffffffffffffffffffffffff168152602001908152602001600020819055507fce6e0b57367bae95ca7198e1172f653ea64a645c16ab586b4cefa9237bfc2d9282824260405161014d9392919061035a565b60405180910390a15050565b6000600154905090565b60008060008373ffffffffffffffffffffffffffffffffffffffff1673ffffffffffffffffffffffffffffffffffffffff168152602001908152602001600020549050919050565b806001819055507fb4f35977939fa8b5ffe552d517a8ff5223046b1fdd3ee0068ae38d1e2b8d001681426040516101e3929190610391565b60405180910390a150565b600080fd5b600073ffffffffffffffffffffffffffffffffffffffff82169050919050565b600061021e826101f3565b9050919050565b61022e81610213565b811461023957600080fd5b50565b60008135905061024b81610225565b92915050565b6000819050919050565b61026481610251565b811461026f57600080fd5b50565b6000813590506102818161025b565b92915050565b6000806040838503121561029e5761029d6101ee565b5b60006102ac8582860161023c565b92505060206102bd85828601610272565b9150509250929050565b6102d081610251565b82525050565b60006020820190506102eb60008301846102c7565b92915050565b600060208284031215610307576103066101ee565b5b60006103158482850161023c565b91505092915050565b600060208284031215610334576103336101ee565b5b600061034284828501610272565b91505092915050565b61035481610213565b82525050565b600060608201905061036f600083018661034b565b61037c60208301856102c7565b61038960408301846102c7565b949350505050565b60006040820190506103a660008301856102c7565b6103b360208301846102c7565b939250505056fea2646970667358221220a174e616b6c3cdc3acdd02295d38927f33f396321063b2a37b95cbecda63118664736f6c634300080a0033",
  "linkReferences": {},
  "deployedLinkReferences": {}
}