{
  "_format": "hh-sol-artifact-1",
  "contractName": "FlashloanAttacker",
  "sourceName": "contracts/Aave_Contracts/mocks/tests/FlashloanAttacker.sol",
  "abi": [
    {
      "inputs": [
        {
          "internalType": "contract IPoolAddressesProvider",
          "name": "provider",
          "type": "address"
        }
      ],
      "stateMutability": "nonpayable",
      "type": "constructor"
    },
    {
      "inputs": [],
      "name": "ADDRESSES_PROVIDER",
      "outputs": [
        {
          "internalType": "contract IPoolAddressesProvider",
          "name": "",
          "type": "address"
        }
      ],
      "stateMutability": "view",
      "type": "function"
    },
    {
      "inputs": [],
      "name": "POOL",
      "outputs": [
        {
          "internalType": "contract IPool",
          "name": "",
          "type": "address"
        }
      ],
      "stateMutability": "view",
      "type": "function"
    },
    {
      "inputs": [
        {
          "internalType": "address",
          "name": "asset",
          "type": "address"
        },
        {
          "internalType": "uint256",
          "name": "amount",
          "type": "uint256"
        },
        {
          "internalType": "uint256",
          "name": "premium",
          "type": "uint256"
        },
        {
          "internalType": "address",
          "name": "",
          "type": "address"
        },
        {
          "internalType": "bytes",
          "name": "",
          "type": "bytes"
        }
      ],
      "name": "executeOperation",
      "outputs": [
        {
          "internalType": "bool",
          "name": "",
          "type": "bool"
        }
      ],
      "stateMutability": "nonpayable",
      "type": "function"
    },
    {
      "inputs": [
        {
          "internalType": "address",
          "name": "asset",
          "type": "address"
        },
        {
          "internalType": "uint256",
          "name": "amount",
          "type": "uint256"
        }
      ],
      "name": "supplyAsset",
      "outputs": [],
      "stateMutability": "nonpayable",
      "type": "function"
    }
  ],
  "bytecode": "0x60c06040523480156200001157600080fd5b50604051620011ec380380620011ec833981810160405281019062000037919062000249565b808073ffffffffffffffffffffffffffffffffffffffff1660808173ffffffffffffffffffffffffffffffffffffffff16815250508073ffffffffffffffffffffffffffffffffffffffff1663026b1d5f6040518163ffffffff1660e01b8152600401602060405180830381865afa158015620000b8573d6000803e3d6000fd5b505050506040513d601f19601f82011682018060405250810190620000de9190620002ac565b73ffffffffffffffffffffffffffffffffffffffff1660a08173ffffffffffffffffffffffffffffffffffffffff1681525050508073ffffffffffffffffffffffffffffffffffffffff1663026b1d5f6040518163ffffffff1660e01b8152600401602060405180830381865afa1580156200015e573d6000803e3d6000fd5b505050506040513d601f19601f82011682018060405250810190620001849190620002ac565b600160006101000a81548173ffffffffffffffffffffffffffffffffffffffff021916908373ffffffffffffffffffffffffffffffffffffffff16021790555050620002de565b600080fd5b600073ffffffffffffffffffffffffffffffffffffffff82169050919050565b6000620001fd82620001d0565b9050919050565b60006200021182620001f0565b9050919050565b620002238162000204565b81146200022f57600080fd5b50565b600081519050620002438162000218565b92915050565b600060208284031215620002625762000261620001cb565b5b6000620002728482850162000232565b91505092915050565b6200028681620001f0565b81146200029257600080fd5b50565b600081519050620002a6816200027b565b92915050565b600060208284031215620002c557620002c4620001cb565b5b6000620002d58482850162000295565b91505092915050565b60805160a051610ee26200030a6000396000818161039a015261042c0152600060db0152610ee26000f3fe608060405234801561001057600080fd5b506004361061004c5760003560e01c80630542975c146100515780631416d7621461006f5780631b11d0ff1461008b5780637535d246146100bb575b600080fd5b6100596100d9565b60405161006691906106ad565b60405180910390f35b61008960048036038101906100849190610750565b6100fd565b005b6100a560048036038101906100a091906108d6565b6102d9565b6040516100b29190610988565b60405180910390f35b6100c361042a565b6040516100d091906109c4565b60405180910390f35b7f000000000000000000000000000000000000000000000000000000000000000081565b60008290508073ffffffffffffffffffffffffffffffffffffffff1663a0712d68836040518263ffffffff1660e01b815260040161013b91906109ee565b6020604051808303816000875af115801561015a573d6000803e3d6000fd5b505050506040513d601f19601f8201168201806040525081019061017e9190610a35565b508073ffffffffffffffffffffffffffffffffffffffff1663095ea7b3600160009054906101000a900473ffffffffffffffffffffffffffffffffffffffff167fffffffffffffffffffffffffffffffffffffffffffffffffffffffffffffffff6040518363ffffffff1660e01b81526004016101fc929190610a71565b6020604051808303816000875af115801561021b573d6000803e3d6000fd5b505050506040513d601f19601f8201168201806040525081019061023f9190610a35565b50600160009054906101000a900473ffffffffffffffffffffffffffffffffffffffff1673ffffffffffffffffffffffffffffffffffffffff1663617ba03784843060006040518563ffffffff1660e01b81526004016102a29493929190610ae3565b600060405180830381600087803b1580156102bc57600080fd5b505af11580156102d0573d6000803e3d6000fd5b50505050505050565b60008086905060006102f4868861044e90919063ffffffff16565b90506102ff88610468565b8173ffffffffffffffffffffffffffffffffffffffff1663a0712d68876040518263ffffffff1660e01b815260040161033891906109ee565b6020604051808303816000875af1158015610357573d6000803e3d6000fd5b505050506040513d601f19601f8201168201806040525081019061037b9190610a35565b508773ffffffffffffffffffffffffffffffffffffffff1663095ea7b37f0000000000000000000000000000000000000000000000000000000000000000836040518363ffffffff1660e01b81526004016103d7929190610a71565b6020604051808303816000875af11580156103f6573d6000803e3d6000fd5b505050506040513d601f19601f8201168201806040525081019061041a9190610a35565b5060019250505095945050505050565b7f000000000000000000000000000000000000000000000000000000000000000081565b600082828401915081101561046257600080fd5b92915050565b6000600160009054906101000a900473ffffffffffffffffffffffffffffffffffffffff1673ffffffffffffffffffffffffffffffffffffffff166335ea6a75836040518263ffffffff1660e01b81526004016104c59190610b28565b6101e060405180830381865afa1580156104e3573d6000803e3d6000fd5b505050506040513d601f19601f820116820180604052508101906105079190610dc3565b9050600082905060008173ffffffffffffffffffffffffffffffffffffffff166370a082318461010001516040518263ffffffff1660e01b815260040161054e9190610b28565b602060405180830381865afa15801561056b573d6000803e3d6000fd5b505050506040513d601f19601f8201168201806040525081019061058f9190610df1565b9050600160009054906101000a900473ffffffffffffffffffffffffffffffffffffffff1673ffffffffffffffffffffffffffffffffffffffff1663a415bcad858360026000306040518663ffffffff1660e01b81526004016105f6959493929190610e59565b600060405180830381600087803b15801561061057600080fd5b505af1158015610624573d6000803e3d6000fd5b5050505050505050565b600073ffffffffffffffffffffffffffffffffffffffff82169050919050565b6000819050919050565b600061067361066e6106698461062e565b61064e565b61062e565b9050919050565b600061068582610658565b9050919050565b60006106978261067a565b9050919050565b6106a78161068c565b82525050565b60006020820190506106c2600083018461069e565b92915050565b6000604051905090565b600080fd5b600080fd5b60006106e78261062e565b9050919050565b6106f7816106dc565b811461070257600080fd5b50565b600081359050610714816106ee565b92915050565b6000819050919050565b61072d8161071a565b811461073857600080fd5b50565b60008135905061074a81610724565b92915050565b60008060408385031215610767576107666106d2565b5b600061077585828601610705565b92505060206107868582860161073b565b9150509250929050565b600080fd5b600080fd5b6000601f19601f8301169050919050565b7f4e487b7100000000000000000000000000000000000000000000000000000000600052604160045260246000fd5b6107e38261079a565b810181811067ffffffffffffffff82111715610802576108016107ab565b5b80604052505050565b60006108156106c8565b905061082182826107da565b919050565b600067ffffffffffffffff821115610841576108406107ab565b5b61084a8261079a565b9050602081019050919050565b82818337600083830152505050565b600061087961087484610826565b61080b565b90508281526020810184848401111561089557610894610795565b5b6108a0848285610857565b509392505050565b600082601f8301126108bd576108bc610790565b5b81356108cd848260208601610866565b91505092915050565b600080600080600060a086880312156108f2576108f16106d2565b5b600061090088828901610705565b95505060206109118882890161073b565b94505060406109228882890161073b565b935050606061093388828901610705565b925050608086013567ffffffffffffffff811115610954576109536106d7565b5b610960888289016108a8565b9150509295509295909350565b60008115159050919050565b6109828161096d565b82525050565b600060208201905061099d6000830184610979565b92915050565b60006109ae8261067a565b9050919050565b6109be816109a3565b82525050565b60006020820190506109d960008301846109b5565b92915050565b6109e88161071a565b82525050565b6000602082019050610a0360008301846109df565b92915050565b610a128161096d565b8114610a1d57600080fd5b50565b600081519050610a2f81610a09565b92915050565b600060208284031215610a4b57610a4a6106d2565b5b6000610a5984828501610a20565b91505092915050565b610a6b816106dc565b82525050565b6000604082019050610a866000830185610a62565b610a9360208301846109df565b9392505050565b6000819050919050565b600061ffff82169050919050565b6000610acd610ac8610ac384610a9a565b61064e565b610aa4565b9050919050565b610add81610ab2565b82525050565b6000608082019050610af86000830187610a62565b610b0560208301866109df565b610b126040830185610a62565b610b1f6060830184610ad4565b95945050505050565b6000602082019050610b3d6000830184610a62565b92915050565b600080fd5b600081519050610b5781610724565b92915050565b600060208284031215610b7357610b72610b43565b5b610b7d602061080b565b90506000610b8d84828501610b48565b60008301525092915050565b60006fffffffffffffffffffffffffffffffff82169050919050565b610bbe81610b99565b8114610bc957600080fd5b50565b600081519050610bdb81610bb5565b92915050565b600064ffffffffff82169050919050565b610bfb81610be1565b8114610c0657600080fd5b50565b600081519050610c1881610bf2565b92915050565b610c2781610aa4565b8114610c3257600080fd5b50565b600081519050610c4481610c1e565b92915050565b600081519050610c59816106ee565b92915050565b60006101e08284031215610c7657610c75610b43565b5b610c816101e061080b565b90506000610c9184828501610b5d565b6000830152506020610ca584828501610bcc565b6020830152506040610cb984828501610bcc565b6040830152506060610ccd84828501610bcc565b6060830152506080610ce184828501610bcc565b60808301525060a0610cf584828501610bcc565b60a08301525060c0610d0984828501610c09565b60c08301525060e0610d1d84828501610c35565b60e083015250610100610d3284828501610c4a565b61010083015250610120610d4884828501610c4a565b61012083015250610140610d5e84828501610c4a565b61014083015250610160610d7484828501610c4a565b61016083015250610180610d8a84828501610bcc565b610180830152506101a0610da084828501610bcc565b6101a0830152506101c0610db684828501610bcc565b6101c08301525092915050565b60006101e08284031215610dda57610dd96106d2565b5b6000610de884828501610c5f565b91505092915050565b600060208284031215610e0757610e066106d2565b5b6000610e1584828501610b48565b91505092915050565b6000819050919050565b6000610e43610e3e610e3984610e1e565b61064e565b61071a565b9050919050565b610e5381610e28565b82525050565b600060a082019050610e6e6000830188610a62565b610e7b60208301876109df565b610e886040830186610e4a565b610e956060830185610ad4565b610ea26080830184610a62565b969550505050505056fea26469706673582212207ea798ade4a793439a5e754ce0f1f4c3ec42d1aaf8d2dbe5c68c31b4a1d8e7a564736f6c634300080a0033",
  "linkReferences": {},
  "deployedLinkReferences": {}
}