{
  "_format": "hh-sol-artifact-1",
  "contractName": "Pool",
  "sourceName": "contracts/Aave_Contracts/protocol/pool/Pool.sol",
  "abi": [
    {
      "inputs": [
        {
          "internalType": "contract IPoolAddressesProvider",
          "name": "provider",
          "type": "address"
        }
      ],
      "stateMutability": "nonpayable",
      "type": "constructor"
    },
    {
      "anonymous": false,
      "inputs": [
        {
          "indexed": true,
          "internalType": "address",
          "name": "reserve",
          "type": "address"
        },
        {
          "indexed": true,
          "internalType": "address",
          "name": "backer",
          "type": "address"
        },
        {
          "indexed": false,
          "internalType": "uint256",
          "name": "amount",
          "type": "uint256"
        },
        {
          "indexed": false,
          "internalType": "uint256",
          "name": "fee",
          "type": "uint256"
        }
      ],
      "name": "BackUnbacked",
      "type": "event"
    },
    {
      "anonymous": false,
      "inputs": [
        {
          "indexed": true,
          "internalType": "address",
          "name": "reserve",
          "type": "address"
        },
        {
          "indexed": false,
          "internalType": "address",
          "name": "user",
          "type": "address"
        },
        {
          "indexed": true,
          "internalType": "address",
          "name": "onBehalfOf",
          "type": "address"
        },
        {
          "indexed": false,
          "internalType": "uint256",
          "name": "amount",
          "type": "uint256"
        },
        {
          "indexed": false,
          "internalType": "enum DataTypes.InterestRateMode",
          "name": "interestRateMode",
          "type": "uint8"
        },
        {
          "indexed": false,
          "internalType": "uint256",
          "name": "borrowRate",
          "type": "uint256"
        },
        {
          "indexed": true,
          "internalType": "uint16",
          "name": "referralCode",
          "type": "uint16"
        }
      ],
      "name": "Borrow",
      "type": "event"
    },
    {
      "anonymous": false,
      "inputs": [
        {
          "indexed": true,
          "internalType": "address",
          "name": "target",
          "type": "address"
        },
        {
          "indexed": false,
          "internalType": "address",
          "name": "initiator",
          "type": "address"
        },
        {
          "indexed": true,
          "internalType": "address",
          "name": "asset",
          "type": "address"
        },
        {
          "indexed": false,
          "internalType": "uint256",
          "name": "amount",
          "type": "uint256"
        },
        {
          "indexed": false,
          "internalType": "enum DataTypes.InterestRateMode",
          "name": "interestRateMode",
          "type": "uint8"
        },
        {
          "indexed": false,
          "internalType": "uint256",
          "name": "premium",
          "type": "uint256"
        },
        {
          "indexed": true,
          "internalType": "uint16",
          "name": "referralCode",
          "type": "uint16"
        }
      ],
      "name": "FlashLoan",
      "type": "event"
    },
    {
      "anonymous": false,
      "inputs": [
        {
          "indexed": true,
          "internalType": "address",
          "name": "asset",
          "type": "address"
        },
        {
          "indexed": false,
          "internalType": "uint256",
          "name": "totalDebt",
          "type": "uint256"
        }
      ],
      "name": "IsolationModeTotalDebtUpdated",
      "type": "event"
    },
    {
      "anonymous": false,
      "inputs": [
        {
          "indexed": true,
          "internalType": "address",
          "name": "collateralAsset",
          "type": "address"
        },
        {
          "indexed": true,
          "internalType": "address",
          "name": "debtAsset",
          "type": "address"
        },
        {
          "indexed": true,
          "internalType": "address",
          "name": "user",
          "type": "address"
        },
        {
          "indexed": false,
          "internalType": "uint256",
          "name": "debtToCover",
          "type": "uint256"
        },
        {
          "indexed": false,
          "internalType": "uint256",
          "name": "liquidatedCollateralAmount",
          "type": "uint256"
        },
        {
          "indexed": false,
          "internalType": "address",
          "name": "liquidator",
          "type": "address"
        },
        {
          "indexed": false,
          "internalType": "bool",
          "name": "receiveAToken",
          "type": "bool"
        }
      ],
      "name": "LiquidationCall",
      "type": "event"
    },
    {
      "anonymous": false,
      "inputs": [
        {
          "indexed": true,
          "internalType": "address",
          "name": "reserve",
          "type": "address"
        },
        {
          "indexed": false,
          "internalType": "address",
          "name": "user",
          "type": "address"
        },
        {
          "indexed": true,
          "internalType": "address",
          "name": "onBehalfOf",
          "type": "address"
        },
        {
          "indexed": false,
          "internalType": "uint256",
          "name": "amount",
          "type": "uint256"
        },
        {
          "indexed": true,
          "internalType": "uint16",
          "name": "referralCode",
          "type": "uint16"
        }
      ],
      "name": "MintUnbacked",
      "type": "event"
    },
    {
      "anonymous": false,
      "inputs": [
        {
          "indexed": true,
          "internalType": "address",
          "name": "reserve",
          "type": "address"
        },
        {
          "indexed": false,
          "internalType": "uint256",
          "name": "amountMinted",
          "type": "uint256"
        }
      ],
      "name": "MintedToTreasury",
      "type": "event"
    },
    {
      "anonymous": false,
      "inputs": [
        {
          "indexed": true,
          "internalType": "address",
          "name": "reserve",
          "type": "address"
        },
        {
          "indexed": true,
          "internalType": "address",
          "name": "user",
          "type": "address"
        }
      ],
      "name": "RebalanceStableBorrowRate",
      "type": "event"
    },
    {
      "anonymous": false,
      "inputs": [
        {
          "indexed": true,
          "internalType": "address",
          "name": "reserve",
          "type": "address"
        },
        {
          "indexed": true,
          "internalType": "address",
          "name": "user",
          "type": "address"
        },
        {
          "indexed": true,
          "internalType": "address",
          "name": "repayer",
          "type": "address"
        },
        {
          "indexed": false,
          "internalType": "uint256",
          "name": "amount",
          "type": "uint256"
        },
        {
          "indexed": false,
          "internalType": "bool",
          "name": "useATokens",
          "type": "bool"
        }
      ],
      "name": "Repay",
      "type": "event"
    },
    {
      "anonymous": false,
      "inputs": [
        {
          "indexed": true,
          "internalType": "address",
          "name": "reserve",
          "type": "address"
        },
        {
          "indexed": false,
          "internalType": "uint256",
          "name": "liquidityRate",
          "type": "uint256"
        },
        {
          "indexed": false,
          "internalType": "uint256",
          "name": "stableBorrowRate",
          "type": "uint256"
        },
        {
          "indexed": false,
          "internalType": "uint256",
          "name": "variableBorrowRate",
          "type": "uint256"
        },
        {
          "indexed": false,
          "internalType": "uint256",
          "name": "liquidityIndex",
          "type": "uint256"
        },
        {
          "indexed": false,
          "internalType": "uint256",
          "name": "variableBorrowIndex",
          "type": "uint256"
        }
      ],
      "name": "ReserveDataUpdated",
      "type": "event"
    },
    {
      "anonymous": false,
      "inputs": [
        {
          "indexed": true,
          "internalType": "address",
          "name": "reserve",
          "type": "address"
        },
        {
          "indexed": true,
          "internalType": "address",
          "name": "user",
          "type": "address"
        }
      ],
      "name": "ReserveUsedAsCollateralDisabled",
      "type": "event"
    },
    {
      "anonymous": false,
      "inputs": [
        {
          "indexed": true,
          "internalType": "address",
          "name": "reserve",
          "type": "address"
        },
        {
          "indexed": true,
          "internalType": "address",
          "name": "user",
          "type": "address"
        }
      ],
      "name": "ReserveUsedAsCollateralEnabled",
      "type": "event"
    },
    {
      "anonymous": false,
      "inputs": [
        {
          "indexed": true,
          "internalType": "address",
          "name": "reserve",
          "type": "address"
        },
        {
          "indexed": false,
          "internalType": "address",
          "name": "user",
          "type": "address"
        },
        {
          "indexed": true,
          "internalType": "address",
          "name": "onBehalfOf",
          "type": "address"
        },
        {
          "indexed": false,
          "internalType": "uint256",
          "name": "amount",
          "type": "uint256"
        },
        {
          "indexed": true,
          "internalType": "uint16",
          "name": "referralCode",
          "type": "uint16"
        }
      ],
      "name": "Supply",
      "type": "event"
    },
    {
      "anonymous": false,
      "inputs": [
        {
          "indexed": true,
          "internalType": "address",
          "name": "reserve",
          "type": "address"
        },
        {
          "indexed": true,
          "internalType": "address",
          "name": "user",
          "type": "address"
        },
        {
          "indexed": false,
          "internalType": "enum DataTypes.InterestRateMode",
          "name": "interestRateMode",
          "type": "uint8"
        }
      ],
      "name": "SwapBorrowRateMode",
      "type": "event"
    },
    {
      "anonymous": false,
      "inputs": [
        {
          "indexed": true,
          "internalType": "address",
          "name": "user",
          "type": "address"
        },
        {
          "indexed": false,
          "internalType": "uint8",
          "name": "categoryId",
          "type": "uint8"
        }
      ],
      "name": "UserEModeSet",
      "type": "event"
    },
    {
      "anonymous": false,
      "inputs": [
        {
          "indexed": true,
          "internalType": "address",
          "name": "reserve",
          "type": "address"
        },
        {
          "indexed": true,
          "internalType": "address",
          "name": "user",
          "type": "address"
        },
        {
          "indexed": true,
          "internalType": "address",
          "name": "to",
          "type": "address"
        },
        {
          "indexed": false,
          "internalType": "uint256",
          "name": "amount",
          "type": "uint256"
        }
      ],
      "name": "Withdraw",
      "type": "event"
    },
    {
      "inputs": [],
      "name": "ADDRESSES_PROVIDER",
      "outputs": [
        {
          "internalType": "contract IPoolAddressesProvider",
          "name": "",
          "type": "address"
        }
      ],
      "stateMutability": "view",
      "type": "function"
    },
    {
      "inputs": [],
      "name": "BRIDGE_PROTOCOL_FEE",
      "outputs": [
        {
          "internalType": "uint256",
          "name": "",
          "type": "uint256"
        }
      ],
      "stateMutability": "view",
      "type": "function"
    },
    {
      "inputs": [],
      "name": "FLASHLOAN_PREMIUM_TOTAL",
      "outputs": [
        {
          "internalType": "uint128",
          "name": "",
          "type": "uint128"
        }
      ],
      "stateMutability": "view",
      "type": "function"
    },
    {
      "inputs": [],
      "name": "FLASHLOAN_PREMIUM_TO_PROTOCOL",
      "outputs": [
        {
          "internalType": "uint128",
          "name": "",
          "type": "uint128"
        }
      ],
      "stateMutability": "view",
      "type": "function"
    },
    {
      "inputs": [],
      "name": "MAX_NUMBER_RESERVES",
      "outputs": [
        {
          "internalType": "uint16",
          "name": "",
          "type": "uint16"
        }
      ],
      "stateMutability": "view",
      "type": "function"
    },
    {
      "inputs": [],
      "name": "MAX_STABLE_RATE_BORROW_SIZE_PERCENT",
      "outputs": [
        {
          "internalType": "uint256",
          "name": "",
          "type": "uint256"
        }
      ],
      "stateMutability": "view",
      "type": "function"
    },
    {
      "inputs": [],
      "name": "POOL_REVISION",
      "outputs": [
        {
          "internalType": "uint256",
          "name": "",
          "type": "uint256"
        }
      ],
      "stateMutability": "view",
      "type": "function"
    },
    {
      "inputs": [
        {
          "internalType": "address",
          "name": "asset",
          "type": "address"
        },
        {
          "internalType": "uint256",
          "name": "amount",
          "type": "uint256"
        },
        {
          "internalType": "uint256",
          "name": "fee",
          "type": "uint256"
        }
      ],
      "name": "backUnbacked",
      "outputs": [],
      "stateMutability": "nonpayable",
      "type": "function"
    },
    {
      "inputs": [
        {
          "internalType": "address",
          "name": "asset",
          "type": "address"
        },
        {
          "internalType": "uint256",
          "name": "amount",
          "type": "uint256"
        },
        {
          "internalType": "uint256",
          "name": "interestRateMode",
          "type": "uint256"
        },
        {
          "internalType": "uint16",
          "name": "referralCode",
          "type": "uint16"
        },
        {
          "internalType": "address",
          "name": "onBehalfOf",
          "type": "address"
        }
      ],
      "name": "borrow",
      "outputs": [],
      "stateMutability": "nonpayable",
      "type": "function"
    },
    {
      "inputs": [
        {
          "internalType": "uint8",
          "name": "id",
          "type": "uint8"
        },
        {
          "components": [
            {
              "internalType": "uint16",
              "name": "ltv",
              "type": "uint16"
            },
            {
              "internalType": "uint16",
              "name": "liquidationThreshold",
              "type": "uint16"
            },
            {
              "internalType": "uint16",
              "name": "liquidationBonus",
              "type": "uint16"
            },
            {
              "internalType": "address",
              "name": "priceSource",
              "type": "address"
            },
            {
              "internalType": "string",
              "name": "label",
              "type": "string"
            }
          ],
          "internalType": "struct DataTypes.EModeCategory",
          "name": "category",
          "type": "tuple"
        }
      ],
      "name": "configureEModeCategory",
      "outputs": [],
      "stateMutability": "nonpayable",
      "type": "function"
    },
    {
      "inputs": [
        {
          "internalType": "address",
          "name": "asset",
          "type": "address"
        },
        {
          "internalType": "uint256",
          "name": "amount",
          "type": "uint256"
        },
        {
          "internalType": "address",
          "name": "onBehalfOf",
          "type": "address"
        },
        {
          "internalType": "uint16",
          "name": "referralCode",
          "type": "uint16"
        }
      ],
      "name": "deposit",
      "outputs": [],
      "stateMutability": "nonpayable",
      "type": "function"
    },
    {
      "inputs": [
        {
          "internalType": "address",
          "name": "asset",
          "type": "address"
        }
      ],
      "name": "dropReserve",
      "outputs": [],
      "stateMutability": "nonpayable",
      "type": "function"
    },
    {
      "inputs": [
        {
          "internalType": "address",
          "name": "asset",
          "type": "address"
        },
        {
          "internalType": "address",
          "name": "from",
          "type": "address"
        },
        {
          "internalType": "address",
          "name": "to",
          "type": "address"
        },
        {
          "internalType": "uint256",
          "name": "amount",
          "type": "uint256"
        },
        {
          "internalType": "uint256",
          "name": "balanceFromBefore",
          "type": "uint256"
        },
        {
          "internalType": "uint256",
          "name": "balanceToBefore",
          "type": "uint256"
        }
      ],
      "name": "finalizeTransfer",
      "outputs": [],
      "stateMutability": "nonpayable",
      "type": "function"
    },
    {
      "inputs": [
        {
          "internalType": "address",
          "name": "receiverAddress",
          "type": "address"
        },
        {
          "internalType": "address[]",
          "name": "assets",
          "type": "address[]"
        },
        {
          "internalType": "uint256[]",
          "name": "amounts",
          "type": "uint256[]"
        },
        {
          "internalType": "uint256[]",
          "name": "interestRateModes",
          "type": "uint256[]"
        },
        {
          "internalType": "address",
          "name": "onBehalfOf",
          "type": "address"
        },
        {
          "internalType": "bytes",
          "name": "params",
          "type": "bytes"
        },
        {
          "internalType": "uint16",
          "name": "referralCode",
          "type": "uint16"
        }
      ],
      "name": "flashLoan",
      "outputs": [],
      "stateMutability": "nonpayable",
      "type": "function"
    },
    {
      "inputs": [
        {
          "internalType": "address",
          "name": "receiverAddress",
          "type": "address"
        },
        {
          "internalType": "address",
          "name": "asset",
          "type": "address"
        },
        {
          "internalType": "uint256",
          "name": "amount",
          "type": "uint256"
        },
        {
          "internalType": "bytes",
          "name": "params",
          "type": "bytes"
        },
        {
          "internalType": "uint16",
          "name": "referralCode",
          "type": "uint16"
        }
      ],
      "name": "flashLoanSimple",
      "outputs": [],
      "stateMutability": "nonpayable",
      "type": "function"
    },
    {
      "inputs": [
        {
          "internalType": "address",
          "name": "asset",
          "type": "address"
        }
      ],
      "name": "getConfiguration",
      "outputs": [
        {
          "components": [
            {
              "internalType": "uint256",
              "name": "data",
              "type": "uint256"
            }
          ],
          "internalType": "struct DataTypes.ReserveConfigurationMap",
          "name": "",
          "type": "tuple"
        }
      ],
      "stateMutability": "view",
      "type": "function"
    },
    {
      "inputs": [
        {
          "internalType": "uint8",
          "name": "id",
          "type": "uint8"
        }
      ],
      "name": "getEModeCategoryData",
      "outputs": [
        {
          "components": [
            {
              "internalType": "uint16",
              "name": "ltv",
              "type": "uint16"
            },
            {
              "internalType": "uint16",
              "name": "liquidationThreshold",
              "type": "uint16"
            },
            {
              "internalType": "uint16",
              "name": "liquidationBonus",
              "type": "uint16"
            },
            {
              "internalType": "address",
              "name": "priceSource",
              "type": "address"
            },
            {
              "internalType": "string",
              "name": "label",
              "type": "string"
            }
          ],
          "internalType": "struct DataTypes.EModeCategory",
          "name": "",
          "type": "tuple"
        }
      ],
      "stateMutability": "view",
      "type": "function"
    },
    {
      "inputs": [
        {
          "internalType": "uint16",
          "name": "id",
          "type": "uint16"
        }
      ],
      "name": "getReserveAddressById",
      "outputs": [
        {
          "internalType": "address",
          "name": "",
          "type": "address"
        }
      ],
      "stateMutability": "view",
      "type": "function"
    },
    {
      "inputs": [
        {
          "internalType": "address",
          "name": "asset",
          "type": "address"
        }
      ],
      "name": "getReserveData",
      "outputs": [
        {
          "components": [
            {
              "components": [
                {
                  "internalType": "uint256",
                  "name": "data",
                  "type": "uint256"
                }
              ],
              "internalType": "struct DataTypes.ReserveConfigurationMap",
              "name": "configuration",
              "type": "tuple"
            },
            {
              "internalType": "uint128",
              "name": "liquidityIndex",
              "type": "uint128"
            },
            {
              "internalType": "uint128",
              "name": "currentLiquidityRate",
              "type": "uint128"
            },
            {
              "internalType": "uint128",
              "name": "variableBorrowIndex",
              "type": "uint128"
            },
            {
              "internalType": "uint128",
              "name": "currentVariableBorrowRate",
              "type": "uint128"
            },
            {
              "internalType": "uint128",
              "name": "currentStableBorrowRate",
              "type": "uint128"
            },
            {
              "internalType": "uint40",
              "name": "lastUpdateTimestamp",
              "type": "uint40"
            },
            {
              "internalType": "uint16",
              "name": "id",
              "type": "uint16"
            },
            {
              "internalType": "address",
              "name": "aTokenAddress",
              "type": "address"
            },
            {
              "internalType": "address",
              "name": "stableDebtTokenAddress",
              "type": "address"
            },
            {
              "internalType": "address",
              "name": "variableDebtTokenAddress",
              "type": "address"
            },
            {
              "internalType": "address",
              "name": "interestRateStrategyAddress",
              "type": "address"
            },
            {
              "internalType": "uint128",
              "name": "accruedToTreasury",
              "type": "uint128"
            },
            {
              "internalType": "uint128",
              "name": "unbacked",
              "type": "uint128"
            },
            {
              "internalType": "uint128",
              "name": "isolationModeTotalDebt",
              "type": "uint128"
            }
          ],
          "internalType": "struct DataTypes.ReserveData",
          "name": "",
          "type": "tuple"
        }
      ],
      "stateMutability": "view",
      "type": "function"
    },
    {
      "inputs": [
        {
          "internalType": "address",
          "name": "asset",
          "type": "address"
        }
      ],
      "name": "getReserveNormalizedIncome",
      "outputs": [
        {
          "internalType": "uint256",
          "name": "",
          "type": "uint256"
        }
      ],
      "stateMutability": "view",
      "type": "function"
    },
    {
      "inputs": [
        {
          "internalType": "address",
          "name": "asset",
          "type": "address"
        }
      ],
      "name": "getReserveNormalizedVariableDebt",
      "outputs": [
        {
          "internalType": "uint256",
          "name": "",
          "type": "uint256"
        }
      ],
      "stateMutability": "view",
      "type": "function"
    },
    {
      "inputs": [],
      "name": "getReservesList",
      "outputs": [
        {
          "internalType": "address[]",
          "name": "",
          "type": "address[]"
        }
      ],
      "stateMutability": "view",
      "type": "function"
    },
    {
      "inputs": [
        {
          "internalType": "address",
          "name": "user",
          "type": "address"
        }
      ],
      "name": "getUserAccountData",
      "outputs": [
        {
          "internalType": "uint256",
          "name": "totalCollateralBase",
          "type": "uint256"
        },
        {
          "internalType": "uint256",
          "name": "totalDebtBase",
          "type": "uint256"
        },
        {
          "internalType": "uint256",
          "name": "availableBorrowsBase",
          "type": "uint256"
        },
        {
          "internalType": "uint256",
          "name": "currentLiquidationThreshold",
          "type": "uint256"
        },
        {
          "internalType": "uint256",
          "name": "ltv",
          "type": "uint256"
        },
        {
          "internalType": "uint256",
          "name": "healthFactor",
          "type": "uint256"
        }
      ],
      "stateMutability": "view",
      "type": "function"
    },
    {
      "inputs": [
        {
          "internalType": "address",
          "name": "user",
          "type": "address"
        }
      ],
      "name": "getUserConfiguration",
      "outputs": [
        {
          "components": [
            {
              "internalType": "uint256",
              "name": "data",
              "type": "uint256"
            }
          ],
          "internalType": "struct DataTypes.UserConfigurationMap",
          "name": "",
          "type": "tuple"
        }
      ],
      "stateMutability": "view",
      "type": "function"
    },
    {
      "inputs": [
        {
          "internalType": "address",
          "name": "user",
          "type": "address"
        }
      ],
      "name": "getUserEMode",
      "outputs": [
        {
          "internalType": "uint256",
          "name": "",
          "type": "uint256"
        }
      ],
      "stateMutability": "view",
      "type": "function"
    },
    {
      "inputs": [
        {
          "internalType": "address",
          "name": "asset",
          "type": "address"
        },
        {
          "internalType": "address",
          "name": "aTokenAddress",
          "type": "address"
        },
        {
          "internalType": "address",
          "name": "stableDebtAddress",
          "type": "address"
        },
        {
          "internalType": "address",
          "name": "variableDebtAddress",
          "type": "address"
        },
        {
          "internalType": "address",
          "name": "interestRateStrategyAddress",
          "type": "address"
        }
      ],
      "name": "initReserve",
      "outputs": [],
      "stateMutability": "nonpayable",
      "type": "function"
    },
    {
      "inputs": [
        {
          "internalType": "contract IPoolAddressesProvider",
          "name": "provider",
          "type": "address"
        }
      ],
      "name": "initialize",
      "outputs": [],
      "stateMutability": "nonpayable",
      "type": "function"
    },
    {
      "inputs": [
        {
          "internalType": "address",
          "name": "collateralAsset",
          "type": "address"
        },
        {
          "internalType": "address",
          "name": "debtAsset",
          "type": "address"
        },
        {
          "internalType": "address",
          "name": "user",
          "type": "address"
        },
        {
          "internalType": "uint256",
          "name": "debtToCover",
          "type": "uint256"
        },
        {
          "internalType": "bool",
          "name": "receiveAToken",
          "type": "bool"
        }
      ],
      "name": "liquidationCall",
      "outputs": [],
      "stateMutability": "nonpayable",
      "type": "function"
    },
    {
      "inputs": [
        {
          "internalType": "address[]",
          "name": "assets",
          "type": "address[]"
        }
      ],
      "name": "mintToTreasury",
      "outputs": [],
      "stateMutability": "nonpayable",
      "type": "function"
    },
    {
      "inputs": [
        {
          "internalType": "address",
          "name": "asset",
          "type": "address"
        },
        {
          "internalType": "uint256",
          "name": "amount",
          "type": "uint256"
        },
        {
          "internalType": "address",
          "name": "onBehalfOf",
          "type": "address"
        },
        {
          "internalType": "uint16",
          "name": "referralCode",
          "type": "uint16"
        }
      ],
      "name": "mintUnbacked",
      "outputs": [],
      "stateMutability": "nonpayable",
      "type": "function"
    },
    {
      "inputs": [
        {
          "internalType": "address",
          "name": "asset",
          "type": "address"
        },
        {
          "internalType": "address",
          "name": "user",
          "type": "address"
        }
      ],
      "name": "rebalanceStableBorrowRate",
      "outputs": [],
      "stateMutability": "nonpayable",
      "type": "function"
    },
    {
      "inputs": [
        {
          "internalType": "address",
          "name": "asset",
          "type": "address"
        },
        {
          "internalType": "uint256",
          "name": "amount",
          "type": "uint256"
        },
        {
          "internalType": "uint256",
          "name": "interestRateMode",
          "type": "uint256"
        },
        {
          "internalType": "address",
          "name": "onBehalfOf",
          "type": "address"
        }
      ],
      "name": "repay",
      "outputs": [
        {
          "internalType": "uint256",
          "name": "",
          "type": "uint256"
        }
      ],
      "stateMutability": "nonpayable",
      "type": "function"
    },
    {
      "inputs": [
        {
          "internalType": "address",
          "name": "asset",
          "type": "address"
        },
        {
          "internalType": "uint256",
          "name": "amount",
          "type": "uint256"
        },
        {
          "internalType": "uint256",
          "name": "interestRateMode",
          "type": "uint256"
        }
      ],
      "name": "repayWithATokens",
      "outputs": [
        {
          "internalType": "uint256",
          "name": "",
          "type": "uint256"
        }
      ],
      "stateMutability": "nonpayable",
      "type": "function"
    },
    {
      "inputs": [
        {
          "internalType": "address",
          "name": "asset",
          "type": "address"
        },
        {
          "internalType": "uint256",
          "name": "amount",
          "type": "uint256"
        },
        {
          "internalType": "uint256",
          "name": "interestRateMode",
          "type": "uint256"
        },
        {
          "internalType": "address",
          "name": "onBehalfOf",
          "type": "address"
        },
        {
          "internalType": "uint256",
          "name": "deadline",
          "type": "uint256"
        },
        {
          "internalType": "uint8",
          "name": "permitV",
          "type": "uint8"
        },
        {
          "internalType": "bytes32",
          "name": "permitR",
          "type": "bytes32"
        },
        {
          "internalType": "bytes32",
          "name": "permitS",
          "type": "bytes32"
        }
      ],
      "name": "repayWithPermit",
      "outputs": [
        {
          "internalType": "uint256",
          "name": "",
          "type": "uint256"
        }
      ],
      "stateMutability": "nonpayable",
      "type": "function"
    },
    {
      "inputs": [
        {
          "internalType": "address",
          "name": "token",
          "type": "address"
        },
        {
          "internalType": "address",
          "name": "to",
          "type": "address"
        },
        {
          "internalType": "uint256",
          "name": "amount",
          "type": "uint256"
        }
      ],
      "name": "rescueTokens",
      "outputs": [],
      "stateMutability": "nonpayable",
      "type": "function"
    },
    {
      "inputs": [
        {
          "internalType": "address",
          "name": "asset",
          "type": "address"
        }
      ],
      "name": "resetIsolationModeTotalDebt",
      "outputs": [],
      "stateMutability": "nonpayable",
      "type": "function"
    },
    {
      "inputs": [
        {
          "internalType": "address",
          "name": "asset",
          "type": "address"
        },
        {
          "components": [
            {
              "internalType": "uint256",
              "name": "data",
              "type": "uint256"
            }
          ],
          "internalType": "struct DataTypes.ReserveConfigurationMap",
          "name": "configuration",
          "type": "tuple"
        }
      ],
      "name": "setConfiguration",
      "outputs": [],
      "stateMutability": "nonpayable",
      "type": "function"
    },
    {
      "inputs": [
        {
          "internalType": "address",
          "name": "asset",
          "type": "address"
        },
        {
          "internalType": "address",
          "name": "rateStrategyAddress",
          "type": "address"
        }
      ],
      "name": "setReserveInterestRateStrategyAddress",
      "outputs": [],
      "stateMutability": "nonpayable",
      "type": "function"
    },
    {
      "inputs": [
        {
          "internalType": "uint8",
          "name": "categoryId",
          "type": "uint8"
        }
      ],
      "name": "setUserEMode",
      "outputs": [],
      "stateMutability": "nonpayable",
      "type": "function"
    },
    {
      "inputs": [
        {
          "internalType": "address",
          "name": "asset",
          "type": "address"
        },
        {
          "internalType": "bool",
          "name": "useAsCollateral",
          "type": "bool"
        }
      ],
      "name": "setUserUseReserveAsCollateral",
      "outputs": [],
      "stateMutability": "nonpayable",
      "type": "function"
    },
    {
      "inputs": [
        {
          "internalType": "address",
          "name": "asset",
          "type": "address"
        },
        {
          "internalType": "uint256",
          "name": "amount",
          "type": "uint256"
        },
        {
          "internalType": "address",
          "name": "onBehalfOf",
          "type": "address"
        },
        {
          "internalType": "uint16",
          "name": "referralCode",
          "type": "uint16"
        }
      ],
      "name": "supply",
      "outputs": [],
      "stateMutability": "nonpayable",
      "type": "function"
    },
    {
      "inputs": [
        {
          "internalType": "address",
          "name": "asset",
          "type": "address"
        },
        {
          "internalType": "uint256",
          "name": "amount",
          "type": "uint256"
        },
        {
          "internalType": "address",
          "name": "onBehalfOf",
          "type": "address"
        },
        {
          "internalType": "uint16",
          "name": "referralCode",
          "type": "uint16"
        },
        {
          "internalType": "uint256",
          "name": "deadline",
          "type": "uint256"
        },
        {
          "internalType": "uint8",
          "name": "permitV",
          "type": "uint8"
        },
        {
          "internalType": "bytes32",
          "name": "permitR",
          "type": "bytes32"
        },
        {
          "internalType": "bytes32",
          "name": "permitS",
          "type": "bytes32"
        }
      ],
      "name": "supplyWithPermit",
      "outputs": [],
      "stateMutability": "nonpayable",
      "type": "function"
    },
    {
      "inputs": [
        {
          "internalType": "address",
          "name": "asset",
          "type": "address"
        },
        {
          "internalType": "uint256",
          "name": "interestRateMode",
          "type": "uint256"
        }
      ],
      "name": "swapBorrowRateMode",
      "outputs": [],
      "stateMutability": "nonpayable",
      "type": "function"
    },
    {
      "inputs": [
        {
          "internalType": "uint256",
          "name": "protocolFee",
          "type": "uint256"
        }
      ],
      "name": "updateBridgeProtocolFee",
      "outputs": [],
      "stateMutability": "nonpayable",
      "type": "function"
    },
    {
      "inputs": [
        {
          "internalType": "uint128",
          "name": "flashLoanPremiumTotal",
          "type": "uint128"
        },
        {
          "internalType": "uint128",
          "name": "flashLoanPremiumToProtocol",
          "type": "uint128"
        }
      ],
      "name": "updateFlashloanPremiums",
      "outputs": [],
      "stateMutability": "nonpayable",
      "type": "function"
    },
    {
      "inputs": [
        {
          "internalType": "address",
          "name": "asset",
          "type": "address"
        },
        {
          "internalType": "uint256",
          "name": "amount",
          "type": "uint256"
        },
        {
          "internalType": "address",
          "name": "to",
          "type": "address"
        }
      ],
      "name": "withdraw",
      "outputs": [
        {
          "internalType": "uint256",
          "name": "",
          "type": "uint256"
        }
      ],
      "stateMutability": "nonpayable",
      "type": "function"
    }
  ],
  "bytecode": "0x60a0604052600080553480156200001557600080fd5b50604051620078d3380380620078d383398181016040528101906200003b9190620000f4565b8073ffffffffffffffffffffffffffffffffffffffff1660808173ffffffffffffffffffffffffffffffffffffffff16815250505062000126565b600080fd5b600073ffffffffffffffffffffffffffffffffffffffff82169050919050565b6000620000a8826200007b565b9050919050565b6000620000bc826200009b565b9050919050565b620000ce81620000af565b8114620000da57600080fd5b50565b600081519050620000ee81620000c3565b92915050565b6000602082840312156200010d576200010c62000076565b5b60006200011d84828501620000dd565b91505092915050565b608051617728620001ab6000396000818161095b01528181610a5a01528181610cdc0152818161102601528181611b4c01528181611ebf015281816126c6015281816127c501528181612adf01528181612b7001528181612e7e01528181613109015281816138d5015281816141040152818161431201526144ae01526177286000f3fe608060405234801561001057600080fd5b50600436106102895760003560e01c80637a708e921161015c578063d15e0053116100ce578063e82fec2f11610087578063e82fec2f146107db578063e8eda9df146107f9578063eddf1b7914610815578063ee3e210b14610845578063f51e435b14610875578063f8119d511461089157610289565b8063d15e00531461071d578063d1946dbc1461074d578063d579ea7d1461076b578063d5ed393314610787578063d65dc7a1146107a3578063e43e88a1146107bf57610289565b8063bcb6e52211610120578063bcb6e52214610648578063bf92857c14610664578063c44b11f714610699578063c4d66de8146106c9578063cd112382146106e5578063cea9d26f1461070157610289565b80637a708e92146105bc57806394ba89a2146105d85780639cd19996146105f4578063a415bcad14610610578063ab9c4b5d1461062c57610289565b8063386497fd11610200578063617ba037116101b9578063617ba037146104ea57806363c9b8601461050657806369328dec1461052257806369a933a5146105525780636a99c0361461056e5780636c6f6ae11461058c57610289565b8063386497fd146103f257806342b0b77c146104225780634417a5831461043e578063527517971461046e578063573ade811461049e5780635a3b74b9146104ce57610289565b80631d2118f9116102525780631d2118f914610320578063272d90721461033c57806328530a471461035a5780632dad97d4146103765780633036b439146103a657806335ea6a75146103c257610289565b8062a718a91461028e5780630148170e146102aa57806302c205f0146102c85780630542975c146102e4578063074b2e4314610302575b600080fd5b6102a860048036038101906102a39190614cae565b6108af565b005b6102b2610b57565b6040516102bf9190614d38565b60405180910390f35b6102e260048036038101906102dd9190614dfc565b610b5c565b005b6102ec610cda565b6040516102f99190614f11565b60405180910390f35b61030a610cfe565b6040516103179190614f57565b60405180910390f35b61033a60048036038101906103359190614f72565b610d24565b005b610344610f94565b6040516103519190614d38565b60405180910390f35b610374600480360381019061036f9190614fb2565b610f9e565b005b610390600480360381019061038b9190614fdf565b611129565b60405161039d9190614d38565b60405180910390f35b6103c060048036038101906103bb9190615032565b61126b565b005b6103dc60048036038101906103d7919061505f565b61127d565b6040516103e99190615239565b60405180910390f35b61040c6004803603810190610407919061505f565b6116e6565b6040516104199190614d38565b60405180910390f35b61043c600480360381019061043791906152ba565b611736565b005b6104586004803603810190610453919061505f565b6118f1565b6040516104659190615370565b60405180910390f35b6104886004803603810190610483919061538b565b611954565b60405161049591906153c7565b60405180910390f35b6104b860048036038101906104b391906153e2565b611995565b6040516104c59190614d38565b60405180910390f35b6104e860048036038101906104e39190615449565b611ad8565b005b61050460048036038101906104ff9190615489565b611c7e565b005b610520600480360381019061051b919061505f565b611d81565b005b61053c600480360381019061053791906154f0565b611df9565b6040516105499190614d38565b60405180910390f35b61056c60048036038101906105679190615489565b612024565b005b6105766120e5565b6040516105839190614f57565b60405180910390f35b6105a660048036038101906105a19190614fb2565b61210b565b6040516105b39190615652565b60405180910390f35b6105d660048036038101906105d19190615674565b612286565b005b6105f260048036038101906105ed91906156ef565b612413565b005b61060e60048036038101906106099190615785565b612512565b005b61062a600480360381019061062591906157d2565b612582565b005b610646600480360381019061064191906158a3565b6128c2565b005b610662600480360381019061065d91906159f3565b612d3b565b005b61067e6004803603810190610679919061505f565b612db9565b60405161069096959493929190615a33565b60405180910390f35b6106b360048036038101906106ae919061505f565b612fee565b6040516106c09190615ab0565b60405180910390f35b6106e360048036038101906106de9190615b09565b613054565b005b6106ff60048036038101906106fa9190614f72565b613294565b005b61071b60048036038101906107169190615b36565b613341565b005b6107376004803603810190610732919061505f565b6133b9565b6040516107449190614d38565b60405180910390f35b610755613409565b6040516107629190615c38565b60405180910390f35b61078560048036038101906107809190615e3c565b6135a6565b005b6107a1600480360381019061079c9190615e98565b61371c565b005b6107bd60048036038101906107b89190614fdf565b613a28565b005b6107d960048036038101906107d4919061505f565b613ae4565b005b6107e3613b59565b6040516107f09190614d38565b60405180910390f35b610813600480360381019061080e9190615489565b613b81565b005b61082f600480360381019061082a919061505f565b613c84565b60405161083c9190614d38565b60405180910390f35b61085f600480360381019061085a9190615f25565b613cdd565b60405161086c9190614d38565b60405180910390f35b61088f600480360381019061088a9190615fff565b613ea1565b005b6108996140e2565b6040516108a6919061604e565b60405180910390f35b73__$b8fc6c4dd8386441e3ddd93bd59d9a9792$__6383c1087d6034603660356037604051806101200160405280603b60089054906101000a900461ffff1661ffff1681526020018981526020018c73ffffffffffffffffffffffffffffffffffffffff1681526020018b73ffffffffffffffffffffffffffffffffffffffff1681526020018a73ffffffffffffffffffffffffffffffffffffffff16815260200188151581526020017f000000000000000000000000000000000000000000000000000000000000000073ffffffffffffffffffffffffffffffffffffffff1663fca513a86040518163ffffffff1660e01b8152600401602060405180830381865afa1580156109c4573d6000803e3d6000fd5b505050506040513d601f19601f820116820180604052508101906109e8919061607e565b73ffffffffffffffffffffffffffffffffffffffff168152602001603860008c73ffffffffffffffffffffffffffffffffffffffff1673ffffffffffffffffffffffffffffffffffffffff16815260200190815260200160002060009054906101000a900460ff1660ff1681526020017f000000000000000000000000000000000000000000000000000000000000000073ffffffffffffffffffffffffffffffffffffffff16635eb88d3d6040518163ffffffff1660e01b8152600401602060405180830381865afa158015610ac3573d6000803e3d6000fd5b505050506040513d601f19601f82011682018060405250810190610ae7919061607e565b73ffffffffffffffffffffffffffffffffffffffff168152506040518663ffffffff1660e01b8152600401610b209594939291906161ba565b60006040518083038186803b158015610b3857600080fd5b505af4158015610b4c573d6000803e3d6000fd5b505050505050505050565b600181565b8773ffffffffffffffffffffffffffffffffffffffff1663d505accf33308a888888886040518863ffffffff1660e01b8152600401610ba1979695949392919061622c565b600060405180830381600087803b158015610bbb57600080fd5b505af1158015610bcf573d6000803e3d6000fd5b5050505073__$792a6858e828a9166a182213cb74cf182c$__631913f16160346036603560008b73ffffffffffffffffffffffffffffffffffffffff1673ffffffffffffffffffffffffffffffffffffffff16815260200190815260200160002060405180608001604052808e73ffffffffffffffffffffffffffffffffffffffff1681526020018d81526020018c73ffffffffffffffffffffffffffffffffffffffff1681526020018b61ffff168152506040518563ffffffff1660e01b8152600401610ca09493929190616306565b60006040518083038186803b158015610cb857600080fd5b505af4158015610ccc573d6000803e3d6000fd5b505050505050505050505050565b7f000000000000000000000000000000000000000000000000000000000000000081565b6000603a60009054906101000a90046fffffffffffffffffffffffffffffffff16905090565b610d2c6140eb565b600073ffffffffffffffffffffffffffffffffffffffff168273ffffffffffffffffffffffffffffffffffffffff1614156040518060400160405280600281526020017f373700000000000000000000000000000000000000000000000000000000000081525090610dd4576040517f08c379a0000000000000000000000000000000000000000000000000000000008152600401610dcb9190616395565b60405180910390fd5b506000603460008473ffffffffffffffffffffffffffffffffffffffff1673ffffffffffffffffffffffffffffffffffffffff16815260200190815260200160002060030160159054906101000a900461ffff1661ffff16141580610e9757508173ffffffffffffffffffffffffffffffffffffffff166036600080815260200190815260200160002060009054906101000a900473ffffffffffffffffffffffffffffffffffffffff1673ffffffffffffffffffffffffffffffffffffffff16145b6040518060400160405280600281526020017f383200000000000000000000000000000000000000000000000000000000000081525090610f0e576040517f08c379a0000000000000000000000000000000000000000000000000000000008152600401610f059190616395565b60405180910390fd5b5080603460008473ffffffffffffffffffffffffffffffffffffffff1673ffffffffffffffffffffffffffffffffffffffff16815260200190815260200160002060070160006101000a81548173ffffffffffffffffffffffffffffffffffffffff021916908373ffffffffffffffffffffffffffffffffffffffff1602179055505050565b6000603954905090565b73__$b3e7a7e7c27bd2115be53950ecd292c08e$__635d5dc3136034603660376038603560003373ffffffffffffffffffffffffffffffffffffffff1673ffffffffffffffffffffffffffffffffffffffff1681526020019081526020016000206040518060600160405280603b60089054906101000a900461ffff1661ffff1681526020017f000000000000000000000000000000000000000000000000000000000000000073ffffffffffffffffffffffffffffffffffffffff1663fca513a86040518163ffffffff1660e01b8152600401602060405180830381865afa15801561108f573d6000803e3d6000fd5b505050506040513d601f19601f820116820180604052508101906110b3919061607e565b73ffffffffffffffffffffffffffffffffffffffff1681526020018960ff168152506040518763ffffffff1660e01b81526004016110f696959493929190616400565b60006040518083038186803b15801561110e57600080fd5b505af4158015611122573d6000803e3d6000fd5b5050505050565b600073__$5157860d6e8796e816c59125dcbc9decd5$__6340e95de660346036603560003373ffffffffffffffffffffffffffffffffffffffff1673ffffffffffffffffffffffffffffffffffffffff1681526020019081526020016000206040518060a001604052808a73ffffffffffffffffffffffffffffffffffffffff1681526020018981526020018860028111156111c8576111c7616462565b5b60028111156111da576111d9616462565b5b81526020013373ffffffffffffffffffffffffffffffffffffffff168152602001600115158152506040518563ffffffff1660e01b81526004016112219493929190616541565b602060405180830381865af415801561123e573d6000803e3d6000fd5b505050506040513d601f19601f82011682018060405250810190611262919061659c565b90509392505050565b6112736140eb565b8060398190555050565b611285614945565b603460008373ffffffffffffffffffffffffffffffffffffffff1673ffffffffffffffffffffffffffffffffffffffff168152602001908152602001600020604051806101e00160405290816000820160405180602001604052908160008201548152505081526020016001820160009054906101000a90046fffffffffffffffffffffffffffffffff166fffffffffffffffffffffffffffffffff166fffffffffffffffffffffffffffffffff1681526020016001820160109054906101000a90046fffffffffffffffffffffffffffffffff166fffffffffffffffffffffffffffffffff166fffffffffffffffffffffffffffffffff1681526020016002820160009054906101000a90046fffffffffffffffffffffffffffffffff166fffffffffffffffffffffffffffffffff166fffffffffffffffffffffffffffffffff1681526020016002820160109054906101000a90046fffffffffffffffffffffffffffffffff166fffffffffffffffffffffffffffffffff166fffffffffffffffffffffffffffffffff1681526020016003820160009054906101000a90046fffffffffffffffffffffffffffffffff166fffffffffffffffffffffffffffffffff166fffffffffffffffffffffffffffffffff1681526020016003820160109054906101000a900464ffffffffff1664ffffffffff1664ffffffffff1681526020016003820160159054906101000a900461ffff1661ffff1661ffff1681526020016004820160009054906101000a900473ffffffffffffffffffffffffffffffffffffffff1673ffffffffffffffffffffffffffffffffffffffff1673ffffffffffffffffffffffffffffffffffffffff1681526020016005820160009054906101000a900473ffffffffffffffffffffffffffffffffffffffff1673ffffffffffffffffffffffffffffffffffffffff1673ffffffffffffffffffffffffffffffffffffffff1681526020016006820160009054906101000a900473ffffffffffffffffffffffffffffffffffffffff1673ffffffffffffffffffffffffffffffffffffffff1673ffffffffffffffffffffffffffffffffffffffff1681526020016007820160009054906101000a900473ffffffffffffffffffffffffffffffffffffffff1673ffffffffffffffffffffffffffffffffffffffff1673ffffffffffffffffffffffffffffffffffffffff1681526020016008820160009054906101000a90046fffffffffffffffffffffffffffffffff166fffffffffffffffffffffffffffffffff166fffffffffffffffffffffffffffffffff1681526020016008820160109054906101000a90046fffffffffffffffffffffffffffffffff166fffffffffffffffffffffffffffffffff166fffffffffffffffffffffffffffffffff1681526020016009820160009054906101000a90046fffffffffffffffffffffffffffffffff166fffffffffffffffffffffffffffffffff166fffffffffffffffffffffffffffffffff16815250509050919050565b600061172f603460008473ffffffffffffffffffffffffffffffffffffffff1673ffffffffffffffffffffffffffffffffffffffff168152602001908152602001600020614222565b9050919050565b60006040518060e001604052808873ffffffffffffffffffffffffffffffffffffffff1681526020018773ffffffffffffffffffffffffffffffffffffffff16815260200186815260200185858080601f016020809104026020016040519081016040528093929190818152602001838380828437600081840152601f19601f8201169050808301925050505050505081526020018361ffff168152602001603a60109054906101000a90046fffffffffffffffffffffffffffffffff166fffffffffffffffffffffffffffffffff168152602001603a60009054906101000a90046fffffffffffffffffffffffffffffffff166fffffffffffffffffffffffffffffffff16815250905073__$9fe57f3ed66fb1ad1bdf82003ba1eaf30d$__63a1fe0e8d603460008973ffffffffffffffffffffffffffffffffffffffff1673ffffffffffffffffffffffffffffffffffffffff168152602001908152602001600020836040518363ffffffff1660e01b81526004016118b89291906166c1565b60006040518083038186803b1580156118d057600080fd5b505af41580156118e4573d6000803e3d6000fd5b5050505050505050505050565b6118f9614ab4565b603560008373ffffffffffffffffffffffffffffffffffffffff1673ffffffffffffffffffffffffffffffffffffffff1681526020019081526020016000206040518060200160405290816000820154815250509050919050565b6000603660008361ffff16815260200190815260200160002060009054906101000a900473ffffffffffffffffffffffffffffffffffffffff169050919050565b600073__$5157860d6e8796e816c59125dcbc9decd5$__6340e95de660346036603560008773ffffffffffffffffffffffffffffffffffffffff1673ffffffffffffffffffffffffffffffffffffffff1681526020019081526020016000206040518060a001604052808b73ffffffffffffffffffffffffffffffffffffffff1681526020018a8152602001896002811115611a3457611a33616462565b5b6002811115611a4657611a45616462565b5b81526020018873ffffffffffffffffffffffffffffffffffffffff168152602001600015158152506040518563ffffffff1660e01b8152600401611a8d9493929190616541565b602060405180830381865af4158015611aaa573d6000803e3d6000fd5b505050506040513d601f19601f82011682018060405250810190611ace919061659c565b9050949350505050565b73__$792a6858e828a9166a182213cb74cf182c$__63bf697a26603460366037603560003373ffffffffffffffffffffffffffffffffffffffff1673ffffffffffffffffffffffffffffffffffffffff1681526020019081526020016000208787603b60089054906101000a900461ffff167f000000000000000000000000000000000000000000000000000000000000000073ffffffffffffffffffffffffffffffffffffffff1663fca513a86040518163ffffffff1660e01b8152600401602060405180830381865afa158015611bb5573d6000803e3d6000fd5b505050506040513d601f19601f82011682018060405250810190611bd9919061607e565b603860003373ffffffffffffffffffffffffffffffffffffffff1673ffffffffffffffffffffffffffffffffffffffff16815260200190815260200160002060009054906101000a900460ff166040518a63ffffffff1660e01b8152600401611c4a9998979695949392919061674f565b60006040518083038186803b158015611c6257600080fd5b505af4158015611c76573d6000803e3d6000fd5b505050505050565b73__$792a6858e828a9166a182213cb74cf182c$__631913f16160346036603560008773ffffffffffffffffffffffffffffffffffffffff1673ffffffffffffffffffffffffffffffffffffffff16815260200190815260200160002060405180608001604052808a73ffffffffffffffffffffffffffffffffffffffff1681526020018981526020018873ffffffffffffffffffffffffffffffffffffffff1681526020018761ffff168152506040518563ffffffff1660e01b8152600401611d4b9493929190616306565b60006040518083038186803b158015611d6357600080fd5b505af4158015611d77573d6000803e3d6000fd5b5050505050505050565b611d896140eb565b73__$fe21a1d4eaaeaff9e8fbaf7fdfd147fd7e$__639cf5702360346036846040518463ffffffff1660e01b8152600401611dc6939291906167dc565b60006040518083038186803b158015611dde57600080fd5b505af4158015611df2573d6000803e3d6000fd5b5050505050565b600073__$792a6858e828a9166a182213cb74cf182c$__63186dea44603460366037603560003373ffffffffffffffffffffffffffffffffffffffff1673ffffffffffffffffffffffffffffffffffffffff1681526020019081526020016000206040518060c001604052808b73ffffffffffffffffffffffffffffffffffffffff1681526020018a81526020018973ffffffffffffffffffffffffffffffffffffffff168152602001603b60089054906101000a900461ffff1661ffff1681526020017f000000000000000000000000000000000000000000000000000000000000000073ffffffffffffffffffffffffffffffffffffffff1663fca513a86040518163ffffffff1660e01b8152600401602060405180830381865afa158015611f28573d6000803e3d6000fd5b505050506040513d601f19601f82011682018060405250810190611f4c919061607e565b73ffffffffffffffffffffffffffffffffffffffff168152602001603860003373ffffffffffffffffffffffffffffffffffffffff1673ffffffffffffffffffffffffffffffffffffffff16815260200190815260200160002060009054906101000a900460ff1660ff168152506040518663ffffffff1660e01b8152600401611fda95949392919061688e565b602060405180830381865af4158015611ff7573d6000803e3d6000fd5b505050506040513d601f19601f8201168201806040525081019061201b919061659c565b90509392505050565b61202c614310565b73__$1a5b5028a57ae19be99589a53297134eab$__630413c86f60346036603560008773ffffffffffffffffffffffffffffffffffffffff1673ffffffffffffffffffffffffffffffffffffffff168152602001908152602001600020888888886040518863ffffffff1660e01b81526004016120af9796959493929190616900565b60006040518083038186803b1580156120c757600080fd5b505af41580156120db573d6000803e3d6000fd5b5050505050505050565b6000603a60109054906101000a90046fffffffffffffffffffffffffffffffff16905090565b612113614ac7565b603760008360ff1660ff1681526020019081526020016000206040518060a00160405290816000820160009054906101000a900461ffff1661ffff1661ffff1681526020016000820160029054906101000a900461ffff1661ffff1661ffff1681526020016000820160049054906101000a900461ffff1661ffff1661ffff1681526020016000820160069054906101000a900473ffffffffffffffffffffffffffffffffffffffff1673ffffffffffffffffffffffffffffffffffffffff1673ffffffffffffffffffffffffffffffffffffffff1681526020016001820180546121fd9061699e565b80601f01602080910402602001604051908101604052809291908181526020018280546122299061699e565b80156122765780601f1061224b57610100808354040283529160200191612276565b820191906000526020600020905b81548152906001019060200180831161225957829003601f168201915b5050505050815250509050919050565b61228e6140eb565b73__$fe21a1d4eaaeaff9e8fbaf7fdfd147fd7e$__6369fc1bdf603460366040518060e001604052808a73ffffffffffffffffffffffffffffffffffffffff1681526020018973ffffffffffffffffffffffffffffffffffffffff1681526020018873ffffffffffffffffffffffffffffffffffffffff1681526020018773ffffffffffffffffffffffffffffffffffffffff1681526020018673ffffffffffffffffffffffffffffffffffffffff168152602001603b60089054906101000a900461ffff1661ffff1681526020016123656140e2565b61ffff168152506040518463ffffffff1660e01b815260040161238a93929190616a5e565b602060405180830381865af41580156123a7573d6000803e3d6000fd5b505050506040513d601f19601f820116820180604052508101906123cb9190616aab565b1561240c57603b600881819054906101000a900461ffff16809291906123f090616b07565b91906101000a81548161ffff021916908361ffff160217905550505b5050505050565b73__$5157860d6e8796e816c59125dcbc9decd5$__63eac4d703603460008573ffffffffffffffffffffffffffffffffffffffff1673ffffffffffffffffffffffffffffffffffffffff168152602001908152602001600020603560003373ffffffffffffffffffffffffffffffffffffffff1673ffffffffffffffffffffffffffffffffffffffff168152602001908152602001600020858560028111156124bf576124be616462565b5b6040518563ffffffff1660e01b81526004016124de9493929190616b41565b60006040518083038186803b1580156124f657600080fd5b505af415801561250a573d6000803e3d6000fd5b505050505050565b73__$fe21a1d4eaaeaff9e8fbaf7fdfd147fd7e$__6348c2ca8c603484846040518463ffffffff1660e01b815260040161254e93929190616c3a565b60006040518083038186803b15801561256657600080fd5b505af415801561257a573d6000803e3d6000fd5b505050505050565b73__$5157860d6e8796e816c59125dcbc9decd5$__631e6473f9603460366037603560008773ffffffffffffffffffffffffffffffffffffffff1673ffffffffffffffffffffffffffffffffffffffff1681526020019081526020016000206040518061018001604052808c73ffffffffffffffffffffffffffffffffffffffff1681526020013373ffffffffffffffffffffffffffffffffffffffff1681526020018873ffffffffffffffffffffffffffffffffffffffff1681526020018b81526020018a600281111561265a57612659616462565b5b600281111561266c5761266b616462565b5b81526020018961ffff168152602001600115158152602001603b60009054906101000a900467ffffffffffffffff1667ffffffffffffffff168152602001603b60089054906101000a900461ffff1661ffff1681526020017f000000000000000000000000000000000000000000000000000000000000000073ffffffffffffffffffffffffffffffffffffffff1663fca513a86040518163ffffffff1660e01b8152600401602060405180830381865afa15801561272f573d6000803e3d6000fd5b505050506040513d601f19601f82011682018060405250810190612753919061607e565b73ffffffffffffffffffffffffffffffffffffffff168152602001603860008a73ffffffffffffffffffffffffffffffffffffffff1673ffffffffffffffffffffffffffffffffffffffff16815260200190815260200160002060009054906101000a900460ff1660ff1681526020017f000000000000000000000000000000000000000000000000000000000000000073ffffffffffffffffffffffffffffffffffffffff16635eb88d3d6040518163ffffffff1660e01b8152600401602060405180830381865afa15801561282e573d6000803e3d6000fd5b505050506040513d601f19601f82011682018060405250810190612852919061607e565b73ffffffffffffffffffffffffffffffffffffffff168152506040518663ffffffff1660e01b815260040161288b959493929190616d62565b60006040518083038186803b1580156128a357600080fd5b505af41580156128b7573d6000803e3d6000fd5b505050505050505050565b6000604051806101c001604052808d73ffffffffffffffffffffffffffffffffffffffff1681526020018c8c80806020026020016040519081016040528093929190818152602001838360200280828437600081840152601f19601f8201169050808301925050505050505081526020018a8a80806020026020016040519081016040528093929190818152602001838360200280828437600081840152601f19601f820116905080830192505050505050508152602001888880806020026020016040519081016040528093929190818152602001838360200280828437600081840152601f19601f8201169050808301925050505050505081526020018673ffffffffffffffffffffffffffffffffffffffff16815260200185858080601f016020809104026020016040519081016040528093929190818152602001838380828437600081840152601f19601f8201169050808301925050505050505081526020018361ffff168152602001603a60109054906101000a90046fffffffffffffffffffffffffffffffff166fffffffffffffffffffffffffffffffff168152602001603a60009054906101000a90046fffffffffffffffffffffffffffffffff166fffffffffffffffffffffffffffffffff168152602001603b60009054906101000a900467ffffffffffffffff1667ffffffffffffffff168152602001603b60089054906101000a900461ffff1661ffff1681526020017f000000000000000000000000000000000000000000000000000000000000000073ffffffffffffffffffffffffffffffffffffffff168152602001603860008873ffffffffffffffffffffffffffffffffffffffff1673ffffffffffffffffffffffffffffffffffffffff16815260200190815260200160002060009054906101000a900460ff1660ff1681526020017f000000000000000000000000000000000000000000000000000000000000000073ffffffffffffffffffffffffffffffffffffffff1663707cd7166040518163ffffffff1660e01b8152600401602060405180830381865afa158015612bd9573d6000803e3d6000fd5b505050506040513d601f19601f82011682018060405250810190612bfd919061607e565b73ffffffffffffffffffffffffffffffffffffffff1663fa50f297336040518263ffffffff1660e01b8152600401612c3591906153c7565b602060405180830381865afa158015612c52573d6000803e3d6000fd5b505050506040513d601f19601f82011682018060405250810190612c769190616aab565b1515815250905073__$9fe57f3ed66fb1ad1bdf82003ba1eaf30d$__632e7263ea603460366037603560008b73ffffffffffffffffffffffffffffffffffffffff1673ffffffffffffffffffffffffffffffffffffffff168152602001908152602001600020866040518663ffffffff1660e01b8152600401612cfd959493929190617017565b60006040518083038186803b158015612d1557600080fd5b505af4158015612d29573d6000803e3d6000fd5b50505050505050505050505050505050565b612d436140eb565b81603a60006101000a8154816fffffffffffffffffffffffffffffffff02191690836fffffffffffffffffffffffffffffffff16021790555080603a60106101000a8154816fffffffffffffffffffffffffffffffff02191690836fffffffffffffffffffffffffffffffff1602179055505050565b60008060008060008073__$fe21a1d4eaaeaff9e8fbaf7fdfd147fd7e$__6326ec273f6034603660376040518060a00160405280603560008f73ffffffffffffffffffffffffffffffffffffffff1673ffffffffffffffffffffffffffffffffffffffff1681526020019081526020016000206040518060200160405290816000820154815250508152602001603b60089054906101000a900461ffff1661ffff1681526020018d73ffffffffffffffffffffffffffffffffffffffff1681526020017f000000000000000000000000000000000000000000000000000000000000000073ffffffffffffffffffffffffffffffffffffffff1663fca513a86040518163ffffffff1660e01b8152600401602060405180830381865afa158015612ee7573d6000803e3d6000fd5b505050506040513d601f19601f82011682018060405250810190612f0b919061607e565b73ffffffffffffffffffffffffffffffffffffffff168152602001603860008f73ffffffffffffffffffffffffffffffffffffffff1673ffffffffffffffffffffffffffffffffffffffff16815260200190815260200160002060009054906101000a900460ff1660ff168152506040518563ffffffff1660e01b8152600401612f9894939291906170f5565b60c060405180830381865af4158015612fb5573d6000803e3d6000fd5b505050506040513d601f19601f82011682018060405250810190612fd9919061713b565b95509550955095509550955091939550919395565b612ff6614b18565b603460008373ffffffffffffffffffffffffffffffffffffffff1673ffffffffffffffffffffffffffffffffffffffff1681526020019081526020016000206000016040518060200160405290816000820154815250509050919050565b600061305e614492565b9050600160009054906101000a900460ff168061307f575061307e61449b565b5b8061308b575060005481115b6130ca576040517f08c379a00000000000000000000000000000000000000000000000000000000081526004016130c19061723a565b60405180910390fd5b6000600160009054906101000a900460ff1615905080156131075760018060006101000a81548160ff021916908315150217905550816000819055505b7f000000000000000000000000000000000000000000000000000000000000000073ffffffffffffffffffffffffffffffffffffffff168373ffffffffffffffffffffffffffffffffffffffff16146040518060400160405280600281526020017f3132000000000000000000000000000000000000000000000000000000000000815250906131cd576040517f08c379a00000000000000000000000000000000000000000000000000000000081526004016131c49190616395565b60405180910390fd5b506109c4603b60006101000a81548167ffffffffffffffff021916908367ffffffffffffffff1602179055506009603a60006101000a8154816fffffffffffffffffffffffffffffffff02191690836fffffffffffffffffffffffffffffffff1602179055506000603a60106101000a8154816fffffffffffffffffffffffffffffffff02191690836fffffffffffffffffffffffffffffffff160217905550801561328f576000600160006101000a81548160ff0219169083151502179055505b505050565b73__$5157860d6e8796e816c59125dcbc9decd5$__636973f744603460008573ffffffffffffffffffffffffffffffffffffffff1673ffffffffffffffffffffffffffffffffffffffff16815260200190815260200160002084846040518463ffffffff1660e01b815260040161330d9392919061725a565b60006040518083038186803b15801561332557600080fd5b505af4158015613339573d6000803e3d6000fd5b505050505050565b6133496144ac565b73__$fe21a1d4eaaeaff9e8fbaf7fdfd147fd7e$__6387b322b28484846040518463ffffffff1660e01b815260040161338493929190617291565b60006040518083038186803b15801561339c57600080fd5b505af41580156133b0573d6000803e3d6000fd5b50505050505050565b6000613402603460008473ffffffffffffffffffffffffffffffffffffffff1673ffffffffffffffffffffffffffffffffffffffff16815260200190815260200160002061462e565b9050919050565b60606000603b60089054906101000a900461ffff1661ffff1690506000808267ffffffffffffffff81111561344157613440615c5f565b5b60405190808252806020026020018201604052801561346f5781602001602082028036833780820191505090505b50905060005b8381101561359757600073ffffffffffffffffffffffffffffffffffffffff166036600083815260200190815260200160002060009054906101000a900473ffffffffffffffffffffffffffffffffffffffff1673ffffffffffffffffffffffffffffffffffffffff1614613575576036600082815260200190815260200160002060009054906101000a900473ffffffffffffffffffffffffffffffffffffffff1682848361352591906172c8565b81518110613536576135356172fc565b5b602002602001019073ffffffffffffffffffffffffffffffffffffffff16908173ffffffffffffffffffffffffffffffffffffffff1681525050613584565b82806135809061732b565b9350505b808061358f9061732b565b915050613475565b50818303815280935050505090565b6135ae6140eb565b60008260ff1614156040518060400160405280600281526020017f31360000000000000000000000000000000000000000000000000000000000008152509061362d576040517f08c379a00000000000000000000000000000000000000000000000000000000081526004016136249190616395565b60405180910390fd5b5080603760008460ff1660ff16815260200190815260200160002060008201518160000160006101000a81548161ffff021916908361ffff16021790555060208201518160000160026101000a81548161ffff021916908361ffff16021790555060408201518160000160046101000a81548161ffff021916908361ffff16021790555060608201518160000160066101000a81548173ffffffffffffffffffffffffffffffffffffffff021916908373ffffffffffffffffffffffffffffffffffffffff1602179055506080820151816001019080519060200190613714929190614b2b565b509050505050565b603460008773ffffffffffffffffffffffffffffffffffffffff1673ffffffffffffffffffffffffffffffffffffffff16815260200190815260200160002060040160009054906101000a900473ffffffffffffffffffffffffffffffffffffffff1673ffffffffffffffffffffffffffffffffffffffff163373ffffffffffffffffffffffffffffffffffffffff16146040518060400160405280600281526020017f313100000000000000000000000000000000000000000000000000000000000081525090613824576040517f08c379a000000000000000000000000000000000000000000000000000000000815260040161381b9190616395565b60405180910390fd5b5073__$792a6858e828a9166a182213cb74cf182c$__638a5dadd160346036603760356040518061012001604052808d73ffffffffffffffffffffffffffffffffffffffff1681526020018c73ffffffffffffffffffffffffffffffffffffffff1681526020018b73ffffffffffffffffffffffffffffffffffffffff1681526020018a8152602001898152602001888152602001603b60089054906101000a900461ffff1661ffff1681526020017f000000000000000000000000000000000000000000000000000000000000000073ffffffffffffffffffffffffffffffffffffffff1663fca513a86040518163ffffffff1660e01b8152600401602060405180830381865afa15801561393e573d6000803e3d6000fd5b505050506040513d601f19601f82011682018060405250810190613962919061607e565b73ffffffffffffffffffffffffffffffffffffffff168152602001603860008e73ffffffffffffffffffffffffffffffffffffffff1673ffffffffffffffffffffffffffffffffffffffff16815260200190815260200160002060009054906101000a900460ff1660ff168152506040518663ffffffff1660e01b81526004016139f095949392919061742b565b60006040518083038186803b158015613a0857600080fd5b505af4158015613a1c573d6000803e3d6000fd5b50505050505050505050565b613a30614310565b73__$1a5b5028a57ae19be99589a53297134eab$__638e743248603460008673ffffffffffffffffffffffffffffffffffffffff1673ffffffffffffffffffffffffffffffffffffffff1681526020019081526020016000208585856039546040518663ffffffff1660e01b8152600401613aaf95949392919061747f565b60006040518083038186803b158015613ac757600080fd5b505af4158015613adb573d6000803e3d6000fd5b50505050505050565b613aec6140eb565b73__$fe21a1d4eaaeaff9e8fbaf7fdfd147fd7e$__631e3b41456034836040518363ffffffff1660e01b8152600401613b269291906174d2565b60006040518083038186803b158015613b3e57600080fd5b505af4158015613b52573d6000803e3d6000fd5b5050505050565b6000603b60009054906101000a900467ffffffffffffffff1667ffffffffffffffff16905090565b73__$792a6858e828a9166a182213cb74cf182c$__631913f16160346036603560008773ffffffffffffffffffffffffffffffffffffffff1673ffffffffffffffffffffffffffffffffffffffff16815260200190815260200160002060405180608001604052808a73ffffffffffffffffffffffffffffffffffffffff1681526020018981526020018873ffffffffffffffffffffffffffffffffffffffff1681526020018761ffff168152506040518563ffffffff1660e01b8152600401613c4e9493929190616306565b60006040518083038186803b158015613c6657600080fd5b505af4158015613c7a573d6000803e3d6000fd5b5050505050505050565b6000603860008373ffffffffffffffffffffffffffffffffffffffff1673ffffffffffffffffffffffffffffffffffffffff16815260200190815260200160002060009054906101000a900460ff1660ff169050919050565b60008873ffffffffffffffffffffffffffffffffffffffff1663d505accf33308b898989896040518863ffffffff1660e01b8152600401613d24979695949392919061622c565b600060405180830381600087803b158015613d3e57600080fd5b505af1158015613d52573d6000803e3d6000fd5b5050505060006040518060a001604052808b73ffffffffffffffffffffffffffffffffffffffff1681526020018a8152602001896002811115613d9857613d97616462565b5b6002811115613daa57613da9616462565b5b81526020018873ffffffffffffffffffffffffffffffffffffffff16815260200160001515815250905073__$5157860d6e8796e816c59125dcbc9decd5$__6340e95de660346036603560008c73ffffffffffffffffffffffffffffffffffffffff1673ffffffffffffffffffffffffffffffffffffffff168152602001908152602001600020856040518563ffffffff1660e01b8152600401613e519493929190616541565b602060405180830381865af4158015613e6e573d6000803e3d6000fd5b505050506040513d601f19601f82011682018060405250810190613e92919061659c565b91505098975050505050505050565b613ea96140eb565b600073ffffffffffffffffffffffffffffffffffffffff168273ffffffffffffffffffffffffffffffffffffffff1614156040518060400160405280600281526020017f373700000000000000000000000000000000000000000000000000000000000081525090613f51576040517f08c379a0000000000000000000000000000000000000000000000000000000008152600401613f489190616395565b60405180910390fd5b506000603460008473ffffffffffffffffffffffffffffffffffffffff1673ffffffffffffffffffffffffffffffffffffffff16815260200190815260200160002060030160159054906101000a900461ffff1661ffff1614158061401457508173ffffffffffffffffffffffffffffffffffffffff166036600080815260200190815260200160002060009054906101000a900473ffffffffffffffffffffffffffffffffffffffff1673ffffffffffffffffffffffffffffffffffffffff16145b6040518060400160405280600281526020017f38320000000000000000000000000000000000000000000000000000000000008152509061408b576040517f08c379a00000000000000000000000000000000000000000000000000000000081526004016140829190616395565b60405180910390fd5b5080603460008473ffffffffffffffffffffffffffffffffffffffff1673ffffffffffffffffffffffffffffffffffffffff16815260200190815260200160002060000181816140db91906175d4565b9050505050565b60006080905090565b3373ffffffffffffffffffffffffffffffffffffffff167f000000000000000000000000000000000000000000000000000000000000000073ffffffffffffffffffffffffffffffffffffffff1663631adfca6040518163ffffffff1660e01b8152600401602060405180830381865afa15801561416d573d6000803e3d6000fd5b505050506040513d601f19601f82011682018060405250810190614191919061607e565b73ffffffffffffffffffffffffffffffffffffffff16146040518060400160405280600281526020017f31300000000000000000000000000000000000000000000000000000000000008152509061421f576040517f08c379a00000000000000000000000000000000000000000000000000000000081526004016142169190616395565b60405180910390fd5b50565b6000808260030160109054906101000a900464ffffffffff169050428164ffffffffff161415614287578260020160009054906101000a90046fffffffffffffffffffffffffffffffff166fffffffffffffffffffffffffffffffff1691505061430b565b6143078360020160009054906101000a90046fffffffffffffffffffffffffffffffff166fffffffffffffffffffffffffffffffff166142f98560020160109054906101000a90046fffffffffffffffffffffffffffffffff166fffffffffffffffffffffffffffffffff168461471c565b61473190919063ffffffff16565b9150505b919050565b7f000000000000000000000000000000000000000000000000000000000000000073ffffffffffffffffffffffffffffffffffffffff1663707cd7166040518163ffffffff1660e01b8152600401602060405180830381865afa15801561437b573d6000803e3d6000fd5b505050506040513d601f19601f8201168201806040525081019061439f919061607e565b73ffffffffffffffffffffffffffffffffffffffff1663726600ce336040518263ffffffff1660e01b81526004016143d791906153c7565b602060405180830381865afa1580156143f4573d6000803e3d6000fd5b505050506040513d601f19601f820116820180604052508101906144189190616aab565b6040518060400160405280600181526020017f36000000000000000000000000000000000000000000000000000000000000008152509061448f576040517f08c379a00000000000000000000000000000000000000000000000000000000081526004016144869190616395565b60405180910390fd5b50565b60006001905090565b600080303b90506000811491505090565b7f000000000000000000000000000000000000000000000000000000000000000073ffffffffffffffffffffffffffffffffffffffff1663707cd7166040518163ffffffff1660e01b8152600401602060405180830381865afa158015614517573d6000803e3d6000fd5b505050506040513d601f19601f8201168201806040525081019061453b919061607e565b73ffffffffffffffffffffffffffffffffffffffff16637be53ca1336040518263ffffffff1660e01b815260040161457391906153c7565b602060405180830381865afa158015614590573d6000803e3d6000fd5b505050506040513d601f19601f820116820180604052508101906145b49190616aab565b6040518060400160405280600181526020017f31000000000000000000000000000000000000000000000000000000000000008152509061462b576040517f08c379a00000000000000000000000000000000000000000000000000000000081526004016146229190616395565b60405180910390fd5b50565b6000808260030160109054906101000a900464ffffffffff169050428164ffffffffff161415614693578260010160009054906101000a90046fffffffffffffffffffffffffffffffff166fffffffffffffffffffffffffffffffff16915050614717565b6147138360010160009054906101000a90046fffffffffffffffffffffffffffffffff166fffffffffffffffffffffffffffffffff166147058560010160109054906101000a90046fffffffffffffffffffffffffffffffff166fffffffffffffffffffffffffffffffff168461477c565b61473190919063ffffffff16565b9150505b919050565b60006147298383426147d7565b905092915050565b6000816b019d971e4fe8401e74000000600019030483111582151761475557600080fd5b6b033b2e3c9fd0803ce80000006b019d971e4fe8401e740000008385020104905092915050565b6000808264ffffffffff164261479291906172c8565b8461479d91906175e2565b90506301e1338081816147b3576147b261763c565b5b049050806b033b2e3c9fd0803ce80000006147ce919061766b565b91505092915050565b6000808364ffffffffff16836147ed91906172c8565b9050600081141561480d576b033b2e3c9fd0803ce800000091505061493e565b6000806000806001850393506002851161482857600061482d565b600285035b92506301e1338080026148498a8b61473190919063ffffffff16565b816148575761485661763c565b5b0491506301e133806148728a8461473190919063ffffffff16565b816148805761487f61763c565b5b049050600082858761489291906175e2565b61489c91906175e2565b9050600281816148af576148ae61763c565b5b0490506000828587896148c291906175e2565b6148cc91906175e2565b6148d691906175e2565b9050600681816148e9576148e861763c565b5b04905080826301e13380898e6148ff91906175e2565b61490991906176c1565b6b033b2e3c9fd0803ce8000000614920919061766b565b61492a919061766b565b614934919061766b565b9750505050505050505b9392505050565b604051806101e00160405280614959614b18565b815260200160006fffffffffffffffffffffffffffffffff16815260200160006fffffffffffffffffffffffffffffffff16815260200160006fffffffffffffffffffffffffffffffff16815260200160006fffffffffffffffffffffffffffffffff16815260200160006fffffffffffffffffffffffffffffffff168152602001600064ffffffffff168152602001600061ffff168152602001600073ffffffffffffffffffffffffffffffffffffffff168152602001600073ffffffffffffffffffffffffffffffffffffffff168152602001600073ffffffffffffffffffffffffffffffffffffffff168152602001600073ffffffffffffffffffffffffffffffffffffffff16815260200160006fffffffffffffffffffffffffffffffff16815260200160006fffffffffffffffffffffffffffffffff16815260200160006fffffffffffffffffffffffffffffffff1681525090565b6040518060200160405280600081525090565b6040518060a00160405280600061ffff168152602001600061ffff168152602001600061ffff168152602001600073ffffffffffffffffffffffffffffffffffffffff168152602001606081525090565b6040518060200160405280600081525090565b828054614b379061699e565b90600052602060002090601f016020900481019282614b595760008555614ba0565b82601f10614b7257805160ff1916838001178555614ba0565b82800160010185558215614ba0579182015b82811115614b9f578251825591602001919060010190614b84565b5b509050614bad9190614bb1565b5090565b5b80821115614bca576000816000905550600101614bb2565b5090565b6000604051905090565b600080fd5b600080fd5b600073ffffffffffffffffffffffffffffffffffffffff82169050919050565b6000614c0d82614be2565b9050919050565b614c1d81614c02565b8114614c2857600080fd5b50565b600081359050614c3a81614c14565b92915050565b6000819050919050565b614c5381614c40565b8114614c5e57600080fd5b50565b600081359050614c7081614c4a565b92915050565b60008115159050919050565b614c8b81614c76565b8114614c9657600080fd5b50565b600081359050614ca881614c82565b92915050565b600080600080600060a08688031215614cca57614cc9614bd8565b5b6000614cd888828901614c2b565b9550506020614ce988828901614c2b565b9450506040614cfa88828901614c2b565b9350506060614d0b88828901614c61565b9250506080614d1c88828901614c99565b9150509295509295909350565b614d3281614c40565b82525050565b6000602082019050614d4d6000830184614d29565b92915050565b600061ffff82169050919050565b614d6a81614d53565b8114614d7557600080fd5b50565b600081359050614d8781614d61565b92915050565b600060ff82169050919050565b614da381614d8d565b8114614dae57600080fd5b50565b600081359050614dc081614d9a565b92915050565b6000819050919050565b614dd981614dc6565b8114614de457600080fd5b50565b600081359050614df681614dd0565b92915050565b600080600080600080600080610100898b031215614e1d57614e1c614bd8565b5b6000614e2b8b828c01614c2b565b9850506020614e3c8b828c01614c61565b9750506040614e4d8b828c01614c2b565b9650506060614e5e8b828c01614d78565b9550506080614e6f8b828c01614c61565b94505060a0614e808b828c01614db1565b93505060c0614e918b828c01614de7565b92505060e0614ea28b828c01614de7565b9150509295985092959890939650565b6000819050919050565b6000614ed7614ed2614ecd84614be2565b614eb2565b614be2565b9050919050565b6000614ee982614ebc565b9050919050565b6000614efb82614ede565b9050919050565b614f0b81614ef0565b82525050565b6000602082019050614f266000830184614f02565b92915050565b60006fffffffffffffffffffffffffffffffff82169050919050565b614f5181614f2c565b82525050565b6000602082019050614f6c6000830184614f48565b92915050565b60008060408385031215614f8957614f88614bd8565b5b6000614f9785828601614c2b565b9250506020614fa885828601614c2b565b9150509250929050565b600060208284031215614fc857614fc7614bd8565b5b6000614fd684828501614db1565b91505092915050565b600080600060608486031215614ff857614ff7614bd8565b5b600061500686828701614c2b565b935050602061501786828701614c61565b925050604061502886828701614c61565b9150509250925092565b60006020828403121561504857615047614bd8565b5b600061505684828501614c61565b91505092915050565b60006020828403121561507557615074614bd8565b5b600061508384828501614c2b565b91505092915050565b61509581614c40565b82525050565b6020820160008201516150b1600085018261508c565b50505050565b6150c081614f2c565b82525050565b600064ffffffffff82169050919050565b6150e0816150c6565b82525050565b6150ef81614d53565b82525050565b6150fe81614c02565b82525050565b6101e08201600082015161511b600085018261509b565b50602082015161512e60208501826150b7565b50604082015161514160408501826150b7565b50606082015161515460608501826150b7565b50608082015161516760808501826150b7565b5060a082015161517a60a08501826150b7565b5060c082015161518d60c08501826150d7565b5060e08201516151a060e08501826150e6565b506101008201516151b56101008501826150f5565b506101208201516151ca6101208501826150f5565b506101408201516151df6101408501826150f5565b506101608201516151f46101608501826150f5565b506101808201516152096101808501826150b7565b506101a082015161521e6101a08501826150b7565b506101c08201516152336101c08501826150b7565b50505050565b60006101e08201905061524f6000830184615104565b92915050565b600080fd5b600080fd5b600080fd5b60008083601f84011261527a57615279615255565b5b8235905067ffffffffffffffff8111156152975761529661525a565b5b6020830191508360018202830111156152b3576152b261525f565b5b9250929050565b60008060008060008060a087890312156152d7576152d6614bd8565b5b60006152e589828a01614c2b565b96505060206152f689828a01614c2b565b955050604061530789828a01614c61565b945050606087013567ffffffffffffffff81111561532857615327614bdd565b5b61533489828a01615264565b9350935050608061534789828a01614d78565b9150509295509295509295565b60208201600082015161536a600085018261508c565b50505050565b60006020820190506153856000830184615354565b92915050565b6000602082840312156153a1576153a0614bd8565b5b60006153af84828501614d78565b91505092915050565b6153c181614c02565b82525050565b60006020820190506153dc60008301846153b8565b92915050565b600080600080608085870312156153fc576153fb614bd8565b5b600061540a87828801614c2b565b945050602061541b87828801614c61565b935050604061542c87828801614c61565b925050606061543d87828801614c2b565b91505092959194509250565b600080604083850312156154605761545f614bd8565b5b600061546e85828601614c2b565b925050602061547f85828601614c99565b9150509250929050565b600080600080608085870312156154a3576154a2614bd8565b5b60006154b187828801614c2b565b94505060206154c287828801614c61565b93505060406154d387828801614c2b565b92505060606154e487828801614d78565b91505092959194509250565b60008060006060848603121561550957615508614bd8565b5b600061551786828701614c2b565b935050602061552886828701614c61565b925050604061553986828701614c2b565b9150509250925092565b600081519050919050565b600082825260208201905092915050565b60005b8381101561557d578082015181840152602081019050615562565b8381111561558c576000848401525b50505050565b6000601f19601f8301169050919050565b60006155ae82615543565b6155b8818561554e565b93506155c881856020860161555f565b6155d181615592565b840191505092915050565b600060a0830160008301516155f460008601826150e6565b50602083015161560760208601826150e6565b50604083015161561a60408601826150e6565b50606083015161562d60608601826150f5565b506080830151848203608086015261564582826155a3565b9150508091505092915050565b6000602082019050818103600083015261566c81846155dc565b905092915050565b600080600080600060a086880312156156905761568f614bd8565b5b600061569e88828901614c2b565b95505060206156af88828901614c2b565b94505060406156c088828901614c2b565b93505060606156d188828901614c2b565b92505060806156e288828901614c2b565b9150509295509295909350565b6000806040838503121561570657615705614bd8565b5b600061571485828601614c2b565b925050602061572585828601614c61565b9150509250929050565b60008083601f84011261574557615744615255565b5b8235905067ffffffffffffffff8111156157625761576161525a565b5b60208301915083602082028301111561577e5761577d61525f565b5b9250929050565b6000806020838503121561579c5761579b614bd8565b5b600083013567ffffffffffffffff8111156157ba576157b9614bdd565b5b6157c68582860161572f565b92509250509250929050565b600080600080600060a086880312156157ee576157ed614bd8565b5b60006157fc88828901614c2b565b955050602061580d88828901614c61565b945050604061581e88828901614c61565b935050606061582f88828901614d78565b925050608061584088828901614c2b565b9150509295509295909350565b60008083601f84011261586357615862615255565b5b8235905067ffffffffffffffff8111156158805761587f61525a565b5b60208301915083602082028301111561589c5761589b61525f565b5b9250929050565b600080600080600080600080600080600060e08c8e0312156158c8576158c7614bd8565b5b60006158d68e828f01614c2b565b9b505060208c013567ffffffffffffffff8111156158f7576158f6614bdd565b5b6159038e828f0161572f565b9a509a505060408c013567ffffffffffffffff81111561592657615925614bdd565b5b6159328e828f0161584d565b985098505060608c013567ffffffffffffffff81111561595557615954614bdd565b5b6159618e828f0161584d565b965096505060806159748e828f01614c2b565b94505060a08c013567ffffffffffffffff81111561599557615994614bdd565b5b6159a18e828f01615264565b935093505060c06159b48e828f01614d78565b9150509295989b509295989b9093969950565b6159d081614f2c565b81146159db57600080fd5b50565b6000813590506159ed816159c7565b92915050565b60008060408385031215615a0a57615a09614bd8565b5b6000615a18858286016159de565b9250506020615a29858286016159de565b9150509250929050565b600060c082019050615a486000830189614d29565b615a556020830188614d29565b615a626040830187614d29565b615a6f6060830186614d29565b615a7c6080830185614d29565b615a8960a0830184614d29565b979650505050505050565b602082016000820151615aaa600085018261508c565b50505050565b6000602082019050615ac56000830184615a94565b92915050565b6000615ad682614c02565b9050919050565b615ae681615acb565b8114615af157600080fd5b50565b600081359050615b0381615add565b92915050565b600060208284031215615b1f57615b1e614bd8565b5b6000615b2d84828501615af4565b91505092915050565b600080600060608486031215615b4f57615b4e614bd8565b5b6000615b5d86828701614c2b565b9350506020615b6e86828701614c2b565b9250506040615b7f86828701614c61565b9150509250925092565b600081519050919050565b600082825260208201905092915050565b6000819050602082019050919050565b6000615bc183836150f5565b60208301905092915050565b6000602082019050919050565b6000615be582615b89565b615bef8185615b94565b9350615bfa83615ba5565b8060005b83811015615c2b578151615c128882615bb5565b9750615c1d83615bcd565b925050600181019050615bfe565b5085935050505092915050565b60006020820190508181036000830152615c528184615bda565b905092915050565b600080fd5b7f4e487b7100000000000000000000000000000000000000000000000000000000600052604160045260246000fd5b615c9782615592565b810181811067ffffffffffffffff82111715615cb657615cb5615c5f565b5b80604052505050565b6000615cc9614bce565b9050615cd58282615c8e565b919050565b600080fd5b600080fd5b600067ffffffffffffffff821115615cff57615cfe615c5f565b5b615d0882615592565b9050602081019050919050565b82818337600083830152505050565b6000615d37615d3284615ce4565b615cbf565b905082815260208101848484011115615d5357615d52615cdf565b5b615d5e848285615d15565b509392505050565b600082601f830112615d7b57615d7a615255565b5b8135615d8b848260208601615d24565b91505092915050565b600060a08284031215615daa57615da9615c5a565b5b615db460a0615cbf565b90506000615dc484828501614d78565b6000830152506020615dd884828501614d78565b6020830152506040615dec84828501614d78565b6040830152506060615e0084828501614c2b565b606083015250608082013567ffffffffffffffff811115615e2457615e23615cda565b5b615e3084828501615d66565b60808301525092915050565b60008060408385031215615e5357615e52614bd8565b5b6000615e6185828601614db1565b925050602083013567ffffffffffffffff811115615e8257615e81614bdd565b5b615e8e85828601615d94565b9150509250929050565b60008060008060008060c08789031215615eb557615eb4614bd8565b5b6000615ec389828a01614c2b565b9650506020615ed489828a01614c2b565b9550506040615ee589828a01614c2b565b9450506060615ef689828a01614c61565b9350506080615f0789828a01614c61565b92505060a0615f1889828a01614c61565b9150509295509295509295565b600080600080600080600080610100898b031215615f4657615f45614bd8565b5b6000615f548b828c01614c2b565b9850506020615f658b828c01614c61565b9750506040615f768b828c01614c61565b9650506060615f878b828c01614c2b565b9550506080615f988b828c01614c61565b94505060a0615fa98b828c01614db1565b93505060c0615fba8b828c01614de7565b92505060e0615fcb8b828c01614de7565b9150509295985092959890939650565b600080fd5b600060208284031215615ff657615ff5615fdb565b5b81905092915050565b6000806040838503121561601657616015614bd8565b5b600061602485828601614c2b565b925050602061603585828601615fe0565b9150509250929050565b61604881614d53565b82525050565b6000602082019050616063600083018461603f565b92915050565b60008151905061607881614c14565b92915050565b60006020828403121561609457616093614bd8565b5b60006160a284828501616069565b91505092915050565b8082525050565b8082525050565b8082525050565b8082525050565b6160d081614c40565b82525050565b6160df81614c02565b82525050565b6160ee81614c76565b82525050565b6160fd81614d8d565b82525050565b6101208201600082015161611a60008501826160c7565b50602082015161612d60208501826160c7565b50604082015161614060408501826160d6565b50606082015161615360608501826160d6565b50608082015161616660808501826160d6565b5060a082015161617960a08501826160e5565b5060c082015161618c60c08501826160d6565b5060e082015161619f60e08501826160f4565b506101008201516161b46101008501826160d6565b50505050565b60006101a0820190506161d060008301886160ab565b6161dd60208301876160b2565b6161ea60408301866160b9565b6161f760608301856160c0565b6162046080830184616103565b9695505050505050565b61621781614d8d565b82525050565b61622681614dc6565b82525050565b600060e082019050616241600083018a6153b8565b61624e60208301896153b8565b61625b6040830188614d29565b6162686060830187614d29565b616275608083018661620e565b61628260a083018561621d565b61628f60c083018461621d565b98975050505050505050565b8082525050565b6162ab81614d53565b82525050565b6080820160008201516162c760008501826160d6565b5060208201516162da60208501826160c7565b5060408201516162ed60408501826160d6565b50606082015161630060608501826162a2565b50505050565b600060e08201905061631b60008301876160ab565b61632860208301866160b2565b616335604083018561629b565b61634260608301846162b1565b95945050505050565b600082825260208201905092915050565b600061636782615543565b616371818561634b565b935061638181856020860161555f565b61638a81615592565b840191505092915050565b600060208201905081810360008301526163af818461635c565b905092915050565b8082525050565b6060820160008201516163d460008501826160c7565b5060208201516163e760208501826160d6565b5060408201516163fa60408501826160f4565b50505050565b60006101008201905061641660008301896160ab565b61642360208301886160b2565b61643060408301876160c0565b61643d60608301866163b7565b61644a608083018561629b565b61645760a08301846163be565b979650505050505050565b7f4e487b7100000000000000000000000000000000000000000000000000000000600052602160045260246000fd5b600381106164a2576164a1616462565b5b50565b60008190506164b382616491565b919050565b60006164c3826164a5565b9050919050565b6164d3816164b8565b82525050565b60a0820160008201516164ef60008501826160d6565b50602082015161650260208501826160c7565b50604082015161651560408501826164ca565b50606082015161652860608501826160d6565b50608082015161653b60808501826160e5565b50505050565b60006101008201905061655760008301876160ab565b61656460208301866160b2565b616571604083018561629b565b61657e60608301846164d9565b95945050505050565b60008151905061659681614c4a565b92915050565b6000602082840312156165b2576165b1614bd8565b5b60006165c084828501616587565b91505092915050565b8082525050565b600081519050919050565b600082825260208201905092915050565b60006165f7826165d0565b61660181856165db565b935061661181856020860161555f565b61661a81615592565b840191505092915050565b600060e08301600083015161663d60008601826160d6565b50602083015161665060208601826160d6565b50604083015161666360408601826160c7565b506060830151848203606086015261667b82826165ec565b915050608083015161669060808601826162a2565b5060a08301516166a360a08601826160c7565b5060c08301516166b660c08601826160c7565b508091505092915050565b60006040820190506166d660008301856165c9565b81810360208301526166e88184616625565b90509392505050565b6166fa81614c02565b82525050565b61670981614c76565b82525050565b600061672a61672561672084614d53565b614eb2565b614c40565b9050919050565b61673a8161670f565b82525050565b61674981614d8d565b82525050565b600061012082019050616765600083018c6160ab565b616772602083018b6160b2565b61677f604083018a6160c0565b61678c606083018961629b565b61679960808301886166f1565b6167a660a0830187616700565b6167b360c0830186616731565b6167c060e08301856166f1565b6167ce610100830184616740565b9a9950505050505050505050565b60006060820190506167f160008301866160ab565b6167fe60208301856160b2565b61680b60408301846166f1565b949350505050565b60c08201600082015161682960008501826160d6565b50602082015161683c60208501826160c7565b50604082015161684f60408501826160d6565b50606082015161686260608501826160c7565b50608082015161687560808501826160d6565b5060a082015161688860a08501826160f4565b50505050565b6000610140820190506168a460008301886160ab565b6168b160208301876160b2565b6168be60408301866160c0565b6168cb606083018561629b565b6168d86080830184616813565b9695505050505050565b6168eb81614c40565b82525050565b6168fa81614d53565b82525050565b600060e082019050616915600083018a6160ab565b61692260208301896160b2565b61692f604083018861629b565b61693c60608301876166f1565b61694960808301866168e2565b61695660a08301856166f1565b61696360c08301846168f1565b98975050505050505050565b7f4e487b7100000000000000000000000000000000000000000000000000000000600052602260045260246000fd5b600060028204905060018216806169b657607f821691505b602082108114156169ca576169c961696f565b5b50919050565b60e0820160008201516169e660008501826160d6565b5060208201516169f960208501826160d6565b506040820151616a0c60408501826160d6565b506060820151616a1f60608501826160d6565b506080820151616a3260808501826160d6565b5060a0820151616a4560a08501826162a2565b5060c0820151616a5860c08501826162a2565b50505050565b600061012082019050616a7460008301866160ab565b616a8160208301856160b2565b616a8e60408301846169d0565b949350505050565b600081519050616aa581614c82565b92915050565b600060208284031215616ac157616ac0614bd8565b5b6000616acf84828501616a96565b91505092915050565b7f4e487b7100000000000000000000000000000000000000000000000000000000600052601160045260246000fd5b6000616b1282614d53565b915061ffff821415616b2757616b26616ad8565b5b600182019050919050565b616b3b816164b8565b82525050565b6000608082019050616b5660008301876165c9565b616b63602083018661629b565b616b7060408301856166f1565b616b7d6060830184616b32565b95945050505050565b600082825260208201905092915050565b6000819050919050565b6000616bad83836160d6565b60208301905092915050565b6000616bc86020840184614c2b565b905092915050565b6000602082019050919050565b6000616be98385616b86565b9350616bf482616b97565b8060005b85811015616c2d57616c0a8284616bb9565b616c148882616ba1565b9750616c1f83616bd0565b925050600181019050616bf8565b5085925050509392505050565b6000604082019050616c4f60008301866160ab565b8181036020830152616c62818486616bdd565b9050949350505050565b61018082016000820151616c8360008501826160d6565b506020820151616c9660208501826160d6565b506040820151616ca960408501826160d6565b506060820151616cbc60608501826160c7565b506080820151616ccf60808501826164ca565b5060a0820151616ce260a08501826162a2565b5060c0820151616cf560c08501826160e5565b5060e0820151616d0860e08501826160c7565b50610100820151616d1d6101008501826160c7565b50610120820151616d326101208501826160d6565b50610140820151616d476101408501826160f4565b50610160820151616d5c6101608501826160d6565b50505050565b600061020082019050616d7860008301886160ab565b616d8560208301876160b2565b616d9260408301866160c0565b616d9f606083018561629b565b616dac6080830184616c6c565b9695505050505050565b600082825260208201905092915050565b6000616dd282615b89565b616ddc8185616db6565b9350616de783615ba5565b8060005b83811015616e18578151616dff8882616ba1565b9750616e0a83615bcd565b925050600181019050616deb565b5085935050505092915050565b600081519050919050565b600082825260208201905092915050565b6000819050602082019050919050565b6000616e5d83836160c7565b60208301905092915050565b6000602082019050919050565b6000616e8182616e25565b616e8b8185616e30565b9350616e9683616e41565b8060005b83811015616ec7578151616eae8882616e51565b9750616eb983616e69565b925050600181019050616e9a565b5085935050505092915050565b60006101c083016000830151616eed60008601826160d6565b5060208301518482036020860152616f058282616dc7565b91505060408301518482036040860152616f1f8282616e76565b91505060608301518482036060860152616f398282616e76565b9150506080830151616f4e60808601826160d6565b5060a083015184820360a0860152616f6682826165ec565b91505060c0830151616f7b60c08601826162a2565b5060e0830151616f8e60e08601826160c7565b50610100830151616fa36101008601826160c7565b50610120830151616fb86101208601826160c7565b50610140830151616fcd6101408601826160c7565b50610160830151616fe26101608601826160d6565b50610180830151616ff76101808601826160f4565b506101a083015161700c6101a08601826160e5565b508091505092915050565b600060a08201905061702c60008301886160ab565b61703960208301876160b2565b61704660408301866160c0565b617053606083018561629b565b81810360808301526170658184616ed4565b90509695505050505050565b60208201600082015161708760008501826160c7565b50505050565b60a0820160008201516170a36000850182617071565b5060208201516170b660208501826160c7565b5060408201516170c960408501826160d6565b5060608201516170dc60608501826160d6565b5060808201516170ef60808501826160f4565b50505050565b60006101008201905061710b60008301876160ab565b61711860208301866160b2565b61712560408301856160c0565b617132606083018461708d565b95945050505050565b60008060008060008060c0878903121561715857617157614bd8565b5b600061716689828a01616587565b965050602061717789828a01616587565b955050604061718889828a01616587565b945050606061719989828a01616587565b93505060806171aa89828a01616587565b92505060a06171bb89828a01616587565b9150509295509295509295565b7f436f6e747261637420696e7374616e63652068617320616c726561647920626560008201527f656e20696e697469616c697a6564000000000000000000000000000000000000602082015250565b6000617224602e8361634b565b915061722f826171c8565b604082019050919050565b6000602082019050818103600083015261725381617217565b9050919050565b600060608201905061726f60008301866165c9565b61727c60208301856166f1565b61728960408301846166f1565b949350505050565b60006060820190506172a660008301866166f1565b6172b360208301856166f1565b6172c060408301846168e2565b949350505050565b60006172d382614c40565b91506172de83614c40565b9250828210156172f1576172f0616ad8565b5b828203905092915050565b7f4e487b7100000000000000000000000000000000000000000000000000000000600052603260045260246000fd5b600061733682614c40565b91507fffffffffffffffffffffffffffffffffffffffffffffffffffffffffffffffff82141561736957617368616ad8565b5b600182019050919050565b6101208201600082015161738b60008501826160d6565b50602082015161739e60208501826160d6565b5060408201516173b160408501826160d6565b5060608201516173c460608501826160c7565b5060808201516173d760808501826160c7565b5060a08201516173ea60a08501826160c7565b5060c08201516173fd60c08501826160c7565b5060e082015161741060e08501826160d6565b506101008201516174256101008501826160f4565b50505050565b60006101a08201905061744160008301886160ab565b61744e60208301876160b2565b61745b60408301866160c0565b61746860608301856160b9565b6174756080830184617374565b9695505050505050565b600060a08201905061749460008301886165c9565b6174a160208301876166f1565b6174ae60408301866168e2565b6174bb60608301856168e2565b6174c860808301846168e2565b9695505050505050565b60006040820190506174e760008301856160ab565b6174f460208301846166f1565b9392505050565b6000813561750881614c4a565b80915050919050565b60008160001b9050919050565b60007fffffffffffffffffffffffffffffffffffffffffffffffffffffffffffffffff61754a84617511565b9350801983169250808416831791505092915050565b600061757b61757661757184614c40565b614eb2565b614c40565b9050919050565b6000819050919050565b61759582617560565b6175a86175a182617582565b835461751e565b8255505050565b6000810160008301806175c1816174fb565b90506175cd818461758c565b5050505050565b6175de82826175af565b5050565b60006175ed82614c40565b91506175f883614c40565b9250817fffffffffffffffffffffffffffffffffffffffffffffffffffffffffffffffff048311821515161561763157617630616ad8565b5b828202905092915050565b7f4e487b7100000000000000000000000000000000000000000000000000000000600052601260045260246000fd5b600061767682614c40565b915061768183614c40565b9250827fffffffffffffffffffffffffffffffffffffffffffffffffffffffffffffffff038211156176b6576176b5616ad8565b5b828201905092915050565b60006176cc82614c40565b91506176d783614c40565b9250826176e7576176e661763c565b5b82820490509291505056fea2646970667358221220175f0238fdb3a5a526e49f38533cd63bcae4f272d38a46ef78087f067226c3b964736f6c634300080a0033",
  "linkReferences": {
    "contracts/Aave_Contracts/protocol/libraries/logic/BorrowLogic.sol": {
      "BorrowLogic": [
        {
          "length": 20,
          "start": 4824
        },
        {
          "length": 20,
          "start": 6980
        },
        {
          "length": 20,
          "start": 9664
        },
        {
          "length": 20,
          "start": 10031
        },
        {
          "length": 20,
          "start": 13377
        },
        {
          "length": 20,
          "start": 16257
        }
      ]
    },
    "contracts/Aave_Contracts/protocol/libraries/logic/BridgeLogic.sol": {
      "BridgeLogic": [
        {
          "length": 20,
          "start": 8665
        },
        {
          "length": 20,
          "start": 15325
        }
      ]
    },
    "contracts/Aave_Contracts/protocol/libraries/logic/EModeLogic.sol": {
      "EModeLogic": [
        {
          "length": 20,
          "start": 4427
        }
      ]
    },
    "contracts/Aave_Contracts/protocol/libraries/logic/FlashLoanLogic.sol": {
      "FlashLoanLogic": [
        {
          "length": 20,
          "start": 6638
        },
        {
          "length": 20,
          "start": 11818
        }
      ]
    },
    "contracts/Aave_Contracts/protocol/libraries/logic/LiquidationLogic.sol": {
      "LiquidationLogic": [
        {
          "length": 20,
          "start": 2652
        }
      ]
    },
    "contracts/Aave_Contracts/protocol/libraries/logic/PoolLogic.sol": {
      "PoolLogic": [
        {
          "length": 20,
          "start": 7990
        },
        {
          "length": 20,
          "start": 9275
        },
        {
          "length": 20,
          "start": 9919
        },
        {
          "length": 20,
          "start": 12143
        },
        {
          "length": 20,
          "start": 13558
        },
        {
          "length": 20,
          "start": 15513
        }
      ]
    },
    "contracts/Aave_Contracts/protocol/libraries/logic/SupplyLogic.sol": {
      "SupplyLogic": [
        {
          "length": 20,
          "start": 3456
        },
        {
          "length": 20,
          "start": 7301
        },
        {
          "length": 20,
          "start": 7723
        },
        {
          "length": 20,
          "start": 8104
        },
        {
          "length": 20,
          "start": 14802
        },
        {
          "length": 20,
          "start": 15662
        }
      ]
    }
  },
  "deployedLinkReferences": {
    "contracts/Aave_Contracts/protocol/libraries/logic/BorrowLogic.sol": {
      "BorrowLogic": [
        {
          "length": 20,
          "start": 4397
        },
        {
          "length": 20,
          "start": 6553
        },
        {
          "length": 20,
          "start": 9237
        },
        {
          "length": 20,
          "start": 9604
        },
        {
          "length": 20,
          "start": 12950
        },
        {
          "length": 20,
          "start": 15830
        }
      ]
    },
    "contracts/Aave_Contracts/protocol/libraries/logic/BridgeLogic.sol": {
      "BridgeLogic": [
        {
          "length": 20,
          "start": 8238
        },
        {
          "length": 20,
          "start": 14898
        }
      ]
    },
    "contracts/Aave_Contracts/protocol/libraries/logic/EModeLogic.sol": {
      "EModeLogic": [
        {
          "length": 20,
          "start": 4000
        }
      ]
    },
    "contracts/Aave_Contracts/protocol/libraries/logic/FlashLoanLogic.sol": {
      "FlashLoanLogic": [
        {
          "length": 20,
          "start": 6211
        },
        {
          "length": 20,
          "start": 11391
        }
      ]
    },
    "contracts/Aave_Contracts/protocol/libraries/logic/LiquidationLogic.sol": {
      "LiquidationLogic": [
        {
          "length": 20,
          "start": 2225
        }
      ]
    },
    "contracts/Aave_Contracts/protocol/libraries/logic/PoolLogic.sol": {
      "PoolLogic": [
        {
          "length": 20,
          "start": 7563
        },
        {
          "length": 20,
          "start": 8848
        },
        {
          "length": 20,
          "start": 9492
        },
        {
          "length": 20,
          "start": 11716
        },
        {
          "length": 20,
          "start": 13131
        },
        {
          "length": 20,
          "start": 15086
        }
      ]
    },
    "contracts/Aave_Contracts/protocol/libraries/logic/SupplyLogic.sol": {
      "SupplyLogic": [
        {
          "length": 20,
          "start": 3029
        },
        {
          "length": 20,
          "start": 6874
        },
        {
          "length": 20,
          "start": 7296
        },
        {
          "length": 20,
          "start": 7677
        },
        {
          "length": 20,
          "start": 14375
        },
        {
          "length": 20,
          "start": 15235
        }
      ]
    }
  }
}