{
  "_format": "hh-sol-artifact-1",
  "contractName": "PriceOracleSentinel",
  "sourceName": "contracts/Aave_Contracts/protocol/configuration/PriceOracleSentinel.sol",
  "abi": [
    {
      "inputs": [
        {
          "internalType": "contract IPoolAddressesProvider",
          "name": "provider",
          "type": "address"
        },
        {
          "internalType": "contract ISequencerOracle",
          "name": "oracle",
          "type": "address"
        },
        {
          "internalType": "uint256",
          "name": "gracePeriod",
          "type": "uint256"
        }
      ],
      "stateMutability": "nonpayable",
      "type": "constructor"
    },
    {
      "anonymous": false,
      "inputs": [
        {
          "indexed": false,
          "internalType": "uint256",
          "name": "newGracePeriod",
          "type": "uint256"
        }
      ],
      "name": "GracePeriodUpdated",
      "type": "event"
    },
    {
      "anonymous": false,
      "inputs": [
        {
          "indexed": false,
          "internalType": "address",
          "name": "newSequencerOracle",
          "type": "address"
        }
      ],
      "name": "SequencerOracleUpdated",
      "type": "event"
    },
    {
      "inputs": [],
      "name": "ADDRESSES_PROVIDER",
      "outputs": [
        {
          "internalType": "contract IPoolAddressesProvider",
          "name": "",
          "type": "address"
        }
      ],
      "stateMutability": "view",
      "type": "function"
    },
    {
      "inputs": [],
      "name": "getGracePeriod",
      "outputs": [
        {
          "internalType": "uint256",
          "name": "",
          "type": "uint256"
        }
      ],
      "stateMutability": "view",
      "type": "function"
    },
    {
      "inputs": [],
      "name": "getSequencerOracle",
      "outputs": [
        {
          "internalType": "address",
          "name": "",
          "type": "address"
        }
      ],
      "stateMutability": "view",
      "type": "function"
    },
    {
      "inputs": [],
      "name": "isBorrowAllowed",
      "outputs": [
        {
          "internalType": "bool",
          "name": "",
          "type": "bool"
        }
      ],
      "stateMutability": "view",
      "type": "function"
    },
    {
      "inputs": [],
      "name": "isLiquidationAllowed",
      "outputs": [
        {
          "internalType": "bool",
          "name": "",
          "type": "bool"
        }
      ],
      "stateMutability": "view",
      "type": "function"
    },
    {
      "inputs": [
        {
          "internalType": "uint256",
          "name": "newGracePeriod",
          "type": "uint256"
        }
      ],
      "name": "setGracePeriod",
      "outputs": [],
      "stateMutability": "nonpayable",
      "type": "function"
    },
    {
      "inputs": [
        {
          "internalType": "address",
          "name": "newSequencerOracle",
          "type": "address"
        }
      ],
      "name": "setSequencerOracle",
      "outputs": [],
      "stateMutability": "nonpayable",
      "type": "function"
    }
  ],
  "bytecode": "0x60a06040523480156200001157600080fd5b5060405162000df938038062000df98339818101604052810190620000379190620001b9565b8273ffffffffffffffffffffffffffffffffffffffff1660808173ffffffffffffffffffffffffffffffffffffffff1681525050816000806101000a81548173ffffffffffffffffffffffffffffffffffffffff021916908373ffffffffffffffffffffffffffffffffffffffff1602179055508060018190555050505062000215565b600080fd5b600073ffffffffffffffffffffffffffffffffffffffff82169050919050565b6000620000ed82620000c0565b9050919050565b60006200010182620000e0565b9050919050565b6200011381620000f4565b81146200011f57600080fd5b50565b600081519050620001338162000108565b92915050565b60006200014682620000e0565b9050919050565b620001588162000139565b81146200016457600080fd5b50565b60008151905062000178816200014d565b92915050565b6000819050919050565b62000193816200017e565b81146200019f57600080fd5b50565b600081519050620001b38162000188565b92915050565b600080600060608486031215620001d557620001d4620000bb565b5b6000620001e58682870162000122565b9350506020620001f88682870162000167565b92505060406200020b86828701620001a2565b9150509250925092565b608051610bba6200023f60003960008181610152015281816101c901526103c90152610bba6000f3fe608060405234801561001057600080fd5b506004361061007d5760003560e01c80637a5d20ea1161005b5780637a5d20ea146100dc578063dbd18388146100fa578063f0aef31c14610118578063f2f65960146101345761007d565b80630542975c1461008257806312168dc2146100a057806349aa2e81146100be575b600080fd5b61008a610150565b604051610097919061074b565b60405180910390f35b6100a8610174565b6040516100b59190610787565b60405180910390f35b6100c661019d565b6040516100d391906107bd565b60405180910390f35b6100e46101ac565b6040516100f191906107bd565b60405180910390f35b6101026101bb565b60405161010f91906107f1565b60405180910390f35b610132600480360381019061012d919061083d565b6101c5565b005b61014e60048036038101906101499190610896565b6103c5565b005b7f000000000000000000000000000000000000000000000000000000000000000081565b60008060009054906101000a900473ffffffffffffffffffffffffffffffffffffffff16905090565b60006101a761060d565b905090565b60006101b661060d565b905090565b6000600154905090565b60007f000000000000000000000000000000000000000000000000000000000000000073ffffffffffffffffffffffffffffffffffffffff1663707cd7166040518163ffffffff1660e01b8152600401602060405180830381865afa158015610232573d6000803e3d6000fd5b505050506040513d601f19601f8201168201806040525081019061025691906108d8565b90508073ffffffffffffffffffffffffffffffffffffffff16637be53ca1336040518263ffffffff1660e01b81526004016102919190610787565b602060405180830381865afa1580156102ae573d6000803e3d6000fd5b505050506040513d601f19601f820116820180604052508101906102d29190610931565b6040518060400160405280600181526020017f310000000000000000000000000000000000000000000000000000000000000081525090610349576040517f08c379a000000000000000000000000000000000000000000000000000000000815260040161034091906109f7565b60405180910390fd5b50816000806101000a81548173ffffffffffffffffffffffffffffffffffffffff021916908373ffffffffffffffffffffffffffffffffffffffff1602179055507f95cbf1d8f44ec81ff345ed9cf2fe53b6a6473e072bf046ee412f198c54dba449826040516103b99190610787565b60405180910390a15050565b60007f000000000000000000000000000000000000000000000000000000000000000073ffffffffffffffffffffffffffffffffffffffff1663707cd7166040518163ffffffff1660e01b8152600401602060405180830381865afa158015610432573d6000803e3d6000fd5b505050506040513d601f19601f8201168201806040525081019061045691906108d8565b90508073ffffffffffffffffffffffffffffffffffffffff1663674b5e4d336040518263ffffffff1660e01b81526004016104919190610787565b602060405180830381865afa1580156104ae573d6000803e3d6000fd5b505050506040513d601f19601f820116820180604052508101906104d29190610931565b8061055357508073ffffffffffffffffffffffffffffffffffffffff16637be53ca1336040518263ffffffff1660e01b81526004016105119190610787565b602060405180830381865afa15801561052e573d6000803e3d6000fd5b505050506040513d601f19601f820116820180604052508101906105529190610931565b5b6040518060400160405280600181526020017f3400000000000000000000000000000000000000000000000000000000000000815250906105ca576040517f08c379a00000000000000000000000000000000000000000000000000000000081526004016105c191906109f7565b60405180910390fd5b50816001819055507f33d1191f5a3abfe19d468d51bb5ece97489f1277a912a5b5c65992fc279ad3d48260405161060191906107f1565b60405180910390a15050565b60008060008060009054906101000a900473ffffffffffffffffffffffffffffffffffffffff1673ffffffffffffffffffffffffffffffffffffffff1663feaf968c6040518163ffffffff1660e01b815260040160a060405180830381865afa15801561067e573d6000803e3d6000fd5b505050506040513d601f19601f820116820180604052508101906106a29190610aa6565b509350509250506000821480156106c5575060015481426106c39190610b50565b115b9250505090565b600073ffffffffffffffffffffffffffffffffffffffff82169050919050565b6000819050919050565b600061071161070c610707846106cc565b6106ec565b6106cc565b9050919050565b6000610723826106f6565b9050919050565b600061073582610718565b9050919050565b6107458161072a565b82525050565b6000602082019050610760600083018461073c565b92915050565b6000610771826106cc565b9050919050565b61078181610766565b82525050565b600060208201905061079c6000830184610778565b92915050565b60008115159050919050565b6107b7816107a2565b82525050565b60006020820190506107d260008301846107ae565b92915050565b6000819050919050565b6107eb816107d8565b82525050565b600060208201905061080660008301846107e2565b92915050565b600080fd5b61081a81610766565b811461082557600080fd5b50565b60008135905061083781610811565b92915050565b6000602082840312156108535761085261080c565b5b600061086184828501610828565b91505092915050565b610873816107d8565b811461087e57600080fd5b50565b6000813590506108908161086a565b92915050565b6000602082840312156108ac576108ab61080c565b5b60006108ba84828501610881565b91505092915050565b6000815190506108d281610811565b92915050565b6000602082840312156108ee576108ed61080c565b5b60006108fc848285016108c3565b91505092915050565b61090e816107a2565b811461091957600080fd5b50565b60008151905061092b81610905565b92915050565b6000602082840312156109475761094661080c565b5b60006109558482850161091c565b91505092915050565b600081519050919050565b600082825260208201905092915050565b60005b8381101561099857808201518184015260208101905061097d565b838111156109a7576000848401525b50505050565b6000601f19601f8301169050919050565b60006109c98261095e565b6109d38185610969565b93506109e381856020860161097a565b6109ec816109ad565b840191505092915050565b60006020820190508181036000830152610a1181846109be565b905092915050565b600069ffffffffffffffffffff82169050919050565b610a3881610a19565b8114610a4357600080fd5b50565b600081519050610a5581610a2f565b92915050565b6000819050919050565b610a6e81610a5b565b8114610a7957600080fd5b50565b600081519050610a8b81610a65565b92915050565b600081519050610aa08161086a565b92915050565b600080600080600060a08688031215610ac257610ac161080c565b5b6000610ad088828901610a46565b9550506020610ae188828901610a7c565b9450506040610af288828901610a91565b9350506060610b0388828901610a91565b9250506080610b1488828901610a46565b9150509295509295909350565b7f4e487b7100000000000000000000000000000000000000000000000000000000600052601160045260246000fd5b6000610b5b826107d8565b9150610b66836107d8565b925082821015610b7957610b78610b21565b5b82820390509291505056fea2646970667358221220dda9b01af8bd317227bc0580bf62db0149eef1874f54c793fae161e6f8c7948f64736f6c634300080a0033",
  "linkReferences": {},
  "deployedLinkReferences": {}
}