{
  "_format": "hh-sol-artifact-1",
  "contractName": "MockPeripheryContractV1",
  "sourceName": "contracts/Aave_Contracts/mocks/helpers/MockPeripheryContract.sol",
  "abi": [
    {
      "inputs": [],
      "name": "getManager",
      "outputs": [
        {
          "internalType": "address",
          "name": "",
          "type": "address"
        }
      ],
      "stateMutability": "view",
      "type": "function"
    },
    {
      "inputs": [
        {
          "internalType": "address",
          "name": "manager",
          "type": "address"
        },
        {
          "internalType": "uint256",
          "name": "value",
          "type": "uint256"
        }
      ],
      "name": "initialize",
      "outputs": [],
      "stateMutability": "nonpayable",
      "type": "function"
    },
    {
      "inputs": [
        {
          "internalType": "address",
          "name": "newManager",
          "type": "address"
        }
      ],
      "name": "setManager",
      "outputs": [],
      "stateMutability": "nonpayable",
      "type": "function"
    }
  ],
  "bytecode": "0x608060405234801561001057600080fd5b506102b9806100206000396000f3fe608060405234801561001057600080fd5b50600436106100415760003560e01c8063cd6dc68714610046578063d0ebdbe714610062578063d50095841461007e575b600080fd5b610060600480360381019061005b91906101ec565b61009c565b005b61007c6004803603810190610077919061022c565b6100e7565b005b61008661012a565b6040516100939190610268565b60405180910390f35b816000806101000a81548173ffffffffffffffffffffffffffffffffffffffff021916908373ffffffffffffffffffffffffffffffffffffffff160217905550806001819055505050565b806000806101000a81548173ffffffffffffffffffffffffffffffffffffffff021916908373ffffffffffffffffffffffffffffffffffffffff16021790555050565b60008060009054906101000a900473ffffffffffffffffffffffffffffffffffffffff16905090565b600080fd5b600073ffffffffffffffffffffffffffffffffffffffff82169050919050565b600061018382610158565b9050919050565b61019381610178565b811461019e57600080fd5b50565b6000813590506101b08161018a565b92915050565b6000819050919050565b6101c9816101b6565b81146101d457600080fd5b50565b6000813590506101e6816101c0565b92915050565b6000806040838503121561020357610202610153565b5b6000610211858286016101a1565b9250506020610222858286016101d7565b9150509250929050565b60006020828403121561024257610241610153565b5b6000610250848285016101a1565b91505092915050565b61026281610178565b82525050565b600060208201905061027d6000830184610259565b9291505056fea2646970667358221220c10f4c6fb3c3305fc0df4d8ab9c39a5194519fa34b772bed33603831e21e1fd964736f6c634300080a0033",
  "linkReferences": {},
  "deployedLinkReferences": {}
}