{
  "_format": "hh-sol-artifact-1",
  "contractName": "MockPeripheryContractV2",
  "sourceName": "contracts/Aave_Contracts/mocks/helpers/MockPeripheryContract.sol",
  "abi": [
    {
      "inputs": [],
      "name": "getAddressesProvider",
      "outputs": [
        {
          "internalType": "address",
          "name": "",
          "type": "address"
        }
      ],
      "stateMutability": "view",
      "type": "function"
    },
    {
      "inputs": [],
      "name": "getManager",
      "outputs": [
        {
          "internalType": "address",
          "name": "",
          "type": "address"
        }
      ],
      "stateMutability": "view",
      "type": "function"
    },
    {
      "inputs": [
        {
          "internalType": "address",
          "name": "addressesProvider",
          "type": "address"
        }
      ],
      "name": "initialize",
      "outputs": [],
      "stateMutability": "nonpayable",
      "type": "function"
    },
    {
      "inputs": [
        {
          "internalType": "address",
          "name": "newManager",
          "type": "address"
        }
      ],
      "name": "setManager",
      "outputs": [],
      "stateMutability": "nonpayable",
      "type": "function"
    }
  ],
  "bytecode": "0x608060405234801561001057600080fd5b5061028f806100206000396000f3fe608060405234801561001057600080fd5b506004361061004c5760003560e01c8063c4d66de814610051578063d0ebdbe71461006d578063d500958414610089578063fe65acfe146100a7575b600080fd5b61006b60048036038101906100669190610202565b6100c5565b005b61008760048036038101906100829190610202565b610109565b005b61009161014c565b60405161009e919061023e565b60405180910390f35b6100af610175565b6040516100bc919061023e565b60405180910390f35b80600260006101000a81548173ffffffffffffffffffffffffffffffffffffffff021916908373ffffffffffffffffffffffffffffffffffffffff16021790555050565b806000806101000a81548173ffffffffffffffffffffffffffffffffffffffff021916908373ffffffffffffffffffffffffffffffffffffffff16021790555050565b60008060009054906101000a900473ffffffffffffffffffffffffffffffffffffffff16905090565b6000600260009054906101000a900473ffffffffffffffffffffffffffffffffffffffff16905090565b600080fd5b600073ffffffffffffffffffffffffffffffffffffffff82169050919050565b60006101cf826101a4565b9050919050565b6101df816101c4565b81146101ea57600080fd5b50565b6000813590506101fc816101d6565b92915050565b6000602082840312156102185761021761019f565b5b6000610226848285016101ed565b91505092915050565b610238816101c4565b82525050565b6000602082019050610253600083018461022f565b9291505056fea2646970667358221220e93f0b814f8f80ac23a4f8bd37107fa030c1743f1b7af904c5b82835106616ae64736f6c634300080a0033",
  "linkReferences": {},
  "deployedLinkReferences": {}
}