{
  "_format": "hh-sol-artifact-1",
  "contractName": "MockFlashLoanSimpleReceiver",
  "sourceName": "contracts/Aave_Contracts/mocks/flashloan/MockSimpleFlashLoanReceiver.sol",
  "abi": [
    {
      "inputs": [
        {
          "internalType": "contract IPoolAddressesProvider",
          "name": "provider",
          "type": "address"
        }
      ],
      "stateMutability": "nonpayable",
      "type": "constructor"
    },
    {
      "anonymous": false,
      "inputs": [
        {
          "indexed": false,
          "internalType": "address",
          "name": "asset",
          "type": "address"
        },
        {
          "indexed": false,
          "internalType": "uint256",
          "name": "amount",
          "type": "uint256"
        },
        {
          "indexed": false,
          "internalType": "uint256",
          "name": "premium",
          "type": "uint256"
        }
      ],
      "name": "ExecutedWithFail",
      "type": "event"
    },
    {
      "anonymous": false,
      "inputs": [
        {
          "indexed": false,
          "internalType": "address",
          "name": "asset",
          "type": "address"
        },
        {
          "indexed": false,
          "internalType": "uint256",
          "name": "amount",
          "type": "uint256"
        },
        {
          "indexed": false,
          "internalType": "uint256",
          "name": "premium",
          "type": "uint256"
        }
      ],
      "name": "ExecutedWithSuccess",
      "type": "event"
    },
    {
      "inputs": [],
      "name": "ADDRESSES_PROVIDER",
      "outputs": [
        {
          "internalType": "contract IPoolAddressesProvider",
          "name": "",
          "type": "address"
        }
      ],
      "stateMutability": "view",
      "type": "function"
    },
    {
      "inputs": [],
      "name": "POOL",
      "outputs": [
        {
          "internalType": "contract IPool",
          "name": "",
          "type": "address"
        }
      ],
      "stateMutability": "view",
      "type": "function"
    },
    {
      "inputs": [
        {
          "internalType": "address",
          "name": "asset",
          "type": "address"
        },
        {
          "internalType": "uint256",
          "name": "amount",
          "type": "uint256"
        },
        {
          "internalType": "uint256",
          "name": "premium",
          "type": "uint256"
        },
        {
          "internalType": "address",
          "name": "",
          "type": "address"
        },
        {
          "internalType": "bytes",
          "name": "",
          "type": "bytes"
        }
      ],
      "name": "executeOperation",
      "outputs": [
        {
          "internalType": "bool",
          "name": "",
          "type": "bool"
        }
      ],
      "stateMutability": "nonpayable",
      "type": "function"
    },
    {
      "inputs": [],
      "name": "getAmountToApprove",
      "outputs": [
        {
          "internalType": "uint256",
          "name": "",
          "type": "uint256"
        }
      ],
      "stateMutability": "view",
      "type": "function"
    },
    {
      "inputs": [
        {
          "internalType": "uint256",
          "name": "amountToApprove",
          "type": "uint256"
        }
      ],
      "name": "setAmountToApprove",
      "outputs": [],
      "stateMutability": "nonpayable",
      "type": "function"
    },
    {
      "inputs": [
        {
          "internalType": "bool",
          "name": "fail",
          "type": "bool"
        }
      ],
      "name": "setFailExecutionTransfer",
      "outputs": [],
      "stateMutability": "nonpayable",
      "type": "function"
    },
    {
      "inputs": [
        {
          "internalType": "bool",
          "name": "flag",
          "type": "bool"
        }
      ],
      "name": "setSimulateEOA",
      "outputs": [],
      "stateMutability": "nonpayable",
      "type": "function"
    },
    {
      "inputs": [],
      "name": "simulateEOA",
      "outputs": [
        {
          "internalType": "bool",
          "name": "",
          "type": "bool"
        }
      ],
      "stateMutability": "view",
      "type": "function"
    }
  ],
  "bytecode": "0x60c06040523480156200001157600080fd5b5060405162000d4538038062000d45833981810160405281019062000037919062000197565b808073ffffffffffffffffffffffffffffffffffffffff1660808173ffffffffffffffffffffffffffffffffffffffff16815250508073ffffffffffffffffffffffffffffffffffffffff1663026b1d5f6040518163ffffffff1660e01b8152600401602060405180830381865afa158015620000b8573d6000803e3d6000fd5b505050506040513d601f19601f82011682018060405250810190620000de9190620001fa565b73ffffffffffffffffffffffffffffffffffffffff1660a08173ffffffffffffffffffffffffffffffffffffffff168152505050506200022c565b600080fd5b600073ffffffffffffffffffffffffffffffffffffffff82169050919050565b60006200014b826200011e565b9050919050565b60006200015f826200013e565b9050919050565b620001718162000152565b81146200017d57600080fd5b50565b600081519050620001918162000166565b92915050565b600060208284031215620001b057620001af62000119565b5b6000620001c08482850162000180565b91505092915050565b620001d4816200013e565b8114620001e057600080fd5b50565b600081519050620001f481620001c9565b92915050565b60006020828403121562000213576200021262000119565b5b60006200022384828501620001e3565b91505092915050565b60805160a051610aec620002596000396000818161039c01526104a70152600061018b0152610aec6000f3fe608060405234801561001057600080fd5b50600436106100885760003560e01c80635e76bba31161005b5780635e76bba3146101155780637535d24614610133578063bf443f8514610151578063e9a6a25b1461016d57610088565b80630542975c1461008d5780631b11d0ff146100ab578063388f70f1146100db5780634444f331146100f7575b600080fd5b610095610189565b6040516100a29190610589565b60405180910390f35b6100c560048036038101906100c09190610772565b6101ad565b6040516100d29190610824565b60405180910390f35b6100f560048036038101906100f0919061086b565b610468565b005b6100ff610484565b60405161010c9190610824565b60405180910390f35b61011d61049b565b60405161012a91906108a7565b60405180910390f35b61013b6104a5565b60405161014891906108e3565b60405180910390f35b61016b600480360381019061016691906108fe565b6104c9565b005b6101876004803603810190610182919061086b565b6104d3565b005b7f000000000000000000000000000000000000000000000000000000000000000081565b60008060009054906101000a900460ff1615610216577f816f6a6bc084e1996be1a831afa1af30763d0501b6b43b9e1922a11f347366d78686866040516101f69392919061093a565b60405180910390a1600260009054906101000a900460ff1615905061045f565b60008690508673ffffffffffffffffffffffffffffffffffffffff166370a08231306040518263ffffffff1660e01b81526004016102549190610971565b602060405180830381865afa158015610271573d6000803e3d6000fd5b505050506040513d601f19601f8201168201806040525081019061029591906109a1565b8611156102d7576040517f08c379a00000000000000000000000000000000000000000000000000000000081526004016102ce90610a2b565b60405180910390fd5b60008060015414156102fb576102f686886104f090919063ffffffff16565b6102ff565b6001545b90508173ffffffffffffffffffffffffffffffffffffffff1663a0712d68876040518263ffffffff1660e01b815260040161033a91906108a7565b6020604051808303816000875af1158015610359573d6000803e3d6000fd5b505050506040513d601f19601f8201168201806040525081019061037d9190610a60565b508773ffffffffffffffffffffffffffffffffffffffff1663095ea7b37f0000000000000000000000000000000000000000000000000000000000000000836040518363ffffffff1660e01b81526004016103d9929190610a8d565b6020604051808303816000875af11580156103f8573d6000803e3d6000fd5b505050506040513d601f19601f8201168201806040525081019061041c9190610a60565b507f7d94e9d0c906b8d7b2b52a581b9e9ba728aa6f8cd8532bd87243d193f47401be8888886040516104509392919061093a565b60405180910390a16001925050505b95945050505050565b806000806101000a81548160ff02191690831515021790555050565b6000600260009054906101000a900460ff16905090565b6000600154905090565b7f000000000000000000000000000000000000000000000000000000000000000081565b8060018190555050565b80600260006101000a81548160ff02191690831515021790555050565b600082828401915081101561050457600080fd5b92915050565b600073ffffffffffffffffffffffffffffffffffffffff82169050919050565b6000819050919050565b600061054f61054a6105458461050a565b61052a565b61050a565b9050919050565b600061056182610534565b9050919050565b600061057382610556565b9050919050565b61058381610568565b82525050565b600060208201905061059e600083018461057a565b92915050565b6000604051905090565b600080fd5b600080fd5b60006105c38261050a565b9050919050565b6105d3816105b8565b81146105de57600080fd5b50565b6000813590506105f0816105ca565b92915050565b6000819050919050565b610609816105f6565b811461061457600080fd5b50565b60008135905061062681610600565b92915050565b600080fd5b600080fd5b6000601f19601f8301169050919050565b7f4e487b7100000000000000000000000000000000000000000000000000000000600052604160045260246000fd5b61067f82610636565b810181811067ffffffffffffffff8211171561069e5761069d610647565b5b80604052505050565b60006106b16105a4565b90506106bd8282610676565b919050565b600067ffffffffffffffff8211156106dd576106dc610647565b5b6106e682610636565b9050602081019050919050565b82818337600083830152505050565b6000610715610710846106c2565b6106a7565b90508281526020810184848401111561073157610730610631565b5b61073c8482856106f3565b509392505050565b600082601f8301126107595761075861062c565b5b8135610769848260208601610702565b91505092915050565b600080600080600060a0868803121561078e5761078d6105ae565b5b600061079c888289016105e1565b95505060206107ad88828901610617565b94505060406107be88828901610617565b93505060606107cf888289016105e1565b925050608086013567ffffffffffffffff8111156107f0576107ef6105b3565b5b6107fc88828901610744565b9150509295509295909350565b60008115159050919050565b61081e81610809565b82525050565b60006020820190506108396000830184610815565b92915050565b61084881610809565b811461085357600080fd5b50565b6000813590506108658161083f565b92915050565b600060208284031215610881576108806105ae565b5b600061088f84828501610856565b91505092915050565b6108a1816105f6565b82525050565b60006020820190506108bc6000830184610898565b92915050565b60006108cd82610556565b9050919050565b6108dd816108c2565b82525050565b60006020820190506108f860008301846108d4565b92915050565b600060208284031215610914576109136105ae565b5b600061092284828501610617565b91505092915050565b610934816105b8565b82525050565b600060608201905061094f600083018661092b565b61095c6020830185610898565b6109696040830184610898565b949350505050565b6000602082019050610986600083018461092b565b92915050565b60008151905061099b81610600565b92915050565b6000602082840312156109b7576109b66105ae565b5b60006109c58482850161098c565b91505092915050565b600082825260208201905092915050565b7f496e76616c69642062616c616e636520666f722074686520636f6e7472616374600082015250565b6000610a156020836109ce565b9150610a20826109df565b602082019050919050565b60006020820190508181036000830152610a4481610a08565b9050919050565b600081519050610a5a8161083f565b92915050565b600060208284031215610a7657610a756105ae565b5b6000610a8484828501610a4b565b91505092915050565b6000604082019050610aa2600083018561092b565b610aaf6020830184610898565b939250505056fea2646970667358221220e7e651390b7b1fd7a1ba6f3086b87f80074bb3659b94ae3e6c19c2ac0c3ec47464736f6c634300080a0033",
  "linkReferences": {},
  "deployedLinkReferences": {}
}