{
  "_format": "hh-sol-artifact-1",
  "contractName": "MockL2Pool",
  "sourceName": "contracts/Aave_Contracts/mocks/helpers/MockL2Pool.sol",
  "abi": [
    {
      "inputs": [
        {
          "internalType": "contract IPoolAddressesProvider",
          "name": "provider",
          "type": "address"
        }
      ],
      "stateMutability": "nonpayable",
      "type": "constructor"
    },
    {
      "anonymous": false,
      "inputs": [
        {
          "indexed": true,
          "internalType": "address",
          "name": "reserve",
          "type": "address"
        },
        {
          "indexed": true,
          "internalType": "address",
          "name": "backer",
          "type": "address"
        },
        {
          "indexed": false,
          "internalType": "uint256",
          "name": "amount",
          "type": "uint256"
        },
        {
          "indexed": false,
          "internalType": "uint256",
          "name": "fee",
          "type": "uint256"
        }
      ],
      "name": "BackUnbacked",
      "type": "event"
    },
    {
      "anonymous": false,
      "inputs": [
        {
          "indexed": true,
          "internalType": "address",
          "name": "reserve",
          "type": "address"
        },
        {
          "indexed": false,
          "internalType": "address",
          "name": "user",
          "type": "address"
        },
        {
          "indexed": true,
          "internalType": "address",
          "name": "onBehalfOf",
          "type": "address"
        },
        {
          "indexed": false,
          "internalType": "uint256",
          "name": "amount",
          "type": "uint256"
        },
        {
          "indexed": false,
          "internalType": "enum DataTypes.InterestRateMode",
          "name": "interestRateMode",
          "type": "uint8"
        },
        {
          "indexed": false,
          "internalType": "uint256",
          "name": "borrowRate",
          "type": "uint256"
        },
        {
          "indexed": true,
          "internalType": "uint16",
          "name": "referralCode",
          "type": "uint16"
        }
      ],
      "name": "Borrow",
      "type": "event"
    },
    {
      "anonymous": false,
      "inputs": [
        {
          "indexed": true,
          "internalType": "address",
          "name": "target",
          "type": "address"
        },
        {
          "indexed": false,
          "internalType": "address",
          "name": "initiator",
          "type": "address"
        },
        {
          "indexed": true,
          "internalType": "address",
          "name": "asset",
          "type": "address"
        },
        {
          "indexed": false,
          "internalType": "uint256",
          "name": "amount",
          "type": "uint256"
        },
        {
          "indexed": false,
          "internalType": "enum DataTypes.InterestRateMode",
          "name": "interestRateMode",
          "type": "uint8"
        },
        {
          "indexed": false,
          "internalType": "uint256",
          "name": "premium",
          "type": "uint256"
        },
        {
          "indexed": true,
          "internalType": "uint16",
          "name": "referralCode",
          "type": "uint16"
        }
      ],
      "name": "FlashLoan",
      "type": "event"
    },
    {
      "anonymous": false,
      "inputs": [
        {
          "indexed": true,
          "internalType": "address",
          "name": "asset",
          "type": "address"
        },
        {
          "indexed": false,
          "internalType": "uint256",
          "name": "totalDebt",
          "type": "uint256"
        }
      ],
      "name": "IsolationModeTotalDebtUpdated",
      "type": "event"
    },
    {
      "anonymous": false,
      "inputs": [
        {
          "indexed": true,
          "internalType": "address",
          "name": "collateralAsset",
          "type": "address"
        },
        {
          "indexed": true,
          "internalType": "address",
          "name": "debtAsset",
          "type": "address"
        },
        {
          "indexed": true,
          "internalType": "address",
          "name": "user",
          "type": "address"
        },
        {
          "indexed": false,
          "internalType": "uint256",
          "name": "debtToCover",
          "type": "uint256"
        },
        {
          "indexed": false,
          "internalType": "uint256",
          "name": "liquidatedCollateralAmount",
          "type": "uint256"
        },
        {
          "indexed": false,
          "internalType": "address",
          "name": "liquidator",
          "type": "address"
        },
        {
          "indexed": false,
          "internalType": "bool",
          "name": "receiveAToken",
          "type": "bool"
        }
      ],
      "name": "LiquidationCall",
      "type": "event"
    },
    {
      "anonymous": false,
      "inputs": [
        {
          "indexed": true,
          "internalType": "address",
          "name": "reserve",
          "type": "address"
        },
        {
          "indexed": false,
          "internalType": "address",
          "name": "user",
          "type": "address"
        },
        {
          "indexed": true,
          "internalType": "address",
          "name": "onBehalfOf",
          "type": "address"
        },
        {
          "indexed": false,
          "internalType": "uint256",
          "name": "amount",
          "type": "uint256"
        },
        {
          "indexed": true,
          "internalType": "uint16",
          "name": "referralCode",
          "type": "uint16"
        }
      ],
      "name": "MintUnbacked",
      "type": "event"
    },
    {
      "anonymous": false,
      "inputs": [
        {
          "indexed": true,
          "internalType": "address",
          "name": "reserve",
          "type": "address"
        },
        {
          "indexed": false,
          "internalType": "uint256",
          "name": "amountMinted",
          "type": "uint256"
        }
      ],
      "name": "MintedToTreasury",
      "type": "event"
    },
    {
      "anonymous": false,
      "inputs": [
        {
          "indexed": true,
          "internalType": "address",
          "name": "reserve",
          "type": "address"
        },
        {
          "indexed": true,
          "internalType": "address",
          "name": "user",
          "type": "address"
        }
      ],
      "name": "RebalanceStableBorrowRate",
      "type": "event"
    },
    {
      "anonymous": false,
      "inputs": [
        {
          "indexed": true,
          "internalType": "address",
          "name": "reserve",
          "type": "address"
        },
        {
          "indexed": true,
          "internalType": "address",
          "name": "user",
          "type": "address"
        },
        {
          "indexed": true,
          "internalType": "address",
          "name": "repayer",
          "type": "address"
        },
        {
          "indexed": false,
          "internalType": "uint256",
          "name": "amount",
          "type": "uint256"
        },
        {
          "indexed": false,
          "internalType": "bool",
          "name": "useATokens",
          "type": "bool"
        }
      ],
      "name": "Repay",
      "type": "event"
    },
    {
      "anonymous": false,
      "inputs": [
        {
          "indexed": true,
          "internalType": "address",
          "name": "reserve",
          "type": "address"
        },
        {
          "indexed": false,
          "internalType": "uint256",
          "name": "liquidityRate",
          "type": "uint256"
        },
        {
          "indexed": false,
          "internalType": "uint256",
          "name": "stableBorrowRate",
          "type": "uint256"
        },
        {
          "indexed": false,
          "internalType": "uint256",
          "name": "variableBorrowRate",
          "type": "uint256"
        },
        {
          "indexed": false,
          "internalType": "uint256",
          "name": "liquidityIndex",
          "type": "uint256"
        },
        {
          "indexed": false,
          "internalType": "uint256",
          "name": "variableBorrowIndex",
          "type": "uint256"
        }
      ],
      "name": "ReserveDataUpdated",
      "type": "event"
    },
    {
      "anonymous": false,
      "inputs": [
        {
          "indexed": true,
          "internalType": "address",
          "name": "reserve",
          "type": "address"
        },
        {
          "indexed": true,
          "internalType": "address",
          "name": "user",
          "type": "address"
        }
      ],
      "name": "ReserveUsedAsCollateralDisabled",
      "type": "event"
    },
    {
      "anonymous": false,
      "inputs": [
        {
          "indexed": true,
          "internalType": "address",
          "name": "reserve",
          "type": "address"
        },
        {
          "indexed": true,
          "internalType": "address",
          "name": "user",
          "type": "address"
        }
      ],
      "name": "ReserveUsedAsCollateralEnabled",
      "type": "event"
    },
    {
      "anonymous": false,
      "inputs": [
        {
          "indexed": true,
          "internalType": "address",
          "name": "reserve",
          "type": "address"
        },
        {
          "indexed": false,
          "internalType": "address",
          "name": "user",
          "type": "address"
        },
        {
          "indexed": true,
          "internalType": "address",
          "name": "onBehalfOf",
          "type": "address"
        },
        {
          "indexed": false,
          "internalType": "uint256",
          "name": "amount",
          "type": "uint256"
        },
        {
          "indexed": true,
          "internalType": "uint16",
          "name": "referralCode",
          "type": "uint16"
        }
      ],
      "name": "Supply",
      "type": "event"
    },
    {
      "anonymous": false,
      "inputs": [
        {
          "indexed": true,
          "internalType": "address",
          "name": "reserve",
          "type": "address"
        },
        {
          "indexed": true,
          "internalType": "address",
          "name": "user",
          "type": "address"
        },
        {
          "indexed": false,
          "internalType": "enum DataTypes.InterestRateMode",
          "name": "interestRateMode",
          "type": "uint8"
        }
      ],
      "name": "SwapBorrowRateMode",
      "type": "event"
    },
    {
      "anonymous": false,
      "inputs": [
        {
          "indexed": true,
          "internalType": "address",
          "name": "user",
          "type": "address"
        },
        {
          "indexed": false,
          "internalType": "uint8",
          "name": "categoryId",
          "type": "uint8"
        }
      ],
      "name": "UserEModeSet",
      "type": "event"
    },
    {
      "anonymous": false,
      "inputs": [
        {
          "indexed": true,
          "internalType": "address",
          "name": "reserve",
          "type": "address"
        },
        {
          "indexed": true,
          "internalType": "address",
          "name": "user",
          "type": "address"
        },
        {
          "indexed": true,
          "internalType": "address",
          "name": "to",
          "type": "address"
        },
        {
          "indexed": false,
          "internalType": "uint256",
          "name": "amount",
          "type": "uint256"
        }
      ],
      "name": "Withdraw",
      "type": "event"
    },
    {
      "inputs": [],
      "name": "ADDRESSES_PROVIDER",
      "outputs": [
        {
          "internalType": "contract IPoolAddressesProvider",
          "name": "",
          "type": "address"
        }
      ],
      "stateMutability": "view",
      "type": "function"
    },
    {
      "inputs": [],
      "name": "BRIDGE_PROTOCOL_FEE",
      "outputs": [
        {
          "internalType": "uint256",
          "name": "",
          "type": "uint256"
        }
      ],
      "stateMutability": "view",
      "type": "function"
    },
    {
      "inputs": [],
      "name": "FLASHLOAN_PREMIUM_TOTAL",
      "outputs": [
        {
          "internalType": "uint128",
          "name": "",
          "type": "uint128"
        }
      ],
      "stateMutability": "view",
      "type": "function"
    },
    {
      "inputs": [],
      "name": "FLASHLOAN_PREMIUM_TO_PROTOCOL",
      "outputs": [
        {
          "internalType": "uint128",
          "name": "",
          "type": "uint128"
        }
      ],
      "stateMutability": "view",
      "type": "function"
    },
    {
      "inputs": [],
      "name": "MAX_NUMBER_RESERVES",
      "outputs": [
        {
          "internalType": "uint16",
          "name": "",
          "type": "uint16"
        }
      ],
      "stateMutability": "view",
      "type": "function"
    },
    {
      "inputs": [],
      "name": "MAX_STABLE_RATE_BORROW_SIZE_PERCENT",
      "outputs": [
        {
          "internalType": "uint256",
          "name": "",
          "type": "uint256"
        }
      ],
      "stateMutability": "view",
      "type": "function"
    },
    {
      "inputs": [],
      "name": "POOL_REVISION",
      "outputs": [
        {
          "internalType": "uint256",
          "name": "",
          "type": "uint256"
        }
      ],
      "stateMutability": "view",
      "type": "function"
    },
    {
      "inputs": [
        {
          "internalType": "address",
          "name": "asset",
          "type": "address"
        },
        {
          "internalType": "uint256",
          "name": "amount",
          "type": "uint256"
        },
        {
          "internalType": "uint256",
          "name": "fee",
          "type": "uint256"
        }
      ],
      "name": "backUnbacked",
      "outputs": [],
      "stateMutability": "nonpayable",
      "type": "function"
    },
    {
      "inputs": [
        {
          "internalType": "address",
          "name": "asset",
          "type": "address"
        },
        {
          "internalType": "uint256",
          "name": "amount",
          "type": "uint256"
        },
        {
          "internalType": "uint256",
          "name": "interestRateMode",
          "type": "uint256"
        },
        {
          "internalType": "uint16",
          "name": "referralCode",
          "type": "uint16"
        },
        {
          "internalType": "address",
          "name": "onBehalfOf",
          "type": "address"
        }
      ],
      "name": "borrow",
      "outputs": [],
      "stateMutability": "nonpayable",
      "type": "function"
    },
    {
      "inputs": [
        {
          "internalType": "bytes32",
          "name": "args",
          "type": "bytes32"
        }
      ],
      "name": "borrow",
      "outputs": [],
      "stateMutability": "nonpayable",
      "type": "function"
    },
    {
      "inputs": [
        {
          "internalType": "uint8",
          "name": "id",
          "type": "uint8"
        },
        {
          "components": [
            {
              "internalType": "uint16",
              "name": "ltv",
              "type": "uint16"
            },
            {
              "internalType": "uint16",
              "name": "liquidationThreshold",
              "type": "uint16"
            },
            {
              "internalType": "uint16",
              "name": "liquidationBonus",
              "type": "uint16"
            },
            {
              "internalType": "address",
              "name": "priceSource",
              "type": "address"
            },
            {
              "internalType": "string",
              "name": "label",
              "type": "string"
            }
          ],
          "internalType": "struct DataTypes.EModeCategory",
          "name": "category",
          "type": "tuple"
        }
      ],
      "name": "configureEModeCategory",
      "outputs": [],
      "stateMutability": "nonpayable",
      "type": "function"
    },
    {
      "inputs": [
        {
          "internalType": "address",
          "name": "asset",
          "type": "address"
        },
        {
          "internalType": "uint256",
          "name": "amount",
          "type": "uint256"
        },
        {
          "internalType": "address",
          "name": "onBehalfOf",
          "type": "address"
        },
        {
          "internalType": "uint16",
          "name": "referralCode",
          "type": "uint16"
        }
      ],
      "name": "deposit",
      "outputs": [],
      "stateMutability": "nonpayable",
      "type": "function"
    },
    {
      "inputs": [
        {
          "internalType": "address",
          "name": "asset",
          "type": "address"
        }
      ],
      "name": "dropReserve",
      "outputs": [],
      "stateMutability": "nonpayable",
      "type": "function"
    },
    {
      "inputs": [
        {
          "internalType": "address",
          "name": "asset",
          "type": "address"
        },
        {
          "internalType": "address",
          "name": "from",
          "type": "address"
        },
        {
          "internalType": "address",
          "name": "to",
          "type": "address"
        },
        {
          "internalType": "uint256",
          "name": "amount",
          "type": "uint256"
        },
        {
          "internalType": "uint256",
          "name": "balanceFromBefore",
          "type": "uint256"
        },
        {
          "internalType": "uint256",
          "name": "balanceToBefore",
          "type": "uint256"
        }
      ],
      "name": "finalizeTransfer",
      "outputs": [],
      "stateMutability": "nonpayable",
      "type": "function"
    },
    {
      "inputs": [
        {
          "internalType": "address",
          "name": "receiverAddress",
          "type": "address"
        },
        {
          "internalType": "address[]",
          "name": "assets",
          "type": "address[]"
        },
        {
          "internalType": "uint256[]",
          "name": "amounts",
          "type": "uint256[]"
        },
        {
          "internalType": "uint256[]",
          "name": "interestRateModes",
          "type": "uint256[]"
        },
        {
          "internalType": "address",
          "name": "onBehalfOf",
          "type": "address"
        },
        {
          "internalType": "bytes",
          "name": "params",
          "type": "bytes"
        },
        {
          "internalType": "uint16",
          "name": "referralCode",
          "type": "uint16"
        }
      ],
      "name": "flashLoan",
      "outputs": [],
      "stateMutability": "nonpayable",
      "type": "function"
    },
    {
      "inputs": [
        {
          "internalType": "address",
          "name": "receiverAddress",
          "type": "address"
        },
        {
          "internalType": "address",
          "name": "asset",
          "type": "address"
        },
        {
          "internalType": "uint256",
          "name": "amount",
          "type": "uint256"
        },
        {
          "internalType": "bytes",
          "name": "params",
          "type": "bytes"
        },
        {
          "internalType": "uint16",
          "name": "referralCode",
          "type": "uint16"
        }
      ],
      "name": "flashLoanSimple",
      "outputs": [],
      "stateMutability": "nonpayable",
      "type": "function"
    },
    {
      "inputs": [
        {
          "internalType": "address",
          "name": "asset",
          "type": "address"
        }
      ],
      "name": "getConfiguration",
      "outputs": [
        {
          "components": [
            {
              "internalType": "uint256",
              "name": "data",
              "type": "uint256"
            }
          ],
          "internalType": "struct DataTypes.ReserveConfigurationMap",
          "name": "",
          "type": "tuple"
        }
      ],
      "stateMutability": "view",
      "type": "function"
    },
    {
      "inputs": [
        {
          "internalType": "uint8",
          "name": "id",
          "type": "uint8"
        }
      ],
      "name": "getEModeCategoryData",
      "outputs": [
        {
          "components": [
            {
              "internalType": "uint16",
              "name": "ltv",
              "type": "uint16"
            },
            {
              "internalType": "uint16",
              "name": "liquidationThreshold",
              "type": "uint16"
            },
            {
              "internalType": "uint16",
              "name": "liquidationBonus",
              "type": "uint16"
            },
            {
              "internalType": "address",
              "name": "priceSource",
              "type": "address"
            },
            {
              "internalType": "string",
              "name": "label",
              "type": "string"
            }
          ],
          "internalType": "struct DataTypes.EModeCategory",
          "name": "",
          "type": "tuple"
        }
      ],
      "stateMutability": "view",
      "type": "function"
    },
    {
      "inputs": [
        {
          "internalType": "uint16",
          "name": "id",
          "type": "uint16"
        }
      ],
      "name": "getReserveAddressById",
      "outputs": [
        {
          "internalType": "address",
          "name": "",
          "type": "address"
        }
      ],
      "stateMutability": "view",
      "type": "function"
    },
    {
      "inputs": [
        {
          "internalType": "address",
          "name": "asset",
          "type": "address"
        }
      ],
      "name": "getReserveData",
      "outputs": [
        {
          "components": [
            {
              "components": [
                {
                  "internalType": "uint256",
                  "name": "data",
                  "type": "uint256"
                }
              ],
              "internalType": "struct DataTypes.ReserveConfigurationMap",
              "name": "configuration",
              "type": "tuple"
            },
            {
              "internalType": "uint128",
              "name": "liquidityIndex",
              "type": "uint128"
            },
            {
              "internalType": "uint128",
              "name": "currentLiquidityRate",
              "type": "uint128"
            },
            {
              "internalType": "uint128",
              "name": "variableBorrowIndex",
              "type": "uint128"
            },
            {
              "internalType": "uint128",
              "name": "currentVariableBorrowRate",
              "type": "uint128"
            },
            {
              "internalType": "uint128",
              "name": "currentStableBorrowRate",
              "type": "uint128"
            },
            {
              "internalType": "uint40",
              "name": "lastUpdateTimestamp",
              "type": "uint40"
            },
            {
              "internalType": "uint16",
              "name": "id",
              "type": "uint16"
            },
            {
              "internalType": "address",
              "name": "aTokenAddress",
              "type": "address"
            },
            {
              "internalType": "address",
              "name": "stableDebtTokenAddress",
              "type": "address"
            },
            {
              "internalType": "address",
              "name": "variableDebtTokenAddress",
              "type": "address"
            },
            {
              "internalType": "address",
              "name": "interestRateStrategyAddress",
              "type": "address"
            },
            {
              "internalType": "uint128",
              "name": "accruedToTreasury",
              "type": "uint128"
            },
            {
              "internalType": "uint128",
              "name": "unbacked",
              "type": "uint128"
            },
            {
              "internalType": "uint128",
              "name": "isolationModeTotalDebt",
              "type": "uint128"
            }
          ],
          "internalType": "struct DataTypes.ReserveData",
          "name": "",
          "type": "tuple"
        }
      ],
      "stateMutability": "view",
      "type": "function"
    },
    {
      "inputs": [
        {
          "internalType": "address",
          "name": "asset",
          "type": "address"
        }
      ],
      "name": "getReserveNormalizedIncome",
      "outputs": [
        {
          "internalType": "uint256",
          "name": "",
          "type": "uint256"
        }
      ],
      "stateMutability": "view",
      "type": "function"
    },
    {
      "inputs": [
        {
          "internalType": "address",
          "name": "asset",
          "type": "address"
        }
      ],
      "name": "getReserveNormalizedVariableDebt",
      "outputs": [
        {
          "internalType": "uint256",
          "name": "",
          "type": "uint256"
        }
      ],
      "stateMutability": "view",
      "type": "function"
    },
    {
      "inputs": [],
      "name": "getReservesList",
      "outputs": [
        {
          "internalType": "address[]",
          "name": "",
          "type": "address[]"
        }
      ],
      "stateMutability": "view",
      "type": "function"
    },
    {
      "inputs": [
        {
          "internalType": "address",
          "name": "user",
          "type": "address"
        }
      ],
      "name": "getUserAccountData",
      "outputs": [
        {
          "internalType": "uint256",
          "name": "totalCollateralBase",
          "type": "uint256"
        },
        {
          "internalType": "uint256",
          "name": "totalDebtBase",
          "type": "uint256"
        },
        {
          "internalType": "uint256",
          "name": "availableBorrowsBase",
          "type": "uint256"
        },
        {
          "internalType": "uint256",
          "name": "currentLiquidationThreshold",
          "type": "uint256"
        },
        {
          "internalType": "uint256",
          "name": "ltv",
          "type": "uint256"
        },
        {
          "internalType": "uint256",
          "name": "healthFactor",
          "type": "uint256"
        }
      ],
      "stateMutability": "view",
      "type": "function"
    },
    {
      "inputs": [
        {
          "internalType": "address",
          "name": "user",
          "type": "address"
        }
      ],
      "name": "getUserConfiguration",
      "outputs": [
        {
          "components": [
            {
              "internalType": "uint256",
              "name": "data",
              "type": "uint256"
            }
          ],
          "internalType": "struct DataTypes.UserConfigurationMap",
          "name": "",
          "type": "tuple"
        }
      ],
      "stateMutability": "view",
      "type": "function"
    },
    {
      "inputs": [
        {
          "internalType": "address",
          "name": "user",
          "type": "address"
        }
      ],
      "name": "getUserEMode",
      "outputs": [
        {
          "internalType": "uint256",
          "name": "",
          "type": "uint256"
        }
      ],
      "stateMutability": "view",
      "type": "function"
    },
    {
      "inputs": [
        {
          "internalType": "address",
          "name": "asset",
          "type": "address"
        },
        {
          "internalType": "address",
          "name": "aTokenAddress",
          "type": "address"
        },
        {
          "internalType": "address",
          "name": "stableDebtAddress",
          "type": "address"
        },
        {
          "internalType": "address",
          "name": "variableDebtAddress",
          "type": "address"
        },
        {
          "internalType": "address",
          "name": "interestRateStrategyAddress",
          "type": "address"
        }
      ],
      "name": "initReserve",
      "outputs": [],
      "stateMutability": "nonpayable",
      "type": "function"
    },
    {
      "inputs": [
        {
          "internalType": "contract IPoolAddressesProvider",
          "name": "provider",
          "type": "address"
        }
      ],
      "name": "initialize",
      "outputs": [],
      "stateMutability": "nonpayable",
      "type": "function"
    },
    {
      "inputs": [
        {
          "internalType": "address",
          "name": "collateralAsset",
          "type": "address"
        },
        {
          "internalType": "address",
          "name": "debtAsset",
          "type": "address"
        },
        {
          "internalType": "address",
          "name": "user",
          "type": "address"
        },
        {
          "internalType": "uint256",
          "name": "debtToCover",
          "type": "uint256"
        },
        {
          "internalType": "bool",
          "name": "receiveAToken",
          "type": "bool"
        }
      ],
      "name": "liquidationCall",
      "outputs": [],
      "stateMutability": "nonpayable",
      "type": "function"
    },
    {
      "inputs": [
        {
          "internalType": "bytes32",
          "name": "args1",
          "type": "bytes32"
        },
        {
          "internalType": "bytes32",
          "name": "args2",
          "type": "bytes32"
        }
      ],
      "name": "liquidationCall",
      "outputs": [],
      "stateMutability": "nonpayable",
      "type": "function"
    },
    {
      "inputs": [
        {
          "internalType": "address[]",
          "name": "assets",
          "type": "address[]"
        }
      ],
      "name": "mintToTreasury",
      "outputs": [],
      "stateMutability": "nonpayable",
      "type": "function"
    },
    {
      "inputs": [
        {
          "internalType": "address",
          "name": "asset",
          "type": "address"
        },
        {
          "internalType": "uint256",
          "name": "amount",
          "type": "uint256"
        },
        {
          "internalType": "address",
          "name": "onBehalfOf",
          "type": "address"
        },
        {
          "internalType": "uint16",
          "name": "referralCode",
          "type": "uint16"
        }
      ],
      "name": "mintUnbacked",
      "outputs": [],
      "stateMutability": "nonpayable",
      "type": "function"
    },
    {
      "inputs": [
        {
          "internalType": "bytes32",
          "name": "args",
          "type": "bytes32"
        }
      ],
      "name": "rebalanceStableBorrowRate",
      "outputs": [],
      "stateMutability": "nonpayable",
      "type": "function"
    },
    {
      "inputs": [
        {
          "internalType": "address",
          "name": "asset",
          "type": "address"
        },
        {
          "internalType": "address",
          "name": "user",
          "type": "address"
        }
      ],
      "name": "rebalanceStableBorrowRate",
      "outputs": [],
      "stateMutability": "nonpayable",
      "type": "function"
    },
    {
      "inputs": [
        {
          "internalType": "bytes32",
          "name": "args",
          "type": "bytes32"
        }
      ],
      "name": "repay",
      "outputs": [
        {
          "internalType": "uint256",
          "name": "",
          "type": "uint256"
        }
      ],
      "stateMutability": "nonpayable",
      "type": "function"
    },
    {
      "inputs": [
        {
          "internalType": "address",
          "name": "asset",
          "type": "address"
        },
        {
          "internalType": "uint256",
          "name": "amount",
          "type": "uint256"
        },
        {
          "internalType": "uint256",
          "name": "interestRateMode",
          "type": "uint256"
        },
        {
          "internalType": "address",
          "name": "onBehalfOf",
          "type": "address"
        }
      ],
      "name": "repay",
      "outputs": [
        {
          "internalType": "uint256",
          "name": "",
          "type": "uint256"
        }
      ],
      "stateMutability": "nonpayable",
      "type": "function"
    },
    {
      "inputs": [
        {
          "internalType": "address",
          "name": "asset",
          "type": "address"
        },
        {
          "internalType": "uint256",
          "name": "amount",
          "type": "uint256"
        },
        {
          "internalType": "uint256",
          "name": "interestRateMode",
          "type": "uint256"
        }
      ],
      "name": "repayWithATokens",
      "outputs": [
        {
          "internalType": "uint256",
          "name": "",
          "type": "uint256"
        }
      ],
      "stateMutability": "nonpayable",
      "type": "function"
    },
    {
      "inputs": [
        {
          "internalType": "bytes32",
          "name": "args",
          "type": "bytes32"
        }
      ],
      "name": "repayWithATokens",
      "outputs": [
        {
          "internalType": "uint256",
          "name": "",
          "type": "uint256"
        }
      ],
      "stateMutability": "nonpayable",
      "type": "function"
    },
    {
      "inputs": [
        {
          "internalType": "bytes32",
          "name": "args",
          "type": "bytes32"
        },
        {
          "internalType": "bytes32",
          "name": "r",
          "type": "bytes32"
        },
        {
          "internalType": "bytes32",
          "name": "s",
          "type": "bytes32"
        }
      ],
      "name": "repayWithPermit",
      "outputs": [
        {
          "internalType": "uint256",
          "name": "",
          "type": "uint256"
        }
      ],
      "stateMutability": "nonpayable",
      "type": "function"
    },
    {
      "inputs": [
        {
          "internalType": "address",
          "name": "asset",
          "type": "address"
        },
        {
          "internalType": "uint256",
          "name": "amount",
          "type": "uint256"
        },
        {
          "internalType": "uint256",
          "name": "interestRateMode",
          "type": "uint256"
        },
        {
          "internalType": "address",
          "name": "onBehalfOf",
          "type": "address"
        },
        {
          "internalType": "uint256",
          "name": "deadline",
          "type": "uint256"
        },
        {
          "internalType": "uint8",
          "name": "permitV",
          "type": "uint8"
        },
        {
          "internalType": "bytes32",
          "name": "permitR",
          "type": "bytes32"
        },
        {
          "internalType": "bytes32",
          "name": "permitS",
          "type": "bytes32"
        }
      ],
      "name": "repayWithPermit",
      "outputs": [
        {
          "internalType": "uint256",
          "name": "",
          "type": "uint256"
        }
      ],
      "stateMutability": "nonpayable",
      "type": "function"
    },
    {
      "inputs": [
        {
          "internalType": "address",
          "name": "token",
          "type": "address"
        },
        {
          "internalType": "address",
          "name": "to",
          "type": "address"
        },
        {
          "internalType": "uint256",
          "name": "amount",
          "type": "uint256"
        }
      ],
      "name": "rescueTokens",
      "outputs": [],
      "stateMutability": "nonpayable",
      "type": "function"
    },
    {
      "inputs": [
        {
          "internalType": "address",
          "name": "asset",
          "type": "address"
        }
      ],
      "name": "resetIsolationModeTotalDebt",
      "outputs": [],
      "stateMutability": "nonpayable",
      "type": "function"
    },
    {
      "inputs": [
        {
          "internalType": "address",
          "name": "asset",
          "type": "address"
        },
        {
          "components": [
            {
              "internalType": "uint256",
              "name": "data",
              "type": "uint256"
            }
          ],
          "internalType": "struct DataTypes.ReserveConfigurationMap",
          "name": "configuration",
          "type": "tuple"
        }
      ],
      "name": "setConfiguration",
      "outputs": [],
      "stateMutability": "nonpayable",
      "type": "function"
    },
    {
      "inputs": [
        {
          "internalType": "address",
          "name": "asset",
          "type": "address"
        },
        {
          "internalType": "address",
          "name": "rateStrategyAddress",
          "type": "address"
        }
      ],
      "name": "setReserveInterestRateStrategyAddress",
      "outputs": [],
      "stateMutability": "nonpayable",
      "type": "function"
    },
    {
      "inputs": [
        {
          "internalType": "uint8",
          "name": "categoryId",
          "type": "uint8"
        }
      ],
      "name": "setUserEMode",
      "outputs": [],
      "stateMutability": "nonpayable",
      "type": "function"
    },
    {
      "inputs": [
        {
          "internalType": "bytes32",
          "name": "args",
          "type": "bytes32"
        }
      ],
      "name": "setUserUseReserveAsCollateral",
      "outputs": [],
      "stateMutability": "nonpayable",
      "type": "function"
    },
    {
      "inputs": [
        {
          "internalType": "address",
          "name": "asset",
          "type": "address"
        },
        {
          "internalType": "bool",
          "name": "useAsCollateral",
          "type": "bool"
        }
      ],
      "name": "setUserUseReserveAsCollateral",
      "outputs": [],
      "stateMutability": "nonpayable",
      "type": "function"
    },
    {
      "inputs": [
        {
          "internalType": "address",
          "name": "asset",
          "type": "address"
        },
        {
          "internalType": "uint256",
          "name": "amount",
          "type": "uint256"
        },
        {
          "internalType": "address",
          "name": "onBehalfOf",
          "type": "address"
        },
        {
          "internalType": "uint16",
          "name": "referralCode",
          "type": "uint16"
        }
      ],
      "name": "supply",
      "outputs": [],
      "stateMutability": "nonpayable",
      "type": "function"
    },
    {
      "inputs": [
        {
          "internalType": "bytes32",
          "name": "args",
          "type": "bytes32"
        }
      ],
      "name": "supply",
      "outputs": [],
      "stateMutability": "nonpayable",
      "type": "function"
    },
    {
      "inputs": [
        {
          "internalType": "address",
          "name": "asset",
          "type": "address"
        },
        {
          "internalType": "uint256",
          "name": "amount",
          "type": "uint256"
        },
        {
          "internalType": "address",
          "name": "onBehalfOf",
          "type": "address"
        },
        {
          "internalType": "uint16",
          "name": "referralCode",
          "type": "uint16"
        },
        {
          "internalType": "uint256",
          "name": "deadline",
          "type": "uint256"
        },
        {
          "internalType": "uint8",
          "name": "permitV",
          "type": "uint8"
        },
        {
          "internalType": "bytes32",
          "name": "permitR",
          "type": "bytes32"
        },
        {
          "internalType": "bytes32",
          "name": "permitS",
          "type": "bytes32"
        }
      ],
      "name": "supplyWithPermit",
      "outputs": [],
      "stateMutability": "nonpayable",
      "type": "function"
    },
    {
      "inputs": [
        {
          "internalType": "bytes32",
          "name": "args",
          "type": "bytes32"
        },
        {
          "internalType": "bytes32",
          "name": "r",
          "type": "bytes32"
        },
        {
          "internalType": "bytes32",
          "name": "s",
          "type": "bytes32"
        }
      ],
      "name": "supplyWithPermit",
      "outputs": [],
      "stateMutability": "nonpayable",
      "type": "function"
    },
    {
      "inputs": [
        {
          "internalType": "bytes32",
          "name": "args",
          "type": "bytes32"
        }
      ],
      "name": "swapBorrowRateMode",
      "outputs": [],
      "stateMutability": "nonpayable",
      "type": "function"
    },
    {
      "inputs": [
        {
          "internalType": "address",
          "name": "asset",
          "type": "address"
        },
        {
          "internalType": "uint256",
          "name": "interestRateMode",
          "type": "uint256"
        }
      ],
      "name": "swapBorrowRateMode",
      "outputs": [],
      "stateMutability": "nonpayable",
      "type": "function"
    },
    {
      "inputs": [
        {
          "internalType": "uint256",
          "name": "protocolFee",
          "type": "uint256"
        }
      ],
      "name": "updateBridgeProtocolFee",
      "outputs": [],
      "stateMutability": "nonpayable",
      "type": "function"
    },
    {
      "inputs": [
        {
          "internalType": "uint128",
          "name": "flashLoanPremiumTotal",
          "type": "uint128"
        },
        {
          "internalType": "uint128",
          "name": "flashLoanPremiumToProtocol",
          "type": "uint128"
        }
      ],
      "name": "updateFlashloanPremiums",
      "outputs": [],
      "stateMutability": "nonpayable",
      "type": "function"
    },
    {
      "inputs": [
        {
          "internalType": "address",
          "name": "asset",
          "type": "address"
        },
        {
          "internalType": "uint256",
          "name": "amount",
          "type": "uint256"
        },
        {
          "internalType": "address",
          "name": "to",
          "type": "address"
        }
      ],
      "name": "withdraw",
      "outputs": [
        {
          "internalType": "uint256",
          "name": "",
          "type": "uint256"
        }
      ],
      "stateMutability": "nonpayable",
      "type": "function"
    },
    {
      "inputs": [
        {
          "internalType": "bytes32",
          "name": "args",
          "type": "bytes32"
        }
      ],
      "name": "withdraw",
      "outputs": [],
      "stateMutability": "nonpayable",
      "type": "function"
    }
  ],
  "bytecode": "0x60a0604052600080553480156200001557600080fd5b506040516200832f3803806200832f83398181016040528101906200003b9190620000f8565b80808073ffffffffffffffffffffffffffffffffffffffff1660808173ffffffffffffffffffffffffffffffffffffffff16815250505050506200012a565b600080fd5b600073ffffffffffffffffffffffffffffffffffffffff82169050919050565b6000620000ac826200007f565b9050919050565b6000620000c0826200009f565b9050919050565b620000d281620000b3565b8114620000de57600080fd5b50565b600081519050620000f281620000c7565b92915050565b6000602082840312156200011157620001106200007a565b5b60006200012184828501620000e1565b91505092915050565b608051618180620001af60003960008181610bc401528181610cc301528181610f45015281816112b001528181611e45015281816121ef01528181612a5501528181612b5401528181612e6e01528181612eff0152818161320d0152818161349801528181613c6401528181614548015281816149850152614c1b01526181806000f3fe608060405234801561001057600080fd5b50600436106103825760003560e01c80637a708e92116101de578063d1946dbc1161010f578063e82fec2f116100ad578063f51e435b1161007c578063f51e435b14610aa6578063f7a7384014610ac2578063f8119d5114610ade578063fd21ecff14610afc57610382565b8063e82fec2f14610a0c578063e8eda9df14610a2a578063eddf1b7914610a46578063ee3e210b14610a7657610382565b8063d5eed868116100e9578063d5eed86814610988578063d65dc7a1146109a4578063dc7c0bff146109c0578063e43e88a1146109f057610382565b8063d1946dbc14610932578063d579ea7d14610950578063d5ed39331461096c57610382565b8063bcb6e5221161017c578063c4d66de811610156578063c4d66de8146108ae578063cd112382146108ca578063cea9d26f146108e6578063d15e00531461090257610382565b8063bcb6e5221461082d578063bf92857c14610849578063c44b11f71461087e57610382565b806394ba89a2116101b857806394ba89a2146107bd5780639cd19996146107d9578063a415bcad146107f5578063ab9c4b5d1461081157610382565b80637a708e92146107555780638e19899e1461077157806394b576de1461078d57610382565b806342b0b77c116102b8578063617ba0371161025657806369328dec1161023057806369328dec146106bb57806369a933a5146106eb5780636a99c036146107075780636c6f6ae11461072557610382565b8063617ba0371461066757806363c9b86014610683578063680dd47c1461069f57610382565b8063527517971161029257806352751797146105bb578063563dd613146105eb578063573ade811461061b5780635a3b74b91461064b57610382565b806342b0b77c146105535780634417a5831461056f5780634d013f031461059f57610382565b8063272d9072116103255780633036b439116102ff5780633036b439146104bb57806335ea6a75146104d7578063386497fd14610507578063427da1771461053757610382565b8063272d90721461045157806328530a471461046f5780632dad97d41461048b57610382565b80630542975c116103615780630542975c146103dd578063074b2e43146103fb5780631d2118f9146104195780631fe3c6f31461043557610382565b8062a718a9146103875780630148170e146103a357806302c205f0146103c1575b600080fd5b6103a1600480360381019061039c9190615646565b610b18565b005b6103ab610dc0565b6040516103b891906156d0565b60405180910390f35b6103db60048036038101906103d69190615794565b610dc5565b005b6103e5610f43565b6040516103f291906158a9565b60405180910390f35b610403610f67565b60405161041091906158ef565b60405180910390f35b610433600480360381019061042e919061590a565b610f8d565b005b61044f600480360381019061044a919061594a565b6111fd565b005b61045961121e565b60405161046691906156d0565b60405180910390f35b61048960048036038101906104849190615977565b611228565b005b6104a560048036038101906104a091906159a4565b6113b3565b6040516104b291906156d0565b60405180910390f35b6104d560048036038101906104d091906159f7565b6114f5565b005b6104f160048036038101906104ec9190615a24565b611507565b6040516104fe9190615bfe565b60405180910390f35b610521600480360381019061051c9190615a24565b611970565b60405161052e91906156d0565b60405180910390f35b610551600480360381019061054c919061594a565b6119c0565b005b61056d60048036038101906105689190615c7f565b6119e1565b005b61058960048036038101906105849190615a24565b611b9c565b6040516105969190615d35565b60405180910390f35b6105b960048036038101906105b4919061594a565b611bff565b005b6105d560048036038101906105d09190615d50565b611c20565b6040516105e29190615d8c565b60405180910390f35b6106056004803603810190610600919061594a565b611c61565b60405161061291906156d0565b60405180910390f35b61063560048036038101906106309190615da7565b611c8e565b60405161064291906156d0565b60405180910390f35b61066560048036038101906106609190615e0e565b611dd1565b005b610681600480360381019061067c9190615e4e565b611f77565b005b61069d60048036038101906106989190615a24565b61207a565b005b6106b960048036038101906106b49190615eb5565b6120f2565b005b6106d560048036038101906106d09190615f08565b612129565b6040516106e291906156d0565b60405180910390f35b61070560048036038101906107009190615e4e565b612354565b005b61070f612415565b60405161071c91906158ef565b60405180910390f35b61073f600480360381019061073a9190615977565b61243b565b60405161074c919061606a565b60405180910390f35b61076f600480360381019061076a919061608c565b6125b6565b005b61078b6004803603810190610786919061594a565b612743565b005b6107a760048036038101906107a29190615eb5565b612766565b6040516107b491906156d0565b60405180910390f35b6107d760048036038101906107d29190616107565b6127a2565b005b6107f360048036038101906107ee919061619d565b6128a1565b005b61080f600480360381019061080a91906161ea565b612911565b005b61082b600480360381019061082691906162bb565b612c51565b005b6108476004803603810190610842919061640b565b6130ca565b005b610863600480360381019061085e9190615a24565b613148565b6040516108759695949392919061644b565b60405180910390f35b61089860048036038101906108939190615a24565b61337d565b6040516108a591906164c8565b60405180910390f35b6108c860048036038101906108c39190616521565b6133e3565b005b6108e460048036038101906108df919061590a565b613623565b005b61090060048036038101906108fb919061654e565b6136d0565b005b61091c60048036038101906109179190615a24565b613748565b60405161092991906156d0565b60405180910390f35b61093a613798565b6040516109479190616650565b60405180910390f35b61096a60048036038101906109659190616854565b613935565b005b610986600480360381019061098191906168b0565b613aab565b005b6109a2600480360381019061099d919061594a565b613db7565b005b6109be60048036038101906109b991906159a4565b613de4565b005b6109da60048036038101906109d5919061594a565b613ea0565b6040516109e791906156d0565b60405180910390f35b610a0a6004803603810190610a059190615a24565b613ecc565b005b610a14613f41565b604051610a2191906156d0565b60405180910390f35b610a446004803603810190610a3f9190615e4e565b613f69565b005b610a606004803603810190610a5b9190615a24565b61406c565b604051610a6d91906156d0565b60405180910390f35b610a906004803603810190610a8b919061693d565b6140c5565b604051610a9d91906156d0565b60405180910390f35b610ac06004803603810190610abb9190616a17565b614289565b005b610adc6004803603810190610ad7919061594a565b6144ca565b005b610ae66144f2565b604051610af39190616a66565b60405180910390f35b610b166004803603810190610b119190616a81565b6144fb565b005b73__$b8fc6c4dd8386441e3ddd93bd59d9a9792$__6383c1087d6034603660356037604051806101200160405280603b60089054906101000a900461ffff1661ffff1681526020018981526020018c73ffffffffffffffffffffffffffffffffffffffff1681526020018b73ffffffffffffffffffffffffffffffffffffffff1681526020018a73ffffffffffffffffffffffffffffffffffffffff16815260200188151581526020017f000000000000000000000000000000000000000000000000000000000000000073ffffffffffffffffffffffffffffffffffffffff1663fca513a86040518163ffffffff1660e01b8152600401602060405180830381865afa158015610c2d573d6000803e3d6000fd5b505050506040513d601f19601f82011682018060405250810190610c519190616ad6565b73ffffffffffffffffffffffffffffffffffffffff168152602001603860008c73ffffffffffffffffffffffffffffffffffffffff1673ffffffffffffffffffffffffffffffffffffffff16815260200190815260200160002060009054906101000a900460ff1660ff1681526020017f000000000000000000000000000000000000000000000000000000000000000073ffffffffffffffffffffffffffffffffffffffff16635eb88d3d6040518163ffffffff1660e01b8152600401602060405180830381865afa158015610d2c573d6000803e3d6000fd5b505050506040513d601f19601f82011682018060405250810190610d509190616ad6565b73ffffffffffffffffffffffffffffffffffffffff168152506040518663ffffffff1660e01b8152600401610d89959493929190616c12565b60006040518083038186803b158015610da157600080fd5b505af4158015610db5573d6000803e3d6000fd5b505050505050505050565b600181565b8773ffffffffffffffffffffffffffffffffffffffff1663d505accf33308a888888886040518863ffffffff1660e01b8152600401610e0a9796959493929190616c84565b600060405180830381600087803b158015610e2457600080fd5b505af1158015610e38573d6000803e3d6000fd5b5050505073__$792a6858e828a9166a182213cb74cf182c$__631913f16160346036603560008b73ffffffffffffffffffffffffffffffffffffffff1673ffffffffffffffffffffffffffffffffffffffff16815260200190815260200160002060405180608001604052808e73ffffffffffffffffffffffffffffffffffffffff1681526020018d81526020018c73ffffffffffffffffffffffffffffffffffffffff1681526020018b61ffff168152506040518563ffffffff1660e01b8152600401610f099493929190616d5e565b60006040518083038186803b158015610f2157600080fd5b505af4158015610f35573d6000803e3d6000fd5b505050505050505050505050565b7f000000000000000000000000000000000000000000000000000000000000000081565b6000603a60009054906101000a90046fffffffffffffffffffffffffffffffff16905090565b610f9561452f565b600073ffffffffffffffffffffffffffffffffffffffff168273ffffffffffffffffffffffffffffffffffffffff1614156040518060400160405280600281526020017f37370000000000000000000000000000000000000000000000000000000000008152509061103d576040517f08c379a00000000000000000000000000000000000000000000000000000000081526004016110349190616ded565b60405180910390fd5b506000603460008473ffffffffffffffffffffffffffffffffffffffff1673ffffffffffffffffffffffffffffffffffffffff16815260200190815260200160002060030160159054906101000a900461ffff1661ffff1614158061110057508173ffffffffffffffffffffffffffffffffffffffff166036600080815260200190815260200160002060009054906101000a900473ffffffffffffffffffffffffffffffffffffffff1673ffffffffffffffffffffffffffffffffffffffff16145b6040518060400160405280600281526020017f383200000000000000000000000000000000000000000000000000000000000081525090611177576040517f08c379a000000000000000000000000000000000000000000000000000000000815260040161116e9190616ded565b60405180910390fd5b5080603460008473ffffffffffffffffffffffffffffffffffffffff1673ffffffffffffffffffffffffffffffffffffffff16815260200190815260200160002060070160006101000a81548173ffffffffffffffffffffffffffffffffffffffff021916908373ffffffffffffffffffffffffffffffffffffffff1602179055505050565b60008061120b603684614666565b9150915061121982826127a2565b505050565b6000603954905090565b73__$b3e7a7e7c27bd2115be53950ecd292c08e$__635d5dc3136034603660376038603560003373ffffffffffffffffffffffffffffffffffffffff1673ffffffffffffffffffffffffffffffffffffffff1681526020019081526020016000206040518060600160405280603b60089054906101000a900461ffff1661ffff1681526020017f000000000000000000000000000000000000000000000000000000000000000073ffffffffffffffffffffffffffffffffffffffff1663fca513a86040518163ffffffff1660e01b8152600401602060405180830381865afa158015611319573d6000803e3d6000fd5b505050506040513d601f19601f8201168201806040525081019061133d9190616ad6565b73ffffffffffffffffffffffffffffffffffffffff1681526020018960ff168152506040518763ffffffff1660e01b815260040161138096959493929190616e58565b60006040518083038186803b15801561139857600080fd5b505af41580156113ac573d6000803e3d6000fd5b5050505050565b600073__$5157860d6e8796e816c59125dcbc9decd5$__6340e95de660346036603560003373ffffffffffffffffffffffffffffffffffffffff1673ffffffffffffffffffffffffffffffffffffffff1681526020019081526020016000206040518060a001604052808a73ffffffffffffffffffffffffffffffffffffffff16815260200189815260200188600281111561145257611451616eba565b5b600281111561146457611463616eba565b5b81526020013373ffffffffffffffffffffffffffffffffffffffff168152602001600115158152506040518563ffffffff1660e01b81526004016114ab9493929190616f99565b602060405180830381865af41580156114c8573d6000803e3d6000fd5b505050506040513d601f19601f820116820180604052508101906114ec9190616ff4565b90509392505050565b6114fd61452f565b8060398190555050565b61150f6152dd565b603460008373ffffffffffffffffffffffffffffffffffffffff1673ffffffffffffffffffffffffffffffffffffffff168152602001908152602001600020604051806101e00160405290816000820160405180602001604052908160008201548152505081526020016001820160009054906101000a90046fffffffffffffffffffffffffffffffff166fffffffffffffffffffffffffffffffff166fffffffffffffffffffffffffffffffff1681526020016001820160109054906101000a90046fffffffffffffffffffffffffffffffff166fffffffffffffffffffffffffffffffff166fffffffffffffffffffffffffffffffff1681526020016002820160009054906101000a90046fffffffffffffffffffffffffffffffff166fffffffffffffffffffffffffffffffff166fffffffffffffffffffffffffffffffff1681526020016002820160109054906101000a90046fffffffffffffffffffffffffffffffff166fffffffffffffffffffffffffffffffff166fffffffffffffffffffffffffffffffff1681526020016003820160009054906101000a90046fffffffffffffffffffffffffffffffff166fffffffffffffffffffffffffffffffff166fffffffffffffffffffffffffffffffff1681526020016003820160109054906101000a900464ffffffffff1664ffffffffff1664ffffffffff1681526020016003820160159054906101000a900461ffff1661ffff1661ffff1681526020016004820160009054906101000a900473ffffffffffffffffffffffffffffffffffffffff1673ffffffffffffffffffffffffffffffffffffffff1673ffffffffffffffffffffffffffffffffffffffff1681526020016005820160009054906101000a900473ffffffffffffffffffffffffffffffffffffffff1673ffffffffffffffffffffffffffffffffffffffff1673ffffffffffffffffffffffffffffffffffffffff1681526020016006820160009054906101000a900473ffffffffffffffffffffffffffffffffffffffff1673ffffffffffffffffffffffffffffffffffffffff1673ffffffffffffffffffffffffffffffffffffffff1681526020016007820160009054906101000a900473ffffffffffffffffffffffffffffffffffffffff1673ffffffffffffffffffffffffffffffffffffffff1673ffffffffffffffffffffffffffffffffffffffff1681526020016008820160009054906101000a90046fffffffffffffffffffffffffffffffff166fffffffffffffffffffffffffffffffff166fffffffffffffffffffffffffffffffff1681526020016008820160109054906101000a90046fffffffffffffffffffffffffffffffff166fffffffffffffffffffffffffffffffff166fffffffffffffffffffffffffffffffff1681526020016009820160009054906101000a90046fffffffffffffffffffffffffffffffff166fffffffffffffffffffffffffffffffff166fffffffffffffffffffffffffffffffff16815250509050919050565b60006119b9603460008473ffffffffffffffffffffffffffffffffffffffff1673ffffffffffffffffffffffffffffffffffffffff1681526020019081526020016000206146c1565b9050919050565b6000806119ce6036846147af565b915091506119dc8282613623565b505050565b60006040518060e001604052808873ffffffffffffffffffffffffffffffffffffffff1681526020018773ffffffffffffffffffffffffffffffffffffffff16815260200186815260200185858080601f016020809104026020016040519081016040528093929190818152602001838380828437600081840152601f19601f8201169050808301925050505050505081526020018361ffff168152602001603a60109054906101000a90046fffffffffffffffffffffffffffffffff166fffffffffffffffffffffffffffffffff168152602001603a60009054906101000a90046fffffffffffffffffffffffffffffffff166fffffffffffffffffffffffffffffffff16815250905073__$9fe57f3ed66fb1ad1bdf82003ba1eaf30d$__63a1fe0e8d603460008973ffffffffffffffffffffffffffffffffffffffff1673ffffffffffffffffffffffffffffffffffffffff168152602001908152602001600020836040518363ffffffff1660e01b8152600401611b63929190617119565b60006040518083038186803b158015611b7b57600080fd5b505af4158015611b8f573d6000803e3d6000fd5b5050505050505050505050565b611ba461544c565b603560008373ffffffffffffffffffffffffffffffffffffffff1673ffffffffffffffffffffffffffffffffffffffff1681526020019081526020016000206040518060200160405290816000820154815250509050919050565b600080611c0d60368461481d565b91509150611c1b8282611dd1565b505050565b6000603660008361ffff16815260200190815260200160002060009054906101000a900473ffffffffffffffffffffffffffffffffffffffff169050919050565b600080600080611c72603686614878565b925092509250611c8483838333611c8e565b9350505050919050565b600073__$5157860d6e8796e816c59125dcbc9decd5$__6340e95de660346036603560008773ffffffffffffffffffffffffffffffffffffffff1673ffffffffffffffffffffffffffffffffffffffff1681526020019081526020016000206040518060a001604052808b73ffffffffffffffffffffffffffffffffffffffff1681526020018a8152602001896002811115611d2d57611d2c616eba565b5b6002811115611d3f57611d3e616eba565b5b81526020018873ffffffffffffffffffffffffffffffffffffffff168152602001600015158152506040518563ffffffff1660e01b8152600401611d869493929190616f99565b602060405180830381865af4158015611da3573d6000803e3d6000fd5b505050506040513d601f19601f82011682018060405250810190611dc79190616ff4565b9050949350505050565b73__$792a6858e828a9166a182213cb74cf182c$__63bf697a26603460366037603560003373ffffffffffffffffffffffffffffffffffffffff1673ffffffffffffffffffffffffffffffffffffffff1681526020019081526020016000208787603b60089054906101000a900461ffff167f000000000000000000000000000000000000000000000000000000000000000073ffffffffffffffffffffffffffffffffffffffff1663fca513a86040518163ffffffff1660e01b8152600401602060405180830381865afa158015611eae573d6000803e3d6000fd5b505050506040513d601f19601f82011682018060405250810190611ed29190616ad6565b603860003373ffffffffffffffffffffffffffffffffffffffff1673ffffffffffffffffffffffffffffffffffffffff16815260200190815260200160002060009054906101000a900460ff166040518a63ffffffff1660e01b8152600401611f43999897969594939291906171a7565b60006040518083038186803b158015611f5b57600080fd5b505af4158015611f6f573d6000803e3d6000fd5b505050505050565b73__$792a6858e828a9166a182213cb74cf182c$__631913f16160346036603560008773ffffffffffffffffffffffffffffffffffffffff1673ffffffffffffffffffffffffffffffffffffffff16815260200190815260200160002060405180608001604052808a73ffffffffffffffffffffffffffffffffffffffff1681526020018981526020018873ffffffffffffffffffffffffffffffffffffffff1681526020018761ffff168152506040518563ffffffff1660e01b81526004016120449493929190616d5e565b60006040518083038186803b15801561205c57600080fd5b505af4158015612070573d6000803e3d6000fd5b5050505050505050565b61208261452f565b73__$fe21a1d4eaaeaff9e8fbaf7fdfd147fd7e$__639cf5702360346036846040518463ffffffff1660e01b81526004016120bf93929190617234565b60006040518083038186803b1580156120d757600080fd5b505af41580156120eb573d6000803e3d6000fd5b5050505050565b6000806000806000612105603689614930565b9450945094509450945061211f8585338686868d8d610dc5565b5050505050505050565b600073__$792a6858e828a9166a182213cb74cf182c$__63186dea44603460366037603560003373ffffffffffffffffffffffffffffffffffffffff1673ffffffffffffffffffffffffffffffffffffffff1681526020019081526020016000206040518060c001604052808b73ffffffffffffffffffffffffffffffffffffffff1681526020018a81526020018973ffffffffffffffffffffffffffffffffffffffff168152602001603b60089054906101000a900461ffff1661ffff1681526020017f000000000000000000000000000000000000000000000000000000000000000073ffffffffffffffffffffffffffffffffffffffff1663fca513a86040518163ffffffff1660e01b8152600401602060405180830381865afa158015612258573d6000803e3d6000fd5b505050506040513d601f19601f8201168201806040525081019061227c9190616ad6565b73ffffffffffffffffffffffffffffffffffffffff168152602001603860003373ffffffffffffffffffffffffffffffffffffffff1673ffffffffffffffffffffffffffffffffffffffff16815260200190815260200160002060009054906101000a900460ff1660ff168152506040518663ffffffff1660e01b815260040161230a9594939291906172e6565b602060405180830381865af4158015612327573d6000803e3d6000fd5b505050506040513d601f19601f8201168201806040525081019061234b9190616ff4565b90509392505050565b61235c614983565b73__$1a5b5028a57ae19be99589a53297134eab$__630413c86f60346036603560008773ffffffffffffffffffffffffffffffffffffffff1673ffffffffffffffffffffffffffffffffffffffff168152602001908152602001600020888888886040518863ffffffff1660e01b81526004016123df9796959493929190617358565b60006040518083038186803b1580156123f757600080fd5b505af415801561240b573d6000803e3d6000fd5b5050505050505050565b6000603a60109054906101000a90046fffffffffffffffffffffffffffffffff16905090565b61244361545f565b603760008360ff1660ff1681526020019081526020016000206040518060a00160405290816000820160009054906101000a900461ffff1661ffff1661ffff1681526020016000820160029054906101000a900461ffff1661ffff1661ffff1681526020016000820160049054906101000a900461ffff1661ffff1661ffff1681526020016000820160069054906101000a900473ffffffffffffffffffffffffffffffffffffffff1673ffffffffffffffffffffffffffffffffffffffff1673ffffffffffffffffffffffffffffffffffffffff16815260200160018201805461252d906173f6565b80601f0160208091040260200160405190810160405280929190818152602001828054612559906173f6565b80156125a65780601f1061257b576101008083540402835291602001916125a6565b820191906000526020600020905b81548152906001019060200180831161258957829003601f168201915b5050505050815250509050919050565b6125be61452f565b73__$fe21a1d4eaaeaff9e8fbaf7fdfd147fd7e$__6369fc1bdf603460366040518060e001604052808a73ffffffffffffffffffffffffffffffffffffffff1681526020018973ffffffffffffffffffffffffffffffffffffffff1681526020018873ffffffffffffffffffffffffffffffffffffffff1681526020018773ffffffffffffffffffffffffffffffffffffffff1681526020018673ffffffffffffffffffffffffffffffffffffffff168152602001603b60089054906101000a900461ffff1661ffff1681526020016126956144f2565b61ffff168152506040518463ffffffff1660e01b81526004016126ba939291906174b6565b602060405180830381865af41580156126d7573d6000803e3d6000fd5b505050506040513d601f19601f820116820180604052508101906126fb9190617503565b1561273c57603b600881819054906101000a900461ffff16809291906127209061755f565b91906101000a81548161ffff021916908361ffff160217905550505b5050505050565b600080612751603684614b05565b91509150612760828233612129565b50505050565b60008060008060008061277a60368a614bad565b945094509450945094506127948585853386868e8e6140c5565b955050505050509392505050565b73__$5157860d6e8796e816c59125dcbc9decd5$__63eac4d703603460008573ffffffffffffffffffffffffffffffffffffffff1673ffffffffffffffffffffffffffffffffffffffff168152602001908152602001600020603560003373ffffffffffffffffffffffffffffffffffffffff1673ffffffffffffffffffffffffffffffffffffffff1681526020019081526020016000208585600281111561284e5761284d616eba565b5b6040518563ffffffff1660e01b815260040161286d9493929190617599565b60006040518083038186803b15801561288557600080fd5b505af4158015612899573d6000803e3d6000fd5b505050505050565b73__$fe21a1d4eaaeaff9e8fbaf7fdfd147fd7e$__6348c2ca8c603484846040518463ffffffff1660e01b81526004016128dd93929190617692565b60006040518083038186803b1580156128f557600080fd5b505af4158015612909573d6000803e3d6000fd5b505050505050565b73__$5157860d6e8796e816c59125dcbc9decd5$__631e6473f9603460366037603560008773ffffffffffffffffffffffffffffffffffffffff1673ffffffffffffffffffffffffffffffffffffffff1681526020019081526020016000206040518061018001604052808c73ffffffffffffffffffffffffffffffffffffffff1681526020013373ffffffffffffffffffffffffffffffffffffffff1681526020018873ffffffffffffffffffffffffffffffffffffffff1681526020018b81526020018a60028111156129e9576129e8616eba565b5b60028111156129fb576129fa616eba565b5b81526020018961ffff168152602001600115158152602001603b60009054906101000a900467ffffffffffffffff1667ffffffffffffffff168152602001603b60089054906101000a900461ffff1661ffff1681526020017f000000000000000000000000000000000000000000000000000000000000000073ffffffffffffffffffffffffffffffffffffffff1663fca513a86040518163ffffffff1660e01b8152600401602060405180830381865afa158015612abe573d6000803e3d6000fd5b505050506040513d601f19601f82011682018060405250810190612ae29190616ad6565b73ffffffffffffffffffffffffffffffffffffffff168152602001603860008a73ffffffffffffffffffffffffffffffffffffffff1673ffffffffffffffffffffffffffffffffffffffff16815260200190815260200160002060009054906101000a900460ff1660ff1681526020017f000000000000000000000000000000000000000000000000000000000000000073ffffffffffffffffffffffffffffffffffffffff16635eb88d3d6040518163ffffffff1660e01b8152600401602060405180830381865afa158015612bbd573d6000803e3d6000fd5b505050506040513d601f19601f82011682018060405250810190612be19190616ad6565b73ffffffffffffffffffffffffffffffffffffffff168152506040518663ffffffff1660e01b8152600401612c1a9594939291906177ba565b60006040518083038186803b158015612c3257600080fd5b505af4158015612c46573d6000803e3d6000fd5b505050505050505050565b6000604051806101c001604052808d73ffffffffffffffffffffffffffffffffffffffff1681526020018c8c80806020026020016040519081016040528093929190818152602001838360200280828437600081840152601f19601f8201169050808301925050505050505081526020018a8a80806020026020016040519081016040528093929190818152602001838360200280828437600081840152601f19601f820116905080830192505050505050508152602001888880806020026020016040519081016040528093929190818152602001838360200280828437600081840152601f19601f8201169050808301925050505050505081526020018673ffffffffffffffffffffffffffffffffffffffff16815260200185858080601f016020809104026020016040519081016040528093929190818152602001838380828437600081840152601f19601f8201169050808301925050505050505081526020018361ffff168152602001603a60109054906101000a90046fffffffffffffffffffffffffffffffff166fffffffffffffffffffffffffffffffff168152602001603a60009054906101000a90046fffffffffffffffffffffffffffffffff166fffffffffffffffffffffffffffffffff168152602001603b60009054906101000a900467ffffffffffffffff1667ffffffffffffffff168152602001603b60089054906101000a900461ffff1661ffff1681526020017f000000000000000000000000000000000000000000000000000000000000000073ffffffffffffffffffffffffffffffffffffffff168152602001603860008873ffffffffffffffffffffffffffffffffffffffff1673ffffffffffffffffffffffffffffffffffffffff16815260200190815260200160002060009054906101000a900460ff1660ff1681526020017f000000000000000000000000000000000000000000000000000000000000000073ffffffffffffffffffffffffffffffffffffffff1663707cd7166040518163ffffffff1660e01b8152600401602060405180830381865afa158015612f68573d6000803e3d6000fd5b505050506040513d601f19601f82011682018060405250810190612f8c9190616ad6565b73ffffffffffffffffffffffffffffffffffffffff1663fa50f297336040518263ffffffff1660e01b8152600401612fc49190615d8c565b602060405180830381865afa158015612fe1573d6000803e3d6000fd5b505050506040513d601f19601f820116820180604052508101906130059190617503565b1515815250905073__$9fe57f3ed66fb1ad1bdf82003ba1eaf30d$__632e7263ea603460366037603560008b73ffffffffffffffffffffffffffffffffffffffff1673ffffffffffffffffffffffffffffffffffffffff168152602001908152602001600020866040518663ffffffff1660e01b815260040161308c959493929190617a6f565b60006040518083038186803b1580156130a457600080fd5b505af41580156130b8573d6000803e3d6000fd5b50505050505050505050505050505050565b6130d261452f565b81603a60006101000a8154816fffffffffffffffffffffffffffffffff02191690836fffffffffffffffffffffffffffffffff16021790555080603a60106101000a8154816fffffffffffffffffffffffffffffffff02191690836fffffffffffffffffffffffffffffffff1602179055505050565b60008060008060008073__$fe21a1d4eaaeaff9e8fbaf7fdfd147fd7e$__6326ec273f6034603660376040518060a00160405280603560008f73ffffffffffffffffffffffffffffffffffffffff1673ffffffffffffffffffffffffffffffffffffffff1681526020019081526020016000206040518060200160405290816000820154815250508152602001603b60089054906101000a900461ffff1661ffff1681526020018d73ffffffffffffffffffffffffffffffffffffffff1681526020017f000000000000000000000000000000000000000000000000000000000000000073ffffffffffffffffffffffffffffffffffffffff1663fca513a86040518163ffffffff1660e01b8152600401602060405180830381865afa158015613276573d6000803e3d6000fd5b505050506040513d601f19601f8201168201806040525081019061329a9190616ad6565b73ffffffffffffffffffffffffffffffffffffffff168152602001603860008f73ffffffffffffffffffffffffffffffffffffffff1673ffffffffffffffffffffffffffffffffffffffff16815260200190815260200160002060009054906101000a900460ff1660ff168152506040518563ffffffff1660e01b81526004016133279493929190617b4d565b60c060405180830381865af4158015613344573d6000803e3d6000fd5b505050506040513d601f19601f820116820180604052508101906133689190617b93565b95509550955095509550955091939550919395565b6133856154b0565b603460008373ffffffffffffffffffffffffffffffffffffffff1673ffffffffffffffffffffffffffffffffffffffff1681526020019081526020016000206000016040518060200160405290816000820154815250509050919050565b60006133ed614bff565b9050600160009054906101000a900460ff168061340e575061340d614c08565b5b8061341a575060005481115b613459576040517f08c379a000000000000000000000000000000000000000000000000000000000815260040161345090617c92565b60405180910390fd5b6000600160009054906101000a900460ff1615905080156134965760018060006101000a81548160ff021916908315150217905550816000819055505b7f000000000000000000000000000000000000000000000000000000000000000073ffffffffffffffffffffffffffffffffffffffff168373ffffffffffffffffffffffffffffffffffffffff16146040518060400160405280600281526020017f31320000000000000000000000000000000000000000000000000000000000008152509061355c576040517f08c379a00000000000000000000000000000000000000000000000000000000081526004016135539190616ded565b60405180910390fd5b506109c4603b60006101000a81548167ffffffffffffffff021916908367ffffffffffffffff1602179055506009603a60006101000a8154816fffffffffffffffffffffffffffffffff02191690836fffffffffffffffffffffffffffffffff1602179055506000603a60106101000a8154816fffffffffffffffffffffffffffffffff02191690836fffffffffffffffffffffffffffffffff160217905550801561361e576000600160006101000a81548160ff0219169083151502179055505b505050565b73__$5157860d6e8796e816c59125dcbc9decd5$__636973f744603460008573ffffffffffffffffffffffffffffffffffffffff1673ffffffffffffffffffffffffffffffffffffffff16815260200190815260200160002084846040518463ffffffff1660e01b815260040161369c93929190617cb2565b60006040518083038186803b1580156136b457600080fd5b505af41580156136c8573d6000803e3d6000fd5b505050505050565b6136d8614c19565b73__$fe21a1d4eaaeaff9e8fbaf7fdfd147fd7e$__6387b322b28484846040518463ffffffff1660e01b815260040161371393929190617ce9565b60006040518083038186803b15801561372b57600080fd5b505af415801561373f573d6000803e3d6000fd5b50505050505050565b6000613791603460008473ffffffffffffffffffffffffffffffffffffffff1673ffffffffffffffffffffffffffffffffffffffff168152602001908152602001600020614d9b565b9050919050565b60606000603b60089054906101000a900461ffff1661ffff1690506000808267ffffffffffffffff8111156137d0576137cf616677565b5b6040519080825280602002602001820160405280156137fe5781602001602082028036833780820191505090505b50905060005b8381101561392657600073ffffffffffffffffffffffffffffffffffffffff166036600083815260200190815260200160002060009054906101000a900473ffffffffffffffffffffffffffffffffffffffff1673ffffffffffffffffffffffffffffffffffffffff1614613904576036600082815260200190815260200160002060009054906101000a900473ffffffffffffffffffffffffffffffffffffffff168284836138b49190617d20565b815181106138c5576138c4617d54565b5b602002602001019073ffffffffffffffffffffffffffffffffffffffff16908173ffffffffffffffffffffffffffffffffffffffff1681525050613913565b828061390f90617d83565b9350505b808061391e90617d83565b915050613804565b50818303815280935050505090565b61393d61452f565b60008260ff1614156040518060400160405280600281526020017f3136000000000000000000000000000000000000000000000000000000000000815250906139bc576040517f08c379a00000000000000000000000000000000000000000000000000000000081526004016139b39190616ded565b60405180910390fd5b5080603760008460ff1660ff16815260200190815260200160002060008201518160000160006101000a81548161ffff021916908361ffff16021790555060208201518160000160026101000a81548161ffff021916908361ffff16021790555060408201518160000160046101000a81548161ffff021916908361ffff16021790555060608201518160000160066101000a81548173ffffffffffffffffffffffffffffffffffffffff021916908373ffffffffffffffffffffffffffffffffffffffff1602179055506080820151816001019080519060200190613aa39291906154c3565b509050505050565b603460008773ffffffffffffffffffffffffffffffffffffffff1673ffffffffffffffffffffffffffffffffffffffff16815260200190815260200160002060040160009054906101000a900473ffffffffffffffffffffffffffffffffffffffff1673ffffffffffffffffffffffffffffffffffffffff163373ffffffffffffffffffffffffffffffffffffffff16146040518060400160405280600281526020017f313100000000000000000000000000000000000000000000000000000000000081525090613bb3576040517f08c379a0000000000000000000000000000000000000000000000000000000008152600401613baa9190616ded565b60405180910390fd5b5073__$792a6858e828a9166a182213cb74cf182c$__638a5dadd160346036603760356040518061012001604052808d73ffffffffffffffffffffffffffffffffffffffff1681526020018c73ffffffffffffffffffffffffffffffffffffffff1681526020018b73ffffffffffffffffffffffffffffffffffffffff1681526020018a8152602001898152602001888152602001603b60089054906101000a900461ffff1661ffff1681526020017f000000000000000000000000000000000000000000000000000000000000000073ffffffffffffffffffffffffffffffffffffffff1663fca513a86040518163ffffffff1660e01b8152600401602060405180830381865afa158015613ccd573d6000803e3d6000fd5b505050506040513d601f19601f82011682018060405250810190613cf19190616ad6565b73ffffffffffffffffffffffffffffffffffffffff168152602001603860008e73ffffffffffffffffffffffffffffffffffffffff1673ffffffffffffffffffffffffffffffffffffffff16815260200190815260200160002060009054906101000a900460ff1660ff168152506040518663ffffffff1660e01b8152600401613d7f959493929190617e83565b60006040518083038186803b158015613d9757600080fd5b505af4158015613dab573d6000803e3d6000fd5b50505050505050505050565b600080600080613dc8603686614e89565b9350935093509350613ddd8484848433612911565b5050505050565b613dec614983565b73__$1a5b5028a57ae19be99589a53297134eab$__638e743248603460008673ffffffffffffffffffffffffffffffffffffffff1673ffffffffffffffffffffffffffffffffffffffff1681526020019081526020016000208585856039546040518663ffffffff1660e01b8152600401613e6b959493929190617ed7565b60006040518083038186803b158015613e8357600080fd5b505af4158015613e97573d6000803e3d6000fd5b50505050505050565b600080600080613eb1603686614878565b925092509250613ec28383836113b3565b9350505050919050565b613ed461452f565b73__$fe21a1d4eaaeaff9e8fbaf7fdfd147fd7e$__631e3b41456034836040518363ffffffff1660e01b8152600401613f0e929190617f2a565b60006040518083038186803b158015613f2657600080fd5b505af4158015613f3a573d6000803e3d6000fd5b5050505050565b6000603b60009054906101000a900467ffffffffffffffff1667ffffffffffffffff16905090565b73__$792a6858e828a9166a182213cb74cf182c$__631913f16160346036603560008773ffffffffffffffffffffffffffffffffffffffff1673ffffffffffffffffffffffffffffffffffffffff16815260200190815260200160002060405180608001604052808a73ffffffffffffffffffffffffffffffffffffffff1681526020018981526020018873ffffffffffffffffffffffffffffffffffffffff1681526020018761ffff168152506040518563ffffffff1660e01b81526004016140369493929190616d5e565b60006040518083038186803b15801561404e57600080fd5b505af4158015614062573d6000803e3d6000fd5b5050505050505050565b6000603860008373ffffffffffffffffffffffffffffffffffffffff1673ffffffffffffffffffffffffffffffffffffffff16815260200190815260200160002060009054906101000a900460ff1660ff169050919050565b60008873ffffffffffffffffffffffffffffffffffffffff1663d505accf33308b898989896040518863ffffffff1660e01b815260040161410c9796959493929190616c84565b600060405180830381600087803b15801561412657600080fd5b505af115801561413a573d6000803e3d6000fd5b5050505060006040518060a001604052808b73ffffffffffffffffffffffffffffffffffffffff1681526020018a81526020018960028111156141805761417f616eba565b5b600281111561419257614191616eba565b5b81526020018873ffffffffffffffffffffffffffffffffffffffff16815260200160001515815250905073__$5157860d6e8796e816c59125dcbc9decd5$__6340e95de660346036603560008c73ffffffffffffffffffffffffffffffffffffffff1673ffffffffffffffffffffffffffffffffffffffff168152602001908152602001600020856040518563ffffffff1660e01b81526004016142399493929190616f99565b602060405180830381865af4158015614256573d6000803e3d6000fd5b505050506040513d601f19601f8201168201806040525081019061427a9190616ff4565b91505098975050505050505050565b61429161452f565b600073ffffffffffffffffffffffffffffffffffffffff168273ffffffffffffffffffffffffffffffffffffffff1614156040518060400160405280600281526020017f373700000000000000000000000000000000000000000000000000000000000081525090614339576040517f08c379a00000000000000000000000000000000000000000000000000000000081526004016143309190616ded565b60405180910390fd5b506000603460008473ffffffffffffffffffffffffffffffffffffffff1673ffffffffffffffffffffffffffffffffffffffff16815260200190815260200160002060030160159054906101000a900461ffff1661ffff161415806143fc57508173ffffffffffffffffffffffffffffffffffffffff166036600080815260200190815260200160002060009054906101000a900473ffffffffffffffffffffffffffffffffffffffff1673ffffffffffffffffffffffffffffffffffffffff16145b6040518060400160405280600281526020017f383200000000000000000000000000000000000000000000000000000000000081525090614473576040517f08c379a000000000000000000000000000000000000000000000000000000000815260040161446a9190616ded565b60405180910390fd5b5080603460008473ffffffffffffffffffffffffffffffffffffffff1673ffffffffffffffffffffffffffffffffffffffff16815260200190815260200160002060000181816144c3919061802c565b9050505050565b60008060006144da603685614f16565b9250925092506144ec83833384611f77565b50505050565b60006080905090565b600080600080600061450f60368888614f91565b945094509450945094506145268585858585610b18565b50505050505050565b3373ffffffffffffffffffffffffffffffffffffffff167f000000000000000000000000000000000000000000000000000000000000000073ffffffffffffffffffffffffffffffffffffffff1663631adfca6040518163ffffffff1660e01b8152600401602060405180830381865afa1580156145b1573d6000803e3d6000fd5b505050506040513d601f19601f820116820180604052508101906145d59190616ad6565b73ffffffffffffffffffffffffffffffffffffffff16146040518060400160405280600281526020017f313000000000000000000000000000000000000000000000000000000000000081525090614663576040517f08c379a000000000000000000000000000000000000000000000000000000000815260040161465a9190616ded565b60405180910390fd5b50565b60008060008061ffff8516915060ff8560101c1690508560008361ffff16815260200190815260200160002060009054906101000a900473ffffffffffffffffffffffffffffffffffffffff16819350935050509250929050565b6000808260030160109054906101000a900464ffffffffff169050428164ffffffffff161415614726578260020160009054906101000a90046fffffffffffffffffffffffffffffffff166fffffffffffffffffffffffffffffffff169150506147aa565b6147a68360020160009054906101000a90046fffffffffffffffffffffffffffffffff166fffffffffffffffffffffffffffffffff166147988560020160109054906101000a90046fffffffffffffffffffffffffffffffff166fffffffffffffffffffffffffffffffff16846150b4565b6150c990919063ffffffff16565b9150505b919050565b60008060008061ffff8516915073ffffffffffffffffffffffffffffffffffffffff8560101c1690508560008361ffff16815260200190815260200160002060009054906101000a900473ffffffffffffffffffffffffffffffffffffffff16819350935050509250929050565b60008060008061ffff8516915060018560101c1690508560008361ffff16815260200190815260200160002060009054906101000a900473ffffffffffffffffffffffffffffffffffffffff16819350935050509250929050565b60008060008060008061ffff871692506fffffffffffffffffffffffffffffffff8760101c16915060ff8760901c1690506fffffffffffffffffffffffffffffffff80168214156148e7577fffffffffffffffffffffffffffffffffffffffffffffffffffffffffffffffff91505b8760008461ffff16815260200190815260200160002060009054906101000a900473ffffffffffffffffffffffffffffffffffffffff1682829550955095505050509250925092565b600080600080600080600063ffffffff8860a01c16915060ff8860c01c169050600080600061495f8c8c614f16565b92509250925082828287879950995099509950995050505050509295509295909350565b7f000000000000000000000000000000000000000000000000000000000000000073ffffffffffffffffffffffffffffffffffffffff1663707cd7166040518163ffffffff1660e01b8152600401602060405180830381865afa1580156149ee573d6000803e3d6000fd5b505050506040513d601f19601f82011682018060405250810190614a129190616ad6565b73ffffffffffffffffffffffffffffffffffffffff1663726600ce336040518263ffffffff1660e01b8152600401614a4a9190615d8c565b602060405180830381865afa158015614a67573d6000803e3d6000fd5b505050506040513d601f19601f82011682018060405250810190614a8b9190617503565b6040518060400160405280600181526020017f360000000000000000000000000000000000000000000000000000000000000081525090614b02576040517f08c379a0000000000000000000000000000000000000000000000000000000008152600401614af99190616ded565b60405180910390fd5b50565b60008060008061ffff851691506fffffffffffffffffffffffffffffffff8560101c1690506fffffffffffffffffffffffffffffffff8016811415614b68577fffffffffffffffffffffffffffffffffffffffffffffffffffffffffffffffff90505b8560008361ffff16815260200190815260200160002060009054906101000a900473ffffffffffffffffffffffffffffffffffffffff16819350935050509250929050565b600080600080600080600080600080614bc68c8c614878565b92509250925063ffffffff8b60981c16945060ff8b60b81c16935082828287879950995099509950995050505050509295509295909350565b60006003905090565b600080303b90506000811491505090565b7f000000000000000000000000000000000000000000000000000000000000000073ffffffffffffffffffffffffffffffffffffffff1663707cd7166040518163ffffffff1660e01b8152600401602060405180830381865afa158015614c84573d6000803e3d6000fd5b505050506040513d601f19601f82011682018060405250810190614ca89190616ad6565b73ffffffffffffffffffffffffffffffffffffffff16637be53ca1336040518263ffffffff1660e01b8152600401614ce09190615d8c565b602060405180830381865afa158015614cfd573d6000803e3d6000fd5b505050506040513d601f19601f82011682018060405250810190614d219190617503565b6040518060400160405280600181526020017f310000000000000000000000000000000000000000000000000000000000000081525090614d98576040517f08c379a0000000000000000000000000000000000000000000000000000000008152600401614d8f9190616ded565b60405180910390fd5b50565b6000808260030160109054906101000a900464ffffffffff169050428164ffffffffff161415614e00578260010160009054906101000a90046fffffffffffffffffffffffffffffffff166fffffffffffffffffffffffffffffffff16915050614e84565b614e808360010160009054906101000a90046fffffffffffffffffffffffffffffffff166fffffffffffffffffffffffffffffffff16614e728560010160109054906101000a90046fffffffffffffffffffffffffffffffff166fffffffffffffffffffffffffffffffff1684615114565b6150c990919063ffffffff16565b9150505b919050565b60008060008060008060008061ffff891693506fffffffffffffffffffffffffffffffff8960101c16925060ff8960901c16915061ffff8960981c1690508960008561ffff16815260200190815260200160002060009054906101000a900473ffffffffffffffffffffffffffffffffffffffff1683838397509750975097505050505092959194509250565b60008060008060008061ffff871692506fffffffffffffffffffffffffffffffff8760101c16915061ffff8760901c1690508760008461ffff16815260200190815260200160002060009054906101000a900473ffffffffffffffffffffffffffffffffffffffff1682829550955095505050509250925092565b60008060008060008060008060008061ffff8c16945061ffff8c60101c16935073ffffffffffffffffffffffffffffffffffffffff8c60201c1692506fffffffffffffffffffffffffffffffff8b16915060018b60801c1690506fffffffffffffffffffffffffffffffff8016821415615029577fffffffffffffffffffffffffffffffffffffffffffffffffffffffffffffffff91505b8c60008661ffff16815260200190815260200160002060009054906101000a900473ffffffffffffffffffffffffffffffffffffffff168d60008661ffff16815260200190815260200160002060009054906101000a900473ffffffffffffffffffffffffffffffffffffffff16848484995099509950995099505050505050939792965093509350565b60006150c183834261516f565b905092915050565b6000816b019d971e4fe8401e7400000060001903048311158215176150ed57600080fd5b6b033b2e3c9fd0803ce80000006b019d971e4fe8401e740000008385020104905092915050565b6000808264ffffffffff164261512a9190617d20565b84615135919061803a565b90506301e13380818161514b5761514a618094565b5b049050806b033b2e3c9fd0803ce800000061516691906180c3565b91505092915050565b6000808364ffffffffff16836151859190617d20565b905060008114156151a5576b033b2e3c9fd0803ce80000009150506152d6565b600080600080600185039350600285116151c05760006151c5565b600285035b92506301e1338080026151e18a8b6150c990919063ffffffff16565b816151ef576151ee618094565b5b0491506301e1338061520a8a846150c990919063ffffffff16565b8161521857615217618094565b5b049050600082858761522a919061803a565b615234919061803a565b90506002818161524757615246618094565b5b04905060008285878961525a919061803a565b615264919061803a565b61526e919061803a565b90506006818161528157615280618094565b5b04905080826301e13380898e615297919061803a565b6152a19190618119565b6b033b2e3c9fd0803ce80000006152b891906180c3565b6152c291906180c3565b6152cc91906180c3565b9750505050505050505b9392505050565b604051806101e001604052806152f16154b0565b815260200160006fffffffffffffffffffffffffffffffff16815260200160006fffffffffffffffffffffffffffffffff16815260200160006fffffffffffffffffffffffffffffffff16815260200160006fffffffffffffffffffffffffffffffff16815260200160006fffffffffffffffffffffffffffffffff168152602001600064ffffffffff168152602001600061ffff168152602001600073ffffffffffffffffffffffffffffffffffffffff168152602001600073ffffffffffffffffffffffffffffffffffffffff168152602001600073ffffffffffffffffffffffffffffffffffffffff168152602001600073ffffffffffffffffffffffffffffffffffffffff16815260200160006fffffffffffffffffffffffffffffffff16815260200160006fffffffffffffffffffffffffffffffff16815260200160006fffffffffffffffffffffffffffffffff1681525090565b6040518060200160405280600081525090565b6040518060a00160405280600061ffff168152602001600061ffff168152602001600061ffff168152602001600073ffffffffffffffffffffffffffffffffffffffff168152602001606081525090565b6040518060200160405280600081525090565b8280546154cf906173f6565b90600052602060002090601f0160209004810192826154f15760008555615538565b82601f1061550a57805160ff1916838001178555615538565b82800160010185558215615538579182015b8281111561553757825182559160200191906001019061551c565b5b5090506155459190615549565b5090565b5b8082111561556257600081600090555060010161554a565b5090565b6000604051905090565b600080fd5b600080fd5b600073ffffffffffffffffffffffffffffffffffffffff82169050919050565b60006155a58261557a565b9050919050565b6155b58161559a565b81146155c057600080fd5b50565b6000813590506155d2816155ac565b92915050565b6000819050919050565b6155eb816155d8565b81146155f657600080fd5b50565b600081359050615608816155e2565b92915050565b60008115159050919050565b6156238161560e565b811461562e57600080fd5b50565b6000813590506156408161561a565b92915050565b600080600080600060a0868803121561566257615661615570565b5b6000615670888289016155c3565b9550506020615681888289016155c3565b9450506040615692888289016155c3565b93505060606156a3888289016155f9565b92505060806156b488828901615631565b9150509295509295909350565b6156ca816155d8565b82525050565b60006020820190506156e560008301846156c1565b92915050565b600061ffff82169050919050565b615702816156eb565b811461570d57600080fd5b50565b60008135905061571f816156f9565b92915050565b600060ff82169050919050565b61573b81615725565b811461574657600080fd5b50565b60008135905061575881615732565b92915050565b6000819050919050565b6157718161575e565b811461577c57600080fd5b50565b60008135905061578e81615768565b92915050565b600080600080600080600080610100898b0312156157b5576157b4615570565b5b60006157c38b828c016155c3565b98505060206157d48b828c016155f9565b97505060406157e58b828c016155c3565b96505060606157f68b828c01615710565b95505060806158078b828c016155f9565b94505060a06158188b828c01615749565b93505060c06158298b828c0161577f565b92505060e061583a8b828c0161577f565b9150509295985092959890939650565b6000819050919050565b600061586f61586a6158658461557a565b61584a565b61557a565b9050919050565b600061588182615854565b9050919050565b600061589382615876565b9050919050565b6158a381615888565b82525050565b60006020820190506158be600083018461589a565b92915050565b60006fffffffffffffffffffffffffffffffff82169050919050565b6158e9816158c4565b82525050565b600060208201905061590460008301846158e0565b92915050565b6000806040838503121561592157615920615570565b5b600061592f858286016155c3565b9250506020615940858286016155c3565b9150509250929050565b6000602082840312156159605761595f615570565b5b600061596e8482850161577f565b91505092915050565b60006020828403121561598d5761598c615570565b5b600061599b84828501615749565b91505092915050565b6000806000606084860312156159bd576159bc615570565b5b60006159cb868287016155c3565b93505060206159dc868287016155f9565b92505060406159ed868287016155f9565b9150509250925092565b600060208284031215615a0d57615a0c615570565b5b6000615a1b848285016155f9565b91505092915050565b600060208284031215615a3a57615a39615570565b5b6000615a48848285016155c3565b91505092915050565b615a5a816155d8565b82525050565b602082016000820151615a766000850182615a51565b50505050565b615a85816158c4565b82525050565b600064ffffffffff82169050919050565b615aa581615a8b565b82525050565b615ab4816156eb565b82525050565b615ac38161559a565b82525050565b6101e082016000820151615ae06000850182615a60565b506020820151615af36020850182615a7c565b506040820151615b066040850182615a7c565b506060820151615b196060850182615a7c565b506080820151615b2c6080850182615a7c565b5060a0820151615b3f60a0850182615a7c565b5060c0820151615b5260c0850182615a9c565b5060e0820151615b6560e0850182615aab565b50610100820151615b7a610100850182615aba565b50610120820151615b8f610120850182615aba565b50610140820151615ba4610140850182615aba565b50610160820151615bb9610160850182615aba565b50610180820151615bce610180850182615a7c565b506101a0820151615be36101a0850182615a7c565b506101c0820151615bf86101c0850182615a7c565b50505050565b60006101e082019050615c146000830184615ac9565b92915050565b600080fd5b600080fd5b600080fd5b60008083601f840112615c3f57615c3e615c1a565b5b8235905067ffffffffffffffff811115615c5c57615c5b615c1f565b5b602083019150836001820283011115615c7857615c77615c24565b5b9250929050565b60008060008060008060a08789031215615c9c57615c9b615570565b5b6000615caa89828a016155c3565b9650506020615cbb89828a016155c3565b9550506040615ccc89828a016155f9565b945050606087013567ffffffffffffffff811115615ced57615cec615575565b5b615cf989828a01615c29565b93509350506080615d0c89828a01615710565b9150509295509295509295565b602082016000820151615d2f6000850182615a51565b50505050565b6000602082019050615d4a6000830184615d19565b92915050565b600060208284031215615d6657615d65615570565b5b6000615d7484828501615710565b91505092915050565b615d868161559a565b82525050565b6000602082019050615da16000830184615d7d565b92915050565b60008060008060808587031215615dc157615dc0615570565b5b6000615dcf878288016155c3565b9450506020615de0878288016155f9565b9350506040615df1878288016155f9565b9250506060615e02878288016155c3565b91505092959194509250565b60008060408385031215615e2557615e24615570565b5b6000615e33858286016155c3565b9250506020615e4485828601615631565b9150509250929050565b60008060008060808587031215615e6857615e67615570565b5b6000615e76878288016155c3565b9450506020615e87878288016155f9565b9350506040615e98878288016155c3565b9250506060615ea987828801615710565b91505092959194509250565b600080600060608486031215615ece57615ecd615570565b5b6000615edc8682870161577f565b9350506020615eed8682870161577f565b9250506040615efe8682870161577f565b9150509250925092565b600080600060608486031215615f2157615f20615570565b5b6000615f2f868287016155c3565b9350506020615f40868287016155f9565b9250506040615f51868287016155c3565b9150509250925092565b600081519050919050565b600082825260208201905092915050565b60005b83811015615f95578082015181840152602081019050615f7a565b83811115615fa4576000848401525b50505050565b6000601f19601f8301169050919050565b6000615fc682615f5b565b615fd08185615f66565b9350615fe0818560208601615f77565b615fe981615faa565b840191505092915050565b600060a08301600083015161600c6000860182615aab565b50602083015161601f6020860182615aab565b5060408301516160326040860182615aab565b5060608301516160456060860182615aba565b506080830151848203608086015261605d8282615fbb565b9150508091505092915050565b600060208201905081810360008301526160848184615ff4565b905092915050565b600080600080600060a086880312156160a8576160a7615570565b5b60006160b6888289016155c3565b95505060206160c7888289016155c3565b94505060406160d8888289016155c3565b93505060606160e9888289016155c3565b92505060806160fa888289016155c3565b9150509295509295909350565b6000806040838503121561611e5761611d615570565b5b600061612c858286016155c3565b925050602061613d858286016155f9565b9150509250929050565b60008083601f84011261615d5761615c615c1a565b5b8235905067ffffffffffffffff81111561617a57616179615c1f565b5b60208301915083602082028301111561619657616195615c24565b5b9250929050565b600080602083850312156161b4576161b3615570565b5b600083013567ffffffffffffffff8111156161d2576161d1615575565b5b6161de85828601616147565b92509250509250929050565b600080600080600060a0868803121561620657616205615570565b5b6000616214888289016155c3565b9550506020616225888289016155f9565b9450506040616236888289016155f9565b935050606061624788828901615710565b9250506080616258888289016155c3565b9150509295509295909350565b60008083601f84011261627b5761627a615c1a565b5b8235905067ffffffffffffffff81111561629857616297615c1f565b5b6020830191508360208202830111156162b4576162b3615c24565b5b9250929050565b600080600080600080600080600080600060e08c8e0312156162e0576162df615570565b5b60006162ee8e828f016155c3565b9b505060208c013567ffffffffffffffff81111561630f5761630e615575565b5b61631b8e828f01616147565b9a509a505060408c013567ffffffffffffffff81111561633e5761633d615575565b5b61634a8e828f01616265565b985098505060608c013567ffffffffffffffff81111561636d5761636c615575565b5b6163798e828f01616265565b9650965050608061638c8e828f016155c3565b94505060a08c013567ffffffffffffffff8111156163ad576163ac615575565b5b6163b98e828f01615c29565b935093505060c06163cc8e828f01615710565b9150509295989b509295989b9093969950565b6163e8816158c4565b81146163f357600080fd5b50565b600081359050616405816163df565b92915050565b6000806040838503121561642257616421615570565b5b6000616430858286016163f6565b9250506020616441858286016163f6565b9150509250929050565b600060c08201905061646060008301896156c1565b61646d60208301886156c1565b61647a60408301876156c1565b61648760608301866156c1565b61649460808301856156c1565b6164a160a08301846156c1565b979650505050505050565b6020820160008201516164c26000850182615a51565b50505050565b60006020820190506164dd60008301846164ac565b92915050565b60006164ee8261559a565b9050919050565b6164fe816164e3565b811461650957600080fd5b50565b60008135905061651b816164f5565b92915050565b60006020828403121561653757616536615570565b5b60006165458482850161650c565b91505092915050565b60008060006060848603121561656757616566615570565b5b6000616575868287016155c3565b9350506020616586868287016155c3565b9250506040616597868287016155f9565b9150509250925092565b600081519050919050565b600082825260208201905092915050565b6000819050602082019050919050565b60006165d98383615aba565b60208301905092915050565b6000602082019050919050565b60006165fd826165a1565b61660781856165ac565b9350616612836165bd565b8060005b8381101561664357815161662a88826165cd565b9750616635836165e5565b925050600181019050616616565b5085935050505092915050565b6000602082019050818103600083015261666a81846165f2565b905092915050565b600080fd5b7f4e487b7100000000000000000000000000000000000000000000000000000000600052604160045260246000fd5b6166af82615faa565b810181811067ffffffffffffffff821117156166ce576166cd616677565b5b80604052505050565b60006166e1615566565b90506166ed82826166a6565b919050565b600080fd5b600080fd5b600067ffffffffffffffff82111561671757616716616677565b5b61672082615faa565b9050602081019050919050565b82818337600083830152505050565b600061674f61674a846166fc565b6166d7565b90508281526020810184848401111561676b5761676a6166f7565b5b61677684828561672d565b509392505050565b600082601f83011261679357616792615c1a565b5b81356167a384826020860161673c565b91505092915050565b600060a082840312156167c2576167c1616672565b5b6167cc60a06166d7565b905060006167dc84828501615710565b60008301525060206167f084828501615710565b602083015250604061680484828501615710565b6040830152506060616818848285016155c3565b606083015250608082013567ffffffffffffffff81111561683c5761683b6166f2565b5b6168488482850161677e565b60808301525092915050565b6000806040838503121561686b5761686a615570565b5b600061687985828601615749565b925050602083013567ffffffffffffffff81111561689a57616899615575565b5b6168a6858286016167ac565b9150509250929050565b60008060008060008060c087890312156168cd576168cc615570565b5b60006168db89828a016155c3565b96505060206168ec89828a016155c3565b95505060406168fd89828a016155c3565b945050606061690e89828a016155f9565b935050608061691f89828a016155f9565b92505060a061693089828a016155f9565b9150509295509295509295565b600080600080600080600080610100898b03121561695e5761695d615570565b5b600061696c8b828c016155c3565b985050602061697d8b828c016155f9565b975050604061698e8b828c016155f9565b965050606061699f8b828c016155c3565b95505060806169b08b828c016155f9565b94505060a06169c18b828c01615749565b93505060c06169d28b828c0161577f565b92505060e06169e38b828c0161577f565b9150509295985092959890939650565b600080fd5b600060208284031215616a0e57616a0d6169f3565b5b81905092915050565b60008060408385031215616a2e57616a2d615570565b5b6000616a3c858286016155c3565b9250506020616a4d858286016169f8565b9150509250929050565b616a60816156eb565b82525050565b6000602082019050616a7b6000830184616a57565b92915050565b60008060408385031215616a9857616a97615570565b5b6000616aa68582860161577f565b9250506020616ab78582860161577f565b9150509250929050565b600081519050616ad0816155ac565b92915050565b600060208284031215616aec57616aeb615570565b5b6000616afa84828501616ac1565b91505092915050565b8082525050565b8082525050565b8082525050565b8082525050565b616b28816155d8565b82525050565b616b378161559a565b82525050565b616b468161560e565b82525050565b616b5581615725565b82525050565b61012082016000820151616b726000850182616b1f565b506020820151616b856020850182616b1f565b506040820151616b986040850182616b2e565b506060820151616bab6060850182616b2e565b506080820151616bbe6080850182616b2e565b5060a0820151616bd160a0850182616b3d565b5060c0820151616be460c0850182616b2e565b5060e0820151616bf760e0850182616b4c565b50610100820151616c0c610100850182616b2e565b50505050565b60006101a082019050616c286000830188616b03565b616c356020830187616b0a565b616c426040830186616b11565b616c4f6060830185616b18565b616c5c6080830184616b5b565b9695505050505050565b616c6f81615725565b82525050565b616c7e8161575e565b82525050565b600060e082019050616c99600083018a615d7d565b616ca66020830189615d7d565b616cb360408301886156c1565b616cc060608301876156c1565b616ccd6080830186616c66565b616cda60a0830185616c75565b616ce760c0830184616c75565b98975050505050505050565b8082525050565b616d03816156eb565b82525050565b608082016000820151616d1f6000850182616b2e565b506020820151616d326020850182616b1f565b506040820151616d456040850182616b2e565b506060820151616d586060850182616cfa565b50505050565b600060e082019050616d736000830187616b03565b616d806020830186616b0a565b616d8d6040830185616cf3565b616d9a6060830184616d09565b95945050505050565b600082825260208201905092915050565b6000616dbf82615f5b565b616dc98185616da3565b9350616dd9818560208601615f77565b616de281615faa565b840191505092915050565b60006020820190508181036000830152616e078184616db4565b905092915050565b8082525050565b606082016000820151616e2c6000850182616b1f565b506020820151616e3f6020850182616b2e565b506040820151616e526040850182616b4c565b50505050565b600061010082019050616e6e6000830189616b03565b616e7b6020830188616b0a565b616e886040830187616b18565b616e956060830186616e0f565b616ea26080830185616cf3565b616eaf60a0830184616e16565b979650505050505050565b7f4e487b7100000000000000000000000000000000000000000000000000000000600052602160045260246000fd5b60038110616efa57616ef9616eba565b5b50565b6000819050616f0b82616ee9565b919050565b6000616f1b82616efd565b9050919050565b616f2b81616f10565b82525050565b60a082016000820151616f476000850182616b2e565b506020820151616f5a6020850182616b1f565b506040820151616f6d6040850182616f22565b506060820151616f806060850182616b2e565b506080820151616f936080850182616b3d565b50505050565b600061010082019050616faf6000830187616b03565b616fbc6020830186616b0a565b616fc96040830185616cf3565b616fd66060830184616f31565b95945050505050565b600081519050616fee816155e2565b92915050565b60006020828403121561700a57617009615570565b5b600061701884828501616fdf565b91505092915050565b8082525050565b600081519050919050565b600082825260208201905092915050565b600061704f82617028565b6170598185617033565b9350617069818560208601615f77565b61707281615faa565b840191505092915050565b600060e0830160008301516170956000860182616b2e565b5060208301516170a86020860182616b2e565b5060408301516170bb6040860182616b1f565b50606083015184820360608601526170d38282617044565b91505060808301516170e86080860182616cfa565b5060a08301516170fb60a0860182616b1f565b5060c083015161710e60c0860182616b1f565b508091505092915050565b600060408201905061712e6000830185617021565b8181036020830152617140818461707d565b90509392505050565b6171528161559a565b82525050565b6171618161560e565b82525050565b600061718261717d617178846156eb565b61584a565b6155d8565b9050919050565b61719281617167565b82525050565b6171a181615725565b82525050565b6000610120820190506171bd600083018c616b03565b6171ca602083018b616b0a565b6171d7604083018a616b18565b6171e46060830189616cf3565b6171f16080830188617149565b6171fe60a0830187617158565b61720b60c0830186617189565b61721860e0830185617149565b617226610100830184617198565b9a9950505050505050505050565b60006060820190506172496000830186616b03565b6172566020830185616b0a565b6172636040830184617149565b949350505050565b60c0820160008201516172816000850182616b2e565b5060208201516172946020850182616b1f565b5060408201516172a76040850182616b2e565b5060608201516172ba6060850182616b1f565b5060808201516172cd6080850182616b2e565b5060a08201516172e060a0850182616b4c565b50505050565b6000610140820190506172fc6000830188616b03565b6173096020830187616b0a565b6173166040830186616b18565b6173236060830185616cf3565b617330608083018461726b565b9695505050505050565b617343816155d8565b82525050565b617352816156eb565b82525050565b600060e08201905061736d600083018a616b03565b61737a6020830189616b0a565b6173876040830188616cf3565b6173946060830187617149565b6173a1608083018661733a565b6173ae60a0830185617149565b6173bb60c0830184617349565b98975050505050505050565b7f4e487b7100000000000000000000000000000000000000000000000000000000600052602260045260246000fd5b6000600282049050600182168061740e57607f821691505b60208210811415617422576174216173c7565b5b50919050565b60e08201600082015161743e6000850182616b2e565b5060208201516174516020850182616b2e565b5060408201516174646040850182616b2e565b5060608201516174776060850182616b2e565b50608082015161748a6080850182616b2e565b5060a082015161749d60a0850182616cfa565b5060c08201516174b060c0850182616cfa565b50505050565b6000610120820190506174cc6000830186616b03565b6174d96020830185616b0a565b6174e66040830184617428565b949350505050565b6000815190506174fd8161561a565b92915050565b60006020828403121561751957617518615570565b5b6000617527848285016174ee565b91505092915050565b7f4e487b7100000000000000000000000000000000000000000000000000000000600052601160045260246000fd5b600061756a826156eb565b915061ffff82141561757f5761757e617530565b5b600182019050919050565b61759381616f10565b82525050565b60006080820190506175ae6000830187617021565b6175bb6020830186616cf3565b6175c86040830185617149565b6175d5606083018461758a565b95945050505050565b600082825260208201905092915050565b6000819050919050565b60006176058383616b2e565b60208301905092915050565b600061762060208401846155c3565b905092915050565b6000602082019050919050565b600061764183856175de565b935061764c826175ef565b8060005b85811015617685576176628284617611565b61766c88826175f9565b975061767783617628565b925050600181019050617650565b5085925050509392505050565b60006040820190506176a76000830186616b03565b81810360208301526176ba818486617635565b9050949350505050565b610180820160008201516176db6000850182616b2e565b5060208201516176ee6020850182616b2e565b5060408201516177016040850182616b2e565b5060608201516177146060850182616b1f565b5060808201516177276080850182616f22565b5060a082015161773a60a0850182616cfa565b5060c082015161774d60c0850182616b3d565b5060e082015161776060e0850182616b1f565b50610100820151617775610100850182616b1f565b5061012082015161778a610120850182616b2e565b5061014082015161779f610140850182616b4c565b506101608201516177b4610160850182616b2e565b50505050565b6000610200820190506177d06000830188616b03565b6177dd6020830187616b0a565b6177ea6040830186616b18565b6177f76060830185616cf3565b61780460808301846176c4565b9695505050505050565b600082825260208201905092915050565b600061782a826165a1565b617834818561780e565b935061783f836165bd565b8060005b8381101561787057815161785788826175f9565b9750617862836165e5565b925050600181019050617843565b5085935050505092915050565b600081519050919050565b600082825260208201905092915050565b6000819050602082019050919050565b60006178b58383616b1f565b60208301905092915050565b6000602082019050919050565b60006178d98261787d565b6178e38185617888565b93506178ee83617899565b8060005b8381101561791f57815161790688826178a9565b9750617911836178c1565b9250506001810190506178f2565b5085935050505092915050565b60006101c0830160008301516179456000860182616b2e565b506020830151848203602086015261795d828261781f565b9150506040830151848203604086015261797782826178ce565b9150506060830151848203606086015261799182826178ce565b91505060808301516179a66080860182616b2e565b5060a083015184820360a08601526179be8282617044565b91505060c08301516179d360c0860182616cfa565b5060e08301516179e660e0860182616b1f565b506101008301516179fb610100860182616b1f565b50610120830151617a10610120860182616b1f565b50610140830151617a25610140860182616b1f565b50610160830151617a3a610160860182616b2e565b50610180830151617a4f610180860182616b4c565b506101a0830151617a646101a0860182616b3d565b508091505092915050565b600060a082019050617a846000830188616b03565b617a916020830187616b0a565b617a9e6040830186616b18565b617aab6060830185616cf3565b8181036080830152617abd818461792c565b90509695505050505050565b602082016000820151617adf6000850182616b1f565b50505050565b60a082016000820151617afb6000850182617ac9565b506020820151617b0e6020850182616b1f565b506040820151617b216040850182616b2e565b506060820151617b346060850182616b2e565b506080820151617b476080850182616b4c565b50505050565b600061010082019050617b636000830187616b03565b617b706020830186616b0a565b617b7d6040830185616b18565b617b8a6060830184617ae5565b95945050505050565b60008060008060008060c08789031215617bb057617baf615570565b5b6000617bbe89828a01616fdf565b9650506020617bcf89828a01616fdf565b9550506040617be089828a01616fdf565b9450506060617bf189828a01616fdf565b9350506080617c0289828a01616fdf565b92505060a0617c1389828a01616fdf565b9150509295509295509295565b7f436f6e747261637420696e7374616e63652068617320616c726561647920626560008201527f656e20696e697469616c697a6564000000000000000000000000000000000000602082015250565b6000617c7c602e83616da3565b9150617c8782617c20565b604082019050919050565b60006020820190508181036000830152617cab81617c6f565b9050919050565b6000606082019050617cc76000830186617021565b617cd46020830185617149565b617ce16040830184617149565b949350505050565b6000606082019050617cfe6000830186617149565b617d0b6020830185617149565b617d18604083018461733a565b949350505050565b6000617d2b826155d8565b9150617d36836155d8565b925082821015617d4957617d48617530565b5b828203905092915050565b7f4e487b7100000000000000000000000000000000000000000000000000000000600052603260045260246000fd5b6000617d8e826155d8565b91507fffffffffffffffffffffffffffffffffffffffffffffffffffffffffffffffff821415617dc157617dc0617530565b5b600182019050919050565b61012082016000820151617de36000850182616b2e565b506020820151617df66020850182616b2e565b506040820151617e096040850182616b2e565b506060820151617e1c6060850182616b1f565b506080820151617e2f6080850182616b1f565b5060a0820151617e4260a0850182616b1f565b5060c0820151617e5560c0850182616b1f565b5060e0820151617e6860e0850182616b2e565b50610100820151617e7d610100850182616b4c565b50505050565b60006101a082019050617e996000830188616b03565b617ea66020830187616b0a565b617eb36040830186616b18565b617ec06060830185616b11565b617ecd6080830184617dcc565b9695505050505050565b600060a082019050617eec6000830188617021565b617ef96020830187617149565b617f06604083018661733a565b617f13606083018561733a565b617f20608083018461733a565b9695505050505050565b6000604082019050617f3f6000830185616b03565b617f4c6020830184617149565b9392505050565b60008135617f60816155e2565b80915050919050565b60008160001b9050919050565b60007fffffffffffffffffffffffffffffffffffffffffffffffffffffffffffffffff617fa284617f69565b9350801983169250808416831791505092915050565b6000617fd3617fce617fc9846155d8565b61584a565b6155d8565b9050919050565b6000819050919050565b617fed82617fb8565b618000617ff982617fda565b8354617f76565b8255505050565b60008101600083018061801981617f53565b90506180258184617fe4565b5050505050565b6180368282618007565b5050565b6000618045826155d8565b9150618050836155d8565b9250817fffffffffffffffffffffffffffffffffffffffffffffffffffffffffffffffff048311821515161561808957618088617530565b5b828202905092915050565b7f4e487b7100000000000000000000000000000000000000000000000000000000600052601260045260246000fd5b60006180ce826155d8565b91506180d9836155d8565b9250827fffffffffffffffffffffffffffffffffffffffffffffffffffffffffffffffff0382111561810e5761810d617530565b5b828201905092915050565b6000618124826155d8565b915061812f836155d8565b92508261813f5761813e618094565b5b82820490509291505056fea2646970667358221220e42148fd3968ed1cce30d4bc8e3fbd8527e8c1db8ec3e380e73e7d48c9f7335564736f6c634300080a0033",
  "linkReferences": {
    "contracts/Aave_Contracts/protocol/libraries/logic/BorrowLogic.sol": {
      "BorrowLogic": [
        {
          "length": 20,
          "start": 5478
        },
        {
          "length": 20,
          "start": 7745
        },
        {
          "length": 20,
          "start": 10579
        },
        {
          "length": 20,
          "start": 10946
        },
        {
          "length": 20,
          "start": 14292
        },
        {
          "length": 20,
          "start": 17261
        }
      ]
    },
    "contracts/Aave_Contracts/protocol/libraries/logic/BridgeLogic.sol": {
      "BridgeLogic": [
        {
          "length": 20,
          "start": 9485
        },
        {
          "length": 20,
          "start": 16285
        }
      ]
    },
    "contracts/Aave_Contracts/protocol/libraries/logic/EModeLogic.sol": {
      "EModeLogic": [
        {
          "length": 20,
          "start": 5081
        }
      ]
    },
    "contracts/Aave_Contracts/protocol/libraries/logic/FlashLoanLogic.sol": {
      "FlashLoanLogic": [
        {
          "length": 20,
          "start": 7325
        },
        {
          "length": 20,
          "start": 12733
        }
      ]
    },
    "contracts/Aave_Contracts/protocol/libraries/logic/LiquidationLogic.sol": {
      "LiquidationLogic": [
        {
          "length": 20,
          "start": 3273
        }
      ]
    },
    "contracts/Aave_Contracts/protocol/libraries/logic/PoolLogic.sol": {
      "PoolLogic": [
        {
          "length": 20,
          "start": 8755
        },
        {
          "length": 20,
          "start": 10095
        },
        {
          "length": 20,
          "start": 10834
        },
        {
          "length": 20,
          "start": 13058
        },
        {
          "length": 20,
          "start": 14473
        },
        {
          "length": 20,
          "start": 16517
        }
      ]
    },
    "contracts/Aave_Contracts/protocol/libraries/logic/SupplyLogic.sol": {
      "SupplyLogic": [
        {
          "length": 20,
          "start": 4077
        },
        {
          "length": 20,
          "start": 8066
        },
        {
          "length": 20,
          "start": 8488
        },
        {
          "length": 20,
          "start": 8924
        },
        {
          "length": 20,
          "start": 15717
        },
        {
          "length": 20,
          "start": 16666
        }
      ]
    }
  },
  "deployedLinkReferences": {
    "contracts/Aave_Contracts/protocol/libraries/logic/BorrowLogic.sol": {
      "BorrowLogic": [
        {
          "length": 20,
          "start": 5047
        },
        {
          "length": 20,
          "start": 7314
        },
        {
          "length": 20,
          "start": 10148
        },
        {
          "length": 20,
          "start": 10515
        },
        {
          "length": 20,
          "start": 13861
        },
        {
          "length": 20,
          "start": 16830
        }
      ]
    },
    "contracts/Aave_Contracts/protocol/libraries/logic/BridgeLogic.sol": {
      "BridgeLogic": [
        {
          "length": 20,
          "start": 9054
        },
        {
          "length": 20,
          "start": 15854
        }
      ]
    },
    "contracts/Aave_Contracts/protocol/libraries/logic/EModeLogic.sol": {
      "EModeLogic": [
        {
          "length": 20,
          "start": 4650
        }
      ]
    },
    "contracts/Aave_Contracts/protocol/libraries/logic/FlashLoanLogic.sol": {
      "FlashLoanLogic": [
        {
          "length": 20,
          "start": 6894
        },
        {
          "length": 20,
          "start": 12302
        }
      ]
    },
    "contracts/Aave_Contracts/protocol/libraries/logic/LiquidationLogic.sol": {
      "LiquidationLogic": [
        {
          "length": 20,
          "start": 2842
        }
      ]
    },
    "contracts/Aave_Contracts/protocol/libraries/logic/PoolLogic.sol": {
      "PoolLogic": [
        {
          "length": 20,
          "start": 8324
        },
        {
          "length": 20,
          "start": 9664
        },
        {
          "length": 20,
          "start": 10403
        },
        {
          "length": 20,
          "start": 12627
        },
        {
          "length": 20,
          "start": 14042
        },
        {
          "length": 20,
          "start": 16086
        }
      ]
    },
    "contracts/Aave_Contracts/protocol/libraries/logic/SupplyLogic.sol": {
      "SupplyLogic": [
        {
          "length": 20,
          "start": 3646
        },
        {
          "length": 20,
          "start": 7635
        },
        {
          "length": 20,
          "start": 8057
        },
        {
          "length": 20,
          "start": 8493
        },
        {
          "length": 20,
          "start": 15286
        },
        {
          "length": 20,
          "start": 16235
        }
      ]
    }
  }
}