{
  "_format": "hh-sol-artifact-1",
  "contractName": "WadRayMathWrapper",
  "sourceName": "contracts/Aave_Contracts/mocks/tests/WadRayMathWrapper.sol",
  "abi": [
    {
      "inputs": [],
      "name": "halfRay",
      "outputs": [
        {
          "internalType": "uint256",
          "name": "",
          "type": "uint256"
        }
      ],
      "stateMutability": "pure",
      "type": "function"
    },
    {
      "inputs": [],
      "name": "halfWad",
      "outputs": [
        {
          "internalType": "uint256",
          "name": "",
          "type": "uint256"
        }
      ],
      "stateMutability": "pure",
      "type": "function"
    },
    {
      "inputs": [],
      "name": "ray",
      "outputs": [
        {
          "internalType": "uint256",
          "name": "",
          "type": "uint256"
        }
      ],
      "stateMutability": "pure",
      "type": "function"
    },
    {
      "inputs": [
        {
          "internalType": "uint256",
          "name": "a",
          "type": "uint256"
        },
        {
          "internalType": "uint256",
          "name": "b",
          "type": "uint256"
        }
      ],
      "name": "rayDiv",
      "outputs": [
        {
          "internalType": "uint256",
          "name": "",
          "type": "uint256"
        }
      ],
      "stateMutability": "pure",
      "type": "function"
    },
    {
      "inputs": [
        {
          "internalType": "uint256",
          "name": "a",
          "type": "uint256"
        },
        {
          "internalType": "uint256",
          "name": "b",
          "type": "uint256"
        }
      ],
      "name": "rayMul",
      "outputs": [
        {
          "internalType": "uint256",
          "name": "",
          "type": "uint256"
        }
      ],
      "stateMutability": "pure",
      "type": "function"
    },
    {
      "inputs": [
        {
          "internalType": "uint256",
          "name": "a",
          "type": "uint256"
        }
      ],
      "name": "rayToWad",
      "outputs": [
        {
          "internalType": "uint256",
          "name": "",
          "type": "uint256"
        }
      ],
      "stateMutability": "pure",
      "type": "function"
    },
    {
      "inputs": [],
      "name": "wad",
      "outputs": [
        {
          "internalType": "uint256",
          "name": "",
          "type": "uint256"
        }
      ],
      "stateMutability": "pure",
      "type": "function"
    },
    {
      "inputs": [
        {
          "internalType": "uint256",
          "name": "a",
          "type": "uint256"
        },
        {
          "internalType": "uint256",
          "name": "b",
          "type": "uint256"
        }
      ],
      "name": "wadDiv",
      "outputs": [
        {
          "internalType": "uint256",
          "name": "",
          "type": "uint256"
        }
      ],
      "stateMutability": "pure",
      "type": "function"
    },
    {
      "inputs": [
        {
          "internalType": "uint256",
          "name": "a",
          "type": "uint256"
        },
        {
          "internalType": "uint256",
          "name": "b",
          "type": "uint256"
        }
      ],
      "name": "wadMul",
      "outputs": [
        {
          "internalType": "uint256",
          "name": "",
          "type": "uint256"
        }
      ],
      "stateMutability": "pure",
      "type": "function"
    },
    {
      "inputs": [
        {
          "internalType": "uint256",
          "name": "a",
          "type": "uint256"
        }
      ],
      "name": "wadToRay",
      "outputs": [
        {
          "internalType": "uint256",
          "name": "",
          "type": "uint256"
        }
      ],
      "stateMutability": "pure",
      "type": "function"
    }
  ],
  "bytecode": "0x608060405234801561001057600080fd5b5061055e806100206000396000f3fe608060405234801561001057600080fd5b506004361061009e5760003560e01c80637df38c5b116100665780637df38c5b1461016f5780639c34d8801461018d578063d2e30585146101bd578063e304e1d3146101ed578063e57b6d3b1461020b5761009e565b806310de27b9146100a35780631fa89fc6146100d357806329cb5aa4146100f1578063416a8b2014610121578063761fdad61461013f575b600080fd5b6100bd60048036038101906100b89190610491565b61023b565b6040516100ca91906104cd565b60405180910390f35b6100db61024d565b6040516100e891906104cd565b60405180910390f35b61010b60048036038101906101069190610491565b610261565b60405161011891906104cd565b60405180910390f35b610129610273565b60405161013691906104cd565b60405180910390f35b610159600480360381019061015491906104e8565b610287565b60405161016691906104cd565b60405180910390f35b61017761029b565b60405161018491906104cd565b60405180910390f35b6101a760048036038101906101a291906104e8565b6102ab565b6040516101b491906104cd565b60405180910390f35b6101d760048036038101906101d291906104e8565b6102bf565b6040516101e491906104cd565b60405180910390f35b6101f56102d3565b60405161020291906104cd565b60405180910390f35b610225600480360381019061022091906104e8565b6102e3565b60405161023291906104cd565b60405180910390f35b6000610246826102f7565b9050919050565b60006b019d971e4fe8401e74000000905090565b600061026c82610319565b9050919050565b60006b033b2e3c9fd0803ce8000000905090565b60006102938383610346565b905092915050565b6000670de0b6b3a7640000905090565b60006102b78383610385565b905092915050565b60006102cb83836103cc565b905092915050565b60006706f05b59d3b20000905090565b60006102ef8383610417565b905092915050565b6000633b9aca008202905081633b9aca0082041461031457600080fd5b919050565b6000633b9aca0082049050633b9aca0082066002633b9aca00048110610340576001820191505b50919050565b6000816706f05b59d3b20000600019030483111582151761036657600080fd5b670de0b6b3a76400006706f05b59d3b200008385020104905092915050565b60006b033b2e3c9fd0803ce800000060028304600019030483111515821517156103ae57600080fd5b81600283046b033b2e3c9fd0803ce800000085020104905092915050565b6000816b019d971e4fe8401e7400000060001903048311158215176103f057600080fd5b6b033b2e3c9fd0803ce80000006b019d971e4fe8401e740000008385020104905092915050565b6000670de0b6b3a7640000600283046000190304831115158215171561043c57600080fd5b8160028304670de0b6b3a764000085020104905092915050565b600080fd5b6000819050919050565b61046e8161045b565b811461047957600080fd5b50565b60008135905061048b81610465565b92915050565b6000602082840312156104a7576104a6610456565b5b60006104b58482850161047c565b91505092915050565b6104c78161045b565b82525050565b60006020820190506104e260008301846104be565b92915050565b600080604083850312156104ff576104fe610456565b5b600061050d8582860161047c565b925050602061051e8582860161047c565b915050925092905056fea2646970667358221220c66155600feeb567f386afa85850e332d586486524e7061313599490870d94d064736f6c634300080a0033",
  "linkReferences": {},
  "deployedLinkReferences": {}
}